{
  "_format": "hh-sol-artifact-1",
  "contractName": "RoundFactory",
  "sourceName": "hardhat/contracts/Factories/RoundFactory.sol",
  "abi": [
    {
      "inputs": [],
      "stateMutability": "nonpayable",
      "type": "constructor"
    },
    {
      "anonymous": false,
      "inputs": [
        {
          "indexed": true,
          "internalType": "address",
          "name": "previousOwner",
          "type": "address"
        },
        {
          "indexed": true,
          "internalType": "address",
          "name": "newOwner",
          "type": "address"
        }
      ],
      "name": "OwnershipTransferred",
      "type": "event"
    },
    {
      "inputs": [
        {
          "internalType": "uint256",
          "name": "N",
          "type": "uint256"
        },
        {
          "internalType": "uint256",
          "name": "b",
          "type": "uint256"
        },
        {
          "internalType": "uint256",
          "name": "delta",
          "type": "uint256"
        },
        {
          "internalType": "address",
          "name": "asset",
          "type": "address"
        },
        {
          "internalType": "address",
          "name": "vault_address",
          "type": "address"
        },
        {
          "internalType": "uint256",
          "name": "expiry_timestamp",
          "type": "uint256"
        },
        {
          "internalType": "address",
          "name": "aggregator",
          "type": "address"
        }
      ],
      "name": "deployRound",
      "outputs": [
        {
          "internalType": "address",
          "name": "",
          "type": "address"
        }
      ],
      "stateMutability": "nonpayable",
      "type": "function"
    },
    {
      "inputs": [],
      "name": "owner",
      "outputs": [
        {
          "internalType": "address",
          "name": "",
          "type": "address"
        }
      ],
      "stateMutability": "view",
      "type": "function"
    },
    {
      "inputs": [],
      "name": "renounceOwnership",
      "outputs": [],
      "stateMutability": "nonpayable",
      "type": "function"
    },
    {
      "inputs": [
        {
          "internalType": "address",
          "name": "newOwner",
          "type": "address"
        }
      ],
      "name": "transferOwnership",
      "outputs": [],
      "stateMutability": "nonpayable",
      "type": "function"
    },
    {
      "inputs": [
        {
          "internalType": "address",
          "name": "controller",
          "type": "address"
        }
      ],
      "name": "whitelistController",
      "outputs": [],
      "stateMutability": "nonpayable",
      "type": "function"
    }
  ],
  "bytecode": "0x608060405234801561001057600080fd5b50600061002161012d60201b60201c565b9050806000806101000a81548173ffffffffffffffffffffffffffffffffffffffff021916908373ffffffffffffffffffffffffffffffffffffffff1602179055508073ffffffffffffffffffffffffffffffffffffffff16600073ffffffffffffffffffffffffffffffffffffffff167f8be0079c531659141344cd1fd0a4f28419497f9722a3daafe3b4186f6b6457e060405160405180910390a3506040516100cb90610135565b604051809103906000f0801580156100e7573d6000803e3d6000fd5b50600160006101000a81548173ffffffffffffffffffffffffffffffffffffffff021916908373ffffffffffffffffffffffffffffffffffffffff160217905550610142565b600033905090565b615c1a80613d5083390190565b613bff806101516000396000f3fe60806040523480156200001157600080fd5b50600436106200005e5760003560e01c8063715018a614620000635780638b879e8f146200006f5780638da5cb5b146200008f5780639be4a4c414620000b1578063f2fde38b14620000e7575b600080fd5b6200006d62000107565b005b6200008d6004803603810190620000879190620006ee565b62000248565b005b62000099620002a3565b604051620000a8919062000901565b60405180910390f35b620000cf6004803603810190620000c9919062000746565b620002cc565b604051620000de919062000901565b60405180910390f35b620001056004803603810190620000ff9190620006ee565b620004e0565b005b6200011162000693565b73ffffffffffffffffffffffffffffffffffffffff1662000131620002a3565b73ffffffffffffffffffffffffffffffffffffffff16146200018a576040517f08c379a0000000000000000000000000000000000000000000000000000000008152600401620001819062000962565b60405180910390fd5b600073ffffffffffffffffffffffffffffffffffffffff1660008054906101000a900473ffffffffffffffffffffffffffffffffffffffff1673ffffffffffffffffffffffffffffffffffffffff167f8be0079c531659141344cd1fd0a4f28419497f9722a3daafe3b4186f6b6457e060405160405180910390a360008060006101000a81548173ffffffffffffffffffffffffffffffffffffffff021916908373ffffffffffffffffffffffffffffffffffffffff160217905550565b6001600260008373ffffffffffffffffffffffffffffffffffffffff1673ffffffffffffffffffffffffffffffffffffffff16815260200190815260200160002060006101000a81548160ff02191690831515021790555050565b60008060009054906101000a900473ffffffffffffffffffffffffffffffffffffffff16905090565b6000600260003373ffffffffffffffffffffffffffffffffffffffff1673ffffffffffffffffffffffffffffffffffffffff16815260200190815260200160002060009054906101000a900460ff166200035d576040517f08c379a0000000000000000000000000000000000000000000000000000000008152600401620003549062000940565b60405180910390fd5b60008888888888888860405162000374906200069b565b620003869796959493929190620009c1565b604051809103906000f080158015620003a3573d6000803e3d6000fd5b5090506000600160009054906101000a900473ffffffffffffffffffffffffffffffffffffffff1673ffffffffffffffffffffffffffffffffffffffff1663cf5728ef8b8b856040518463ffffffff1660e01b8152600401620004099392919062000984565b602060405180830381600087803b1580156200042457600080fd5b505af115801562000439573d6000803e3d6000fd5b505050506040513d601f19601f820116820180604052508101906200045f91906200071a565b90508173ffffffffffffffffffffffffffffffffffffffff1663406a6f60826040518263ffffffff1660e01b81526004016200049c919062000901565b600060405180830381600087803b158015620004b757600080fd5b505af1158015620004cc573d6000803e3d6000fd5b505050508192505050979650505050505050565b620004ea62000693565b73ffffffffffffffffffffffffffffffffffffffff166200050a620002a3565b73ffffffffffffffffffffffffffffffffffffffff161462000563576040517f08c379a00000000000000000000000000000000000000000000000000000000081526004016200055a9062000962565b60405180910390fd5b600073ffffffffffffffffffffffffffffffffffffffff168173ffffffffffffffffffffffffffffffffffffffff161415620005d6576040517f08c379a0000000000000000000000000000000000000000000000000000000008152600401620005cd906200091e565b60405180910390fd5b8073ffffffffffffffffffffffffffffffffffffffff1660008054906101000a900473ffffffffffffffffffffffffffffffffffffffff1673ffffffffffffffffffffffffffffffffffffffff167f8be0079c531659141344cd1fd0a4f28419497f9722a3daafe3b4186f6b6457e060405160405180910390a3806000806101000a81548173ffffffffffffffffffffffffffffffffffffffff021916908373ffffffffffffffffffffffffffffffffffffffff16021790555050565b600033905090565b6131088062000ac283390190565b600081359050620006ba8162000a8d565b92915050565b600081519050620006d18162000a8d565b92915050565b600081359050620006e88162000aa7565b92915050565b6000602082840312156200070157600080fd5b60006200071184828501620006a9565b91505092915050565b6000602082840312156200072d57600080fd5b60006200073d84828501620006c0565b91505092915050565b600080600080600080600060e0888a0312156200076257600080fd5b6000620007728a828b01620006d7565b9750506020620007858a828b01620006d7565b9650506040620007988a828b01620006d7565b9550506060620007ab8a828b01620006a9565b9450506080620007be8a828b01620006a9565b93505060a0620007d18a828b01620006d7565b92505060c0620007e48a828b01620006a9565b91505092959891949750929550565b620007fe8162000a4f565b82525050565b60006200081360268362000a3e565b91507f4f776e61626c653a206e6577206f776e657220697320746865207a65726f206160008301527f64647265737300000000000000000000000000000000000000000000000000006020830152604082019050919050565b60006200087b601c8362000a3e565b91507f6f6e6c792077686974656c697374656420636f6e74726f6c6c657273000000006000830152602082019050919050565b6000620008bd60208362000a3e565b91507f4f776e61626c653a2063616c6c6572206973206e6f7420746865206f776e65726000830152602082019050919050565b620008fb8162000a83565b82525050565b6000602082019050620009186000830184620007f3565b92915050565b60006020820190508181036000830152620009398162000804565b9050919050565b600060208201905081810360008301526200095b816200086c565b9050919050565b600060208201905081810360008301526200097d81620008ae565b9050919050565b60006060820190506200099b6000830186620008f0565b620009aa6020830185620008f0565b620009b96040830184620007f3565b949350505050565b600060e082019050620009d8600083018a620008f0565b620009e76020830189620008f0565b620009f66040830188620008f0565b62000a056060830187620007f3565b62000a146080830186620007f3565b62000a2360a0830185620008f0565b62000a3260c0830184620007f3565b98975050505050505050565b600082825260208201905092915050565b600062000a5c8262000a63565b9050919050565b600073ffffffffffffffffffffffffffffffffffffffff82169050919050565b6000819050919050565b62000a988162000a4f565b811462000aa457600080fd5b50565b62000ab28162000a83565b811462000abe57600080fd5b5056fe60806040523480156200001157600080fd5b506040516200310838038062003108833981810160405281019062000037919062000364565b6000620000496200031760201b60201c565b9050806000806101000a81548173ffffffffffffffffffffffffffffffffffffffff021916908373ffffffffffffffffffffffffffffffffffffffff1602179055508073ffffffffffffffffffffffffffffffffffffffff16600073ffffffffffffffffffffffffffffffffffffffff167f8be0079c531659141344cd1fd0a4f28419497f9722a3daafe3b4186f6b6457e060405160405180910390a350600087116200012d576040517f08c379a000000000000000000000000000000000000000000000000000000000815260040162000124906200052f565b60405180910390fd5b86600181905550600086116200017a576040517f08c379a000000000000000000000000000000000000000000000000000000000815260040162000171906200050d565b60405180910390fd5b84600381905550816006819055504260058190555083600e60006101000a81548173ffffffffffffffffffffffffffffffffffffffff021916908373ffffffffffffffffffffffffffffffffffffffff160217905550600e60009054906101000a900473ffffffffffffffffffffffffffffffffffffffff1673ffffffffffffffffffffffffffffffffffffffff1663313ce5676040518163ffffffff1660e01b815260040160206040518083038186803b1580156200023957600080fd5b505afa1580156200024e573d6000803e3d6000fd5b505050506040513d601f19601f8201168201806040525081019062000274919062000411565b600a620002829190620005bd565b600d8190555082601160006101000a81548173ffffffffffffffffffffffffffffffffffffffff021916908373ffffffffffffffffffffffffffffffffffffffff16021790555080601060006101000a81548173ffffffffffffffffffffffffffffffffffffffff021916908373ffffffffffffffffffffffffffffffffffffffff16021790555050505050505050620007cf565b600033905090565b600081519050620003308162000781565b92915050565b60008151905062000347816200079b565b92915050565b6000815190506200035e81620007b5565b92915050565b600080600080600080600060e0888a0312156200038057600080fd5b6000620003908a828b0162000336565b9750506020620003a38a828b0162000336565b9650506040620003b68a828b0162000336565b9550506060620003c98a828b016200031f565b9450506080620003dc8a828b016200031f565b93505060a0620003ef8a828b0162000336565b92505060c0620004028a828b016200031f565b91505092959891949750929550565b6000602082840312156200042457600080fd5b600062000434848285016200034d565b91505092915050565b60006200044c60218362000551565b91507f636f6e7374727563746f723a20622073686f756c6420626520706f736974697660008301527f65000000000000000000000000000000000000000000000000000000000000006020830152604082019050919050565b6000620004b460218362000551565b91507f636f6e7374727563746f723a204e2073686f756c6420626520706f736974697660008301527f65000000000000000000000000000000000000000000000000000000000000006020830152604082019050919050565b6000602082019050818103600083015262000528816200043d565b9050919050565b600060208201905081810360008301526200054a81620004a5565b9050919050565b600082825260208201905092915050565b6000808291508390505b6001851115620005b4578086048111156200058c576200058b62000745565b5b60018516156200059c5780820291505b8081029050620005ac8562000774565b94506200056c565b94509492505050565b6000620005ca826200072e565b9150620005d78362000738565b9250620006067fffffffffffffffffffffffffffffffffffffffffffffffffffffffffffffffff84846200060e565b905092915050565b600082620006205760019050620006f3565b81620006305760009050620006f3565b816001811462000649576002811462000654576200068a565b6001915050620006f3565b60ff84111562000669576200066862000745565b5b8360020a91508482111562000683576200068262000745565b5b50620006f3565b5060208310610133831016604e8410600b8410161715620006c45782820a905083811115620006be57620006bd62000745565b5b620006f3565b620006d3848484600162000562565b92509050818404811115620006ed57620006ec62000745565b5b81810290505b9392505050565b600062000707826200070e565b9050919050565b600073ffffffffffffffffffffffffffffffffffffffff82169050919050565b6000819050919050565b600060ff82169050919050565b7f4e487b7100000000000000000000000000000000000000000000000000000000600052601160045260246000fd5b60008160011c9050919050565b6200078c81620006fa565b81146200079857600080fd5b50565b620007a6816200072e565b8114620007b257600080fd5b50565b620007c08162000738565b8114620007cc57600080fd5b50565b61292980620007df6000396000f3fe608060405234801561001057600080fd5b50600436106101c35760003560e01c806370876c98116100f9578063be040fb011610097578063f57f333b11610071578063f57f333b1461049c578063f9dd25e6146104ba578063fbcb8121146104d8578063fcea5e29146104f4576101c3565b8063be040fb014610446578063de6f56c614610450578063f2fde38b14610480576101c3565b806374b5fb06116100d357806374b5fb06146103ce5780638da5cb5b146103ec578063a6f4944d1461040a578063acc0349a14610428576101c3565b806370876c981461039e578063715018a6146103ba578063749aa2d9146103c4576101c3565b80634abc2a2b1161016657806361092ec71161014057806361092ec714610328578063655c4aab14610346578063670ab5e9146103645780636d88fae814610382576101c3565b80634abc2a2b146102bc5780634e1273f4146102da5780635655bb201461030a576101c3565b80631ee4cac8116101a25780631ee4cac81461023457806325374996146102525780632dcbe5bb14610270578063406a6f60146102a0576101c3565b8062fdd58e146101c857806310fe9ae8146101f85780631ade939114610216575b600080fd5b6101e260048036038101906101dd91906119e6565b610512565b6040516101ef919061232d565b60405180910390f35b6102006105c8565b60405161020d91906120b1565b60405180910390f35b61021e6105f2565b60405161022b919061232d565b60405180910390f35b61023c6105f8565b604051610249919061232d565b60405180910390f35b61025a6105fe565b604051610267919061232d565b60405180910390f35b61028a600480360381019061028591906119bd565b610604565b604051610297919061232d565b60405180910390f35b6102ba60048036038101906102b591906119bd565b61061c565b005b6102c461076d565b6040516102d1919061232d565b60405180910390f35b6102f460048036038101906102ef9190611a22565b610773565b60405161030191906121d5565b60405180910390f35b610312610835565b60405161031f919061232d565b60405180910390f35b61033061083b565b60405161033d919061232d565b60405180910390f35b61034e610841565b60405161035b919061232d565b60405180910390f35b61036c610847565b60405161037991906120b1565b60405180910390f35b61039c60048036038101906103979190611c07565b610871565b005b6103b860048036038101906103b39190611b7c565b610a84565b005b6103c2610c94565b005b6103cc610dce565b005b6103d66110b4565b6040516103e3919061232d565b60405180910390f35b6103f46110ba565b60405161040191906120b1565b60405180910390f35b6104126110e3565b60405161041f91906121f7565b60405180910390f35b6104306110f6565b60405161043d919061232d565b60405180910390f35b61044e6110fc565b005b61046a60048036038101906104659190611b2a565b61136b565b604051610477919061232d565b60405180910390f35b61049a600480360381019061049591906119bd565b61141f565b005b6104a46115c8565b6040516104b1919061232d565b60405180910390f35b6104c26115ce565b6040516104cf919061232d565b60405180910390f35b6104f260048036038101906104ed9190611bb8565b6115d4565b005b6104fc6117e7565b6040516105099190612212565b60405180910390f35b6000600f60009054906101000a900473ffffffffffffffffffffffffffffffffffffffff1673ffffffffffffffffffffffffffffffffffffffff1662fdd58e84846040518363ffffffff1660e01b8152600401610570929190612103565b60206040518083038186803b15801561058857600080fd5b505afa15801561059c573d6000803e3d6000fd5b505050506040513d601f19601f820116820180604052508101906105c09190611b53565b905092915050565b6000600f60009054906101000a900473ffffffffffffffffffffffffffffffffffffffff16905090565b60045481565b60035481565b60025481565b600c6020528060005260406000206000915090505481565b61062461180d565b73ffffffffffffffffffffffffffffffffffffffff166106426110ba565b73ffffffffffffffffffffffffffffffffffffffff1614610698576040517f08c379a000000000000000000000000000000000000000000000000000000000815260040161068f906122ed565b60405180910390fd5b600073ffffffffffffffffffffffffffffffffffffffff16600f60009054906101000a900473ffffffffffffffffffffffffffffffffffffffff1673ffffffffffffffffffffffffffffffffffffffff1614610729576040517f08c379a00000000000000000000000000000000000000000000000000000000081526004016107209061228d565b60405180910390fd5b80600f60006101000a81548173ffffffffffffffffffffffffffffffffffffffff021916908373ffffffffffffffffffffffffffffffffffffffff16021790555050565b60055481565b6060600f60009054906101000a900473ffffffffffffffffffffffffffffffffffffffff1673ffffffffffffffffffffffffffffffffffffffff16634e1273f4868686866040518563ffffffff1660e01b81526004016107d6949392919061219a565b60006040518083038186803b1580156107ee57600080fd5b505afa158015610802573d6000803e3d6000fd5b505050506040513d6000823e3d601f19601f8201168201806040525081019061082b9190611a97565b9050949350505050565b60015481565b600b5481565b60085481565b6000600e60009054906101000a900473ffffffffffffffffffffffffffffffffffffffff16905090565b60065442106108b5576040517f08c379a00000000000000000000000000000000000000000000000000000000081526004016108ac9061222d565b60405180910390fd5b6000600f60009054906101000a900473ffffffffffffffffffffffffffffffffffffffff1673ffffffffffffffffffffffffffffffffffffffff166394c5ec65858585336040518563ffffffff1660e01b815260040161091894939291906123fb565b602060405180830381600087803b15801561093257600080fd5b505af1158015610946573d6000803e3d6000fd5b505050506040513d601f19601f8201168201806040525081019061096a9190611b53565b9050806004600082825461097e9190612526565b92505081905550600e60009054906101000a900473ffffffffffffffffffffffffffffffffffffffff1673ffffffffffffffffffffffffffffffffffffffff166323b872dd33601160009054906101000a900473ffffffffffffffffffffffffffffffffffffffff166012600a6109f59190612600565b600d5486610a03919061271e565b610a0d919061257c565b6040518463ffffffff1660e01b8152600401610a2b939291906120cc565b602060405180830381600087803b158015610a4557600080fd5b505af1158015610a59573d6000803e3d6000fd5b505050506040513d601f19601f82011682018060405250810190610a7d9190611ad8565b5050505050565b6006544210610ac8576040517f08c379a0000000000000000000000000000000000000000000000000000000008152600401610abf9061222d565b60405180910390fd5b6000600f60009054906101000a900473ffffffffffffffffffffffffffffffffffffffff1673ffffffffffffffffffffffffffffffffffffffff1663ea3bd5df8484336040518463ffffffff1660e01b8152600401610b2993929190612348565b602060405180830381600087803b158015610b4357600080fd5b505af1158015610b57573d6000803e3d6000fd5b505050506040513d601f19601f82011682018060405250810190610b7b9190611b53565b90508060046000828254610b8f9190612526565b92505081905550600e60009054906101000a900473ffffffffffffffffffffffffffffffffffffffff1673ffffffffffffffffffffffffffffffffffffffff166323b872dd33601160009054906101000a900473ffffffffffffffffffffffffffffffffffffffff166012600a610c069190612600565b600d5486610c14919061271e565b610c1e919061257c565b6040518463ffffffff1660e01b8152600401610c3c939291906120cc565b602060405180830381600087803b158015610c5657600080fd5b505af1158015610c6a573d6000803e3d6000fd5b505050506040513d601f19601f82011682018060405250810190610c8e9190611ad8565b50505050565b610c9c61180d565b73ffffffffffffffffffffffffffffffffffffffff16610cba6110ba565b73ffffffffffffffffffffffffffffffffffffffff1614610d10576040517f08c379a0000000000000000000000000000000000000000000000000000000008152600401610d07906122ed565b60405180910390fd5b600073ffffffffffffffffffffffffffffffffffffffff1660008054906101000a900473ffffffffffffffffffffffffffffffffffffffff1673ffffffffffffffffffffffffffffffffffffffff167f8be0079c531659141344cd1fd0a4f28419497f9722a3daafe3b4186f6b6457e060405160405180910390a360008060006101000a81548173ffffffffffffffffffffffffffffffffffffffff021916908373ffffffffffffffffffffffffffffffffffffffff160217905550565b600654421015610e13576040517f08c379a0000000000000000000000000000000000000000000000000000000008152600401610e0a9061224d565b60405180910390fd5b600760009054906101000a900460ff1615610e63576040517f08c379a0000000000000000000000000000000000000000000000000000000008152600401610e5a906122cd565b60405180910390fd5b6000601060009054906101000a900473ffffffffffffffffffffffffffffffffffffffff1673ffffffffffffffffffffffffffffffffffffffff166350d25bcd6040518163ffffffff1660e01b815260040160206040518083038186803b158015610ecd57600080fd5b505afa158015610ee1573d6000803e3d6000fd5b505050506040513d601f19601f82011682018060405250810190610f059190611b01565b905060008113610f4a576040517f08c379a0000000000000000000000000000000000000000000000000000000008152600401610f419061230d565b60405180910390fd5b600d546012600a610f5b9190612600565b82610f66919061271e565b610f70919061257c565b6008819055506001600760006101000a81548160ff0219169083151502179055506012600a610f9f9190612600565b600354610fac919061271e565b600854610fb9919061257c565b600981905550600f60009054906101000a900473ffffffffffffffffffffffffffffffffffffffff1673ffffffffffffffffffffffffffffffffffffffff16635ebd9ded6009546040518263ffffffff1660e01b815260040161101c919061232d565b60206040518083038186803b15801561103457600080fd5b505afa158015611048573d6000803e3d6000fd5b505050506040513d601f19601f8201168201806040525081019061106c9190611b53565b600a819055507fa595d37bd73a1d6a5691f748eff13b76bfb2b6fb54700836ab39a98a9e3084c4600454600a54426040516110a9939291906123c4565b60405180910390a150565b600a5481565b60008060009054906101000a900473ffffffffffffffffffffffffffffffffffffffff16905090565b600760009054906101000a900460ff1681565b60065481565b600760009054906101000a900460ff1661114b576040517f08c379a0000000000000000000000000000000000000000000000000000000008152600401611142906122ad565b60405180910390fd5b6000600f60009054906101000a900473ffffffffffffffffffffffffffffffffffffffff1673ffffffffffffffffffffffffffffffffffffffff1662fdd58e336009546040518363ffffffff1660e01b81526004016111ab929190612103565b60206040518083038186803b1580156111c357600080fd5b505afa1580156111d7573d6000803e3d6000fd5b505050506040513d601f19601f820116820180604052508101906111fb9190611b53565b9050600f60009054906101000a900473ffffffffffffffffffffffffffffffffffffffff1673ffffffffffffffffffffffffffffffffffffffff1663f5298aca33600954846040518463ffffffff1660e01b815260040161125e93929190612163565b600060405180830381600087803b15801561127857600080fd5b505af115801561128c573d6000803e3d6000fd5b50505050601160009054906101000a900473ffffffffffffffffffffffffffffffffffffffff1673ffffffffffffffffffffffffffffffffffffffff16635c833bfd336012600a6112dd9190612600565b600d54856112eb919061271e565b6112f5919061257c565b600e60009054906101000a900473ffffffffffffffffffffffffffffffffffffffff166040518463ffffffff1660e01b81526004016113369392919061212c565b600060405180830381600087803b15801561135057600080fd5b505af1158015611364573d6000803e3d6000fd5b5050505050565b6000600f60009054906101000a900473ffffffffffffffffffffffffffffffffffffffff1673ffffffffffffffffffffffffffffffffffffffff1663de6f56c6836040518263ffffffff1660e01b81526004016113c8919061232d565b60206040518083038186803b1580156113e057600080fd5b505afa1580156113f4573d6000803e3d6000fd5b505050506040513d601f19601f820116820180604052508101906114189190611b53565b9050919050565b61142761180d565b73ffffffffffffffffffffffffffffffffffffffff166114456110ba565b73ffffffffffffffffffffffffffffffffffffffff161461149b576040517f08c379a0000000000000000000000000000000000000000000000000000000008152600401611492906122ed565b60405180910390fd5b600073ffffffffffffffffffffffffffffffffffffffff168173ffffffffffffffffffffffffffffffffffffffff16141561150b576040517f08c379a00000000000000000000000000000000000000000000000000000000081526004016115029061226d565b60405180910390fd5b8073ffffffffffffffffffffffffffffffffffffffff1660008054906101000a900473ffffffffffffffffffffffffffffffffffffffff1673ffffffffffffffffffffffffffffffffffffffff167f8be0079c531659141344cd1fd0a4f28419497f9722a3daafe3b4186f6b6457e060405160405180910390a3806000806101000a81548173ffffffffffffffffffffffffffffffffffffffff021916908373ffffffffffffffffffffffffffffffffffffffff16021790555050565b60095481565b600d5481565b6006544210611618576040517f08c379a000000000000000000000000000000000000000000000000000000000815260040161160f9061222d565b60405180910390fd5b6000600f60009054906101000a900473ffffffffffffffffffffffffffffffffffffffff1673ffffffffffffffffffffffffffffffffffffffff1663888515bd858585336040518563ffffffff1660e01b815260040161167b949392919061237f565b602060405180830381600087803b15801561169557600080fd5b505af11580156116a9573d6000803e3d6000fd5b505050506040513d601f19601f820116820180604052508101906116cd9190611b53565b905080600460008282546116e19190612526565b92505081905550600e60009054906101000a900473ffffffffffffffffffffffffffffffffffffffff1673ffffffffffffffffffffffffffffffffffffffff166323b872dd33601160009054906101000a900473ffffffffffffffffffffffffffffffffffffffff166012600a6117589190612600565b600d5486611766919061271e565b611770919061257c565b6040518463ffffffff1660e01b815260040161178e939291906120cc565b602060405180830381600087803b1580156117a857600080fd5b505af11580156117bc573d6000803e3d6000fd5b505050506040513d601f19601f820116820180604052508101906117e09190611ad8565b5050505050565b600e60009054906101000a900473ffffffffffffffffffffffffffffffffffffffff1681565b600033905090565b600061182861182384612471565b612440565b9050808382526020820190508285602086028201111561184757600080fd5b60005b85811015611877578161185d88826119a8565b84526020840193506020830192505060018101905061184a565b5050509392505050565b60008135905061189081612897565b92915050565b60008083601f8401126118a857600080fd5b8235905067ffffffffffffffff8111156118c157600080fd5b6020830191508360208202830111156118d957600080fd5b9250929050565b60008083601f8401126118f257600080fd5b8235905067ffffffffffffffff81111561190b57600080fd5b60208301915083602082028301111561192357600080fd5b9250929050565b600082601f83011261193b57600080fd5b815161194b848260208601611815565b91505092915050565b600081359050611963816128ae565b92915050565b600081519050611978816128ae565b92915050565b60008151905061198d816128c5565b92915050565b6000813590506119a2816128dc565b92915050565b6000815190506119b7816128dc565b92915050565b6000602082840312156119cf57600080fd5b60006119dd84828501611881565b91505092915050565b600080604083850312156119f957600080fd5b6000611a0785828601611881565b9250506020611a1885828601611993565b9150509250929050565b60008060008060408587031215611a3857600080fd5b600085013567ffffffffffffffff811115611a5257600080fd5b611a5e87828801611896565b9450945050602085013567ffffffffffffffff811115611a7d57600080fd5b611a89878288016118e0565b925092505092959194509250565b600060208284031215611aa957600080fd5b600082015167ffffffffffffffff811115611ac357600080fd5b611acf8482850161192a565b91505092915050565b600060208284031215611aea57600080fd5b6000611af884828501611969565b91505092915050565b600060208284031215611b1357600080fd5b6000611b218482850161197e565b91505092915050565b600060208284031215611b3c57600080fd5b6000611b4a84828501611993565b91505092915050565b600060208284031215611b6557600080fd5b6000611b73848285016119a8565b91505092915050565b60008060408385031215611b8f57600080fd5b6000611b9d85828601611993565b9250506020611bae85828601611993565b9150509250929050565b600080600060608486031215611bcd57600080fd5b6000611bdb86828701611993565b9350506020611bec86828701611993565b9250506040611bfd86828701611954565b9150509250925092565b600080600060608486031215611c1c57600080fd5b6000611c2a86828701611993565b9350506020611c3b86828701611993565b9250506040611c4c86828701611993565b9150509250925092565b6000611c628383611c86565b60208301905092915050565b6000611c7a8383612093565b60208301905092915050565b611c8f81612778565b82525050565b611c9e81612778565b82525050565b6000611cb083856124dc565b9350611cbb8261249d565b8060005b85811015611cf457611cd1828461250f565b611cdb8882611c56565b9750611ce6836124c2565b925050600181019050611cbf565b5085925050509392505050565b6000611d0d83856124ed565b93507f07ffffffffffffffffffffffffffffffffffffffffffffffffffffffffffffff831115611d3c57600080fd5b602083029250611d4d8385846127ee565b82840190509392505050565b6000611d64826124b7565b611d6e81856124ed565b9350611d79836124a7565b8060005b83811015611daa578151611d918882611c6e565b9750611d9c836124cf565b925050600181019050611d7d565b5085935050505092915050565b611dc08161278a565b82525050565b611dcf816127ca565b82525050565b6000611de2602a836124fe565b91507f746869732066756e6374696f6e206973206e6f742063616c6c61626c6520616660008301527f74657220657870697279000000000000000000000000000000000000000000006020830152604082019050919050565b6000611e48602b836124fe565b91507f746869732066756e6374696f6e206973206e6f742063616c6c61626c6520626560008301527f666f7265206578706972790000000000000000000000000000000000000000006020830152604082019050919050565b6000611eae6026836124fe565b91507f4f776e61626c653a206e6577206f776e657220697320746865207a65726f206160008301527f64647265737300000000000000000000000000000000000000000000000000006020830152604082019050919050565b6000611f146016836124fe565b91507f746f6b656e20616c7265616479206174746163686564000000000000000000006000830152602082019050919050565b6000611f546042836124fe565b91507f746869732066756e6374696f6e206973206e6f742063616c6c61626c6520626560008301527f666f72652074686520656e64526f756e6420686173206265656e2063616c6c6560208301527f642e0000000000000000000000000000000000000000000000000000000000006040830152606082019050919050565b6000611fe0601c836124fe565b91507f726f756e642068617320616c7265616479206265656e20656e646564000000006000830152602082019050919050565b60006120206020836124fe565b91507f4f776e61626c653a2063616c6c6572206973206e6f7420746865206f776e65726000830152602082019050919050565b60006120606013836124fe565b91507f696e76616c69642066696e616c207072696365000000000000000000000000006000830152602082019050919050565b61209c816127c0565b82525050565b6120ab816127c0565b82525050565b60006020820190506120c66000830184611c95565b92915050565b60006060820190506120e16000830186611c95565b6120ee6020830185611c95565b6120fb60408301846120a2565b949350505050565b60006040820190506121186000830185611c95565b61212560208301846120a2565b9392505050565b60006060820190506121416000830186611c95565b61214e60208301856120a2565b61215b6040830184611c95565b949350505050565b60006060820190506121786000830186611c95565b61218560208301856120a2565b61219260408301846120a2565b949350505050565b600060408201905081810360008301526121b5818688611ca4565b905081810360208301526121ca818486611d01565b905095945050505050565b600060208201905081810360008301526121ef8184611d59565b905092915050565b600060208201905061220c6000830184611db7565b92915050565b60006020820190506122276000830184611dc6565b92915050565b6000602082019050818103600083015261224681611dd5565b9050919050565b6000602082019050818103600083015261226681611e3b565b9050919050565b6000602082019050818103600083015261228681611ea1565b9050919050565b600060208201905081810360008301526122a681611f07565b9050919050565b600060208201905081810360008301526122c681611f47565b9050919050565b600060208201905081810360008301526122e681611fd3565b9050919050565b6000602082019050818103600083015261230681612013565b9050919050565b6000602082019050818103600083015261232681612053565b9050919050565b600060208201905061234260008301846120a2565b92915050565b600060608201905061235d60008301866120a2565b61236a60208301856120a2565b6123776040830184611c95565b949350505050565b600060808201905061239460008301876120a2565b6123a160208301866120a2565b6123ae6040830185611db7565b6123bb6060830184611c95565b95945050505050565b60006060820190506123d960008301866120a2565b6123e660208301856120a2565b6123f360408301846120a2565b949350505050565b600060808201905061241060008301876120a2565b61241d60208301866120a2565b61242a60408301856120a2565b6124376060830184611c95565b95945050505050565b6000604051905081810181811067ffffffffffffffff821117156124675761246661285b565b5b8060405250919050565b600067ffffffffffffffff82111561248c5761248b61285b565b5b602082029050602081019050919050565b6000819050919050565b6000819050602082019050919050565b600081519050919050565b6000602082019050919050565b6000602082019050919050565b600082825260208201905092915050565b600082825260208201905092915050565b600082825260208201905092915050565b600061251e6020840184611881565b905092915050565b6000612531826127c0565b915061253c836127c0565b9250827fffffffffffffffffffffffffffffffffffffffffffffffffffffffffffffffff03821115612571576125706127fd565b5b828201905092915050565b6000612587826127c0565b9150612592836127c0565b9250826125a2576125a161282c565b5b828204905092915050565b6000808291508390505b60018511156125f7578086048111156125d3576125d26127fd565b5b60018516156125e25780820291505b80810290506125f08561288a565b94506125b7565b94509492505050565b600061260b826127c0565b9150612616836127c0565b92506126437fffffffffffffffffffffffffffffffffffffffffffffffffffffffffffffffff848461264b565b905092915050565b60008261265b5760019050612717565b816126695760009050612717565b816001811461267f5760028114612689576126b8565b6001915050612717565b60ff84111561269b5761269a6127fd565b5b8360020a9150848211156126b2576126b16127fd565b5b50612717565b5060208310610133831016604e8410600b84101617156126ed5782820a9050838111156126e8576126e76127fd565b5b612717565b6126fa84848460016125ad565b92509050818404811115612711576127106127fd565b5b81810290505b9392505050565b6000612729826127c0565b9150612734836127c0565b9250817fffffffffffffffffffffffffffffffffffffffffffffffffffffffffffffffff048311821515161561276d5761276c6127fd565b5b828202905092915050565b6000612783826127a0565b9050919050565b60008115159050919050565b6000819050919050565b600073ffffffffffffffffffffffffffffffffffffffff82169050919050565b6000819050919050565b60006127d5826127dc565b9050919050565b60006127e7826127a0565b9050919050565b82818337600083830152505050565b7f4e487b7100000000000000000000000000000000000000000000000000000000600052601160045260246000fd5b7f4e487b7100000000000000000000000000000000000000000000000000000000600052601260045260246000fd5b7f4e487b7100000000000000000000000000000000000000000000000000000000600052604160045260246000fd5b60008160011c9050919050565b6128a081612778565b81146128ab57600080fd5b50565b6128b78161278a565b81146128c257600080fd5b50565b6128ce81612796565b81146128d957600080fd5b50565b6128e5816127c0565b81146128f057600080fd5b5056fea26469706673582212201dde52bdb3391be39b5e7b21fefa38c73e913f492796f3df24bec07be06a882164736f6c63430008000033a2646970667358221220a18a7717961cb492be98f65745f9328f059920aaf383b8c9c5275abf7bc2404564736f6c63430008000033608060405234801561001057600080fd5b5060006100216100c460201b60201c565b9050806000806101000a81548173ffffffffffffffffffffffffffffffffffffffff021916908373ffffffffffffffffffffffffffffffffffffffff1602179055508073ffffffffffffffffffffffffffffffffffffffff16600073ffffffffffffffffffffffffffffffffffffffff167f8be0079c531659141344cd1fd0a4f28419497f9722a3daafe3b4186f6b6457e060405160405180910390a3506100cc565b600033905090565b615b3f806100db6000396000f3fe60806040523480156200001157600080fd5b5060043610620000525760003560e01c8063715018a614620000575780638da5cb5b1462000063578063cf5728ef1462000085578063f2fde38b14620000bb575b600080fd5b62000061620000db565b005b6200006d6200021c565b6040516200007c91906200065b565b60405180910390f35b620000a360048036038101906200009d919062000539565b62000245565b604051620000b291906200065b565b60405180910390f35b620000d96004803603810190620000d391906200050d565b62000316565b005b620000e5620004c9565b73ffffffffffffffffffffffffffffffffffffffff16620001056200021c565b73ffffffffffffffffffffffffffffffffffffffff16146200015e576040517f08c379a000000000000000000000000000000000000000000000000000000000815260040162000155906200069a565b60405180910390fd5b600073ffffffffffffffffffffffffffffffffffffffff1660008054906101000a900473ffffffffffffffffffffffffffffffffffffffff1673ffffffffffffffffffffffffffffffffffffffff167f8be0079c531659141344cd1fd0a4f28419497f9722a3daafe3b4186f6b6457e060405160405180910390a360008060006101000a81548173ffffffffffffffffffffffffffffffffffffffff021916908373ffffffffffffffffffffffffffffffffffffffff160217905550565b60008060009054906101000a900473ffffffffffffffffffffffffffffffffffffffff16905090565b600062000251620004c9565b73ffffffffffffffffffffffffffffffffffffffff16620002716200021c565b73ffffffffffffffffffffffffffffffffffffffff1614620002ca576040517f08c379a0000000000000000000000000000000000000000000000000000000008152600401620002c1906200069a565b60405180910390fd5b6000848484604051620002dd90620004d1565b620002eb93929190620006bc565b604051809103906000f08015801562000308573d6000803e3d6000fd5b509050809150509392505050565b62000320620004c9565b73ffffffffffffffffffffffffffffffffffffffff16620003406200021c565b73ffffffffffffffffffffffffffffffffffffffff161462000399576040517f08c379a000000000000000000000000000000000000000000000000000000000815260040162000390906200069a565b60405180910390fd5b600073ffffffffffffffffffffffffffffffffffffffff168173ffffffffffffffffffffffffffffffffffffffff1614156200040c576040517f08c379a0000000000000000000000000000000000000000000000000000000008152600401620004039062000678565b60405180910390fd5b8073ffffffffffffffffffffffffffffffffffffffff1660008054906101000a900473ffffffffffffffffffffffffffffffffffffffff1673ffffffffffffffffffffffffffffffffffffffff167f8be0079c531659141344cd1fd0a4f28419497f9722a3daafe3b4186f6b6457e060405160405180910390a3806000806101000a81548173ffffffffffffffffffffffffffffffffffffffff021916908373ffffffffffffffffffffffffffffffffffffffff16021790555050565b600033905090565b61538d806200077d83390190565b600081359050620004f08162000748565b92915050565b600081359050620005078162000762565b92915050565b6000602082840312156200052057600080fd5b60006200053084828501620004df565b91505092915050565b6000806000606084860312156200054f57600080fd5b60006200055f86828701620004f6565b93505060206200057286828701620004f6565b92505060406200058586828701620004df565b9150509250925092565b6200059a816200070a565b82525050565b6000620005af602683620006f9565b91507f4f776e61626c653a206e6577206f776e657220697320746865207a65726f206160008301527f64647265737300000000000000000000000000000000000000000000000000006020830152604082019050919050565b600062000617602083620006f9565b91507f4f776e61626c653a2063616c6c6572206973206e6f7420746865206f776e65726000830152602082019050919050565b62000655816200073e565b82525050565b60006020820190506200067260008301846200058f565b92915050565b600060208201905081810360008301526200069381620005a0565b9050919050565b60006020820190508181036000830152620006b58162000608565b9050919050565b6000606082019050620006d360008301866200064a565b620006e260208301856200064a565b620006f160408301846200058f565b949350505050565b600082825260208201905092915050565b600062000717826200071e565b9050919050565b600073ffffffffffffffffffffffffffffffffffffffff82169050919050565b6000819050919050565b62000753816200070a565b81146200075f57600080fd5b50565b6200076d816200073e565b81146200077957600080fd5b5056fe60806040523480156200001157600080fd5b506040516200538d3803806200538d833981810160405281019062000037919062000370565b6040518060400160405280600481526020017f6e6f6e65000000000000000000000000000000000000000000000000000000008152506200007e816200024a60201b60201c565b5060008311620000c5576040517f08c379a0000000000000000000000000000000000000000000000000000000008152600401620000bc90620004c9565b60405180910390fd5b600082116200010b576040517f08c379a00000000000000000000000000000000000000000000000000000000081526004016200010290620004a7565b60405180910390fd5b82600381905550816004819055506012600a620001299190620005ac565b600354620001389190620006e9565b6007819055506012600a6200014e9190620005ac565b60075473__$43e6f41f20fb862aeed332b486e44cb4c2$__636ca34af790916040518263ffffffff1660e01b81526004016200018b9190620004eb565b60206040518083038186803b158015620001a457600080fd5b505af4158015620001b9573d6000803e3d6000fd5b505050506040513d601f19601f82011682018060405250810190620001df919062000344565b600454620001ee9190620006e9565b620001fa919062000519565b60088190555080600960006101000a81548173ffffffffffffffffffffffffffffffffffffffff021916908373ffffffffffffffffffffffffffffffffffffffff1602179055505050506200088c565b80600290805190602001906200026292919062000266565b5050565b828054620002749062000788565b90600052602060002090601f016020900481019282620002985760008555620002e4565b82601f10620002b357805160ff1916838001178555620002e4565b82800160010185558215620002e4579182015b82811115620002e3578251825591602001919060010190620002c6565b5b509050620002f39190620002f7565b5090565b5b8082111562000312576000816000905550600101620002f8565b5090565b600081519050620003278162000858565b92915050565b6000815190506200033e8162000872565b92915050565b6000602082840312156200035757600080fd5b600062000367848285016200032d565b91505092915050565b6000806000606084860312156200038657600080fd5b600062000396868287016200032d565b9350506020620003a9868287016200032d565b9250506040620003bc8682870162000316565b9150509250925092565b6000620003d560218362000508565b91507f636f6e7374727563746f723a20622073686f756c6420626520706f736974697660008301527f65000000000000000000000000000000000000000000000000000000000000006020830152604082019050919050565b60006200043d60218362000508565b91507f636f6e7374727563746f723a204e2073686f756c6420626520706f736974697660008301527f65000000000000000000000000000000000000000000000000000000000000006020830152604082019050919050565b620004a1816200077e565b82525050565b60006020820190508181036000830152620004c281620003c6565b9050919050565b60006020820190508181036000830152620004e4816200042e565b9050919050565b600060208201905062000502600083018462000496565b92915050565b600082825260208201905092915050565b600062000526826200077e565b915062000533836200077e565b925082620005465762000545620007ed565b5b828204905092915050565b6000808291508390505b6001851115620005a3578086048111156200057b576200057a620007be565b5b60018516156200058b5780820291505b80810290506200059b856200084b565b94506200055b565b94509492505050565b6000620005b9826200077e565b9150620005c6836200077e565b9250620005f57fffffffffffffffffffffffffffffffffffffffffffffffffffffffffffffffff8484620005fd565b905092915050565b6000826200060f5760019050620006e2565b816200061f5760009050620006e2565b8160018114620006385760028114620006435762000679565b6001915050620006e2565b60ff841115620006585762000657620007be565b5b8360020a915084821115620006725762000671620007be565b5b50620006e2565b5060208310610133831016604e8410600b8410161715620006b35782820a905083811115620006ad57620006ac620007be565b5b620006e2565b620006c2848484600162000551565b92509050818404811115620006dc57620006db620007be565b5b81810290505b9392505050565b6000620006f6826200077e565b915062000703836200077e565b9250817fffffffffffffffffffffffffffffffffffffffffffffffffffffffffffffffff04831182151516156200073f576200073e620007be565b5b828202905092915050565b600062000757826200075e565b9050919050565b600073ffffffffffffffffffffffffffffffffffffffff82169050919050565b6000819050919050565b60006002820490506001821680620007a157607f821691505b60208210811415620007b857620007b76200081c565b5b50919050565b7f4e487b7100000000000000000000000000000000000000000000000000000000600052601160045260246000fd5b7f4e487b7100000000000000000000000000000000000000000000000000000000600052601260045260246000fd5b7f4e487b7100000000000000000000000000000000000000000000000000000000600052602260045260246000fd5b60008160011c9050919050565b62000863816200074a565b81146200086f57600080fd5b50565b6200087d816200077e565b81146200088957600080fd5b50565b614af1806200089c6000396000f3fe608060405234801561001057600080fd5b50600436106101575760003560e01c806360427344116100c3578063e2d24c061161007c578063e2d24c061461044c578063e985e9c51461046a578063ea3bd5df1461049a578063f242432a146104ca578063f3f03a61146104e6578063f5298aca1461051657610157565b80636042734414610352578063888515bd1461038257806394c5ec65146103b2578063a22cb465146103e2578063b895c74a146103fe578063de6f56c61461041c57610157565b80632eb2c2d6116101155780632eb2c2d61461025857806346c82b2c146102745780634e1273f4146102a45780634f5d06c2146102d45780635655bb20146103045780635ebd9ded1461032257610157565b8062fdd58e1461015c57806301ffc9a71461018c5780630e89341c146101bc5780631a798807146101ec578063253749961461021c57806325f5eb811461023a575b600080fd5b610176600480360381019061017191906135c4565b610532565b604051610183919061439d565b60405180910390f35b6101a660048036038101906101a191906136bb565b6105fb565b6040516101b39190614165565b60405180910390f35b6101d660048036038101906101d1919061370d565b6106dd565b6040516101e39190614180565b60405180910390f35b610206600480360381019061020191906137ea565b610771565b604051610213919061439d565b60405180910390f35b6102246109f9565b604051610231919061439d565b60405180910390f35b6102426109ff565b60405161024f919061439d565b60405180910390f35b610272600480360381019061026d919061343a565b610a05565b005b61028e6004803603810190610289919061370d565b610dfb565b60405161029b919061439d565b60405180910390f35b6102be60048036038101906102b9919061364f565b610e13565b6040516102cb919061410c565b60405180910390f35b6102ee60048036038101906102e9919061375f565b610fc4565b6040516102fb919061439d565b60405180910390f35b61030c611163565b604051610319919061439d565b60405180910390f35b61033c6004803603810190610337919061370d565b611169565b604051610349919061439d565b60405180910390f35b61036c6004803603810190610367919061389c565b611186565b604051610379919061439d565b60405180910390f35b61039c60048036038101906103979190613839565b611368565b6040516103a9919061439d565b60405180910390f35b6103cc60048036038101906103c791906138eb565b61186b565b6040516103d9919061439d565b60405180910390f35b6103fc60048036038101906103f79190613588565b611cc9565b005b610406611e4a565b604051610413919061439d565b60405180910390f35b6104366004803603810190610431919061370d565b611e50565b604051610443919061439d565b60405180910390f35b610454611eaa565b604051610461919061402f565b60405180910390f35b610484600480360381019061047f91906133fe565b611ed0565b6040516104919190614165565b60405180910390f35b6104b460048036038101906104af919061379b565b611f64565b6040516104c1919061439d565b60405180910390f35b6104e460048036038101906104df91906134f9565b6121ef565b005b61050060048036038101906104fb919061370d565b612507565b60405161050d919061439d565b60405180910390f35b610530600480360381019061052b9190613600565b61251f565b005b60008073ffffffffffffffffffffffffffffffffffffffff168373ffffffffffffffffffffffffffffffffffffffff1614156105a3576040517f08c379a000000000000000000000000000000000000000000000000000000000815260040161059a906141e2565b60405180910390fd5b60008083815260200190815260200160002060008473ffffffffffffffffffffffffffffffffffffffff1673ffffffffffffffffffffffffffffffffffffffff16815260200190815260200160002054905092915050565b60007fd9b67a26000000000000000000000000000000000000000000000000000000007bffffffffffffffffffffffffffffffffffffffffffffffffffffffff1916827bffffffffffffffffffffffffffffffffffffffffffffffffffffffff191614806106c657507f0e89341c000000000000000000000000000000000000000000000000000000007bffffffffffffffffffffffffffffffffffffffffffffffffffffffff1916827bffffffffffffffffffffffffffffffffffffffffffffffffffffffff1916145b806106d657506106d5826125bf565b5b9050919050565b6060600280546106ec90614847565b80601f016020809104026020016040519081016040528092919081815260200182805461071890614847565b80156107655780601f1061073a57610100808354040283529160200191610765565b820191906000526020600020905b81548152906001019060200180831161074857829003601f168201915b50505050509050919050565b600060035484106107b7576040517f08c379a00000000000000000000000000000000000000000000000000000000081526004016107ae90614362565b60405180910390fd5b600080836107d4576002866003546107cf919061475d565b6107d8565b6000865b915060ff1691506000600454826107ef9190614703565b6012600a6107fd91906145e5565b876108089190614703565b6108129190614561565b73__$43e6f41f20fb862aeed332b486e44cb4c2$__639fdfe44290916040518263ffffffff1660e01b815260040161084a9190614382565b60206040518083038186803b15801561086257600080fd5b505af4158015610876573d6000803e3d6000fd5b505050506040513d601f19601f8201168201806040525081019061089a9190613736565b9050600081905060008890506000600754905060005b8581101561092257600187846108c6919061450b565b6108d0919061475d565b92506108dc8385612629565b826108e7919061450b565b91506012600a6108f791906145e5565b85856109039190614703565b61090d9190614561565b9350808061091a90614879565b9150506108b0565b5060006012600a61093391906145e5565b8273__$43e6f41f20fb862aeed332b486e44cb4c2$__636ca34af790916040518263ffffffff1660e01b815260040161096c9190614382565b60206040518083038186803b15801561098457600080fd5b505af4158015610998573d6000803e3d6000fd5b505050506040513d601f19601f820116820180604052508101906109bc9190613736565b6004546109c99190614703565b6109d39190614561565b90506000600854826109e5919061475d565b905080985050505050505050509392505050565b60045481565b60075481565b8151835114610a49576040517f08c379a0000000000000000000000000000000000000000000000000000000008152600401610a4090614322565b60405180910390fd5b600073ffffffffffffffffffffffffffffffffffffffff168473ffffffffffffffffffffffffffffffffffffffff161415610ab9576040517f08c379a0000000000000000000000000000000000000000000000000000000008152600401610ab090614242565b60405180910390fd5b610ac161269e565b73ffffffffffffffffffffffffffffffffffffffff168573ffffffffffffffffffffffffffffffffffffffff161480610b075750610b0685610b0161269e565b611ed0565b5b610b46576040517f08c379a0000000000000000000000000000000000000000000000000000000008152600401610b3d90614262565b60405180910390fd5b6000610b5061269e565b9050610b608187878787876126a6565b60005b8451811015610d66576000858281518110610ba7577f4e487b7100000000000000000000000000000000000000000000000000000000600052603260045260246000fd5b602002602001015190506000858381518110610bec577f4e487b7100000000000000000000000000000000000000000000000000000000600052603260045260246000fd5b60200260200101519050600080600084815260200190815260200160002060008b73ffffffffffffffffffffffffffffffffffffffff1673ffffffffffffffffffffffffffffffffffffffff16815260200190815260200160002054905081811015610c8d576040517f08c379a0000000000000000000000000000000000000000000000000000000008152600401610c84906142a2565b60405180910390fd5b8181610c99919061475d565b60008085815260200190815260200160002060008c73ffffffffffffffffffffffffffffffffffffffff1673ffffffffffffffffffffffffffffffffffffffff168152602001908152602001600020819055508160008085815260200190815260200160002060008b73ffffffffffffffffffffffffffffffffffffffff1673ffffffffffffffffffffffffffffffffffffffff1681526020019081526020016000206000828254610d4b919061450b565b9250508190555050505080610d5f90614879565b9050610b63565b508473ffffffffffffffffffffffffffffffffffffffff168673ffffffffffffffffffffffffffffffffffffffff168273ffffffffffffffffffffffffffffffffffffffff167f4a39dc06d4c0dbc64b70af90fd698a233a518aa5d07e595d983b8c0526c8f7fb8787604051610ddd92919061412e565b60405180910390a4610df38187878787876126ae565b505050505050565b60066020528060005260406000206000915090505481565b60608151835114610e59576040517f08c379a0000000000000000000000000000000000000000000000000000000008152600401610e5090614302565b60405180910390fd5b6000835167ffffffffffffffff811115610e9c577f4e487b7100000000000000000000000000000000000000000000000000000000600052604160045260246000fd5b604051908082528060200260200182016040528015610eca5781602001602082028036833780820191505090505b50905060005b8451811015610fb957610f63858281518110610f15577f4e487b7100000000000000000000000000000000000000000000000000000000600052603260045260246000fd5b6020026020010151858381518110610f56577f4e487b7100000000000000000000000000000000000000000000000000000000600052603260045260246000fd5b6020026020010151610532565b828281518110610f9c577f4e487b7100000000000000000000000000000000000000000000000000000000600052603260045260246000fd5b60200260200101818152505080610fb290614879565b9050610ed0565b508091505092915050565b6000806004546012600a610fd891906145e5565b84610fe39190614703565b610fed9190614561565b73__$43e6f41f20fb862aeed332b486e44cb4c2$__639fdfe44290916040518263ffffffff1660e01b81526004016110259190614382565b60206040518083038186803b15801561103d57600080fd5b505af4158015611051573d6000803e3d6000fd5b505050506040513d601f19601f820116820180604052508101906110759190613736565b905060006110838583612629565b600754611090919061450b565b905060006012600a6110a291906145e5565b8273__$43e6f41f20fb862aeed332b486e44cb4c2$__636ca34af790916040518263ffffffff1660e01b81526004016110db9190614382565b60206040518083038186803b1580156110f357600080fd5b505af4158015611107573d6000803e3d6000fd5b505050506040513d601f19601f8201168201806040525081019061112b9190613736565b6004546111389190614703565b6111429190614561565b9050600060085482611154919061475d565b90508094505050505092915050565b60035481565b600060066000838152602001908152602001600020549050919050565b6000806004546012600a61119a91906145e5565b846111a59190614703565b6111af9190614561565b73__$43e6f41f20fb862aeed332b486e44cb4c2$__639fdfe44290916040518263ffffffff1660e01b81526004016111e79190614382565b60206040518083038186803b1580156111ff57600080fd5b505af4158015611213573d6000803e3d6000fd5b505050506040513d601f19601f820116820180604052508101906112379190613736565b905083851061124557600080fd5b60035484111561125457600080fd5b6000600754905060008690505b85811015611293576112738184612629565b8261127e919061450b565b9150808061128b90614879565b915050611261565b5060006012600a6112a491906145e5565b60075473__$43e6f41f20fb862aeed332b486e44cb4c2$__636ca34af790916040518263ffffffff1660e01b81526004016112df9190614382565b60206040518083038186803b1580156112f757600080fd5b505af415801561130b573d6000803e3d6000fd5b505050506040513d601f19601f8201168201806040525081019061132f9190613736565b60045461133c9190614703565b6113469190614561565b9050600060085482611358919061475d565b9050809450505050509392505050565b6000600960009054906101000a900473ffffffffffffffffffffffffffffffffffffffff1673ffffffffffffffffffffffffffffffffffffffff163373ffffffffffffffffffffffffffffffffffffffff16146113fa576040517f08c379a00000000000000000000000000000000000000000000000000000000081526004016113f1906142c2565b60405180910390fd5b600354851061143e576040517f08c379a000000000000000000000000000000000000000000000000000000000815260040161143590614362565b60405180910390fd5b6000808461145b57600287600354611456919061475d565b61145f565b6000875b915060ff16915060008167ffffffffffffffff8111156114a8577f4e487b7100000000000000000000000000000000000000000000000000000000600052604160045260246000fd5b6040519080825280602002602001820160405280156114d65781602001602082028036833780820191505090505b50905060008267ffffffffffffffff81111561151b577f4e487b7100000000000000000000000000000000000000000000000000000000600052604160045260246000fd5b6040519080825280602002602001820160405280156115495781602001602082028036833780820191505090505b5090506000838961155a9190614561565b905060008190506000600454866115719190614703565b6012600a61157f91906145e5565b8c61158a9190614703565b6115949190614561565b73__$43e6f41f20fb862aeed332b486e44cb4c2$__639fdfe44290916040518263ffffffff1660e01b81526004016115cc9190614382565b60206040518083038186803b1580156115e457600080fd5b505af41580156115f8573d6000803e3d6000fd5b505050506040513d601f19601f8201168201806040525081019061161c9190613736565b9050600081905060008d905060005b8881101561176c5760018a83611641919061450b565b61164b919061475d565b9150611657828461287e565b60076000828254611668919061450b565b9250508190555084600660008481526020019081526020016000206000828254611692919061450b565b92505081905550818882815181106116d3577f4e487b7100000000000000000000000000000000000000000000000000000000600052603260045260246000fd5b60200260200101818152505084878281518110611719577f4e487b7100000000000000000000000000000000000000000000000000000000600052603260045260246000fd5b6020026020010181815250506012600a61173391906145e5565b848461173f9190614703565b6117499190614561565b92508585611757919061450b565b9450808061176490614879565b91505061162b565b5060006012600a61177d91906145e5565b60075473__$43e6f41f20fb862aeed332b486e44cb4c2$__636ca34af790916040518263ffffffff1660e01b81526004016117b89190614382565b60206040518083038186803b1580156117d057600080fd5b505af41580156117e4573d6000803e3d6000fd5b505050506040513d601f19601f820116820180604052508101906118089190613736565b6004546118159190614703565b61181f9190614561565b9050600060085482611831919061475d565b9050816008819055506118558d8a8a6040518060200160405280600081525061291d565b809b505050505050505050505050949350505050565b6000600960009054906101000a900473ffffffffffffffffffffffffffffffffffffffff1673ffffffffffffffffffffffffffffffffffffffff163373ffffffffffffffffffffffffffffffffffffffff16146118fd576040517f08c379a00000000000000000000000000000000000000000000000000000000081526004016118f4906142c2565b60405180910390fd5b60006004546012600a61191091906145e5565b8561191b9190614703565b6119259190614561565b73__$43e6f41f20fb862aeed332b486e44cb4c2$__639fdfe44290916040518263ffffffff1660e01b815260040161195d9190614382565b60206040518083038186803b15801561197557600080fd5b505af4158015611989573d6000803e3d6000fd5b505050506040513d601f19601f820116820180604052508101906119ad9190613736565b9050600086866119bd919061475d565b90508587106119cb57600080fd5b6003548611156119da57600080fd5b60008167ffffffffffffffff811115611a1c577f4e487b7100000000000000000000000000000000000000000000000000000000600052604160045260246000fd5b604051908082528060200260200182016040528015611a4a5781602001602082028036833780820191505090505b50905060008267ffffffffffffffff811115611a8f577f4e487b7100000000000000000000000000000000000000000000000000000000600052604160045260246000fd5b604051908082528060200260200182016040528015611abd5781602001602082028036833780820191505090505b50905060008990505b88811015611bcf57611ad8818661287e565b60076000828254611ae9919061450b565b9250508190555087600660008381526020019081526020016000206000828254611b13919061450b565b9250508190555080838b83611b28919061475d565b81518110611b5f577f4e487b7100000000000000000000000000000000000000000000000000000000600052603260045260246000fd5b60200260200101818152505087828b83611b79919061475d565b81518110611bb0577f4e487b7100000000000000000000000000000000000000000000000000000000600052603260045260246000fd5b6020026020010181815250508080611bc790614879565b915050611ac6565b5060006012600a611be091906145e5565b60075473__$43e6f41f20fb862aeed332b486e44cb4c2$__636ca34af790916040518263ffffffff1660e01b8152600401611c1b9190614382565b60206040518083038186803b158015611c3357600080fd5b505af4158015611c47573d6000803e3d6000fd5b505050506040513d601f19601f82011682018060405250810190611c6b9190613736565b600454611c789190614703565b611c829190614561565b9050600060085482611c94919061475d565b905081600881905550611cb88885856040518060200160405280600081525061291d565b809650505050505050949350505050565b8173ffffffffffffffffffffffffffffffffffffffff16611ce861269e565b73ffffffffffffffffffffffffffffffffffffffff161415611d3f576040517f08c379a0000000000000000000000000000000000000000000000000000000008152600401611d36906142e2565b60405180910390fd5b8060016000611d4c61269e565b73ffffffffffffffffffffffffffffffffffffffff1673ffffffffffffffffffffffffffffffffffffffff16815260200190815260200160002060008473ffffffffffffffffffffffffffffffffffffffff1673ffffffffffffffffffffffffffffffffffffffff16815260200190815260200160002060006101000a81548160ff0219169083151502179055508173ffffffffffffffffffffffffffffffffffffffff16611df961269e565b73ffffffffffffffffffffffffffffffffffffffff167f17307eab39ab6107e8899845ad3d59bd9653f200f220920489ca2b5937696c3183604051611e3e9190614165565b60405180910390a35050565b60085481565b60006007546012600a611e6391906145e5565b6012600a611e7191906145e5565b6005600086815260200190815260200160002054611e8f919061450b565b611e999190614703565b611ea39190614561565b9050919050565b600960009054906101000a900473ffffffffffffffffffffffffffffffffffffffff1681565b6000600160008473ffffffffffffffffffffffffffffffffffffffff1673ffffffffffffffffffffffffffffffffffffffff16815260200190815260200160002060008373ffffffffffffffffffffffffffffffffffffffff1673ffffffffffffffffffffffffffffffffffffffff16815260200190815260200160002060009054906101000a900460ff16905092915050565b6000600960009054906101000a900473ffffffffffffffffffffffffffffffffffffffff1673ffffffffffffffffffffffffffffffffffffffff163373ffffffffffffffffffffffffffffffffffffffff1614611ff6576040517f08c379a0000000000000000000000000000000000000000000000000000000008152600401611fed906142c2565b60405180910390fd5b60006004546012600a61200991906145e5565b856120149190614703565b61201e9190614561565b73__$43e6f41f20fb862aeed332b486e44cb4c2$__639fdfe44290916040518263ffffffff1660e01b81526004016120569190614382565b60206040518083038186803b15801561206e57600080fd5b505af4158015612082573d6000803e3d6000fd5b505050506040513d601f19601f820116820180604052508101906120a69190613736565b905060006120b4868361287e565b905080600760008282546120c8919061450b565b9250508190555060006012600a6120df91906145e5565b60075473__$43e6f41f20fb862aeed332b486e44cb4c2$__636ca34af790916040518263ffffffff1660e01b815260040161211a9190614382565b60206040518083038186803b15801561213257600080fd5b505af4158015612146573d6000803e3d6000fd5b505050506040513d601f19601f8201168201806040525081019061216a9190613736565b6004546121779190614703565b6121819190614561565b9050600060085482612193919061475d565b905086600660008a815260200190815260200160002060008282546121b8919061450b565b92505081905550816008819055506121e186898960405180602001604052806000815250612b87565b809450505050509392505050565b600073ffffffffffffffffffffffffffffffffffffffff168473ffffffffffffffffffffffffffffffffffffffff16141561225f576040517f08c379a000000000000000000000000000000000000000000000000000000000815260040161225690614242565b60405180910390fd5b61226761269e565b73ffffffffffffffffffffffffffffffffffffffff168573ffffffffffffffffffffffffffffffffffffffff1614806122ad57506122ac856122a761269e565b611ed0565b5b6122ec576040517f08c379a00000000000000000000000000000000000000000000000000000000081526004016122e390614222565b60405180910390fd5b60006122f661269e565b905061231681878761230788612d1d565b61231088612d1d565b876126a6565b600080600086815260200190815260200160002060008873ffffffffffffffffffffffffffffffffffffffff1673ffffffffffffffffffffffffffffffffffffffff168152602001908152602001600020549050838110156123ad576040517f08c379a00000000000000000000000000000000000000000000000000000000081526004016123a4906142a2565b60405180910390fd5b83816123b9919061475d565b60008087815260200190815260200160002060008973ffffffffffffffffffffffffffffffffffffffff1673ffffffffffffffffffffffffffffffffffffffff168152602001908152602001600020819055508360008087815260200190815260200160002060008873ffffffffffffffffffffffffffffffffffffffff1673ffffffffffffffffffffffffffffffffffffffff168152602001908152602001600020600082825461246b919061450b565b925050819055508573ffffffffffffffffffffffffffffffffffffffff168773ffffffffffffffffffffffffffffffffffffffff168373ffffffffffffffffffffffffffffffffffffffff167fc3d58168c5ae7397731d063d5bbf3d657854427343f4c083240f7aacaa2d0f6288886040516124e89291906143b8565b60405180910390a46124fe828888888888612de3565b50505050505050565b60056020528060005260406000206000915090505481565b600960009054906101000a900473ffffffffffffffffffffffffffffffffffffffff1673ffffffffffffffffffffffffffffffffffffffff163373ffffffffffffffffffffffffffffffffffffffff16146125af576040517f08c379a00000000000000000000000000000000000000000000000000000000081526004016125a6906142c2565b60405180910390fd5b6125ba838383612fb3565b505050565b60007f01ffc9a7000000000000000000000000000000000000000000000000000000007bffffffffffffffffffffffffffffffffffffffffffffffffffffffff1916827bffffffffffffffffffffffffffffffffffffffffffffffffffffffff1916149050919050565b6000806012600a61263a91906145e5565b6005600086815260200190815260200160002054612658919061450b565b905060006012600a61266a91906145e5565b84836126769190614703565b6126809190614561565b905060008282612690919061475d565b905080935050505092915050565b600033905090565b505050505050565b6126cd8473ffffffffffffffffffffffffffffffffffffffff166131d9565b15612876578373ffffffffffffffffffffffffffffffffffffffff1663bc197c8187878686866040518663ffffffff1660e01b815260040161271395949392919061404a565b602060405180830381600087803b15801561272d57600080fd5b505af192505050801561275e57506040513d601f19601f8201168201806040525081019061275b91906136e4565b60015b6127ed5761276a6149a9565b8061277557506127b2565b806040517f08c379a00000000000000000000000000000000000000000000000000000000081526004016127a99190614180565b60405180910390fd5b6040517f08c379a00000000000000000000000000000000000000000000000000000000081526004016127e4906141a2565b60405180910390fd5b63bc197c8160e01b7bffffffffffffffffffffffffffffffffffffffffffffffffffffffff1916817bffffffffffffffffffffffffffffffffffffffffffffffffffffffff191614612874576040517f08c379a000000000000000000000000000000000000000000000000000000000815260040161286b906141c2565b60405180910390fd5b505b505050505050565b6000806012600a61288f91906145e5565b60056000868152602001908152602001600020546128ad919061450b565b905060006012600a6128bf91906145e5565b84836128cb9190614703565b6128d59190614561565b905081816128e3919061475d565b92506012600a6128f391906145e5565b816128fe919061475d565b6005600087815260200190815260200160002081905550505092915050565b600073ffffffffffffffffffffffffffffffffffffffff168473ffffffffffffffffffffffffffffffffffffffff16141561298d576040517f08c379a000000000000000000000000000000000000000000000000000000000815260040161298490614342565b60405180910390fd5b81518351146129d1576040517f08c379a00000000000000000000000000000000000000000000000000000000081526004016129c890614322565b60405180910390fd5b60006129db61269e565b90506129ec816000878787876126a6565b60005b8451811015612af157838181518110612a31577f4e487b7100000000000000000000000000000000000000000000000000000000600052603260045260246000fd5b6020026020010151600080878481518110612a75577f4e487b7100000000000000000000000000000000000000000000000000000000600052603260045260246000fd5b6020026020010151815260200190815260200160002060008873ffffffffffffffffffffffffffffffffffffffff1673ffffffffffffffffffffffffffffffffffffffff1681526020019081526020016000206000828254612ad7919061450b565b925050819055508080612ae990614879565b9150506129ef565b508473ffffffffffffffffffffffffffffffffffffffff16600073ffffffffffffffffffffffffffffffffffffffff168273ffffffffffffffffffffffffffffffffffffffff167f4a39dc06d4c0dbc64b70af90fd698a233a518aa5d07e595d983b8c0526c8f7fb8787604051612b6992919061412e565b60405180910390a4612b80816000878787876126ae565b5050505050565b600073ffffffffffffffffffffffffffffffffffffffff168473ffffffffffffffffffffffffffffffffffffffff161415612bf7576040517f08c379a0000000000000000000000000000000000000000000000000000000008152600401612bee90614342565b60405180910390fd5b6000612c0161269e565b9050612c2281600087612c1388612d1d565b612c1c88612d1d565b876126a6565b8260008086815260200190815260200160002060008773ffffffffffffffffffffffffffffffffffffffff1673ffffffffffffffffffffffffffffffffffffffff1681526020019081526020016000206000828254612c81919061450b565b925050819055508473ffffffffffffffffffffffffffffffffffffffff16600073ffffffffffffffffffffffffffffffffffffffff168273ffffffffffffffffffffffffffffffffffffffff167fc3d58168c5ae7397731d063d5bbf3d657854427343f4c083240f7aacaa2d0f628787604051612cff9291906143b8565b60405180910390a4612d1681600087878787612de3565b5050505050565b60606000600167ffffffffffffffff811115612d62577f4e487b7100000000000000000000000000000000000000000000000000000000600052604160045260246000fd5b604051908082528060200260200182016040528015612d905781602001602082028036833780820191505090505b5090508281600081518110612dce577f4e487b7100000000000000000000000000000000000000000000000000000000600052603260045260246000fd5b60200260200101818152505080915050919050565b612e028473ffffffffffffffffffffffffffffffffffffffff166131d9565b15612fab578373ffffffffffffffffffffffffffffffffffffffff1663f23a6e6187878686866040518663ffffffff1660e01b8152600401612e489594939291906140b2565b602060405180830381600087803b158015612e6257600080fd5b505af1925050508015612e9357506040513d601f19601f82011682018060405250810190612e9091906136e4565b60015b612f2257612e9f6149a9565b80612eaa5750612ee7565b806040517f08c379a0000000000000000000000000000000000000000000000000000000008152600401612ede9190614180565b60405180910390fd5b6040517f08c379a0000000000000000000000000000000000000000000000000000000008152600401612f19906141a2565b60405180910390fd5b63f23a6e6160e01b7bffffffffffffffffffffffffffffffffffffffffffffffffffffffff1916817bffffffffffffffffffffffffffffffffffffffffffffffffffffffff191614612fa9576040517f08c379a0000000000000000000000000000000000000000000000000000000008152600401612fa0906141c2565b60405180910390fd5b505b505050505050565b600073ffffffffffffffffffffffffffffffffffffffff168373ffffffffffffffffffffffffffffffffffffffff161415613023576040517f08c379a000000000000000000000000000000000000000000000000000000000815260040161301a90614282565b60405180910390fd5b600061302d61269e565b905061305d8185600061303f87612d1d565b61304887612d1d565b604051806020016040528060008152506126a6565b600080600085815260200190815260200160002060008673ffffffffffffffffffffffffffffffffffffffff1673ffffffffffffffffffffffffffffffffffffffff168152602001908152602001600020549050828110156130f4576040517f08c379a00000000000000000000000000000000000000000000000000000000081526004016130eb90614202565b60405180910390fd5b8281613100919061475d565b60008086815260200190815260200160002060008773ffffffffffffffffffffffffffffffffffffffff1673ffffffffffffffffffffffffffffffffffffffff16815260200190815260200160002081905550600073ffffffffffffffffffffffffffffffffffffffff168573ffffffffffffffffffffffffffffffffffffffff168373ffffffffffffffffffffffffffffffffffffffff167fc3d58168c5ae7397731d063d5bbf3d657854427343f4c083240f7aacaa2d0f6287876040516131ca9291906143b8565b60405180910390a45050505050565b600080823b905060008111915050919050565b60006131ff6131fa84614412565b6143e1565b9050808382526020820190508285602086028201111561321e57600080fd5b60005b8581101561324e57816132348882613302565b845260208401935060208301925050600181019050613221565b5050509392505050565b600061326b6132668461443e565b6143e1565b9050808382526020820190508285602086028201111561328a57600080fd5b60005b858110156132ba57816132a088826133d4565b84526020840193506020830192505060018101905061328d565b5050509392505050565b60006132d76132d28461446a565b6143e1565b9050828152602081018484840111156132ef57600080fd5b6132fa848285614805565b509392505050565b60008135905061331181614a5f565b92915050565b600082601f83011261332857600080fd5b81356133388482602086016131ec565b91505092915050565b600082601f83011261335257600080fd5b8135613362848260208601613258565b91505092915050565b60008135905061337a81614a76565b92915050565b60008135905061338f81614a8d565b92915050565b6000815190506133a481614a8d565b92915050565b600082601f8301126133bb57600080fd5b81356133cb8482602086016132c4565b91505092915050565b6000813590506133e381614aa4565b92915050565b6000815190506133f881614aa4565b92915050565b6000806040838503121561341157600080fd5b600061341f85828601613302565b925050602061343085828601613302565b9150509250929050565b600080600080600060a0868803121561345257600080fd5b600061346088828901613302565b955050602061347188828901613302565b945050604086013567ffffffffffffffff81111561348e57600080fd5b61349a88828901613341565b935050606086013567ffffffffffffffff8111156134b757600080fd5b6134c388828901613341565b925050608086013567ffffffffffffffff8111156134e057600080fd5b6134ec888289016133aa565b9150509295509295909350565b600080600080600060a0868803121561351157600080fd5b600061351f88828901613302565b955050602061353088828901613302565b9450506040613541888289016133d4565b9350506060613552888289016133d4565b925050608086013567ffffffffffffffff81111561356f57600080fd5b61357b888289016133aa565b9150509295509295909350565b6000806040838503121561359b57600080fd5b60006135a985828601613302565b92505060206135ba8582860161336b565b9150509250929050565b600080604083850312156135d757600080fd5b60006135e585828601613302565b92505060206135f6858286016133d4565b9150509250929050565b60008060006060848603121561361557600080fd5b600061362386828701613302565b9350506020613634868287016133d4565b9250506040613645868287016133d4565b9150509250925092565b6000806040838503121561366257600080fd5b600083013567ffffffffffffffff81111561367c57600080fd5b61368885828601613317565b925050602083013567ffffffffffffffff8111156136a557600080fd5b6136b185828601613341565b9150509250929050565b6000602082840312156136cd57600080fd5b60006136db84828501613380565b91505092915050565b6000602082840312156136f657600080fd5b600061370484828501613395565b91505092915050565b60006020828403121561371f57600080fd5b600061372d848285016133d4565b91505092915050565b60006020828403121561374857600080fd5b6000613756848285016133e9565b91505092915050565b6000806040838503121561377257600080fd5b6000613780858286016133d4565b9250506020613791858286016133d4565b9150509250929050565b6000806000606084860312156137b057600080fd5b60006137be868287016133d4565b93505060206137cf868287016133d4565b92505060406137e086828701613302565b9150509250925092565b6000806000606084860312156137ff57600080fd5b600061380d868287016133d4565b935050602061381e868287016133d4565b925050604061382f8682870161336b565b9150509250925092565b6000806000806080858703121561384f57600080fd5b600061385d878288016133d4565b945050602061386e878288016133d4565b935050604061387f8782880161336b565b925050606061389087828801613302565b91505092959194509250565b6000806000606084860312156138b157600080fd5b60006138bf868287016133d4565b93505060206138d0868287016133d4565b92505060406138e1868287016133d4565b9150509250925092565b6000806000806080858703121561390157600080fd5b600061390f878288016133d4565b9450506020613920878288016133d4565b9350506040613931878288016133d4565b925050606061394287828801613302565b91505092959194509250565b600061395a8383614002565b60208301905092915050565b61396f81614791565b82525050565b6000613980826144aa565b61398a81856144d8565b93506139958361449a565b8060005b838110156139c65781516139ad888261394e565b97506139b8836144cb565b925050600181019050613999565b5085935050505092915050565b6139dc816147a3565b82525050565b60006139ed826144b5565b6139f781856144e9565b9350613a07818560208601614814565b613a108161497e565b840191505092915050565b6000613a26826144c0565b613a3081856144fa565b9350613a40818560208601614814565b613a498161497e565b840191505092915050565b6000613a616034836144fa565b91507f455243313135353a207472616e7366657220746f206e6f6e204552433131353560008301527f526563656976657220696d706c656d656e7465720000000000000000000000006020830152604082019050919050565b6000613ac76028836144fa565b91507f455243313135353a204552433131353552656365697665722072656a6563746560008301527f6420746f6b656e730000000000000000000000000000000000000000000000006020830152604082019050919050565b6000613b2d602b836144fa565b91507f455243313135353a2062616c616e636520717565727920666f7220746865207a60008301527f65726f20616464726573730000000000000000000000000000000000000000006020830152604082019050919050565b6000613b936024836144fa565b91507f455243313135353a206275726e20616d6f756e7420657863656564732062616c60008301527f616e6365000000000000000000000000000000000000000000000000000000006020830152604082019050919050565b6000613bf96029836144fa565b91507f455243313135353a2063616c6c6572206973206e6f74206f776e6572206e6f7260008301527f20617070726f76656400000000000000000000000000000000000000000000006020830152604082019050919050565b6000613c5f6025836144fa565b91507f455243313135353a207472616e7366657220746f20746865207a65726f20616460008301527f64726573730000000000000000000000000000000000000000000000000000006020830152604082019050919050565b6000613cc56032836144fa565b91507f455243313135353a207472616e736665722063616c6c6572206973206e6f742060008301527f6f776e6572206e6f7220617070726f76656400000000000000000000000000006020830152604082019050919050565b6000613d2b6023836144fa565b91507f455243313135353a206275726e2066726f6d20746865207a65726f206164647260008301527f65737300000000000000000000000000000000000000000000000000000000006020830152604082019050919050565b6000613d91602a836144fa565b91507f455243313135353a20696e73756666696369656e742062616c616e636520666f60008301527f72207472616e73666572000000000000000000000000000000000000000000006020830152604082019050919050565b6000613df76020836144fa565b91507f66756e6374696f6e206f6e6c792063616c6c61626c652076696120526f756e646000830152602082019050919050565b6000613e376029836144fa565b91507f455243313135353a2073657474696e6720617070726f76616c2073746174757360008301527f20666f722073656c6600000000000000000000000000000000000000000000006020830152604082019050919050565b6000613e9d6029836144fa565b91507f455243313135353a206163636f756e747320616e6420696473206c656e67746860008301527f206d69736d6174636800000000000000000000000000000000000000000000006020830152604082019050919050565b6000613f036028836144fa565b91507f455243313135353a2069647320616e6420616d6f756e7473206c656e6774682060008301527f6d69736d617463680000000000000000000000000000000000000000000000006020830152604082019050919050565b6000613f696021836144fa565b91507f455243313135353a206d696e7420746f20746865207a65726f2061646472657360008301527f73000000000000000000000000000000000000000000000000000000000000006020830152604082019050919050565b6000613fcf600e836144fa565b91507f696e76616c6964206275636b65740000000000000000000000000000000000006000830152602082019050919050565b61400b816147fb565b82525050565b61401a816147fb565b82525050565b614029816147fb565b82525050565b60006020820190506140446000830184613966565b92915050565b600060a08201905061405f6000830188613966565b61406c6020830187613966565b818103604083015261407e8186613975565b905081810360608301526140928185613975565b905081810360808301526140a681846139e2565b90509695505050505050565b600060a0820190506140c76000830188613966565b6140d46020830187613966565b6140e16040830186614011565b6140ee6060830185614011565b818103608083015261410081846139e2565b90509695505050505050565b600060208201905081810360008301526141268184613975565b905092915050565b600060408201905081810360008301526141488185613975565b9050818103602083015261415c8184613975565b90509392505050565b600060208201905061417a60008301846139d3565b92915050565b6000602082019050818103600083015261419a8184613a1b565b905092915050565b600060208201905081810360008301526141bb81613a54565b9050919050565b600060208201905081810360008301526141db81613aba565b9050919050565b600060208201905081810360008301526141fb81613b20565b9050919050565b6000602082019050818103600083015261421b81613b86565b9050919050565b6000602082019050818103600083015261423b81613bec565b9050919050565b6000602082019050818103600083015261425b81613c52565b9050919050565b6000602082019050818103600083015261427b81613cb8565b9050919050565b6000602082019050818103600083015261429b81613d1e565b9050919050565b600060208201905081810360008301526142bb81613d84565b9050919050565b600060208201905081810360008301526142db81613dea565b9050919050565b600060208201905081810360008301526142fb81613e2a565b9050919050565b6000602082019050818103600083015261431b81613e90565b9050919050565b6000602082019050818103600083015261433b81613ef6565b9050919050565b6000602082019050818103600083015261435b81613f5c565b9050919050565b6000602082019050818103600083015261437b81613fc2565b9050919050565b60006020820190506143976000830184614020565b92915050565b60006020820190506143b26000830184614011565b92915050565b60006040820190506143cd6000830185614011565b6143da6020830184614011565b9392505050565b6000604051905081810181811067ffffffffffffffff821117156144085761440761494f565b5b8060405250919050565b600067ffffffffffffffff82111561442d5761442c61494f565b5b602082029050602081019050919050565b600067ffffffffffffffff8211156144595761445861494f565b5b602082029050602081019050919050565b600067ffffffffffffffff8211156144855761448461494f565b5b601f19601f8301169050602081019050919050565b6000819050602082019050919050565b600081519050919050565b600081519050919050565b600081519050919050565b6000602082019050919050565b600082825260208201905092915050565b600082825260208201905092915050565b600082825260208201905092915050565b6000614516826147fb565b9150614521836147fb565b9250827fffffffffffffffffffffffffffffffffffffffffffffffffffffffffffffffff03821115614556576145556148c2565b5b828201905092915050565b600061456c826147fb565b9150614577836147fb565b925082614587576145866148f1565b5b828204905092915050565b6000808291508390505b60018511156145dc578086048111156145b8576145b76148c2565b5b60018516156145c75780820291505b80810290506145d58561498f565b945061459c565b94509492505050565b60006145f0826147fb565b91506145fb836147fb565b92506146287fffffffffffffffffffffffffffffffffffffffffffffffffffffffffffffffff8484614630565b905092915050565b60008261464057600190506146fc565b8161464e57600090506146fc565b8160018114614664576002811461466e5761469d565b60019150506146fc565b60ff8411156146805761467f6148c2565b5b8360020a915084821115614697576146966148c2565b5b506146fc565b5060208310610133831016604e8410600b84101617156146d25782820a9050838111156146cd576146cc6148c2565b5b6146fc565b6146df8484846001614592565b925090508184048111156146f6576146f56148c2565b5b81810290505b9392505050565b600061470e826147fb565b9150614719836147fb565b9250817fffffffffffffffffffffffffffffffffffffffffffffffffffffffffffffffff0483118215151615614752576147516148c2565b5b828202905092915050565b6000614768826147fb565b9150614773836147fb565b925082821015614786576147856148c2565b5b828203905092915050565b600061479c826147db565b9050919050565b60008115159050919050565b60007fffffffff0000000000000000000000000000000000000000000000000000000082169050919050565b600073ffffffffffffffffffffffffffffffffffffffff82169050919050565b6000819050919050565b82818337600083830152505050565b60005b83811015614832578082015181840152602081019050614817565b83811115614841576000848401525b50505050565b6000600282049050600182168061485f57607f821691505b6020821081141561487357614872614920565b5b50919050565b6000614884826147fb565b91507fffffffffffffffffffffffffffffffffffffffffffffffffffffffffffffffff8214156148b7576148b66148c2565b5b600182019050919050565b7f4e487b7100000000000000000000000000000000000000000000000000000000600052601160045260246000fd5b7f4e487b7100000000000000000000000000000000000000000000000000000000600052601260045260246000fd5b7f4e487b7100000000000000000000000000000000000000000000000000000000600052602260045260246000fd5b7f4e487b7100000000000000000000000000000000000000000000000000000000600052604160045260246000fd5b6000601f19601f8301169050919050565b60008160011c9050919050565b60008160e01c9050919050565b600060443d10156149b957614a5c565b60046000803e6149ca60005161499c565b6308c379a081146149db5750614a5c565b60405160043d036004823e80513d602482011167ffffffffffffffff82111715614a0757505050614a5c565b808201805167ffffffffffffffff811115614a26575050505050614a5c565b8060208301013d8501811115614a4157505050505050614a5c565b614a4a8261497e565b60208401016040528296505050505050505b90565b614a6881614791565b8114614a7357600080fd5b50565b614a7f816147a3565b8114614a8a57600080fd5b50565b614a96816147af565b8114614aa157600080fd5b50565b614aad816147fb565b8114614ab857600080fd5b5056fea264697066735822122070ca9557375f914caa22003cac90fd9845d323239ab44a21963369aea216c39164736f6c63430008000033a264697066735822122013468ac1dbaf5e900382dd81db2d72c5e61b436a346fda79c1f3756b675f1e8b64736f6c63430008000033",
  "linkReferences": {
    "hardhat/contracts/Libraries/Math.sol": {
      "Math": [
        {
          "length": 20,
          "start": 18171
        },
        {
          "length": 20,
          "start": 22104
        },
        {
          "length": 20,
          "start": 22394
        },
        {
          "length": 20,
          "start": 24115
        },
        {
          "length": 20,
          "start": 24297
        },
        {
          "length": 20,
          "start": 24565
        },
        {
          "length": 20,
          "start": 24813
        },
        {
          "length": 20,
          "start": 25562
        },
        {
          "length": 20,
          "start": 26054
        },
        {
          "length": 20,
          "start": 26475
        },
        {
          "length": 20,
          "start": 27177
        },
        {
          "length": 20,
          "start": 28260
        },
        {
          "length": 20,
          "start": 28456
        }
      ]
    }
  },
  "deployedLinkReferences": {}
}