{
  "_format": "hh-sol-artifact-1",
  "contractName": "Token",
  "sourceName": "hardhat/contracts/Token.sol",
  "abi": [
    {
      "inputs": [
        {
          "internalType": "uint256",
          "name": "N",
          "type": "uint256"
        },
        {
          "internalType": "uint256",
          "name": "b",
          "type": "uint256"
        },
        {
          "internalType": "address",
          "name": "round_address",
          "type": "address"
        }
      ],
      "stateMutability": "nonpayable",
      "type": "constructor"
    },
    {
      "anonymous": false,
      "inputs": [
        {
          "indexed": true,
          "internalType": "address",
          "name": "account",
          "type": "address"
        },
        {
          "indexed": true,
          "internalType": "address",
          "name": "operator",
          "type": "address"
        },
        {
          "indexed": false,
          "internalType": "bool",
          "name": "approved",
          "type": "bool"
        }
      ],
      "name": "ApprovalForAll",
      "type": "event"
    },
    {
      "anonymous": false,
      "inputs": [
        {
          "indexed": true,
          "internalType": "address",
          "name": "operator",
          "type": "address"
        },
        {
          "indexed": true,
          "internalType": "address",
          "name": "from",
          "type": "address"
        },
        {
          "indexed": true,
          "internalType": "address",
          "name": "to",
          "type": "address"
        },
        {
          "indexed": false,
          "internalType": "uint256[]",
          "name": "ids",
          "type": "uint256[]"
        },
        {
          "indexed": false,
          "internalType": "uint256[]",
          "name": "values",
          "type": "uint256[]"
        }
      ],
      "name": "TransferBatch",
      "type": "event"
    },
    {
      "anonymous": false,
      "inputs": [
        {
          "indexed": true,
          "internalType": "address",
          "name": "operator",
          "type": "address"
        },
        {
          "indexed": true,
          "internalType": "address",
          "name": "from",
          "type": "address"
        },
        {
          "indexed": true,
          "internalType": "address",
          "name": "to",
          "type": "address"
        },
        {
          "indexed": false,
          "internalType": "uint256",
          "name": "id",
          "type": "uint256"
        },
        {
          "indexed": false,
          "internalType": "uint256",
          "name": "value",
          "type": "uint256"
        }
      ],
      "name": "TransferSingle",
      "type": "event"
    },
    {
      "anonymous": false,
      "inputs": [
        {
          "indexed": false,
          "internalType": "string",
          "name": "value",
          "type": "string"
        },
        {
          "indexed": true,
          "internalType": "uint256",
          "name": "id",
          "type": "uint256"
        }
      ],
      "name": "URI",
      "type": "event"
    },
    {
      "anonymous": false,
      "inputs": [
        {
          "indexed": false,
          "internalType": "uint256",
          "name": "earnings",
          "type": "uint256"
        },
        {
          "indexed": false,
          "internalType": "uint256",
          "name": "payout",
          "type": "uint256"
        },
        {
          "indexed": false,
          "internalType": "uint256",
          "name": "timestamp",
          "type": "uint256"
        }
      ],
      "name": "roundEnded",
      "type": "event"
    },
    {
      "inputs": [],
      "name": "_N",
      "outputs": [
        {
          "internalType": "uint256",
          "name": "",
          "type": "uint256"
        }
      ],
      "stateMutability": "view",
      "type": "function"
    },
    {
      "inputs": [],
      "name": "_b",
      "outputs": [
        {
          "internalType": "uint256",
          "name": "",
          "type": "uint256"
        }
      ],
      "stateMutability": "view",
      "type": "function"
    },
    {
      "inputs": [
        {
          "internalType": "uint256",
          "name": "",
          "type": "uint256"
        }
      ],
      "name": "_quantities",
      "outputs": [
        {
          "internalType": "uint256",
          "name": "",
          "type": "uint256"
        }
      ],
      "stateMutability": "view",
      "type": "function"
    },
    {
      "inputs": [],
      "name": "_round_address",
      "outputs": [
        {
          "internalType": "address",
          "name": "",
          "type": "address"
        }
      ],
      "stateMutability": "view",
      "type": "function"
    },
    {
      "inputs": [],
      "name": "_total_weight",
      "outputs": [
        {
          "internalType": "uint256",
          "name": "",
          "type": "uint256"
        }
      ],
      "stateMutability": "view",
      "type": "function"
    },
    {
      "inputs": [],
      "name": "_value",
      "outputs": [
        {
          "internalType": "uint256",
          "name": "",
          "type": "uint256"
        }
      ],
      "stateMutability": "view",
      "type": "function"
    },
    {
      "inputs": [
        {
          "internalType": "uint256",
          "name": "",
          "type": "uint256"
        }
      ],
      "name": "_weights",
      "outputs": [
        {
          "internalType": "uint256",
          "name": "",
          "type": "uint256"
        }
      ],
      "stateMutability": "view",
      "type": "function"
    },
    {
      "inputs": [
        {
          "internalType": "address",
          "name": "account",
          "type": "address"
        },
        {
          "internalType": "uint256",
          "name": "id",
          "type": "uint256"
        }
      ],
      "name": "balanceOf",
      "outputs": [
        {
          "internalType": "uint256",
          "name": "",
          "type": "uint256"
        }
      ],
      "stateMutability": "view",
      "type": "function"
    },
    {
      "inputs": [
        {
          "internalType": "address[]",
          "name": "accounts",
          "type": "address[]"
        },
        {
          "internalType": "uint256[]",
          "name": "ids",
          "type": "uint256[]"
        }
      ],
      "name": "balanceOfBatch",
      "outputs": [
        {
          "internalType": "uint256[]",
          "name": "",
          "type": "uint256[]"
        }
      ],
      "stateMutability": "view",
      "type": "function"
    },
    {
      "inputs": [
        {
          "internalType": "address",
          "name": "account",
          "type": "address"
        },
        {
          "internalType": "uint256",
          "name": "bucket",
          "type": "uint256"
        },
        {
          "internalType": "uint256",
          "name": "amount",
          "type": "uint256"
        }
      ],
      "name": "burn",
      "outputs": [],
      "stateMutability": "nonpayable",
      "type": "function"
    },
    {
      "inputs": [
        {
          "internalType": "uint256",
          "name": "bucket",
          "type": "uint256"
        }
      ],
      "name": "getBucketPrice",
      "outputs": [
        {
          "internalType": "uint256",
          "name": "",
          "type": "uint256"
        }
      ],
      "stateMutability": "view",
      "type": "function"
    },
    {
      "inputs": [
        {
          "internalType": "uint256",
          "name": "bucket",
          "type": "uint256"
        },
        {
          "internalType": "uint256",
          "name": "amount",
          "type": "uint256"
        }
      ],
      "name": "getPurchasePrice",
      "outputs": [
        {
          "internalType": "uint256",
          "name": "",
          "type": "uint256"
        }
      ],
      "stateMutability": "view",
      "type": "function"
    },
    {
      "inputs": [
        {
          "internalType": "uint256",
          "name": "start",
          "type": "uint256"
        },
        {
          "internalType": "uint256",
          "name": "end",
          "type": "uint256"
        },
        {
          "internalType": "uint256",
          "name": "amount",
          "type": "uint256"
        }
      ],
      "name": "getPurchaseRangePrice",
      "outputs": [
        {
          "internalType": "uint256",
          "name": "",
          "type": "uint256"
        }
      ],
      "stateMutability": "view",
      "type": "function"
    },
    {
      "inputs": [
        {
          "internalType": "uint256",
          "name": "bucket",
          "type": "uint256"
        },
        {
          "internalType": "uint256",
          "name": "amount",
          "type": "uint256"
        },
        {
          "internalType": "bool",
          "name": "left",
          "type": "bool"
        }
      ],
      "name": "getPurchaseSlopePrice",
      "outputs": [
        {
          "internalType": "uint256",
          "name": "",
          "type": "uint256"
        }
      ],
      "stateMutability": "view",
      "type": "function"
    },
    {
      "inputs": [
        {
          "internalType": "uint256",
          "name": "bucket",
          "type": "uint256"
        }
      ],
      "name": "getQuantity",
      "outputs": [
        {
          "internalType": "uint256",
          "name": "",
          "type": "uint256"
        }
      ],
      "stateMutability": "view",
      "type": "function"
    },
    {
      "inputs": [
        {
          "internalType": "address",
          "name": "account",
          "type": "address"
        },
        {
          "internalType": "address",
          "name": "operator",
          "type": "address"
        }
      ],
      "name": "isApprovedForAll",
      "outputs": [
        {
          "internalType": "bool",
          "name": "",
          "type": "bool"
        }
      ],
      "stateMutability": "view",
      "type": "function"
    },
    {
      "inputs": [
        {
          "internalType": "uint256",
          "name": "bucket",
          "type": "uint256"
        },
        {
          "internalType": "uint256",
          "name": "amount",
          "type": "uint256"
        },
        {
          "internalType": "address",
          "name": "recipient",
          "type": "address"
        }
      ],
      "name": "purchase",
      "outputs": [
        {
          "internalType": "uint256",
          "name": "",
          "type": "uint256"
        }
      ],
      "stateMutability": "nonpayable",
      "type": "function"
    },
    {
      "inputs": [
        {
          "internalType": "uint256",
          "name": "start",
          "type": "uint256"
        },
        {
          "internalType": "uint256",
          "name": "end",
          "type": "uint256"
        },
        {
          "internalType": "uint256",
          "name": "amount",
          "type": "uint256"
        },
        {
          "internalType": "address",
          "name": "recipient",
          "type": "address"
        }
      ],
      "name": "purchaseRange",
      "outputs": [
        {
          "internalType": "uint256",
          "name": "",
          "type": "uint256"
        }
      ],
      "stateMutability": "nonpayable",
      "type": "function"
    },
    {
      "inputs": [
        {
          "internalType": "uint256",
          "name": "bucket",
          "type": "uint256"
        },
        {
          "internalType": "uint256",
          "name": "amount",
          "type": "uint256"
        },
        {
          "internalType": "bool",
          "name": "left",
          "type": "bool"
        },
        {
          "internalType": "address",
          "name": "recipient",
          "type": "address"
        }
      ],
      "name": "purchaseSlope",
      "outputs": [
        {
          "internalType": "uint256",
          "name": "",
          "type": "uint256"
        }
      ],
      "stateMutability": "nonpayable",
      "type": "function"
    },
    {
      "inputs": [
        {
          "internalType": "address",
          "name": "from",
          "type": "address"
        },
        {
          "internalType": "address",
          "name": "to",
          "type": "address"
        },
        {
          "internalType": "uint256[]",
          "name": "ids",
          "type": "uint256[]"
        },
        {
          "internalType": "uint256[]",
          "name": "amounts",
          "type": "uint256[]"
        },
        {
          "internalType": "bytes",
          "name": "data",
          "type": "bytes"
        }
      ],
      "name": "safeBatchTransferFrom",
      "outputs": [],
      "stateMutability": "nonpayable",
      "type": "function"
    },
    {
      "inputs": [
        {
          "internalType": "address",
          "name": "from",
          "type": "address"
        },
        {
          "internalType": "address",
          "name": "to",
          "type": "address"
        },
        {
          "internalType": "uint256",
          "name": "id",
          "type": "uint256"
        },
        {
          "internalType": "uint256",
          "name": "amount",
          "type": "uint256"
        },
        {
          "internalType": "bytes",
          "name": "data",
          "type": "bytes"
        }
      ],
      "name": "safeTransferFrom",
      "outputs": [],
      "stateMutability": "nonpayable",
      "type": "function"
    },
    {
      "inputs": [
        {
          "internalType": "address",
          "name": "operator",
          "type": "address"
        },
        {
          "internalType": "bool",
          "name": "approved",
          "type": "bool"
        }
      ],
      "name": "setApprovalForAll",
      "outputs": [],
      "stateMutability": "nonpayable",
      "type": "function"
    },
    {
      "inputs": [
        {
          "internalType": "bytes4",
          "name": "interfaceId",
          "type": "bytes4"
        }
      ],
      "name": "supportsInterface",
      "outputs": [
        {
          "internalType": "bool",
          "name": "",
          "type": "bool"
        }
      ],
      "stateMutability": "view",
      "type": "function"
    },
    {
      "inputs": [
        {
          "internalType": "uint256",
          "name": "",
          "type": "uint256"
        }
      ],
      "name": "uri",
      "outputs": [
        {
          "internalType": "string",
          "name": "",
          "type": "string"
        }
      ],
      "stateMutability": "view",
      "type": "function"
    }
  ],
  "bytecode": "0x60806040523480156200001157600080fd5b506040516200538d3803806200538d833981810160405281019062000037919062000370565b6040518060400160405280600481526020017f6e6f6e65000000000000000000000000000000000000000000000000000000008152506200007e816200024a60201b60201c565b5060008311620000c5576040517f08c379a0000000000000000000000000000000000000000000000000000000008152600401620000bc90620004c9565b60405180910390fd5b600082116200010b576040517f08c379a00000000000000000000000000000000000000000000000000000000081526004016200010290620004a7565b60405180910390fd5b82600381905550816004819055506012600a620001299190620005ac565b600354620001389190620006e9565b6007819055506012600a6200014e9190620005ac565b60075473__$43e6f41f20fb862aeed332b486e44cb4c2$__636ca34af790916040518263ffffffff1660e01b81526004016200018b9190620004eb565b60206040518083038186803b158015620001a457600080fd5b505af4158015620001b9573d6000803e3d6000fd5b505050506040513d601f19601f82011682018060405250810190620001df919062000344565b600454620001ee9190620006e9565b620001fa919062000519565b60088190555080600960006101000a81548173ffffffffffffffffffffffffffffffffffffffff021916908373ffffffffffffffffffffffffffffffffffffffff1602179055505050506200088c565b80600290805190602001906200026292919062000266565b5050565b828054620002749062000788565b90600052602060002090601f016020900481019282620002985760008555620002e4565b82601f10620002b357805160ff1916838001178555620002e4565b82800160010185558215620002e4579182015b82811115620002e3578251825591602001919060010190620002c6565b5b509050620002f39190620002f7565b5090565b5b8082111562000312576000816000905550600101620002f8565b5090565b600081519050620003278162000858565b92915050565b6000815190506200033e8162000872565b92915050565b6000602082840312156200035757600080fd5b600062000367848285016200032d565b91505092915050565b6000806000606084860312156200038657600080fd5b600062000396868287016200032d565b9350506020620003a9868287016200032d565b9250506040620003bc8682870162000316565b9150509250925092565b6000620003d560218362000508565b91507f636f6e7374727563746f723a20622073686f756c6420626520706f736974697660008301527f65000000000000000000000000000000000000000000000000000000000000006020830152604082019050919050565b60006200043d60218362000508565b91507f636f6e7374727563746f723a204e2073686f756c6420626520706f736974697660008301527f65000000000000000000000000000000000000000000000000000000000000006020830152604082019050919050565b620004a1816200077e565b82525050565b60006020820190508181036000830152620004c281620003c6565b9050919050565b60006020820190508181036000830152620004e4816200042e565b9050919050565b600060208201905062000502600083018462000496565b92915050565b600082825260208201905092915050565b600062000526826200077e565b915062000533836200077e565b925082620005465762000545620007ed565b5b828204905092915050565b6000808291508390505b6001851115620005a3578086048111156200057b576200057a620007be565b5b60018516156200058b5780820291505b80810290506200059b856200084b565b94506200055b565b94509492505050565b6000620005b9826200077e565b9150620005c6836200077e565b9250620005f57fffffffffffffffffffffffffffffffffffffffffffffffffffffffffffffffff8484620005fd565b905092915050565b6000826200060f5760019050620006e2565b816200061f5760009050620006e2565b8160018114620006385760028114620006435762000679565b6001915050620006e2565b60ff841115620006585762000657620007be565b5b8360020a915084821115620006725762000671620007be565b5b50620006e2565b5060208310610133831016604e8410600b8410161715620006b35782820a905083811115620006ad57620006ac620007be565b5b620006e2565b620006c2848484600162000551565b92509050818404811115620006dc57620006db620007be565b5b81810290505b9392505050565b6000620006f6826200077e565b915062000703836200077e565b9250817fffffffffffffffffffffffffffffffffffffffffffffffffffffffffffffffff04831182151516156200073f576200073e620007be565b5b828202905092915050565b600062000757826200075e565b9050919050565b600073ffffffffffffffffffffffffffffffffffffffff82169050919050565b6000819050919050565b60006002820490506001821680620007a157607f821691505b60208210811415620007b857620007b76200081c565b5b50919050565b7f4e487b7100000000000000000000000000000000000000000000000000000000600052601160045260246000fd5b7f4e487b7100000000000000000000000000000000000000000000000000000000600052601260045260246000fd5b7f4e487b7100000000000000000000000000000000000000000000000000000000600052602260045260246000fd5b60008160011c9050919050565b62000863816200074a565b81146200086f57600080fd5b50565b6200087d816200077e565b81146200088957600080fd5b50565b614af1806200089c6000396000f3fe608060405234801561001057600080fd5b50600436106101575760003560e01c806360427344116100c3578063e2d24c061161007c578063e2d24c061461044c578063e985e9c51461046a578063ea3bd5df1461049a578063f242432a146104ca578063f3f03a61146104e6578063f5298aca1461051657610157565b80636042734414610352578063888515bd1461038257806394c5ec65146103b2578063a22cb465146103e2578063b895c74a146103fe578063de6f56c61461041c57610157565b80632eb2c2d6116101155780632eb2c2d61461025857806346c82b2c146102745780634e1273f4146102a45780634f5d06c2146102d45780635655bb20146103045780635ebd9ded1461032257610157565b8062fdd58e1461015c57806301ffc9a71461018c5780630e89341c146101bc5780631a798807146101ec578063253749961461021c57806325f5eb811461023a575b600080fd5b610176600480360381019061017191906135c4565b610532565b604051610183919061439d565b60405180910390f35b6101a660048036038101906101a191906136bb565b6105fb565b6040516101b39190614165565b60405180910390f35b6101d660048036038101906101d1919061370d565b6106dd565b6040516101e39190614180565b60405180910390f35b610206600480360381019061020191906137ea565b610771565b604051610213919061439d565b60405180910390f35b6102246109f9565b604051610231919061439d565b60405180910390f35b6102426109ff565b60405161024f919061439d565b60405180910390f35b610272600480360381019061026d919061343a565b610a05565b005b61028e6004803603810190610289919061370d565b610dfb565b60405161029b919061439d565b60405180910390f35b6102be60048036038101906102b9919061364f565b610e13565b6040516102cb919061410c565b60405180910390f35b6102ee60048036038101906102e9919061375f565b610fc4565b6040516102fb919061439d565b60405180910390f35b61030c611163565b604051610319919061439d565b60405180910390f35b61033c6004803603810190610337919061370d565b611169565b604051610349919061439d565b60405180910390f35b61036c6004803603810190610367919061389c565b611186565b604051610379919061439d565b60405180910390f35b61039c60048036038101906103979190613839565b611368565b6040516103a9919061439d565b60405180910390f35b6103cc60048036038101906103c791906138eb565b61186b565b6040516103d9919061439d565b60405180910390f35b6103fc60048036038101906103f79190613588565b611cc9565b005b610406611e4a565b604051610413919061439d565b60405180910390f35b6104366004803603810190610431919061370d565b611e50565b604051610443919061439d565b60405180910390f35b610454611eaa565b604051610461919061402f565b60405180910390f35b610484600480360381019061047f91906133fe565b611ed0565b6040516104919190614165565b60405180910390f35b6104b460048036038101906104af919061379b565b611f64565b6040516104c1919061439d565b60405180910390f35b6104e460048036038101906104df91906134f9565b6121ef565b005b61050060048036038101906104fb919061370d565b612507565b60405161050d919061439d565b60405180910390f35b610530600480360381019061052b9190613600565b61251f565b005b60008073ffffffffffffffffffffffffffffffffffffffff168373ffffffffffffffffffffffffffffffffffffffff1614156105a3576040517f08c379a000000000000000000000000000000000000000000000000000000000815260040161059a906141e2565b60405180910390fd5b60008083815260200190815260200160002060008473ffffffffffffffffffffffffffffffffffffffff1673ffffffffffffffffffffffffffffffffffffffff16815260200190815260200160002054905092915050565b60007fd9b67a26000000000000000000000000000000000000000000000000000000007bffffffffffffffffffffffffffffffffffffffffffffffffffffffff1916827bffffffffffffffffffffffffffffffffffffffffffffffffffffffff191614806106c657507f0e89341c000000000000000000000000000000000000000000000000000000007bffffffffffffffffffffffffffffffffffffffffffffffffffffffff1916827bffffffffffffffffffffffffffffffffffffffffffffffffffffffff1916145b806106d657506106d5826125bf565b5b9050919050565b6060600280546106ec90614847565b80601f016020809104026020016040519081016040528092919081815260200182805461071890614847565b80156107655780601f1061073a57610100808354040283529160200191610765565b820191906000526020600020905b81548152906001019060200180831161074857829003601f168201915b50505050509050919050565b600060035484106107b7576040517f08c379a00000000000000000000000000000000000000000000000000000000081526004016107ae90614362565b60405180910390fd5b600080836107d4576002866003546107cf919061475d565b6107d8565b6000865b915060ff1691506000600454826107ef9190614703565b6012600a6107fd91906145e5565b876108089190614703565b6108129190614561565b73__$43e6f41f20fb862aeed332b486e44cb4c2$__639fdfe44290916040518263ffffffff1660e01b815260040161084a9190614382565b60206040518083038186803b15801561086257600080fd5b505af4158015610876573d6000803e3d6000fd5b505050506040513d601f19601f8201168201806040525081019061089a9190613736565b9050600081905060008890506000600754905060005b8581101561092257600187846108c6919061450b565b6108d0919061475d565b92506108dc8385612629565b826108e7919061450b565b91506012600a6108f791906145e5565b85856109039190614703565b61090d9190614561565b9350808061091a90614879565b9150506108b0565b5060006012600a61093391906145e5565b8273__$43e6f41f20fb862aeed332b486e44cb4c2$__636ca34af790916040518263ffffffff1660e01b815260040161096c9190614382565b60206040518083038186803b15801561098457600080fd5b505af4158015610998573d6000803e3d6000fd5b505050506040513d601f19601f820116820180604052508101906109bc9190613736565b6004546109c99190614703565b6109d39190614561565b90506000600854826109e5919061475d565b905080985050505050505050509392505050565b60045481565b60075481565b8151835114610a49576040517f08c379a0000000000000000000000000000000000000000000000000000000008152600401610a4090614322565b60405180910390fd5b600073ffffffffffffffffffffffffffffffffffffffff168473ffffffffffffffffffffffffffffffffffffffff161415610ab9576040517f08c379a0000000000000000000000000000000000000000000000000000000008152600401610ab090614242565b60405180910390fd5b610ac161269e565b73ffffffffffffffffffffffffffffffffffffffff168573ffffffffffffffffffffffffffffffffffffffff161480610b075750610b0685610b0161269e565b611ed0565b5b610b46576040517f08c379a0000000000000000000000000000000000000000000000000000000008152600401610b3d90614262565b60405180910390fd5b6000610b5061269e565b9050610b608187878787876126a6565b60005b8451811015610d66576000858281518110610ba7577f4e487b7100000000000000000000000000000000000000000000000000000000600052603260045260246000fd5b602002602001015190506000858381518110610bec577f4e487b7100000000000000000000000000000000000000000000000000000000600052603260045260246000fd5b60200260200101519050600080600084815260200190815260200160002060008b73ffffffffffffffffffffffffffffffffffffffff1673ffffffffffffffffffffffffffffffffffffffff16815260200190815260200160002054905081811015610c8d576040517f08c379a0000000000000000000000000000000000000000000000000000000008152600401610c84906142a2565b60405180910390fd5b8181610c99919061475d565b60008085815260200190815260200160002060008c73ffffffffffffffffffffffffffffffffffffffff1673ffffffffffffffffffffffffffffffffffffffff168152602001908152602001600020819055508160008085815260200190815260200160002060008b73ffffffffffffffffffffffffffffffffffffffff1673ffffffffffffffffffffffffffffffffffffffff1681526020019081526020016000206000828254610d4b919061450b565b9250508190555050505080610d5f90614879565b9050610b63565b508473ffffffffffffffffffffffffffffffffffffffff168673ffffffffffffffffffffffffffffffffffffffff168273ffffffffffffffffffffffffffffffffffffffff167f4a39dc06d4c0dbc64b70af90fd698a233a518aa5d07e595d983b8c0526c8f7fb8787604051610ddd92919061412e565b60405180910390a4610df38187878787876126ae565b505050505050565b60066020528060005260406000206000915090505481565b60608151835114610e59576040517f08c379a0000000000000000000000000000000000000000000000000000000008152600401610e5090614302565b60405180910390fd5b6000835167ffffffffffffffff811115610e9c577f4e487b7100000000000000000000000000000000000000000000000000000000600052604160045260246000fd5b604051908082528060200260200182016040528015610eca5781602001602082028036833780820191505090505b50905060005b8451811015610fb957610f63858281518110610f15577f4e487b7100000000000000000000000000000000000000000000000000000000600052603260045260246000fd5b6020026020010151858381518110610f56577f4e487b7100000000000000000000000000000000000000000000000000000000600052603260045260246000fd5b6020026020010151610532565b828281518110610f9c577f4e487b7100000000000000000000000000000000000000000000000000000000600052603260045260246000fd5b60200260200101818152505080610fb290614879565b9050610ed0565b508091505092915050565b6000806004546012600a610fd891906145e5565b84610fe39190614703565b610fed9190614561565b73__$43e6f41f20fb862aeed332b486e44cb4c2$__639fdfe44290916040518263ffffffff1660e01b81526004016110259190614382565b60206040518083038186803b15801561103d57600080fd5b505af4158015611051573d6000803e3d6000fd5b505050506040513d601f19601f820116820180604052508101906110759190613736565b905060006110838583612629565b600754611090919061450b565b905060006012600a6110a291906145e5565b8273__$43e6f41f20fb862aeed332b486e44cb4c2$__636ca34af790916040518263ffffffff1660e01b81526004016110db9190614382565b60206040518083038186803b1580156110f357600080fd5b505af4158015611107573d6000803e3d6000fd5b505050506040513d601f19601f8201168201806040525081019061112b9190613736565b6004546111389190614703565b6111429190614561565b9050600060085482611154919061475d565b90508094505050505092915050565b60035481565b600060066000838152602001908152602001600020549050919050565b6000806004546012600a61119a91906145e5565b846111a59190614703565b6111af9190614561565b73__$43e6f41f20fb862aeed332b486e44cb4c2$__639fdfe44290916040518263ffffffff1660e01b81526004016111e79190614382565b60206040518083038186803b1580156111ff57600080fd5b505af4158015611213573d6000803e3d6000fd5b505050506040513d601f19601f820116820180604052508101906112379190613736565b905083851061124557600080fd5b60035484111561125457600080fd5b6000600754905060008690505b85811015611293576112738184612629565b8261127e919061450b565b9150808061128b90614879565b915050611261565b5060006012600a6112a491906145e5565b60075473__$43e6f41f20fb862aeed332b486e44cb4c2$__636ca34af790916040518263ffffffff1660e01b81526004016112df9190614382565b60206040518083038186803b1580156112f757600080fd5b505af415801561130b573d6000803e3d6000fd5b505050506040513d601f19601f8201168201806040525081019061132f9190613736565b60045461133c9190614703565b6113469190614561565b9050600060085482611358919061475d565b9050809450505050509392505050565b6000600960009054906101000a900473ffffffffffffffffffffffffffffffffffffffff1673ffffffffffffffffffffffffffffffffffffffff163373ffffffffffffffffffffffffffffffffffffffff16146113fa576040517f08c379a00000000000000000000000000000000000000000000000000000000081526004016113f1906142c2565b60405180910390fd5b600354851061143e576040517f08c379a000000000000000000000000000000000000000000000000000000000815260040161143590614362565b60405180910390fd5b6000808461145b57600287600354611456919061475d565b61145f565b6000875b915060ff16915060008167ffffffffffffffff8111156114a8577f4e487b7100000000000000000000000000000000000000000000000000000000600052604160045260246000fd5b6040519080825280602002602001820160405280156114d65781602001602082028036833780820191505090505b50905060008267ffffffffffffffff81111561151b577f4e487b7100000000000000000000000000000000000000000000000000000000600052604160045260246000fd5b6040519080825280602002602001820160405280156115495781602001602082028036833780820191505090505b5090506000838961155a9190614561565b905060008190506000600454866115719190614703565b6012600a61157f91906145e5565b8c61158a9190614703565b6115949190614561565b73__$43e6f41f20fb862aeed332b486e44cb4c2$__639fdfe44290916040518263ffffffff1660e01b81526004016115cc9190614382565b60206040518083038186803b1580156115e457600080fd5b505af41580156115f8573d6000803e3d6000fd5b505050506040513d601f19601f8201168201806040525081019061161c9190613736565b9050600081905060008d905060005b8881101561176c5760018a83611641919061450b565b61164b919061475d565b9150611657828461287e565b60076000828254611668919061450b565b9250508190555084600660008481526020019081526020016000206000828254611692919061450b565b92505081905550818882815181106116d3577f4e487b7100000000000000000000000000000000000000000000000000000000600052603260045260246000fd5b60200260200101818152505084878281518110611719577f4e487b7100000000000000000000000000000000000000000000000000000000600052603260045260246000fd5b6020026020010181815250506012600a61173391906145e5565b848461173f9190614703565b6117499190614561565b92508585611757919061450b565b9450808061176490614879565b91505061162b565b5060006012600a61177d91906145e5565b60075473__$43e6f41f20fb862aeed332b486e44cb4c2$__636ca34af790916040518263ffffffff1660e01b81526004016117b89190614382565b60206040518083038186803b1580156117d057600080fd5b505af41580156117e4573d6000803e3d6000fd5b505050506040513d601f19601f820116820180604052508101906118089190613736565b6004546118159190614703565b61181f9190614561565b9050600060085482611831919061475d565b9050816008819055506118558d8a8a6040518060200160405280600081525061291d565b809b505050505050505050505050949350505050565b6000600960009054906101000a900473ffffffffffffffffffffffffffffffffffffffff1673ffffffffffffffffffffffffffffffffffffffff163373ffffffffffffffffffffffffffffffffffffffff16146118fd576040517f08c379a00000000000000000000000000000000000000000000000000000000081526004016118f4906142c2565b60405180910390fd5b60006004546012600a61191091906145e5565b8561191b9190614703565b6119259190614561565b73__$43e6f41f20fb862aeed332b486e44cb4c2$__639fdfe44290916040518263ffffffff1660e01b815260040161195d9190614382565b60206040518083038186803b15801561197557600080fd5b505af4158015611989573d6000803e3d6000fd5b505050506040513d601f19601f820116820180604052508101906119ad9190613736565b9050600086866119bd919061475d565b90508587106119cb57600080fd5b6003548611156119da57600080fd5b60008167ffffffffffffffff811115611a1c577f4e487b7100000000000000000000000000000000000000000000000000000000600052604160045260246000fd5b604051908082528060200260200182016040528015611a4a5781602001602082028036833780820191505090505b50905060008267ffffffffffffffff811115611a8f577f4e487b7100000000000000000000000000000000000000000000000000000000600052604160045260246000fd5b604051908082528060200260200182016040528015611abd5781602001602082028036833780820191505090505b50905060008990505b88811015611bcf57611ad8818661287e565b60076000828254611ae9919061450b565b9250508190555087600660008381526020019081526020016000206000828254611b13919061450b565b9250508190555080838b83611b28919061475d565b81518110611b5f577f4e487b7100000000000000000000000000000000000000000000000000000000600052603260045260246000fd5b60200260200101818152505087828b83611b79919061475d565b81518110611bb0577f4e487b7100000000000000000000000000000000000000000000000000000000600052603260045260246000fd5b6020026020010181815250508080611bc790614879565b915050611ac6565b5060006012600a611be091906145e5565b60075473__$43e6f41f20fb862aeed332b486e44cb4c2$__636ca34af790916040518263ffffffff1660e01b8152600401611c1b9190614382565b60206040518083038186803b158015611c3357600080fd5b505af4158015611c47573d6000803e3d6000fd5b505050506040513d601f19601f82011682018060405250810190611c6b9190613736565b600454611c789190614703565b611c829190614561565b9050600060085482611c94919061475d565b905081600881905550611cb88885856040518060200160405280600081525061291d565b809650505050505050949350505050565b8173ffffffffffffffffffffffffffffffffffffffff16611ce861269e565b73ffffffffffffffffffffffffffffffffffffffff161415611d3f576040517f08c379a0000000000000000000000000000000000000000000000000000000008152600401611d36906142e2565b60405180910390fd5b8060016000611d4c61269e565b73ffffffffffffffffffffffffffffffffffffffff1673ffffffffffffffffffffffffffffffffffffffff16815260200190815260200160002060008473ffffffffffffffffffffffffffffffffffffffff1673ffffffffffffffffffffffffffffffffffffffff16815260200190815260200160002060006101000a81548160ff0219169083151502179055508173ffffffffffffffffffffffffffffffffffffffff16611df961269e565b73ffffffffffffffffffffffffffffffffffffffff167f17307eab39ab6107e8899845ad3d59bd9653f200f220920489ca2b5937696c3183604051611e3e9190614165565b60405180910390a35050565b60085481565b60006007546012600a611e6391906145e5565b6012600a611e7191906145e5565b6005600086815260200190815260200160002054611e8f919061450b565b611e999190614703565b611ea39190614561565b9050919050565b600960009054906101000a900473ffffffffffffffffffffffffffffffffffffffff1681565b6000600160008473ffffffffffffffffffffffffffffffffffffffff1673ffffffffffffffffffffffffffffffffffffffff16815260200190815260200160002060008373ffffffffffffffffffffffffffffffffffffffff1673ffffffffffffffffffffffffffffffffffffffff16815260200190815260200160002060009054906101000a900460ff16905092915050565b6000600960009054906101000a900473ffffffffffffffffffffffffffffffffffffffff1673ffffffffffffffffffffffffffffffffffffffff163373ffffffffffffffffffffffffffffffffffffffff1614611ff6576040517f08c379a0000000000000000000000000000000000000000000000000000000008152600401611fed906142c2565b60405180910390fd5b60006004546012600a61200991906145e5565b856120149190614703565b61201e9190614561565b73__$43e6f41f20fb862aeed332b486e44cb4c2$__639fdfe44290916040518263ffffffff1660e01b81526004016120569190614382565b60206040518083038186803b15801561206e57600080fd5b505af4158015612082573d6000803e3d6000fd5b505050506040513d601f19601f820116820180604052508101906120a69190613736565b905060006120b4868361287e565b905080600760008282546120c8919061450b565b9250508190555060006012600a6120df91906145e5565b60075473__$43e6f41f20fb862aeed332b486e44cb4c2$__636ca34af790916040518263ffffffff1660e01b815260040161211a9190614382565b60206040518083038186803b15801561213257600080fd5b505af4158015612146573d6000803e3d6000fd5b505050506040513d601f19601f8201168201806040525081019061216a9190613736565b6004546121779190614703565b6121819190614561565b9050600060085482612193919061475d565b905086600660008a815260200190815260200160002060008282546121b8919061450b565b92505081905550816008819055506121e186898960405180602001604052806000815250612b87565b809450505050509392505050565b600073ffffffffffffffffffffffffffffffffffffffff168473ffffffffffffffffffffffffffffffffffffffff16141561225f576040517f08c379a000000000000000000000000000000000000000000000000000000000815260040161225690614242565b60405180910390fd5b61226761269e565b73ffffffffffffffffffffffffffffffffffffffff168573ffffffffffffffffffffffffffffffffffffffff1614806122ad57506122ac856122a761269e565b611ed0565b5b6122ec576040517f08c379a00000000000000000000000000000000000000000000000000000000081526004016122e390614222565b60405180910390fd5b60006122f661269e565b905061231681878761230788612d1d565b61231088612d1d565b876126a6565b600080600086815260200190815260200160002060008873ffffffffffffffffffffffffffffffffffffffff1673ffffffffffffffffffffffffffffffffffffffff168152602001908152602001600020549050838110156123ad576040517f08c379a00000000000000000000000000000000000000000000000000000000081526004016123a4906142a2565b60405180910390fd5b83816123b9919061475d565b60008087815260200190815260200160002060008973ffffffffffffffffffffffffffffffffffffffff1673ffffffffffffffffffffffffffffffffffffffff168152602001908152602001600020819055508360008087815260200190815260200160002060008873ffffffffffffffffffffffffffffffffffffffff1673ffffffffffffffffffffffffffffffffffffffff168152602001908152602001600020600082825461246b919061450b565b925050819055508573ffffffffffffffffffffffffffffffffffffffff168773ffffffffffffffffffffffffffffffffffffffff168373ffffffffffffffffffffffffffffffffffffffff167fc3d58168c5ae7397731d063d5bbf3d657854427343f4c083240f7aacaa2d0f6288886040516124e89291906143b8565b60405180910390a46124fe828888888888612de3565b50505050505050565b60056020528060005260406000206000915090505481565b600960009054906101000a900473ffffffffffffffffffffffffffffffffffffffff1673ffffffffffffffffffffffffffffffffffffffff163373ffffffffffffffffffffffffffffffffffffffff16146125af576040517f08c379a00000000000000000000000000000000000000000000000000000000081526004016125a6906142c2565b60405180910390fd5b6125ba838383612fb3565b505050565b60007f01ffc9a7000000000000000000000000000000000000000000000000000000007bffffffffffffffffffffffffffffffffffffffffffffffffffffffff1916827bffffffffffffffffffffffffffffffffffffffffffffffffffffffff1916149050919050565b6000806012600a61263a91906145e5565b6005600086815260200190815260200160002054612658919061450b565b905060006012600a61266a91906145e5565b84836126769190614703565b6126809190614561565b905060008282612690919061475d565b905080935050505092915050565b600033905090565b505050505050565b6126cd8473ffffffffffffffffffffffffffffffffffffffff166131d9565b15612876578373ffffffffffffffffffffffffffffffffffffffff1663bc197c8187878686866040518663ffffffff1660e01b815260040161271395949392919061404a565b602060405180830381600087803b15801561272d57600080fd5b505af192505050801561275e57506040513d601f19601f8201168201806040525081019061275b91906136e4565b60015b6127ed5761276a6149a9565b8061277557506127b2565b806040517f08c379a00000000000000000000000000000000000000000000000000000000081526004016127a99190614180565b60405180910390fd5b6040517f08c379a00000000000000000000000000000000000000000000000000000000081526004016127e4906141a2565b60405180910390fd5b63bc197c8160e01b7bffffffffffffffffffffffffffffffffffffffffffffffffffffffff1916817bffffffffffffffffffffffffffffffffffffffffffffffffffffffff191614612874576040517f08c379a000000000000000000000000000000000000000000000000000000000815260040161286b906141c2565b60405180910390fd5b505b505050505050565b6000806012600a61288f91906145e5565b60056000868152602001908152602001600020546128ad919061450b565b905060006012600a6128bf91906145e5565b84836128cb9190614703565b6128d59190614561565b905081816128e3919061475d565b92506012600a6128f391906145e5565b816128fe919061475d565b6005600087815260200190815260200160002081905550505092915050565b600073ffffffffffffffffffffffffffffffffffffffff168473ffffffffffffffffffffffffffffffffffffffff16141561298d576040517f08c379a000000000000000000000000000000000000000000000000000000000815260040161298490614342565b60405180910390fd5b81518351146129d1576040517f08c379a00000000000000000000000000000000000000000000000000000000081526004016129c890614322565b60405180910390fd5b60006129db61269e565b90506129ec816000878787876126a6565b60005b8451811015612af157838181518110612a31577f4e487b7100000000000000000000000000000000000000000000000000000000600052603260045260246000fd5b6020026020010151600080878481518110612a75577f4e487b7100000000000000000000000000000000000000000000000000000000600052603260045260246000fd5b6020026020010151815260200190815260200160002060008873ffffffffffffffffffffffffffffffffffffffff1673ffffffffffffffffffffffffffffffffffffffff1681526020019081526020016000206000828254612ad7919061450b565b925050819055508080612ae990614879565b9150506129ef565b508473ffffffffffffffffffffffffffffffffffffffff16600073ffffffffffffffffffffffffffffffffffffffff168273ffffffffffffffffffffffffffffffffffffffff167f4a39dc06d4c0dbc64b70af90fd698a233a518aa5d07e595d983b8c0526c8f7fb8787604051612b6992919061412e565b60405180910390a4612b80816000878787876126ae565b5050505050565b600073ffffffffffffffffffffffffffffffffffffffff168473ffffffffffffffffffffffffffffffffffffffff161415612bf7576040517f08c379a0000000000000000000000000000000000000000000000000000000008152600401612bee90614342565b60405180910390fd5b6000612c0161269e565b9050612c2281600087612c1388612d1d565b612c1c88612d1d565b876126a6565b8260008086815260200190815260200160002060008773ffffffffffffffffffffffffffffffffffffffff1673ffffffffffffffffffffffffffffffffffffffff1681526020019081526020016000206000828254612c81919061450b565b925050819055508473ffffffffffffffffffffffffffffffffffffffff16600073ffffffffffffffffffffffffffffffffffffffff168273ffffffffffffffffffffffffffffffffffffffff167fc3d58168c5ae7397731d063d5bbf3d657854427343f4c083240f7aacaa2d0f628787604051612cff9291906143b8565b60405180910390a4612d1681600087878787612de3565b5050505050565b60606000600167ffffffffffffffff811115612d62577f4e487b7100000000000000000000000000000000000000000000000000000000600052604160045260246000fd5b604051908082528060200260200182016040528015612d905781602001602082028036833780820191505090505b5090508281600081518110612dce577f4e487b7100000000000000000000000000000000000000000000000000000000600052603260045260246000fd5b60200260200101818152505080915050919050565b612e028473ffffffffffffffffffffffffffffffffffffffff166131d9565b15612fab578373ffffffffffffffffffffffffffffffffffffffff1663f23a6e6187878686866040518663ffffffff1660e01b8152600401612e489594939291906140b2565b602060405180830381600087803b158015612e6257600080fd5b505af1925050508015612e9357506040513d601f19601f82011682018060405250810190612e9091906136e4565b60015b612f2257612e9f6149a9565b80612eaa5750612ee7565b806040517f08c379a0000000000000000000000000000000000000000000000000000000008152600401612ede9190614180565b60405180910390fd5b6040517f08c379a0000000000000000000000000000000000000000000000000000000008152600401612f19906141a2565b60405180910390fd5b63f23a6e6160e01b7bffffffffffffffffffffffffffffffffffffffffffffffffffffffff1916817bffffffffffffffffffffffffffffffffffffffffffffffffffffffff191614612fa9576040517f08c379a0000000000000000000000000000000000000000000000000000000008152600401612fa0906141c2565b60405180910390fd5b505b505050505050565b600073ffffffffffffffffffffffffffffffffffffffff168373ffffffffffffffffffffffffffffffffffffffff161415613023576040517f08c379a000000000000000000000000000000000000000000000000000000000815260040161301a90614282565b60405180910390fd5b600061302d61269e565b905061305d8185600061303f87612d1d565b61304887612d1d565b604051806020016040528060008152506126a6565b600080600085815260200190815260200160002060008673ffffffffffffffffffffffffffffffffffffffff1673ffffffffffffffffffffffffffffffffffffffff168152602001908152602001600020549050828110156130f4576040517f08c379a00000000000000000000000000000000000000000000000000000000081526004016130eb90614202565b60405180910390fd5b8281613100919061475d565b60008086815260200190815260200160002060008773ffffffffffffffffffffffffffffffffffffffff1673ffffffffffffffffffffffffffffffffffffffff16815260200190815260200160002081905550600073ffffffffffffffffffffffffffffffffffffffff168573ffffffffffffffffffffffffffffffffffffffff168373ffffffffffffffffffffffffffffffffffffffff167fc3d58168c5ae7397731d063d5bbf3d657854427343f4c083240f7aacaa2d0f6287876040516131ca9291906143b8565b60405180910390a45050505050565b600080823b905060008111915050919050565b60006131ff6131fa84614412565b6143e1565b9050808382526020820190508285602086028201111561321e57600080fd5b60005b8581101561324e57816132348882613302565b845260208401935060208301925050600181019050613221565b5050509392505050565b600061326b6132668461443e565b6143e1565b9050808382526020820190508285602086028201111561328a57600080fd5b60005b858110156132ba57816132a088826133d4565b84526020840193506020830192505060018101905061328d565b5050509392505050565b60006132d76132d28461446a565b6143e1565b9050828152602081018484840111156132ef57600080fd5b6132fa848285614805565b509392505050565b60008135905061331181614a5f565b92915050565b600082601f83011261332857600080fd5b81356133388482602086016131ec565b91505092915050565b600082601f83011261335257600080fd5b8135613362848260208601613258565b91505092915050565b60008135905061337a81614a76565b92915050565b60008135905061338f81614a8d565b92915050565b6000815190506133a481614a8d565b92915050565b600082601f8301126133bb57600080fd5b81356133cb8482602086016132c4565b91505092915050565b6000813590506133e381614aa4565b92915050565b6000815190506133f881614aa4565b92915050565b6000806040838503121561341157600080fd5b600061341f85828601613302565b925050602061343085828601613302565b9150509250929050565b600080600080600060a0868803121561345257600080fd5b600061346088828901613302565b955050602061347188828901613302565b945050604086013567ffffffffffffffff81111561348e57600080fd5b61349a88828901613341565b935050606086013567ffffffffffffffff8111156134b757600080fd5b6134c388828901613341565b925050608086013567ffffffffffffffff8111156134e057600080fd5b6134ec888289016133aa565b9150509295509295909350565b600080600080600060a0868803121561351157600080fd5b600061351f88828901613302565b955050602061353088828901613302565b9450506040613541888289016133d4565b9350506060613552888289016133d4565b925050608086013567ffffffffffffffff81111561356f57600080fd5b61357b888289016133aa565b9150509295509295909350565b6000806040838503121561359b57600080fd5b60006135a985828601613302565b92505060206135ba8582860161336b565b9150509250929050565b600080604083850312156135d757600080fd5b60006135e585828601613302565b92505060206135f6858286016133d4565b9150509250929050565b60008060006060848603121561361557600080fd5b600061362386828701613302565b9350506020613634868287016133d4565b9250506040613645868287016133d4565b9150509250925092565b6000806040838503121561366257600080fd5b600083013567ffffffffffffffff81111561367c57600080fd5b61368885828601613317565b925050602083013567ffffffffffffffff8111156136a557600080fd5b6136b185828601613341565b9150509250929050565b6000602082840312156136cd57600080fd5b60006136db84828501613380565b91505092915050565b6000602082840312156136f657600080fd5b600061370484828501613395565b91505092915050565b60006020828403121561371f57600080fd5b600061372d848285016133d4565b91505092915050565b60006020828403121561374857600080fd5b6000613756848285016133e9565b91505092915050565b6000806040838503121561377257600080fd5b6000613780858286016133d4565b9250506020613791858286016133d4565b9150509250929050565b6000806000606084860312156137b057600080fd5b60006137be868287016133d4565b93505060206137cf868287016133d4565b92505060406137e086828701613302565b9150509250925092565b6000806000606084860312156137ff57600080fd5b600061380d868287016133d4565b935050602061381e868287016133d4565b925050604061382f8682870161336b565b9150509250925092565b6000806000806080858703121561384f57600080fd5b600061385d878288016133d4565b945050602061386e878288016133d4565b935050604061387f8782880161336b565b925050606061389087828801613302565b91505092959194509250565b6000806000606084860312156138b157600080fd5b60006138bf868287016133d4565b93505060206138d0868287016133d4565b92505060406138e1868287016133d4565b9150509250925092565b6000806000806080858703121561390157600080fd5b600061390f878288016133d4565b9450506020613920878288016133d4565b9350506040613931878288016133d4565b925050606061394287828801613302565b91505092959194509250565b600061395a8383614002565b60208301905092915050565b61396f81614791565b82525050565b6000613980826144aa565b61398a81856144d8565b93506139958361449a565b8060005b838110156139c65781516139ad888261394e565b97506139b8836144cb565b925050600181019050613999565b5085935050505092915050565b6139dc816147a3565b82525050565b60006139ed826144b5565b6139f781856144e9565b9350613a07818560208601614814565b613a108161497e565b840191505092915050565b6000613a26826144c0565b613a3081856144fa565b9350613a40818560208601614814565b613a498161497e565b840191505092915050565b6000613a616034836144fa565b91507f455243313135353a207472616e7366657220746f206e6f6e204552433131353560008301527f526563656976657220696d706c656d656e7465720000000000000000000000006020830152604082019050919050565b6000613ac76028836144fa565b91507f455243313135353a204552433131353552656365697665722072656a6563746560008301527f6420746f6b656e730000000000000000000000000000000000000000000000006020830152604082019050919050565b6000613b2d602b836144fa565b91507f455243313135353a2062616c616e636520717565727920666f7220746865207a60008301527f65726f20616464726573730000000000000000000000000000000000000000006020830152604082019050919050565b6000613b936024836144fa565b91507f455243313135353a206275726e20616d6f756e7420657863656564732062616c60008301527f616e6365000000000000000000000000000000000000000000000000000000006020830152604082019050919050565b6000613bf96029836144fa565b91507f455243313135353a2063616c6c6572206973206e6f74206f776e6572206e6f7260008301527f20617070726f76656400000000000000000000000000000000000000000000006020830152604082019050919050565b6000613c5f6025836144fa565b91507f455243313135353a207472616e7366657220746f20746865207a65726f20616460008301527f64726573730000000000000000000000000000000000000000000000000000006020830152604082019050919050565b6000613cc56032836144fa565b91507f455243313135353a207472616e736665722063616c6c6572206973206e6f742060008301527f6f776e6572206e6f7220617070726f76656400000000000000000000000000006020830152604082019050919050565b6000613d2b6023836144fa565b91507f455243313135353a206275726e2066726f6d20746865207a65726f206164647260008301527f65737300000000000000000000000000000000000000000000000000000000006020830152604082019050919050565b6000613d91602a836144fa565b91507f455243313135353a20696e73756666696369656e742062616c616e636520666f60008301527f72207472616e73666572000000000000000000000000000000000000000000006020830152604082019050919050565b6000613df76020836144fa565b91507f66756e6374696f6e206f6e6c792063616c6c61626c652076696120526f756e646000830152602082019050919050565b6000613e376029836144fa565b91507f455243313135353a2073657474696e6720617070726f76616c2073746174757360008301527f20666f722073656c6600000000000000000000000000000000000000000000006020830152604082019050919050565b6000613e9d6029836144fa565b91507f455243313135353a206163636f756e747320616e6420696473206c656e67746860008301527f206d69736d6174636800000000000000000000000000000000000000000000006020830152604082019050919050565b6000613f036028836144fa565b91507f455243313135353a2069647320616e6420616d6f756e7473206c656e6774682060008301527f6d69736d617463680000000000000000000000000000000000000000000000006020830152604082019050919050565b6000613f696021836144fa565b91507f455243313135353a206d696e7420746f20746865207a65726f2061646472657360008301527f73000000000000000000000000000000000000000000000000000000000000006020830152604082019050919050565b6000613fcf600e836144fa565b91507f696e76616c6964206275636b65740000000000000000000000000000000000006000830152602082019050919050565b61400b816147fb565b82525050565b61401a816147fb565b82525050565b614029816147fb565b82525050565b60006020820190506140446000830184613966565b92915050565b600060a08201905061405f6000830188613966565b61406c6020830187613966565b818103604083015261407e8186613975565b905081810360608301526140928185613975565b905081810360808301526140a681846139e2565b90509695505050505050565b600060a0820190506140c76000830188613966565b6140d46020830187613966565b6140e16040830186614011565b6140ee6060830185614011565b818103608083015261410081846139e2565b90509695505050505050565b600060208201905081810360008301526141268184613975565b905092915050565b600060408201905081810360008301526141488185613975565b9050818103602083015261415c8184613975565b90509392505050565b600060208201905061417a60008301846139d3565b92915050565b6000602082019050818103600083015261419a8184613a1b565b905092915050565b600060208201905081810360008301526141bb81613a54565b9050919050565b600060208201905081810360008301526141db81613aba565b9050919050565b600060208201905081810360008301526141fb81613b20565b9050919050565b6000602082019050818103600083015261421b81613b86565b9050919050565b6000602082019050818103600083015261423b81613bec565b9050919050565b6000602082019050818103600083015261425b81613c52565b9050919050565b6000602082019050818103600083015261427b81613cb8565b9050919050565b6000602082019050818103600083015261429b81613d1e565b9050919050565b600060208201905081810360008301526142bb81613d84565b9050919050565b600060208201905081810360008301526142db81613dea565b9050919050565b600060208201905081810360008301526142fb81613e2a565b9050919050565b6000602082019050818103600083015261431b81613e90565b9050919050565b6000602082019050818103600083015261433b81613ef6565b9050919050565b6000602082019050818103600083015261435b81613f5c565b9050919050565b6000602082019050818103600083015261437b81613fc2565b9050919050565b60006020820190506143976000830184614020565b92915050565b60006020820190506143b26000830184614011565b92915050565b60006040820190506143cd6000830185614011565b6143da6020830184614011565b9392505050565b6000604051905081810181811067ffffffffffffffff821117156144085761440761494f565b5b8060405250919050565b600067ffffffffffffffff82111561442d5761442c61494f565b5b602082029050602081019050919050565b600067ffffffffffffffff8211156144595761445861494f565b5b602082029050602081019050919050565b600067ffffffffffffffff8211156144855761448461494f565b5b601f19601f8301169050602081019050919050565b6000819050602082019050919050565b600081519050919050565b600081519050919050565b600081519050919050565b6000602082019050919050565b600082825260208201905092915050565b600082825260208201905092915050565b600082825260208201905092915050565b6000614516826147fb565b9150614521836147fb565b9250827fffffffffffffffffffffffffffffffffffffffffffffffffffffffffffffffff03821115614556576145556148c2565b5b828201905092915050565b600061456c826147fb565b9150614577836147fb565b925082614587576145866148f1565b5b828204905092915050565b6000808291508390505b60018511156145dc578086048111156145b8576145b76148c2565b5b60018516156145c75780820291505b80810290506145d58561498f565b945061459c565b94509492505050565b60006145f0826147fb565b91506145fb836147fb565b92506146287fffffffffffffffffffffffffffffffffffffffffffffffffffffffffffffffff8484614630565b905092915050565b60008261464057600190506146fc565b8161464e57600090506146fc565b8160018114614664576002811461466e5761469d565b60019150506146fc565b60ff8411156146805761467f6148c2565b5b8360020a915084821115614697576146966148c2565b5b506146fc565b5060208310610133831016604e8410600b84101617156146d25782820a9050838111156146cd576146cc6148c2565b5b6146fc565b6146df8484846001614592565b925090508184048111156146f6576146f56148c2565b5b81810290505b9392505050565b600061470e826147fb565b9150614719836147fb565b9250817fffffffffffffffffffffffffffffffffffffffffffffffffffffffffffffffff0483118215151615614752576147516148c2565b5b828202905092915050565b6000614768826147fb565b9150614773836147fb565b925082821015614786576147856148c2565b5b828203905092915050565b600061479c826147db565b9050919050565b60008115159050919050565b60007fffffffff0000000000000000000000000000000000000000000000000000000082169050919050565b600073ffffffffffffffffffffffffffffffffffffffff82169050919050565b6000819050919050565b82818337600083830152505050565b60005b83811015614832578082015181840152602081019050614817565b83811115614841576000848401525b50505050565b6000600282049050600182168061485f57607f821691505b6020821081141561487357614872614920565b5b50919050565b6000614884826147fb565b91507fffffffffffffffffffffffffffffffffffffffffffffffffffffffffffffffff8214156148b7576148b66148c2565b5b600182019050919050565b7f4e487b7100000000000000000000000000000000000000000000000000000000600052601160045260246000fd5b7f4e487b7100000000000000000000000000000000000000000000000000000000600052601260045260246000fd5b7f4e487b7100000000000000000000000000000000000000000000000000000000600052602260045260246000fd5b7f4e487b7100000000000000000000000000000000000000000000000000000000600052604160045260246000fd5b6000601f19601f8301169050919050565b60008160011c9050919050565b60008160e01c9050919050565b600060443d10156149b957614a5c565b60046000803e6149ca60005161499c565b6308c379a081146149db5750614a5c565b60405160043d036004823e80513d602482011167ffffffffffffffff82111715614a0757505050614a5c565b808201805167ffffffffffffffff811115614a26575050505050614a5c565b8060208301013d8501811115614a4157505050505050614a5c565b614a4a8261497e565b60208401016040528296505050505050505b90565b614a6881614791565b8114614a7357600080fd5b50565b614a7f816147a3565b8114614a8a57600080fd5b50565b614a96816147af565b8114614aa157600080fd5b50565b614aad816147fb565b8114614ab857600080fd5b5056fea264697066735822122070ca9557375f914caa22003cac90fd9845d323239ab44a21963369aea216c39164736f6c63430008000033",
  "linkReferences": {
    "hardhat/contracts/Libraries/Math.sol": {
      "Math": [
        {
          "length": 20,
          "start": 339
        },
        {
          "length": 20,
          "start": 4272
        },
        {
          "length": 20,
          "start": 4562
        },
        {
          "length": 20,
          "start": 6283
        },
        {
          "length": 20,
          "start": 6465
        },
        {
          "length": 20,
          "start": 6733
        },
        {
          "length": 20,
          "start": 6981
        },
        {
          "length": 20,
          "start": 7730
        },
        {
          "length": 20,
          "start": 8222
        },
        {
          "length": 20,
          "start": 8643
        },
        {
          "length": 20,
          "start": 9345
        },
        {
          "length": 20,
          "start": 10428
        },
        {
          "length": 20,
          "start": 10624
        }
      ]
    }
  },
  "deployedLinkReferences": {
    "hardhat/contracts/Libraries/Math.sol": {
      "Math": [
        {
          "length": 20,
          "start": 2068
        },
        {
          "length": 20,
          "start": 2358
        },
        {
          "length": 20,
          "start": 4079
        },
        {
          "length": 20,
          "start": 4261
        },
        {
          "length": 20,
          "start": 4529
        },
        {
          "length": 20,
          "start": 4777
        },
        {
          "length": 20,
          "start": 5526
        },
        {
          "length": 20,
          "start": 6018
        },
        {
          "length": 20,
          "start": 6439
        },
        {
          "length": 20,
          "start": 7141
        },
        {
          "length": 20,
          "start": 8224
        },
        {
          "length": 20,
          "start": 8420
        }
      ]
    }
  }
}