{
  "_format": "hh-sol-artifact-1",
  "contractName": "Aggregator",
  "sourceName": "hardhat/contracts/Mocks/Aggregator.sol",
  "abi": [
    {
      "inputs": [
        {
          "internalType": "int256",
          "name": "_initialAnswer",
          "type": "int256"
        }
      ],
      "stateMutability": "nonpayable",
      "type": "constructor"
    },
    {
      "anonymous": false,
      "inputs": [
        {
          "indexed": true,
          "internalType": "int256",
          "name": "current",
          "type": "int256"
        },
        {
          "indexed": true,
          "internalType": "uint256",
          "name": "roundId",
          "type": "uint256"
        },
        {
          "indexed": false,
          "internalType": "uint256",
          "name": "timestamp",
          "type": "uint256"
        }
      ],
      "name": "AnswerUpdated",
      "type": "event"
    },
    {
      "inputs": [],
      "name": "latestAnswer",
      "outputs": [
        {
          "internalType": "int256",
          "name": "",
          "type": "int256"
        }
      ],
      "stateMutability": "view",
      "type": "function"
    }
  ],
  "bytecode": "0x608060405234801561001057600080fd5b506040516101d03803806101d08339818101604052810190610032919061008e565b806000819055506000817f0559884fd3a460db3073b7fc896cc77986f16e378210ded43186175bf646fc5f4260405161006b91906100c6565b60405180910390a35061010c565b600081519050610088816100f5565b92915050565b6000602082840312156100a057600080fd5b60006100ae84828501610079565b91505092915050565b6100c0816100eb565b82525050565b60006020820190506100db60008301846100b7565b92915050565b6000819050919050565b6000819050919050565b6100fe816100e1565b811461010957600080fd5b50565b60b68061011a6000396000f3fe6080604052348015600f57600080fd5b506004361060285760003560e01c806350d25bcd14602d575b600080fd5b60336047565b604051603e9190605d565b60405180910390f35b60008054905090565b6057816076565b82525050565b6000602082019050607060008301846050565b92915050565b600081905091905056fea2646970667358221220d1fadb030c4186989906ee3d355edb3bdc44441632d8710c778841677769583b64736f6c63430008000033",
  "linkReferences": {},
  "deployedLinkReferences": {}
}