{
  "_format": "hh-sol-artifact-1",
  "contractName": "BlocksBlocks",
  "sourceName": "hardhat/contracts/BlocksBlocks.sol",
  "abi": [
    {
      "inputs": [
        {
          "internalType": "uint256",
          "name": "N",
          "type": "uint256"
        },
        {
          "internalType": "uint256",
          "name": "b",
          "type": "uint256"
        }
      ],
      "stateMutability": "nonpayable",
      "type": "constructor"
    },
    {
      "anonymous": false,
      "inputs": [
        {
          "indexed": true,
          "internalType": "address",
          "name": "account",
          "type": "address"
        },
        {
          "indexed": true,
          "internalType": "address",
          "name": "operator",
          "type": "address"
        },
        {
          "indexed": false,
          "internalType": "bool",
          "name": "approved",
          "type": "bool"
        }
      ],
      "name": "ApprovalForAll",
      "type": "event"
    },
    {
      "anonymous": false,
      "inputs": [
        {
          "indexed": true,
          "internalType": "address",
          "name": "operator",
          "type": "address"
        },
        {
          "indexed": true,
          "internalType": "address",
          "name": "from",
          "type": "address"
        },
        {
          "indexed": true,
          "internalType": "address",
          "name": "to",
          "type": "address"
        },
        {
          "indexed": false,
          "internalType": "uint256[]",
          "name": "ids",
          "type": "uint256[]"
        },
        {
          "indexed": false,
          "internalType": "uint256[]",
          "name": "values",
          "type": "uint256[]"
        }
      ],
      "name": "TransferBatch",
      "type": "event"
    },
    {
      "anonymous": false,
      "inputs": [
        {
          "indexed": true,
          "internalType": "address",
          "name": "operator",
          "type": "address"
        },
        {
          "indexed": true,
          "internalType": "address",
          "name": "from",
          "type": "address"
        },
        {
          "indexed": true,
          "internalType": "address",
          "name": "to",
          "type": "address"
        },
        {
          "indexed": false,
          "internalType": "uint256",
          "name": "id",
          "type": "uint256"
        },
        {
          "indexed": false,
          "internalType": "uint256",
          "name": "value",
          "type": "uint256"
        }
      ],
      "name": "TransferSingle",
      "type": "event"
    },
    {
      "anonymous": false,
      "inputs": [
        {
          "indexed": false,
          "internalType": "string",
          "name": "value",
          "type": "string"
        },
        {
          "indexed": true,
          "internalType": "uint256",
          "name": "id",
          "type": "uint256"
        }
      ],
      "name": "URI",
      "type": "event"
    },
    {
      "inputs": [],
      "name": "_N",
      "outputs": [
        {
          "internalType": "uint256",
          "name": "",
          "type": "uint256"
        }
      ],
      "stateMutability": "view",
      "type": "function"
    },
    {
      "inputs": [],
      "name": "_b",
      "outputs": [
        {
          "internalType": "uint256",
          "name": "",
          "type": "uint256"
        }
      ],
      "stateMutability": "view",
      "type": "function"
    },
    {
      "inputs": [],
      "name": "_earnings",
      "outputs": [
        {
          "internalType": "uint256",
          "name": "",
          "type": "uint256"
        }
      ],
      "stateMutability": "view",
      "type": "function"
    },
    {
      "inputs": [],
      "name": "_left_weight",
      "outputs": [
        {
          "internalType": "uint256",
          "name": "",
          "type": "uint256"
        }
      ],
      "stateMutability": "view",
      "type": "function"
    },
    {
      "inputs": [],
      "name": "_m",
      "outputs": [
        {
          "internalType": "uint256",
          "name": "",
          "type": "uint256"
        }
      ],
      "stateMutability": "view",
      "type": "function"
    },
    {
      "inputs": [
        {
          "internalType": "uint256",
          "name": "",
          "type": "uint256"
        }
      ],
      "name": "_quantities",
      "outputs": [
        {
          "internalType": "uint256",
          "name": "",
          "type": "uint256"
        }
      ],
      "stateMutability": "view",
      "type": "function"
    },
    {
      "inputs": [],
      "name": "_total_sold",
      "outputs": [
        {
          "internalType": "uint256",
          "name": "",
          "type": "uint256"
        }
      ],
      "stateMutability": "view",
      "type": "function"
    },
    {
      "inputs": [],
      "name": "_total_weight",
      "outputs": [
        {
          "internalType": "uint256",
          "name": "",
          "type": "uint256"
        }
      ],
      "stateMutability": "view",
      "type": "function"
    },
    {
      "inputs": [],
      "name": "_value",
      "outputs": [
        {
          "internalType": "uint256",
          "name": "",
          "type": "uint256"
        }
      ],
      "stateMutability": "view",
      "type": "function"
    },
    {
      "inputs": [
        {
          "internalType": "uint256",
          "name": "",
          "type": "uint256"
        }
      ],
      "name": "_weights",
      "outputs": [
        {
          "internalType": "uint256",
          "name": "",
          "type": "uint256"
        }
      ],
      "stateMutability": "view",
      "type": "function"
    },
    {
      "inputs": [
        {
          "internalType": "address",
          "name": "account",
          "type": "address"
        },
        {
          "internalType": "uint256",
          "name": "id",
          "type": "uint256"
        }
      ],
      "name": "balanceOf",
      "outputs": [
        {
          "internalType": "uint256",
          "name": "",
          "type": "uint256"
        }
      ],
      "stateMutability": "view",
      "type": "function"
    },
    {
      "inputs": [
        {
          "internalType": "address[]",
          "name": "accounts",
          "type": "address[]"
        },
        {
          "internalType": "uint256[]",
          "name": "ids",
          "type": "uint256[]"
        }
      ],
      "name": "balanceOfBatch",
      "outputs": [
        {
          "internalType": "uint256[]",
          "name": "",
          "type": "uint256[]"
        }
      ],
      "stateMutability": "view",
      "type": "function"
    },
    {
      "inputs": [
        {
          "internalType": "uint256",
          "name": "bucket",
          "type": "uint256"
        },
        {
          "internalType": "uint256",
          "name": "amount",
          "type": "uint256"
        }
      ],
      "name": "fakePurchase",
      "outputs": [],
      "stateMutability": "nonpayable",
      "type": "function"
    },
    {
      "inputs": [
        {
          "internalType": "uint256",
          "name": "bucket",
          "type": "uint256"
        }
      ],
      "name": "getBucketPrice",
      "outputs": [
        {
          "internalType": "uint256",
          "name": "",
          "type": "uint256"
        }
      ],
      "stateMutability": "view",
      "type": "function"
    },
    {
      "inputs": [
        {
          "internalType": "uint256",
          "name": "bucket",
          "type": "uint256"
        },
        {
          "internalType": "uint256",
          "name": "price",
          "type": "uint256"
        }
      ],
      "name": "getRequiredAmount",
      "outputs": [
        {
          "internalType": "uint256",
          "name": "",
          "type": "uint256"
        }
      ],
      "stateMutability": "view",
      "type": "function"
    },
    {
      "inputs": [
        {
          "internalType": "address",
          "name": "account",
          "type": "address"
        },
        {
          "internalType": "address",
          "name": "operator",
          "type": "address"
        }
      ],
      "name": "isApprovedForAll",
      "outputs": [
        {
          "internalType": "bool",
          "name": "",
          "type": "bool"
        }
      ],
      "stateMutability": "view",
      "type": "function"
    },
    {
      "inputs": [
        {
          "internalType": "uint256",
          "name": "bucket",
          "type": "uint256"
        },
        {
          "internalType": "uint256",
          "name": "amount",
          "type": "uint256"
        }
      ],
      "name": "purchase",
      "outputs": [],
      "stateMutability": "nonpayable",
      "type": "function"
    },
    {
      "inputs": [
        {
          "internalType": "uint256[]",
          "name": "buckets",
          "type": "uint256[]"
        },
        {
          "internalType": "uint256[]",
          "name": "amounts",
          "type": "uint256[]"
        }
      ],
      "name": "purchaseBatch",
      "outputs": [],
      "stateMutability": "nonpayable",
      "type": "function"
    },
    {
      "inputs": [
        {
          "internalType": "address",
          "name": "from",
          "type": "address"
        },
        {
          "internalType": "address",
          "name": "to",
          "type": "address"
        },
        {
          "internalType": "uint256[]",
          "name": "ids",
          "type": "uint256[]"
        },
        {
          "internalType": "uint256[]",
          "name": "amounts",
          "type": "uint256[]"
        },
        {
          "internalType": "bytes",
          "name": "data",
          "type": "bytes"
        }
      ],
      "name": "safeBatchTransferFrom",
      "outputs": [],
      "stateMutability": "nonpayable",
      "type": "function"
    },
    {
      "inputs": [
        {
          "internalType": "address",
          "name": "from",
          "type": "address"
        },
        {
          "internalType": "address",
          "name": "to",
          "type": "address"
        },
        {
          "internalType": "uint256",
          "name": "id",
          "type": "uint256"
        },
        {
          "internalType": "uint256",
          "name": "amount",
          "type": "uint256"
        },
        {
          "internalType": "bytes",
          "name": "data",
          "type": "bytes"
        }
      ],
      "name": "safeTransferFrom",
      "outputs": [],
      "stateMutability": "nonpayable",
      "type": "function"
    },
    {
      "inputs": [
        {
          "internalType": "address",
          "name": "operator",
          "type": "address"
        },
        {
          "internalType": "bool",
          "name": "approved",
          "type": "bool"
        }
      ],
      "name": "setApprovalForAll",
      "outputs": [],
      "stateMutability": "nonpayable",
      "type": "function"
    },
    {
      "inputs": [
        {
          "internalType": "bytes4",
          "name": "interfaceId",
          "type": "bytes4"
        }
      ],
      "name": "supportsInterface",
      "outputs": [
        {
          "internalType": "bool",
          "name": "",
          "type": "bool"
        }
      ],
      "stateMutability": "view",
      "type": "function"
    },
    {
      "inputs": [
        {
          "internalType": "uint256",
          "name": "",
          "type": "uint256"
        }
      ],
      "name": "uri",
      "outputs": [
        {
          "internalType": "string",
          "name": "",
          "type": "string"
        }
      ],
      "stateMutability": "view",
      "type": "function"
    }
  ],
  "bytecode": "0x60806040526014600c553480156200001657600080fd5b5060405162004d2f38038062004d2f83398181016040528101906200003c919062000509565b6040518060400160405280600481526020017f6e6f6e650000000000000000000000000000000000000000000000000000000081525062000083816200017860201b60201c565b5060008211620000ca576040517f08c379a0000000000000000000000000000000000000000000000000000000008152600401620000c190620006a0565b60405180910390fd5b816005819055506000811162000117576040517f08c379a00000000000000000000000000000000000000000000000000000000081526004016200010e906200065c565b60405180910390fd5b806008819055506012600a6200012e9190620007c3565b6005546200013d919062000900565b6006819055506200015b6006546200019460201b620019071760201c565b6008546200016a919062000900565b600981905550505062000a55565b80600290805190602001906200019092919062000442565b5050565b6000806012600a620001a79190620007c3565b83620001b4919062000730565b905060008111620001fc576040517f08c379a0000000000000000000000000000000000000000000000000000000008152600401620001f3906200067e565b60405180910390fd5b600070010000000000000000000000000000000082106200023057608082901c91506080816200022d9190620006d3565b90505b6801000000000000000082106200025a57604082901c9150604081620002579190620006d3565b90505b64010000000082106200028057602082901c91506020816200027d9190620006d3565b90505b620100008210620002a457601082901c9150601081620002a19190620006d3565b90505b6101008210620002c757600882901c9150600881620002c49190620006d3565b90505b60108210620002e957600482901c9150600481620002e69190620006d3565b90505b600482106200030b57600282901c9150600281620003089190620006d3565b90505b600282106200032657600181620003239190620006d3565b90505b6012600a620003369190620007c3565b8162000343919062000900565b90506012600a620003559190620007c3565b8162000362919062000730565b6002620003709190620007c3565b846200037d919062000730565b91506000806012600a620003929190620007c3565b90505b600081111562000429576012600a620003af9190620007c3565b6002620003bd919062000900565b8410620003e6578082620003d29190620006d3565b9150600284620003e3919062000730565b93505b6012600a620003f69190620007c3565b848562000404919062000900565b62000410919062000730565b935060028162000421919062000730565b905062000395565b508181620004389190620006d3565b9350505050919050565b82805462000450906200096b565b90600052602060002090601f016020900481019282620004745760008555620004c0565b82601f106200048f57805160ff1916838001178555620004c0565b82800160010185558215620004c0579182015b82811115620004bf578251825591602001919060010190620004a2565b5b509050620004cf9190620004d3565b5090565b5b80821115620004ee576000816000905550600101620004d4565b5090565b600081519050620005038162000a3b565b92915050565b600080604083850312156200051d57600080fd5b60006200052d85828601620004f2565b92505060206200054085828601620004f2565b9150509250929050565b600062000559602183620006c2565b91507f636f6e7374727563746f723a20622073686f756c6420626520706f736974697660008301527f65000000000000000000000000000000000000000000000000000000000000006020830152604082019050919050565b6000620005c1601c83620006c2565b91507f6c6f6761726974686d3a206f706572616e6420746f6f20736d616c6c000000006000830152602082019050919050565b600062000603602183620006c2565b91507f636f6e7374727563746f723a204e2073686f756c6420626520706f736974697660008301527f65000000000000000000000000000000000000000000000000000000000000006020830152604082019050919050565b6000602082019050818103600083015262000677816200054a565b9050919050565b600060208201905081810360008301526200069981620005b2565b9050919050565b60006020820190508181036000830152620006bb81620005f4565b9050919050565b600082825260208201905092915050565b6000620006e08262000961565b9150620006ed8362000961565b9250827fffffffffffffffffffffffffffffffffffffffffffffffffffffffffffffffff03821115620007255762000724620009a1565b5b828201905092915050565b60006200073d8262000961565b91506200074a8362000961565b9250826200075d576200075c620009d0565b5b828204905092915050565b6000808291508390505b6001851115620007ba57808604811115620007925762000791620009a1565b5b6001851615620007a25780820291505b8081029050620007b28562000a2e565b945062000772565b94509492505050565b6000620007d08262000961565b9150620007dd8362000961565b92506200080c7fffffffffffffffffffffffffffffffffffffffffffffffffffffffffffffffff848462000814565b905092915050565b600082620008265760019050620008f9565b81620008365760009050620008f9565b81600181146200084f57600281146200085a5762000890565b6001915050620008f9565b60ff8411156200086f576200086e620009a1565b5b8360020a915084821115620008895762000888620009a1565b5b50620008f9565b5060208310610133831016604e8410600b8410161715620008ca5782820a905083811115620008c457620008c3620009a1565b5b620008f9565b620008d9848484600162000768565b92509050818404811115620008f357620008f2620009a1565b5b81810290505b9392505050565b60006200090d8262000961565b91506200091a8362000961565b9250817fffffffffffffffffffffffffffffffffffffffffffffffffffffffffffffffff0483118215151615620009565762000955620009a1565b5b828202905092915050565b6000819050919050565b600060028204905060018216806200098457607f821691505b602082108114156200099b576200099a620009ff565b5b50919050565b7f4e487b7100000000000000000000000000000000000000000000000000000000600052601160045260246000fd5b7f4e487b7100000000000000000000000000000000000000000000000000000000600052601260045260246000fd5b7f4e487b7100000000000000000000000000000000000000000000000000000000600052602260045260246000fd5b60008160011c9050919050565b62000a468162000961565b811462000a5257600080fd5b50565b6142ca8062000a656000396000f3fe608060405234801561001057600080fd5b506004361061014c5760003560e01c80636a6e48a4116100c3578063c901de1a1161007c578063c901de1a146103b5578063de6f56c6146103d1578063e985e9c514610401578063f242432a14610431578063f3f03a611461044d578063f49ed0611461047d5761014c565b80636a6e48a4146102f357806370876c98146103235780639776ad8d1461033f578063a22cb4651461035d578063b895c74a14610379578063c6e3a9b3146103975761014c565b806325f5eb811161011557806325f5eb811461021d5780632eb2c2d61461023b57806346c82b2c146102575780634e1273f4146102875780635655bb20146102b757806369649820146102d55761014c565b8062fdd58e1461015157806301ffc9a7146101815780630e89341c146101b15780631ade9391146101e157806325374996146101ff575b600080fd5b61016b60048036038101906101669190612bee565b610499565b604051610178919061373d565b60405180910390f35b61019b60048036038101906101969190612d02565b610562565b6040516101a89190613540565b60405180910390f35b6101cb60048036038101906101c69190612d54565b610644565b6040516101d8919061355b565b60405180910390f35b6101e96106d8565b6040516101f6919061373d565b60405180910390f35b6102076106de565b604051610214919061373d565b60405180910390f35b6102256106e4565b604051610232919061373d565b60405180910390f35b61025560048036038101906102509190612a64565b6106ea565b005b610271600480360381019061026c9190612d54565b610ae0565b60405161027e919061373d565b60405180910390f35b6102a1600480360381019061029c9190612c2a565b610af8565b6040516102ae91906134e7565b60405180910390f35b6102bf610ca9565b6040516102cc919061373d565b60405180910390f35b6102dd610caf565b6040516102ea919061373d565b60405180910390f35b61030d60048036038101906103089190612d7d565b610cb5565b60405161031a919061373d565b60405180910390f35b61033d60048036038101906103389190612d7d565b610e22565b005b610347610fdf565b604051610354919061373d565b60405180910390f35b61037760048036038101906103729190612bb2565b610fe5565b005b610381611166565b60405161038e919061373d565b60405180910390f35b61039f61116c565b6040516103ac919061373d565b60405180910390f35b6103cf60048036038101906103ca9190612c96565b611172565b005b6103eb60048036038101906103e69190612d54565b61145c565b6040516103f8919061373d565b60405180910390f35b61041b60048036038101906104169190612a28565b611524565b6040516104289190613540565b60405180910390f35b61044b60048036038101906104469190612b23565b6115b8565b005b61046760048036038101906104629190612d54565b6118d0565b604051610474919061373d565b60405180910390f35b61049760048036038101906104929190612d7d565b6118e8565b005b60008073ffffffffffffffffffffffffffffffffffffffff168373ffffffffffffffffffffffffffffffffffffffff16141561050a576040517f08c379a0000000000000000000000000000000000000000000000000000000008152600401610501906135bd565b60405180910390fd5b60008083815260200190815260200160002060008473ffffffffffffffffffffffffffffffffffffffff1673ffffffffffffffffffffffffffffffffffffffff16815260200190815260200160002054905092915050565b60007fd9b67a26000000000000000000000000000000000000000000000000000000007bffffffffffffffffffffffffffffffffffffffffffffffffffffffff1916827bffffffffffffffffffffffffffffffffffffffffffffffffffffffff1916148061062d57507f0e89341c000000000000000000000000000000000000000000000000000000007bffffffffffffffffffffffffffffffffffffffffffffffffffffffff1916827bffffffffffffffffffffffffffffffffffffffffffffffffffffffff1916145b8061063d575061063c82611b73565b5b9050919050565b60606002805461065390613be7565b80601f016020809104026020016040519081016040528092919081815260200182805461067f90613be7565b80156106cc5780601f106106a1576101008083540402835291602001916106cc565b820191906000526020600020905b8154815290600101906020018083116106af57829003601f168201915b50505050509050919050565b600a5481565b60085481565b60065481565b815183511461072e576040517f08c379a0000000000000000000000000000000000000000000000000000000008152600401610725906136dd565b60405180910390fd5b600073ffffffffffffffffffffffffffffffffffffffff168473ffffffffffffffffffffffffffffffffffffffff16141561079e576040517f08c379a0000000000000000000000000000000000000000000000000000000008152600401610795906135fd565b60405180910390fd5b6107a6611bdd565b73ffffffffffffffffffffffffffffffffffffffff168573ffffffffffffffffffffffffffffffffffffffff1614806107ec57506107eb856107e6611bdd565b611524565b5b61082b576040517f08c379a00000000000000000000000000000000000000000000000000000000081526004016108229061361d565b60405180910390fd5b6000610835611bdd565b9050610845818787878787611be5565b60005b8451811015610a4b57600085828151811061088c577f4e487b7100000000000000000000000000000000000000000000000000000000600052603260045260246000fd5b6020026020010151905060008583815181106108d1577f4e487b7100000000000000000000000000000000000000000000000000000000600052603260045260246000fd5b60200260200101519050600080600084815260200190815260200160002060008b73ffffffffffffffffffffffffffffffffffffffff1673ffffffffffffffffffffffffffffffffffffffff16815260200190815260200160002054905081811015610972576040517f08c379a00000000000000000000000000000000000000000000000000000000081526004016109699061365d565b60405180910390fd5b818161097e9190613afd565b60008085815260200190815260200160002060008c73ffffffffffffffffffffffffffffffffffffffff1673ffffffffffffffffffffffffffffffffffffffff168152602001908152602001600020819055508160008085815260200190815260200160002060008b73ffffffffffffffffffffffffffffffffffffffff1673ffffffffffffffffffffffffffffffffffffffff1681526020019081526020016000206000828254610a3091906138ab565b9250508190555050505080610a4490613c19565b9050610848565b508473ffffffffffffffffffffffffffffffffffffffff168673ffffffffffffffffffffffffffffffffffffffff168273ffffffffffffffffffffffffffffffffffffffff167f4a39dc06d4c0dbc64b70af90fd698a233a518aa5d07e595d983b8c0526c8f7fb8787604051610ac2929190613509565b60405180910390a4610ad8818787878787611bed565b505050505050565b60046020528060005260406000206000915090505481565b60608151835114610b3e576040517f08c379a0000000000000000000000000000000000000000000000000000000008152600401610b35906136bd565b60405180910390fd5b6000835167ffffffffffffffff811115610b81577f4e487b7100000000000000000000000000000000000000000000000000000000600052604160045260246000fd5b604051908082528060200260200182016040528015610baf5781602001602082028036833780820191505090505b50905060005b8451811015610c9e57610c48858281518110610bfa577f4e487b7100000000000000000000000000000000000000000000000000000000600052603260045260246000fd5b6020026020010151858381518110610c3b577f4e487b7100000000000000000000000000000000000000000000000000000000600052603260045260246000fd5b6020026020010151610499565b828281518110610c81577f4e487b7100000000000000000000000000000000000000000000000000000000600052603260045260246000fd5b60200260200101818152505080610c9790613c19565b9050610bb5565b508091505092915050565b60055481565b600b5481565b60006012600a610cc59190613985565b8210610d06576040517f08c379a0000000000000000000000000000000000000000000000000000000008152600401610cfd9061363d565b60405180910390fd5b610d0f8361145c565b8211610d50576040517f08c379a0000000000000000000000000000000000000000000000000000000008152600401610d479061367d565b60405180910390fd5b610e0d826012600a610d629190613985565b610d6c9190613afd565b6012600a610d7a9190613985565b6003600087815260200190815260200160002054610d9891906138ab565b610da29190613aa3565b6012600a610db09190613985565b846012600a610dbf9190613985565b6003600089815260200190815260200160002054600654610de09190613afd565b610dea9190613afd565b610df49190613aa3565b610dfe9190613aa3565b610e089190613901565b611907565b600854610e1a9190613aa3565b905092915050565b600060148311610e6e57610e676008546012600a610e409190613985565b600b5485610e4e91906138ab565b610e589190613aa3565b610e629190613901565b611dbd565b9050610e9f565b610e9c6008546012600a610e829190613985565b84610e8d9190613aa3565b610e979190613901565b611dbd565b90505b60006012600a610eaf9190613985565b6003600086815260200190815260200160002054610ecd91906138ab565b905060006012600a610edf9190613985565b8383610eeb9190613aa3565b610ef59190613901565b905060008183600654610f089190613afd565b610f1291906138ab565b90506000610f1f82611907565b600854610f2c9190613aa3565b9050600060095482610f3e9190613afd565b9050826006819055506012600a610f559190613985565b84610f609190613afd565b600360008a81526020019081526020016000208190555086600460008a81526020019081526020016000206000828254610f9a91906138ab565b9250508190555080600a6000828254610fb391906138ab565b92505081905550610fd533898960405180602001604052806000815250611e94565b5050505050505050565b600c5481565b8173ffffffffffffffffffffffffffffffffffffffff16611004611bdd565b73ffffffffffffffffffffffffffffffffffffffff16141561105b576040517f08c379a00000000000000000000000000000000000000000000000000000000081526004016110529061369d565b60405180910390fd5b8060016000611068611bdd565b73ffffffffffffffffffffffffffffffffffffffff1673ffffffffffffffffffffffffffffffffffffffff16815260200190815260200160002060008473ffffffffffffffffffffffffffffffffffffffff1673ffffffffffffffffffffffffffffffffffffffff16815260200190815260200160002060006101000a81548160ff0219169083151502179055508173ffffffffffffffffffffffffffffffffffffffff16611115611bdd565b73ffffffffffffffffffffffffffffffffffffffff167f17307eab39ab6107e8899845ad3d59bd9653f200f220920489ca2b5937696c318360405161115a9190613540565b60405180910390a35050565b60095481565b60075481565b805182511461118057600080fd5b6000600654905060005b83518110156113e65760006112036008546012600a6111a99190613985565b8685815181106111e2577f4e487b7100000000000000000000000000000000000000000000000000000000600052603260045260246000fd5b60200260200101516111f49190613aa3565b6111fe9190613901565b61202a565b905060006012600a6112159190613985565b60036000888681518110611252577f4e487b7100000000000000000000000000000000000000000000000000000000600052603260045260246000fd5b602002602001015181526020019081526020016000205461127391906138ab565b905060006012600a6112859190613985565b83836112919190613aa3565b61129b9190613901565b90508082866112aa9190613afd565b6112b491906138ab565b94506012600a6112c49190613985565b816112cf9190613afd565b6003600089878151811061130c577f4e487b7100000000000000000000000000000000000000000000000000000000600052603260045260246000fd5b602002602001015181526020019081526020016000208190555085848151811061135f577f4e487b7100000000000000000000000000000000000000000000000000000000600052603260045260246000fd5b6020026020010151600460008987815181106113a4577f4e487b7100000000000000000000000000000000000000000000000000000000600052603260045260246000fd5b6020026020010151815260200190815260200160002060008282546113c991906138ab565b9250508190555050505080806113de90613c19565b91505061118a565b5060006113f282611907565b6008546113ff9190613aa3565b90506000600954826114119190613afd565b90508260068190555080600a600082825461142c91906138ab565b9250508190555081600981905550611455338686604051806020016040528060008152506121a8565b5050505050565b6000601482116114cb576006546012600a6114779190613985565b600b546012600a6114889190613985565b60036000878152602001908152602001600020546114a691906138ab565b6114b091906138ab565b6114ba9190613aa3565b6114c49190613901565b905061151f565b6006546012600a6114dc9190613985565b6012600a6114ea9190613985565b600360008681526020019081526020016000205461150891906138ab565b6115129190613aa3565b61151c9190613901565b90505b919050565b6000600160008473ffffffffffffffffffffffffffffffffffffffff1673ffffffffffffffffffffffffffffffffffffffff16815260200190815260200160002060008373ffffffffffffffffffffffffffffffffffffffff1673ffffffffffffffffffffffffffffffffffffffff16815260200190815260200160002060009054906101000a900460ff16905092915050565b600073ffffffffffffffffffffffffffffffffffffffff168473ffffffffffffffffffffffffffffffffffffffff161415611628576040517f08c379a000000000000000000000000000000000000000000000000000000000815260040161161f906135fd565b60405180910390fd5b611630611bdd565b73ffffffffffffffffffffffffffffffffffffffff168573ffffffffffffffffffffffffffffffffffffffff161480611676575061167585611670611bdd565b611524565b5b6116b5576040517f08c379a00000000000000000000000000000000000000000000000000000000081526004016116ac906135dd565b60405180910390fd5b60006116bf611bdd565b90506116df8187876116d088612412565b6116d988612412565b87611be5565b600080600086815260200190815260200160002060008873ffffffffffffffffffffffffffffffffffffffff1673ffffffffffffffffffffffffffffffffffffffff16815260200190815260200160002054905083811015611776576040517f08c379a000000000000000000000000000000000000000000000000000000000815260040161176d9061365d565b60405180910390fd5b83816117829190613afd565b60008087815260200190815260200160002060008973ffffffffffffffffffffffffffffffffffffffff1673ffffffffffffffffffffffffffffffffffffffff168152602001908152602001600020819055508360008087815260200190815260200160002060008873ffffffffffffffffffffffffffffffffffffffff1673ffffffffffffffffffffffffffffffffffffffff168152602001908152602001600020600082825461183491906138ab565b925050819055508573ffffffffffffffffffffffffffffffffffffffff168773ffffffffffffffffffffffffffffffffffffffff168373ffffffffffffffffffffffffffffffffffffffff167fc3d58168c5ae7397731d063d5bbf3d657854427343f4c083240f7aacaa2d0f6288886040516118b1929190613758565b60405180910390a46118c78288888888886124d8565b50505050505050565b60036020528060005260406000206000915090505481565b61190333838360405180602001604052806000815250611e94565b5050565b6000806012600a6119189190613985565b836119239190613901565b905060008111611968576040517f08c379a000000000000000000000000000000000000000000000000000000000815260040161195f9061371d565b60405180910390fd5b6000700100000000000000000000000000000000821061199957608082901c915060808161199691906138ab565b90505b6801000000000000000082106119c057604082901c91506040816119bd91906138ab565b90505b64010000000082106119e357602082901c91506020816119e091906138ab565b90505b620100008210611a0457601082901c9150601081611a0191906138ab565b90505b6101008210611a2457600882901c9150600881611a2191906138ab565b90505b60108210611a4357600482901c9150600481611a4091906138ab565b90505b60048210611a6257600282901c9150600281611a5f91906138ab565b90505b60028210611a7a57600181611a7791906138ab565b90505b6012600a611a889190613985565b81611a939190613aa3565b90506012600a611aa39190613985565b81611aae9190613901565b6002611aba9190613985565b84611ac59190613901565b91506000806012600a611ad89190613985565b90505b6000811115611b5c576012600a611af29190613985565b6002611afe9190613aa3565b8410611b22578082611b1091906138ab565b9150600284611b1f9190613901565b93505b6012600a611b309190613985565b8485611b3c9190613aa3565b611b469190613901565b9350600281611b559190613901565b9050611adb565b508181611b6991906138ab565b9350505050919050565b60007f01ffc9a7000000000000000000000000000000000000000000000000000000007bffffffffffffffffffffffffffffffffffffffffffffffffffffffff1916827bffffffffffffffffffffffffffffffffffffffffffffffffffffffff1916149050919050565b600033905090565b505050505050565b611c0c8473ffffffffffffffffffffffffffffffffffffffff166126a8565b15611db5578373ffffffffffffffffffffffffffffffffffffffff1663bc197c8187878686866040518663ffffffff1660e01b8152600401611c52959493929190613425565b602060405180830381600087803b158015611c6c57600080fd5b505af1925050508015611c9d57506040513d601f19601f82011682018060405250810190611c9a9190612d2b565b60015b611d2c57611ca9613d7a565b80611cb45750611cf1565b806040517f08c379a0000000000000000000000000000000000000000000000000000000008152600401611ce8919061355b565b60405180910390fd5b6040517f08c379a0000000000000000000000000000000000000000000000000000000008152600401611d239061357d565b60405180910390fd5b63bc197c8160e01b7bffffffffffffffffffffffffffffffffffffffffffffffffffffffff1916817bffffffffffffffffffffffffffffffffffffffffffffffffffffffff191614611db3576040517f08c379a0000000000000000000000000000000000000000000000000000000008152600401611daa9061359d565b60405180910390fd5b505b505050505050565b6000806012600a611dce9190613985565b83611dd99190613901565b905060006012600a611deb9190613985565b84611df69190613c62565b90506000826002611e079190613985565b905060006012600a611e199190613985565b905060005b603e811015611e7c57600084611e33836126bb565b161115611e69576012600a611e489190613985565b611e5182612716565b83611e5c9190613aa3565b611e669190613901565b91505b8080611e7490613c19565b915050611e1e565b508082611e899190613aa3565b945050505050919050565b600073ffffffffffffffffffffffffffffffffffffffff168473ffffffffffffffffffffffffffffffffffffffff161415611f04576040517f08c379a0000000000000000000000000000000000000000000000000000000008152600401611efb906136fd565b60405180910390fd5b6000611f0e611bdd565b9050611f2f81600087611f2088612412565b611f2988612412565b87611be5565b8260008086815260200190815260200160002060008773ffffffffffffffffffffffffffffffffffffffff1673ffffffffffffffffffffffffffffffffffffffff1681526020019081526020016000206000828254611f8e91906138ab565b925050819055508473ffffffffffffffffffffffffffffffffffffffff16600073ffffffffffffffffffffffffffffffffffffffff168273ffffffffffffffffffffffffffffffffffffffff167fc3d58168c5ae7397731d063d5bbf3d657854427343f4c083240f7aacaa2d0f62878760405161200c929190613758565b60405180910390a4612023816000878787876124d8565b5050505050565b6000806012600a61203b9190613985565b905060006012600a61204d9190613985565b9050600080600090505b600581101561216e57600061206b82612771565b90506012600a61207b9190613985565b6120918860018561208c91906138ab565b6127c9565b8261209c9190613aa3565b6120a69190613901565b856120b191906138ab565b945060006002836120c29190613c62565b1415612113576012600a6120d69190613985565b6120ec886001856120e791906138ab565b6127c9565b826120f79190613aa3565b6121019190613901565b8361210c91906138ab565b925061215a565b6012600a6121219190613985565b6121378860018561213291906138ab565b6127c9565b826121429190613aa3565b61214c9190613901565b8461215791906138ab565b93505b50808061216690613c19565b915050612057565b50808261217b9190613afd565b6012600a6121899190613985565b846121949190613aa3565b61219e9190613901565b9350505050919050565b600073ffffffffffffffffffffffffffffffffffffffff168473ffffffffffffffffffffffffffffffffffffffff161415612218576040517f08c379a000000000000000000000000000000000000000000000000000000000815260040161220f906136fd565b60405180910390fd5b815183511461225c576040517f08c379a0000000000000000000000000000000000000000000000000000000008152600401612253906136dd565b60405180910390fd5b6000612266611bdd565b905061227781600087878787611be5565b60005b845181101561237c578381815181106122bc577f4e487b7100000000000000000000000000000000000000000000000000000000600052603260045260246000fd5b6020026020010151600080878481518110612300577f4e487b7100000000000000000000000000000000000000000000000000000000600052603260045260246000fd5b6020026020010151815260200190815260200160002060008873ffffffffffffffffffffffffffffffffffffffff1673ffffffffffffffffffffffffffffffffffffffff168152602001908152602001600020600082825461236291906138ab565b92505081905550808061237490613c19565b91505061227a565b508473ffffffffffffffffffffffffffffffffffffffff16600073ffffffffffffffffffffffffffffffffffffffff168273ffffffffffffffffffffffffffffffffffffffff167f4a39dc06d4c0dbc64b70af90fd698a233a518aa5d07e595d983b8c0526c8f7fb87876040516123f4929190613509565b60405180910390a461240b81600087878787611bed565b5050505050565b60606000600167ffffffffffffffff811115612457577f4e487b7100000000000000000000000000000000000000000000000000000000600052604160045260246000fd5b6040519080825280602002602001820160405280156124855781602001602082028036833780820191505090505b50905082816000815181106124c3577f4e487b7100000000000000000000000000000000000000000000000000000000600052603260045260246000fd5b60200260200101818152505080915050919050565b6124f78473ffffffffffffffffffffffffffffffffffffffff166126a8565b156126a0578373ffffffffffffffffffffffffffffffffffffffff1663f23a6e6187878686866040518663ffffffff1660e01b815260040161253d95949392919061348d565b602060405180830381600087803b15801561255757600080fd5b505af192505050801561258857506040513d601f19601f820116820180604052508101906125859190612d2b565b60015b61261757612594613d7a565b8061259f57506125dc565b806040517f08c379a00000000000000000000000000000000000000000000000000000000081526004016125d3919061355b565b60405180910390fd5b6040517f08c379a000000000000000000000000000000000000000000000000000000000815260040161260e9061357d565b60405180910390fd5b63f23a6e6160e01b7bffffffffffffffffffffffffffffffffffffffffffffffffffffffff1916817bffffffffffffffffffffffffffffffffffffffffffffffffffffffff19161461269e576040517f08c379a00000000000000000000000000000000000000000000000000000000081526004016126959061359d565b60405180910390fd5b505b505050505050565b600080823b905060008111915050919050565b6000806040518061022001604052806101f08152602001613e8d6101f091399050600060088460086126ed9190613aa3565b6126f791906138ab565b905060008183015190508067ffffffffffffffff169350505050919050565b6000806040518061022001604052806101f081526020016140a56101f091399050600060088460086127489190613aa3565b61275291906138ab565b905060008183015190508067ffffffffffffffff169350505050919050565b60008060405180606001604052806028815260200161407d602891399050600060088460086127a09190613aa3565b6127aa91906138ab565b905060008183015190508067ffffffffffffffff169350505050919050565b6000806012600a6127da9190613985565b905060005b83811015612820576012600a6127f59190613985565b85836128019190613aa3565b61280b9190613901565b9150808061281890613c19565b9150506127df565b508091505092915050565b600061283e612839846137b2565b613781565b9050808382526020820190508285602086028201111561285d57600080fd5b60005b8581101561288d57816128738882612941565b845260208401935060208301925050600181019050612860565b5050509392505050565b60006128aa6128a5846137de565b613781565b905080838252602082019050828560208602820111156128c957600080fd5b60005b858110156128f957816128df8882612a13565b8452602084019350602083019250506001810190506128cc565b5050509392505050565b60006129166129118461380a565b613781565b90508281526020810184848401111561292e57600080fd5b612939848285613ba5565b509392505050565b60008135905061295081613e30565b92915050565b600082601f83011261296757600080fd5b813561297784826020860161282b565b91505092915050565b600082601f83011261299157600080fd5b81356129a1848260208601612897565b91505092915050565b6000813590506129b981613e47565b92915050565b6000813590506129ce81613e5e565b92915050565b6000815190506129e381613e5e565b92915050565b600082601f8301126129fa57600080fd5b8135612a0a848260208601612903565b91505092915050565b600081359050612a2281613e75565b92915050565b60008060408385031215612a3b57600080fd5b6000612a4985828601612941565b9250506020612a5a85828601612941565b9150509250929050565b600080600080600060a08688031215612a7c57600080fd5b6000612a8a88828901612941565b9550506020612a9b88828901612941565b945050604086013567ffffffffffffffff811115612ab857600080fd5b612ac488828901612980565b935050606086013567ffffffffffffffff811115612ae157600080fd5b612aed88828901612980565b925050608086013567ffffffffffffffff811115612b0a57600080fd5b612b16888289016129e9565b9150509295509295909350565b600080600080600060a08688031215612b3b57600080fd5b6000612b4988828901612941565b9550506020612b5a88828901612941565b9450506040612b6b88828901612a13565b9350506060612b7c88828901612a13565b925050608086013567ffffffffffffffff811115612b9957600080fd5b612ba5888289016129e9565b9150509295509295909350565b60008060408385031215612bc557600080fd5b6000612bd385828601612941565b9250506020612be4858286016129aa565b9150509250929050565b60008060408385031215612c0157600080fd5b6000612c0f85828601612941565b9250506020612c2085828601612a13565b9150509250929050565b60008060408385031215612c3d57600080fd5b600083013567ffffffffffffffff811115612c5757600080fd5b612c6385828601612956565b925050602083013567ffffffffffffffff811115612c8057600080fd5b612c8c85828601612980565b9150509250929050565b60008060408385031215612ca957600080fd5b600083013567ffffffffffffffff811115612cc357600080fd5b612ccf85828601612980565b925050602083013567ffffffffffffffff811115612cec57600080fd5b612cf885828601612980565b9150509250929050565b600060208284031215612d1457600080fd5b6000612d22848285016129bf565b91505092915050565b600060208284031215612d3d57600080fd5b6000612d4b848285016129d4565b91505092915050565b600060208284031215612d6657600080fd5b6000612d7484828501612a13565b91505092915050565b60008060408385031215612d9057600080fd5b6000612d9e85828601612a13565b9250506020612daf85828601612a13565b9150509250929050565b6000612dc58383613407565b60208301905092915050565b612dda81613b31565b82525050565b6000612deb8261384a565b612df58185613878565b9350612e008361383a565b8060005b83811015612e31578151612e188882612db9565b9750612e238361386b565b925050600181019050612e04565b5085935050505092915050565b612e4781613b43565b82525050565b6000612e5882613855565b612e628185613889565b9350612e72818560208601613bb4565b612e7b81613d4f565b840191505092915050565b6000612e9182613860565b612e9b818561389a565b9350612eab818560208601613bb4565b612eb481613d4f565b840191505092915050565b6000612ecc60348361389a565b91507f455243313135353a207472616e7366657220746f206e6f6e204552433131353560008301527f526563656976657220696d706c656d656e7465720000000000000000000000006020830152604082019050919050565b6000612f3260288361389a565b91507f455243313135353a204552433131353552656365697665722072656a6563746560008301527f6420746f6b656e730000000000000000000000000000000000000000000000006020830152604082019050919050565b6000612f98602b8361389a565b91507f455243313135353a2062616c616e636520717565727920666f7220746865207a60008301527f65726f20616464726573730000000000000000000000000000000000000000006020830152604082019050919050565b6000612ffe60298361389a565b91507f455243313135353a2063616c6c6572206973206e6f74206f776e6572206e6f7260008301527f20617070726f76656400000000000000000000000000000000000000000000006020830152604082019050919050565b600061306460258361389a565b91507f455243313135353a207472616e7366657220746f20746865207a65726f20616460008301527f64726573730000000000000000000000000000000000000000000000000000006020830152604082019050919050565b60006130ca60328361389a565b91507f455243313135353a207472616e736665722063616c6c6572206973206e6f742060008301527f6f776e6572206e6f7220617070726f76656400000000000000000000000000006020830152604082019050919050565b600061313060218361389a565b91507f6765745265717569726564416d6f756e743a20707269636520746f6f2068696760008301527f68000000000000000000000000000000000000000000000000000000000000006020830152604082019050919050565b6000613196602a8361389a565b91507f455243313135353a20696e73756666696369656e742062616c616e636520666f60008301527f72207472616e73666572000000000000000000000000000000000000000000006020830152604082019050919050565b60006131fc60208361389a565b91507f6765745265717569726564416d6f756e743a20707269636520746f6f206c6f776000830152602082019050919050565b600061323c60298361389a565b91507f455243313135353a2073657474696e6720617070726f76616c2073746174757360008301527f20666f722073656c6600000000000000000000000000000000000000000000006020830152604082019050919050565b60006132a260298361389a565b91507f455243313135353a206163636f756e747320616e6420696473206c656e67746860008301527f206d69736d6174636800000000000000000000000000000000000000000000006020830152604082019050919050565b600061330860288361389a565b91507f455243313135353a2069647320616e6420616d6f756e7473206c656e6774682060008301527f6d69736d617463680000000000000000000000000000000000000000000000006020830152604082019050919050565b600061336e60218361389a565b91507f455243313135353a206d696e7420746f20746865207a65726f2061646472657360008301527f73000000000000000000000000000000000000000000000000000000000000006020830152604082019050919050565b60006133d4601c8361389a565b91507f6c6f6761726974686d3a206f706572616e6420746f6f20736d616c6c000000006000830152602082019050919050565b61341081613b9b565b82525050565b61341f81613b9b565b82525050565b600060a08201905061343a6000830188612dd1565b6134476020830187612dd1565b81810360408301526134598186612de0565b9050818103606083015261346d8185612de0565b905081810360808301526134818184612e4d565b90509695505050505050565b600060a0820190506134a26000830188612dd1565b6134af6020830187612dd1565b6134bc6040830186613416565b6134c96060830185613416565b81810360808301526134db8184612e4d565b90509695505050505050565b600060208201905081810360008301526135018184612de0565b905092915050565b600060408201905081810360008301526135238185612de0565b905081810360208301526135378184612de0565b90509392505050565b60006020820190506135556000830184612e3e565b92915050565b600060208201905081810360008301526135758184612e86565b905092915050565b6000602082019050818103600083015261359681612ebf565b9050919050565b600060208201905081810360008301526135b681612f25565b9050919050565b600060208201905081810360008301526135d681612f8b565b9050919050565b600060208201905081810360008301526135f681612ff1565b9050919050565b6000602082019050818103600083015261361681613057565b9050919050565b60006020820190508181036000830152613636816130bd565b9050919050565b6000602082019050818103600083015261365681613123565b9050919050565b6000602082019050818103600083015261367681613189565b9050919050565b60006020820190508181036000830152613696816131ef565b9050919050565b600060208201905081810360008301526136b68161322f565b9050919050565b600060208201905081810360008301526136d681613295565b9050919050565b600060208201905081810360008301526136f6816132fb565b9050919050565b6000602082019050818103600083015261371681613361565b9050919050565b60006020820190508181036000830152613736816133c7565b9050919050565b60006020820190506137526000830184613416565b92915050565b600060408201905061376d6000830185613416565b61377a6020830184613416565b9392505050565b6000604051905081810181811067ffffffffffffffff821117156137a8576137a7613d20565b5b8060405250919050565b600067ffffffffffffffff8211156137cd576137cc613d20565b5b602082029050602081019050919050565b600067ffffffffffffffff8211156137f9576137f8613d20565b5b602082029050602081019050919050565b600067ffffffffffffffff82111561382557613824613d20565b5b601f19601f8301169050602081019050919050565b6000819050602082019050919050565b600081519050919050565b600081519050919050565b600081519050919050565b6000602082019050919050565b600082825260208201905092915050565b600082825260208201905092915050565b600082825260208201905092915050565b60006138b682613b9b565b91506138c183613b9b565b9250827fffffffffffffffffffffffffffffffffffffffffffffffffffffffffffffffff038211156138f6576138f5613c93565b5b828201905092915050565b600061390c82613b9b565b915061391783613b9b565b92508261392757613926613cc2565b5b828204905092915050565b6000808291508390505b600185111561397c5780860481111561395857613957613c93565b5b60018516156139675780820291505b808102905061397585613d60565b945061393c565b94509492505050565b600061399082613b9b565b915061399b83613b9b565b92506139c87fffffffffffffffffffffffffffffffffffffffffffffffffffffffffffffffff84846139d0565b905092915050565b6000826139e05760019050613a9c565b816139ee5760009050613a9c565b8160018114613a045760028114613a0e57613a3d565b6001915050613a9c565b60ff841115613a2057613a1f613c93565b5b8360020a915084821115613a3757613a36613c93565b5b50613a9c565b5060208310610133831016604e8410600b8410161715613a725782820a905083811115613a6d57613a6c613c93565b5b613a9c565b613a7f8484846001613932565b92509050818404811115613a9657613a95613c93565b5b81810290505b9392505050565b6000613aae82613b9b565b9150613ab983613b9b565b9250817fffffffffffffffffffffffffffffffffffffffffffffffffffffffffffffffff0483118215151615613af257613af1613c93565b5b828202905092915050565b6000613b0882613b9b565b9150613b1383613b9b565b925082821015613b2657613b25613c93565b5b828203905092915050565b6000613b3c82613b7b565b9050919050565b60008115159050919050565b60007fffffffff0000000000000000000000000000000000000000000000000000000082169050919050565b600073ffffffffffffffffffffffffffffffffffffffff82169050919050565b6000819050919050565b82818337600083830152505050565b60005b83811015613bd2578082015181840152602081019050613bb7565b83811115613be1576000848401525b50505050565b60006002820490506001821680613bff57607f821691505b60208210811415613c1357613c12613cf1565b5b50919050565b6000613c2482613b9b565b91507fffffffffffffffffffffffffffffffffffffffffffffffffffffffffffffffff821415613c5757613c56613c93565b5b600182019050919050565b6000613c6d82613b9b565b9150613c7883613b9b565b925082613c8857613c87613cc2565b5b828206905092915050565b7f4e487b7100000000000000000000000000000000000000000000000000000000600052601160045260246000fd5b7f4e487b7100000000000000000000000000000000000000000000000000000000600052601260045260246000fd5b7f4e487b7100000000000000000000000000000000000000000000000000000000600052602260045260246000fd5b7f4e487b7100000000000000000000000000000000000000000000000000000000600052604160045260246000fd5b6000601f19601f8301169050919050565b60008160011c9050919050565b60008160e01c9050919050565b600060443d1015613d8a57613e2d565b60046000803e613d9b600051613d6d565b6308c379a08114613dac5750613e2d565b60405160043d036004823e80513d602482011167ffffffffffffffff82111715613dd857505050613e2d565b808201805167ffffffffffffffff811115613df7575050505050613e2d565b8060208301013d8501811115613e1257505050505050613e2d565b613e1b82613d4f565b60208401016040528296505050505050505b90565b613e3981613b31565b8114613e4457600080fd5b50565b613e5081613b43565b8114613e5b57600080fd5b50565b613e6781613b4f565b8114613e7257600080fd5b50565b613e7e81613b9b565b8114613e8957600080fd5b5056fe0000000000000001000000000000000200000000000000040000000000000008000000000000001000000000000000200000000000000040000000000000008000000000000001000000000000000200000000000000040000000000000008000000000000001000000000000000200000000000000040000000000000008000000000000001000000000000000200000000000000040000000000000008000000000000001000000000000000200000000000000040000000000000008000000000000001000000000000000200000000000000040000000000000008000000000000001000000000000000200000000000000040000000000000008000000000000001000000000000000200000000000000040000000000000008000000000000001000000000000000200000000000000040000000000000008000000000000001000000000000000200000000000000040000000000000008000000000000001000000000000000200000000000000040000000000000008000000000000001000000000000000200000000000000040000000000000008000000000000001000000000000000200000000000000040000000000000008000000000000001000000000000000200000000000000040000000000000008000000000000001000000000000000200000000000000006f05b59d3b20000018abef7846071c0003157def08c0e3800038646c80a010400001e136d11666f0de0b6b3a76400000de0b6b3a76400010de0b6b3a76400020de0b6b3a76400050de0b6b3a764000b0de0b6b3a76400160de0b6b3a764002c0de0b6b3a76400580de0b6b3a76400b10de0b6b3a76401620de0b6b3a76402c50de0b6b3a764058b0de0b6b3a7640b170de0b6b3a764162e0de0b6b3a7642c5c0de0b6b3a76458b90de0b6b3a764b1720de0b6b3a76562e40de0b6b3a766c5c80de0b6b3a7698b900de0b6b3a76f17210de0b6b3a77a2e420de0b6b3a7905c850de0b6b3a7bcb90b0de0b6b3a81572170de0b6b3a8c6e42f0de0b6b3aa29c85f0de0b6b3acef90bf0de0b6b3b27b217f0de0b6b3bd9242ff0de0b6b3d3c085fe0de0b6b4001d0bfd0de0b6b458d617fc0de0b6b50a4830010de0b6b66d2c60260de0b6b932f4c0da0de0b6bebe8583eb0de0b6c9d5a710b30de0b6e003ea44db0de0b70c607117840de0b765198066410de0b8168ba5a9640de0b979700ac64c0de0bc3f393f5ab50de0c1cacd51ee520de0cce1fc1cc3c60de0e3107449406e0de10f6dcefe47050de1682a2ddebc000de219a991aadb930de37cc2f2fcb7380de6436028ee3a220debd244c555d3b40df6f6b9dbcc5f410e0d5a6c6ea8a8410e3a8dbbd2b7e9d50e96aa5bb87c13840f55ef96062919dd10f25db82c317ea514b1c2442ffabe3c1edbf25de7a70f72449e9dd02d2817d4a264697066735822122054d5689e8185a13efdb82f89e8d7f988a9e26fce48df024b604a6b194b44847264736f6c63430008000033",
  "linkReferences": {},
  "deployedLinkReferences": {}
}