{
  "_format": "hh-sol-artifact-1",
  "contractName": "MathWithPade",
  "sourceName": "hardhat/contracts/Libraries/MathWithPade.sol",
  "abi": [
    {
      "inputs": [
        {
          "internalType": "uint256",
          "name": "exponent",
          "type": "uint256"
        }
      ],
      "name": "exponentiate",
      "outputs": [
        {
          "internalType": "uint256",
          "name": "",
          "type": "uint256"
        }
      ],
      "stateMutability": "pure",
      "type": "function"
    },
    {
      "inputs": [
        {
          "internalType": "uint256",
          "name": "operand",
          "type": "uint256"
        }
      ],
      "name": "logarithm",
      "outputs": [
        {
          "internalType": "uint256",
          "name": "",
          "type": "uint256"
        }
      ],
      "stateMutability": "pure",
      "type": "function"
    },
    {
      "inputs": [
        {
          "internalType": "uint256",
          "name": "exponent",
          "type": "uint256"
        }
      ],
      "name": "padeExponentiate",
      "outputs": [
        {
          "internalType": "uint256",
          "name": "",
          "type": "uint256"
        }
      ],
      "stateMutability": "pure",
      "type": "function"
    }
  ],
  "bytecode": "0x610fb4610053600b82828239805160001a607314610046577f4e487b7100000000000000000000000000000000000000000000000000000000600052600060045260246000fd5b30600052607381538281f3fe730000000000000000000000000000000000000000301460806040526004361061004b5760003560e01c80630a41b60d146100505780636ca34af7146100805780639fdfe442146100b0575b600080fd5b61006a60048036038101906100659190610726565b6100e0565b60405161007791906107be565b60405180910390f35b61009a60048036038101906100959190610726565b61025e565b6040516100a791906107be565b60405180910390f35b6100ca60048036038101906100c59190610726565b6104ca565b6040516100d791906107be565b60405180910390f35b6000806012600a6100f191906108c4565b905060006012600a61010391906108c4565b9050600080600090505b6005811015610224576000610121826105a1565b90506012600a61013191906108c4565b6101478860018561014291906107ea565b6105f9565b8261015291906109e2565b61015c9190610840565b8561016791906107ea565b945060006002836101789190610ac3565b14156101c9576012600a61018c91906108c4565b6101a28860018561019d91906107ea565b6105f9565b826101ad91906109e2565b6101b79190610840565b836101c291906107ea565b9250610210565b6012600a6101d791906108c4565b6101ed886001856101e891906107ea565b6105f9565b826101f891906109e2565b6102029190610840565b8461020d91906107ea565b93505b50808061021c90610a7a565b91505061010d565b5080826102319190610a3c565b6012600a61023f91906108c4565b8461024a91906109e2565b6102549190610840565b9350505050919050565b6000806012600a61026f91906108c4565b8361027a9190610840565b9050600081116102bf576040517f08c379a00000000000000000000000000000000000000000000000000000000081526004016102b69061079e565b60405180910390fd5b600070010000000000000000000000000000000082106102f057608082901c91506080816102ed91906107ea565b90505b68010000000000000000821061031757604082901c915060408161031491906107ea565b90505b640100000000821061033a57602082901c915060208161033791906107ea565b90505b62010000821061035b57601082901c915060108161035891906107ea565b90505b610100821061037b57600882901c915060088161037891906107ea565b90505b6010821061039a57600482901c915060048161039791906107ea565b90505b600482106103b957600282901c91506002816103b691906107ea565b90505b600282106103d1576001816103ce91906107ea565b90505b6012600a6103df91906108c4565b816103ea91906109e2565b90506012600a6103fa91906108c4565b816104059190610840565b600261041191906108c4565b8461041c9190610840565b91506000806012600a61042f91906108c4565b90505b60008111156104b3576012600a61044991906108c4565b600261045591906109e2565b841061047957808261046791906107ea565b91506002846104769190610840565b93505b6012600a61048791906108c4565b848561049391906109e2565b61049d9190610840565b93506002816104ac9190610840565b9050610432565b5081816104c091906107ea565b9350505050919050565b6000806012600a6104db91906108c4565b836104e69190610840565b905060006012600a6104f891906108c4565b846105039190610ac3565b9050600082600261051491906108c4565b905060006012600a61052691906108c4565b905060005b603e811015610589576000846105408361065b565b161115610576576012600a61055591906108c4565b61055e826106b6565b8361056991906109e2565b6105739190610840565b91505b808061058190610a7a565b91505061052b565b50808261059691906109e2565b945050505050919050565b600080604051806060016040528060288152602001610d67602891399050600060088460086105d091906109e2565b6105da91906107ea565b905060008183015190508067ffffffffffffffff169350505050919050565b6000806012600a61060a91906108c4565b905060005b83811015610650576012600a61062591906108c4565b858361063191906109e2565b61063b9190610840565b9150808061064890610a7a565b91505061060f565b508091505092915050565b6000806040518061022001604052806101f08152602001610b776101f0913990506000600884600861068d91906109e2565b61069791906107ea565b905060008183015190508067ffffffffffffffff169350505050919050565b6000806040518061022001604052806101f08152602001610d8f6101f091399050600060088460086106e891906109e2565b6106f291906107ea565b905060008183015190508067ffffffffffffffff169350505050919050565b60008135905061072081610b5f565b92915050565b60006020828403121561073857600080fd5b600061074684828501610711565b91505092915050565b600061075c601c836107d9565b91507f6c6f6761726974686d3a206f706572616e6420746f6f20736d616c6c000000006000830152602082019050919050565b61079881610a70565b82525050565b600060208201905081810360008301526107b78161074f565b9050919050565b60006020820190506107d3600083018461078f565b92915050565b600082825260208201905092915050565b60006107f582610a70565b915061080083610a70565b9250827fffffffffffffffffffffffffffffffffffffffffffffffffffffffffffffffff0382111561083557610834610af4565b5b828201905092915050565b600061084b82610a70565b915061085683610a70565b92508261086657610865610b23565b5b828204905092915050565b6000808291508390505b60018511156108bb5780860481111561089757610896610af4565b5b60018516156108a65780820291505b80810290506108b485610b52565b945061087b565b94509492505050565b60006108cf82610a70565b91506108da83610a70565b92506109077fffffffffffffffffffffffffffffffffffffffffffffffffffffffffffffffff848461090f565b905092915050565b60008261091f57600190506109db565b8161092d57600090506109db565b8160018114610943576002811461094d5761097c565b60019150506109db565b60ff84111561095f5761095e610af4565b5b8360020a91508482111561097657610975610af4565b5b506109db565b5060208310610133831016604e8410600b84101617156109b15782820a9050838111156109ac576109ab610af4565b5b6109db565b6109be8484846001610871565b925090508184048111156109d5576109d4610af4565b5b81810290505b9392505050565b60006109ed82610a70565b91506109f883610a70565b9250817fffffffffffffffffffffffffffffffffffffffffffffffffffffffffffffffff0483118215151615610a3157610a30610af4565b5b828202905092915050565b6000610a4782610a70565b9150610a5283610a70565b925082821015610a6557610a64610af4565b5b828203905092915050565b6000819050919050565b6000610a8582610a70565b91507fffffffffffffffffffffffffffffffffffffffffffffffffffffffffffffffff821415610ab857610ab7610af4565b5b600182019050919050565b6000610ace82610a70565b9150610ad983610a70565b925082610ae957610ae8610b23565b5b828206905092915050565b7f4e487b7100000000000000000000000000000000000000000000000000000000600052601160045260246000fd5b7f4e487b7100000000000000000000000000000000000000000000000000000000600052601260045260246000fd5b60008160011c9050919050565b610b6881610a70565b8114610b7357600080fd5b5056fe0000000000000001000000000000000200000000000000040000000000000008000000000000001000000000000000200000000000000040000000000000008000000000000001000000000000000200000000000000040000000000000008000000000000001000000000000000200000000000000040000000000000008000000000000001000000000000000200000000000000040000000000000008000000000000001000000000000000200000000000000040000000000000008000000000000001000000000000000200000000000000040000000000000008000000000000001000000000000000200000000000000040000000000000008000000000000001000000000000000200000000000000040000000000000008000000000000001000000000000000200000000000000040000000000000008000000000000001000000000000000200000000000000040000000000000008000000000000001000000000000000200000000000000040000000000000008000000000000001000000000000000200000000000000040000000000000008000000000000001000000000000000200000000000000040000000000000008000000000000001000000000000000200000000000000040000000000000008000000000000001000000000000000200000000000000006f05b59d3b20000018abef7846071c0003157def08c0e3800038646c80a010400001e136d11666f0de0b6b3a76400000de0b6b3a76400010de0b6b3a76400020de0b6b3a76400050de0b6b3a764000b0de0b6b3a76400160de0b6b3a764002c0de0b6b3a76400580de0b6b3a76400b10de0b6b3a76401620de0b6b3a76402c50de0b6b3a764058b0de0b6b3a7640b170de0b6b3a764162e0de0b6b3a7642c5c0de0b6b3a76458b90de0b6b3a764b1720de0b6b3a76562e40de0b6b3a766c5c80de0b6b3a7698b900de0b6b3a76f17210de0b6b3a77a2e420de0b6b3a7905c850de0b6b3a7bcb90b0de0b6b3a81572170de0b6b3a8c6e42f0de0b6b3aa29c85f0de0b6b3acef90bf0de0b6b3b27b217f0de0b6b3bd9242ff0de0b6b3d3c085fe0de0b6b4001d0bfd0de0b6b458d617fc0de0b6b50a4830010de0b6b66d2c60260de0b6b932f4c0da0de0b6bebe8583eb0de0b6c9d5a710b30de0b6e003ea44db0de0b70c607117840de0b765198066410de0b8168ba5a9640de0b979700ac64c0de0bc3f393f5ab50de0c1cacd51ee520de0cce1fc1cc3c60de0e3107449406e0de10f6dcefe47050de1682a2ddebc000de219a991aadb930de37cc2f2fcb7380de6436028ee3a220debd244c555d3b40df6f6b9dbcc5f410e0d5a6c6ea8a8410e3a8dbbd2b7e9d50e96aa5bb87c13840f55ef96062919dd10f25db82c317ea514b1c2442ffabe3c1edbf25de7a70f72449e9dd02d2817d4a264697066735822122020bb638f1311ad63cfa6f7f1d02b1279c98d82c0202d89b21d70ce0f6badf49664736f6c63430008000033",
  "linkReferences": {},
  "deployedLinkReferences": {}
}