{
  "_format": "hh-sol-artifact-1",
  "contractName": "MathHarness",
  "sourceName": "hardhat/contracts/MathHarness.sol",
  "abi": [
    {
      "inputs": [
        {
          "internalType": "uint256",
          "name": "index",
          "type": "uint256"
        }
      ],
      "name": "exponent_table_lookup",
      "outputs": [
        {
          "internalType": "uint256",
          "name": "",
          "type": "uint256"
        }
      ],
      "stateMutability": "pure",
      "type": "function"
    },
    {
      "inputs": [
        {
          "internalType": "uint256",
          "name": "exponent",
          "type": "uint256"
        }
      ],
      "name": "exponentiate",
      "outputs": [
        {
          "internalType": "uint256",
          "name": "",
          "type": "uint256"
        }
      ],
      "stateMutability": "pure",
      "type": "function"
    },
    {
      "inputs": [
        {
          "internalType": "uint256",
          "name": "operand",
          "type": "uint256"
        }
      ],
      "name": "logarithm",
      "outputs": [
        {
          "internalType": "uint256",
          "name": "",
          "type": "uint256"
        }
      ],
      "stateMutability": "pure",
      "type": "function"
    },
    {
      "inputs": [
        {
          "internalType": "uint256",
          "name": "exponent",
          "type": "uint256"
        }
      ],
      "name": "padeExponentiate",
      "outputs": [
        {
          "internalType": "uint256",
          "name": "",
          "type": "uint256"
        }
      ],
      "stateMutability": "pure",
      "type": "function"
    },
    {
      "inputs": [
        {
          "internalType": "uint256",
          "name": "index",
          "type": "uint256"
        }
      ],
      "name": "pade_coefficient_lookup",
      "outputs": [
        {
          "internalType": "uint256",
          "name": "",
          "type": "uint256"
        }
      ],
      "stateMutability": "pure",
      "type": "function"
    },
    {
      "inputs": [
        {
          "internalType": "uint256",
          "name": "base",
          "type": "uint256"
        },
        {
          "internalType": "uint256",
          "name": "exponent",
          "type": "uint256"
        }
      ],
      "name": "power",
      "outputs": [
        {
          "internalType": "uint256",
          "name": "",
          "type": "uint256"
        }
      ],
      "stateMutability": "pure",
      "type": "function"
    },
    {
      "inputs": [
        {
          "internalType": "uint256",
          "name": "index",
          "type": "uint256"
        }
      ],
      "name": "power_of_two_lookup",
      "outputs": [
        {
          "internalType": "uint256",
          "name": "",
          "type": "uint256"
        }
      ],
      "stateMutability": "pure",
      "type": "function"
    }
  ],
  "bytecode": "0x608060405234801561001057600080fd5b5061116b806100206000396000f3fe608060405234801561001057600080fd5b506004361061007d5760003560e01c80636ca34af71161005b5780636ca34af7146101125780639fdfe44214610142578063c04f01fc14610172578063cd19ab6b146101a25761007d565b80630a41b60d146100825780631818bb3e146100b257806361c76f89146100e2575b600080fd5b61009c600480360381019061009791906108a1565b6101d2565b6040516100a99190610975565b60405180910390f35b6100cc60048036038101906100c791906108a1565b6101e4565b6040516100d99190610975565b60405180910390f35b6100fc60048036038101906100f791906108a1565b6101f6565b6040516101099190610975565b60405180910390f35b61012c600480360381019061012791906108a1565b610208565b6040516101399190610975565b60405180910390f35b61015c600480360381019061015791906108a1565b61021a565b6040516101699190610975565b60405180910390f35b61018c600480360381019061018791906108ca565b61022c565b6040516101999190610975565b60405180910390f35b6101bc60048036038101906101b791906108a1565b610249565b6040516101c99190610975565b60405180910390f35b60006101dd8261025b565b9050919050565b60006101ef826103d9565b9050919050565b600061020182610434565b9050919050565b60006102138261048f565b9050919050565b6000610225826106fb565b9050919050565b600061024182846107d290919063ffffffff16565b905092915050565b600061025482610834565b9050919050565b6000806012600a61026c9190610a7b565b905060006012600a61027e9190610a7b565b9050600080600090505b600581101561039f57600061029c82610834565b90506012600a6102ac9190610a7b565b6102c2886001856102bd91906109a1565b6107d2565b826102cd9190610b99565b6102d791906109f7565b856102e291906109a1565b945060006002836102f39190610c7a565b1415610344576012600a6103079190610a7b565b61031d8860018561031891906109a1565b6107d2565b826103289190610b99565b61033291906109f7565b8361033d91906109a1565b925061038b565b6012600a6103529190610a7b565b6103688860018561036391906109a1565b6107d2565b826103739190610b99565b61037d91906109f7565b8461038891906109a1565b93505b50808061039790610c31565b915050610288565b5080826103ac9190610bf3565b6012600a6103ba9190610a7b565b846103c59190610b99565b6103cf91906109f7565b9350505050919050565b6000806040518061022001604052806101f08152602001610d2e6101f0913990506000600884600861040b9190610b99565b61041591906109a1565b905060008183015190508067ffffffffffffffff169350505050919050565b6000806040518061022001604052806101f08152602001610f466101f091399050600060088460086104669190610b99565b61047091906109a1565b905060008183015190508067ffffffffffffffff169350505050919050565b6000806012600a6104a09190610a7b565b836104ab91906109f7565b9050600081116104f0576040517f08c379a00000000000000000000000000000000000000000000000000000000081526004016104e790610955565b60405180910390fd5b6000700100000000000000000000000000000000821061052157608082901c915060808161051e91906109a1565b90505b68010000000000000000821061054857604082901c915060408161054591906109a1565b90505b640100000000821061056b57602082901c915060208161056891906109a1565b90505b62010000821061058c57601082901c915060108161058991906109a1565b90505b61010082106105ac57600882901c91506008816105a991906109a1565b90505b601082106105cb57600482901c91506004816105c891906109a1565b90505b600482106105ea57600282901c91506002816105e791906109a1565b90505b60028210610602576001816105ff91906109a1565b90505b6012600a6106109190610a7b565b8161061b9190610b99565b90506012600a61062b9190610a7b565b8161063691906109f7565b60026106429190610a7b565b8461064d91906109f7565b91506000806012600a6106609190610a7b565b90505b60008111156106e4576012600a61067a9190610a7b565b60026106869190610b99565b84106106aa57808261069891906109a1565b91506002846106a791906109f7565b93505b6012600a6106b89190610a7b565b84856106c49190610b99565b6106ce91906109f7565b93506002816106dd91906109f7565b9050610663565b5081816106f191906109a1565b9350505050919050565b6000806012600a61070c9190610a7b565b8361071791906109f7565b905060006012600a6107299190610a7b565b846107349190610c7a565b905060008260026107459190610a7b565b905060006012600a6107579190610a7b565b905060005b603e8110156107ba57600084610771836103d9565b1611156107a7576012600a6107869190610a7b565b61078f82610434565b8361079a9190610b99565b6107a491906109f7565b91505b80806107b290610c31565b91505061075c565b5080826107c79190610b99565b945050505050919050565b6000806012600a6107e39190610a7b565b905060005b83811015610829576012600a6107fe9190610a7b565b858361080a9190610b99565b61081491906109f7565b9150808061082190610c31565b9150506107e8565b508091505092915050565b600080604051806060016040528060288152602001610f1e602891399050600060088460086108639190610b99565b61086d91906109a1565b905060008183015190508067ffffffffffffffff169350505050919050565b60008135905061089b81610d16565b92915050565b6000602082840312156108b357600080fd5b60006108c18482850161088c565b91505092915050565b600080604083850312156108dd57600080fd5b60006108eb8582860161088c565b92505060206108fc8582860161088c565b9150509250929050565b6000610913601c83610990565b91507f6c6f6761726974686d3a206f706572616e6420746f6f20736d616c6c000000006000830152602082019050919050565b61094f81610c27565b82525050565b6000602082019050818103600083015261096e81610906565b9050919050565b600060208201905061098a6000830184610946565b92915050565b600082825260208201905092915050565b60006109ac82610c27565b91506109b783610c27565b9250827fffffffffffffffffffffffffffffffffffffffffffffffffffffffffffffffff038211156109ec576109eb610cab565b5b828201905092915050565b6000610a0282610c27565b9150610a0d83610c27565b925082610a1d57610a1c610cda565b5b828204905092915050565b6000808291508390505b6001851115610a7257808604811115610a4e57610a4d610cab565b5b6001851615610a5d5780820291505b8081029050610a6b85610d09565b9450610a32565b94509492505050565b6000610a8682610c27565b9150610a9183610c27565b9250610abe7fffffffffffffffffffffffffffffffffffffffffffffffffffffffffffffffff8484610ac6565b905092915050565b600082610ad65760019050610b92565b81610ae45760009050610b92565b8160018114610afa5760028114610b0457610b33565b6001915050610b92565b60ff841115610b1657610b15610cab565b5b8360020a915084821115610b2d57610b2c610cab565b5b50610b92565b5060208310610133831016604e8410600b8410161715610b685782820a905083811115610b6357610b62610cab565b5b610b92565b610b758484846001610a28565b92509050818404811115610b8c57610b8b610cab565b5b81810290505b9392505050565b6000610ba482610c27565b9150610baf83610c27565b9250817fffffffffffffffffffffffffffffffffffffffffffffffffffffffffffffffff0483118215151615610be857610be7610cab565b5b828202905092915050565b6000610bfe82610c27565b9150610c0983610c27565b925082821015610c1c57610c1b610cab565b5b828203905092915050565b6000819050919050565b6000610c3c82610c27565b91507fffffffffffffffffffffffffffffffffffffffffffffffffffffffffffffffff821415610c6f57610c6e610cab565b5b600182019050919050565b6000610c8582610c27565b9150610c9083610c27565b925082610ca057610c9f610cda565b5b828206905092915050565b7f4e487b7100000000000000000000000000000000000000000000000000000000600052601160045260246000fd5b7f4e487b7100000000000000000000000000000000000000000000000000000000600052601260045260246000fd5b60008160011c9050919050565b610d1f81610c27565b8114610d2a57600080fd5b5056fe0000000000000001000000000000000200000000000000040000000000000008000000000000001000000000000000200000000000000040000000000000008000000000000001000000000000000200000000000000040000000000000008000000000000001000000000000000200000000000000040000000000000008000000000000001000000000000000200000000000000040000000000000008000000000000001000000000000000200000000000000040000000000000008000000000000001000000000000000200000000000000040000000000000008000000000000001000000000000000200000000000000040000000000000008000000000000001000000000000000200000000000000040000000000000008000000000000001000000000000000200000000000000040000000000000008000000000000001000000000000000200000000000000040000000000000008000000000000001000000000000000200000000000000040000000000000008000000000000001000000000000000200000000000000040000000000000008000000000000001000000000000000200000000000000040000000000000008000000000000001000000000000000200000000000000040000000000000008000000000000001000000000000000200000000000000006f05b59d3b20000018abef7846071c0003157def08c0e3800038646c80a010400001e136d11666f0de0b6b3a76400000de0b6b3a76400010de0b6b3a76400020de0b6b3a76400050de0b6b3a764000b0de0b6b3a76400160de0b6b3a764002c0de0b6b3a76400580de0b6b3a76400b10de0b6b3a76401620de0b6b3a76402c50de0b6b3a764058b0de0b6b3a7640b170de0b6b3a764162e0de0b6b3a7642c5c0de0b6b3a76458b90de0b6b3a764b1720de0b6b3a76562e40de0b6b3a766c5c80de0b6b3a7698b900de0b6b3a76f17210de0b6b3a77a2e420de0b6b3a7905c850de0b6b3a7bcb90b0de0b6b3a81572170de0b6b3a8c6e42f0de0b6b3aa29c85f0de0b6b3acef90bf0de0b6b3b27b217f0de0b6b3bd9242ff0de0b6b3d3c085fe0de0b6b4001d0bfd0de0b6b458d617fc0de0b6b50a4830010de0b6b66d2c60260de0b6b932f4c0da0de0b6bebe8583eb0de0b6c9d5a710b30de0b6e003ea44db0de0b70c607117840de0b765198066410de0b8168ba5a9640de0b979700ac64c0de0bc3f393f5ab50de0c1cacd51ee520de0cce1fc1cc3c60de0e3107449406e0de10f6dcefe47050de1682a2ddebc000de219a991aadb930de37cc2f2fcb7380de6436028ee3a220debd244c555d3b40df6f6b9dbcc5f410e0d5a6c6ea8a8410e3a8dbbd2b7e9d50e96aa5bb87c13840f55ef96062919dd10f25db82c317ea514b1c2442ffabe3c1edbf25de7a70f72449e9dd02d2817d4a26469706673582212205949b67e8aea8109058dc4205d8b18c87254a4d6ea2ec7ba555bdf060cb6b6b064736f6c63430008000033",
  "linkReferences": {},
  "deployedLinkReferences": {}
}