{
  "_format": "hh-sol-artifact-1",
  "contractName": "MathHarness",
  "sourceName": "hardhat/contracts/MathHarness.sol",
  "abi": [
    {
      "inputs": [
        {
          "internalType": "uint256",
          "name": "index",
          "type": "uint256"
        }
      ],
      "name": "exponent_table_lookup",
      "outputs": [
        {
          "internalType": "uint256",
          "name": "",
          "type": "uint256"
        }
      ],
      "stateMutability": "pure",
      "type": "function"
    },
    {
      "inputs": [
        {
          "internalType": "uint256",
          "name": "exponent",
          "type": "uint256"
        }
      ],
      "name": "exponentiate",
      "outputs": [
        {
          "internalType": "uint256",
          "name": "",
          "type": "uint256"
        }
      ],
      "stateMutability": "pure",
      "type": "function"
    },
    {
      "inputs": [
        {
          "internalType": "uint256",
          "name": "operand",
          "type": "uint256"
        }
      ],
      "name": "logarithm",
      "outputs": [
        {
          "internalType": "uint256",
          "name": "",
          "type": "uint256"
        }
      ],
      "stateMutability": "pure",
      "type": "function"
    },
    {
      "inputs": [
        {
          "internalType": "uint256",
          "name": "index",
          "type": "uint256"
        }
      ],
      "name": "power_of_two_lookup",
      "outputs": [
        {
          "internalType": "uint256",
          "name": "",
          "type": "uint256"
        }
      ],
      "stateMutability": "pure",
      "type": "function"
    }
  ],
  "bytecode": "0x608060405234801561001057600080fd5b50610d99806100206000396000f3fe608060405234801561001057600080fd5b506004361061004c5760003560e01c80631818bb3e1461005157806361c76f89146100815780636ca34af7146100b15780639fdfe442146100e1575b600080fd5b61006b60048036038101906100669190610567565b610111565b60405161007891906105ff565b60405180910390f35b61009b60048036038101906100969190610567565b610123565b6040516100a891906105ff565b60405180910390f35b6100cb60048036038101906100c69190610567565b610135565b6040516100d891906105ff565b60405180910390f35b6100fb60048036038101906100f69190610567565b610147565b60405161010891906105ff565b60405180910390f35b600061011c82610159565b9050919050565b600061012e826101b4565b9050919050565b60006101408261020f565b9050919050565b60006101528261047b565b9050919050565b6000806040518061022001604052806101f081526020016109846101f0913990506000600884600861018b9190610823565b610195919061062b565b905060008183015190508067ffffffffffffffff169350505050919050565b6000806040518061022001604052806101f08152602001610b746101f091399050600060088460086101e69190610823565b6101f0919061062b565b905060008183015190508067ffffffffffffffff169350505050919050565b6000806012600a6102209190610705565b8361022b9190610681565b905060008111610270576040517f08c379a0000000000000000000000000000000000000000000000000000000008152600401610267906105df565b60405180910390fd5b600070010000000000000000000000000000000082106102a157608082901c915060808161029e919061062b565b90505b6801000000000000000082106102c857604082901c91506040816102c5919061062b565b90505b64010000000082106102eb57602082901c91506020816102e8919061062b565b90505b62010000821061030c57601082901c9150601081610309919061062b565b90505b610100821061032c57600882901c9150600881610329919061062b565b90505b6010821061034b57600482901c9150600481610348919061062b565b90505b6004821061036a57600282901c9150600281610367919061062b565b90505b600282106103825760018161037f919061062b565b90505b6012600a6103909190610705565b8161039b9190610823565b90506012600a6103ab9190610705565b816103b69190610681565b60026103c29190610705565b846103cd9190610681565b91506000806012600a6103e09190610705565b90505b6000811115610464576012600a6103fa9190610705565b60026104069190610823565b841061042a578082610418919061062b565b91506002846104279190610681565b93505b6012600a6104389190610705565b84856104449190610823565b61044e9190610681565b935060028161045d9190610681565b90506103e3565b508181610471919061062b565b9350505050919050565b6000806012600a61048c9190610705565b836104979190610681565b905060006012600a6104a99190610705565b846104b491906108d0565b905060008260026104c59190610705565b905060006012600a6104d79190610705565b905060005b603e81101561053a576000846104f183610159565b161115610527576012600a6105069190610705565b61050f826101b4565b8361051a9190610823565b6105249190610681565b91505b808061053290610887565b9150506104dc565b5080826105479190610823565b945050505050919050565b6000813590506105618161096c565b92915050565b60006020828403121561057957600080fd5b600061058784828501610552565b91505092915050565b600061059d601c8361061a565b91507f6c6f6761726974686d3a206f706572616e6420746f6f20736d616c6c000000006000830152602082019050919050565b6105d98161087d565b82525050565b600060208201905081810360008301526105f881610590565b9050919050565b600060208201905061061460008301846105d0565b92915050565b600082825260208201905092915050565b60006106368261087d565b91506106418361087d565b9250827fffffffffffffffffffffffffffffffffffffffffffffffffffffffffffffffff0382111561067657610675610901565b5b828201905092915050565b600061068c8261087d565b91506106978361087d565b9250826106a7576106a6610930565b5b828204905092915050565b6000808291508390505b60018511156106fc578086048111156106d8576106d7610901565b5b60018516156106e75780820291505b80810290506106f58561095f565b94506106bc565b94509492505050565b60006107108261087d565b915061071b8361087d565b92506107487fffffffffffffffffffffffffffffffffffffffffffffffffffffffffffffffff8484610750565b905092915050565b600082610760576001905061081c565b8161076e576000905061081c565b8160018114610784576002811461078e576107bd565b600191505061081c565b60ff8411156107a05761079f610901565b5b8360020a9150848211156107b7576107b6610901565b5b5061081c565b5060208310610133831016604e8410600b84101617156107f25782820a9050838111156107ed576107ec610901565b5b61081c565b6107ff84848460016106b2565b9250905081840481111561081657610815610901565b5b81810290505b9392505050565b600061082e8261087d565b91506108398361087d565b9250817fffffffffffffffffffffffffffffffffffffffffffffffffffffffffffffffff048311821515161561087257610871610901565b5b828202905092915050565b6000819050919050565b60006108928261087d565b91507fffffffffffffffffffffffffffffffffffffffffffffffffffffffffffffffff8214156108c5576108c4610901565b5b600182019050919050565b60006108db8261087d565b91506108e68361087d565b9250826108f6576108f5610930565b5b828206905092915050565b7f4e487b7100000000000000000000000000000000000000000000000000000000600052601160045260246000fd5b7f4e487b7100000000000000000000000000000000000000000000000000000000600052601260045260246000fd5b60008160011c9050919050565b6109758161087d565b811461098057600080fd5b5056fe000000000000000100000000000000020000000000000004000000000000000800000000000000100000000000000020000000000000004000000000000000800000000000000100000000000000020000000000000004000000000000000800000000000000100000000000000020000000000000004000000000000000800000000000000100000000000000020000000000000004000000000000000800000000000000100000000000000020000000000000004000000000000000800000000000000100000000000000020000000000000004000000000000000800000000000000100000000000000020000000000000004000000000000000800000000000000100000000000000020000000000000004000000000000000800000000000000100000000000000020000000000000004000000000000000800000000000000100000000000000020000000000000004000000000000000800000000000000100000000000000020000000000000004000000000000000800000000000000100000000000000020000000000000004000000000000000800000000000000100000000000000020000000000000004000000000000000800000000000000100000000000000020000000000000004000000000000000800000000000000100000000000000020000000000000000de0b6b3a76400000de0b6b3a76400010de0b6b3a76400020de0b6b3a76400050de0b6b3a764000b0de0b6b3a76400160de0b6b3a764002c0de0b6b3a76400580de0b6b3a76400b10de0b6b3a76401620de0b6b3a76402c50de0b6b3a764058b0de0b6b3a7640b170de0b6b3a764162e0de0b6b3a7642c5c0de0b6b3a76458b90de0b6b3a764b1720de0b6b3a76562e40de0b6b3a766c5c80de0b6b3a7698b900de0b6b3a76f17210de0b6b3a77a2e420de0b6b3a7905c850de0b6b3a7bcb90b0de0b6b3a81572170de0b6b3a8c6e42f0de0b6b3aa29c85f0de0b6b3acef90bf0de0b6b3b27b217f0de0b6b3bd9242ff0de0b6b3d3c085fe0de0b6b4001d0bfd0de0b6b458d617fc0de0b6b50a4830010de0b6b66d2c60260de0b6b932f4c0da0de0b6bebe8583eb0de0b6c9d5a710b30de0b6e003ea44db0de0b70c607117840de0b765198066410de0b8168ba5a9640de0b979700ac64c0de0bc3f393f5ab50de0c1cacd51ee520de0cce1fc1cc3c60de0e3107449406e0de10f6dcefe47050de1682a2ddebc000de219a991aadb930de37cc2f2fcb7380de6436028ee3a220debd244c555d3b40df6f6b9dbcc5f410e0d5a6c6ea8a8410e3a8dbbd2b7e9d50e96aa5bb87c13840f55ef96062919dd10f25db82c317ea514b1c2442ffabe3c1edbf25de7a70f72449e9dd02d2817d4a2646970667358221220a776ad886fa8bb4cb9a8391dcaf1d1a2caa995e31ec8b10d76efdf0d771704fa64736f6c63430008000033",
  "linkReferences": {},
  "deployedLinkReferences": {}
}