{
  "_format": "hh-sol-artifact-1",
  "contractName": "MathHarness",
  "sourceName": "hardhat/contracts/MathHarness.sol",
  "abi": [
    {
      "inputs": [
        {
          "internalType": "uint256",
          "name": "index",
          "type": "uint256"
        }
      ],
      "name": "exponent_table_lookup",
      "outputs": [
        {
          "internalType": "uint256",
          "name": "",
          "type": "uint256"
        }
      ],
      "stateMutability": "pure",
      "type": "function"
    },
    {
      "inputs": [
        {
          "internalType": "uint256",
          "name": "exponent",
          "type": "uint256"
        }
      ],
      "name": "exponentiate",
      "outputs": [
        {
          "internalType": "uint256",
          "name": "",
          "type": "uint256"
        }
      ],
      "stateMutability": "pure",
      "type": "function"
    },
    {
      "inputs": [
        {
          "internalType": "uint256",
          "name": "operand",
          "type": "uint256"
        }
      ],
      "name": "logarithm",
      "outputs": [
        {
          "internalType": "uint256",
          "name": "",
          "type": "uint256"
        }
      ],
      "stateMutability": "pure",
      "type": "function"
    },
    {
      "inputs": [
        {
          "internalType": "uint256",
          "name": "base",
          "type": "uint256"
        },
        {
          "internalType": "uint256",
          "name": "exponent",
          "type": "uint256"
        }
      ],
      "name": "power",
      "outputs": [
        {
          "internalType": "uint256",
          "name": "",
          "type": "uint256"
        }
      ],
      "stateMutability": "pure",
      "type": "function"
    },
    {
      "inputs": [
        {
          "internalType": "uint256",
          "name": "index",
          "type": "uint256"
        }
      ],
      "name": "power_of_two_lookup",
      "outputs": [
        {
          "internalType": "uint256",
          "name": "",
          "type": "uint256"
        }
      ],
      "stateMutability": "pure",
      "type": "function"
    }
  ],
  "bytecode": "0x608060405234801561001057600080fd5b50610c12806100206000396000f3fe608060405234801561001057600080fd5b50600436106100575760003560e01c80631818bb3e1461005c57806361c76f891461008c5780636ca34af7146100bc5780639fdfe442146100ec578063c04f01fc1461011c575b600080fd5b610076600480360381019061007191906103f3565b61014c565b60405161008391906104ba565b60405180910390f35b6100a660048036038101906100a191906103f3565b61015e565b6040516100b391906104ba565b60405180910390f35b6100d660048036038101906100d191906103f3565b610170565b6040516100e391906104ba565b60405180910390f35b610106600480360381019061010191906103f3565b610202565b60405161011391906104ba565b60405180910390f35b61013660048036038101906101319190610445565b610294565b60405161014391906104ba565b60405180910390f35b6000610157826102b1565b9050919050565b60006101698261030c565b9050919050565b60008173__$43e6f41f20fb862aeed332b486e44cb4c2$__636ca34af790916040518263ffffffff1660e01b81526004016101ab919061049f565b60206040518083038186803b1580156101c357600080fd5b505af41580156101d7573d6000803e3d6000fd5b505050506040513d601f19601f820116820180604052508101906101fb919061041c565b9050919050565b60008173__$43e6f41f20fb862aeed332b486e44cb4c2$__639fdfe44290916040518263ffffffff1660e01b815260040161023d919061049f565b60206040518083038186803b15801561025557600080fd5b505af4158015610269573d6000803e3d6000fd5b505050506040513d601f19601f8201168201806040525081019061028d919061041c565b9050919050565b60006102a9828461036790919063ffffffff16565b905092915050565b6000806040518061022001604052806101f081526020016107fd6101f091399050600060088460086102e391906106cd565b6102ed91906104d5565b905060008183015190508067ffffffffffffffff169350505050919050565b6000806040518061022001604052806101f081526020016109ed6101f0913990506000600884600861033e91906106cd565b61034891906104d5565b905060008183015190508067ffffffffffffffff169350505050919050565b6000806012600a61037891906105af565b905060005b838110156103be576012600a61039391906105af565b858361039f91906106cd565b6103a9919061052b565b915080806103b690610731565b91505061037d565b508091505092915050565b6000813590506103d8816107e5565b92915050565b6000815190506103ed816107e5565b92915050565b60006020828403121561040557600080fd5b6000610413848285016103c9565b91505092915050565b60006020828403121561042e57600080fd5b600061043c848285016103de565b91505092915050565b6000806040838503121561045857600080fd5b6000610466858286016103c9565b9250506020610477858286016103c9565b9150509250929050565b61048a81610727565b82525050565b61049981610727565b82525050565b60006020820190506104b46000830184610490565b92915050565b60006020820190506104cf6000830184610481565b92915050565b60006104e082610727565b91506104eb83610727565b9250827fffffffffffffffffffffffffffffffffffffffffffffffffffffffffffffffff038211156105205761051f61077a565b5b828201905092915050565b600061053682610727565b915061054183610727565b925082610551576105506107a9565b5b828204905092915050565b6000808291508390505b60018511156105a6578086048111156105825761058161077a565b5b60018516156105915780820291505b808102905061059f856107d8565b9450610566565b94509492505050565b60006105ba82610727565b91506105c583610727565b92506105f27fffffffffffffffffffffffffffffffffffffffffffffffffffffffffffffffff84846105fa565b905092915050565b60008261060a57600190506106c6565b8161061857600090506106c6565b816001811461062e576002811461063857610667565b60019150506106c6565b60ff84111561064a5761064961077a565b5b8360020a9150848211156106615761066061077a565b5b506106c6565b5060208310610133831016604e8410600b841016171561069c5782820a9050838111156106975761069661077a565b5b6106c6565b6106a9848484600161055c565b925090508184048111156106c0576106bf61077a565b5b81810290505b9392505050565b60006106d882610727565b91506106e383610727565b9250817fffffffffffffffffffffffffffffffffffffffffffffffffffffffffffffffff048311821515161561071c5761071b61077a565b5b828202905092915050565b6000819050919050565b600061073c82610727565b91507fffffffffffffffffffffffffffffffffffffffffffffffffffffffffffffffff82141561076f5761076e61077a565b5b600182019050919050565b7f4e487b7100000000000000000000000000000000000000000000000000000000600052601160045260246000fd5b7f4e487b7100000000000000000000000000000000000000000000000000000000600052601260045260246000fd5b60008160011c9050919050565b6107ee81610727565b81146107f957600080fd5b5056fe000000000000000100000000000000020000000000000004000000000000000800000000000000100000000000000020000000000000004000000000000000800000000000000100000000000000020000000000000004000000000000000800000000000000100000000000000020000000000000004000000000000000800000000000000100000000000000020000000000000004000000000000000800000000000000100000000000000020000000000000004000000000000000800000000000000100000000000000020000000000000004000000000000000800000000000000100000000000000020000000000000004000000000000000800000000000000100000000000000020000000000000004000000000000000800000000000000100000000000000020000000000000004000000000000000800000000000000100000000000000020000000000000004000000000000000800000000000000100000000000000020000000000000004000000000000000800000000000000100000000000000020000000000000004000000000000000800000000000000100000000000000020000000000000004000000000000000800000000000000100000000000000020000000000000004000000000000000800000000000000100000000000000020000000000000000de0b6b3a76400000de0b6b3a76400010de0b6b3a76400020de0b6b3a76400050de0b6b3a764000b0de0b6b3a76400160de0b6b3a764002c0de0b6b3a76400580de0b6b3a76400b10de0b6b3a76401620de0b6b3a76402c50de0b6b3a764058b0de0b6b3a7640b170de0b6b3a764162e0de0b6b3a7642c5c0de0b6b3a76458b90de0b6b3a764b1720de0b6b3a76562e40de0b6b3a766c5c80de0b6b3a7698b900de0b6b3a76f17210de0b6b3a77a2e420de0b6b3a7905c850de0b6b3a7bcb90b0de0b6b3a81572170de0b6b3a8c6e42f0de0b6b3aa29c85f0de0b6b3acef90bf0de0b6b3b27b217f0de0b6b3bd9242ff0de0b6b3d3c085fe0de0b6b4001d0bfd0de0b6b458d617fc0de0b6b50a4830010de0b6b66d2c60260de0b6b932f4c0da0de0b6bebe8583eb0de0b6c9d5a710b30de0b6e003ea44db0de0b70c607117840de0b765198066410de0b8168ba5a9640de0b979700ac64c0de0bc3f393f5ab50de0c1cacd51ee520de0cce1fc1cc3c60de0e3107449406e0de10f6dcefe47050de1682a2ddebc000de219a991aadb930de37cc2f2fcb7380de6436028ee3a220debd244c555d3b40df6f6b9dbcc5f410e0d5a6c6ea8a8410e3a8dbbd2b7e9d50e96aa5bb87c13840f55ef96062919dd10f25db82c317ea514b1c2442ffabe3c1edbf25de7a70f72449e9dd02d2817d4a26469706673582212206a89f72f580229e1b83963c605c367f771bd0450fc61029477c0ccb153c5babf64736f6c63430008000033",
  "linkReferences": {
    "hardhat/contracts/Libraries/Math.sol": {
      "Math": [
        {
          "length": 20,
          "start": 405
        },
        {
          "length": 20,
          "start": 551
        }
      ]
    }
  },
  "deployedLinkReferences": {
    "hardhat/contracts/Libraries/Math.sol": {
      "Math": [
        {
          "length": 20,
          "start": 373
        },
        {
          "length": 20,
          "start": 519
        }
      ]
    }
  }
}