{
  "_format": "hh-sol-artifact-1",
  "contractName": "MathHarness",
  "sourceName": "hardhat/contracts/MathHarness.sol",
  "abi": [
    {
      "inputs": [
        {
          "internalType": "uint256",
          "name": "index",
          "type": "uint256"
        }
      ],
      "name": "exponent_table_lookup",
      "outputs": [
        {
          "internalType": "uint256",
          "name": "",
          "type": "uint256"
        }
      ],
      "stateMutability": "pure",
      "type": "function"
    },
    {
      "inputs": [
        {
          "internalType": "uint256",
          "name": "exponent",
          "type": "uint256"
        }
      ],
      "name": "exponentiate",
      "outputs": [
        {
          "internalType": "uint256",
          "name": "",
          "type": "uint256"
        }
      ],
      "stateMutability": "pure",
      "type": "function"
    },
    {
      "inputs": [
        {
          "internalType": "uint256",
          "name": "operand",
          "type": "uint256"
        }
      ],
      "name": "logarithm",
      "outputs": [
        {
          "internalType": "uint256",
          "name": "",
          "type": "uint256"
        }
      ],
      "stateMutability": "pure",
      "type": "function"
    },
    {
      "inputs": [
        {
          "internalType": "uint256",
          "name": "index",
          "type": "uint256"
        }
      ],
      "name": "power_of_two_lookup",
      "outputs": [
        {
          "internalType": "uint256",
          "name": "",
          "type": "uint256"
        }
      ],
      "stateMutability": "pure",
      "type": "function"
    }
  ],
  "bytecode": "0x608060405234801561001057600080fd5b50610dc9806100206000396000f3fe608060405234801561001057600080fd5b506004361061004c5760003560e01c80631818bb3e1461005157806361c76f89146100815780636ca34af7146100b15780639fdfe442146100e1575b600080fd5b61006b60048036038101906100669190610597565b610111565b604051610078919061062f565b60405180910390f35b61009b60048036038101906100969190610597565b610123565b6040516100a8919061062f565b60405180910390f35b6100cb60048036038101906100c69190610597565b610135565b6040516100d8919061062f565b60405180910390f35b6100fb60048036038101906100f69190610597565b610147565b604051610108919061062f565b60405180910390f35b600061011c82610159565b9050919050565b600061012e826101b4565b9050919050565b60006101408261020f565b9050919050565b60006101528261047b565b9050919050565b6000806040518061022001604052806101f081526020016109b46101f0913990506000600884600861018b9190610853565b610195919061065b565b905060008183015190508067ffffffffffffffff169350505050919050565b6000806040518061022001604052806101f08152602001610ba46101f091399050600060088460086101e69190610853565b6101f0919061065b565b905060008183015190508067ffffffffffffffff169350505050919050565b6000806012600a6102209190610735565b8361022b91906106b1565b905060008111610270576040517f08c379a00000000000000000000000000000000000000000000000000000000081526004016102679061060f565b60405180910390fd5b600070010000000000000000000000000000000082106102a157608082901c915060808161029e919061065b565b90505b6801000000000000000082106102c857604082901c91506040816102c5919061065b565b90505b64010000000082106102eb57602082901c91506020816102e8919061065b565b90505b62010000821061030c57601082901c9150601081610309919061065b565b90505b610100821061032c57600882901c9150600881610329919061065b565b90505b6010821061034b57600482901c9150600481610348919061065b565b90505b6004821061036a57600282901c9150600281610367919061065b565b90505b600282106103825760018161037f919061065b565b90505b6012600a6103909190610735565b8161039b9190610853565b90506012600a6103ab9190610735565b816103b691906106b1565b60026103c29190610735565b846103cd91906106b1565b91506000806012600a6103e09190610735565b90505b6000811115610464576012600a6103fa9190610735565b60026104069190610853565b841061042a578082610418919061065b565b915060028461042791906106b1565b93505b6012600a6104389190610735565b84856104449190610853565b61044e91906106b1565b935060028161045d91906106b1565b90506103e3565b508181610471919061065b565b9350505050919050565b6000806012600a61048c9190610735565b8361049791906106b1565b905060006012600a6104a99190610735565b846104b49190610900565b905060006012600a6104c69190610735565b8360026104d39190610735565b6104dd9190610853565b905060006012600a6104ef9190610735565b905060005b603e8110156105525760008461050983610159565b16111561053f576012600a61051e9190610735565b610527826101b4565b836105329190610853565b61053c91906106b1565b91505b808061054a906108b7565b9150506104f4565b506012600a6105619190610735565b818361056d9190610853565b61057791906106b1565b945050505050919050565b6000813590506105918161099c565b92915050565b6000602082840312156105a957600080fd5b60006105b784828501610582565b91505092915050565b60006105cd601c8361064a565b91507f6c6f6761726974686d3a206f706572616e6420746f6f20736d616c6c000000006000830152602082019050919050565b610609816108ad565b82525050565b60006020820190508181036000830152610628816105c0565b9050919050565b60006020820190506106446000830184610600565b92915050565b600082825260208201905092915050565b6000610666826108ad565b9150610671836108ad565b9250827fffffffffffffffffffffffffffffffffffffffffffffffffffffffffffffffff038211156106a6576106a5610931565b5b828201905092915050565b60006106bc826108ad565b91506106c7836108ad565b9250826106d7576106d6610960565b5b828204905092915050565b6000808291508390505b600185111561072c5780860481111561070857610707610931565b5b60018516156107175780820291505b80810290506107258561098f565b94506106ec565b94509492505050565b6000610740826108ad565b915061074b836108ad565b92506107787fffffffffffffffffffffffffffffffffffffffffffffffffffffffffffffffff8484610780565b905092915050565b600082610790576001905061084c565b8161079e576000905061084c565b81600181146107b457600281146107be576107ed565b600191505061084c565b60ff8411156107d0576107cf610931565b5b8360020a9150848211156107e7576107e6610931565b5b5061084c565b5060208310610133831016604e8410600b84101617156108225782820a90508381111561081d5761081c610931565b5b61084c565b61082f84848460016106e2565b9250905081840481111561084657610845610931565b5b81810290505b9392505050565b600061085e826108ad565b9150610869836108ad565b9250817fffffffffffffffffffffffffffffffffffffffffffffffffffffffffffffffff04831182151516156108a2576108a1610931565b5b828202905092915050565b6000819050919050565b60006108c2826108ad565b91507fffffffffffffffffffffffffffffffffffffffffffffffffffffffffffffffff8214156108f5576108f4610931565b5b600182019050919050565b600061090b826108ad565b9150610916836108ad565b92508261092657610925610960565b5b828206905092915050565b7f4e487b7100000000000000000000000000000000000000000000000000000000600052601160045260246000fd5b7f4e487b7100000000000000000000000000000000000000000000000000000000600052601260045260246000fd5b60008160011c9050919050565b6109a5816108ad565b81146109b057600080fd5b5056fe000000000000000100000000000000020000000000000004000000000000000800000000000000100000000000000020000000000000004000000000000000800000000000000100000000000000020000000000000004000000000000000800000000000000100000000000000020000000000000004000000000000000800000000000000100000000000000020000000000000004000000000000000800000000000000100000000000000020000000000000004000000000000000800000000000000100000000000000020000000000000004000000000000000800000000000000100000000000000020000000000000004000000000000000800000000000000100000000000000020000000000000004000000000000000800000000000000100000000000000020000000000000004000000000000000800000000000000100000000000000020000000000000004000000000000000800000000000000100000000000000020000000000000004000000000000000800000000000000100000000000000020000000000000004000000000000000800000000000000100000000000000020000000000000004000000000000000800000000000000100000000000000020000000000000004000000000000000800000000000000100000000000000020000000000000000de0b6b3a76400000de0b6b3a76400010de0b6b3a76400020de0b6b3a76400050de0b6b3a764000b0de0b6b3a76400160de0b6b3a764002c0de0b6b3a76400580de0b6b3a76400b10de0b6b3a76401620de0b6b3a76402c50de0b6b3a764058b0de0b6b3a7640b170de0b6b3a764162e0de0b6b3a7642c5c0de0b6b3a76458b90de0b6b3a764b1720de0b6b3a76562e40de0b6b3a766c5c80de0b6b3a7698b900de0b6b3a76f17210de0b6b3a77a2e420de0b6b3a7905c850de0b6b3a7bcb90b0de0b6b3a81572170de0b6b3a8c6e42f0de0b6b3aa29c85f0de0b6b3acef90bf0de0b6b3b27b217f0de0b6b3bd9242ff0de0b6b3d3c085fe0de0b6b4001d0bfd0de0b6b458d617fc0de0b6b50a4830010de0b6b66d2c60260de0b6b932f4c0da0de0b6bebe8583eb0de0b6c9d5a710b30de0b6e003ea44db0de0b70c607117840de0b765198066410de0b8168ba5a9640de0b979700ac64c0de0bc3f393f5ab50de0c1cacd51ee520de0cce1fc1cc3c60de0e3107449406e0de10f6dcefe47050de1682a2ddebc000de219a991aadb930de37cc2f2fcb7380de6436028ee3a220debd244c555d3b40df6f6b9dbcc5f410e0d5a6c6ea8a8410e3a8dbbd2b7e9d50e96aa5bb87c13840f55ef96062919dd10f25db82c317ea514b1c2442ffabe3c1edbf25de7a70f72449e9dd02d2817d4a2646970667358221220bc8f52e75469874c2a38c73d47d65dda2442f235cae6de5011192b13745f405664736f6c63430008000033",
  "linkReferences": {},
  "deployedLinkReferences": {}
}