{
  "_format": "hh-sol-artifact-1",
  "contractName": "Round",
  "sourceName": "hardhat/contracts/Round.sol",
  "abi": [
    {
      "inputs": [
        {
          "internalType": "uint256",
          "name": "N",
          "type": "uint256"
        },
        {
          "internalType": "uint256",
          "name": "b",
          "type": "uint256"
        },
        {
          "internalType": "uint256",
          "name": "delta",
          "type": "uint256"
        },
        {
          "internalType": "address",
          "name": "asset",
          "type": "address"
        },
        {
          "internalType": "address",
          "name": "vault_address",
          "type": "address"
        },
        {
          "internalType": "uint256",
          "name": "expiry_timestamp",
          "type": "uint256"
        },
        {
          "internalType": "address",
          "name": "aggregator",
          "type": "address"
        }
      ],
      "stateMutability": "nonpayable",
      "type": "constructor"
    },
    {
      "anonymous": false,
      "inputs": [
        {
          "indexed": true,
          "internalType": "address",
          "name": "previousOwner",
          "type": "address"
        },
        {
          "indexed": true,
          "internalType": "address",
          "name": "newOwner",
          "type": "address"
        }
      ],
      "name": "OwnershipTransferred",
      "type": "event"
    },
    {
      "anonymous": false,
      "inputs": [
        {
          "indexed": false,
          "internalType": "uint256",
          "name": "earnings",
          "type": "uint256"
        },
        {
          "indexed": false,
          "internalType": "uint256",
          "name": "payout",
          "type": "uint256"
        },
        {
          "indexed": false,
          "internalType": "uint256",
          "name": "timestamp",
          "type": "uint256"
        }
      ],
      "name": "roundEnded",
      "type": "event"
    },
    {
      "inputs": [],
      "name": "_N",
      "outputs": [
        {
          "internalType": "uint256",
          "name": "",
          "type": "uint256"
        }
      ],
      "stateMutability": "view",
      "type": "function"
    },
    {
      "inputs": [],
      "name": "_asset",
      "outputs": [
        {
          "internalType": "contract ERC20",
          "name": "",
          "type": "address"
        }
      ],
      "stateMutability": "view",
      "type": "function"
    },
    {
      "inputs": [],
      "name": "_asset_decimals",
      "outputs": [
        {
          "internalType": "uint256",
          "name": "",
          "type": "uint256"
        }
      ],
      "stateMutability": "view",
      "type": "function"
    },
    {
      "inputs": [],
      "name": "_b",
      "outputs": [
        {
          "internalType": "uint256",
          "name": "",
          "type": "uint256"
        }
      ],
      "stateMutability": "view",
      "type": "function"
    },
    {
      "inputs": [],
      "name": "_debt",
      "outputs": [
        {
          "internalType": "uint256",
          "name": "",
          "type": "uint256"
        }
      ],
      "stateMutability": "view",
      "type": "function"
    },
    {
      "inputs": [],
      "name": "_delta",
      "outputs": [
        {
          "internalType": "uint256",
          "name": "",
          "type": "uint256"
        }
      ],
      "stateMutability": "view",
      "type": "function"
    },
    {
      "inputs": [],
      "name": "_earnings",
      "outputs": [
        {
          "internalType": "uint256",
          "name": "",
          "type": "uint256"
        }
      ],
      "stateMutability": "view",
      "type": "function"
    },
    {
      "inputs": [],
      "name": "_expiry_timestamp",
      "outputs": [
        {
          "internalType": "uint256",
          "name": "",
          "type": "uint256"
        }
      ],
      "stateMutability": "view",
      "type": "function"
    },
    {
      "inputs": [],
      "name": "_final_bucket",
      "outputs": [
        {
          "internalType": "uint256",
          "name": "",
          "type": "uint256"
        }
      ],
      "stateMutability": "view",
      "type": "function"
    },
    {
      "inputs": [],
      "name": "_final_price",
      "outputs": [
        {
          "internalType": "uint256",
          "name": "",
          "type": "uint256"
        }
      ],
      "stateMutability": "view",
      "type": "function"
    },
    {
      "inputs": [
        {
          "internalType": "address",
          "name": "",
          "type": "address"
        }
      ],
      "name": "_paid_out",
      "outputs": [
        {
          "internalType": "uint256",
          "name": "",
          "type": "uint256"
        }
      ],
      "stateMutability": "view",
      "type": "function"
    },
    {
      "inputs": [],
      "name": "_payout",
      "outputs": [
        {
          "internalType": "uint256",
          "name": "",
          "type": "uint256"
        }
      ],
      "stateMutability": "view",
      "type": "function"
    },
    {
      "inputs": [],
      "name": "_round_ended",
      "outputs": [
        {
          "internalType": "bool",
          "name": "",
          "type": "bool"
        }
      ],
      "stateMutability": "view",
      "type": "function"
    },
    {
      "inputs": [],
      "name": "_start_timestamp",
      "outputs": [
        {
          "internalType": "uint256",
          "name": "",
          "type": "uint256"
        }
      ],
      "stateMutability": "view",
      "type": "function"
    },
    {
      "inputs": [
        {
          "internalType": "address",
          "name": "token_address",
          "type": "address"
        }
      ],
      "name": "attachToken",
      "outputs": [],
      "stateMutability": "nonpayable",
      "type": "function"
    },
    {
      "inputs": [],
      "name": "endRound",
      "outputs": [],
      "stateMutability": "nonpayable",
      "type": "function"
    },
    {
      "inputs": [],
      "name": "getAssetAddress",
      "outputs": [
        {
          "internalType": "address",
          "name": "",
          "type": "address"
        }
      ],
      "stateMutability": "view",
      "type": "function"
    },
    {
      "inputs": [
        {
          "internalType": "uint256",
          "name": "bucket",
          "type": "uint256"
        }
      ],
      "name": "getBucketPrice",
      "outputs": [
        {
          "internalType": "uint256",
          "name": "",
          "type": "uint256"
        }
      ],
      "stateMutability": "view",
      "type": "function"
    },
    {
      "inputs": [],
      "name": "owner",
      "outputs": [
        {
          "internalType": "address",
          "name": "",
          "type": "address"
        }
      ],
      "stateMutability": "view",
      "type": "function"
    },
    {
      "inputs": [
        {
          "internalType": "uint256",
          "name": "bucket",
          "type": "uint256"
        },
        {
          "internalType": "uint256",
          "name": "amount",
          "type": "uint256"
        }
      ],
      "name": "purchase",
      "outputs": [],
      "stateMutability": "nonpayable",
      "type": "function"
    },
    {
      "inputs": [
        {
          "internalType": "uint256",
          "name": "start",
          "type": "uint256"
        },
        {
          "internalType": "uint256",
          "name": "end",
          "type": "uint256"
        },
        {
          "internalType": "uint256",
          "name": "amount",
          "type": "uint256"
        }
      ],
      "name": "purchaseRange",
      "outputs": [],
      "stateMutability": "nonpayable",
      "type": "function"
    },
    {
      "inputs": [
        {
          "internalType": "uint256",
          "name": "bucket",
          "type": "uint256"
        },
        {
          "internalType": "uint256",
          "name": "amount",
          "type": "uint256"
        },
        {
          "internalType": "bool",
          "name": "left",
          "type": "bool"
        }
      ],
      "name": "purchaseSlope",
      "outputs": [],
      "stateMutability": "nonpayable",
      "type": "function"
    },
    {
      "inputs": [],
      "name": "redeem",
      "outputs": [],
      "stateMutability": "nonpayable",
      "type": "function"
    },
    {
      "inputs": [],
      "name": "renounceOwnership",
      "outputs": [],
      "stateMutability": "nonpayable",
      "type": "function"
    },
    {
      "inputs": [
        {
          "internalType": "address",
          "name": "newOwner",
          "type": "address"
        }
      ],
      "name": "transferOwnership",
      "outputs": [],
      "stateMutability": "nonpayable",
      "type": "function"
    }
  ],
  "bytecode": "0x60806040523480156200001157600080fd5b50604051620029ab380380620029ab833981810160405281019062000037919062000364565b6000620000496200031760201b60201c565b9050806000806101000a81548173ffffffffffffffffffffffffffffffffffffffff021916908373ffffffffffffffffffffffffffffffffffffffff1602179055508073ffffffffffffffffffffffffffffffffffffffff16600073ffffffffffffffffffffffffffffffffffffffff167f8be0079c531659141344cd1fd0a4f28419497f9722a3daafe3b4186f6b6457e060405160405180910390a350600087116200012d576040517f08c379a000000000000000000000000000000000000000000000000000000000815260040162000124906200052f565b60405180910390fd5b86600181905550600086116200017a576040517f08c379a000000000000000000000000000000000000000000000000000000000815260040162000171906200050d565b60405180910390fd5b84600381905550816006819055504260058190555083600e60006101000a81548173ffffffffffffffffffffffffffffffffffffffff021916908373ffffffffffffffffffffffffffffffffffffffff160217905550600e60009054906101000a900473ffffffffffffffffffffffffffffffffffffffff1673ffffffffffffffffffffffffffffffffffffffff1663313ce5676040518163ffffffff1660e01b815260040160206040518083038186803b1580156200023957600080fd5b505afa1580156200024e573d6000803e3d6000fd5b505050506040513d601f19601f8201168201806040525081019062000274919062000411565b600a620002829190620005bd565b600d8190555082601260006101000a81548173ffffffffffffffffffffffffffffffffffffffff021916908373ffffffffffffffffffffffffffffffffffffffff16021790555080601160006101000a81548173ffffffffffffffffffffffffffffffffffffffff021916908373ffffffffffffffffffffffffffffffffffffffff16021790555050505050505050620007cf565b600033905090565b600081519050620003308162000781565b92915050565b60008151905062000347816200079b565b92915050565b6000815190506200035e81620007b5565b92915050565b600080600080600080600060e0888a0312156200038057600080fd5b6000620003908a828b0162000336565b9750506020620003a38a828b0162000336565b9650506040620003b68a828b0162000336565b9550506060620003c98a828b016200031f565b9450506080620003dc8a828b016200031f565b93505060a0620003ef8a828b0162000336565b92505060c0620004028a828b016200031f565b91505092959891949750929550565b6000602082840312156200042457600080fd5b600062000434848285016200034d565b91505092915050565b60006200044c60218362000551565b91507f636f6e7374727563746f723a20622073686f756c6420626520706f736974697660008301527f65000000000000000000000000000000000000000000000000000000000000006020830152604082019050919050565b6000620004b460218362000551565b91507f636f6e7374727563746f723a204e2073686f756c6420626520706f736974697660008301527f65000000000000000000000000000000000000000000000000000000000000006020830152604082019050919050565b6000602082019050818103600083015262000528816200043d565b9050919050565b600060208201905081810360008301526200054a81620004a5565b9050919050565b600082825260208201905092915050565b6000808291508390505b6001851115620005b4578086048111156200058c576200058b62000745565b5b60018516156200059c5780820291505b8081029050620005ac8562000774565b94506200056c565b94509492505050565b6000620005ca826200072e565b9150620005d78362000738565b9250620006067fffffffffffffffffffffffffffffffffffffffffffffffffffffffffffffffff84846200060e565b905092915050565b600082620006205760019050620006f3565b81620006305760009050620006f3565b816001811462000649576002811462000654576200068a565b6001915050620006f3565b60ff84111562000669576200066862000745565b5b8360020a91508482111562000683576200068262000745565b5b50620006f3565b5060208310610133831016604e8410600b8410161715620006c45782820a905083811115620006be57620006bd62000745565b5b620006f3565b620006d3848484600162000562565b92509050818404811115620006ed57620006ec62000745565b5b81810290505b9392505050565b600062000707826200070e565b9050919050565b600073ffffffffffffffffffffffffffffffffffffffff82169050919050565b6000819050919050565b600060ff82169050919050565b7f4e487b7100000000000000000000000000000000000000000000000000000000600052601160045260246000fd5b60008160011c9050919050565b6200078c81620006fa565b81146200079857600080fd5b50565b620007a6816200072e565b8114620007b257600080fd5b50565b620007c08162000738565b8114620007cc57600080fd5b50565b6121cc80620007df6000396000f3fe608060405234801561001057600080fd5b50600436106101735760003560e01c8063715018a6116100de578063be040fb011610097578063f57f333b11610071578063f57f333b146103ce578063f9dd25e6146103ec578063fbcb81211461040a578063fcea5e291461042657610173565b8063be040fb014610378578063de6f56c614610382578063f2fde38b146103b257610173565b8063715018a6146102ec578063749aa2d9146102f657806374b5fb06146103005780638da5cb5b1461031e578063a6f4944d1461033c578063acc0349a1461035a57610173565b80635655bb20116101305780635655bb201461023c57806361092ec71461025a578063655c4aab14610278578063670ab5e9146102965780636d88fae8146102b457806370876c98146102d057610173565b80631ade9391146101785780631ee4cac81461019657806325374996146101b45780632dcbe5bb146101d2578063406a6f60146102025780634abc2a2b1461021e575b600080fd5b610180610444565b60405161018d9190611ce3565b60405180910390f35b61019e61044a565b6040516101ab9190611ce3565b60405180910390f35b6101bc610450565b6040516101c99190611ce3565b60405180910390f35b6101ec60048036038101906101e79190611623565b610456565b6040516101f99190611ce3565b60405180910390f35b61021c60048036038101906102179190611623565b61046e565b005b6102266105bf565b6040516102339190611ce3565b60405180910390f35b6102446105c5565b6040516102519190611ce3565b60405180910390f35b6102626105cb565b60405161026f9190611ce3565b60405180910390f35b6102806105d1565b60405161028d9190611ce3565b60405180910390f35b61029e6105d7565b6040516102ab9190611ac4565b60405180910390f35b6102ce60048036038101906102c9919061177b565b610601565b005b6102ea60048036038101906102e591906116f0565b610814565b005b6102f4610a24565b005b6102fe610b5e565b005b610308610e44565b6040516103159190611ce3565b60405180910390f35b610326610e4a565b6040516103339190611ac4565b60405180910390f35b610344610e73565b6040516103519190611bad565b60405180910390f35b610362610e86565b60405161036f9190611ce3565b60405180910390f35b610380610e8c565b005b61039c6004803603810190610397919061169e565b6110fb565b6040516103a99190611ce3565b60405180910390f35b6103cc60048036038101906103c79190611623565b6111af565b005b6103d6611358565b6040516103e39190611ce3565b60405180910390f35b6103f461135e565b6040516104019190611ce3565b60405180910390f35b610424600480360381019061041f919061172c565b611364565b005b61042e611577565b60405161043b9190611bc8565b60405180910390f35b60045481565b60035481565b60025481565b600c6020528060005260406000206000915090505481565b61047661159d565b73ffffffffffffffffffffffffffffffffffffffff16610494610e4a565b73ffffffffffffffffffffffffffffffffffffffff16146104ea576040517f08c379a00000000000000000000000000000000000000000000000000000000081526004016104e190611ca3565b60405180910390fd5b600073ffffffffffffffffffffffffffffffffffffffff16601060009054906101000a900473ffffffffffffffffffffffffffffffffffffffff1673ffffffffffffffffffffffffffffffffffffffff161461057b576040517f08c379a000000000000000000000000000000000000000000000000000000000815260040161057290611c43565b60405180910390fd5b80601060006101000a81548173ffffffffffffffffffffffffffffffffffffffff021916908373ffffffffffffffffffffffffffffffffffffffff16021790555050565b60055481565b60015481565b600b5481565b60085481565b6000600e60009054906101000a900473ffffffffffffffffffffffffffffffffffffffff16905090565b6006544210610645576040517f08c379a000000000000000000000000000000000000000000000000000000000815260040161063c90611be3565b60405180910390fd5b6000600f60009054906101000a900473ffffffffffffffffffffffffffffffffffffffff1673ffffffffffffffffffffffffffffffffffffffff166394c5ec65858585336040518563ffffffff1660e01b81526004016106a89493929190611db1565b602060405180830381600087803b1580156106c257600080fd5b505af11580156106d6573d6000803e3d6000fd5b505050506040513d601f19601f820116820180604052508101906106fa91906116c7565b9050806004600082825461070e9190611e07565b92505081905550600e60009054906101000a900473ffffffffffffffffffffffffffffffffffffffff1673ffffffffffffffffffffffffffffffffffffffff166323b872dd33601260009054906101000a900473ffffffffffffffffffffffffffffffffffffffff166012600a6107859190611ee1565b600d54866107939190611fff565b61079d9190611e5d565b6040518463ffffffff1660e01b81526004016107bb93929190611adf565b602060405180830381600087803b1580156107d557600080fd5b505af11580156107e9573d6000803e3d6000fd5b505050506040513d601f19601f8201168201806040525081019061080d919061164c565b5050505050565b6006544210610858576040517f08c379a000000000000000000000000000000000000000000000000000000000815260040161084f90611be3565b60405180910390fd5b6000600f60009054906101000a900473ffffffffffffffffffffffffffffffffffffffff1673ffffffffffffffffffffffffffffffffffffffff1663ea3bd5df8484336040518463ffffffff1660e01b81526004016108b993929190611cfe565b602060405180830381600087803b1580156108d357600080fd5b505af11580156108e7573d6000803e3d6000fd5b505050506040513d601f19601f8201168201806040525081019061090b91906116c7565b9050806004600082825461091f9190611e07565b92505081905550600e60009054906101000a900473ffffffffffffffffffffffffffffffffffffffff1673ffffffffffffffffffffffffffffffffffffffff166323b872dd33601260009054906101000a900473ffffffffffffffffffffffffffffffffffffffff166012600a6109969190611ee1565b600d54866109a49190611fff565b6109ae9190611e5d565b6040518463ffffffff1660e01b81526004016109cc93929190611adf565b602060405180830381600087803b1580156109e657600080fd5b505af11580156109fa573d6000803e3d6000fd5b505050506040513d601f19601f82011682018060405250810190610a1e919061164c565b50505050565b610a2c61159d565b73ffffffffffffffffffffffffffffffffffffffff16610a4a610e4a565b73ffffffffffffffffffffffffffffffffffffffff1614610aa0576040517f08c379a0000000000000000000000000000000000000000000000000000000008152600401610a9790611ca3565b60405180910390fd5b600073ffffffffffffffffffffffffffffffffffffffff1660008054906101000a900473ffffffffffffffffffffffffffffffffffffffff1673ffffffffffffffffffffffffffffffffffffffff167f8be0079c531659141344cd1fd0a4f28419497f9722a3daafe3b4186f6b6457e060405160405180910390a360008060006101000a81548173ffffffffffffffffffffffffffffffffffffffff021916908373ffffffffffffffffffffffffffffffffffffffff160217905550565b600654421015610ba3576040517f08c379a0000000000000000000000000000000000000000000000000000000008152600401610b9a90611c03565b60405180910390fd5b600760009054906101000a900460ff1615610bf3576040517f08c379a0000000000000000000000000000000000000000000000000000000008152600401610bea90611c83565b60405180910390fd5b6000601160009054906101000a900473ffffffffffffffffffffffffffffffffffffffff1673ffffffffffffffffffffffffffffffffffffffff166350d25bcd6040518163ffffffff1660e01b815260040160206040518083038186803b158015610c5d57600080fd5b505afa158015610c71573d6000803e3d6000fd5b505050506040513d601f19601f82011682018060405250810190610c959190611675565b905060008113610cda576040517f08c379a0000000000000000000000000000000000000000000000000000000008152600401610cd190611cc3565b60405180910390fd5b600d546012600a610ceb9190611ee1565b82610cf69190611fff565b610d009190611e5d565b6008819055506001600760006101000a81548160ff0219169083151502179055506012600a610d2f9190611ee1565b600354610d3c9190611fff565b600854610d499190611e5d565b600981905550600f60009054906101000a900473ffffffffffffffffffffffffffffffffffffffff1673ffffffffffffffffffffffffffffffffffffffff16635ebd9ded6009546040518263ffffffff1660e01b8152600401610dac9190611ce3565b60206040518083038186803b158015610dc457600080fd5b505afa158015610dd8573d6000803e3d6000fd5b505050506040513d601f19601f82011682018060405250810190610dfc91906116c7565b600a819055507fa595d37bd73a1d6a5691f748eff13b76bfb2b6fb54700836ab39a98a9e3084c4600454600a5442604051610e3993929190611d7a565b60405180910390a150565b600a5481565b60008060009054906101000a900473ffffffffffffffffffffffffffffffffffffffff16905090565b600760009054906101000a900460ff1681565b60065481565b600760009054906101000a900460ff16610edb576040517f08c379a0000000000000000000000000000000000000000000000000000000008152600401610ed290611c63565b60405180910390fd5b6000600f60009054906101000a900473ffffffffffffffffffffffffffffffffffffffff1673ffffffffffffffffffffffffffffffffffffffff1662fdd58e336009546040518363ffffffff1660e01b8152600401610f3b929190611b16565b60206040518083038186803b158015610f5357600080fd5b505afa158015610f67573d6000803e3d6000fd5b505050506040513d601f19601f82011682018060405250810190610f8b91906116c7565b9050600f60009054906101000a900473ffffffffffffffffffffffffffffffffffffffff1673ffffffffffffffffffffffffffffffffffffffff1663f5298aca33600954846040518463ffffffff1660e01b8152600401610fee93929190611b76565b600060405180830381600087803b15801561100857600080fd5b505af115801561101c573d6000803e3d6000fd5b50505050601260009054906101000a900473ffffffffffffffffffffffffffffffffffffffff1673ffffffffffffffffffffffffffffffffffffffff16635c833bfd336012600a61106d9190611ee1565b600d548561107b9190611fff565b6110859190611e5d565b600e60009054906101000a900473ffffffffffffffffffffffffffffffffffffffff166040518463ffffffff1660e01b81526004016110c693929190611b3f565b600060405180830381600087803b1580156110e057600080fd5b505af11580156110f4573d6000803e3d6000fd5b5050505050565b6000600f60009054906101000a900473ffffffffffffffffffffffffffffffffffffffff1673ffffffffffffffffffffffffffffffffffffffff1663de6f56c6836040518263ffffffff1660e01b81526004016111589190611ce3565b60206040518083038186803b15801561117057600080fd5b505afa158015611184573d6000803e3d6000fd5b505050506040513d601f19601f820116820180604052508101906111a891906116c7565b9050919050565b6111b761159d565b73ffffffffffffffffffffffffffffffffffffffff166111d5610e4a565b73ffffffffffffffffffffffffffffffffffffffff161461122b576040517f08c379a000000000000000000000000000000000000000000000000000000000815260040161122290611ca3565b60405180910390fd5b600073ffffffffffffffffffffffffffffffffffffffff168173ffffffffffffffffffffffffffffffffffffffff16141561129b576040517f08c379a000000000000000000000000000000000000000000000000000000000815260040161129290611c23565b60405180910390fd5b8073ffffffffffffffffffffffffffffffffffffffff1660008054906101000a900473ffffffffffffffffffffffffffffffffffffffff1673ffffffffffffffffffffffffffffffffffffffff167f8be0079c531659141344cd1fd0a4f28419497f9722a3daafe3b4186f6b6457e060405160405180910390a3806000806101000a81548173ffffffffffffffffffffffffffffffffffffffff021916908373ffffffffffffffffffffffffffffffffffffffff16021790555050565b60095481565b600d5481565b60065442106113a8576040517f08c379a000000000000000000000000000000000000000000000000000000000815260040161139f90611be3565b60405180910390fd5b6000600f60009054906101000a900473ffffffffffffffffffffffffffffffffffffffff1673ffffffffffffffffffffffffffffffffffffffff1663888515bd858585336040518563ffffffff1660e01b815260040161140b9493929190611d35565b602060405180830381600087803b15801561142557600080fd5b505af1158015611439573d6000803e3d6000fd5b505050506040513d601f19601f8201168201806040525081019061145d91906116c7565b905080600460008282546114719190611e07565b92505081905550600e60009054906101000a900473ffffffffffffffffffffffffffffffffffffffff1673ffffffffffffffffffffffffffffffffffffffff166323b872dd33601260009054906101000a900473ffffffffffffffffffffffffffffffffffffffff166012600a6114e89190611ee1565b600d54866114f69190611fff565b6115009190611e5d565b6040518463ffffffff1660e01b815260040161151e93929190611adf565b602060405180830381600087803b15801561153857600080fd5b505af115801561154c573d6000803e3d6000fd5b505050506040513d601f19601f82011682018060405250810190611570919061164c565b5050505050565b600e60009054906101000a900473ffffffffffffffffffffffffffffffffffffffff1681565b600033905090565b6000813590506115b48161213a565b92915050565b6000813590506115c981612151565b92915050565b6000815190506115de81612151565b92915050565b6000815190506115f381612168565b92915050565b6000813590506116088161217f565b92915050565b60008151905061161d8161217f565b92915050565b60006020828403121561163557600080fd5b6000611643848285016115a5565b91505092915050565b60006020828403121561165e57600080fd5b600061166c848285016115cf565b91505092915050565b60006020828403121561168757600080fd5b6000611695848285016115e4565b91505092915050565b6000602082840312156116b057600080fd5b60006116be848285016115f9565b91505092915050565b6000602082840312156116d957600080fd5b60006116e78482850161160e565b91505092915050565b6000806040838503121561170357600080fd5b6000611711858286016115f9565b9250506020611722858286016115f9565b9150509250929050565b60008060006060848603121561174157600080fd5b600061174f868287016115f9565b9350506020611760868287016115f9565b9250506040611771868287016115ba565b9150509250925092565b60008060006060848603121561179057600080fd5b600061179e868287016115f9565b93505060206117af868287016115f9565b92505060406117c0868287016115f9565b9150509250925092565b6117d381612059565b82525050565b6117e28161206b565b82525050565b6117f1816120ab565b82525050565b6000611804602a83611df6565b91507f746869732066756e6374696f6e206973206e6f742063616c6c61626c6520616660008301527f74657220657870697279000000000000000000000000000000000000000000006020830152604082019050919050565b600061186a602b83611df6565b91507f746869732066756e6374696f6e206973206e6f742063616c6c61626c6520626560008301527f666f7265206578706972790000000000000000000000000000000000000000006020830152604082019050919050565b60006118d0602683611df6565b91507f4f776e61626c653a206e6577206f776e657220697320746865207a65726f206160008301527f64647265737300000000000000000000000000000000000000000000000000006020830152604082019050919050565b6000611936601683611df6565b91507f746f6b656e20616c7265616479206174746163686564000000000000000000006000830152602082019050919050565b6000611976604283611df6565b91507f746869732066756e6374696f6e206973206e6f742063616c6c61626c6520626560008301527f666f72652074686520656e64526f756e6420686173206265656e2063616c6c6560208301527f642e0000000000000000000000000000000000000000000000000000000000006040830152606082019050919050565b6000611a02601c83611df6565b91507f726f756e642068617320616c7265616479206265656e20656e646564000000006000830152602082019050919050565b6000611a42602083611df6565b91507f4f776e61626c653a2063616c6c6572206973206e6f7420746865206f776e65726000830152602082019050919050565b6000611a82601383611df6565b91507f696e76616c69642066696e616c207072696365000000000000000000000000006000830152602082019050919050565b611abe816120a1565b82525050565b6000602082019050611ad960008301846117ca565b92915050565b6000606082019050611af460008301866117ca565b611b0160208301856117ca565b611b0e6040830184611ab5565b949350505050565b6000604082019050611b2b60008301856117ca565b611b386020830184611ab5565b9392505050565b6000606082019050611b5460008301866117ca565b611b616020830185611ab5565b611b6e60408301846117ca565b949350505050565b6000606082019050611b8b60008301866117ca565b611b986020830185611ab5565b611ba56040830184611ab5565b949350505050565b6000602082019050611bc260008301846117d9565b92915050565b6000602082019050611bdd60008301846117e8565b92915050565b60006020820190508181036000830152611bfc816117f7565b9050919050565b60006020820190508181036000830152611c1c8161185d565b9050919050565b60006020820190508181036000830152611c3c816118c3565b9050919050565b60006020820190508181036000830152611c5c81611929565b9050919050565b60006020820190508181036000830152611c7c81611969565b9050919050565b60006020820190508181036000830152611c9c816119f5565b9050919050565b60006020820190508181036000830152611cbc81611a35565b9050919050565b60006020820190508181036000830152611cdc81611a75565b9050919050565b6000602082019050611cf86000830184611ab5565b92915050565b6000606082019050611d136000830186611ab5565b611d206020830185611ab5565b611d2d60408301846117ca565b949350505050565b6000608082019050611d4a6000830187611ab5565b611d576020830186611ab5565b611d6460408301856117d9565b611d7160608301846117ca565b95945050505050565b6000606082019050611d8f6000830186611ab5565b611d9c6020830185611ab5565b611da96040830184611ab5565b949350505050565b6000608082019050611dc66000830187611ab5565b611dd36020830186611ab5565b611de06040830185611ab5565b611ded60608301846117ca565b95945050505050565b600082825260208201905092915050565b6000611e12826120a1565b9150611e1d836120a1565b9250827fffffffffffffffffffffffffffffffffffffffffffffffffffffffffffffffff03821115611e5257611e516120cf565b5b828201905092915050565b6000611e68826120a1565b9150611e73836120a1565b925082611e8357611e826120fe565b5b828204905092915050565b6000808291508390505b6001851115611ed857808604811115611eb457611eb36120cf565b5b6001851615611ec35780820291505b8081029050611ed18561212d565b9450611e98565b94509492505050565b6000611eec826120a1565b9150611ef7836120a1565b9250611f247fffffffffffffffffffffffffffffffffffffffffffffffffffffffffffffffff8484611f2c565b905092915050565b600082611f3c5760019050611ff8565b81611f4a5760009050611ff8565b8160018114611f605760028114611f6a57611f99565b6001915050611ff8565b60ff841115611f7c57611f7b6120cf565b5b8360020a915084821115611f9357611f926120cf565b5b50611ff8565b5060208310610133831016604e8410600b8410161715611fce5782820a905083811115611fc957611fc86120cf565b5b611ff8565b611fdb8484846001611e8e565b92509050818404811115611ff257611ff16120cf565b5b81810290505b9392505050565b600061200a826120a1565b9150612015836120a1565b9250817fffffffffffffffffffffffffffffffffffffffffffffffffffffffffffffffff048311821515161561204e5761204d6120cf565b5b828202905092915050565b600061206482612081565b9050919050565b60008115159050919050565b6000819050919050565b600073ffffffffffffffffffffffffffffffffffffffff82169050919050565b6000819050919050565b60006120b6826120bd565b9050919050565b60006120c882612081565b9050919050565b7f4e487b7100000000000000000000000000000000000000000000000000000000600052601160045260246000fd5b7f4e487b7100000000000000000000000000000000000000000000000000000000600052601260045260246000fd5b60008160011c9050919050565b61214381612059565b811461214e57600080fd5b50565b61215a8161206b565b811461216557600080fd5b50565b61217181612077565b811461217c57600080fd5b50565b612188816120a1565b811461219357600080fd5b5056fea2646970667358221220991600eaa561be5358d745d64bb30b0f654f6c84655d1fcc906db50921a93a8764736f6c63430008000033",
  "linkReferences": {},
  "deployedLinkReferences": {}
}