{
  "_format": "hh-sol-artifact-1",
  "contractName": "Round",
  "sourceName": "hardhat/contracts/Round.sol",
  "abi": [
    {
      "inputs": [
        {
          "internalType": "uint256",
          "name": "N",
          "type": "uint256"
        },
        {
          "internalType": "uint256",
          "name": "b",
          "type": "uint256"
        },
        {
          "internalType": "uint256",
          "name": "delta",
          "type": "uint256"
        },
        {
          "internalType": "address",
          "name": "asset",
          "type": "address"
        },
        {
          "internalType": "address",
          "name": "vault_address",
          "type": "address"
        },
        {
          "internalType": "uint256",
          "name": "expiry_timestamp",
          "type": "uint256"
        },
        {
          "internalType": "address",
          "name": "aggregator",
          "type": "address"
        }
      ],
      "stateMutability": "nonpayable",
      "type": "constructor"
    },
    {
      "anonymous": false,
      "inputs": [
        {
          "indexed": true,
          "internalType": "address",
          "name": "previousOwner",
          "type": "address"
        },
        {
          "indexed": true,
          "internalType": "address",
          "name": "newOwner",
          "type": "address"
        }
      ],
      "name": "OwnershipTransferred",
      "type": "event"
    },
    {
      "anonymous": false,
      "inputs": [
        {
          "indexed": false,
          "internalType": "uint256",
          "name": "earnings",
          "type": "uint256"
        },
        {
          "indexed": false,
          "internalType": "uint256",
          "name": "payout",
          "type": "uint256"
        },
        {
          "indexed": false,
          "internalType": "uint256",
          "name": "timestamp",
          "type": "uint256"
        }
      ],
      "name": "roundEnded",
      "type": "event"
    },
    {
      "inputs": [],
      "name": "_N",
      "outputs": [
        {
          "internalType": "uint256",
          "name": "",
          "type": "uint256"
        }
      ],
      "stateMutability": "view",
      "type": "function"
    },
    {
      "inputs": [],
      "name": "_asset",
      "outputs": [
        {
          "internalType": "contract ERC20",
          "name": "",
          "type": "address"
        }
      ],
      "stateMutability": "view",
      "type": "function"
    },
    {
      "inputs": [],
      "name": "_asset_decimals",
      "outputs": [
        {
          "internalType": "uint256",
          "name": "",
          "type": "uint256"
        }
      ],
      "stateMutability": "view",
      "type": "function"
    },
    {
      "inputs": [],
      "name": "_b",
      "outputs": [
        {
          "internalType": "uint256",
          "name": "",
          "type": "uint256"
        }
      ],
      "stateMutability": "view",
      "type": "function"
    },
    {
      "inputs": [],
      "name": "_debt",
      "outputs": [
        {
          "internalType": "uint256",
          "name": "",
          "type": "uint256"
        }
      ],
      "stateMutability": "view",
      "type": "function"
    },
    {
      "inputs": [],
      "name": "_delta",
      "outputs": [
        {
          "internalType": "uint256",
          "name": "",
          "type": "uint256"
        }
      ],
      "stateMutability": "view",
      "type": "function"
    },
    {
      "inputs": [],
      "name": "_earnings",
      "outputs": [
        {
          "internalType": "uint256",
          "name": "",
          "type": "uint256"
        }
      ],
      "stateMutability": "view",
      "type": "function"
    },
    {
      "inputs": [],
      "name": "_expiry_timestamp",
      "outputs": [
        {
          "internalType": "uint256",
          "name": "",
          "type": "uint256"
        }
      ],
      "stateMutability": "view",
      "type": "function"
    },
    {
      "inputs": [],
      "name": "_final_bucket",
      "outputs": [
        {
          "internalType": "uint256",
          "name": "",
          "type": "uint256"
        }
      ],
      "stateMutability": "view",
      "type": "function"
    },
    {
      "inputs": [],
      "name": "_final_price",
      "outputs": [
        {
          "internalType": "uint256",
          "name": "",
          "type": "uint256"
        }
      ],
      "stateMutability": "view",
      "type": "function"
    },
    {
      "inputs": [
        {
          "internalType": "address",
          "name": "",
          "type": "address"
        }
      ],
      "name": "_paid_out",
      "outputs": [
        {
          "internalType": "uint256",
          "name": "",
          "type": "uint256"
        }
      ],
      "stateMutability": "view",
      "type": "function"
    },
    {
      "inputs": [],
      "name": "_payout",
      "outputs": [
        {
          "internalType": "uint256",
          "name": "",
          "type": "uint256"
        }
      ],
      "stateMutability": "view",
      "type": "function"
    },
    {
      "inputs": [],
      "name": "_round_ended",
      "outputs": [
        {
          "internalType": "bool",
          "name": "",
          "type": "bool"
        }
      ],
      "stateMutability": "view",
      "type": "function"
    },
    {
      "inputs": [],
      "name": "_start_timestamp",
      "outputs": [
        {
          "internalType": "uint256",
          "name": "",
          "type": "uint256"
        }
      ],
      "stateMutability": "view",
      "type": "function"
    },
    {
      "inputs": [
        {
          "internalType": "address",
          "name": "token_address",
          "type": "address"
        }
      ],
      "name": "attachToken",
      "outputs": [],
      "stateMutability": "nonpayable",
      "type": "function"
    },
    {
      "inputs": [
        {
          "internalType": "address",
          "name": "_owner",
          "type": "address"
        },
        {
          "internalType": "uint256",
          "name": "_id",
          "type": "uint256"
        }
      ],
      "name": "balanceOf",
      "outputs": [
        {
          "internalType": "uint256",
          "name": "",
          "type": "uint256"
        }
      ],
      "stateMutability": "view",
      "type": "function"
    },
    {
      "inputs": [
        {
          "internalType": "address[]",
          "name": "_owners",
          "type": "address[]"
        },
        {
          "internalType": "uint256[]",
          "name": "_ids",
          "type": "uint256[]"
        }
      ],
      "name": "balanceOfBatch",
      "outputs": [
        {
          "internalType": "uint256[]",
          "name": "",
          "type": "uint256[]"
        }
      ],
      "stateMutability": "view",
      "type": "function"
    },
    {
      "inputs": [],
      "name": "endRound",
      "outputs": [],
      "stateMutability": "nonpayable",
      "type": "function"
    },
    {
      "inputs": [],
      "name": "getAssetAddress",
      "outputs": [
        {
          "internalType": "address",
          "name": "",
          "type": "address"
        }
      ],
      "stateMutability": "view",
      "type": "function"
    },
    {
      "inputs": [
        {
          "internalType": "uint256",
          "name": "bucket",
          "type": "uint256"
        }
      ],
      "name": "getBucketPrice",
      "outputs": [
        {
          "internalType": "uint256",
          "name": "",
          "type": "uint256"
        }
      ],
      "stateMutability": "view",
      "type": "function"
    },
    {
      "inputs": [],
      "name": "getTokenAddress",
      "outputs": [
        {
          "internalType": "address",
          "name": "",
          "type": "address"
        }
      ],
      "stateMutability": "view",
      "type": "function"
    },
    {
      "inputs": [],
      "name": "owner",
      "outputs": [
        {
          "internalType": "address",
          "name": "",
          "type": "address"
        }
      ],
      "stateMutability": "view",
      "type": "function"
    },
    {
      "inputs": [
        {
          "internalType": "uint256",
          "name": "bucket",
          "type": "uint256"
        },
        {
          "internalType": "uint256",
          "name": "amount",
          "type": "uint256"
        }
      ],
      "name": "purchase",
      "outputs": [],
      "stateMutability": "nonpayable",
      "type": "function"
    },
    {
      "inputs": [
        {
          "internalType": "uint256",
          "name": "start",
          "type": "uint256"
        },
        {
          "internalType": "uint256",
          "name": "end",
          "type": "uint256"
        },
        {
          "internalType": "uint256",
          "name": "amount",
          "type": "uint256"
        }
      ],
      "name": "purchaseRange",
      "outputs": [],
      "stateMutability": "nonpayable",
      "type": "function"
    },
    {
      "inputs": [
        {
          "internalType": "uint256",
          "name": "bucket",
          "type": "uint256"
        },
        {
          "internalType": "uint256",
          "name": "amount",
          "type": "uint256"
        },
        {
          "internalType": "bool",
          "name": "left",
          "type": "bool"
        }
      ],
      "name": "purchaseSlope",
      "outputs": [],
      "stateMutability": "nonpayable",
      "type": "function"
    },
    {
      "inputs": [],
      "name": "redeem",
      "outputs": [],
      "stateMutability": "nonpayable",
      "type": "function"
    },
    {
      "inputs": [],
      "name": "renounceOwnership",
      "outputs": [],
      "stateMutability": "nonpayable",
      "type": "function"
    },
    {
      "inputs": [
        {
          "internalType": "address",
          "name": "newOwner",
          "type": "address"
        }
      ],
      "name": "transferOwnership",
      "outputs": [],
      "stateMutability": "nonpayable",
      "type": "function"
    }
  ],
  "bytecode": "0x60806040523480156200001157600080fd5b506040516200310838038062003108833981810160405281019062000037919062000364565b6000620000496200031760201b60201c565b9050806000806101000a81548173ffffffffffffffffffffffffffffffffffffffff021916908373ffffffffffffffffffffffffffffffffffffffff1602179055508073ffffffffffffffffffffffffffffffffffffffff16600073ffffffffffffffffffffffffffffffffffffffff167f8be0079c531659141344cd1fd0a4f28419497f9722a3daafe3b4186f6b6457e060405160405180910390a350600087116200012d576040517f08c379a000000000000000000000000000000000000000000000000000000000815260040162000124906200052f565b60405180910390fd5b86600181905550600086116200017a576040517f08c379a000000000000000000000000000000000000000000000000000000000815260040162000171906200050d565b60405180910390fd5b84600381905550816006819055504260058190555083600e60006101000a81548173ffffffffffffffffffffffffffffffffffffffff021916908373ffffffffffffffffffffffffffffffffffffffff160217905550600e60009054906101000a900473ffffffffffffffffffffffffffffffffffffffff1673ffffffffffffffffffffffffffffffffffffffff1663313ce5676040518163ffffffff1660e01b815260040160206040518083038186803b1580156200023957600080fd5b505afa1580156200024e573d6000803e3d6000fd5b505050506040513d601f19601f8201168201806040525081019062000274919062000411565b600a620002829190620005bd565b600d8190555082601160006101000a81548173ffffffffffffffffffffffffffffffffffffffff021916908373ffffffffffffffffffffffffffffffffffffffff16021790555080601060006101000a81548173ffffffffffffffffffffffffffffffffffffffff021916908373ffffffffffffffffffffffffffffffffffffffff16021790555050505050505050620007cf565b600033905090565b600081519050620003308162000781565b92915050565b60008151905062000347816200079b565b92915050565b6000815190506200035e81620007b5565b92915050565b600080600080600080600060e0888a0312156200038057600080fd5b6000620003908a828b0162000336565b9750506020620003a38a828b0162000336565b9650506040620003b68a828b0162000336565b9550506060620003c98a828b016200031f565b9450506080620003dc8a828b016200031f565b93505060a0620003ef8a828b0162000336565b92505060c0620004028a828b016200031f565b91505092959891949750929550565b6000602082840312156200042457600080fd5b600062000434848285016200034d565b91505092915050565b60006200044c60218362000551565b91507f636f6e7374727563746f723a20622073686f756c6420626520706f736974697660008301527f65000000000000000000000000000000000000000000000000000000000000006020830152604082019050919050565b6000620004b460218362000551565b91507f636f6e7374727563746f723a204e2073686f756c6420626520706f736974697660008301527f65000000000000000000000000000000000000000000000000000000000000006020830152604082019050919050565b6000602082019050818103600083015262000528816200043d565b9050919050565b600060208201905081810360008301526200054a81620004a5565b9050919050565b600082825260208201905092915050565b6000808291508390505b6001851115620005b4578086048111156200058c576200058b62000745565b5b60018516156200059c5780820291505b8081029050620005ac8562000774565b94506200056c565b94509492505050565b6000620005ca826200072e565b9150620005d78362000738565b9250620006067fffffffffffffffffffffffffffffffffffffffffffffffffffffffffffffffff84846200060e565b905092915050565b600082620006205760019050620006f3565b81620006305760009050620006f3565b816001811462000649576002811462000654576200068a565b6001915050620006f3565b60ff84111562000669576200066862000745565b5b8360020a91508482111562000683576200068262000745565b5b50620006f3565b5060208310610133831016604e8410600b8410161715620006c45782820a905083811115620006be57620006bd62000745565b5b620006f3565b620006d3848484600162000562565b92509050818404811115620006ed57620006ec62000745565b5b81810290505b9392505050565b600062000707826200070e565b9050919050565b600073ffffffffffffffffffffffffffffffffffffffff82169050919050565b6000819050919050565b600060ff82169050919050565b7f4e487b7100000000000000000000000000000000000000000000000000000000600052601160045260246000fd5b60008160011c9050919050565b6200078c81620006fa565b81146200079857600080fd5b50565b620007a6816200072e565b8114620007b257600080fd5b50565b620007c08162000738565b8114620007cc57600080fd5b50565b61292980620007df6000396000f3fe608060405234801561001057600080fd5b50600436106101c35760003560e01c806370876c98116100f9578063be040fb011610097578063f57f333b11610071578063f57f333b1461049c578063f9dd25e6146104ba578063fbcb8121146104d8578063fcea5e29146104f4576101c3565b8063be040fb014610446578063de6f56c614610450578063f2fde38b14610480576101c3565b806374b5fb06116100d357806374b5fb06146103ce5780638da5cb5b146103ec578063a6f4944d1461040a578063acc0349a14610428576101c3565b806370876c981461039e578063715018a6146103ba578063749aa2d9146103c4576101c3565b80634abc2a2b1161016657806361092ec71161014057806361092ec714610328578063655c4aab14610346578063670ab5e9146103645780636d88fae814610382576101c3565b80634abc2a2b146102bc5780634e1273f4146102da5780635655bb201461030a576101c3565b80631ee4cac8116101a25780631ee4cac81461023457806325374996146102525780632dcbe5bb14610270578063406a6f60146102a0576101c3565b8062fdd58e146101c857806310fe9ae8146101f85780631ade939114610216575b600080fd5b6101e260048036038101906101dd91906119e6565b610512565b6040516101ef919061232d565b60405180910390f35b6102006105c8565b60405161020d91906120b1565b60405180910390f35b61021e6105f2565b60405161022b919061232d565b60405180910390f35b61023c6105f8565b604051610249919061232d565b60405180910390f35b61025a6105fe565b604051610267919061232d565b60405180910390f35b61028a600480360381019061028591906119bd565b610604565b604051610297919061232d565b60405180910390f35b6102ba60048036038101906102b591906119bd565b61061c565b005b6102c461076d565b6040516102d1919061232d565b60405180910390f35b6102f460048036038101906102ef9190611a22565b610773565b60405161030191906121d5565b60405180910390f35b610312610835565b60405161031f919061232d565b60405180910390f35b61033061083b565b60405161033d919061232d565b60405180910390f35b61034e610841565b60405161035b919061232d565b60405180910390f35b61036c610847565b60405161037991906120b1565b60405180910390f35b61039c60048036038101906103979190611c07565b610871565b005b6103b860048036038101906103b39190611b7c565b610a84565b005b6103c2610c94565b005b6103cc610dce565b005b6103d66110b4565b6040516103e3919061232d565b60405180910390f35b6103f46110ba565b60405161040191906120b1565b60405180910390f35b6104126110e3565b60405161041f91906121f7565b60405180910390f35b6104306110f6565b60405161043d919061232d565b60405180910390f35b61044e6110fc565b005b61046a60048036038101906104659190611b2a565b61136b565b604051610477919061232d565b60405180910390f35b61049a600480360381019061049591906119bd565b61141f565b005b6104a46115c8565b6040516104b1919061232d565b60405180910390f35b6104c26115ce565b6040516104cf919061232d565b60405180910390f35b6104f260048036038101906104ed9190611bb8565b6115d4565b005b6104fc6117e7565b6040516105099190612212565b60405180910390f35b6000600f60009054906101000a900473ffffffffffffffffffffffffffffffffffffffff1673ffffffffffffffffffffffffffffffffffffffff1662fdd58e84846040518363ffffffff1660e01b8152600401610570929190612103565b60206040518083038186803b15801561058857600080fd5b505afa15801561059c573d6000803e3d6000fd5b505050506040513d601f19601f820116820180604052508101906105c09190611b53565b905092915050565b6000600f60009054906101000a900473ffffffffffffffffffffffffffffffffffffffff16905090565b60045481565b60035481565b60025481565b600c6020528060005260406000206000915090505481565b61062461180d565b73ffffffffffffffffffffffffffffffffffffffff166106426110ba565b73ffffffffffffffffffffffffffffffffffffffff1614610698576040517f08c379a000000000000000000000000000000000000000000000000000000000815260040161068f906122ed565b60405180910390fd5b600073ffffffffffffffffffffffffffffffffffffffff16600f60009054906101000a900473ffffffffffffffffffffffffffffffffffffffff1673ffffffffffffffffffffffffffffffffffffffff1614610729576040517f08c379a00000000000000000000000000000000000000000000000000000000081526004016107209061228d565b60405180910390fd5b80600f60006101000a81548173ffffffffffffffffffffffffffffffffffffffff021916908373ffffffffffffffffffffffffffffffffffffffff16021790555050565b60055481565b6060600f60009054906101000a900473ffffffffffffffffffffffffffffffffffffffff1673ffffffffffffffffffffffffffffffffffffffff16634e1273f4868686866040518563ffffffff1660e01b81526004016107d6949392919061219a565b60006040518083038186803b1580156107ee57600080fd5b505afa158015610802573d6000803e3d6000fd5b505050506040513d6000823e3d601f19601f8201168201806040525081019061082b9190611a97565b9050949350505050565b60015481565b600b5481565b60085481565b6000600e60009054906101000a900473ffffffffffffffffffffffffffffffffffffffff16905090565b60065442106108b5576040517f08c379a00000000000000000000000000000000000000000000000000000000081526004016108ac9061222d565b60405180910390fd5b6000600f60009054906101000a900473ffffffffffffffffffffffffffffffffffffffff1673ffffffffffffffffffffffffffffffffffffffff166394c5ec65858585336040518563ffffffff1660e01b815260040161091894939291906123fb565b602060405180830381600087803b15801561093257600080fd5b505af1158015610946573d6000803e3d6000fd5b505050506040513d601f19601f8201168201806040525081019061096a9190611b53565b9050806004600082825461097e9190612526565b92505081905550600e60009054906101000a900473ffffffffffffffffffffffffffffffffffffffff1673ffffffffffffffffffffffffffffffffffffffff166323b872dd33601160009054906101000a900473ffffffffffffffffffffffffffffffffffffffff166012600a6109f59190612600565b600d5486610a03919061271e565b610a0d919061257c565b6040518463ffffffff1660e01b8152600401610a2b939291906120cc565b602060405180830381600087803b158015610a4557600080fd5b505af1158015610a59573d6000803e3d6000fd5b505050506040513d601f19601f82011682018060405250810190610a7d9190611ad8565b5050505050565b6006544210610ac8576040517f08c379a0000000000000000000000000000000000000000000000000000000008152600401610abf9061222d565b60405180910390fd5b6000600f60009054906101000a900473ffffffffffffffffffffffffffffffffffffffff1673ffffffffffffffffffffffffffffffffffffffff1663ea3bd5df8484336040518463ffffffff1660e01b8152600401610b2993929190612348565b602060405180830381600087803b158015610b4357600080fd5b505af1158015610b57573d6000803e3d6000fd5b505050506040513d601f19601f82011682018060405250810190610b7b9190611b53565b90508060046000828254610b8f9190612526565b92505081905550600e60009054906101000a900473ffffffffffffffffffffffffffffffffffffffff1673ffffffffffffffffffffffffffffffffffffffff166323b872dd33601160009054906101000a900473ffffffffffffffffffffffffffffffffffffffff166012600a610c069190612600565b600d5486610c14919061271e565b610c1e919061257c565b6040518463ffffffff1660e01b8152600401610c3c939291906120cc565b602060405180830381600087803b158015610c5657600080fd5b505af1158015610c6a573d6000803e3d6000fd5b505050506040513d601f19601f82011682018060405250810190610c8e9190611ad8565b50505050565b610c9c61180d565b73ffffffffffffffffffffffffffffffffffffffff16610cba6110ba565b73ffffffffffffffffffffffffffffffffffffffff1614610d10576040517f08c379a0000000000000000000000000000000000000000000000000000000008152600401610d07906122ed565b60405180910390fd5b600073ffffffffffffffffffffffffffffffffffffffff1660008054906101000a900473ffffffffffffffffffffffffffffffffffffffff1673ffffffffffffffffffffffffffffffffffffffff167f8be0079c531659141344cd1fd0a4f28419497f9722a3daafe3b4186f6b6457e060405160405180910390a360008060006101000a81548173ffffffffffffffffffffffffffffffffffffffff021916908373ffffffffffffffffffffffffffffffffffffffff160217905550565b600654421015610e13576040517f08c379a0000000000000000000000000000000000000000000000000000000008152600401610e0a9061224d565b60405180910390fd5b600760009054906101000a900460ff1615610e63576040517f08c379a0000000000000000000000000000000000000000000000000000000008152600401610e5a906122cd565b60405180910390fd5b6000601060009054906101000a900473ffffffffffffffffffffffffffffffffffffffff1673ffffffffffffffffffffffffffffffffffffffff166350d25bcd6040518163ffffffff1660e01b815260040160206040518083038186803b158015610ecd57600080fd5b505afa158015610ee1573d6000803e3d6000fd5b505050506040513d601f19601f82011682018060405250810190610f059190611b01565b905060008113610f4a576040517f08c379a0000000000000000000000000000000000000000000000000000000008152600401610f419061230d565b60405180910390fd5b600d546012600a610f5b9190612600565b82610f66919061271e565b610f70919061257c565b6008819055506001600760006101000a81548160ff0219169083151502179055506012600a610f9f9190612600565b600354610fac919061271e565b600854610fb9919061257c565b600981905550600f60009054906101000a900473ffffffffffffffffffffffffffffffffffffffff1673ffffffffffffffffffffffffffffffffffffffff16635ebd9ded6009546040518263ffffffff1660e01b815260040161101c919061232d565b60206040518083038186803b15801561103457600080fd5b505afa158015611048573d6000803e3d6000fd5b505050506040513d601f19601f8201168201806040525081019061106c9190611b53565b600a819055507fa595d37bd73a1d6a5691f748eff13b76bfb2b6fb54700836ab39a98a9e3084c4600454600a54426040516110a9939291906123c4565b60405180910390a150565b600a5481565b60008060009054906101000a900473ffffffffffffffffffffffffffffffffffffffff16905090565b600760009054906101000a900460ff1681565b60065481565b600760009054906101000a900460ff1661114b576040517f08c379a0000000000000000000000000000000000000000000000000000000008152600401611142906122ad565b60405180910390fd5b6000600f60009054906101000a900473ffffffffffffffffffffffffffffffffffffffff1673ffffffffffffffffffffffffffffffffffffffff1662fdd58e336009546040518363ffffffff1660e01b81526004016111ab929190612103565b60206040518083038186803b1580156111c357600080fd5b505afa1580156111d7573d6000803e3d6000fd5b505050506040513d601f19601f820116820180604052508101906111fb9190611b53565b9050600f60009054906101000a900473ffffffffffffffffffffffffffffffffffffffff1673ffffffffffffffffffffffffffffffffffffffff1663f5298aca33600954846040518463ffffffff1660e01b815260040161125e93929190612163565b600060405180830381600087803b15801561127857600080fd5b505af115801561128c573d6000803e3d6000fd5b50505050601160009054906101000a900473ffffffffffffffffffffffffffffffffffffffff1673ffffffffffffffffffffffffffffffffffffffff16635c833bfd336012600a6112dd9190612600565b600d54856112eb919061271e565b6112f5919061257c565b600e60009054906101000a900473ffffffffffffffffffffffffffffffffffffffff166040518463ffffffff1660e01b81526004016113369392919061212c565b600060405180830381600087803b15801561135057600080fd5b505af1158015611364573d6000803e3d6000fd5b5050505050565b6000600f60009054906101000a900473ffffffffffffffffffffffffffffffffffffffff1673ffffffffffffffffffffffffffffffffffffffff1663de6f56c6836040518263ffffffff1660e01b81526004016113c8919061232d565b60206040518083038186803b1580156113e057600080fd5b505afa1580156113f4573d6000803e3d6000fd5b505050506040513d601f19601f820116820180604052508101906114189190611b53565b9050919050565b61142761180d565b73ffffffffffffffffffffffffffffffffffffffff166114456110ba565b73ffffffffffffffffffffffffffffffffffffffff161461149b576040517f08c379a0000000000000000000000000000000000000000000000000000000008152600401611492906122ed565b60405180910390fd5b600073ffffffffffffffffffffffffffffffffffffffff168173ffffffffffffffffffffffffffffffffffffffff16141561150b576040517f08c379a00000000000000000000000000000000000000000000000000000000081526004016115029061226d565b60405180910390fd5b8073ffffffffffffffffffffffffffffffffffffffff1660008054906101000a900473ffffffffffffffffffffffffffffffffffffffff1673ffffffffffffffffffffffffffffffffffffffff167f8be0079c531659141344cd1fd0a4f28419497f9722a3daafe3b4186f6b6457e060405160405180910390a3806000806101000a81548173ffffffffffffffffffffffffffffffffffffffff021916908373ffffffffffffffffffffffffffffffffffffffff16021790555050565b60095481565b600d5481565b6006544210611618576040517f08c379a000000000000000000000000000000000000000000000000000000000815260040161160f9061222d565b60405180910390fd5b6000600f60009054906101000a900473ffffffffffffffffffffffffffffffffffffffff1673ffffffffffffffffffffffffffffffffffffffff1663888515bd858585336040518563ffffffff1660e01b815260040161167b949392919061237f565b602060405180830381600087803b15801561169557600080fd5b505af11580156116a9573d6000803e3d6000fd5b505050506040513d601f19601f820116820180604052508101906116cd9190611b53565b905080600460008282546116e19190612526565b92505081905550600e60009054906101000a900473ffffffffffffffffffffffffffffffffffffffff1673ffffffffffffffffffffffffffffffffffffffff166323b872dd33601160009054906101000a900473ffffffffffffffffffffffffffffffffffffffff166012600a6117589190612600565b600d5486611766919061271e565b611770919061257c565b6040518463ffffffff1660e01b815260040161178e939291906120cc565b602060405180830381600087803b1580156117a857600080fd5b505af11580156117bc573d6000803e3d6000fd5b505050506040513d601f19601f820116820180604052508101906117e09190611ad8565b5050505050565b600e60009054906101000a900473ffffffffffffffffffffffffffffffffffffffff1681565b600033905090565b600061182861182384612471565b612440565b9050808382526020820190508285602086028201111561184757600080fd5b60005b85811015611877578161185d88826119a8565b84526020840193506020830192505060018101905061184a565b5050509392505050565b60008135905061189081612897565b92915050565b60008083601f8401126118a857600080fd5b8235905067ffffffffffffffff8111156118c157600080fd5b6020830191508360208202830111156118d957600080fd5b9250929050565b60008083601f8401126118f257600080fd5b8235905067ffffffffffffffff81111561190b57600080fd5b60208301915083602082028301111561192357600080fd5b9250929050565b600082601f83011261193b57600080fd5b815161194b848260208601611815565b91505092915050565b600081359050611963816128ae565b92915050565b600081519050611978816128ae565b92915050565b60008151905061198d816128c5565b92915050565b6000813590506119a2816128dc565b92915050565b6000815190506119b7816128dc565b92915050565b6000602082840312156119cf57600080fd5b60006119dd84828501611881565b91505092915050565b600080604083850312156119f957600080fd5b6000611a0785828601611881565b9250506020611a1885828601611993565b9150509250929050565b60008060008060408587031215611a3857600080fd5b600085013567ffffffffffffffff811115611a5257600080fd5b611a5e87828801611896565b9450945050602085013567ffffffffffffffff811115611a7d57600080fd5b611a89878288016118e0565b925092505092959194509250565b600060208284031215611aa957600080fd5b600082015167ffffffffffffffff811115611ac357600080fd5b611acf8482850161192a565b91505092915050565b600060208284031215611aea57600080fd5b6000611af884828501611969565b91505092915050565b600060208284031215611b1357600080fd5b6000611b218482850161197e565b91505092915050565b600060208284031215611b3c57600080fd5b6000611b4a84828501611993565b91505092915050565b600060208284031215611b6557600080fd5b6000611b73848285016119a8565b91505092915050565b60008060408385031215611b8f57600080fd5b6000611b9d85828601611993565b9250506020611bae85828601611993565b9150509250929050565b600080600060608486031215611bcd57600080fd5b6000611bdb86828701611993565b9350506020611bec86828701611993565b9250506040611bfd86828701611954565b9150509250925092565b600080600060608486031215611c1c57600080fd5b6000611c2a86828701611993565b9350506020611c3b86828701611993565b9250506040611c4c86828701611993565b9150509250925092565b6000611c628383611c86565b60208301905092915050565b6000611c7a8383612093565b60208301905092915050565b611c8f81612778565b82525050565b611c9e81612778565b82525050565b6000611cb083856124dc565b9350611cbb8261249d565b8060005b85811015611cf457611cd1828461250f565b611cdb8882611c56565b9750611ce6836124c2565b925050600181019050611cbf565b5085925050509392505050565b6000611d0d83856124ed565b93507f07ffffffffffffffffffffffffffffffffffffffffffffffffffffffffffffff831115611d3c57600080fd5b602083029250611d4d8385846127ee565b82840190509392505050565b6000611d64826124b7565b611d6e81856124ed565b9350611d79836124a7565b8060005b83811015611daa578151611d918882611c6e565b9750611d9c836124cf565b925050600181019050611d7d565b5085935050505092915050565b611dc08161278a565b82525050565b611dcf816127ca565b82525050565b6000611de2602a836124fe565b91507f746869732066756e6374696f6e206973206e6f742063616c6c61626c6520616660008301527f74657220657870697279000000000000000000000000000000000000000000006020830152604082019050919050565b6000611e48602b836124fe565b91507f746869732066756e6374696f6e206973206e6f742063616c6c61626c6520626560008301527f666f7265206578706972790000000000000000000000000000000000000000006020830152604082019050919050565b6000611eae6026836124fe565b91507f4f776e61626c653a206e6577206f776e657220697320746865207a65726f206160008301527f64647265737300000000000000000000000000000000000000000000000000006020830152604082019050919050565b6000611f146016836124fe565b91507f746f6b656e20616c7265616479206174746163686564000000000000000000006000830152602082019050919050565b6000611f546042836124fe565b91507f746869732066756e6374696f6e206973206e6f742063616c6c61626c6520626560008301527f666f72652074686520656e64526f756e6420686173206265656e2063616c6c6560208301527f642e0000000000000000000000000000000000000000000000000000000000006040830152606082019050919050565b6000611fe0601c836124fe565b91507f726f756e642068617320616c7265616479206265656e20656e646564000000006000830152602082019050919050565b60006120206020836124fe565b91507f4f776e61626c653a2063616c6c6572206973206e6f7420746865206f776e65726000830152602082019050919050565b60006120606013836124fe565b91507f696e76616c69642066696e616c207072696365000000000000000000000000006000830152602082019050919050565b61209c816127c0565b82525050565b6120ab816127c0565b82525050565b60006020820190506120c66000830184611c95565b92915050565b60006060820190506120e16000830186611c95565b6120ee6020830185611c95565b6120fb60408301846120a2565b949350505050565b60006040820190506121186000830185611c95565b61212560208301846120a2565b9392505050565b60006060820190506121416000830186611c95565b61214e60208301856120a2565b61215b6040830184611c95565b949350505050565b60006060820190506121786000830186611c95565b61218560208301856120a2565b61219260408301846120a2565b949350505050565b600060408201905081810360008301526121b5818688611ca4565b905081810360208301526121ca818486611d01565b905095945050505050565b600060208201905081810360008301526121ef8184611d59565b905092915050565b600060208201905061220c6000830184611db7565b92915050565b60006020820190506122276000830184611dc6565b92915050565b6000602082019050818103600083015261224681611dd5565b9050919050565b6000602082019050818103600083015261226681611e3b565b9050919050565b6000602082019050818103600083015261228681611ea1565b9050919050565b600060208201905081810360008301526122a681611f07565b9050919050565b600060208201905081810360008301526122c681611f47565b9050919050565b600060208201905081810360008301526122e681611fd3565b9050919050565b6000602082019050818103600083015261230681612013565b9050919050565b6000602082019050818103600083015261232681612053565b9050919050565b600060208201905061234260008301846120a2565b92915050565b600060608201905061235d60008301866120a2565b61236a60208301856120a2565b6123776040830184611c95565b949350505050565b600060808201905061239460008301876120a2565b6123a160208301866120a2565b6123ae6040830185611db7565b6123bb6060830184611c95565b95945050505050565b60006060820190506123d960008301866120a2565b6123e660208301856120a2565b6123f360408301846120a2565b949350505050565b600060808201905061241060008301876120a2565b61241d60208301866120a2565b61242a60408301856120a2565b6124376060830184611c95565b95945050505050565b6000604051905081810181811067ffffffffffffffff821117156124675761246661285b565b5b8060405250919050565b600067ffffffffffffffff82111561248c5761248b61285b565b5b602082029050602081019050919050565b6000819050919050565b6000819050602082019050919050565b600081519050919050565b6000602082019050919050565b6000602082019050919050565b600082825260208201905092915050565b600082825260208201905092915050565b600082825260208201905092915050565b600061251e6020840184611881565b905092915050565b6000612531826127c0565b915061253c836127c0565b9250827fffffffffffffffffffffffffffffffffffffffffffffffffffffffffffffffff03821115612571576125706127fd565b5b828201905092915050565b6000612587826127c0565b9150612592836127c0565b9250826125a2576125a161282c565b5b828204905092915050565b6000808291508390505b60018511156125f7578086048111156125d3576125d26127fd565b5b60018516156125e25780820291505b80810290506125f08561288a565b94506125b7565b94509492505050565b600061260b826127c0565b9150612616836127c0565b92506126437fffffffffffffffffffffffffffffffffffffffffffffffffffffffffffffffff848461264b565b905092915050565b60008261265b5760019050612717565b816126695760009050612717565b816001811461267f5760028114612689576126b8565b6001915050612717565b60ff84111561269b5761269a6127fd565b5b8360020a9150848211156126b2576126b16127fd565b5b50612717565b5060208310610133831016604e8410600b84101617156126ed5782820a9050838111156126e8576126e76127fd565b5b612717565b6126fa84848460016125ad565b92509050818404811115612711576127106127fd565b5b81810290505b9392505050565b6000612729826127c0565b9150612734836127c0565b9250817fffffffffffffffffffffffffffffffffffffffffffffffffffffffffffffffff048311821515161561276d5761276c6127fd565b5b828202905092915050565b6000612783826127a0565b9050919050565b60008115159050919050565b6000819050919050565b600073ffffffffffffffffffffffffffffffffffffffff82169050919050565b6000819050919050565b60006127d5826127dc565b9050919050565b60006127e7826127a0565b9050919050565b82818337600083830152505050565b7f4e487b7100000000000000000000000000000000000000000000000000000000600052601160045260246000fd5b7f4e487b7100000000000000000000000000000000000000000000000000000000600052601260045260246000fd5b7f4e487b7100000000000000000000000000000000000000000000000000000000600052604160045260246000fd5b60008160011c9050919050565b6128a081612778565b81146128ab57600080fd5b50565b6128b78161278a565b81146128c257600080fd5b50565b6128ce81612796565b81146128d957600080fd5b50565b6128e5816127c0565b81146128f057600080fd5b5056fea26469706673582212201dde52bdb3391be39b5e7b21fefa38c73e913f492796f3df24bec07be06a882164736f6c63430008000033",
  "linkReferences": {},
  "deployedLinkReferences": {}
}