{
  "_format": "hh-sol-artifact-1",
  "contractName": "TokenFactory",
  "sourceName": "hardhat/contracts/Factories/TokenFactory.sol",
  "abi": [
    {
      "inputs": [],
      "stateMutability": "nonpayable",
      "type": "constructor"
    },
    {
      "anonymous": false,
      "inputs": [
        {
          "indexed": true,
          "internalType": "address",
          "name": "previousOwner",
          "type": "address"
        },
        {
          "indexed": true,
          "internalType": "address",
          "name": "newOwner",
          "type": "address"
        }
      ],
      "name": "OwnershipTransferred",
      "type": "event"
    },
    {
      "inputs": [
        {
          "internalType": "uint256",
          "name": "N",
          "type": "uint256"
        },
        {
          "internalType": "uint256",
          "name": "b",
          "type": "uint256"
        },
        {
          "internalType": "address",
          "name": "round_address",
          "type": "address"
        }
      ],
      "name": "deployToken",
      "outputs": [
        {
          "internalType": "address",
          "name": "",
          "type": "address"
        }
      ],
      "stateMutability": "nonpayable",
      "type": "function"
    },
    {
      "inputs": [],
      "name": "owner",
      "outputs": [
        {
          "internalType": "address",
          "name": "",
          "type": "address"
        }
      ],
      "stateMutability": "view",
      "type": "function"
    },
    {
      "inputs": [],
      "name": "renounceOwnership",
      "outputs": [],
      "stateMutability": "nonpayable",
      "type": "function"
    },
    {
      "inputs": [
        {
          "internalType": "address",
          "name": "newOwner",
          "type": "address"
        }
      ],
      "name": "transferOwnership",
      "outputs": [],
      "stateMutability": "nonpayable",
      "type": "function"
    }
  ],
  "bytecode": "0x608060405234801561001057600080fd5b5060006100216100c460201b60201c565b9050806000806101000a81548173ffffffffffffffffffffffffffffffffffffffff021916908373ffffffffffffffffffffffffffffffffffffffff1602179055508073ffffffffffffffffffffffffffffffffffffffff16600073ffffffffffffffffffffffffffffffffffffffff167f8be0079c531659141344cd1fd0a4f28419497f9722a3daafe3b4186f6b6457e060405160405180910390a3506100cc565b600033905090565b6153e9806100db6000396000f3fe60806040523480156200001157600080fd5b5060043610620000525760003560e01c8063715018a614620000575780638da5cb5b1462000063578063cf5728ef1462000085578063f2fde38b14620000bb575b600080fd5b62000061620000db565b005b6200006d6200021c565b6040516200007c91906200065b565b60405180910390f35b620000a360048036038101906200009d919062000539565b62000245565b604051620000b291906200065b565b60405180910390f35b620000d96004803603810190620000d391906200050d565b62000316565b005b620000e5620004c9565b73ffffffffffffffffffffffffffffffffffffffff16620001056200021c565b73ffffffffffffffffffffffffffffffffffffffff16146200015e576040517f08c379a000000000000000000000000000000000000000000000000000000000815260040162000155906200069a565b60405180910390fd5b600073ffffffffffffffffffffffffffffffffffffffff1660008054906101000a900473ffffffffffffffffffffffffffffffffffffffff1673ffffffffffffffffffffffffffffffffffffffff167f8be0079c531659141344cd1fd0a4f28419497f9722a3daafe3b4186f6b6457e060405160405180910390a360008060006101000a81548173ffffffffffffffffffffffffffffffffffffffff021916908373ffffffffffffffffffffffffffffffffffffffff160217905550565b60008060009054906101000a900473ffffffffffffffffffffffffffffffffffffffff16905090565b600062000251620004c9565b73ffffffffffffffffffffffffffffffffffffffff16620002716200021c565b73ffffffffffffffffffffffffffffffffffffffff1614620002ca576040517f08c379a0000000000000000000000000000000000000000000000000000000008152600401620002c1906200069a565b60405180910390fd5b6000848484604051620002dd90620004d1565b620002eb93929190620006bc565b604051809103906000f08015801562000308573d6000803e3d6000fd5b509050809150509392505050565b62000320620004c9565b73ffffffffffffffffffffffffffffffffffffffff16620003406200021c565b73ffffffffffffffffffffffffffffffffffffffff161462000399576040517f08c379a000000000000000000000000000000000000000000000000000000000815260040162000390906200069a565b60405180910390fd5b600073ffffffffffffffffffffffffffffffffffffffff168173ffffffffffffffffffffffffffffffffffffffff1614156200040c576040517f08c379a0000000000000000000000000000000000000000000000000000000008152600401620004039062000678565b60405180910390fd5b8073ffffffffffffffffffffffffffffffffffffffff1660008054906101000a900473ffffffffffffffffffffffffffffffffffffffff1673ffffffffffffffffffffffffffffffffffffffff167f8be0079c531659141344cd1fd0a4f28419497f9722a3daafe3b4186f6b6457e060405160405180910390a3806000806101000a81548173ffffffffffffffffffffffffffffffffffffffff021916908373ffffffffffffffffffffffffffffffffffffffff16021790555050565b600033905090565b614c37806200077d83390190565b600081359050620004f08162000748565b92915050565b600081359050620005078162000762565b92915050565b6000602082840312156200052057600080fd5b60006200053084828501620004df565b91505092915050565b6000806000606084860312156200054f57600080fd5b60006200055f86828701620004f6565b93505060206200057286828701620004f6565b92505060406200058586828701620004df565b9150509250925092565b6200059a816200070a565b82525050565b6000620005af602683620006f9565b91507f4f776e61626c653a206e6577206f776e657220697320746865207a65726f206160008301527f64647265737300000000000000000000000000000000000000000000000000006020830152604082019050919050565b600062000617602083620006f9565b91507f4f776e61626c653a2063616c6c6572206973206e6f7420746865206f776e65726000830152602082019050919050565b62000655816200073e565b82525050565b60006020820190506200067260008301846200058f565b92915050565b600060208201905081810360008301526200069381620005a0565b9050919050565b60006020820190508181036000830152620006b58162000608565b9050919050565b6000606082019050620006d360008301866200064a565b620006e260208301856200064a565b620006f160408301846200058f565b949350505050565b600082825260208201905092915050565b600062000717826200071e565b9050919050565b600073ffffffffffffffffffffffffffffffffffffffff82169050919050565b6000819050919050565b62000753816200070a565b81146200075f57600080fd5b50565b6200076d816200073e565b81146200077957600080fd5b5056fe60806040523480156200001157600080fd5b5060405162004c3738038062004c37833981810160405281019062000037919062000370565b6040518060400160405280600481526020017f6e6f6e65000000000000000000000000000000000000000000000000000000008152506200007e816200024a60201b60201c565b5060008311620000c5576040517f08c379a0000000000000000000000000000000000000000000000000000000008152600401620000bc90620004c9565b60405180910390fd5b826003819055506000821162000112576040517f08c379a00000000000000000000000000000000000000000000000000000000081526004016200010990620004a7565b60405180910390fd5b816004819055506012600a620001299190620005ac565b600354620001389190620006e9565b6007819055506012600a6200014e9190620005ac565b60075473__$43e6f41f20fb862aeed332b486e44cb4c2$__636ca34af790916040518263ffffffff1660e01b81526004016200018b9190620004eb565b60206040518083038186803b158015620001a457600080fd5b505af4158015620001b9573d6000803e3d6000fd5b505050506040513d601f19601f82011682018060405250810190620001df919062000344565b600454620001ee9190620006e9565b620001fa919062000519565b60088190555080600960006101000a81548173ffffffffffffffffffffffffffffffffffffffff021916908373ffffffffffffffffffffffffffffffffffffffff1602179055505050506200088c565b80600290805190602001906200026292919062000266565b5050565b828054620002749062000788565b90600052602060002090601f016020900481019282620002985760008555620002e4565b82601f10620002b357805160ff1916838001178555620002e4565b82800160010185558215620002e4579182015b82811115620002e3578251825591602001919060010190620002c6565b5b509050620002f39190620002f7565b5090565b5b8082111562000312576000816000905550600101620002f8565b5090565b600081519050620003278162000858565b92915050565b6000815190506200033e8162000872565b92915050565b6000602082840312156200035757600080fd5b600062000367848285016200032d565b91505092915050565b6000806000606084860312156200038657600080fd5b600062000396868287016200032d565b9350506020620003a9868287016200032d565b9250506040620003bc8682870162000316565b9150509250925092565b6000620003d560218362000508565b91507f636f6e7374727563746f723a20622073686f756c6420626520706f736974697660008301527f65000000000000000000000000000000000000000000000000000000000000006020830152604082019050919050565b60006200043d60218362000508565b91507f636f6e7374727563746f723a204e2073686f756c6420626520706f736974697660008301527f65000000000000000000000000000000000000000000000000000000000000006020830152604082019050919050565b620004a1816200077e565b82525050565b60006020820190508181036000830152620004c281620003c6565b9050919050565b60006020820190508181036000830152620004e4816200042e565b9050919050565b600060208201905062000502600083018462000496565b92915050565b600082825260208201905092915050565b600062000526826200077e565b915062000533836200077e565b925082620005465762000545620007ed565b5b828204905092915050565b6000808291508390505b6001851115620005a3578086048111156200057b576200057a620007be565b5b60018516156200058b5780820291505b80810290506200059b856200084b565b94506200055b565b94509492505050565b6000620005b9826200077e565b9150620005c6836200077e565b9250620005f57fffffffffffffffffffffffffffffffffffffffffffffffffffffffffffffffff8484620005fd565b905092915050565b6000826200060f5760019050620006e2565b816200061f5760009050620006e2565b8160018114620006385760028114620006435762000679565b6001915050620006e2565b60ff841115620006585762000657620007be565b5b8360020a915084821115620006725762000671620007be565b5b50620006e2565b5060208310610133831016604e8410600b8410161715620006b35782820a905083811115620006ad57620006ac620007be565b5b620006e2565b620006c2848484600162000551565b92509050818404811115620006dc57620006db620007be565b5b81810290505b9392505050565b6000620006f6826200077e565b915062000703836200077e565b9250817fffffffffffffffffffffffffffffffffffffffffffffffffffffffffffffffff04831182151516156200073f576200073e620007be565b5b828202905092915050565b600062000757826200075e565b9050919050565b600073ffffffffffffffffffffffffffffffffffffffff82169050919050565b6000819050919050565b60006002820490506001821680620007a157607f821691505b60208210811415620007b857620007b76200081c565b5b50919050565b7f4e487b7100000000000000000000000000000000000000000000000000000000600052601160045260246000fd5b7f4e487b7100000000000000000000000000000000000000000000000000000000600052601260045260246000fd5b7f4e487b7100000000000000000000000000000000000000000000000000000000600052602260045260246000fd5b60008160011c9050919050565b62000863816200074a565b81146200086f57600080fd5b50565b6200087d816200077e565b81146200088957600080fd5b50565b61439b806200089c6000396000f3fe608060405234801561001057600080fd5b50600436106101365760003560e01c8063888515bd116100b8578063e2d24c061161007c578063e2d24c061461039b578063e985e9c5146103b9578063ea3bd5df146103e9578063f242432a14610419578063f3f03a6114610435578063f5298aca1461046557610136565b8063888515bd146102d157806394c5ec6514610301578063a22cb46514610331578063b895c74a1461034d578063de6f56c61461036b57610136565b80632eb2c2d6116100ff5780632eb2c2d61461020757806346c82b2c146102235780634e1273f4146102535780635655bb20146102835780635ebd9ded146102a157610136565b8062fdd58e1461013b57806301ffc9a71461016b5780630e89341c1461019b57806325374996146101cb57806325f5eb81146101e9575b600080fd5b61015560048036038101906101509190612eaa565b610481565b6040516101629190613ba9565b60405180910390f35b61018560048036038101906101809190612fa1565b61054a565b6040516101929190613971565b60405180910390f35b6101b560048036038101906101b09190612ff3565b61062c565b6040516101c2919061398c565b60405180910390f35b6101d36106c0565b6040516101e09190613ba9565b60405180910390f35b6101f16106c6565b6040516101fe9190613ba9565b60405180910390f35b610221600480360381019061021c9190612d20565b6106cc565b005b61023d60048036038101906102389190612ff3565b610ac2565b60405161024a9190613ba9565b60405180910390f35b61026d60048036038101906102689190612f35565b610ada565b60405161027a9190613918565b60405180910390f35b61028b610c8b565b6040516102989190613ba9565b60405180910390f35b6102bb60048036038101906102b69190612ff3565b610c91565b6040516102c89190613ba9565b60405180910390f35b6102eb60048036038101906102e69190613094565b610cae565b6040516102f89190613ba9565b60405180910390f35b61031b600480360381019061031691906130f7565b6111c6565b6040516103289190613ba9565b60405180910390f35b61034b60048036038101906103469190612e6e565b611624565b005b6103556117a5565b6040516103629190613ba9565b60405180910390f35b61038560048036038101906103809190612ff3565b6117ab565b6040516103929190613ba9565b60405180910390f35b6103a3611805565b6040516103b0919061383b565b60405180910390f35b6103d360048036038101906103ce9190612ce4565b61182b565b6040516103e09190613971565b60405180910390f35b61040360048036038101906103fe9190613045565b6118bf565b6040516104109190613ba9565b60405180910390f35b610433600480360381019061042e9190612ddf565b611b4a565b005b61044f600480360381019061044a9190612ff3565b611e62565b60405161045c9190613ba9565b60405180910390f35b61047f600480360381019061047a9190612ee6565b611e7a565b005b60008073ffffffffffffffffffffffffffffffffffffffff168373ffffffffffffffffffffffffffffffffffffffff1614156104f2576040517f08c379a00000000000000000000000000000000000000000000000000000000081526004016104e9906139ee565b60405180910390fd5b60008083815260200190815260200160002060008473ffffffffffffffffffffffffffffffffffffffff1673ffffffffffffffffffffffffffffffffffffffff16815260200190815260200160002054905092915050565b60007fd9b67a26000000000000000000000000000000000000000000000000000000007bffffffffffffffffffffffffffffffffffffffffffffffffffffffff1916827bffffffffffffffffffffffffffffffffffffffffffffffffffffffff1916148061061557507f0e89341c000000000000000000000000000000000000000000000000000000007bffffffffffffffffffffffffffffffffffffffffffffffffffffffff1916827bffffffffffffffffffffffffffffffffffffffffffffffffffffffff1916145b80610625575061062482611f1a565b5b9050919050565b60606002805461063b906140f1565b80601f0160208091040260200160405190810160405280929190818152602001828054610667906140f1565b80156106b45780601f10610689576101008083540402835291602001916106b4565b820191906000526020600020905b81548152906001019060200180831161069757829003601f168201915b50505050509050919050565b60045481565b60075481565b8151835114610710576040517f08c379a000000000000000000000000000000000000000000000000000000000815260040161070790613b2e565b60405180910390fd5b600073ffffffffffffffffffffffffffffffffffffffff168473ffffffffffffffffffffffffffffffffffffffff161415610780576040517f08c379a000000000000000000000000000000000000000000000000000000000815260040161077790613a4e565b60405180910390fd5b610788611f84565b73ffffffffffffffffffffffffffffffffffffffff168573ffffffffffffffffffffffffffffffffffffffff1614806107ce57506107cd856107c8611f84565b61182b565b5b61080d576040517f08c379a000000000000000000000000000000000000000000000000000000000815260040161080490613a6e565b60405180910390fd5b6000610817611f84565b9050610827818787878787611f8c565b60005b8451811015610a2d57600085828151811061086e577f4e487b7100000000000000000000000000000000000000000000000000000000600052603260045260246000fd5b6020026020010151905060008583815181106108b3577f4e487b7100000000000000000000000000000000000000000000000000000000600052603260045260246000fd5b60200260200101519050600080600084815260200190815260200160002060008b73ffffffffffffffffffffffffffffffffffffffff1673ffffffffffffffffffffffffffffffffffffffff16815260200190815260200160002054905081811015610954576040517f08c379a000000000000000000000000000000000000000000000000000000000815260040161094b90613aae565b60405180910390fd5b81816109609190613ffd565b60008085815260200190815260200160002060008c73ffffffffffffffffffffffffffffffffffffffff1673ffffffffffffffffffffffffffffffffffffffff168152602001908152602001600020819055508160008085815260200190815260200160002060008b73ffffffffffffffffffffffffffffffffffffffff1673ffffffffffffffffffffffffffffffffffffffff1681526020019081526020016000206000828254610a129190613dab565b9250508190555050505080610a2690614123565b905061082a565b508473ffffffffffffffffffffffffffffffffffffffff168673ffffffffffffffffffffffffffffffffffffffff168273ffffffffffffffffffffffffffffffffffffffff167f4a39dc06d4c0dbc64b70af90fd698a233a518aa5d07e595d983b8c0526c8f7fb8787604051610aa492919061393a565b60405180910390a4610aba818787878787611f94565b505050505050565b60066020528060005260406000206000915090505481565b60608151835114610b20576040517f08c379a0000000000000000000000000000000000000000000000000000000008152600401610b1790613b0e565b60405180910390fd5b6000835167ffffffffffffffff811115610b63577f4e487b7100000000000000000000000000000000000000000000000000000000600052604160045260246000fd5b604051908082528060200260200182016040528015610b915781602001602082028036833780820191505090505b50905060005b8451811015610c8057610c2a858281518110610bdc577f4e487b7100000000000000000000000000000000000000000000000000000000600052603260045260246000fd5b6020026020010151858381518110610c1d577f4e487b7100000000000000000000000000000000000000000000000000000000600052603260045260246000fd5b6020026020010151610481565b828281518110610c63577f4e487b7100000000000000000000000000000000000000000000000000000000600052603260045260246000fd5b60200260200101818152505080610c7990614123565b9050610b97565b508091505092915050565b60035481565b600060066000838152602001908152602001600020549050919050565b6000600960009054906101000a900473ffffffffffffffffffffffffffffffffffffffff1673ffffffffffffffffffffffffffffffffffffffff163373ffffffffffffffffffffffffffffffffffffffff1614610d40576040517f08c379a0000000000000000000000000000000000000000000000000000000008152600401610d3790613ace565b60405180910390fd5b6003548510610d84576040517f08c379a0000000000000000000000000000000000000000000000000000000008152600401610d7b90613b6e565b60405180910390fd5b60008585610d929190613e01565b905060008190506000808615610dcd577fffffffffffffffffffffffffffffffffffffffffffffffffffffffffffffffff9050889150610de2565b88600354610ddb9190613ffd565b9150600190505b60008267ffffffffffffffff811115610e24577f4e487b7100000000000000000000000000000000000000000000000000000000600052604160045260246000fd5b604051908082528060200260200182016040528015610e525781602001602082028036833780820191505090505b50905060008367ffffffffffffffff811115610e97577f4e487b7100000000000000000000000000000000000000000000000000000000600052604160045260246000fd5b604051908082528060200260200182016040528015610ec55781602001602082028036833780820191505090505b509050600060045485610ed89190613fa3565b6012600a610ee69190613e85565b8c610ef19190613fa3565b610efb9190613e01565b73__$43e6f41f20fb862aeed332b486e44cb4c2$__639fdfe44290916040518263ffffffff1660e01b8152600401610f339190613b8e565b60206040518083038186803b158015610f4b57600080fd5b505af4158015610f5f573d6000803e3d6000fd5b505050506040513d601f19601f82011682018060405250810190610f83919061301c565b9050600081905060008d905060005b878110156110c7578682610fa69190613d17565b9150610fb28284612164565b60076000828254610fc39190613dab565b9250508190555088600660008481526020019081526020016000206000828254610fed9190613dab565b925050819055508186828151811061102e577f4e487b7100000000000000000000000000000000000000000000000000000000600052603260045260246000fd5b60200260200101818152505088858281518110611074577f4e487b7100000000000000000000000000000000000000000000000000000000600052603260045260246000fd5b6020026020010181815250506012600a61108e9190613e85565b848461109a9190613fa3565b6110a49190613e01565b925089896110b29190613dab565b985080806110bf90614123565b915050610f92565b5060006012600a6110d89190613e85565b60075473__$43e6f41f20fb862aeed332b486e44cb4c2$__636ca34af790916040518263ffffffff1660e01b81526004016111139190613b8e565b60206040518083038186803b15801561112b57600080fd5b505af415801561113f573d6000803e3d6000fd5b505050506040513d601f19601f82011682018060405250810190611163919061301c565b6004546111709190613fa3565b61117a9190613e01565b905060006008548261118c9190613ffd565b9050816008819055506111b08d888860405180602001604052806000815250612203565b809b505050505050505050505050949350505050565b6000600960009054906101000a900473ffffffffffffffffffffffffffffffffffffffff1673ffffffffffffffffffffffffffffffffffffffff163373ffffffffffffffffffffffffffffffffffffffff1614611258576040517f08c379a000000000000000000000000000000000000000000000000000000000815260040161124f90613ace565b60405180910390fd5b60006004546012600a61126b9190613e85565b856112769190613fa3565b6112809190613e01565b73__$43e6f41f20fb862aeed332b486e44cb4c2$__639fdfe44290916040518263ffffffff1660e01b81526004016112b89190613b8e565b60206040518083038186803b1580156112d057600080fd5b505af41580156112e4573d6000803e3d6000fd5b505050506040513d601f19601f82011682018060405250810190611308919061301c565b9050600086866113189190613ffd565b905085871061132657600080fd5b60035486111561133557600080fd5b60008167ffffffffffffffff811115611377577f4e487b7100000000000000000000000000000000000000000000000000000000600052604160045260246000fd5b6040519080825280602002602001820160405280156113a55781602001602082028036833780820191505090505b50905060008267ffffffffffffffff8111156113ea577f4e487b7100000000000000000000000000000000000000000000000000000000600052604160045260246000fd5b6040519080825280602002602001820160405280156114185781602001602082028036833780820191505090505b50905060008990505b8881101561152a576114338186612164565b600760008282546114449190613dab565b925050819055508760066000838152602001908152602001600020600082825461146e9190613dab565b9250508190555080838b836114839190613ffd565b815181106114ba577f4e487b7100000000000000000000000000000000000000000000000000000000600052603260045260246000fd5b60200260200101818152505087828b836114d49190613ffd565b8151811061150b577f4e487b7100000000000000000000000000000000000000000000000000000000600052603260045260246000fd5b602002602001018181525050808061152290614123565b915050611421565b5060006012600a61153b9190613e85565b60075473__$43e6f41f20fb862aeed332b486e44cb4c2$__636ca34af790916040518263ffffffff1660e01b81526004016115769190613b8e565b60206040518083038186803b15801561158e57600080fd5b505af41580156115a2573d6000803e3d6000fd5b505050506040513d601f19601f820116820180604052508101906115c6919061301c565b6004546115d39190613fa3565b6115dd9190613e01565b90506000600854826115ef9190613ffd565b90508160088190555061161388858560405180602001604052806000815250612203565b809650505050505050949350505050565b8173ffffffffffffffffffffffffffffffffffffffff16611643611f84565b73ffffffffffffffffffffffffffffffffffffffff16141561169a576040517f08c379a000000000000000000000000000000000000000000000000000000000815260040161169190613aee565b60405180910390fd5b80600160006116a7611f84565b73ffffffffffffffffffffffffffffffffffffffff1673ffffffffffffffffffffffffffffffffffffffff16815260200190815260200160002060008473ffffffffffffffffffffffffffffffffffffffff1673ffffffffffffffffffffffffffffffffffffffff16815260200190815260200160002060006101000a81548160ff0219169083151502179055508173ffffffffffffffffffffffffffffffffffffffff16611754611f84565b73ffffffffffffffffffffffffffffffffffffffff167f17307eab39ab6107e8899845ad3d59bd9653f200f220920489ca2b5937696c31836040516117999190613971565b60405180910390a35050565b60085481565b60006007546012600a6117be9190613e85565b6012600a6117cc9190613e85565b60056000868152602001908152602001600020546117ea9190613dab565b6117f49190613fa3565b6117fe9190613e01565b9050919050565b600960009054906101000a900473ffffffffffffffffffffffffffffffffffffffff1681565b6000600160008473ffffffffffffffffffffffffffffffffffffffff1673ffffffffffffffffffffffffffffffffffffffff16815260200190815260200160002060008373ffffffffffffffffffffffffffffffffffffffff1673ffffffffffffffffffffffffffffffffffffffff16815260200190815260200160002060009054906101000a900460ff16905092915050565b6000600960009054906101000a900473ffffffffffffffffffffffffffffffffffffffff1673ffffffffffffffffffffffffffffffffffffffff163373ffffffffffffffffffffffffffffffffffffffff1614611951576040517f08c379a000000000000000000000000000000000000000000000000000000000815260040161194890613ace565b60405180910390fd5b60006004546012600a6119649190613e85565b8561196f9190613fa3565b6119799190613e01565b73__$43e6f41f20fb862aeed332b486e44cb4c2$__639fdfe44290916040518263ffffffff1660e01b81526004016119b19190613b8e565b60206040518083038186803b1580156119c957600080fd5b505af41580156119dd573d6000803e3d6000fd5b505050506040513d601f19601f82011682018060405250810190611a01919061301c565b90506000611a0f8683612164565b90508060076000828254611a239190613dab565b9250508190555060006012600a611a3a9190613e85565b60075473__$43e6f41f20fb862aeed332b486e44cb4c2$__636ca34af790916040518263ffffffff1660e01b8152600401611a759190613b8e565b60206040518083038186803b158015611a8d57600080fd5b505af4158015611aa1573d6000803e3d6000fd5b505050506040513d601f19601f82011682018060405250810190611ac5919061301c565b600454611ad29190613fa3565b611adc9190613e01565b9050600060085482611aee9190613ffd565b905086600660008a81526020019081526020016000206000828254611b139190613dab565b9250508190555081600881905550611b3c8689896040518060200160405280600081525061246d565b809450505050509392505050565b600073ffffffffffffffffffffffffffffffffffffffff168473ffffffffffffffffffffffffffffffffffffffff161415611bba576040517f08c379a0000000000000000000000000000000000000000000000000000000008152600401611bb190613a4e565b60405180910390fd5b611bc2611f84565b73ffffffffffffffffffffffffffffffffffffffff168573ffffffffffffffffffffffffffffffffffffffff161480611c085750611c0785611c02611f84565b61182b565b5b611c47576040517f08c379a0000000000000000000000000000000000000000000000000000000008152600401611c3e90613a2e565b60405180910390fd5b6000611c51611f84565b9050611c71818787611c6288612603565b611c6b88612603565b87611f8c565b600080600086815260200190815260200160002060008873ffffffffffffffffffffffffffffffffffffffff1673ffffffffffffffffffffffffffffffffffffffff16815260200190815260200160002054905083811015611d08576040517f08c379a0000000000000000000000000000000000000000000000000000000008152600401611cff90613aae565b60405180910390fd5b8381611d149190613ffd565b60008087815260200190815260200160002060008973ffffffffffffffffffffffffffffffffffffffff1673ffffffffffffffffffffffffffffffffffffffff168152602001908152602001600020819055508360008087815260200190815260200160002060008873ffffffffffffffffffffffffffffffffffffffff1673ffffffffffffffffffffffffffffffffffffffff1681526020019081526020016000206000828254611dc69190613dab565b925050819055508573ffffffffffffffffffffffffffffffffffffffff168773ffffffffffffffffffffffffffffffffffffffff168373ffffffffffffffffffffffffffffffffffffffff167fc3d58168c5ae7397731d063d5bbf3d657854427343f4c083240f7aacaa2d0f628888604051611e43929190613bc4565b60405180910390a4611e598288888888886126c9565b50505050505050565b60056020528060005260406000206000915090505481565b600960009054906101000a900473ffffffffffffffffffffffffffffffffffffffff1673ffffffffffffffffffffffffffffffffffffffff163373ffffffffffffffffffffffffffffffffffffffff1614611f0a576040517f08c379a0000000000000000000000000000000000000000000000000000000008152600401611f0190613ace565b60405180910390fd5b611f15838383612899565b505050565b60007f01ffc9a7000000000000000000000000000000000000000000000000000000007bffffffffffffffffffffffffffffffffffffffffffffffffffffffff1916827bffffffffffffffffffffffffffffffffffffffffffffffffffffffff1916149050919050565b600033905090565b505050505050565b611fb38473ffffffffffffffffffffffffffffffffffffffff16612abf565b1561215c578373ffffffffffffffffffffffffffffffffffffffff1663bc197c8187878686866040518663ffffffff1660e01b8152600401611ff9959493929190613856565b602060405180830381600087803b15801561201357600080fd5b505af192505050801561204457506040513d601f19601f820116820180604052508101906120419190612fca565b60015b6120d357612050614253565b8061205b5750612098565b806040517f08c379a000000000000000000000000000000000000000000000000000000000815260040161208f919061398c565b60405180910390fd5b6040517f08c379a00000000000000000000000000000000000000000000000000000000081526004016120ca906139ae565b60405180910390fd5b63bc197c8160e01b7bffffffffffffffffffffffffffffffffffffffffffffffffffffffff1916817bffffffffffffffffffffffffffffffffffffffffffffffffffffffff19161461215a576040517f08c379a0000000000000000000000000000000000000000000000000000000008152600401612151906139ce565b60405180910390fd5b505b505050505050565b6000806012600a6121759190613e85565b60056000868152602001908152602001600020546121939190613dab565b905060006012600a6121a59190613e85565b84836121b19190613fa3565b6121bb9190613e01565b905081816121c99190613ffd565b92506012600a6121d99190613e85565b816121e49190613ffd565b6005600087815260200190815260200160002081905550505092915050565b600073ffffffffffffffffffffffffffffffffffffffff168473ffffffffffffffffffffffffffffffffffffffff161415612273576040517f08c379a000000000000000000000000000000000000000000000000000000000815260040161226a90613b4e565b60405180910390fd5b81518351146122b7576040517f08c379a00000000000000000000000000000000000000000000000000000000081526004016122ae90613b2e565b60405180910390fd5b60006122c1611f84565b90506122d281600087878787611f8c565b60005b84518110156123d757838181518110612317577f4e487b7100000000000000000000000000000000000000000000000000000000600052603260045260246000fd5b602002602001015160008087848151811061235b577f4e487b7100000000000000000000000000000000000000000000000000000000600052603260045260246000fd5b6020026020010151815260200190815260200160002060008873ffffffffffffffffffffffffffffffffffffffff1673ffffffffffffffffffffffffffffffffffffffff16815260200190815260200160002060008282546123bd9190613dab565b9250508190555080806123cf90614123565b9150506122d5565b508473ffffffffffffffffffffffffffffffffffffffff16600073ffffffffffffffffffffffffffffffffffffffff168273ffffffffffffffffffffffffffffffffffffffff167f4a39dc06d4c0dbc64b70af90fd698a233a518aa5d07e595d983b8c0526c8f7fb878760405161244f92919061393a565b60405180910390a461246681600087878787611f94565b5050505050565b600073ffffffffffffffffffffffffffffffffffffffff168473ffffffffffffffffffffffffffffffffffffffff1614156124dd576040517f08c379a00000000000000000000000000000000000000000000000000000000081526004016124d490613b4e565b60405180910390fd5b60006124e7611f84565b9050612508816000876124f988612603565b61250288612603565b87611f8c565b8260008086815260200190815260200160002060008773ffffffffffffffffffffffffffffffffffffffff1673ffffffffffffffffffffffffffffffffffffffff16815260200190815260200160002060008282546125679190613dab565b925050819055508473ffffffffffffffffffffffffffffffffffffffff16600073ffffffffffffffffffffffffffffffffffffffff168273ffffffffffffffffffffffffffffffffffffffff167fc3d58168c5ae7397731d063d5bbf3d657854427343f4c083240f7aacaa2d0f6287876040516125e5929190613bc4565b60405180910390a46125fc816000878787876126c9565b5050505050565b60606000600167ffffffffffffffff811115612648577f4e487b7100000000000000000000000000000000000000000000000000000000600052604160045260246000fd5b6040519080825280602002602001820160405280156126765781602001602082028036833780820191505090505b50905082816000815181106126b4577f4e487b7100000000000000000000000000000000000000000000000000000000600052603260045260246000fd5b60200260200101818152505080915050919050565b6126e88473ffffffffffffffffffffffffffffffffffffffff16612abf565b15612891578373ffffffffffffffffffffffffffffffffffffffff1663f23a6e6187878686866040518663ffffffff1660e01b815260040161272e9594939291906138be565b602060405180830381600087803b15801561274857600080fd5b505af192505050801561277957506040513d601f19601f820116820180604052508101906127769190612fca565b60015b61280857612785614253565b8061279057506127cd565b806040517f08c379a00000000000000000000000000000000000000000000000000000000081526004016127c4919061398c565b60405180910390fd5b6040517f08c379a00000000000000000000000000000000000000000000000000000000081526004016127ff906139ae565b60405180910390fd5b63f23a6e6160e01b7bffffffffffffffffffffffffffffffffffffffffffffffffffffffff1916817bffffffffffffffffffffffffffffffffffffffffffffffffffffffff19161461288f576040517f08c379a0000000000000000000000000000000000000000000000000000000008152600401612886906139ce565b60405180910390fd5b505b505050505050565b600073ffffffffffffffffffffffffffffffffffffffff168373ffffffffffffffffffffffffffffffffffffffff161415612909576040517f08c379a000000000000000000000000000000000000000000000000000000000815260040161290090613a8e565b60405180910390fd5b6000612913611f84565b90506129438185600061292587612603565b61292e87612603565b60405180602001604052806000815250611f8c565b600080600085815260200190815260200160002060008673ffffffffffffffffffffffffffffffffffffffff1673ffffffffffffffffffffffffffffffffffffffff168152602001908152602001600020549050828110156129da576040517f08c379a00000000000000000000000000000000000000000000000000000000081526004016129d190613a0e565b60405180910390fd5b82816129e69190613ffd565b60008086815260200190815260200160002060008773ffffffffffffffffffffffffffffffffffffffff1673ffffffffffffffffffffffffffffffffffffffff16815260200190815260200160002081905550600073ffffffffffffffffffffffffffffffffffffffff168573ffffffffffffffffffffffffffffffffffffffff168373ffffffffffffffffffffffffffffffffffffffff167fc3d58168c5ae7397731d063d5bbf3d657854427343f4c083240f7aacaa2d0f628787604051612ab0929190613bc4565b60405180910390a45050505050565b600080823b905060008111915050919050565b6000612ae5612ae084613c1e565b613bed565b90508083825260208201905082856020860282011115612b0457600080fd5b60005b85811015612b345781612b1a8882612be8565b845260208401935060208301925050600181019050612b07565b5050509392505050565b6000612b51612b4c84613c4a565b613bed565b90508083825260208201905082856020860282011115612b7057600080fd5b60005b85811015612ba05781612b868882612cba565b845260208401935060208301925050600181019050612b73565b5050509392505050565b6000612bbd612bb884613c76565b613bed565b905082815260208101848484011115612bd557600080fd5b612be08482856140af565b509392505050565b600081359050612bf781614309565b92915050565b600082601f830112612c0e57600080fd5b8135612c1e848260208601612ad2565b91505092915050565b600082601f830112612c3857600080fd5b8135612c48848260208601612b3e565b91505092915050565b600081359050612c6081614320565b92915050565b600081359050612c7581614337565b92915050565b600081519050612c8a81614337565b92915050565b600082601f830112612ca157600080fd5b8135612cb1848260208601612baa565b91505092915050565b600081359050612cc98161434e565b92915050565b600081519050612cde8161434e565b92915050565b60008060408385031215612cf757600080fd5b6000612d0585828601612be8565b9250506020612d1685828601612be8565b9150509250929050565b600080600080600060a08688031215612d3857600080fd5b6000612d4688828901612be8565b9550506020612d5788828901612be8565b945050604086013567ffffffffffffffff811115612d7457600080fd5b612d8088828901612c27565b935050606086013567ffffffffffffffff811115612d9d57600080fd5b612da988828901612c27565b925050608086013567ffffffffffffffff811115612dc657600080fd5b612dd288828901612c90565b9150509295509295909350565b600080600080600060a08688031215612df757600080fd5b6000612e0588828901612be8565b9550506020612e1688828901612be8565b9450506040612e2788828901612cba565b9350506060612e3888828901612cba565b925050608086013567ffffffffffffffff811115612e5557600080fd5b612e6188828901612c90565b9150509295509295909350565b60008060408385031215612e8157600080fd5b6000612e8f85828601612be8565b9250506020612ea085828601612c51565b9150509250929050565b60008060408385031215612ebd57600080fd5b6000612ecb85828601612be8565b9250506020612edc85828601612cba565b9150509250929050565b600080600060608486031215612efb57600080fd5b6000612f0986828701612be8565b9350506020612f1a86828701612cba565b9250506040612f2b86828701612cba565b9150509250925092565b60008060408385031215612f4857600080fd5b600083013567ffffffffffffffff811115612f6257600080fd5b612f6e85828601612bfd565b925050602083013567ffffffffffffffff811115612f8b57600080fd5b612f9785828601612c27565b9150509250929050565b600060208284031215612fb357600080fd5b6000612fc184828501612c66565b91505092915050565b600060208284031215612fdc57600080fd5b6000612fea84828501612c7b565b91505092915050565b60006020828403121561300557600080fd5b600061301384828501612cba565b91505092915050565b60006020828403121561302e57600080fd5b600061303c84828501612ccf565b91505092915050565b60008060006060848603121561305a57600080fd5b600061306886828701612cba565b935050602061307986828701612cba565b925050604061308a86828701612be8565b9150509250925092565b600080600080608085870312156130aa57600080fd5b60006130b887828801612cba565b94505060206130c987828801612cba565b93505060406130da87828801612c51565b92505060606130eb87828801612be8565b91505092959194509250565b6000806000806080858703121561310d57600080fd5b600061311b87828801612cba565b945050602061312c87828801612cba565b935050604061313d87828801612cba565b925050606061314e87828801612be8565b91505092959194509250565b6000613166838361380e565b60208301905092915050565b61317b81614031565b82525050565b600061318c82613cb6565b6131968185613ce4565b93506131a183613ca6565b8060005b838110156131d25781516131b9888261315a565b97506131c483613cd7565b9250506001810190506131a5565b5085935050505092915050565b6131e881614043565b82525050565b60006131f982613cc1565b6132038185613cf5565b93506132138185602086016140be565b61321c81614228565b840191505092915050565b600061323282613ccc565b61323c8185613d06565b935061324c8185602086016140be565b61325581614228565b840191505092915050565b600061326d603483613d06565b91507f455243313135353a207472616e7366657220746f206e6f6e204552433131353560008301527f526563656976657220696d706c656d656e7465720000000000000000000000006020830152604082019050919050565b60006132d3602883613d06565b91507f455243313135353a204552433131353552656365697665722072656a6563746560008301527f6420746f6b656e730000000000000000000000000000000000000000000000006020830152604082019050919050565b6000613339602b83613d06565b91507f455243313135353a2062616c616e636520717565727920666f7220746865207a60008301527f65726f20616464726573730000000000000000000000000000000000000000006020830152604082019050919050565b600061339f602483613d06565b91507f455243313135353a206275726e20616d6f756e7420657863656564732062616c60008301527f616e6365000000000000000000000000000000000000000000000000000000006020830152604082019050919050565b6000613405602983613d06565b91507f455243313135353a2063616c6c6572206973206e6f74206f776e6572206e6f7260008301527f20617070726f76656400000000000000000000000000000000000000000000006020830152604082019050919050565b600061346b602583613d06565b91507f455243313135353a207472616e7366657220746f20746865207a65726f20616460008301527f64726573730000000000000000000000000000000000000000000000000000006020830152604082019050919050565b60006134d1603283613d06565b91507f455243313135353a207472616e736665722063616c6c6572206973206e6f742060008301527f6f776e6572206e6f7220617070726f76656400000000000000000000000000006020830152604082019050919050565b6000613537602383613d06565b91507f455243313135353a206275726e2066726f6d20746865207a65726f206164647260008301527f65737300000000000000000000000000000000000000000000000000000000006020830152604082019050919050565b600061359d602a83613d06565b91507f455243313135353a20696e73756666696369656e742062616c616e636520666f60008301527f72207472616e73666572000000000000000000000000000000000000000000006020830152604082019050919050565b6000613603602083613d06565b91507f66756e6374696f6e206f6e6c792063616c6c61626c652076696120526f756e646000830152602082019050919050565b6000613643602983613d06565b91507f455243313135353a2073657474696e6720617070726f76616c2073746174757360008301527f20666f722073656c6600000000000000000000000000000000000000000000006020830152604082019050919050565b60006136a9602983613d06565b91507f455243313135353a206163636f756e747320616e6420696473206c656e67746860008301527f206d69736d6174636800000000000000000000000000000000000000000000006020830152604082019050919050565b600061370f602883613d06565b91507f455243313135353a2069647320616e6420616d6f756e7473206c656e6774682060008301527f6d69736d617463680000000000000000000000000000000000000000000000006020830152604082019050919050565b6000613775602183613d06565b91507f455243313135353a206d696e7420746f20746865207a65726f2061646472657360008301527f73000000000000000000000000000000000000000000000000000000000000006020830152604082019050919050565b60006137db600e83613d06565b91507f696e76616c6964206275636b65740000000000000000000000000000000000006000830152602082019050919050565b613817816140a5565b82525050565b613826816140a5565b82525050565b613835816140a5565b82525050565b60006020820190506138506000830184613172565b92915050565b600060a08201905061386b6000830188613172565b6138786020830187613172565b818103604083015261388a8186613181565b9050818103606083015261389e8185613181565b905081810360808301526138b281846131ee565b90509695505050505050565b600060a0820190506138d36000830188613172565b6138e06020830187613172565b6138ed604083018661381d565b6138fa606083018561381d565b818103608083015261390c81846131ee565b90509695505050505050565b600060208201905081810360008301526139328184613181565b905092915050565b600060408201905081810360008301526139548185613181565b905081810360208301526139688184613181565b90509392505050565b600060208201905061398660008301846131df565b92915050565b600060208201905081810360008301526139a68184613227565b905092915050565b600060208201905081810360008301526139c781613260565b9050919050565b600060208201905081810360008301526139e7816132c6565b9050919050565b60006020820190508181036000830152613a078161332c565b9050919050565b60006020820190508181036000830152613a2781613392565b9050919050565b60006020820190508181036000830152613a47816133f8565b9050919050565b60006020820190508181036000830152613a678161345e565b9050919050565b60006020820190508181036000830152613a87816134c4565b9050919050565b60006020820190508181036000830152613aa78161352a565b9050919050565b60006020820190508181036000830152613ac781613590565b9050919050565b60006020820190508181036000830152613ae7816135f6565b9050919050565b60006020820190508181036000830152613b0781613636565b9050919050565b60006020820190508181036000830152613b278161369c565b9050919050565b60006020820190508181036000830152613b4781613702565b9050919050565b60006020820190508181036000830152613b6781613768565b9050919050565b60006020820190508181036000830152613b87816137ce565b9050919050565b6000602082019050613ba3600083018461382c565b92915050565b6000602082019050613bbe600083018461381d565b92915050565b6000604082019050613bd9600083018561381d565b613be6602083018461381d565b9392505050565b6000604051905081810181811067ffffffffffffffff82111715613c1457613c136141f9565b5b8060405250919050565b600067ffffffffffffffff821115613c3957613c386141f9565b5b602082029050602081019050919050565b600067ffffffffffffffff821115613c6557613c646141f9565b5b602082029050602081019050919050565b600067ffffffffffffffff821115613c9157613c906141f9565b5b601f19601f8301169050602081019050919050565b6000819050602082019050919050565b600081519050919050565b600081519050919050565b600081519050919050565b6000602082019050919050565b600082825260208201905092915050565b600082825260208201905092915050565b600082825260208201905092915050565b6000613d228261407b565b9150613d2d8361407b565b9250817f7fffffffffffffffffffffffffffffffffffffffffffffffffffffffffffffff03831360008312151615613d6857613d6761416c565b5b817f8000000000000000000000000000000000000000000000000000000000000000038312600083121615613da057613d9f61416c565b5b828201905092915050565b6000613db6826140a5565b9150613dc1836140a5565b9250827fffffffffffffffffffffffffffffffffffffffffffffffffffffffffffffffff03821115613df657613df561416c565b5b828201905092915050565b6000613e0c826140a5565b9150613e17836140a5565b925082613e2757613e2661419b565b5b828204905092915050565b6000808291508390505b6001851115613e7c57808604811115613e5857613e5761416c565b5b6001851615613e675780820291505b8081029050613e7585614239565b9450613e3c565b94509492505050565b6000613e90826140a5565b9150613e9b836140a5565b9250613ec87fffffffffffffffffffffffffffffffffffffffffffffffffffffffffffffffff8484613ed0565b905092915050565b600082613ee05760019050613f9c565b81613eee5760009050613f9c565b8160018114613f045760028114613f0e57613f3d565b6001915050613f9c565b60ff841115613f2057613f1f61416c565b5b8360020a915084821115613f3757613f3661416c565b5b50613f9c565b5060208310610133831016604e8410600b8410161715613f725782820a905083811115613f6d57613f6c61416c565b5b613f9c565b613f7f8484846001613e32565b92509050818404811115613f9657613f9561416c565b5b81810290505b9392505050565b6000613fae826140a5565b9150613fb9836140a5565b9250817fffffffffffffffffffffffffffffffffffffffffffffffffffffffffffffffff0483118215151615613ff257613ff161416c565b5b828202905092915050565b6000614008826140a5565b9150614013836140a5565b9250828210156140265761402561416c565b5b828203905092915050565b600061403c82614085565b9050919050565b60008115159050919050565b60007fffffffff0000000000000000000000000000000000000000000000000000000082169050919050565b6000819050919050565b600073ffffffffffffffffffffffffffffffffffffffff82169050919050565b6000819050919050565b82818337600083830152505050565b60005b838110156140dc5780820151818401526020810190506140c1565b838111156140eb576000848401525b50505050565b6000600282049050600182168061410957607f821691505b6020821081141561411d5761411c6141ca565b5b50919050565b600061412e826140a5565b91507fffffffffffffffffffffffffffffffffffffffffffffffffffffffffffffffff8214156141615761416061416c565b5b600182019050919050565b7f4e487b7100000000000000000000000000000000000000000000000000000000600052601160045260246000fd5b7f4e487b7100000000000000000000000000000000000000000000000000000000600052601260045260246000fd5b7f4e487b7100000000000000000000000000000000000000000000000000000000600052602260045260246000fd5b7f4e487b7100000000000000000000000000000000000000000000000000000000600052604160045260246000fd5b6000601f19601f8301169050919050565b60008160011c9050919050565b60008160e01c9050919050565b600060443d101561426357614306565b60046000803e614274600051614246565b6308c379a081146142855750614306565b60405160043d036004823e80513d602482011167ffffffffffffffff821117156142b157505050614306565b808201805167ffffffffffffffff8111156142d0575050505050614306565b8060208301013d85018111156142eb57505050505050614306565b6142f482614228565b60208401016040528296505050505050505b90565b61431281614031565b811461431d57600080fd5b50565b61432981614043565b811461433457600080fd5b50565b6143408161404f565b811461434b57600080fd5b50565b614357816140a5565b811461436257600080fd5b5056fea2646970667358221220d4ec9aacc3daa1c35e842a69bb5d2cceb635c8162fabf33f19ab3410e6ecf96764736f6c63430008000033a2646970667358221220a44b6e75065870906c6c732fddbf77a45e9769c241b531f4627acc9c673e211164736f6c63430008000033",
  "linkReferences": {
    "hardhat/contracts/Libraries/Math.sol": {
      "Math": [
        {
          "length": 20,
          "start": 2475
        },
        {
          "length": 20,
          "start": 8177
        },
        {
          "length": 20,
          "start": 8657
        },
        {
          "length": 20,
          "start": 9078
        },
        {
          "length": 20,
          "start": 9780
        },
        {
          "length": 20,
          "start": 10863
        },
        {
          "length": 20,
          "start": 11059
        }
      ]
    }
  },
  "deployedLinkReferences": {
    "hardhat/contracts/Libraries/Math.sol": {
      "Math": [
        {
          "length": 20,
          "start": 2256
        },
        {
          "length": 20,
          "start": 7958
        },
        {
          "length": 20,
          "start": 8438
        },
        {
          "length": 20,
          "start": 8859
        },
        {
          "length": 20,
          "start": 9561
        },
        {
          "length": 20,
          "start": 10644
        },
        {
          "length": 20,
          "start": 10840
        }
      ]
    }
  }
}