{
  "_format": "hh-sol-artifact-1",
  "contractName": "Math",
  "sourceName": "hardhat/contracts/Libraries/Math.sol",
  "abi": [
    {
      "inputs": [
        {
          "internalType": "uint256",
          "name": "exponent",
          "type": "uint256"
        }
      ],
      "name": "exponentiate",
      "outputs": [
        {
          "internalType": "uint256",
          "name": "",
          "type": "uint256"
        }
      ],
      "stateMutability": "pure",
      "type": "function"
    },
    {
      "inputs": [
        {
          "internalType": "uint256",
          "name": "operand",
          "type": "uint256"
        }
      ],
      "name": "logarithm",
      "outputs": [
        {
          "internalType": "uint256",
          "name": "",
          "type": "uint256"
        }
      ],
      "stateMutability": "pure",
      "type": "function"
    }
  ],
  "bytecode": "0x610ce5610053600b82828239805160001a607314610046577f4e487b7100000000000000000000000000000000000000000000000000000000600052600060045260246000fd5b30600052607381538281f3fe73000000000000000000000000000000000000000030146080604052600436106100405760003560e01c80636ca34af7146100455780639fdfe44214610075575b600080fd5b61005f600480360381019061005a91906104b3565b6100a5565b60405161006c919061054b565b60405180910390f35b61008f600480360381019061008a91906104b3565b610311565b60405161009c919061054b565b60405180910390f35b6000806012600a6100b69190610651565b836100c191906105cd565b905060008111610106576040517f08c379a00000000000000000000000000000000000000000000000000000000081526004016100fd9061052b565b60405180910390fd5b6000700100000000000000000000000000000000821061013757608082901c91506080816101349190610577565b90505b68010000000000000000821061015e57604082901c915060408161015b9190610577565b90505b640100000000821061018157602082901c915060208161017e9190610577565b90505b6201000082106101a257601082901c915060108161019f9190610577565b90505b61010082106101c257600882901c91506008816101bf9190610577565b90505b601082106101e157600482901c91506004816101de9190610577565b90505b6004821061020057600282901c91506002816101fd9190610577565b90505b60028210610218576001816102159190610577565b90505b6012600a6102269190610651565b81610231919061076f565b90506012600a6102419190610651565b8161024c91906105cd565b60026102589190610651565b8461026391906105cd565b91506000806012600a6102769190610651565b90505b60008111156102fa576012600a6102909190610651565b600261029c919061076f565b84106102c05780826102ae9190610577565b91506002846102bd91906105cd565b93505b6012600a6102ce9190610651565b84856102da919061076f565b6102e491906105cd565b93506002816102f391906105cd565b9050610279565b5081816103079190610577565b9350505050919050565b6000806012600a6103229190610651565b8361032d91906105cd565b905060006012600a61033f9190610651565b8461034a919061081c565b9050600082600261035b9190610651565b905060006012600a61036d9190610651565b905060005b603e8110156103d057600084610387836103e8565b1611156103bd576012600a61039c9190610651565b6103a582610443565b836103b0919061076f565b6103ba91906105cd565b91505b80806103c8906107d3565b915050610372565b5080826103dd919061076f565b945050505050919050565b6000806040518061022001604052806101f081526020016108d06101f0913990506000600884600861041a919061076f565b6104249190610577565b905060008183015190508067ffffffffffffffff169350505050919050565b6000806040518061022001604052806101f08152602001610ac06101f09139905060006008846008610475919061076f565b61047f9190610577565b905060008183015190508067ffffffffffffffff169350505050919050565b6000813590506104ad816108b8565b92915050565b6000602082840312156104c557600080fd5b60006104d38482850161049e565b91505092915050565b60006104e9601c83610566565b91507f6c6f6761726974686d3a206f706572616e6420746f6f20736d616c6c000000006000830152602082019050919050565b610525816107c9565b82525050565b60006020820190508181036000830152610544816104dc565b9050919050565b6000602082019050610560600083018461051c565b92915050565b600082825260208201905092915050565b6000610582826107c9565b915061058d836107c9565b9250827fffffffffffffffffffffffffffffffffffffffffffffffffffffffffffffffff038211156105c2576105c161084d565b5b828201905092915050565b60006105d8826107c9565b91506105e3836107c9565b9250826105f3576105f261087c565b5b828204905092915050565b6000808291508390505b6001851115610648578086048111156106245761062361084d565b5b60018516156106335780820291505b8081029050610641856108ab565b9450610608565b94509492505050565b600061065c826107c9565b9150610667836107c9565b92506106947fffffffffffffffffffffffffffffffffffffffffffffffffffffffffffffffff848461069c565b905092915050565b6000826106ac5760019050610768565b816106ba5760009050610768565b81600181146106d057600281146106da57610709565b6001915050610768565b60ff8411156106ec576106eb61084d565b5b8360020a9150848211156107035761070261084d565b5b50610768565b5060208310610133831016604e8410600b841016171561073e5782820a9050838111156107395761073861084d565b5b610768565b61074b84848460016105fe565b925090508184048111156107625761076161084d565b5b81810290505b9392505050565b600061077a826107c9565b9150610785836107c9565b9250817fffffffffffffffffffffffffffffffffffffffffffffffffffffffffffffffff04831182151516156107be576107bd61084d565b5b828202905092915050565b6000819050919050565b60006107de826107c9565b91507fffffffffffffffffffffffffffffffffffffffffffffffffffffffffffffffff8214156108115761081061084d565b5b600182019050919050565b6000610827826107c9565b9150610832836107c9565b9250826108425761084161087c565b5b828206905092915050565b7f4e487b7100000000000000000000000000000000000000000000000000000000600052601160045260246000fd5b7f4e487b7100000000000000000000000000000000000000000000000000000000600052601260045260246000fd5b60008160011c9050919050565b6108c1816107c9565b81146108cc57600080fd5b5056fe000000000000000100000000000000020000000000000004000000000000000800000000000000100000000000000020000000000000004000000000000000800000000000000100000000000000020000000000000004000000000000000800000000000000100000000000000020000000000000004000000000000000800000000000000100000000000000020000000000000004000000000000000800000000000000100000000000000020000000000000004000000000000000800000000000000100000000000000020000000000000004000000000000000800000000000000100000000000000020000000000000004000000000000000800000000000000100000000000000020000000000000004000000000000000800000000000000100000000000000020000000000000004000000000000000800000000000000100000000000000020000000000000004000000000000000800000000000000100000000000000020000000000000004000000000000000800000000000000100000000000000020000000000000004000000000000000800000000000000100000000000000020000000000000004000000000000000800000000000000100000000000000020000000000000004000000000000000800000000000000100000000000000020000000000000000de0b6b3a76400000de0b6b3a76400010de0b6b3a76400020de0b6b3a76400050de0b6b3a764000b0de0b6b3a76400160de0b6b3a764002c0de0b6b3a76400580de0b6b3a76400b10de0b6b3a76401620de0b6b3a76402c50de0b6b3a764058b0de0b6b3a7640b170de0b6b3a764162e0de0b6b3a7642c5c0de0b6b3a76458b90de0b6b3a764b1720de0b6b3a76562e40de0b6b3a766c5c80de0b6b3a7698b900de0b6b3a76f17210de0b6b3a77a2e420de0b6b3a7905c850de0b6b3a7bcb90b0de0b6b3a81572170de0b6b3a8c6e42f0de0b6b3aa29c85f0de0b6b3acef90bf0de0b6b3b27b217f0de0b6b3bd9242ff0de0b6b3d3c085fe0de0b6b4001d0bfd0de0b6b458d617fc0de0b6b50a4830010de0b6b66d2c60260de0b6b932f4c0da0de0b6bebe8583eb0de0b6c9d5a710b30de0b6e003ea44db0de0b70c607117840de0b765198066410de0b8168ba5a9640de0b979700ac64c0de0bc3f393f5ab50de0c1cacd51ee520de0cce1fc1cc3c60de0e3107449406e0de10f6dcefe47050de1682a2ddebc000de219a991aadb930de37cc2f2fcb7380de6436028ee3a220debd244c555d3b40df6f6b9dbcc5f410e0d5a6c6ea8a8410e3a8dbbd2b7e9d50e96aa5bb87c13840f55ef96062919dd10f25db82c317ea514b1c2442ffabe3c1edbf25de7a70f72449e9dd02d2817d4a264697066735822122020c5fbafec9b3bd8c8d2f85daff811ca73738697fb2d4e57239c6d3badf1b69b64736f6c63430008000033",
  "linkReferences": {},
  "deployedLinkReferences": {}
}