{
  "_format": "hh-sol-artifact-1",
  "contractName": "Vault",
  "sourceName": "hardhat/contracts/Vault.sol",
  "abi": [
    {
      "inputs": [],
      "stateMutability": "nonpayable",
      "type": "constructor"
    },
    {
      "anonymous": false,
      "inputs": [
        {
          "indexed": true,
          "internalType": "address",
          "name": "previousOwner",
          "type": "address"
        },
        {
          "indexed": true,
          "internalType": "address",
          "name": "newOwner",
          "type": "address"
        }
      ],
      "name": "OwnershipTransferred",
      "type": "event"
    },
    {
      "anonymous": false,
      "inputs": [
        {
          "indexed": false,
          "internalType": "address",
          "name": "recipient",
          "type": "address"
        },
        {
          "indexed": false,
          "internalType": "uint256",
          "name": "amount",
          "type": "uint256"
        },
        {
          "indexed": false,
          "internalType": "address",
          "name": "asset_address",
          "type": "address"
        }
      ],
      "name": "redemption",
      "type": "event"
    },
    {
      "inputs": [
        {
          "internalType": "address",
          "name": "",
          "type": "address"
        }
      ],
      "name": "_rounds",
      "outputs": [
        {
          "internalType": "bool",
          "name": "",
          "type": "bool"
        }
      ],
      "stateMutability": "view",
      "type": "function"
    },
    {
      "inputs": [
        {
          "internalType": "address",
          "name": "round",
          "type": "address"
        }
      ],
      "name": "approveRound",
      "outputs": [],
      "stateMutability": "nonpayable",
      "type": "function"
    },
    {
      "inputs": [],
      "name": "owner",
      "outputs": [
        {
          "internalType": "address",
          "name": "",
          "type": "address"
        }
      ],
      "stateMutability": "view",
      "type": "function"
    },
    {
      "inputs": [
        {
          "internalType": "address",
          "name": "recipient",
          "type": "address"
        },
        {
          "internalType": "uint256",
          "name": "amount",
          "type": "uint256"
        },
        {
          "internalType": "address",
          "name": "asset_address",
          "type": "address"
        }
      ],
      "name": "redeem",
      "outputs": [],
      "stateMutability": "nonpayable",
      "type": "function"
    },
    {
      "inputs": [],
      "name": "renounceOwnership",
      "outputs": [],
      "stateMutability": "nonpayable",
      "type": "function"
    },
    {
      "inputs": [
        {
          "internalType": "address",
          "name": "round",
          "type": "address"
        }
      ],
      "name": "revokeRound",
      "outputs": [],
      "stateMutability": "nonpayable",
      "type": "function"
    },
    {
      "inputs": [
        {
          "internalType": "address",
          "name": "newOwner",
          "type": "address"
        }
      ],
      "name": "transferOwnership",
      "outputs": [],
      "stateMutability": "nonpayable",
      "type": "function"
    }
  ],
  "bytecode": "0x608060405234801561001057600080fd5b5060006100216100c460201b60201c565b9050806000806101000a81548173ffffffffffffffffffffffffffffffffffffffff021916908373ffffffffffffffffffffffffffffffffffffffff1602179055508073ffffffffffffffffffffffffffffffffffffffff16600073ffffffffffffffffffffffffffffffffffffffff167f8be0079c531659141344cd1fd0a4f28419497f9722a3daafe3b4186f6b6457e060405160405180910390a3506100cc565b600033905090565b610b42806100db6000396000f3fe608060405234801561001057600080fd5b506004361061007d5760003560e01c806377a729391161005b57806377a72939146100c45780638da5cb5b146100e0578063f2fde38b146100fe578063ff63b6bb1461011a5761007d565b8063095d5a70146100825780635c833bfd1461009e578063715018a6146100ba575b600080fd5b61009c600480360381019061009791906107c4565b61014a565b005b6100b860048036038101906100b391906107ed565b610220565b005b6100c261037a565b005b6100de60048036038101906100d991906107c4565b6104b4565b005b6100e861058b565b6040516100f59190610978565b60405180910390f35b610118600480360381019061011391906107c4565b6105b4565b005b610134600480360381019061012f91906107c4565b61075d565b60405161014191906109f3565b60405180910390f35b61015261077d565b73ffffffffffffffffffffffffffffffffffffffff1661017061058b565b73ffffffffffffffffffffffffffffffffffffffff16146101c6576040517f08c379a00000000000000000000000000000000000000000000000000000000081526004016101bd90610a2e565b60405180910390fd5b60018060008373ffffffffffffffffffffffffffffffffffffffff1673ffffffffffffffffffffffffffffffffffffffff16815260200190815260200160002060006101000a81548160ff02191690831515021790555050565b600160003373ffffffffffffffffffffffffffffffffffffffff1673ffffffffffffffffffffffffffffffffffffffff16815260200190815260200160002060009054906101000a900460ff166102ac576040517f08c379a00000000000000000000000000000000000000000000000000000000081526004016102a390610a4e565b60405180910390fd5b8073ffffffffffffffffffffffffffffffffffffffff1663a9059cbb84846040518363ffffffff1660e01b81526004016102e7929190610993565b602060405180830381600087803b15801561030157600080fd5b505af1158015610315573d6000803e3d6000fd5b505050506040513d601f19601f82011682018060405250810190610339919061083c565b507f7a7f757aab2ba5422bbf3227806d2801cdf02fbb7e2081ee7ae3d023448c792d83838360405161036d939291906109bc565b60405180910390a1505050565b61038261077d565b73ffffffffffffffffffffffffffffffffffffffff166103a061058b565b73ffffffffffffffffffffffffffffffffffffffff16146103f6576040517f08c379a00000000000000000000000000000000000000000000000000000000081526004016103ed90610a2e565b60405180910390fd5b600073ffffffffffffffffffffffffffffffffffffffff1660008054906101000a900473ffffffffffffffffffffffffffffffffffffffff1673ffffffffffffffffffffffffffffffffffffffff167f8be0079c531659141344cd1fd0a4f28419497f9722a3daafe3b4186f6b6457e060405160405180910390a360008060006101000a81548173ffffffffffffffffffffffffffffffffffffffff021916908373ffffffffffffffffffffffffffffffffffffffff160217905550565b6104bc61077d565b73ffffffffffffffffffffffffffffffffffffffff166104da61058b565b73ffffffffffffffffffffffffffffffffffffffff1614610530576040517f08c379a000000000000000000000000000000000000000000000000000000000815260040161052790610a2e565b60405180910390fd5b6000600160008373ffffffffffffffffffffffffffffffffffffffff1673ffffffffffffffffffffffffffffffffffffffff16815260200190815260200160002060006101000a81548160ff02191690831515021790555050565b60008060009054906101000a900473ffffffffffffffffffffffffffffffffffffffff16905090565b6105bc61077d565b73ffffffffffffffffffffffffffffffffffffffff166105da61058b565b73ffffffffffffffffffffffffffffffffffffffff1614610630576040517f08c379a000000000000000000000000000000000000000000000000000000000815260040161062790610a2e565b60405180910390fd5b600073ffffffffffffffffffffffffffffffffffffffff168173ffffffffffffffffffffffffffffffffffffffff1614156106a0576040517f08c379a000000000000000000000000000000000000000000000000000000000815260040161069790610a0e565b60405180910390fd5b8073ffffffffffffffffffffffffffffffffffffffff1660008054906101000a900473ffffffffffffffffffffffffffffffffffffffff1673ffffffffffffffffffffffffffffffffffffffff167f8be0079c531659141344cd1fd0a4f28419497f9722a3daafe3b4186f6b6457e060405160405180910390a3806000806101000a81548173ffffffffffffffffffffffffffffffffffffffff021916908373ffffffffffffffffffffffffffffffffffffffff16021790555050565b60016020528060005260406000206000915054906101000a900460ff1681565b600033905090565b60008135905061079481610ac7565b92915050565b6000815190506107a981610ade565b92915050565b6000813590506107be81610af5565b92915050565b6000602082840312156107d657600080fd5b60006107e484828501610785565b91505092915050565b60008060006060848603121561080257600080fd5b600061081086828701610785565b9350506020610821868287016107af565b925050604061083286828701610785565b9150509250925092565b60006020828403121561084e57600080fd5b600061085c8482850161079a565b91505092915050565b61086e81610a7f565b82525050565b61087d81610a91565b82525050565b6000610890602683610a6e565b91507f4f776e61626c653a206e6577206f776e657220697320746865207a65726f206160008301527f64647265737300000000000000000000000000000000000000000000000000006020830152604082019050919050565b60006108f6602083610a6e565b91507f4f776e61626c653a2063616c6c6572206973206e6f7420746865206f776e65726000830152602082019050919050565b6000610936602083610a6e565b91507f63616e206f6e6c792063616c6c205661756c742066726f6d206120526f756e646000830152602082019050919050565b61097281610abd565b82525050565b600060208201905061098d6000830184610865565b92915050565b60006040820190506109a86000830185610865565b6109b56020830184610969565b9392505050565b60006060820190506109d16000830186610865565b6109de6020830185610969565b6109eb6040830184610865565b949350505050565b6000602082019050610a086000830184610874565b92915050565b60006020820190508181036000830152610a2781610883565b9050919050565b60006020820190508181036000830152610a47816108e9565b9050919050565b60006020820190508181036000830152610a6781610929565b9050919050565b600082825260208201905092915050565b6000610a8a82610a9d565b9050919050565b60008115159050919050565b600073ffffffffffffffffffffffffffffffffffffffff82169050919050565b6000819050919050565b610ad081610a7f565b8114610adb57600080fd5b50565b610ae781610a91565b8114610af257600080fd5b50565b610afe81610abd565b8114610b0957600080fd5b5056fea264697066735822122000c9701b0b936f55014fd2875283a87e540a94ad5ef7410bafa7565c082b23a164736f6c63430008000033",
  "linkReferences": {},
  "deployedLinkReferences": {}
}