{
  "_format": "hh-sol-artifact-1",
  "contractName": "Vault",
  "sourceName": "hardhat/contracts/Vault.sol",
  "abi": [
    {
      "inputs": [],
      "stateMutability": "nonpayable",
      "type": "constructor"
    },
    {
      "inputs": [
        {
          "internalType": "address",
          "name": "round",
          "type": "address"
        },
        {
          "internalType": "uint256",
          "name": "amount",
          "type": "uint256"
        },
        {
          "internalType": "address",
          "name": "asset",
          "type": "address"
        }
      ],
      "name": "handleTransferFromVault",
      "outputs": [],
      "stateMutability": "nonpayable",
      "type": "function"
    },
    {
      "inputs": [
        {
          "internalType": "address",
          "name": "round",
          "type": "address"
        },
        {
          "internalType": "uint256",
          "name": "amount",
          "type": "uint256"
        },
        {
          "internalType": "address",
          "name": "asset",
          "type": "address"
        }
      ],
      "name": "handleTransferToVault",
      "outputs": [],
      "stateMutability": "nonpayable",
      "type": "function"
    }
  ],
  "bytecode": "0x608060405234801561001057600080fd5b506104f6806100206000396000f3fe608060405234801561001057600080fd5b50600436106100365760003560e01c806396c489161461003b5780639e06883a14610057575b600080fd5b61005560048036038101906100509190610284565b610073565b005b610071600480360381019061006c9190610284565b61015d565b005b8073ffffffffffffffffffffffffffffffffffffffff166323b872dd8430856040518463ffffffff1660e01b81526004016100b09392919061031a565b602060405180830381600087803b1580156100ca57600080fd5b505af11580156100de573d6000803e3d6000fd5b505050506040513d601f19601f8201168201806040525081019061010291906102d3565b50816000808373ffffffffffffffffffffffffffffffffffffffff1673ffffffffffffffffffffffffffffffffffffffff1681526020019081526020016000206000828254610151919061037a565b92505081905550505050565b8073ffffffffffffffffffffffffffffffffffffffff1663a9059cbb84846040518363ffffffff1660e01b8152600401610198929190610351565b602060405180830381600087803b1580156101b257600080fd5b505af11580156101c6573d6000803e3d6000fd5b505050506040513d601f19601f820116820180604052508101906101ea91906102d3565b50816000808373ffffffffffffffffffffffffffffffffffffffff1673ffffffffffffffffffffffffffffffffffffffff168152602001908152602001600020600082825461023991906103d0565b92505081905550505050565b6000813590506102548161047b565b92915050565b60008151905061026981610492565b92915050565b60008135905061027e816104a9565b92915050565b60008060006060848603121561029957600080fd5b60006102a786828701610245565b93505060206102b88682870161026f565b92505060406102c986828701610245565b9150509250925092565b6000602082840312156102e557600080fd5b60006102f38482850161025a565b91505092915050565b61030581610404565b82525050565b61031481610442565b82525050565b600060608201905061032f60008301866102fc565b61033c60208301856102fc565b610349604083018461030b565b949350505050565b600060408201905061036660008301856102fc565b610373602083018461030b565b9392505050565b600061038582610442565b915061039083610442565b9250827fffffffffffffffffffffffffffffffffffffffffffffffffffffffffffffffff038211156103c5576103c461044c565b5b828201905092915050565b60006103db82610442565b91506103e683610442565b9250828210156103f9576103f861044c565b5b828203905092915050565b600061040f82610422565b9050919050565b60008115159050919050565b600073ffffffffffffffffffffffffffffffffffffffff82169050919050565b6000819050919050565b7f4e487b7100000000000000000000000000000000000000000000000000000000600052601160045260246000fd5b61048481610404565b811461048f57600080fd5b50565b61049b81610416565b81146104a657600080fd5b50565b6104b281610442565b81146104bd57600080fd5b5056fea26469706673582212201b5586da63a4ad29f186b59f2c3625688a17d0a31f0c8d37b86916010c91f9ae64736f6c63430008000033",
  "linkReferences": {},
  "deployedLinkReferences": {}
}