{
  "_format": "hh-sol-artifact-1",
  "contractName": "Blocks",
  "sourceName": "hardhat/contracts/Blocks.sol",
  "abi": [
    {
      "inputs": [
        {
          "internalType": "uint256",
          "name": "N",
          "type": "uint256"
        },
        {
          "internalType": "uint256",
          "name": "b",
          "type": "uint256"
        }
      ],
      "stateMutability": "nonpayable",
      "type": "constructor"
    },
    {
      "anonymous": false,
      "inputs": [
        {
          "indexed": true,
          "internalType": "address",
          "name": "account",
          "type": "address"
        },
        {
          "indexed": true,
          "internalType": "address",
          "name": "operator",
          "type": "address"
        },
        {
          "indexed": false,
          "internalType": "bool",
          "name": "approved",
          "type": "bool"
        }
      ],
      "name": "ApprovalForAll",
      "type": "event"
    },
    {
      "anonymous": false,
      "inputs": [
        {
          "indexed": true,
          "internalType": "address",
          "name": "operator",
          "type": "address"
        },
        {
          "indexed": true,
          "internalType": "address",
          "name": "from",
          "type": "address"
        },
        {
          "indexed": true,
          "internalType": "address",
          "name": "to",
          "type": "address"
        },
        {
          "indexed": false,
          "internalType": "uint256[]",
          "name": "ids",
          "type": "uint256[]"
        },
        {
          "indexed": false,
          "internalType": "uint256[]",
          "name": "values",
          "type": "uint256[]"
        }
      ],
      "name": "TransferBatch",
      "type": "event"
    },
    {
      "anonymous": false,
      "inputs": [
        {
          "indexed": true,
          "internalType": "address",
          "name": "operator",
          "type": "address"
        },
        {
          "indexed": true,
          "internalType": "address",
          "name": "from",
          "type": "address"
        },
        {
          "indexed": true,
          "internalType": "address",
          "name": "to",
          "type": "address"
        },
        {
          "indexed": false,
          "internalType": "uint256",
          "name": "id",
          "type": "uint256"
        },
        {
          "indexed": false,
          "internalType": "uint256",
          "name": "value",
          "type": "uint256"
        }
      ],
      "name": "TransferSingle",
      "type": "event"
    },
    {
      "anonymous": false,
      "inputs": [
        {
          "indexed": false,
          "internalType": "string",
          "name": "value",
          "type": "string"
        },
        {
          "indexed": true,
          "internalType": "uint256",
          "name": "id",
          "type": "uint256"
        }
      ],
      "name": "URI",
      "type": "event"
    },
    {
      "inputs": [],
      "name": "_N",
      "outputs": [
        {
          "internalType": "uint256",
          "name": "",
          "type": "uint256"
        }
      ],
      "stateMutability": "view",
      "type": "function"
    },
    {
      "inputs": [],
      "name": "_b",
      "outputs": [
        {
          "internalType": "uint256",
          "name": "",
          "type": "uint256"
        }
      ],
      "stateMutability": "view",
      "type": "function"
    },
    {
      "inputs": [],
      "name": "_earnings",
      "outputs": [
        {
          "internalType": "uint256",
          "name": "",
          "type": "uint256"
        }
      ],
      "stateMutability": "view",
      "type": "function"
    },
    {
      "inputs": [
        {
          "internalType": "uint256",
          "name": "",
          "type": "uint256"
        }
      ],
      "name": "_quantities",
      "outputs": [
        {
          "internalType": "uint256",
          "name": "",
          "type": "uint256"
        }
      ],
      "stateMutability": "view",
      "type": "function"
    },
    {
      "inputs": [],
      "name": "_total_sold",
      "outputs": [
        {
          "internalType": "uint256",
          "name": "",
          "type": "uint256"
        }
      ],
      "stateMutability": "view",
      "type": "function"
    },
    {
      "inputs": [],
      "name": "_total_weight",
      "outputs": [
        {
          "internalType": "uint256",
          "name": "",
          "type": "uint256"
        }
      ],
      "stateMutability": "view",
      "type": "function"
    },
    {
      "inputs": [],
      "name": "_value",
      "outputs": [
        {
          "internalType": "uint256",
          "name": "",
          "type": "uint256"
        }
      ],
      "stateMutability": "view",
      "type": "function"
    },
    {
      "inputs": [
        {
          "internalType": "uint256",
          "name": "",
          "type": "uint256"
        }
      ],
      "name": "_weights",
      "outputs": [
        {
          "internalType": "uint256",
          "name": "",
          "type": "uint256"
        }
      ],
      "stateMutability": "view",
      "type": "function"
    },
    {
      "inputs": [
        {
          "internalType": "address",
          "name": "account",
          "type": "address"
        },
        {
          "internalType": "uint256",
          "name": "id",
          "type": "uint256"
        }
      ],
      "name": "balanceOf",
      "outputs": [
        {
          "internalType": "uint256",
          "name": "",
          "type": "uint256"
        }
      ],
      "stateMutability": "view",
      "type": "function"
    },
    {
      "inputs": [
        {
          "internalType": "address[]",
          "name": "accounts",
          "type": "address[]"
        },
        {
          "internalType": "uint256[]",
          "name": "ids",
          "type": "uint256[]"
        }
      ],
      "name": "balanceOfBatch",
      "outputs": [
        {
          "internalType": "uint256[]",
          "name": "",
          "type": "uint256[]"
        }
      ],
      "stateMutability": "view",
      "type": "function"
    },
    {
      "inputs": [
        {
          "internalType": "uint256",
          "name": "bucket",
          "type": "uint256"
        },
        {
          "internalType": "uint256",
          "name": "amount",
          "type": "uint256"
        }
      ],
      "name": "fake_purchase",
      "outputs": [],
      "stateMutability": "nonpayable",
      "type": "function"
    },
    {
      "inputs": [
        {
          "internalType": "uint256",
          "name": "bucket",
          "type": "uint256"
        },
        {
          "internalType": "uint256",
          "name": "price",
          "type": "uint256"
        }
      ],
      "name": "getRequiredAmount",
      "outputs": [
        {
          "internalType": "uint256",
          "name": "",
          "type": "uint256"
        }
      ],
      "stateMutability": "view",
      "type": "function"
    },
    {
      "inputs": [
        {
          "internalType": "uint256",
          "name": "bucket",
          "type": "uint256"
        }
      ],
      "name": "get_bucket_price",
      "outputs": [
        {
          "internalType": "uint256",
          "name": "",
          "type": "uint256"
        }
      ],
      "stateMutability": "view",
      "type": "function"
    },
    {
      "inputs": [
        {
          "internalType": "address",
          "name": "account",
          "type": "address"
        },
        {
          "internalType": "address",
          "name": "operator",
          "type": "address"
        }
      ],
      "name": "isApprovedForAll",
      "outputs": [
        {
          "internalType": "bool",
          "name": "",
          "type": "bool"
        }
      ],
      "stateMutability": "view",
      "type": "function"
    },
    {
      "inputs": [
        {
          "internalType": "uint256",
          "name": "bucket",
          "type": "uint256"
        },
        {
          "internalType": "uint256",
          "name": "amount",
          "type": "uint256"
        }
      ],
      "name": "purchase",
      "outputs": [],
      "stateMutability": "nonpayable",
      "type": "function"
    },
    {
      "inputs": [
        {
          "internalType": "address",
          "name": "from",
          "type": "address"
        },
        {
          "internalType": "address",
          "name": "to",
          "type": "address"
        },
        {
          "internalType": "uint256[]",
          "name": "ids",
          "type": "uint256[]"
        },
        {
          "internalType": "uint256[]",
          "name": "amounts",
          "type": "uint256[]"
        },
        {
          "internalType": "bytes",
          "name": "data",
          "type": "bytes"
        }
      ],
      "name": "safeBatchTransferFrom",
      "outputs": [],
      "stateMutability": "nonpayable",
      "type": "function"
    },
    {
      "inputs": [
        {
          "internalType": "address",
          "name": "from",
          "type": "address"
        },
        {
          "internalType": "address",
          "name": "to",
          "type": "address"
        },
        {
          "internalType": "uint256",
          "name": "id",
          "type": "uint256"
        },
        {
          "internalType": "uint256",
          "name": "amount",
          "type": "uint256"
        },
        {
          "internalType": "bytes",
          "name": "data",
          "type": "bytes"
        }
      ],
      "name": "safeTransferFrom",
      "outputs": [],
      "stateMutability": "nonpayable",
      "type": "function"
    },
    {
      "inputs": [
        {
          "internalType": "address",
          "name": "operator",
          "type": "address"
        },
        {
          "internalType": "bool",
          "name": "approved",
          "type": "bool"
        }
      ],
      "name": "setApprovalForAll",
      "outputs": [],
      "stateMutability": "nonpayable",
      "type": "function"
    },
    {
      "inputs": [
        {
          "internalType": "bytes4",
          "name": "interfaceId",
          "type": "bytes4"
        }
      ],
      "name": "supportsInterface",
      "outputs": [
        {
          "internalType": "bool",
          "name": "",
          "type": "bool"
        }
      ],
      "stateMutability": "view",
      "type": "function"
    },
    {
      "inputs": [
        {
          "internalType": "uint256",
          "name": "",
          "type": "uint256"
        }
      ],
      "name": "uri",
      "outputs": [
        {
          "internalType": "string",
          "name": "",
          "type": "string"
        }
      ],
      "stateMutability": "view",
      "type": "function"
    }
  ],
  "bytecode": "0x60806040523480156200001157600080fd5b50604051620043b3380380620043b3833981810160405281019062000037919062000504565b6040518060400160405280600481526020017f6e6f6e65000000000000000000000000000000000000000000000000000000008152506200007e816200017360201b60201c565b5060008211620000c5576040517f08c379a0000000000000000000000000000000000000000000000000000000008152600401620000bc906200069b565b60405180910390fd5b816005819055506000811162000112576040517f08c379a0000000000000000000000000000000000000000000000000000000008152600401620001099062000657565b60405180910390fd5b806008819055506012600a620001299190620007be565b600554620001389190620008fb565b600681905550620001566006546200018f60201b620014c61760201c565b600854620001659190620008fb565b600981905550505062000a50565b80600290805190602001906200018b9291906200043d565b5050565b6000806012600a620001a29190620007be565b83620001af91906200072b565b905060008111620001f7576040517f08c379a0000000000000000000000000000000000000000000000000000000008152600401620001ee9062000679565b60405180910390fd5b600070010000000000000000000000000000000082106200022b57608082901c9150608081620002289190620006ce565b90505b6801000000000000000082106200025557604082901c9150604081620002529190620006ce565b90505b64010000000082106200027b57602082901c9150602081620002789190620006ce565b90505b6201000082106200029f57601082901c91506010816200029c9190620006ce565b90505b6101008210620002c257600882901c9150600881620002bf9190620006ce565b90505b60108210620002e457600482901c9150600481620002e19190620006ce565b90505b600482106200030657600282901c9150600281620003039190620006ce565b90505b6002821062000321576001816200031e9190620006ce565b90505b6012600a620003319190620007be565b816200033e9190620008fb565b90506012600a620003509190620007be565b816200035d91906200072b565b60026200036b9190620007be565b846200037891906200072b565b91506000806012600a6200038d9190620007be565b90505b600081111562000424576012600a620003aa9190620007be565b6002620003b89190620008fb565b8410620003e1578082620003cd9190620006ce565b9150600284620003de91906200072b565b93505b6012600a620003f19190620007be565b8485620003ff9190620008fb565b6200040b91906200072b565b93506002816200041c91906200072b565b905062000390565b508181620004339190620006ce565b9350505050919050565b8280546200044b9062000966565b90600052602060002090601f0160209004810192826200046f5760008555620004bb565b82601f106200048a57805160ff1916838001178555620004bb565b82800160010185558215620004bb579182015b82811115620004ba5782518255916020019190600101906200049d565b5b509050620004ca9190620004ce565b5090565b5b80821115620004e9576000816000905550600101620004cf565b5090565b600081519050620004fe8162000a36565b92915050565b600080604083850312156200051857600080fd5b60006200052885828601620004ed565b92505060206200053b85828601620004ed565b9150509250929050565b600062000554602183620006bd565b91507f636f6e7374727563746f723a20622073686f756c6420626520706f736974697660008301527f65000000000000000000000000000000000000000000000000000000000000006020830152604082019050919050565b6000620005bc601c83620006bd565b91507f6c6f6761726974686d3a206f706572616e6420746f6f20736d616c6c000000006000830152602082019050919050565b6000620005fe602183620006bd565b91507f636f6e7374727563746f723a204e2073686f756c6420626520706f736974697660008301527f65000000000000000000000000000000000000000000000000000000000000006020830152604082019050919050565b60006020820190508181036000830152620006728162000545565b9050919050565b600060208201905081810360008301526200069481620005ad565b9050919050565b60006020820190508181036000830152620006b681620005ef565b9050919050565b600082825260208201905092915050565b6000620006db826200095c565b9150620006e8836200095c565b9250827fffffffffffffffffffffffffffffffffffffffffffffffffffffffffffffffff0382111562000720576200071f6200099c565b5b828201905092915050565b600062000738826200095c565b915062000745836200095c565b925082620007585762000757620009cb565b5b828204905092915050565b6000808291508390505b6001851115620007b5578086048111156200078d576200078c6200099c565b5b60018516156200079d5780820291505b8081029050620007ad8562000a29565b94506200076d565b94509492505050565b6000620007cb826200095c565b9150620007d8836200095c565b9250620008077fffffffffffffffffffffffffffffffffffffffffffffffffffffffffffffffff84846200080f565b905092915050565b600082620008215760019050620008f4565b81620008315760009050620008f4565b81600181146200084a576002811462000855576200088b565b6001915050620008f4565b60ff8411156200086a57620008696200099c565b5b8360020a9150848211156200088457620008836200099c565b5b50620008f4565b5060208310610133831016604e8410600b8410161715620008c55782820a905083811115620008bf57620008be6200099c565b5b620008f4565b620008d4848484600162000763565b92509050818404811115620008ee57620008ed6200099c565b5b81810290505b9392505050565b600062000908826200095c565b915062000915836200095c565b9250817fffffffffffffffffffffffffffffffffffffffffffffffffffffffffffffffff04831182151516156200095157620009506200099c565b5b828202905092915050565b6000819050919050565b600060028204905060018216806200097f57607f821691505b60208210811415620009965762000995620009fa565b5b50919050565b7f4e487b7100000000000000000000000000000000000000000000000000000000600052601160045260246000fd5b7f4e487b7100000000000000000000000000000000000000000000000000000000600052601260045260246000fd5b7f4e487b7100000000000000000000000000000000000000000000000000000000600052602260045260246000fd5b60008160011c9050919050565b62000a41816200095c565b811462000a4d57600080fd5b50565b6139538062000a606000396000f3fe608060405234801561001057600080fd5b506004361061012b5760003560e01c80635655bb20116100ad578063b895c74a11610071578063b895c74a14610368578063c6e3a9b314610386578063e985e9c5146103a4578063f242432a146103d4578063f3f03a61146103f05761012b565b80635655bb20146102b25780636a6e48a4146102d057806370876c98146103005780638b47bbae1461031c578063a22cb4651461034c5761012b565b806325374996116100f457806325374996146101fa57806325f5eb81146102185780632eb2c2d61461023657806346c82b2c146102525780634e1273f4146102825761012b565b8062fdd58e1461013057806301ffc9a7146101605780630b789a21146101905780630e89341c146101ac5780631ade9391146101dc575b600080fd5b61014a6004803603810190610145919061230b565b610420565b6040516101579190612dee565b60405180910390f35b61017a600480360381019061017591906123b3565b6104e9565b6040516101879190612bf1565b60405180910390f35b6101aa60048036038101906101a5919061242e565b6105cb565b005b6101c660048036038101906101c19190612405565b6105ea565b6040516101d39190612c0c565b60405180910390f35b6101e461067e565b6040516101f19190612dee565b60405180910390f35b610202610684565b60405161020f9190612dee565b60405180910390f35b61022061068a565b60405161022d9190612dee565b60405180910390f35b610250600480360381019061024b9190612181565b610690565b005b61026c60048036038101906102679190612405565b610a86565b6040516102799190612dee565b60405180910390f35b61029c60048036038101906102979190612347565b610a9e565b6040516102a99190612b98565b60405180910390f35b6102ba610c4f565b6040516102c79190612dee565b60405180910390f35b6102ea60048036038101906102e5919061242e565b610c55565b6040516102f79190612dee565b60405180910390f35b61031a6004803603810190610315919061242e565b610dc2565b005b61033660048036038101906103319190612405565b610f1b565b6040516103439190612dee565b60405180910390f35b610366600480360381019061036191906122cf565b610f75565b005b6103706110f6565b60405161037d9190612dee565b60405180910390f35b61038e6110fc565b60405161039b9190612dee565b60405180910390f35b6103be60048036038101906103b99190612145565b611102565b6040516103cb9190612bf1565b60405180910390f35b6103ee60048036038101906103e99190612240565b611196565b005b61040a60048036038101906104059190612405565b6114ae565b6040516104179190612dee565b60405180910390f35b60008073ffffffffffffffffffffffffffffffffffffffff168373ffffffffffffffffffffffffffffffffffffffff161415610491576040517f08c379a000000000000000000000000000000000000000000000000000000000815260040161048890612c6e565b60405180910390fd5b60008083815260200190815260200160002060008473ffffffffffffffffffffffffffffffffffffffff1673ffffffffffffffffffffffffffffffffffffffff16815260200190815260200160002054905092915050565b60007fd9b67a26000000000000000000000000000000000000000000000000000000007bffffffffffffffffffffffffffffffffffffffffffffffffffffffff1916827bffffffffffffffffffffffffffffffffffffffffffffffffffffffff191614806105b457507f0e89341c000000000000000000000000000000000000000000000000000000007bffffffffffffffffffffffffffffffffffffffffffffffffffffffff1916827bffffffffffffffffffffffffffffffffffffffffffffffffffffffff1916145b806105c457506105c382611732565b5b9050919050565b6105e63383836040518060200160405280600081525061179c565b5050565b6060600280546105f990613298565b80601f016020809104026020016040519081016040528092919081815260200182805461062590613298565b80156106725780601f1061064757610100808354040283529160200191610672565b820191906000526020600020905b81548152906001019060200180831161065557829003601f168201915b50505050509050919050565b600a5481565b60085481565b60065481565b81518351146106d4576040517f08c379a00000000000000000000000000000000000000000000000000000000081526004016106cb90612d8e565b60405180910390fd5b600073ffffffffffffffffffffffffffffffffffffffff168473ffffffffffffffffffffffffffffffffffffffff161415610744576040517f08c379a000000000000000000000000000000000000000000000000000000000815260040161073b90612cae565b60405180910390fd5b61074c611932565b73ffffffffffffffffffffffffffffffffffffffff168573ffffffffffffffffffffffffffffffffffffffff16148061079257506107918561078c611932565b611102565b5b6107d1576040517f08c379a00000000000000000000000000000000000000000000000000000000081526004016107c890612cce565b60405180910390fd5b60006107db611932565b90506107eb81878787878761193a565b60005b84518110156109f1576000858281518110610832577f4e487b7100000000000000000000000000000000000000000000000000000000600052603260045260246000fd5b602002602001015190506000858381518110610877577f4e487b7100000000000000000000000000000000000000000000000000000000600052603260045260246000fd5b60200260200101519050600080600084815260200190815260200160002060008b73ffffffffffffffffffffffffffffffffffffffff1673ffffffffffffffffffffffffffffffffffffffff16815260200190815260200160002054905081811015610918576040517f08c379a000000000000000000000000000000000000000000000000000000000815260040161090f90612d0e565b60405180910390fd5b818161092491906131ae565b60008085815260200190815260200160002060008c73ffffffffffffffffffffffffffffffffffffffff1673ffffffffffffffffffffffffffffffffffffffff168152602001908152602001600020819055508160008085815260200190815260200160002060008b73ffffffffffffffffffffffffffffffffffffffff1673ffffffffffffffffffffffffffffffffffffffff16815260200190815260200160002060008282546109d69190612f5c565b92505081905550505050806109ea906132ca565b90506107ee565b508473ffffffffffffffffffffffffffffffffffffffff168673ffffffffffffffffffffffffffffffffffffffff168273ffffffffffffffffffffffffffffffffffffffff167f4a39dc06d4c0dbc64b70af90fd698a233a518aa5d07e595d983b8c0526c8f7fb8787604051610a68929190612bba565b60405180910390a4610a7e818787878787611942565b505050505050565b60046020528060005260406000206000915090505481565b60608151835114610ae4576040517f08c379a0000000000000000000000000000000000000000000000000000000008152600401610adb90612d6e565b60405180910390fd5b6000835167ffffffffffffffff811115610b27577f4e487b7100000000000000000000000000000000000000000000000000000000600052604160045260246000fd5b604051908082528060200260200182016040528015610b555781602001602082028036833780820191505090505b50905060005b8451811015610c4457610bee858281518110610ba0577f4e487b7100000000000000000000000000000000000000000000000000000000600052603260045260246000fd5b6020026020010151858381518110610be1577f4e487b7100000000000000000000000000000000000000000000000000000000600052603260045260246000fd5b6020026020010151610420565b828281518110610c27577f4e487b7100000000000000000000000000000000000000000000000000000000600052603260045260246000fd5b60200260200101818152505080610c3d906132ca565b9050610b5b565b508091505092915050565b60055481565b60006012600a610c659190613036565b8210610ca6576040517f08c379a0000000000000000000000000000000000000000000000000000000008152600401610c9d90612cee565b60405180910390fd5b610caf83610f1b565b8211610cf0576040517f08c379a0000000000000000000000000000000000000000000000000000000008152600401610ce790612d2e565b60405180910390fd5b610dad826012600a610d029190613036565b610d0c91906131ae565b6012600a610d1a9190613036565b6003600087815260200190815260200160002054610d389190612f5c565b610d429190613154565b6012600a610d509190613036565b846012600a610d5f9190613036565b6003600089815260200190815260200160002054600654610d8091906131ae565b610d8a91906131ae565b610d949190613154565b610d9e9190613154565b610da89190612fb2565b6114c6565b600854610dba9190613154565b905092915050565b6000610df26008546012600a610dd89190613036565b84610de39190613154565b610ded9190612fb2565b611b12565b905060006012600a610e049190613036565b6003600086815260200190815260200160002054610e229190612f5c565b905060006012600a610e349190613036565b8383610e409190613154565b610e4a9190612fb2565b905060008183600654610e5d91906131ae565b610e679190612f5c565b90506000610e74826114c6565b600854610e819190613154565b9050600060095482610e9391906131ae565b9050826006819055506012600a610eaa9190613036565b84610eb591906131ae565b600360008a81526020019081526020016000208190555086600460008a81526020019081526020016000206000828254610eef9190612f5c565b92505081905550610f113389896040518060200160405280600081525061179c565b5050505050505050565b60006006546012600a610f2e9190613036565b6012600a610f3c9190613036565b6003600086815260200190815260200160002054610f5a9190612f5c565b610f649190613154565b610f6e9190612fb2565b9050919050565b8173ffffffffffffffffffffffffffffffffffffffff16610f94611932565b73ffffffffffffffffffffffffffffffffffffffff161415610feb576040517f08c379a0000000000000000000000000000000000000000000000000000000008152600401610fe290612d4e565b60405180910390fd5b8060016000610ff8611932565b73ffffffffffffffffffffffffffffffffffffffff1673ffffffffffffffffffffffffffffffffffffffff16815260200190815260200160002060008473ffffffffffffffffffffffffffffffffffffffff1673ffffffffffffffffffffffffffffffffffffffff16815260200190815260200160002060006101000a81548160ff0219169083151502179055508173ffffffffffffffffffffffffffffffffffffffff166110a5611932565b73ffffffffffffffffffffffffffffffffffffffff167f17307eab39ab6107e8899845ad3d59bd9653f200f220920489ca2b5937696c31836040516110ea9190612bf1565b60405180910390a35050565b60095481565b60075481565b6000600160008473ffffffffffffffffffffffffffffffffffffffff1673ffffffffffffffffffffffffffffffffffffffff16815260200190815260200160002060008373ffffffffffffffffffffffffffffffffffffffff1673ffffffffffffffffffffffffffffffffffffffff16815260200190815260200160002060009054906101000a900460ff16905092915050565b600073ffffffffffffffffffffffffffffffffffffffff168473ffffffffffffffffffffffffffffffffffffffff161415611206576040517f08c379a00000000000000000000000000000000000000000000000000000000081526004016111fd90612cae565b60405180910390fd5b61120e611932565b73ffffffffffffffffffffffffffffffffffffffff168573ffffffffffffffffffffffffffffffffffffffff16148061125457506112538561124e611932565b611102565b5b611293576040517f08c379a000000000000000000000000000000000000000000000000000000000815260040161128a90612c8e565b60405180910390fd5b600061129d611932565b90506112bd8187876112ae88611be9565b6112b788611be9565b8761193a565b600080600086815260200190815260200160002060008873ffffffffffffffffffffffffffffffffffffffff1673ffffffffffffffffffffffffffffffffffffffff16815260200190815260200160002054905083811015611354576040517f08c379a000000000000000000000000000000000000000000000000000000000815260040161134b90612d0e565b60405180910390fd5b838161136091906131ae565b60008087815260200190815260200160002060008973ffffffffffffffffffffffffffffffffffffffff1673ffffffffffffffffffffffffffffffffffffffff168152602001908152602001600020819055508360008087815260200190815260200160002060008873ffffffffffffffffffffffffffffffffffffffff1673ffffffffffffffffffffffffffffffffffffffff16815260200190815260200160002060008282546114129190612f5c565b925050819055508573ffffffffffffffffffffffffffffffffffffffff168773ffffffffffffffffffffffffffffffffffffffff168373ffffffffffffffffffffffffffffffffffffffff167fc3d58168c5ae7397731d063d5bbf3d657854427343f4c083240f7aacaa2d0f62888860405161148f929190612e09565b60405180910390a46114a5828888888888611caf565b50505050505050565b60036020528060005260406000206000915090505481565b6000806012600a6114d79190613036565b836114e29190612fb2565b905060008111611527576040517f08c379a000000000000000000000000000000000000000000000000000000000815260040161151e90612dce565b60405180910390fd5b6000700100000000000000000000000000000000821061155857608082901c91506080816115559190612f5c565b90505b68010000000000000000821061157f57604082901c915060408161157c9190612f5c565b90505b64010000000082106115a257602082901c915060208161159f9190612f5c565b90505b6201000082106115c357601082901c91506010816115c09190612f5c565b90505b61010082106115e357600882901c91506008816115e09190612f5c565b90505b6010821061160257600482901c91506004816115ff9190612f5c565b90505b6004821061162157600282901c915060028161161e9190612f5c565b90505b60028210611639576001816116369190612f5c565b90505b6012600a6116479190613036565b816116529190613154565b90506012600a6116629190613036565b8161166d9190612fb2565b60026116799190613036565b846116849190612fb2565b91506000806012600a6116979190613036565b90505b600081111561171b576012600a6116b19190613036565b60026116bd9190613154565b84106116e15780826116cf9190612f5c565b91506002846116de9190612fb2565b93505b6012600a6116ef9190613036565b84856116fb9190613154565b6117059190612fb2565b93506002816117149190612fb2565b905061169a565b5081816117289190612f5c565b9350505050919050565b60007f01ffc9a7000000000000000000000000000000000000000000000000000000007bffffffffffffffffffffffffffffffffffffffffffffffffffffffff1916827bffffffffffffffffffffffffffffffffffffffffffffffffffffffff1916149050919050565b600073ffffffffffffffffffffffffffffffffffffffff168473ffffffffffffffffffffffffffffffffffffffff16141561180c576040517f08c379a000000000000000000000000000000000000000000000000000000000815260040161180390612dae565b60405180910390fd5b6000611816611932565b90506118378160008761182888611be9565b61183188611be9565b8761193a565b8260008086815260200190815260200160002060008773ffffffffffffffffffffffffffffffffffffffff1673ffffffffffffffffffffffffffffffffffffffff16815260200190815260200160002060008282546118969190612f5c565b925050819055508473ffffffffffffffffffffffffffffffffffffffff16600073ffffffffffffffffffffffffffffffffffffffff168273ffffffffffffffffffffffffffffffffffffffff167fc3d58168c5ae7397731d063d5bbf3d657854427343f4c083240f7aacaa2d0f628787604051611914929190612e09565b60405180910390a461192b81600087878787611caf565b5050505050565b600033905090565b505050505050565b6119618473ffffffffffffffffffffffffffffffffffffffff16611e7f565b15611b0a578373ffffffffffffffffffffffffffffffffffffffff1663bc197c8187878686866040518663ffffffff1660e01b81526004016119a7959493929190612ad6565b602060405180830381600087803b1580156119c157600080fd5b505af19250505080156119f257506040513d601f19601f820116820180604052508101906119ef91906123dc565b60015b611a81576119fe61342b565b80611a095750611a46565b806040517f08c379a0000000000000000000000000000000000000000000000000000000008152600401611a3d9190612c0c565b60405180910390fd5b6040517f08c379a0000000000000000000000000000000000000000000000000000000008152600401611a7890612c2e565b60405180910390fd5b63bc197c8160e01b7bffffffffffffffffffffffffffffffffffffffffffffffffffffffff1916817bffffffffffffffffffffffffffffffffffffffffffffffffffffffff191614611b08576040517f08c379a0000000000000000000000000000000000000000000000000000000008152600401611aff90612c4e565b60405180910390fd5b505b505050505050565b6000806012600a611b239190613036565b83611b2e9190612fb2565b905060006012600a611b409190613036565b84611b4b9190613313565b90506000826002611b5c9190613036565b905060006012600a611b6e9190613036565b905060005b603e811015611bd157600084611b8883611e92565b161115611bbe576012600a611b9d9190613036565b611ba682611eed565b83611bb19190613154565b611bbb9190612fb2565b91505b8080611bc9906132ca565b915050611b73565b508082611bde9190613154565b945050505050919050565b60606000600167ffffffffffffffff811115611c2e577f4e487b7100000000000000000000000000000000000000000000000000000000600052604160045260246000fd5b604051908082528060200260200182016040528015611c5c5781602001602082028036833780820191505090505b5090508281600081518110611c9a577f4e487b7100000000000000000000000000000000000000000000000000000000600052603260045260246000fd5b60200260200101818152505080915050919050565b611cce8473ffffffffffffffffffffffffffffffffffffffff16611e7f565b15611e77578373ffffffffffffffffffffffffffffffffffffffff1663f23a6e6187878686866040518663ffffffff1660e01b8152600401611d14959493929190612b3e565b602060405180830381600087803b158015611d2e57600080fd5b505af1925050508015611d5f57506040513d601f19601f82011682018060405250810190611d5c91906123dc565b60015b611dee57611d6b61342b565b80611d765750611db3565b806040517f08c379a0000000000000000000000000000000000000000000000000000000008152600401611daa9190612c0c565b60405180910390fd5b6040517f08c379a0000000000000000000000000000000000000000000000000000000008152600401611de590612c2e565b60405180910390fd5b63f23a6e6160e01b7bffffffffffffffffffffffffffffffffffffffffffffffffffffffff1916817bffffffffffffffffffffffffffffffffffffffffffffffffffffffff191614611e75576040517f08c379a0000000000000000000000000000000000000000000000000000000008152600401611e6c90612c4e565b60405180910390fd5b505b505050505050565b600080823b905060008111915050919050565b6000806040518061022001604052806101f0815260200161353e6101f09139905060006008846008611ec49190613154565b611ece9190612f5c565b905060008183015190508067ffffffffffffffff169350505050919050565b6000806040518061022001604052806101f0815260200161372e6101f09139905060006008846008611f1f9190613154565b611f299190612f5c565b905060008183015190508067ffffffffffffffff169350505050919050565b6000611f5b611f5684612e63565b612e32565b90508083825260208201905082856020860282011115611f7a57600080fd5b60005b85811015611faa5781611f90888261205e565b845260208401935060208301925050600181019050611f7d565b5050509392505050565b6000611fc7611fc284612e8f565b612e32565b90508083825260208201905082856020860282011115611fe657600080fd5b60005b858110156120165781611ffc8882612130565b845260208401935060208301925050600181019050611fe9565b5050509392505050565b600061203361202e84612ebb565b612e32565b90508281526020810184848401111561204b57600080fd5b612056848285613256565b509392505050565b60008135905061206d816134e1565b92915050565b600082601f83011261208457600080fd5b8135612094848260208601611f48565b91505092915050565b600082601f8301126120ae57600080fd5b81356120be848260208601611fb4565b91505092915050565b6000813590506120d6816134f8565b92915050565b6000813590506120eb8161350f565b92915050565b6000815190506121008161350f565b92915050565b600082601f83011261211757600080fd5b8135612127848260208601612020565b91505092915050565b60008135905061213f81613526565b92915050565b6000806040838503121561215857600080fd5b60006121668582860161205e565b92505060206121778582860161205e565b9150509250929050565b600080600080600060a0868803121561219957600080fd5b60006121a78882890161205e565b95505060206121b88882890161205e565b945050604086013567ffffffffffffffff8111156121d557600080fd5b6121e18882890161209d565b935050606086013567ffffffffffffffff8111156121fe57600080fd5b61220a8882890161209d565b925050608086013567ffffffffffffffff81111561222757600080fd5b61223388828901612106565b9150509295509295909350565b600080600080600060a0868803121561225857600080fd5b60006122668882890161205e565b95505060206122778882890161205e565b945050604061228888828901612130565b935050606061229988828901612130565b925050608086013567ffffffffffffffff8111156122b657600080fd5b6122c288828901612106565b9150509295509295909350565b600080604083850312156122e257600080fd5b60006122f08582860161205e565b9250506020612301858286016120c7565b9150509250929050565b6000806040838503121561231e57600080fd5b600061232c8582860161205e565b925050602061233d85828601612130565b9150509250929050565b6000806040838503121561235a57600080fd5b600083013567ffffffffffffffff81111561237457600080fd5b61238085828601612073565b925050602083013567ffffffffffffffff81111561239d57600080fd5b6123a98582860161209d565b9150509250929050565b6000602082840312156123c557600080fd5b60006123d3848285016120dc565b91505092915050565b6000602082840312156123ee57600080fd5b60006123fc848285016120f1565b91505092915050565b60006020828403121561241757600080fd5b600061242584828501612130565b91505092915050565b6000806040838503121561244157600080fd5b600061244f85828601612130565b925050602061246085828601612130565b9150509250929050565b60006124768383612ab8565b60208301905092915050565b61248b816131e2565b82525050565b600061249c82612efb565b6124a68185612f29565b93506124b183612eeb565b8060005b838110156124e25781516124c9888261246a565b97506124d483612f1c565b9250506001810190506124b5565b5085935050505092915050565b6124f8816131f4565b82525050565b600061250982612f06565b6125138185612f3a565b9350612523818560208601613265565b61252c81613400565b840191505092915050565b600061254282612f11565b61254c8185612f4b565b935061255c818560208601613265565b61256581613400565b840191505092915050565b600061257d603483612f4b565b91507f455243313135353a207472616e7366657220746f206e6f6e204552433131353560008301527f526563656976657220696d706c656d656e7465720000000000000000000000006020830152604082019050919050565b60006125e3602883612f4b565b91507f455243313135353a204552433131353552656365697665722072656a6563746560008301527f6420746f6b656e730000000000000000000000000000000000000000000000006020830152604082019050919050565b6000612649602b83612f4b565b91507f455243313135353a2062616c616e636520717565727920666f7220746865207a60008301527f65726f20616464726573730000000000000000000000000000000000000000006020830152604082019050919050565b60006126af602983612f4b565b91507f455243313135353a2063616c6c6572206973206e6f74206f776e6572206e6f7260008301527f20617070726f76656400000000000000000000000000000000000000000000006020830152604082019050919050565b6000612715602583612f4b565b91507f455243313135353a207472616e7366657220746f20746865207a65726f20616460008301527f64726573730000000000000000000000000000000000000000000000000000006020830152604082019050919050565b600061277b603283612f4b565b91507f455243313135353a207472616e736665722063616c6c6572206973206e6f742060008301527f6f776e6572206e6f7220617070726f76656400000000000000000000000000006020830152604082019050919050565b60006127e1602183612f4b565b91507f6765745265717569726564416d6f756e743a20707269636520746f6f2068696760008301527f68000000000000000000000000000000000000000000000000000000000000006020830152604082019050919050565b6000612847602a83612f4b565b91507f455243313135353a20696e73756666696369656e742062616c616e636520666f60008301527f72207472616e73666572000000000000000000000000000000000000000000006020830152604082019050919050565b60006128ad602083612f4b565b91507f6765745265717569726564416d6f756e743a20707269636520746f6f206c6f776000830152602082019050919050565b60006128ed602983612f4b565b91507f455243313135353a2073657474696e6720617070726f76616c2073746174757360008301527f20666f722073656c6600000000000000000000000000000000000000000000006020830152604082019050919050565b6000612953602983612f4b565b91507f455243313135353a206163636f756e747320616e6420696473206c656e67746860008301527f206d69736d6174636800000000000000000000000000000000000000000000006020830152604082019050919050565b60006129b9602883612f4b565b91507f455243313135353a2069647320616e6420616d6f756e7473206c656e6774682060008301527f6d69736d617463680000000000000000000000000000000000000000000000006020830152604082019050919050565b6000612a1f602183612f4b565b91507f455243313135353a206d696e7420746f20746865207a65726f2061646472657360008301527f73000000000000000000000000000000000000000000000000000000000000006020830152604082019050919050565b6000612a85601c83612f4b565b91507f6c6f6761726974686d3a206f706572616e6420746f6f20736d616c6c000000006000830152602082019050919050565b612ac18161324c565b82525050565b612ad08161324c565b82525050565b600060a082019050612aeb6000830188612482565b612af86020830187612482565b8181036040830152612b0a8186612491565b90508181036060830152612b1e8185612491565b90508181036080830152612b3281846124fe565b90509695505050505050565b600060a082019050612b536000830188612482565b612b606020830187612482565b612b6d6040830186612ac7565b612b7a6060830185612ac7565b8181036080830152612b8c81846124fe565b90509695505050505050565b60006020820190508181036000830152612bb28184612491565b905092915050565b60006040820190508181036000830152612bd48185612491565b90508181036020830152612be88184612491565b90509392505050565b6000602082019050612c0660008301846124ef565b92915050565b60006020820190508181036000830152612c268184612537565b905092915050565b60006020820190508181036000830152612c4781612570565b9050919050565b60006020820190508181036000830152612c67816125d6565b9050919050565b60006020820190508181036000830152612c878161263c565b9050919050565b60006020820190508181036000830152612ca7816126a2565b9050919050565b60006020820190508181036000830152612cc781612708565b9050919050565b60006020820190508181036000830152612ce78161276e565b9050919050565b60006020820190508181036000830152612d07816127d4565b9050919050565b60006020820190508181036000830152612d278161283a565b9050919050565b60006020820190508181036000830152612d47816128a0565b9050919050565b60006020820190508181036000830152612d67816128e0565b9050919050565b60006020820190508181036000830152612d8781612946565b9050919050565b60006020820190508181036000830152612da7816129ac565b9050919050565b60006020820190508181036000830152612dc781612a12565b9050919050565b60006020820190508181036000830152612de781612a78565b9050919050565b6000602082019050612e036000830184612ac7565b92915050565b6000604082019050612e1e6000830185612ac7565b612e2b6020830184612ac7565b9392505050565b6000604051905081810181811067ffffffffffffffff82111715612e5957612e586133d1565b5b8060405250919050565b600067ffffffffffffffff821115612e7e57612e7d6133d1565b5b602082029050602081019050919050565b600067ffffffffffffffff821115612eaa57612ea96133d1565b5b602082029050602081019050919050565b600067ffffffffffffffff821115612ed657612ed56133d1565b5b601f19601f8301169050602081019050919050565b6000819050602082019050919050565b600081519050919050565b600081519050919050565b600081519050919050565b6000602082019050919050565b600082825260208201905092915050565b600082825260208201905092915050565b600082825260208201905092915050565b6000612f678261324c565b9150612f728361324c565b9250827fffffffffffffffffffffffffffffffffffffffffffffffffffffffffffffffff03821115612fa757612fa6613344565b5b828201905092915050565b6000612fbd8261324c565b9150612fc88361324c565b925082612fd857612fd7613373565b5b828204905092915050565b6000808291508390505b600185111561302d5780860481111561300957613008613344565b5b60018516156130185780820291505b808102905061302685613411565b9450612fed565b94509492505050565b60006130418261324c565b915061304c8361324c565b92506130797fffffffffffffffffffffffffffffffffffffffffffffffffffffffffffffffff8484613081565b905092915050565b600082613091576001905061314d565b8161309f576000905061314d565b81600181146130b557600281146130bf576130ee565b600191505061314d565b60ff8411156130d1576130d0613344565b5b8360020a9150848211156130e8576130e7613344565b5b5061314d565b5060208310610133831016604e8410600b84101617156131235782820a90508381111561311e5761311d613344565b5b61314d565b6131308484846001612fe3565b9250905081840481111561314757613146613344565b5b81810290505b9392505050565b600061315f8261324c565b915061316a8361324c565b9250817fffffffffffffffffffffffffffffffffffffffffffffffffffffffffffffffff04831182151516156131a3576131a2613344565b5b828202905092915050565b60006131b98261324c565b91506131c48361324c565b9250828210156131d7576131d6613344565b5b828203905092915050565b60006131ed8261322c565b9050919050565b60008115159050919050565b60007fffffffff0000000000000000000000000000000000000000000000000000000082169050919050565b600073ffffffffffffffffffffffffffffffffffffffff82169050919050565b6000819050919050565b82818337600083830152505050565b60005b83811015613283578082015181840152602081019050613268565b83811115613292576000848401525b50505050565b600060028204905060018216806132b057607f821691505b602082108114156132c4576132c36133a2565b5b50919050565b60006132d58261324c565b91507fffffffffffffffffffffffffffffffffffffffffffffffffffffffffffffffff82141561330857613307613344565b5b600182019050919050565b600061331e8261324c565b91506133298361324c565b92508261333957613338613373565b5b828206905092915050565b7f4e487b7100000000000000000000000000000000000000000000000000000000600052601160045260246000fd5b7f4e487b7100000000000000000000000000000000000000000000000000000000600052601260045260246000fd5b7f4e487b7100000000000000000000000000000000000000000000000000000000600052602260045260246000fd5b7f4e487b7100000000000000000000000000000000000000000000000000000000600052604160045260246000fd5b6000601f19601f8301169050919050565b60008160011c9050919050565b60008160e01c9050919050565b600060443d101561343b576134de565b60046000803e61344c60005161341e565b6308c379a0811461345d57506134de565b60405160043d036004823e80513d602482011167ffffffffffffffff82111715613489575050506134de565b808201805167ffffffffffffffff8111156134a85750505050506134de565b8060208301013d85018111156134c3575050505050506134de565b6134cc82613400565b60208401016040528296505050505050505b90565b6134ea816131e2565b81146134f557600080fd5b50565b613501816131f4565b811461350c57600080fd5b50565b61351881613200565b811461352357600080fd5b50565b61352f8161324c565b811461353a57600080fd5b5056fe000000000000000100000000000000020000000000000004000000000000000800000000000000100000000000000020000000000000004000000000000000800000000000000100000000000000020000000000000004000000000000000800000000000000100000000000000020000000000000004000000000000000800000000000000100000000000000020000000000000004000000000000000800000000000000100000000000000020000000000000004000000000000000800000000000000100000000000000020000000000000004000000000000000800000000000000100000000000000020000000000000004000000000000000800000000000000100000000000000020000000000000004000000000000000800000000000000100000000000000020000000000000004000000000000000800000000000000100000000000000020000000000000004000000000000000800000000000000100000000000000020000000000000004000000000000000800000000000000100000000000000020000000000000004000000000000000800000000000000100000000000000020000000000000004000000000000000800000000000000100000000000000020000000000000004000000000000000800000000000000100000000000000020000000000000000de0b6b3a76400000de0b6b3a76400010de0b6b3a76400020de0b6b3a76400050de0b6b3a764000b0de0b6b3a76400160de0b6b3a764002c0de0b6b3a76400580de0b6b3a76400b10de0b6b3a76401620de0b6b3a76402c50de0b6b3a764058b0de0b6b3a7640b170de0b6b3a764162e0de0b6b3a7642c5c0de0b6b3a76458b90de0b6b3a764b1720de0b6b3a76562e40de0b6b3a766c5c80de0b6b3a7698b900de0b6b3a76f17210de0b6b3a77a2e420de0b6b3a7905c850de0b6b3a7bcb90b0de0b6b3a81572170de0b6b3a8c6e42f0de0b6b3aa29c85f0de0b6b3acef90bf0de0b6b3b27b217f0de0b6b3bd9242ff0de0b6b3d3c085fe0de0b6b4001d0bfd0de0b6b458d617fc0de0b6b50a4830010de0b6b66d2c60260de0b6b932f4c0da0de0b6bebe8583eb0de0b6c9d5a710b30de0b6e003ea44db0de0b70c607117840de0b765198066410de0b8168ba5a9640de0b979700ac64c0de0bc3f393f5ab50de0c1cacd51ee520de0cce1fc1cc3c60de0e3107449406e0de10f6dcefe47050de1682a2ddebc000de219a991aadb930de37cc2f2fcb7380de6436028ee3a220debd244c555d3b40df6f6b9dbcc5f410e0d5a6c6ea8a8410e3a8dbbd2b7e9d50e96aa5bb87c13840f55ef96062919dd10f25db82c317ea514b1c2442ffabe3c1edbf25de7a70f72449e9dd02d2817d4a2646970667358221220295b5adecbd9d2150487124f0bcec80c7c74b2776de95ec0ccc621fdb681adc664736f6c63430008000033",
  "linkReferences": {},
  "deployedLinkReferences": {}
}