{
  "_format": "hh-sol-artifact-1",
  "contractName": "Blocks",
  "sourceName": "hardhat/contracts/Blocks.sol",
  "abi": [
    {
      "inputs": [
        {
          "internalType": "uint256",
          "name": "N",
          "type": "uint256"
        },
        {
          "internalType": "uint256",
          "name": "b",
          "type": "uint256"
        },
        {
          "internalType": "uint256",
          "name": "d",
          "type": "uint256"
        },
        {
          "internalType": "address",
          "name": "USDC",
          "type": "address"
        }
      ],
      "stateMutability": "nonpayable",
      "type": "constructor"
    },
    {
      "anonymous": false,
      "inputs": [
        {
          "indexed": true,
          "internalType": "address",
          "name": "account",
          "type": "address"
        },
        {
          "indexed": true,
          "internalType": "address",
          "name": "operator",
          "type": "address"
        },
        {
          "indexed": false,
          "internalType": "bool",
          "name": "approved",
          "type": "bool"
        }
      ],
      "name": "ApprovalForAll",
      "type": "event"
    },
    {
      "anonymous": false,
      "inputs": [
        {
          "indexed": true,
          "internalType": "address",
          "name": "operator",
          "type": "address"
        },
        {
          "indexed": true,
          "internalType": "address",
          "name": "from",
          "type": "address"
        },
        {
          "indexed": true,
          "internalType": "address",
          "name": "to",
          "type": "address"
        },
        {
          "indexed": false,
          "internalType": "uint256[]",
          "name": "ids",
          "type": "uint256[]"
        },
        {
          "indexed": false,
          "internalType": "uint256[]",
          "name": "values",
          "type": "uint256[]"
        }
      ],
      "name": "TransferBatch",
      "type": "event"
    },
    {
      "anonymous": false,
      "inputs": [
        {
          "indexed": true,
          "internalType": "address",
          "name": "operator",
          "type": "address"
        },
        {
          "indexed": true,
          "internalType": "address",
          "name": "from",
          "type": "address"
        },
        {
          "indexed": true,
          "internalType": "address",
          "name": "to",
          "type": "address"
        },
        {
          "indexed": false,
          "internalType": "uint256",
          "name": "id",
          "type": "uint256"
        },
        {
          "indexed": false,
          "internalType": "uint256",
          "name": "value",
          "type": "uint256"
        }
      ],
      "name": "TransferSingle",
      "type": "event"
    },
    {
      "anonymous": false,
      "inputs": [
        {
          "indexed": false,
          "internalType": "string",
          "name": "value",
          "type": "string"
        },
        {
          "indexed": true,
          "internalType": "uint256",
          "name": "id",
          "type": "uint256"
        }
      ],
      "name": "URI",
      "type": "event"
    },
    {
      "inputs": [],
      "name": "_N",
      "outputs": [
        {
          "internalType": "uint256",
          "name": "",
          "type": "uint256"
        }
      ],
      "stateMutability": "view",
      "type": "function"
    },
    {
      "inputs": [],
      "name": "_b",
      "outputs": [
        {
          "internalType": "uint256",
          "name": "",
          "type": "uint256"
        }
      ],
      "stateMutability": "view",
      "type": "function"
    },
    {
      "inputs": [],
      "name": "_delta",
      "outputs": [
        {
          "internalType": "uint256",
          "name": "",
          "type": "uint256"
        }
      ],
      "stateMutability": "view",
      "type": "function"
    },
    {
      "inputs": [],
      "name": "_earnings",
      "outputs": [
        {
          "internalType": "uint256",
          "name": "",
          "type": "uint256"
        }
      ],
      "stateMutability": "view",
      "type": "function"
    },
    {
      "inputs": [
        {
          "internalType": "uint256",
          "name": "",
          "type": "uint256"
        }
      ],
      "name": "_quantities",
      "outputs": [
        {
          "internalType": "uint256",
          "name": "",
          "type": "uint256"
        }
      ],
      "stateMutability": "view",
      "type": "function"
    },
    {
      "inputs": [],
      "name": "_total_sold",
      "outputs": [
        {
          "internalType": "uint256",
          "name": "",
          "type": "uint256"
        }
      ],
      "stateMutability": "view",
      "type": "function"
    },
    {
      "inputs": [],
      "name": "_total_weight",
      "outputs": [
        {
          "internalType": "uint256",
          "name": "",
          "type": "uint256"
        }
      ],
      "stateMutability": "view",
      "type": "function"
    },
    {
      "inputs": [],
      "name": "_value",
      "outputs": [
        {
          "internalType": "uint256",
          "name": "",
          "type": "uint256"
        }
      ],
      "stateMutability": "view",
      "type": "function"
    },
    {
      "inputs": [
        {
          "internalType": "uint256",
          "name": "",
          "type": "uint256"
        }
      ],
      "name": "_weights",
      "outputs": [
        {
          "internalType": "uint256",
          "name": "",
          "type": "uint256"
        }
      ],
      "stateMutability": "view",
      "type": "function"
    },
    {
      "inputs": [
        {
          "internalType": "address",
          "name": "account",
          "type": "address"
        },
        {
          "internalType": "uint256",
          "name": "id",
          "type": "uint256"
        }
      ],
      "name": "balanceOf",
      "outputs": [
        {
          "internalType": "uint256",
          "name": "",
          "type": "uint256"
        }
      ],
      "stateMutability": "view",
      "type": "function"
    },
    {
      "inputs": [
        {
          "internalType": "address[]",
          "name": "accounts",
          "type": "address[]"
        },
        {
          "internalType": "uint256[]",
          "name": "ids",
          "type": "uint256[]"
        }
      ],
      "name": "balanceOfBatch",
      "outputs": [
        {
          "internalType": "uint256[]",
          "name": "",
          "type": "uint256[]"
        }
      ],
      "stateMutability": "view",
      "type": "function"
    },
    {
      "inputs": [
        {
          "internalType": "uint256",
          "name": "bucket",
          "type": "uint256"
        },
        {
          "internalType": "uint256",
          "name": "amount",
          "type": "uint256"
        }
      ],
      "name": "fakePurchase",
      "outputs": [],
      "stateMutability": "nonpayable",
      "type": "function"
    },
    {
      "inputs": [
        {
          "internalType": "uint256",
          "name": "bucket",
          "type": "uint256"
        }
      ],
      "name": "getBucketPrice",
      "outputs": [
        {
          "internalType": "uint256",
          "name": "",
          "type": "uint256"
        }
      ],
      "stateMutability": "view",
      "type": "function"
    },
    {
      "inputs": [
        {
          "internalType": "uint256",
          "name": "bucket",
          "type": "uint256"
        },
        {
          "internalType": "uint256",
          "name": "price",
          "type": "uint256"
        }
      ],
      "name": "getRequiredAmount",
      "outputs": [
        {
          "internalType": "uint256",
          "name": "",
          "type": "uint256"
        }
      ],
      "stateMutability": "view",
      "type": "function"
    },
    {
      "inputs": [
        {
          "internalType": "address",
          "name": "account",
          "type": "address"
        },
        {
          "internalType": "address",
          "name": "operator",
          "type": "address"
        }
      ],
      "name": "isApprovedForAll",
      "outputs": [
        {
          "internalType": "bool",
          "name": "",
          "type": "bool"
        }
      ],
      "stateMutability": "view",
      "type": "function"
    },
    {
      "inputs": [
        {
          "internalType": "uint256",
          "name": "bucket",
          "type": "uint256"
        },
        {
          "internalType": "uint256",
          "name": "amount",
          "type": "uint256"
        }
      ],
      "name": "purchase",
      "outputs": [],
      "stateMutability": "nonpayable",
      "type": "function"
    },
    {
      "inputs": [
        {
          "internalType": "uint256[]",
          "name": "buckets",
          "type": "uint256[]"
        },
        {
          "internalType": "uint256[]",
          "name": "amounts",
          "type": "uint256[]"
        }
      ],
      "name": "purchaseBatch",
      "outputs": [],
      "stateMutability": "nonpayable",
      "type": "function"
    },
    {
      "inputs": [
        {
          "internalType": "uint256",
          "name": "bucket",
          "type": "uint256"
        },
        {
          "internalType": "uint256",
          "name": "amount",
          "type": "uint256"
        }
      ],
      "name": "purchaseLeftBlock",
      "outputs": [],
      "stateMutability": "nonpayable",
      "type": "function"
    },
    {
      "inputs": [
        {
          "internalType": "uint256",
          "name": "bucket",
          "type": "uint256"
        },
        {
          "internalType": "uint256",
          "name": "base_amount",
          "type": "uint256"
        }
      ],
      "name": "purchaseLeftSlope",
      "outputs": [],
      "stateMutability": "nonpayable",
      "type": "function"
    },
    {
      "inputs": [
        {
          "internalType": "address",
          "name": "from",
          "type": "address"
        },
        {
          "internalType": "address",
          "name": "to",
          "type": "address"
        },
        {
          "internalType": "uint256[]",
          "name": "ids",
          "type": "uint256[]"
        },
        {
          "internalType": "uint256[]",
          "name": "amounts",
          "type": "uint256[]"
        },
        {
          "internalType": "bytes",
          "name": "data",
          "type": "bytes"
        }
      ],
      "name": "safeBatchTransferFrom",
      "outputs": [],
      "stateMutability": "nonpayable",
      "type": "function"
    },
    {
      "inputs": [
        {
          "internalType": "address",
          "name": "from",
          "type": "address"
        },
        {
          "internalType": "address",
          "name": "to",
          "type": "address"
        },
        {
          "internalType": "uint256",
          "name": "id",
          "type": "uint256"
        },
        {
          "internalType": "uint256",
          "name": "amount",
          "type": "uint256"
        },
        {
          "internalType": "bytes",
          "name": "data",
          "type": "bytes"
        }
      ],
      "name": "safeTransferFrom",
      "outputs": [],
      "stateMutability": "nonpayable",
      "type": "function"
    },
    {
      "inputs": [
        {
          "internalType": "address",
          "name": "operator",
          "type": "address"
        },
        {
          "internalType": "bool",
          "name": "approved",
          "type": "bool"
        }
      ],
      "name": "setApprovalForAll",
      "outputs": [],
      "stateMutability": "nonpayable",
      "type": "function"
    },
    {
      "inputs": [
        {
          "internalType": "bytes4",
          "name": "interfaceId",
          "type": "bytes4"
        }
      ],
      "name": "supportsInterface",
      "outputs": [
        {
          "internalType": "bool",
          "name": "",
          "type": "bool"
        }
      ],
      "stateMutability": "view",
      "type": "function"
    },
    {
      "inputs": [
        {
          "internalType": "uint256",
          "name": "",
          "type": "uint256"
        }
      ],
      "name": "uri",
      "outputs": [
        {
          "internalType": "string",
          "name": "",
          "type": "string"
        }
      ],
      "stateMutability": "view",
      "type": "function"
    }
  ],
  "bytecode": "0x60806040523480156200001157600080fd5b506040516200568938038062005689833981810160405281019062000037919062000565565b6040518060400160405280600481526020017f6e6f6e65000000000000000000000000000000000000000000000000000000008152506200007e81620001bd60201b60201c565b5060008411620000c5576040517f08c379a0000000000000000000000000000000000000000000000000000000008152600401620000bc9062000727565b60405180910390fd5b836005819055506000831162000112576040517f08c379a00000000000000000000000000000000000000000000000000000000081526004016200010990620006e3565b60405180910390fd5b826008819055506012600a6200012991906200084a565b60055462000138919062000987565b60068190555062000156600654620001d960201b620021171760201c565b60085462000165919062000987565b60098190555081600b8190555080600d60006101000a81548173ffffffffffffffffffffffffffffffffffffffff021916908373ffffffffffffffffffffffffffffffffffffffff1602179055505050505062000b2a565b8060029080519060200190620001d592919062000487565b5050565b6000806012600a620001ec91906200084a565b83620001f99190620007b7565b90506000811162000241576040517f08c379a0000000000000000000000000000000000000000000000000000000008152600401620002389062000705565b60405180910390fd5b600070010000000000000000000000000000000082106200027557608082901c91506080816200027291906200075a565b90505b6801000000000000000082106200029f57604082901c91506040816200029c91906200075a565b90505b6401000000008210620002c557602082901c9150602081620002c291906200075a565b90505b620100008210620002e957601082901c9150601081620002e691906200075a565b90505b61010082106200030c57600882901c91506008816200030991906200075a565b90505b601082106200032e57600482901c91506004816200032b91906200075a565b90505b600482106200035057600282901c91506002816200034d91906200075a565b90505b600282106200036b576001816200036891906200075a565b90505b6012600a6200037b91906200084a565b8162000388919062000987565b90506012600a6200039a91906200084a565b81620003a79190620007b7565b6002620003b591906200084a565b84620003c29190620007b7565b91506000806012600a620003d791906200084a565b90505b60008111156200046e576012600a620003f491906200084a565b600262000402919062000987565b84106200042b5780826200041791906200075a565b9150600284620004289190620007b7565b93505b6012600a6200043b91906200084a565b848562000449919062000987565b620004559190620007b7565b9350600281620004669190620007b7565b9050620003da565b5081816200047d91906200075a565b9350505050919050565b828054620004959062000a26565b90600052602060002090601f016020900481019282620004b9576000855562000505565b82601f10620004d457805160ff191683800117855562000505565b8280016001018555821562000505579182015b8281111562000504578251825591602001919060010190620004e7565b5b50905062000514919062000518565b5090565b5b808211156200053357600081600090555060010162000519565b5090565b600081519050620005488162000af6565b92915050565b6000815190506200055f8162000b10565b92915050565b600080600080608085870312156200057c57600080fd5b60006200058c878288016200054e565b94505060206200059f878288016200054e565b9350506040620005b2878288016200054e565b9250506060620005c58782880162000537565b91505092959194509250565b6000620005e060218362000749565b91507f636f6e7374727563746f723a20622073686f756c6420626520706f736974697660008301527f65000000000000000000000000000000000000000000000000000000000000006020830152604082019050919050565b600062000648601c8362000749565b91507f6c6f6761726974686d3a206f706572616e6420746f6f20736d616c6c000000006000830152602082019050919050565b60006200068a60218362000749565b91507f636f6e7374727563746f723a204e2073686f756c6420626520706f736974697660008301527f65000000000000000000000000000000000000000000000000000000000000006020830152604082019050919050565b60006020820190508181036000830152620006fe81620005d1565b9050919050565b60006020820190508181036000830152620007208162000639565b9050919050565b6000602082019050818103600083015262000742816200067b565b9050919050565b600082825260208201905092915050565b6000620007678262000a1c565b9150620007748362000a1c565b9250827fffffffffffffffffffffffffffffffffffffffffffffffffffffffffffffffff03821115620007ac57620007ab62000a5c565b5b828201905092915050565b6000620007c48262000a1c565b9150620007d18362000a1c565b925082620007e457620007e362000a8b565b5b828204905092915050565b6000808291508390505b6001851115620008415780860481111562000819576200081862000a5c565b5b6001851615620008295780820291505b8081029050620008398562000ae9565b9450620007f9565b94509492505050565b6000620008578262000a1c565b9150620008648362000a1c565b9250620008937fffffffffffffffffffffffffffffffffffffffffffffffffffffffffffffffff84846200089b565b905092915050565b600082620008ad576001905062000980565b81620008bd576000905062000980565b8160018114620008d65760028114620008e15762000917565b600191505062000980565b60ff841115620008f657620008f562000a5c565b5b8360020a91508482111562000910576200090f62000a5c565b5b5062000980565b5060208310610133831016604e8410600b8410161715620009515782820a9050838111156200094b576200094a62000a5c565b5b62000980565b620009608484846001620007ef565b925090508184048111156200097a576200097962000a5c565b5b81810290505b9392505050565b6000620009948262000a1c565b9150620009a18362000a1c565b9250817fffffffffffffffffffffffffffffffffffffffffffffffffffffffffffffffff0483118215151615620009dd57620009dc62000a5c565b5b828202905092915050565b6000620009f582620009fc565b9050919050565b600073ffffffffffffffffffffffffffffffffffffffff82169050919050565b6000819050919050565b6000600282049050600182168062000a3f57607f821691505b6020821081141562000a565762000a5562000aba565b5b50919050565b7f4e487b7100000000000000000000000000000000000000000000000000000000600052601160045260246000fd5b7f4e487b7100000000000000000000000000000000000000000000000000000000600052601260045260246000fd5b7f4e487b7100000000000000000000000000000000000000000000000000000000600052602260045260246000fd5b60008160011c9050919050565b62000b0181620009e8565b811462000b0d57600080fd5b50565b62000b1b8162000a1c565b811462000b2757600080fd5b50565b614b4f8062000b3a6000396000f3fe608060405234801561001057600080fd5b50600436106101575760003560e01c80635655bb20116100c3578063c901de1a1161007c578063c901de1a146103da578063de6f56c6146103f6578063e985e9c514610426578063f242432a14610456578063f3f03a6114610472578063f49ed061146104a257610157565b80635655bb20146103185780636a6e48a41461033657806370876c9814610366578063a22cb46514610382578063b895c74a1461039e578063c6e3a9b3146103bc57610157565b80631ee4cac8116101155780631ee4cac814610242578063253749961461026057806325f5eb811461027e5780632eb2c2d61461029c57806346c82b2c146102b85780634e1273f4146102e857610157565b8062fdd58e1461015c57806301ffc9a71461018c5780630e89341c146101bc5780630f48b8fb146101ec5780631a797d90146102085780631ade939114610224575b600080fd5b61017660048036038101906101719190613413565b6104be565b6040516101839190613fc2565b60405180910390f35b6101a660048036038101906101a19190613550565b610587565b6040516101b39190613dc5565b60405180910390f35b6101d660048036038101906101d191906135a2565b610669565b6040516101e39190613de0565b60405180910390f35b610206600480360381019061020191906135cb565b6106fd565b005b610222600480360381019061021d91906135cb565b610ad0565b005b61022c610eee565b6040516102399190613fc2565b60405180910390f35b61024a610ef4565b6040516102579190613fc2565b60405180910390f35b610268610efa565b6040516102759190613fc2565b60405180910390f35b610286610f00565b6040516102939190613fc2565b60405180910390f35b6102b660048036038101906102b19190613289565b610f06565b005b6102d260048036038101906102cd91906135a2565b6112fc565b6040516102df9190613fc2565b60405180910390f35b61030260048036038101906102fd919061344f565b611314565b60405161030f9190613d6c565b60405180910390f35b6103206114c5565b60405161032d9190613fc2565b60405180910390f35b610350600480360381019061034b91906135cb565b6114cb565b60405161035d9190613fc2565b60405180910390f35b610380600480360381019061037b91906135cb565b611638565b005b61039c600480360381019061039791906133d7565b611863565b005b6103a66119e4565b6040516103b39190613fc2565b60405180910390f35b6103c46119ea565b6040516103d19190613fc2565b60405180910390f35b6103f460048036038101906103ef91906134bb565b6119f0565b005b610410600480360381019061040b91906135a2565b611cda565b60405161041d9190613fc2565b60405180910390f35b610440600480360381019061043b919061324d565b611d34565b60405161044d9190613dc5565b60405180910390f35b610470600480360381019061046b9190613348565b611dc8565b005b61048c600480360381019061048791906135a2565b6120e0565b6040516104999190613fc2565b60405180910390f35b6104bc60048036038101906104b791906135cb565b6120f8565b005b60008073ffffffffffffffffffffffffffffffffffffffff168373ffffffffffffffffffffffffffffffffffffffff16141561052f576040517f08c379a000000000000000000000000000000000000000000000000000000000815260040161052690613e42565b60405180910390fd5b60008083815260200190815260200160002060008473ffffffffffffffffffffffffffffffffffffffff1673ffffffffffffffffffffffffffffffffffffffff16815260200190815260200160002054905092915050565b60007fd9b67a26000000000000000000000000000000000000000000000000000000007bffffffffffffffffffffffffffffffffffffffffffffffffffffffff1916827bffffffffffffffffffffffffffffffffffffffffffffffffffffffff1916148061065257507f0e89341c000000000000000000000000000000000000000000000000000000007bffffffffffffffffffffffffffffffffffffffffffffffffffffffff1916827bffffffffffffffffffffffffffffffffffffffffffffffffffffffff1916145b80610662575061066182612383565b5b9050919050565b6060600280546106789061446c565b80601f01602080910402602001604051908101604052809291908181526020018280546106a49061446c565b80156106f15780601f106106c6576101008083540402835291602001916106f1565b820191906000526020600020905b8154815290600101906020018083116106d457829003601f168201915b50505050509050919050565b600061072d6008546012600a610713919061420a565b8461071e9190614328565b6107289190614186565b6123ed565b905060008367ffffffffffffffff811115610771577f4e487b7100000000000000000000000000000000000000000000000000000000600052604160045260246000fd5b60405190808252806020026020018201604052801561079f5781602001602082028036833780820191505090505b50905060008467ffffffffffffffff8111156107e4577f4e487b7100000000000000000000000000000000000000000000000000000000600052604160045260246000fd5b6040519080825280602002602001820160405280156108125781602001602082028036833780820191505090505b509050600080600090505b868110156109915760006012600a610835919061420a565b60036000848152602001908152602001600020546108539190614130565b905060006012600a610865919061420a565b87836108719190614328565b61087b9190614186565b905081816108899190614382565b846108949190614130565b93506012600a6108a4919061420a565b816108af9190614382565b600360008581526020019081526020016000208190555087600460008b815260200190815260200160002060008282546108e99190614130565b925050819055508286848151811061092a577f4e487b7100000000000000000000000000000000000000000000000000000000600052603260045260246000fd5b60200260200101818152505087858481518110610970577f4e487b7100000000000000000000000000000000000000000000000000000000600052603260045260246000fd5b602002602001018181525050505080806109899061449e565b91505061081d565b5080600660008282546109a49190614130565b9250508190555060006109b8600654612117565b6008546109c59190614328565b90506000600954826109d79190614382565b90508160098190555080600a60008282546109f29190614130565b92505081905550600d60009054906101000a900473ffffffffffffffffffffffffffffffffffffffff1673ffffffffffffffffffffffffffffffffffffffff166323b872dd3330846040518463ffffffff1660e01b8152600401610a5893929190613cdb565b602060405180830381600087803b158015610a7257600080fd5b505af1158015610a86573d6000803e3d6000fd5b505050506040513d601f19601f82011682018060405250810190610aaa9190613527565b50610ac6338686604051806020016040528060008152506124c4565b5050505050505050565b6000610af5600854600b5484610ae69190614328565b610af09190614186565b6123ed565b9050600081905060008467ffffffffffffffff811115610b3e577f4e487b7100000000000000000000000000000000000000000000000000000000600052604160045260246000fd5b604051908082528060200260200182016040528015610b6c5781602001602082028036833780820191505090505b50905060008567ffffffffffffffff811115610bb1577f4e487b7100000000000000000000000000000000000000000000000000000000600052604160045260246000fd5b604051908082528060200260200182016040528015610bdf5781602001602082028036833780820191505090505b5090506000806012600a610bf3919061420a565b600b5488610c019190614328565b610c0b9190614186565b90506000819050600089905060005b8a811015610dab57600182610c2f9190614382565b915060006012600a610c41919061420a565b6003600085815260200190815260200160002054610c5f9190614130565b905060006012600a610c71919061420a565b8a83610c7d9190614328565b610c879190614186565b90508181610c959190614382565b87610ca09190614130565b96506012600a610cb0919061420a565b81610cbb9190614382565b600360008681526020019081526020016000208190555084600460008681526020019081526020016000206000828254610cf59190614130565b9250508190555083898581518110610d36577f4e487b7100000000000000000000000000000000000000000000000000000000600052603260045260246000fd5b60200260200101818152505084888581518110610d7c577f4e487b7100000000000000000000000000000000000000000000000000000000600052603260045260246000fd5b6020026020010181815250508585610d949190614130565b945050508080610da39061449e565b915050610c1a565b508360066000828254610dbe9190614130565b925050819055506000610dd2600654612117565b600854610ddf9190614328565b9050600060095482610df19190614382565b90508160098190555080600a6000828254610e0c9190614130565b92505081905550600d60009054906101000a900473ffffffffffffffffffffffffffffffffffffffff1673ffffffffffffffffffffffffffffffffffffffff166323b872dd3330846040518463ffffffff1660e01b8152600401610e7293929190613cdb565b602060405180830381600087803b158015610e8c57600080fd5b505af1158015610ea0573d6000803e3d6000fd5b505050506040513d601f19601f82011682018060405250810190610ec49190613527565b50610ee0338989604051806020016040528060008152506124c4565b505050505050505050505050565b600a5481565b600b5481565b60085481565b60065481565b8151835114610f4a576040517f08c379a0000000000000000000000000000000000000000000000000000000008152600401610f4190613f62565b60405180910390fd5b600073ffffffffffffffffffffffffffffffffffffffff168473ffffffffffffffffffffffffffffffffffffffff161415610fba576040517f08c379a0000000000000000000000000000000000000000000000000000000008152600401610fb190613e82565b60405180910390fd5b610fc261272e565b73ffffffffffffffffffffffffffffffffffffffff168573ffffffffffffffffffffffffffffffffffffffff16148061100857506110078561100261272e565b611d34565b5b611047576040517f08c379a000000000000000000000000000000000000000000000000000000000815260040161103e90613ea2565b60405180910390fd5b600061105161272e565b9050611061818787878787612736565b60005b84518110156112675760008582815181106110a8577f4e487b7100000000000000000000000000000000000000000000000000000000600052603260045260246000fd5b6020026020010151905060008583815181106110ed577f4e487b7100000000000000000000000000000000000000000000000000000000600052603260045260246000fd5b60200260200101519050600080600084815260200190815260200160002060008b73ffffffffffffffffffffffffffffffffffffffff1673ffffffffffffffffffffffffffffffffffffffff1681526020019081526020016000205490508181101561118e576040517f08c379a000000000000000000000000000000000000000000000000000000000815260040161118590613ee2565b60405180910390fd5b818161119a9190614382565b60008085815260200190815260200160002060008c73ffffffffffffffffffffffffffffffffffffffff1673ffffffffffffffffffffffffffffffffffffffff168152602001908152602001600020819055508160008085815260200190815260200160002060008b73ffffffffffffffffffffffffffffffffffffffff1673ffffffffffffffffffffffffffffffffffffffff168152602001908152602001600020600082825461124c9190614130565b92505081905550505050806112609061449e565b9050611064565b508473ffffffffffffffffffffffffffffffffffffffff168673ffffffffffffffffffffffffffffffffffffffff168273ffffffffffffffffffffffffffffffffffffffff167f4a39dc06d4c0dbc64b70af90fd698a233a518aa5d07e595d983b8c0526c8f7fb87876040516112de929190613d8e565b60405180910390a46112f481878787878761273e565b505050505050565b60046020528060005260406000206000915090505481565b6060815183511461135a576040517f08c379a000000000000000000000000000000000000000000000000000000000815260040161135190613f42565b60405180910390fd5b6000835167ffffffffffffffff81111561139d577f4e487b7100000000000000000000000000000000000000000000000000000000600052604160045260246000fd5b6040519080825280602002602001820160405280156113cb5781602001602082028036833780820191505090505b50905060005b84518110156114ba57611464858281518110611416577f4e487b7100000000000000000000000000000000000000000000000000000000600052603260045260246000fd5b6020026020010151858381518110611457577f4e487b7100000000000000000000000000000000000000000000000000000000600052603260045260246000fd5b60200260200101516104be565b82828151811061149d577f4e487b7100000000000000000000000000000000000000000000000000000000600052603260045260246000fd5b602002602001018181525050806114b39061449e565b90506113d1565b508091505092915050565b60055481565b60006012600a6114db919061420a565b821061151c576040517f08c379a000000000000000000000000000000000000000000000000000000000815260040161151390613ec2565b60405180910390fd5b61152583611cda565b8211611566576040517f08c379a000000000000000000000000000000000000000000000000000000000815260040161155d90613f02565b60405180910390fd5b611623826012600a611578919061420a565b6115829190614382565b6012600a611590919061420a565b60036000878152602001908152602001600020546115ae9190614130565b6115b89190614328565b6012600a6115c6919061420a565b846012600a6115d5919061420a565b60036000898152602001908152602001600020546006546115f69190614382565b6116009190614382565b61160a9190614328565b6116149190614328565b61161e9190614186565b612117565b6008546116309190614328565b905092915050565b60006116686008546012600a61164e919061420a565b846116599190614328565b6116639190614186565b6123ed565b905060006012600a61167a919061420a565b60036000868152602001908152602001600020546116989190614130565b905060006012600a6116aa919061420a565b83836116b69190614328565b6116c09190614186565b9050600081836006546116d39190614382565b6116dd9190614130565b905060006116ea82612117565b6008546116f79190614328565b90506000600954826117099190614382565b9050826006819055506012600a611720919061420a565b8461172b9190614382565b600360008a81526020019081526020016000208190555086600460008a815260200190815260200160002060008282546117659190614130565b9250508190555080600a600082825461177e9190614130565b9250508190555081600981905550600d60009054906101000a900473ffffffffffffffffffffffffffffffffffffffff1673ffffffffffffffffffffffffffffffffffffffff166323b872dd3330846040518463ffffffff1660e01b81526004016117eb93929190613cdb565b602060405180830381600087803b15801561180557600080fd5b505af1158015611819573d6000803e3d6000fd5b505050506040513d601f19601f8201168201806040525081019061183d9190613527565b506118593389896040518060200160405280600081525061290e565b5050505050505050565b8173ffffffffffffffffffffffffffffffffffffffff1661188261272e565b73ffffffffffffffffffffffffffffffffffffffff1614156118d9576040517f08c379a00000000000000000000000000000000000000000000000000000000081526004016118d090613f22565b60405180910390fd5b80600160006118e661272e565b73ffffffffffffffffffffffffffffffffffffffff1673ffffffffffffffffffffffffffffffffffffffff16815260200190815260200160002060008473ffffffffffffffffffffffffffffffffffffffff1673ffffffffffffffffffffffffffffffffffffffff16815260200190815260200160002060006101000a81548160ff0219169083151502179055508173ffffffffffffffffffffffffffffffffffffffff1661199361272e565b73ffffffffffffffffffffffffffffffffffffffff167f17307eab39ab6107e8899845ad3d59bd9653f200f220920489ca2b5937696c31836040516119d89190613dc5565b60405180910390a35050565b60095481565b60075481565b80518251146119fe57600080fd5b6000600654905060005b8351811015611c64576000611a816008546012600a611a27919061420a565b868581518110611a60577f4e487b7100000000000000000000000000000000000000000000000000000000600052603260045260246000fd5b6020026020010151611a729190614328565b611a7c9190614186565b612aa4565b905060006012600a611a93919061420a565b60036000888681518110611ad0577f4e487b7100000000000000000000000000000000000000000000000000000000600052603260045260246000fd5b6020026020010151815260200190815260200160002054611af19190614130565b905060006012600a611b03919061420a565b8383611b0f9190614328565b611b199190614186565b9050808286611b289190614382565b611b329190614130565b94506012600a611b42919061420a565b81611b4d9190614382565b60036000898781518110611b8a577f4e487b7100000000000000000000000000000000000000000000000000000000600052603260045260246000fd5b6020026020010151815260200190815260200160002081905550858481518110611bdd577f4e487b7100000000000000000000000000000000000000000000000000000000600052603260045260246000fd5b602002602001015160046000898781518110611c22577f4e487b7100000000000000000000000000000000000000000000000000000000600052603260045260246000fd5b602002602001015181526020019081526020016000206000828254611c479190614130565b925050819055505050508080611c5c9061449e565b915050611a08565b506000611c7082612117565b600854611c7d9190614328565b9050600060095482611c8f9190614382565b90508260068190555080600a6000828254611caa9190614130565b9250508190555081600981905550611cd3338686604051806020016040528060008152506124c4565b5050505050565b60006006546012600a611ced919061420a565b6012600a611cfb919061420a565b6003600086815260200190815260200160002054611d199190614130565b611d239190614328565b611d2d9190614186565b9050919050565b6000600160008473ffffffffffffffffffffffffffffffffffffffff1673ffffffffffffffffffffffffffffffffffffffff16815260200190815260200160002060008373ffffffffffffffffffffffffffffffffffffffff1673ffffffffffffffffffffffffffffffffffffffff16815260200190815260200160002060009054906101000a900460ff16905092915050565b600073ffffffffffffffffffffffffffffffffffffffff168473ffffffffffffffffffffffffffffffffffffffff161415611e38576040517f08c379a0000000000000000000000000000000000000000000000000000000008152600401611e2f90613e82565b60405180910390fd5b611e4061272e565b73ffffffffffffffffffffffffffffffffffffffff168573ffffffffffffffffffffffffffffffffffffffff161480611e865750611e8585611e8061272e565b611d34565b5b611ec5576040517f08c379a0000000000000000000000000000000000000000000000000000000008152600401611ebc90613e62565b60405180910390fd5b6000611ecf61272e565b9050611eef818787611ee088612c22565b611ee988612c22565b87612736565b600080600086815260200190815260200160002060008873ffffffffffffffffffffffffffffffffffffffff1673ffffffffffffffffffffffffffffffffffffffff16815260200190815260200160002054905083811015611f86576040517f08c379a0000000000000000000000000000000000000000000000000000000008152600401611f7d90613ee2565b60405180910390fd5b8381611f929190614382565b60008087815260200190815260200160002060008973ffffffffffffffffffffffffffffffffffffffff1673ffffffffffffffffffffffffffffffffffffffff168152602001908152602001600020819055508360008087815260200190815260200160002060008873ffffffffffffffffffffffffffffffffffffffff1673ffffffffffffffffffffffffffffffffffffffff16815260200190815260200160002060008282546120449190614130565b925050819055508573ffffffffffffffffffffffffffffffffffffffff168773ffffffffffffffffffffffffffffffffffffffff168373ffffffffffffffffffffffffffffffffffffffff167fc3d58168c5ae7397731d063d5bbf3d657854427343f4c083240f7aacaa2d0f6288886040516120c1929190613fdd565b60405180910390a46120d7828888888888612ce8565b50505050505050565b60036020528060005260406000206000915090505481565b6121133383836040518060200160405280600081525061290e565b5050565b6000806012600a612128919061420a565b836121339190614186565b905060008111612178576040517f08c379a000000000000000000000000000000000000000000000000000000000815260040161216f90613fa2565b60405180910390fd5b600070010000000000000000000000000000000082106121a957608082901c91506080816121a69190614130565b90505b6801000000000000000082106121d057604082901c91506040816121cd9190614130565b90505b64010000000082106121f357602082901c91506020816121f09190614130565b90505b62010000821061221457601082901c91506010816122119190614130565b90505b610100821061223457600882901c91506008816122319190614130565b90505b6010821061225357600482901c91506004816122509190614130565b90505b6004821061227257600282901c915060028161226f9190614130565b90505b6002821061228a576001816122879190614130565b90505b6012600a612298919061420a565b816122a39190614328565b90506012600a6122b3919061420a565b816122be9190614186565b60026122ca919061420a565b846122d59190614186565b91506000806012600a6122e8919061420a565b90505b600081111561236c576012600a612302919061420a565b600261230e9190614328565b84106123325780826123209190614130565b915060028461232f9190614186565b93505b6012600a612340919061420a565b848561234c9190614328565b6123569190614186565b93506002816123659190614186565b90506122eb565b5081816123799190614130565b9350505050919050565b60007f01ffc9a7000000000000000000000000000000000000000000000000000000007bffffffffffffffffffffffffffffffffffffffffffffffffffffffff1916827bffffffffffffffffffffffffffffffffffffffffffffffffffffffff1916149050919050565b6000806012600a6123fe919061420a565b836124099190614186565b905060006012600a61241b919061420a565b8461242691906144e7565b90506000826002612437919061420a565b905060006012600a612449919061420a565b905060005b603e8110156124ac5760008461246383612eb8565b161115612499576012600a612478919061420a565b61248182612f13565b8361248c9190614328565b6124969190614186565b91505b80806124a49061449e565b91505061244e565b5080826124b99190614328565b945050505050919050565b600073ffffffffffffffffffffffffffffffffffffffff168473ffffffffffffffffffffffffffffffffffffffff161415612534576040517f08c379a000000000000000000000000000000000000000000000000000000000815260040161252b90613f82565b60405180910390fd5b8151835114612578576040517f08c379a000000000000000000000000000000000000000000000000000000000815260040161256f90613f62565b60405180910390fd5b600061258261272e565b905061259381600087878787612736565b60005b8451811015612698578381815181106125d8577f4e487b7100000000000000000000000000000000000000000000000000000000600052603260045260246000fd5b602002602001015160008087848151811061261c577f4e487b7100000000000000000000000000000000000000000000000000000000600052603260045260246000fd5b6020026020010151815260200190815260200160002060008873ffffffffffffffffffffffffffffffffffffffff1673ffffffffffffffffffffffffffffffffffffffff168152602001908152602001600020600082825461267e9190614130565b9250508190555080806126909061449e565b915050612596565b508473ffffffffffffffffffffffffffffffffffffffff16600073ffffffffffffffffffffffffffffffffffffffff168273ffffffffffffffffffffffffffffffffffffffff167f4a39dc06d4c0dbc64b70af90fd698a233a518aa5d07e595d983b8c0526c8f7fb8787604051612710929190613d8e565b60405180910390a46127278160008787878761273e565b5050505050565b600033905090565b505050505050565b61275d8473ffffffffffffffffffffffffffffffffffffffff16612f6e565b15612906578373ffffffffffffffffffffffffffffffffffffffff1663bc197c8187878686866040518663ffffffff1660e01b81526004016127a3959493929190613c73565b602060405180830381600087803b1580156127bd57600080fd5b505af19250505080156127ee57506040513d601f19601f820116820180604052508101906127eb9190613579565b60015b61287d576127fa6145ff565b806128055750612842565b806040517f08c379a00000000000000000000000000000000000000000000000000000000081526004016128399190613de0565b60405180910390fd5b6040517f08c379a000000000000000000000000000000000000000000000000000000000815260040161287490613e02565b60405180910390fd5b63bc197c8160e01b7bffffffffffffffffffffffffffffffffffffffffffffffffffffffff1916817bffffffffffffffffffffffffffffffffffffffffffffffffffffffff191614612904576040517f08c379a00000000000000000000000000000000000000000000000000000000081526004016128fb90613e22565b60405180910390fd5b505b505050505050565b600073ffffffffffffffffffffffffffffffffffffffff168473ffffffffffffffffffffffffffffffffffffffff16141561297e576040517f08c379a000000000000000000000000000000000000000000000000000000000815260040161297590613f82565b60405180910390fd5b600061298861272e565b90506129a98160008761299a88612c22565b6129a388612c22565b87612736565b8260008086815260200190815260200160002060008773ffffffffffffffffffffffffffffffffffffffff1673ffffffffffffffffffffffffffffffffffffffff1681526020019081526020016000206000828254612a089190614130565b925050819055508473ffffffffffffffffffffffffffffffffffffffff16600073ffffffffffffffffffffffffffffffffffffffff168273ffffffffffffffffffffffffffffffffffffffff167fc3d58168c5ae7397731d063d5bbf3d657854427343f4c083240f7aacaa2d0f628787604051612a86929190613fdd565b60405180910390a4612a9d81600087878787612ce8565b5050505050565b6000806012600a612ab5919061420a565b905060006012600a612ac7919061420a565b9050600080600090505b6005811015612be8576000612ae582612f81565b90506012600a612af5919061420a565b612b0b88600185612b069190614130565b612fd9565b82612b169190614328565b612b209190614186565b85612b2b9190614130565b94506000600283612b3c91906144e7565b1415612b8d576012600a612b50919061420a565b612b6688600185612b619190614130565b612fd9565b82612b719190614328565b612b7b9190614186565b83612b869190614130565b9250612bd4565b6012600a612b9b919061420a565b612bb188600185612bac9190614130565b612fd9565b82612bbc9190614328565b612bc69190614186565b84612bd19190614130565b93505b508080612be09061449e565b915050612ad1565b508082612bf59190614382565b6012600a612c03919061420a565b84612c0e9190614328565b612c189190614186565b9350505050919050565b60606000600167ffffffffffffffff811115612c67577f4e487b7100000000000000000000000000000000000000000000000000000000600052604160045260246000fd5b604051908082528060200260200182016040528015612c955781602001602082028036833780820191505090505b5090508281600081518110612cd3577f4e487b7100000000000000000000000000000000000000000000000000000000600052603260045260246000fd5b60200260200101818152505080915050919050565b612d078473ffffffffffffffffffffffffffffffffffffffff16612f6e565b15612eb0578373ffffffffffffffffffffffffffffffffffffffff1663f23a6e6187878686866040518663ffffffff1660e01b8152600401612d4d959493929190613d12565b602060405180830381600087803b158015612d6757600080fd5b505af1925050508015612d9857506040513d601f19601f82011682018060405250810190612d959190613579565b60015b612e2757612da46145ff565b80612daf5750612dec565b806040517f08c379a0000000000000000000000000000000000000000000000000000000008152600401612de39190613de0565b60405180910390fd5b6040517f08c379a0000000000000000000000000000000000000000000000000000000008152600401612e1e90613e02565b60405180910390fd5b63f23a6e6160e01b7bffffffffffffffffffffffffffffffffffffffffffffffffffffffff1916817bffffffffffffffffffffffffffffffffffffffffffffffffffffffff191614612eae576040517f08c379a0000000000000000000000000000000000000000000000000000000008152600401612ea590613e22565b60405180910390fd5b505b505050505050565b6000806040518061022001604052806101f081526020016147126101f09139905060006008846008612eea9190614328565b612ef49190614130565b905060008183015190508067ffffffffffffffff169350505050919050565b6000806040518061022001604052806101f0815260200161492a6101f09139905060006008846008612f459190614328565b612f4f9190614130565b905060008183015190508067ffffffffffffffff169350505050919050565b600080823b905060008111915050919050565b60008060405180606001604052806028815260200161490260289139905060006008846008612fb09190614328565b612fba9190614130565b905060008183015190508067ffffffffffffffff169350505050919050565b6000806012600a612fea919061420a565b905060005b83811015613030576012600a613005919061420a565b85836130119190614328565b61301b9190614186565b915080806130289061449e565b915050612fef565b508091505092915050565b600061304e61304984614037565b614006565b9050808382526020820190508285602086028201111561306d57600080fd5b60005b8581101561309d57816130838882613151565b845260208401935060208301925050600181019050613070565b5050509392505050565b60006130ba6130b584614063565b614006565b905080838252602082019050828560208602820111156130d957600080fd5b60005b8581101561310957816130ef8882613238565b8452602084019350602083019250506001810190506130dc565b5050509392505050565b60006131266131218461408f565b614006565b90508281526020810184848401111561313e57600080fd5b61314984828561442a565b509392505050565b600081359050613160816146b5565b92915050565b600082601f83011261317757600080fd5b813561318784826020860161303b565b91505092915050565b600082601f8301126131a157600080fd5b81356131b18482602086016130a7565b91505092915050565b6000813590506131c9816146cc565b92915050565b6000815190506131de816146cc565b92915050565b6000813590506131f3816146e3565b92915050565b600081519050613208816146e3565b92915050565b600082601f83011261321f57600080fd5b813561322f848260208601613113565b91505092915050565b600081359050613247816146fa565b92915050565b6000806040838503121561326057600080fd5b600061326e85828601613151565b925050602061327f85828601613151565b9150509250929050565b600080600080600060a086880312156132a157600080fd5b60006132af88828901613151565b95505060206132c088828901613151565b945050604086013567ffffffffffffffff8111156132dd57600080fd5b6132e988828901613190565b935050606086013567ffffffffffffffff81111561330657600080fd5b61331288828901613190565b925050608086013567ffffffffffffffff81111561332f57600080fd5b61333b8882890161320e565b9150509295509295909350565b600080600080600060a0868803121561336057600080fd5b600061336e88828901613151565b955050602061337f88828901613151565b945050604061339088828901613238565b93505060606133a188828901613238565b925050608086013567ffffffffffffffff8111156133be57600080fd5b6133ca8882890161320e565b9150509295509295909350565b600080604083850312156133ea57600080fd5b60006133f885828601613151565b9250506020613409858286016131ba565b9150509250929050565b6000806040838503121561342657600080fd5b600061343485828601613151565b925050602061344585828601613238565b9150509250929050565b6000806040838503121561346257600080fd5b600083013567ffffffffffffffff81111561347c57600080fd5b61348885828601613166565b925050602083013567ffffffffffffffff8111156134a557600080fd5b6134b185828601613190565b9150509250929050565b600080604083850312156134ce57600080fd5b600083013567ffffffffffffffff8111156134e857600080fd5b6134f485828601613190565b925050602083013567ffffffffffffffff81111561351157600080fd5b61351d85828601613190565b9150509250929050565b60006020828403121561353957600080fd5b6000613547848285016131cf565b91505092915050565b60006020828403121561356257600080fd5b6000613570848285016131e4565b91505092915050565b60006020828403121561358b57600080fd5b6000613599848285016131f9565b91505092915050565b6000602082840312156135b457600080fd5b60006135c284828501613238565b91505092915050565b600080604083850312156135de57600080fd5b60006135ec85828601613238565b92505060206135fd85828601613238565b9150509250929050565b60006136138383613c55565b60208301905092915050565b613628816143b6565b82525050565b6000613639826140cf565b61364381856140fd565b935061364e836140bf565b8060005b8381101561367f5781516136668882613607565b9750613671836140f0565b925050600181019050613652565b5085935050505092915050565b613695816143c8565b82525050565b60006136a6826140da565b6136b0818561410e565b93506136c0818560208601614439565b6136c9816145d4565b840191505092915050565b60006136df826140e5565b6136e9818561411f565b93506136f9818560208601614439565b613702816145d4565b840191505092915050565b600061371a60348361411f565b91507f455243313135353a207472616e7366657220746f206e6f6e204552433131353560008301527f526563656976657220696d706c656d656e7465720000000000000000000000006020830152604082019050919050565b600061378060288361411f565b91507f455243313135353a204552433131353552656365697665722072656a6563746560008301527f6420746f6b656e730000000000000000000000000000000000000000000000006020830152604082019050919050565b60006137e6602b8361411f565b91507f455243313135353a2062616c616e636520717565727920666f7220746865207a60008301527f65726f20616464726573730000000000000000000000000000000000000000006020830152604082019050919050565b600061384c60298361411f565b91507f455243313135353a2063616c6c6572206973206e6f74206f776e6572206e6f7260008301527f20617070726f76656400000000000000000000000000000000000000000000006020830152604082019050919050565b60006138b260258361411f565b91507f455243313135353a207472616e7366657220746f20746865207a65726f20616460008301527f64726573730000000000000000000000000000000000000000000000000000006020830152604082019050919050565b600061391860328361411f565b91507f455243313135353a207472616e736665722063616c6c6572206973206e6f742060008301527f6f776e6572206e6f7220617070726f76656400000000000000000000000000006020830152604082019050919050565b600061397e60218361411f565b91507f6765745265717569726564416d6f756e743a20707269636520746f6f2068696760008301527f68000000000000000000000000000000000000000000000000000000000000006020830152604082019050919050565b60006139e4602a8361411f565b91507f455243313135353a20696e73756666696369656e742062616c616e636520666f60008301527f72207472616e73666572000000000000000000000000000000000000000000006020830152604082019050919050565b6000613a4a60208361411f565b91507f6765745265717569726564416d6f756e743a20707269636520746f6f206c6f776000830152602082019050919050565b6000613a8a60298361411f565b91507f455243313135353a2073657474696e6720617070726f76616c2073746174757360008301527f20666f722073656c6600000000000000000000000000000000000000000000006020830152604082019050919050565b6000613af060298361411f565b91507f455243313135353a206163636f756e747320616e6420696473206c656e67746860008301527f206d69736d6174636800000000000000000000000000000000000000000000006020830152604082019050919050565b6000613b5660288361411f565b91507f455243313135353a2069647320616e6420616d6f756e7473206c656e6774682060008301527f6d69736d617463680000000000000000000000000000000000000000000000006020830152604082019050919050565b6000613bbc60218361411f565b91507f455243313135353a206d696e7420746f20746865207a65726f2061646472657360008301527f73000000000000000000000000000000000000000000000000000000000000006020830152604082019050919050565b6000613c22601c8361411f565b91507f6c6f6761726974686d3a206f706572616e6420746f6f20736d616c6c000000006000830152602082019050919050565b613c5e81614420565b82525050565b613c6d81614420565b82525050565b600060a082019050613c88600083018861361f565b613c95602083018761361f565b8181036040830152613ca7818661362e565b90508181036060830152613cbb818561362e565b90508181036080830152613ccf818461369b565b90509695505050505050565b6000606082019050613cf0600083018661361f565b613cfd602083018561361f565b613d0a6040830184613c64565b949350505050565b600060a082019050613d27600083018861361f565b613d34602083018761361f565b613d416040830186613c64565b613d4e6060830185613c64565b8181036080830152613d60818461369b565b90509695505050505050565b60006020820190508181036000830152613d86818461362e565b905092915050565b60006040820190508181036000830152613da8818561362e565b90508181036020830152613dbc818461362e565b90509392505050565b6000602082019050613dda600083018461368c565b92915050565b60006020820190508181036000830152613dfa81846136d4565b905092915050565b60006020820190508181036000830152613e1b8161370d565b9050919050565b60006020820190508181036000830152613e3b81613773565b9050919050565b60006020820190508181036000830152613e5b816137d9565b9050919050565b60006020820190508181036000830152613e7b8161383f565b9050919050565b60006020820190508181036000830152613e9b816138a5565b9050919050565b60006020820190508181036000830152613ebb8161390b565b9050919050565b60006020820190508181036000830152613edb81613971565b9050919050565b60006020820190508181036000830152613efb816139d7565b9050919050565b60006020820190508181036000830152613f1b81613a3d565b9050919050565b60006020820190508181036000830152613f3b81613a7d565b9050919050565b60006020820190508181036000830152613f5b81613ae3565b9050919050565b60006020820190508181036000830152613f7b81613b49565b9050919050565b60006020820190508181036000830152613f9b81613baf565b9050919050565b60006020820190508181036000830152613fbb81613c15565b9050919050565b6000602082019050613fd76000830184613c64565b92915050565b6000604082019050613ff26000830185613c64565b613fff6020830184613c64565b9392505050565b6000604051905081810181811067ffffffffffffffff8211171561402d5761402c6145a5565b5b8060405250919050565b600067ffffffffffffffff821115614052576140516145a5565b5b602082029050602081019050919050565b600067ffffffffffffffff82111561407e5761407d6145a5565b5b602082029050602081019050919050565b600067ffffffffffffffff8211156140aa576140a96145a5565b5b601f19601f8301169050602081019050919050565b6000819050602082019050919050565b600081519050919050565b600081519050919050565b600081519050919050565b6000602082019050919050565b600082825260208201905092915050565b600082825260208201905092915050565b600082825260208201905092915050565b600061413b82614420565b915061414683614420565b9250827fffffffffffffffffffffffffffffffffffffffffffffffffffffffffffffffff0382111561417b5761417a614518565b5b828201905092915050565b600061419182614420565b915061419c83614420565b9250826141ac576141ab614547565b5b828204905092915050565b6000808291508390505b6001851115614201578086048111156141dd576141dc614518565b5b60018516156141ec5780820291505b80810290506141fa856145e5565b94506141c1565b94509492505050565b600061421582614420565b915061422083614420565b925061424d7fffffffffffffffffffffffffffffffffffffffffffffffffffffffffffffffff8484614255565b905092915050565b6000826142655760019050614321565b816142735760009050614321565b81600181146142895760028114614293576142c2565b6001915050614321565b60ff8411156142a5576142a4614518565b5b8360020a9150848211156142bc576142bb614518565b5b50614321565b5060208310610133831016604e8410600b84101617156142f75782820a9050838111156142f2576142f1614518565b5b614321565b61430484848460016141b7565b9250905081840481111561431b5761431a614518565b5b81810290505b9392505050565b600061433382614420565b915061433e83614420565b9250817fffffffffffffffffffffffffffffffffffffffffffffffffffffffffffffffff048311821515161561437757614376614518565b5b828202905092915050565b600061438d82614420565b915061439883614420565b9250828210156143ab576143aa614518565b5b828203905092915050565b60006143c182614400565b9050919050565b60008115159050919050565b60007fffffffff0000000000000000000000000000000000000000000000000000000082169050919050565b600073ffffffffffffffffffffffffffffffffffffffff82169050919050565b6000819050919050565b82818337600083830152505050565b60005b8381101561445757808201518184015260208101905061443c565b83811115614466576000848401525b50505050565b6000600282049050600182168061448457607f821691505b6020821081141561449857614497614576565b5b50919050565b60006144a982614420565b91507fffffffffffffffffffffffffffffffffffffffffffffffffffffffffffffffff8214156144dc576144db614518565b5b600182019050919050565b60006144f282614420565b91506144fd83614420565b92508261450d5761450c614547565b5b828206905092915050565b7f4e487b7100000000000000000000000000000000000000000000000000000000600052601160045260246000fd5b7f4e487b7100000000000000000000000000000000000000000000000000000000600052601260045260246000fd5b7f4e487b7100000000000000000000000000000000000000000000000000000000600052602260045260246000fd5b7f4e487b7100000000000000000000000000000000000000000000000000000000600052604160045260246000fd5b6000601f19601f8301169050919050565b60008160011c9050919050565b60008160e01c9050919050565b600060443d101561460f576146b2565b60046000803e6146206000516145f2565b6308c379a0811461463157506146b2565b60405160043d036004823e80513d602482011167ffffffffffffffff8211171561465d575050506146b2565b808201805167ffffffffffffffff81111561467c5750505050506146b2565b8060208301013d8501811115614697575050505050506146b2565b6146a0826145d4565b60208401016040528296505050505050505b90565b6146be816143b6565b81146146c957600080fd5b50565b6146d5816143c8565b81146146e057600080fd5b50565b6146ec816143d4565b81146146f757600080fd5b50565b61470381614420565b811461470e57600080fd5b5056fe0000000000000001000000000000000200000000000000040000000000000008000000000000001000000000000000200000000000000040000000000000008000000000000001000000000000000200000000000000040000000000000008000000000000001000000000000000200000000000000040000000000000008000000000000001000000000000000200000000000000040000000000000008000000000000001000000000000000200000000000000040000000000000008000000000000001000000000000000200000000000000040000000000000008000000000000001000000000000000200000000000000040000000000000008000000000000001000000000000000200000000000000040000000000000008000000000000001000000000000000200000000000000040000000000000008000000000000001000000000000000200000000000000040000000000000008000000000000001000000000000000200000000000000040000000000000008000000000000001000000000000000200000000000000040000000000000008000000000000001000000000000000200000000000000040000000000000008000000000000001000000000000000200000000000000040000000000000008000000000000001000000000000000200000000000000006f05b59d3b20000018abef7846071c0003157def08c0e3800038646c80a010400001e136d11666f0de0b6b3a76400000de0b6b3a76400010de0b6b3a76400020de0b6b3a76400050de0b6b3a764000b0de0b6b3a76400160de0b6b3a764002c0de0b6b3a76400580de0b6b3a76400b10de0b6b3a76401620de0b6b3a76402c50de0b6b3a764058b0de0b6b3a7640b170de0b6b3a764162e0de0b6b3a7642c5c0de0b6b3a76458b90de0b6b3a764b1720de0b6b3a76562e40de0b6b3a766c5c80de0b6b3a7698b900de0b6b3a76f17210de0b6b3a77a2e420de0b6b3a7905c850de0b6b3a7bcb90b0de0b6b3a81572170de0b6b3a8c6e42f0de0b6b3aa29c85f0de0b6b3acef90bf0de0b6b3b27b217f0de0b6b3bd9242ff0de0b6b3d3c085fe0de0b6b4001d0bfd0de0b6b458d617fc0de0b6b50a4830010de0b6b66d2c60260de0b6b932f4c0da0de0b6bebe8583eb0de0b6c9d5a710b30de0b6e003ea44db0de0b70c607117840de0b765198066410de0b8168ba5a9640de0b979700ac64c0de0bc3f393f5ab50de0c1cacd51ee520de0cce1fc1cc3c60de0e3107449406e0de10f6dcefe47050de1682a2ddebc000de219a991aadb930de37cc2f2fcb7380de6436028ee3a220debd244c555d3b40df6f6b9dbcc5f410e0d5a6c6ea8a8410e3a8dbbd2b7e9d50e96aa5bb87c13840f55ef96062919dd10f25db82c317ea514b1c2442ffabe3c1edbf25de7a70f72449e9dd02d2817d4a2646970667358221220e8ac0a8f69ef237d86c1eef3d39143db5a3ac07f7bbfc1a2e5214db1cb92f30f64736f6c63430008000033",
  "linkReferences": {},
  "deployedLinkReferences": {}
}