{
  "_format": "hh-sol-artifact-1",
  "contractName": "Blocks",
  "sourceName": "hardhat/contracts/Blocks.sol",
  "abi": [
    {
      "inputs": [
        {
          "internalType": "uint256",
          "name": "N",
          "type": "uint256"
        },
        {
          "internalType": "uint256",
          "name": "b",
          "type": "uint256"
        },
        {
          "internalType": "uint256",
          "name": "delta",
          "type": "uint256"
        },
        {
          "internalType": "address",
          "name": "USDC",
          "type": "address"
        },
        {
          "internalType": "address",
          "name": "vault",
          "type": "address"
        }
      ],
      "stateMutability": "nonpayable",
      "type": "constructor"
    },
    {
      "anonymous": false,
      "inputs": [
        {
          "indexed": true,
          "internalType": "address",
          "name": "account",
          "type": "address"
        },
        {
          "indexed": true,
          "internalType": "address",
          "name": "operator",
          "type": "address"
        },
        {
          "indexed": false,
          "internalType": "bool",
          "name": "approved",
          "type": "bool"
        }
      ],
      "name": "ApprovalForAll",
      "type": "event"
    },
    {
      "anonymous": false,
      "inputs": [
        {
          "indexed": true,
          "internalType": "address",
          "name": "operator",
          "type": "address"
        },
        {
          "indexed": true,
          "internalType": "address",
          "name": "from",
          "type": "address"
        },
        {
          "indexed": true,
          "internalType": "address",
          "name": "to",
          "type": "address"
        },
        {
          "indexed": false,
          "internalType": "uint256[]",
          "name": "ids",
          "type": "uint256[]"
        },
        {
          "indexed": false,
          "internalType": "uint256[]",
          "name": "values",
          "type": "uint256[]"
        }
      ],
      "name": "TransferBatch",
      "type": "event"
    },
    {
      "anonymous": false,
      "inputs": [
        {
          "indexed": true,
          "internalType": "address",
          "name": "operator",
          "type": "address"
        },
        {
          "indexed": true,
          "internalType": "address",
          "name": "from",
          "type": "address"
        },
        {
          "indexed": true,
          "internalType": "address",
          "name": "to",
          "type": "address"
        },
        {
          "indexed": false,
          "internalType": "uint256",
          "name": "id",
          "type": "uint256"
        },
        {
          "indexed": false,
          "internalType": "uint256",
          "name": "value",
          "type": "uint256"
        }
      ],
      "name": "TransferSingle",
      "type": "event"
    },
    {
      "anonymous": false,
      "inputs": [
        {
          "indexed": false,
          "internalType": "string",
          "name": "value",
          "type": "string"
        },
        {
          "indexed": true,
          "internalType": "uint256",
          "name": "id",
          "type": "uint256"
        }
      ],
      "name": "URI",
      "type": "event"
    },
    {
      "inputs": [],
      "name": "_N",
      "outputs": [
        {
          "internalType": "uint256",
          "name": "",
          "type": "uint256"
        }
      ],
      "stateMutability": "view",
      "type": "function"
    },
    {
      "inputs": [],
      "name": "_b",
      "outputs": [
        {
          "internalType": "uint256",
          "name": "",
          "type": "uint256"
        }
      ],
      "stateMutability": "view",
      "type": "function"
    },
    {
      "inputs": [],
      "name": "_delta",
      "outputs": [
        {
          "internalType": "uint256",
          "name": "",
          "type": "uint256"
        }
      ],
      "stateMutability": "view",
      "type": "function"
    },
    {
      "inputs": [],
      "name": "_duration",
      "outputs": [
        {
          "internalType": "uint256",
          "name": "",
          "type": "uint256"
        }
      ],
      "stateMutability": "view",
      "type": "function"
    },
    {
      "inputs": [],
      "name": "_earnings",
      "outputs": [
        {
          "internalType": "uint256",
          "name": "",
          "type": "uint256"
        }
      ],
      "stateMutability": "view",
      "type": "function"
    },
    {
      "inputs": [],
      "name": "_expiry_timestamp",
      "outputs": [
        {
          "internalType": "uint256",
          "name": "",
          "type": "uint256"
        }
      ],
      "stateMutability": "view",
      "type": "function"
    },
    {
      "inputs": [
        {
          "internalType": "uint256",
          "name": "",
          "type": "uint256"
        }
      ],
      "name": "_quantities",
      "outputs": [
        {
          "internalType": "uint256",
          "name": "",
          "type": "uint256"
        }
      ],
      "stateMutability": "view",
      "type": "function"
    },
    {
      "inputs": [],
      "name": "_total_sold",
      "outputs": [
        {
          "internalType": "uint256",
          "name": "",
          "type": "uint256"
        }
      ],
      "stateMutability": "view",
      "type": "function"
    },
    {
      "inputs": [],
      "name": "_total_weight",
      "outputs": [
        {
          "internalType": "uint256",
          "name": "",
          "type": "uint256"
        }
      ],
      "stateMutability": "view",
      "type": "function"
    },
    {
      "inputs": [],
      "name": "_value",
      "outputs": [
        {
          "internalType": "uint256",
          "name": "",
          "type": "uint256"
        }
      ],
      "stateMutability": "view",
      "type": "function"
    },
    {
      "inputs": [],
      "name": "_vault",
      "outputs": [
        {
          "internalType": "contract Vault",
          "name": "",
          "type": "address"
        }
      ],
      "stateMutability": "view",
      "type": "function"
    },
    {
      "inputs": [
        {
          "internalType": "uint256",
          "name": "",
          "type": "uint256"
        }
      ],
      "name": "_weights",
      "outputs": [
        {
          "internalType": "uint256",
          "name": "",
          "type": "uint256"
        }
      ],
      "stateMutability": "view",
      "type": "function"
    },
    {
      "inputs": [
        {
          "internalType": "address",
          "name": "account",
          "type": "address"
        },
        {
          "internalType": "uint256",
          "name": "id",
          "type": "uint256"
        }
      ],
      "name": "balanceOf",
      "outputs": [
        {
          "internalType": "uint256",
          "name": "",
          "type": "uint256"
        }
      ],
      "stateMutability": "view",
      "type": "function"
    },
    {
      "inputs": [
        {
          "internalType": "address[]",
          "name": "accounts",
          "type": "address[]"
        },
        {
          "internalType": "uint256[]",
          "name": "ids",
          "type": "uint256[]"
        }
      ],
      "name": "balanceOfBatch",
      "outputs": [
        {
          "internalType": "uint256[]",
          "name": "",
          "type": "uint256[]"
        }
      ],
      "stateMutability": "view",
      "type": "function"
    },
    {
      "inputs": [
        {
          "internalType": "uint256",
          "name": "bucket",
          "type": "uint256"
        }
      ],
      "name": "getBucketPrice",
      "outputs": [
        {
          "internalType": "uint256",
          "name": "",
          "type": "uint256"
        }
      ],
      "stateMutability": "view",
      "type": "function"
    },
    {
      "inputs": [
        {
          "internalType": "address",
          "name": "account",
          "type": "address"
        },
        {
          "internalType": "address",
          "name": "operator",
          "type": "address"
        }
      ],
      "name": "isApprovedForAll",
      "outputs": [
        {
          "internalType": "bool",
          "name": "",
          "type": "bool"
        }
      ],
      "stateMutability": "view",
      "type": "function"
    },
    {
      "inputs": [
        {
          "internalType": "uint256",
          "name": "bucket",
          "type": "uint256"
        },
        {
          "internalType": "uint256",
          "name": "amount",
          "type": "uint256"
        }
      ],
      "name": "purchase",
      "outputs": [],
      "stateMutability": "nonpayable",
      "type": "function"
    },
    {
      "inputs": [
        {
          "internalType": "uint256",
          "name": "bucket",
          "type": "uint256"
        },
        {
          "internalType": "uint256",
          "name": "amount",
          "type": "uint256"
        }
      ],
      "name": "purchaseLeftSlope",
      "outputs": [],
      "stateMutability": "nonpayable",
      "type": "function"
    },
    {
      "inputs": [
        {
          "internalType": "uint256",
          "name": "start",
          "type": "uint256"
        },
        {
          "internalType": "uint256",
          "name": "end",
          "type": "uint256"
        },
        {
          "internalType": "uint256",
          "name": "amount",
          "type": "uint256"
        }
      ],
      "name": "purchaseRange",
      "outputs": [],
      "stateMutability": "nonpayable",
      "type": "function"
    },
    {
      "inputs": [
        {
          "internalType": "address",
          "name": "from",
          "type": "address"
        },
        {
          "internalType": "address",
          "name": "to",
          "type": "address"
        },
        {
          "internalType": "uint256[]",
          "name": "ids",
          "type": "uint256[]"
        },
        {
          "internalType": "uint256[]",
          "name": "amounts",
          "type": "uint256[]"
        },
        {
          "internalType": "bytes",
          "name": "data",
          "type": "bytes"
        }
      ],
      "name": "safeBatchTransferFrom",
      "outputs": [],
      "stateMutability": "nonpayable",
      "type": "function"
    },
    {
      "inputs": [
        {
          "internalType": "address",
          "name": "from",
          "type": "address"
        },
        {
          "internalType": "address",
          "name": "to",
          "type": "address"
        },
        {
          "internalType": "uint256",
          "name": "id",
          "type": "uint256"
        },
        {
          "internalType": "uint256",
          "name": "amount",
          "type": "uint256"
        },
        {
          "internalType": "bytes",
          "name": "data",
          "type": "bytes"
        }
      ],
      "name": "safeTransferFrom",
      "outputs": [],
      "stateMutability": "nonpayable",
      "type": "function"
    },
    {
      "inputs": [
        {
          "internalType": "address",
          "name": "operator",
          "type": "address"
        },
        {
          "internalType": "bool",
          "name": "approved",
          "type": "bool"
        }
      ],
      "name": "setApprovalForAll",
      "outputs": [],
      "stateMutability": "nonpayable",
      "type": "function"
    },
    {
      "inputs": [
        {
          "internalType": "bytes4",
          "name": "interfaceId",
          "type": "bytes4"
        }
      ],
      "name": "supportsInterface",
      "outputs": [
        {
          "internalType": "bool",
          "name": "",
          "type": "bool"
        }
      ],
      "stateMutability": "view",
      "type": "function"
    },
    {
      "inputs": [
        {
          "internalType": "uint256",
          "name": "",
          "type": "uint256"
        }
      ],
      "name": "uri",
      "outputs": [
        {
          "internalType": "string",
          "name": "",
          "type": "string"
        }
      ],
      "stateMutability": "view",
      "type": "function"
    }
  ],
  "bytecode": "0x60806040523480156200001157600080fd5b5060405162005089380380620050898339818101604052810190620000379190620005c3565b6040518060400160405280600481526020017f6e6f6e65000000000000000000000000000000000000000000000000000000008152506200007e816200021b60201b60201c565b5060008511620000c5576040517f08c379a0000000000000000000000000000000000000000000000000000000008152600401620000bc906200079b565b60405180910390fd5b846005819055506000841162000112576040517f08c379a0000000000000000000000000000000000000000000000000000000008152600401620001099062000757565b60405180910390fd5b836008819055506012600a620001299190620008be565b600554620001389190620009fb565b6006819055506012600a6200014e9190620008be565b620001666006546200023760201b62001db81760201c565b600854620001759190620009fb565b6200018191906200082b565b60098190555082600b8190555081600f60006101000a81548173ffffffffffffffffffffffffffffffffffffffff021916908373ffffffffffffffffffffffffffffffffffffffff16021790555080601060006101000a81548173ffffffffffffffffffffffffffffffffffffffff021916908373ffffffffffffffffffffffffffffffffffffffff160217905550505050505062000b9e565b806002908051906020019062000233929190620004e5565b5050565b6000806012600a6200024a9190620008be565b836200025791906200082b565b9050600081116200029f576040517f08c379a0000000000000000000000000000000000000000000000000000000008152600401620002969062000779565b60405180910390fd5b60007001000000000000000000000000000000008210620002d357608082901c9150608081620002d09190620007ce565b90505b680100000000000000008210620002fd57604082901c9150604081620002fa9190620007ce565b90505b64010000000082106200032357602082901c9150602081620003209190620007ce565b90505b6201000082106200034757601082901c9150601081620003449190620007ce565b90505b61010082106200036a57600882901c9150600881620003679190620007ce565b90505b601082106200038c57600482901c9150600481620003899190620007ce565b90505b60048210620003ae57600282901c9150600281620003ab9190620007ce565b90505b60028210620003c957600181620003c69190620007ce565b90505b6012600a620003d99190620008be565b81620003e69190620009fb565b90506012600a620003f89190620008be565b816200040591906200082b565b6002620004139190620008be565b846200042091906200082b565b91506000806012600a620004359190620008be565b90505b6000811115620004cc576012600a620004529190620008be565b6002620004609190620009fb565b841062000489578082620004759190620007ce565b91506002846200048691906200082b565b93505b6012600a620004999190620008be565b8485620004a79190620009fb565b620004b391906200082b565b9350600281620004c491906200082b565b905062000438565b508181620004db9190620007ce565b9350505050919050565b828054620004f39062000a9a565b90600052602060002090601f01602090048101928262000517576000855562000563565b82601f106200053257805160ff191683800117855562000563565b8280016001018555821562000563579182015b828111156200056257825182559160200191906001019062000545565b5b50905062000572919062000576565b5090565b5b808211156200059157600081600090555060010162000577565b5090565b600081519050620005a68162000b6a565b92915050565b600081519050620005bd8162000b84565b92915050565b600080600080600060a08688031215620005dc57600080fd5b6000620005ec88828901620005ac565b9550506020620005ff88828901620005ac565b94505060406200061288828901620005ac565b9350506060620006258882890162000595565b9250506080620006388882890162000595565b9150509295509295909350565b600062000654602183620007bd565b91507f636f6e7374727563746f723a20622073686f756c6420626520706f736974697660008301527f65000000000000000000000000000000000000000000000000000000000000006020830152604082019050919050565b6000620006bc601c83620007bd565b91507f6c6f6761726974686d3a206f706572616e6420746f6f20736d616c6c000000006000830152602082019050919050565b6000620006fe602183620007bd565b91507f636f6e7374727563746f723a204e2073686f756c6420626520706f736974697660008301527f65000000000000000000000000000000000000000000000000000000000000006020830152604082019050919050565b60006020820190508181036000830152620007728162000645565b9050919050565b600060208201905081810360008301526200079481620006ad565b9050919050565b60006020820190508181036000830152620007b681620006ef565b9050919050565b600082825260208201905092915050565b6000620007db8262000a90565b9150620007e88362000a90565b9250827fffffffffffffffffffffffffffffffffffffffffffffffffffffffffffffffff0382111562000820576200081f62000ad0565b5b828201905092915050565b6000620008388262000a90565b9150620008458362000a90565b92508262000858576200085762000aff565b5b828204905092915050565b6000808291508390505b6001851115620008b5578086048111156200088d576200088c62000ad0565b5b60018516156200089d5780820291505b8081029050620008ad8562000b5d565b94506200086d565b94509492505050565b6000620008cb8262000a90565b9150620008d88362000a90565b9250620009077fffffffffffffffffffffffffffffffffffffffffffffffffffffffffffffffff84846200090f565b905092915050565b600082620009215760019050620009f4565b81620009315760009050620009f4565b81600181146200094a576002811462000955576200098b565b6001915050620009f4565b60ff8411156200096a576200096962000ad0565b5b8360020a91508482111562000984576200098362000ad0565b5b50620009f4565b5060208310610133831016604e8410600b8410161715620009c55782820a905083811115620009bf57620009be62000ad0565b5b620009f4565b620009d4848484600162000863565b92509050818404811115620009ee57620009ed62000ad0565b5b81810290505b9392505050565b600062000a088262000a90565b915062000a158362000a90565b9250817fffffffffffffffffffffffffffffffffffffffffffffffffffffffffffffffff048311821515161562000a515762000a5062000ad0565b5b828202905092915050565b600062000a698262000a70565b9050919050565b600073ffffffffffffffffffffffffffffffffffffffff82169050919050565b6000819050919050565b6000600282049050600182168062000ab357607f821691505b6020821081141562000aca5762000ac962000b2e565b5b50919050565b7f4e487b7100000000000000000000000000000000000000000000000000000000600052601160045260246000fd5b7f4e487b7100000000000000000000000000000000000000000000000000000000600052601260045260246000fd5b7f4e487b7100000000000000000000000000000000000000000000000000000000600052602260045260246000fd5b60008160011c9050919050565b62000b758162000a5c565b811462000b8157600080fd5b50565b62000b8f8162000a90565b811462000b9b57600080fd5b50565b6144db8062000bae6000396000f3fe608060405234801561001057600080fd5b50600436106101575760003560e01c80635655bb20116100c3578063c6e3a9b31161007c578063c6e3a9b3146103c8578063de6f56c6146103e6578063e985e9c514610416578063f242432a14610446578063f3f03a6114610462578063fd243da31461049257610157565b80635655bb201461031a5780636d88fae81461033857806370876c9814610354578063a22cb46514610370578063acc0349a1461038c578063b895c74a146103aa57610157565b8063245c7c6011610115578063245c7c6014610244578063253749961461026257806325f5eb81146102805780632eb2c2d61461029e57806346c82b2c146102ba5780634e1273f4146102ea57610157565b8062fdd58e1461015c57806301ffc9a71461018c5780630e89341c146101bc5780631a797d90146101ec5780631ade9391146102085780631ee4cac814610226575b600080fd5b61017660048036038101906101719190612e7c565b6104b0565b6040516101839190613952565b60405180910390f35b6101a660048036038101906101a19190612f4d565b610579565b6040516101b3919061377a565b60405180910390f35b6101d660048036038101906101d19190612f9f565b61065b565b6040516101e391906137b0565b60405180910390f35b61020660048036038101906102019190612fc8565b6106ef565b005b610210610b57565b60405161021d9190613952565b60405180910390f35b61022e610b5d565b60405161023b9190613952565b60405180910390f35b61024c610b63565b6040516102599190613952565b60405180910390f35b61026a610b69565b6040516102779190613952565b60405180910390f35b610288610b6f565b6040516102959190613952565b60405180910390f35b6102b860048036038101906102b39190612cf2565b610b75565b005b6102d460048036038101906102cf9190612f9f565b610f6b565b6040516102e19190613952565b60405180910390f35b61030460048036038101906102ff9190612eb8565b610f83565b6040516103119190613721565b60405180910390f35b610322611134565b60405161032f9190613952565b60405180910390f35b610352600480360381019061034d9190613004565b61113a565b005b61036e60048036038101906103699190612fc8565b61158e565b005b61038a60048036038101906103859190612e40565b6117e1565b005b610394611962565b6040516103a19190613952565b60405180910390f35b6103b2611968565b6040516103bf9190613952565b60405180910390f35b6103d061196e565b6040516103dd9190613952565b60405180910390f35b61040060048036038101906103fb9190612f9f565b611974565b60405161040d9190613952565b60405180910390f35b610430600480360381019061042b9190612cb6565b6119ce565b60405161043d919061377a565b60405180910390f35b610460600480360381019061045b9190612db1565b611a62565b005b61047c60048036038101906104779190612f9f565b611d7a565b6040516104899190613952565b60405180910390f35b61049a611d92565b6040516104a79190613795565b60405180910390f35b60008073ffffffffffffffffffffffffffffffffffffffff168373ffffffffffffffffffffffffffffffffffffffff161415610521576040517f08c379a000000000000000000000000000000000000000000000000000000000815260040161051890613812565b60405180910390fd5b60008083815260200190815260200160002060008473ffffffffffffffffffffffffffffffffffffffff1673ffffffffffffffffffffffffffffffffffffffff16815260200190815260200160002054905092915050565b60007fd9b67a26000000000000000000000000000000000000000000000000000000007bffffffffffffffffffffffffffffffffffffffffffffffffffffffff1916827bffffffffffffffffffffffffffffffffffffffffffffffffffffffff1916148061064457507f0e89341c000000000000000000000000000000000000000000000000000000007bffffffffffffffffffffffffffffffffffffffffffffffffffffffff1916827bffffffffffffffffffffffffffffffffffffffffffffffffffffffff1916145b80610654575061065382612024565b5b9050919050565b60606002805461066a90613e20565b80601f016020809104026020016040519081016040528092919081815260200182805461069690613e20565b80156106e35780601f106106b8576101008083540402835291602001916106e3565b820191906000526020600020905b8154815290600101906020018083116106c657829003601f168201915b50505050509050919050565b600061072a600854846107029190613cb8565b6012600a6107109190613b9a565b8461071b9190613cb8565b6107259190613b16565b61208e565b9050600081905060008467ffffffffffffffff811115610773577f4e487b7100000000000000000000000000000000000000000000000000000000600052604160045260246000fd5b6040519080825280602002602001820160405280156107a15781602001602082028036833780820191505090505b50905060008567ffffffffffffffff8111156107e6577f4e487b7100000000000000000000000000000000000000000000000000000000600052604160045260246000fd5b6040519080825280602002602001820160405280156108145781602001602082028036833780820191505090505b50905060008087876108269190613b16565b90506000819050600089905060005b8a8110156109ec5760018261084a9190613d12565b915060006012600a61085c9190613b9a565b600360008581526020019081526020016000205461087a9190613ac0565b905060006012600a61088c9190613b9a565b8a836108989190613cb8565b6108a29190613b16565b905081816108b09190613d12565b876108bb9190613ac0565b96506012600a6108cb9190613b9a565b816108d69190613d12565b6003600086815260200190815260200160002081905550846004600086815260200190815260200160002060008282546109109190613ac0565b9250508190555083898581518110610951577f4e487b7100000000000000000000000000000000000000000000000000000000600052603260045260246000fd5b60200260200101818152505084888581518110610997577f4e487b7100000000000000000000000000000000000000000000000000000000600052603260045260246000fd5b6020026020010181815250506012600a6109b19190613b9a565b8b8b6109bd9190613cb8565b6109c79190613b16565b995085856109d59190613ac0565b9450505080806109e490613e52565b915050610835565b5083600660008282546109ff9190613ac0565b9250508190555060006012600a610a169190613b9a565b610a21600654611db8565b600854610a2e9190613cb8565b610a389190613b16565b9050600060095482610a4a9190613d12565b90508160098190555080600a6000828254610a659190613ac0565b92505081905550600f60009054906101000a900473ffffffffffffffffffffffffffffffffffffffff1673ffffffffffffffffffffffffffffffffffffffff166323b872dd333064e8d4a5100085610abd9190613b16565b6040518463ffffffff1660e01b8152600401610adb93929190613690565b602060405180830381600087803b158015610af557600080fd5b505af1158015610b09573d6000803e3d6000fd5b505050506040513d601f19601f82011682018060405250810190610b2d9190612f24565b50610b4933898960405180602001604052806000815250612165565b505050505050505050505050565b600a5481565b600b5481565b600d5481565b60085481565b60065481565b8151835114610bb9576040517f08c379a0000000000000000000000000000000000000000000000000000000008152600401610bb0906138f2565b60405180910390fd5b600073ffffffffffffffffffffffffffffffffffffffff168473ffffffffffffffffffffffffffffffffffffffff161415610c29576040517f08c379a0000000000000000000000000000000000000000000000000000000008152600401610c2090613852565b60405180910390fd5b610c316123cf565b73ffffffffffffffffffffffffffffffffffffffff168573ffffffffffffffffffffffffffffffffffffffff161480610c775750610c7685610c716123cf565b6119ce565b5b610cb6576040517f08c379a0000000000000000000000000000000000000000000000000000000008152600401610cad90613872565b60405180910390fd5b6000610cc06123cf565b9050610cd08187878787876123d7565b60005b8451811015610ed6576000858281518110610d17577f4e487b7100000000000000000000000000000000000000000000000000000000600052603260045260246000fd5b602002602001015190506000858381518110610d5c577f4e487b7100000000000000000000000000000000000000000000000000000000600052603260045260246000fd5b60200260200101519050600080600084815260200190815260200160002060008b73ffffffffffffffffffffffffffffffffffffffff1673ffffffffffffffffffffffffffffffffffffffff16815260200190815260200160002054905081811015610dfd576040517f08c379a0000000000000000000000000000000000000000000000000000000008152600401610df490613892565b60405180910390fd5b8181610e099190613d12565b60008085815260200190815260200160002060008c73ffffffffffffffffffffffffffffffffffffffff1673ffffffffffffffffffffffffffffffffffffffff168152602001908152602001600020819055508160008085815260200190815260200160002060008b73ffffffffffffffffffffffffffffffffffffffff1673ffffffffffffffffffffffffffffffffffffffff1681526020019081526020016000206000828254610ebb9190613ac0565b9250508190555050505080610ecf90613e52565b9050610cd3565b508473ffffffffffffffffffffffffffffffffffffffff168673ffffffffffffffffffffffffffffffffffffffff168273ffffffffffffffffffffffffffffffffffffffff167f4a39dc06d4c0dbc64b70af90fd698a233a518aa5d07e595d983b8c0526c8f7fb8787604051610f4d929190613743565b60405180910390a4610f638187878787876123df565b505050505050565b60046020528060005260406000206000915090505481565b60608151835114610fc9576040517f08c379a0000000000000000000000000000000000000000000000000000000008152600401610fc0906138d2565b60405180910390fd5b6000835167ffffffffffffffff81111561100c577f4e487b7100000000000000000000000000000000000000000000000000000000600052604160045260246000fd5b60405190808252806020026020018201604052801561103a5781602001602082028036833780820191505090505b50905060005b8451811015611129576110d3858281518110611085577f4e487b7100000000000000000000000000000000000000000000000000000000600052603260045260246000fd5b60200260200101518583815181106110c6577f4e487b7100000000000000000000000000000000000000000000000000000000600052603260045260246000fd5b60200260200101516104b0565b82828151811061110c577f4e487b7100000000000000000000000000000000000000000000000000000000600052603260045260246000fd5b6020026020010181815250508061112290613e52565b9050611040565b508091505092915050565b60055481565b600061116a6008546012600a6111509190613b9a565b8461115b9190613cb8565b6111659190613b16565b61208e565b90506000848461117a9190613d12565b905083851061118857600080fd5b60055484111561119757600080fd5b60008167ffffffffffffffff8111156111d9577f4e487b7100000000000000000000000000000000000000000000000000000000600052604160045260246000fd5b6040519080825280602002602001820160405280156112075781602001602082028036833780820191505090505b50905060008267ffffffffffffffff81111561124c577f4e487b7100000000000000000000000000000000000000000000000000000000600052604160045260246000fd5b60405190808252806020026020018201604052801561127a5781602001602082028036833780820191505090505b509050600080600090505b848110156114255760006012600a61129d9190613b9a565b60036000848d6112ad9190613ac0565b8152602001908152602001600020546112c69190613ac0565b905060006012600a6112d89190613b9a565b88836112e49190613cb8565b6112ee9190613b16565b905081816112fc9190613d12565b846113079190613ac0565b93506012600a6113179190613b9a565b816113229190613d12565b60036000858e6113329190613ac0565b8152602001908152602001600020819055508860046000858e6113559190613ac0565b815260200190815260200160002060008282546113729190613ac0565b92505081905550828b6113859190613ac0565b8684815181106113be577f4e487b7100000000000000000000000000000000000000000000000000000000600052603260045260246000fd5b60200260200101818152505088858481518110611404577f4e487b7100000000000000000000000000000000000000000000000000000000600052603260045260246000fd5b6020026020010181815250505050808061141d90613e52565b915050611285565b5080600660008282546114389190613ac0565b9250508190555060006012600a61144f9190613b9a565b61145a600654611db8565b6008546114679190613cb8565b6114719190613b16565b90506000600954826114839190613d12565b90508160098190555080600a600082825461149e9190613ac0565b92505081905550600f60009054906101000a900473ffffffffffffffffffffffffffffffffffffffff1673ffffffffffffffffffffffffffffffffffffffff166323b872dd333064e8d4a51000856114f69190613b16565b6040518463ffffffff1660e01b815260040161151493929190613690565b602060405180830381600087803b15801561152e57600080fd5b505af1158015611542573d6000803e3d6000fd5b505050506040513d601f19601f820116820180604052508101906115669190612f24565b5061158233868660405180602001604052806000815250612165565b50505050505050505050565b60006115be6008546012600a6115a49190613b9a565b846115af9190613cb8565b6115b99190613b16565b61208e565b905060006012600a6115d09190613b9a565b60036000868152602001908152602001600020546115ee9190613ac0565b905060006012600a6116009190613b9a565b838361160c9190613cb8565b6116169190613b16565b9050600081836006546116299190613d12565b6116339190613ac0565b905060006012600a6116459190613b9a565b61164e83611db8565b60085461165b9190613cb8565b6116659190613b16565b90506000600954826116779190613d12565b9050826006819055506012600a61168e9190613b9a565b846116999190613d12565b600360008a81526020019081526020016000208190555086600460008a815260200190815260200160002060008282546116d39190613ac0565b9250508190555080600a60008282546116ec9190613ac0565b9250508190555081600981905550600f60009054906101000a900473ffffffffffffffffffffffffffffffffffffffff1673ffffffffffffffffffffffffffffffffffffffff166323b872dd333064e8d4a510008561174b9190613b16565b6040518463ffffffff1660e01b815260040161176993929190613690565b602060405180830381600087803b15801561178357600080fd5b505af1158015611797573d6000803e3d6000fd5b505050506040513d601f19601f820116820180604052508101906117bb9190612f24565b506117d7338989604051806020016040528060008152506125af565b5050505050505050565b8173ffffffffffffffffffffffffffffffffffffffff166118006123cf565b73ffffffffffffffffffffffffffffffffffffffff161415611857576040517f08c379a000000000000000000000000000000000000000000000000000000000815260040161184e906138b2565b60405180910390fd5b80600160006118646123cf565b73ffffffffffffffffffffffffffffffffffffffff1673ffffffffffffffffffffffffffffffffffffffff16815260200190815260200160002060008473ffffffffffffffffffffffffffffffffffffffff1673ffffffffffffffffffffffffffffffffffffffff16815260200190815260200160002060006101000a81548160ff0219169083151502179055508173ffffffffffffffffffffffffffffffffffffffff166119116123cf565b73ffffffffffffffffffffffffffffffffffffffff167f17307eab39ab6107e8899845ad3d59bd9653f200f220920489ca2b5937696c3183604051611956919061377a565b60405180910390a35050565b600c5481565b60095481565b60075481565b60006006546012600a6119879190613b9a565b6012600a6119959190613b9a565b60036000868152602001908152602001600020546119b39190613ac0565b6119bd9190613cb8565b6119c79190613b16565b9050919050565b6000600160008473ffffffffffffffffffffffffffffffffffffffff1673ffffffffffffffffffffffffffffffffffffffff16815260200190815260200160002060008373ffffffffffffffffffffffffffffffffffffffff1673ffffffffffffffffffffffffffffffffffffffff16815260200190815260200160002060009054906101000a900460ff16905092915050565b600073ffffffffffffffffffffffffffffffffffffffff168473ffffffffffffffffffffffffffffffffffffffff161415611ad2576040517f08c379a0000000000000000000000000000000000000000000000000000000008152600401611ac990613852565b60405180910390fd5b611ada6123cf565b73ffffffffffffffffffffffffffffffffffffffff168573ffffffffffffffffffffffffffffffffffffffff161480611b205750611b1f85611b1a6123cf565b6119ce565b5b611b5f576040517f08c379a0000000000000000000000000000000000000000000000000000000008152600401611b5690613832565b60405180910390fd5b6000611b696123cf565b9050611b89818787611b7a88612745565b611b8388612745565b876123d7565b600080600086815260200190815260200160002060008873ffffffffffffffffffffffffffffffffffffffff1673ffffffffffffffffffffffffffffffffffffffff16815260200190815260200160002054905083811015611c20576040517f08c379a0000000000000000000000000000000000000000000000000000000008152600401611c1790613892565b60405180910390fd5b8381611c2c9190613d12565b60008087815260200190815260200160002060008973ffffffffffffffffffffffffffffffffffffffff1673ffffffffffffffffffffffffffffffffffffffff168152602001908152602001600020819055508360008087815260200190815260200160002060008873ffffffffffffffffffffffffffffffffffffffff1673ffffffffffffffffffffffffffffffffffffffff1681526020019081526020016000206000828254611cde9190613ac0565b925050819055508573ffffffffffffffffffffffffffffffffffffffff168773ffffffffffffffffffffffffffffffffffffffff168373ffffffffffffffffffffffffffffffffffffffff167fc3d58168c5ae7397731d063d5bbf3d657854427343f4c083240f7aacaa2d0f628888604051611d5b92919061396d565b60405180910390a4611d7182888888888861280b565b50505050505050565b60036020528060005260406000206000915090505481565b601060009054906101000a900473ffffffffffffffffffffffffffffffffffffffff1681565b6000806012600a611dc99190613b9a565b83611dd49190613b16565b905060008111611e19576040517f08c379a0000000000000000000000000000000000000000000000000000000008152600401611e1090613932565b60405180910390fd5b60007001000000000000000000000000000000008210611e4a57608082901c9150608081611e479190613ac0565b90505b680100000000000000008210611e7157604082901c9150604081611e6e9190613ac0565b90505b6401000000008210611e9457602082901c9150602081611e919190613ac0565b90505b620100008210611eb557601082901c9150601081611eb29190613ac0565b90505b6101008210611ed557600882901c9150600881611ed29190613ac0565b90505b60108210611ef457600482901c9150600481611ef19190613ac0565b90505b60048210611f1357600282901c9150600281611f109190613ac0565b90505b60028210611f2b57600181611f289190613ac0565b90505b6012600a611f399190613b9a565b81611f449190613cb8565b90506012600a611f549190613b9a565b81611f5f9190613b16565b6002611f6b9190613b9a565b84611f769190613b16565b91506000806012600a611f899190613b9a565b90505b600081111561200d576012600a611fa39190613b9a565b6002611faf9190613cb8565b8410611fd3578082611fc19190613ac0565b9150600284611fd09190613b16565b93505b6012600a611fe19190613b9a565b8485611fed9190613cb8565b611ff79190613b16565b93506002816120069190613b16565b9050611f8c565b50818161201a9190613ac0565b9350505050919050565b60007f01ffc9a7000000000000000000000000000000000000000000000000000000007bffffffffffffffffffffffffffffffffffffffffffffffffffffffff1916827bffffffffffffffffffffffffffffffffffffffffffffffffffffffff1916149050919050565b6000806012600a61209f9190613b9a565b836120aa9190613b16565b905060006012600a6120bc9190613b9a565b846120c79190613e9b565b905060008260026120d89190613b9a565b905060006012600a6120ea9190613b9a565b905060005b603e81101561214d57600084612104836129db565b16111561213a576012600a6121199190613b9a565b61212282612a36565b8361212d9190613cb8565b6121379190613b16565b91505b808061214590613e52565b9150506120ef565b50808261215a9190613cb8565b945050505050919050565b600073ffffffffffffffffffffffffffffffffffffffff168473ffffffffffffffffffffffffffffffffffffffff1614156121d5576040517f08c379a00000000000000000000000000000000000000000000000000000000081526004016121cc90613912565b60405180910390fd5b8151835114612219576040517f08c379a0000000000000000000000000000000000000000000000000000000008152600401612210906138f2565b60405180910390fd5b60006122236123cf565b9050612234816000878787876123d7565b60005b845181101561233957838181518110612279577f4e487b7100000000000000000000000000000000000000000000000000000000600052603260045260246000fd5b60200260200101516000808784815181106122bd577f4e487b7100000000000000000000000000000000000000000000000000000000600052603260045260246000fd5b6020026020010151815260200190815260200160002060008873ffffffffffffffffffffffffffffffffffffffff1673ffffffffffffffffffffffffffffffffffffffff168152602001908152602001600020600082825461231f9190613ac0565b92505081905550808061233190613e52565b915050612237565b508473ffffffffffffffffffffffffffffffffffffffff16600073ffffffffffffffffffffffffffffffffffffffff168273ffffffffffffffffffffffffffffffffffffffff167f4a39dc06d4c0dbc64b70af90fd698a233a518aa5d07e595d983b8c0526c8f7fb87876040516123b1929190613743565b60405180910390a46123c8816000878787876123df565b5050505050565b600033905090565b505050505050565b6123fe8473ffffffffffffffffffffffffffffffffffffffff16612a91565b156125a7578373ffffffffffffffffffffffffffffffffffffffff1663bc197c8187878686866040518663ffffffff1660e01b8152600401612444959493929190613628565b602060405180830381600087803b15801561245e57600080fd5b505af192505050801561248f57506040513d601f19601f8201168201806040525081019061248c9190612f76565b60015b61251e5761249b613fb3565b806124a657506124e3565b806040517f08c379a00000000000000000000000000000000000000000000000000000000081526004016124da91906137b0565b60405180910390fd5b6040517f08c379a0000000000000000000000000000000000000000000000000000000008152600401612515906137d2565b60405180910390fd5b63bc197c8160e01b7bffffffffffffffffffffffffffffffffffffffffffffffffffffffff1916817bffffffffffffffffffffffffffffffffffffffffffffffffffffffff1916146125a5576040517f08c379a000000000000000000000000000000000000000000000000000000000815260040161259c906137f2565b60405180910390fd5b505b505050505050565b600073ffffffffffffffffffffffffffffffffffffffff168473ffffffffffffffffffffffffffffffffffffffff16141561261f576040517f08c379a000000000000000000000000000000000000000000000000000000000815260040161261690613912565b60405180910390fd5b60006126296123cf565b905061264a8160008761263b88612745565b61264488612745565b876123d7565b8260008086815260200190815260200160002060008773ffffffffffffffffffffffffffffffffffffffff1673ffffffffffffffffffffffffffffffffffffffff16815260200190815260200160002060008282546126a99190613ac0565b925050819055508473ffffffffffffffffffffffffffffffffffffffff16600073ffffffffffffffffffffffffffffffffffffffff168273ffffffffffffffffffffffffffffffffffffffff167fc3d58168c5ae7397731d063d5bbf3d657854427343f4c083240f7aacaa2d0f62878760405161272792919061396d565b60405180910390a461273e8160008787878761280b565b5050505050565b60606000600167ffffffffffffffff81111561278a577f4e487b7100000000000000000000000000000000000000000000000000000000600052604160045260246000fd5b6040519080825280602002602001820160405280156127b85781602001602082028036833780820191505090505b50905082816000815181106127f6577f4e487b7100000000000000000000000000000000000000000000000000000000600052603260045260246000fd5b60200260200101818152505080915050919050565b61282a8473ffffffffffffffffffffffffffffffffffffffff16612a91565b156129d3578373ffffffffffffffffffffffffffffffffffffffff1663f23a6e6187878686866040518663ffffffff1660e01b81526004016128709594939291906136c7565b602060405180830381600087803b15801561288a57600080fd5b505af19250505080156128bb57506040513d601f19601f820116820180604052508101906128b89190612f76565b60015b61294a576128c7613fb3565b806128d2575061290f565b806040517f08c379a000000000000000000000000000000000000000000000000000000000815260040161290691906137b0565b60405180910390fd5b6040517f08c379a0000000000000000000000000000000000000000000000000000000008152600401612941906137d2565b60405180910390fd5b63f23a6e6160e01b7bffffffffffffffffffffffffffffffffffffffffffffffffffffffff1916817bffffffffffffffffffffffffffffffffffffffffffffffffffffffff1916146129d1576040517f08c379a00000000000000000000000000000000000000000000000000000000081526004016129c8906137f2565b60405180910390fd5b505b505050505050565b6000806040518061022001604052806101f081526020016140c66101f09139905060006008846008612a0d9190613cb8565b612a179190613ac0565b905060008183015190508067ffffffffffffffff169350505050919050565b6000806040518061022001604052806101f081526020016142b66101f09139905060006008846008612a689190613cb8565b612a729190613ac0565b905060008183015190508067ffffffffffffffff169350505050919050565b600080823b905060008111915050919050565b6000612ab7612ab2846139c7565b613996565b90508083825260208201905082856020860282011115612ad657600080fd5b60005b85811015612b065781612aec8882612bba565b845260208401935060208301925050600181019050612ad9565b5050509392505050565b6000612b23612b1e846139f3565b613996565b90508083825260208201905082856020860282011115612b4257600080fd5b60005b85811015612b725781612b588882612ca1565b845260208401935060208301925050600181019050612b45565b5050509392505050565b6000612b8f612b8a84613a1f565b613996565b905082815260208101848484011115612ba757600080fd5b612bb2848285613dde565b509392505050565b600081359050612bc981614069565b92915050565b600082601f830112612be057600080fd5b8135612bf0848260208601612aa4565b91505092915050565b600082601f830112612c0a57600080fd5b8135612c1a848260208601612b10565b91505092915050565b600081359050612c3281614080565b92915050565b600081519050612c4781614080565b92915050565b600081359050612c5c81614097565b92915050565b600081519050612c7181614097565b92915050565b600082601f830112612c8857600080fd5b8135612c98848260208601612b7c565b91505092915050565b600081359050612cb0816140ae565b92915050565b60008060408385031215612cc957600080fd5b6000612cd785828601612bba565b9250506020612ce885828601612bba565b9150509250929050565b600080600080600060a08688031215612d0a57600080fd5b6000612d1888828901612bba565b9550506020612d2988828901612bba565b945050604086013567ffffffffffffffff811115612d4657600080fd5b612d5288828901612bf9565b935050606086013567ffffffffffffffff811115612d6f57600080fd5b612d7b88828901612bf9565b925050608086013567ffffffffffffffff811115612d9857600080fd5b612da488828901612c77565b9150509295509295909350565b600080600080600060a08688031215612dc957600080fd5b6000612dd788828901612bba565b9550506020612de888828901612bba565b9450506040612df988828901612ca1565b9350506060612e0a88828901612ca1565b925050608086013567ffffffffffffffff811115612e2757600080fd5b612e3388828901612c77565b9150509295509295909350565b60008060408385031215612e5357600080fd5b6000612e6185828601612bba565b9250506020612e7285828601612c23565b9150509250929050565b60008060408385031215612e8f57600080fd5b6000612e9d85828601612bba565b9250506020612eae85828601612ca1565b9150509250929050565b60008060408385031215612ecb57600080fd5b600083013567ffffffffffffffff811115612ee557600080fd5b612ef185828601612bcf565b925050602083013567ffffffffffffffff811115612f0e57600080fd5b612f1a85828601612bf9565b9150509250929050565b600060208284031215612f3657600080fd5b6000612f4484828501612c38565b91505092915050565b600060208284031215612f5f57600080fd5b6000612f6d84828501612c4d565b91505092915050565b600060208284031215612f8857600080fd5b6000612f9684828501612c62565b91505092915050565b600060208284031215612fb157600080fd5b6000612fbf84828501612ca1565b91505092915050565b60008060408385031215612fdb57600080fd5b6000612fe985828601612ca1565b9250506020612ffa85828601612ca1565b9150509250929050565b60008060006060848603121561301957600080fd5b600061302786828701612ca1565b935050602061303886828701612ca1565b925050604061304986828701612ca1565b9150509250925092565b600061305f838361360a565b60208301905092915050565b61307481613d46565b82525050565b600061308582613a5f565b61308f8185613a8d565b935061309a83613a4f565b8060005b838110156130cb5781516130b28882613053565b97506130bd83613a80565b92505060018101905061309e565b5085935050505092915050565b6130e181613d58565b82525050565b60006130f282613a6a565b6130fc8185613a9e565b935061310c818560208601613ded565b61311581613f88565b840191505092915050565b61312981613dba565b82525050565b600061313a82613a75565b6131448185613aaf565b9350613154818560208601613ded565b61315d81613f88565b840191505092915050565b6000613175603483613aaf565b91507f455243313135353a207472616e7366657220746f206e6f6e204552433131353560008301527f526563656976657220696d706c656d656e7465720000000000000000000000006020830152604082019050919050565b60006131db602883613aaf565b91507f455243313135353a204552433131353552656365697665722072656a6563746560008301527f6420746f6b656e730000000000000000000000000000000000000000000000006020830152604082019050919050565b6000613241602b83613aaf565b91507f455243313135353a2062616c616e636520717565727920666f7220746865207a60008301527f65726f20616464726573730000000000000000000000000000000000000000006020830152604082019050919050565b60006132a7602983613aaf565b91507f455243313135353a2063616c6c6572206973206e6f74206f776e6572206e6f7260008301527f20617070726f76656400000000000000000000000000000000000000000000006020830152604082019050919050565b600061330d602583613aaf565b91507f455243313135353a207472616e7366657220746f20746865207a65726f20616460008301527f64726573730000000000000000000000000000000000000000000000000000006020830152604082019050919050565b6000613373603283613aaf565b91507f455243313135353a207472616e736665722063616c6c6572206973206e6f742060008301527f6f776e6572206e6f7220617070726f76656400000000000000000000000000006020830152604082019050919050565b60006133d9602a83613aaf565b91507f455243313135353a20696e73756666696369656e742062616c616e636520666f60008301527f72207472616e73666572000000000000000000000000000000000000000000006020830152604082019050919050565b600061343f602983613aaf565b91507f455243313135353a2073657474696e6720617070726f76616c2073746174757360008301527f20666f722073656c6600000000000000000000000000000000000000000000006020830152604082019050919050565b60006134a5602983613aaf565b91507f455243313135353a206163636f756e747320616e6420696473206c656e67746860008301527f206d69736d6174636800000000000000000000000000000000000000000000006020830152604082019050919050565b600061350b602883613aaf565b91507f455243313135353a2069647320616e6420616d6f756e7473206c656e6774682060008301527f6d69736d617463680000000000000000000000000000000000000000000000006020830152604082019050919050565b6000613571602183613aaf565b91507f455243313135353a206d696e7420746f20746865207a65726f2061646472657360008301527f73000000000000000000000000000000000000000000000000000000000000006020830152604082019050919050565b60006135d7601c83613aaf565b91507f6c6f6761726974686d3a206f706572616e6420746f6f20736d616c6c000000006000830152602082019050919050565b61361381613db0565b82525050565b61362281613db0565b82525050565b600060a08201905061363d600083018861306b565b61364a602083018761306b565b818103604083015261365c818661307a565b90508181036060830152613670818561307a565b9050818103608083015261368481846130e7565b90509695505050505050565b60006060820190506136a5600083018661306b565b6136b2602083018561306b565b6136bf6040830184613619565b949350505050565b600060a0820190506136dc600083018861306b565b6136e9602083018761306b565b6136f66040830186613619565b6137036060830185613619565b818103608083015261371581846130e7565b90509695505050505050565b6000602082019050818103600083015261373b818461307a565b905092915050565b6000604082019050818103600083015261375d818561307a565b90508181036020830152613771818461307a565b90509392505050565b600060208201905061378f60008301846130d8565b92915050565b60006020820190506137aa6000830184613120565b92915050565b600060208201905081810360008301526137ca818461312f565b905092915050565b600060208201905081810360008301526137eb81613168565b9050919050565b6000602082019050818103600083015261380b816131ce565b9050919050565b6000602082019050818103600083015261382b81613234565b9050919050565b6000602082019050818103600083015261384b8161329a565b9050919050565b6000602082019050818103600083015261386b81613300565b9050919050565b6000602082019050818103600083015261388b81613366565b9050919050565b600060208201905081810360008301526138ab816133cc565b9050919050565b600060208201905081810360008301526138cb81613432565b9050919050565b600060208201905081810360008301526138eb81613498565b9050919050565b6000602082019050818103600083015261390b816134fe565b9050919050565b6000602082019050818103600083015261392b81613564565b9050919050565b6000602082019050818103600083015261394b816135ca565b9050919050565b60006020820190506139676000830184613619565b92915050565b60006040820190506139826000830185613619565b61398f6020830184613619565b9392505050565b6000604051905081810181811067ffffffffffffffff821117156139bd576139bc613f59565b5b8060405250919050565b600067ffffffffffffffff8211156139e2576139e1613f59565b5b602082029050602081019050919050565b600067ffffffffffffffff821115613a0e57613a0d613f59565b5b602082029050602081019050919050565b600067ffffffffffffffff821115613a3a57613a39613f59565b5b601f19601f8301169050602081019050919050565b6000819050602082019050919050565b600081519050919050565b600081519050919050565b600081519050919050565b6000602082019050919050565b600082825260208201905092915050565b600082825260208201905092915050565b600082825260208201905092915050565b6000613acb82613db0565b9150613ad683613db0565b9250827fffffffffffffffffffffffffffffffffffffffffffffffffffffffffffffffff03821115613b0b57613b0a613ecc565b5b828201905092915050565b6000613b2182613db0565b9150613b2c83613db0565b925082613b3c57613b3b613efb565b5b828204905092915050565b6000808291508390505b6001851115613b9157808604811115613b6d57613b6c613ecc565b5b6001851615613b7c5780820291505b8081029050613b8a85613f99565b9450613b51565b94509492505050565b6000613ba582613db0565b9150613bb083613db0565b9250613bdd7fffffffffffffffffffffffffffffffffffffffffffffffffffffffffffffffff8484613be5565b905092915050565b600082613bf55760019050613cb1565b81613c035760009050613cb1565b8160018114613c195760028114613c2357613c52565b6001915050613cb1565b60ff841115613c3557613c34613ecc565b5b8360020a915084821115613c4c57613c4b613ecc565b5b50613cb1565b5060208310610133831016604e8410600b8410161715613c875782820a905083811115613c8257613c81613ecc565b5b613cb1565b613c948484846001613b47565b92509050818404811115613cab57613caa613ecc565b5b81810290505b9392505050565b6000613cc382613db0565b9150613cce83613db0565b9250817fffffffffffffffffffffffffffffffffffffffffffffffffffffffffffffffff0483118215151615613d0757613d06613ecc565b5b828202905092915050565b6000613d1d82613db0565b9150613d2883613db0565b925082821015613d3b57613d3a613ecc565b5b828203905092915050565b6000613d5182613d90565b9050919050565b60008115159050919050565b60007fffffffff0000000000000000000000000000000000000000000000000000000082169050919050565b600073ffffffffffffffffffffffffffffffffffffffff82169050919050565b6000819050919050565b6000613dc582613dcc565b9050919050565b6000613dd782613d90565b9050919050565b82818337600083830152505050565b60005b83811015613e0b578082015181840152602081019050613df0565b83811115613e1a576000848401525b50505050565b60006002820490506001821680613e3857607f821691505b60208210811415613e4c57613e4b613f2a565b5b50919050565b6000613e5d82613db0565b91507fffffffffffffffffffffffffffffffffffffffffffffffffffffffffffffffff821415613e9057613e8f613ecc565b5b600182019050919050565b6000613ea682613db0565b9150613eb183613db0565b925082613ec157613ec0613efb565b5b828206905092915050565b7f4e487b7100000000000000000000000000000000000000000000000000000000600052601160045260246000fd5b7f4e487b7100000000000000000000000000000000000000000000000000000000600052601260045260246000fd5b7f4e487b7100000000000000000000000000000000000000000000000000000000600052602260045260246000fd5b7f4e487b7100000000000000000000000000000000000000000000000000000000600052604160045260246000fd5b6000601f19601f8301169050919050565b60008160011c9050919050565b60008160e01c9050919050565b600060443d1015613fc357614066565b60046000803e613fd4600051613fa6565b6308c379a08114613fe55750614066565b60405160043d036004823e80513d602482011167ffffffffffffffff8211171561401157505050614066565b808201805167ffffffffffffffff811115614030575050505050614066565b8060208301013d850181111561404b57505050505050614066565b61405482613f88565b60208401016040528296505050505050505b90565b61407281613d46565b811461407d57600080fd5b50565b61408981613d58565b811461409457600080fd5b50565b6140a081613d64565b81146140ab57600080fd5b50565b6140b781613db0565b81146140c257600080fd5b5056fe000000000000000100000000000000020000000000000004000000000000000800000000000000100000000000000020000000000000004000000000000000800000000000000100000000000000020000000000000004000000000000000800000000000000100000000000000020000000000000004000000000000000800000000000000100000000000000020000000000000004000000000000000800000000000000100000000000000020000000000000004000000000000000800000000000000100000000000000020000000000000004000000000000000800000000000000100000000000000020000000000000004000000000000000800000000000000100000000000000020000000000000004000000000000000800000000000000100000000000000020000000000000004000000000000000800000000000000100000000000000020000000000000004000000000000000800000000000000100000000000000020000000000000004000000000000000800000000000000100000000000000020000000000000004000000000000000800000000000000100000000000000020000000000000004000000000000000800000000000000100000000000000020000000000000004000000000000000800000000000000100000000000000020000000000000000de0b6b3a76400000de0b6b3a76400010de0b6b3a76400020de0b6b3a76400050de0b6b3a764000b0de0b6b3a76400160de0b6b3a764002c0de0b6b3a76400580de0b6b3a76400b10de0b6b3a76401620de0b6b3a76402c50de0b6b3a764058b0de0b6b3a7640b170de0b6b3a764162e0de0b6b3a7642c5c0de0b6b3a76458b90de0b6b3a764b1720de0b6b3a76562e40de0b6b3a766c5c80de0b6b3a7698b900de0b6b3a76f17210de0b6b3a77a2e420de0b6b3a7905c850de0b6b3a7bcb90b0de0b6b3a81572170de0b6b3a8c6e42f0de0b6b3aa29c85f0de0b6b3acef90bf0de0b6b3b27b217f0de0b6b3bd9242ff0de0b6b3d3c085fe0de0b6b4001d0bfd0de0b6b458d617fc0de0b6b50a4830010de0b6b66d2c60260de0b6b932f4c0da0de0b6bebe8583eb0de0b6c9d5a710b30de0b6e003ea44db0de0b70c607117840de0b765198066410de0b8168ba5a9640de0b979700ac64c0de0bc3f393f5ab50de0c1cacd51ee520de0cce1fc1cc3c60de0e3107449406e0de10f6dcefe47050de1682a2ddebc000de219a991aadb930de37cc2f2fcb7380de6436028ee3a220debd244c555d3b40df6f6b9dbcc5f410e0d5a6c6ea8a8410e3a8dbbd2b7e9d50e96aa5bb87c13840f55ef96062919dd10f25db82c317ea514b1c2442ffabe3c1edbf25de7a70f72449e9dd02d2817d4a26469706673582212208f085d2577f6899b0f413176ee5ac80ca39a8ae2f242ea5be87c5c594282240c64736f6c63430008000033",
  "linkReferences": {},
  "deployedLinkReferences": {}
}