{
  "_format": "hh-sol-artifact-1",
  "contractName": "Blocks",
  "sourceName": "hardhat/contracts/Blocks.sol",
  "abi": [
    {
      "inputs": [
        {
          "internalType": "uint256",
          "name": "N",
          "type": "uint256"
        },
        {
          "internalType": "uint256",
          "name": "b",
          "type": "uint256"
        },
        {
          "internalType": "uint256",
          "name": "d",
          "type": "uint256"
        },
        {
          "internalType": "address",
          "name": "USDC",
          "type": "address"
        }
      ],
      "stateMutability": "nonpayable",
      "type": "constructor"
    },
    {
      "anonymous": false,
      "inputs": [
        {
          "indexed": true,
          "internalType": "address",
          "name": "account",
          "type": "address"
        },
        {
          "indexed": true,
          "internalType": "address",
          "name": "operator",
          "type": "address"
        },
        {
          "indexed": false,
          "internalType": "bool",
          "name": "approved",
          "type": "bool"
        }
      ],
      "name": "ApprovalForAll",
      "type": "event"
    },
    {
      "anonymous": false,
      "inputs": [
        {
          "indexed": true,
          "internalType": "address",
          "name": "operator",
          "type": "address"
        },
        {
          "indexed": true,
          "internalType": "address",
          "name": "from",
          "type": "address"
        },
        {
          "indexed": true,
          "internalType": "address",
          "name": "to",
          "type": "address"
        },
        {
          "indexed": false,
          "internalType": "uint256[]",
          "name": "ids",
          "type": "uint256[]"
        },
        {
          "indexed": false,
          "internalType": "uint256[]",
          "name": "values",
          "type": "uint256[]"
        }
      ],
      "name": "TransferBatch",
      "type": "event"
    },
    {
      "anonymous": false,
      "inputs": [
        {
          "indexed": true,
          "internalType": "address",
          "name": "operator",
          "type": "address"
        },
        {
          "indexed": true,
          "internalType": "address",
          "name": "from",
          "type": "address"
        },
        {
          "indexed": true,
          "internalType": "address",
          "name": "to",
          "type": "address"
        },
        {
          "indexed": false,
          "internalType": "uint256",
          "name": "id",
          "type": "uint256"
        },
        {
          "indexed": false,
          "internalType": "uint256",
          "name": "value",
          "type": "uint256"
        }
      ],
      "name": "TransferSingle",
      "type": "event"
    },
    {
      "anonymous": false,
      "inputs": [
        {
          "indexed": false,
          "internalType": "string",
          "name": "value",
          "type": "string"
        },
        {
          "indexed": true,
          "internalType": "uint256",
          "name": "id",
          "type": "uint256"
        }
      ],
      "name": "URI",
      "type": "event"
    },
    {
      "inputs": [],
      "name": "_N",
      "outputs": [
        {
          "internalType": "uint256",
          "name": "",
          "type": "uint256"
        }
      ],
      "stateMutability": "view",
      "type": "function"
    },
    {
      "inputs": [],
      "name": "_b",
      "outputs": [
        {
          "internalType": "uint256",
          "name": "",
          "type": "uint256"
        }
      ],
      "stateMutability": "view",
      "type": "function"
    },
    {
      "inputs": [],
      "name": "_delta",
      "outputs": [
        {
          "internalType": "uint256",
          "name": "",
          "type": "uint256"
        }
      ],
      "stateMutability": "view",
      "type": "function"
    },
    {
      "inputs": [],
      "name": "_earnings",
      "outputs": [
        {
          "internalType": "uint256",
          "name": "",
          "type": "uint256"
        }
      ],
      "stateMutability": "view",
      "type": "function"
    },
    {
      "inputs": [
        {
          "internalType": "uint256",
          "name": "",
          "type": "uint256"
        }
      ],
      "name": "_quantities",
      "outputs": [
        {
          "internalType": "uint256",
          "name": "",
          "type": "uint256"
        }
      ],
      "stateMutability": "view",
      "type": "function"
    },
    {
      "inputs": [],
      "name": "_total_sold",
      "outputs": [
        {
          "internalType": "uint256",
          "name": "",
          "type": "uint256"
        }
      ],
      "stateMutability": "view",
      "type": "function"
    },
    {
      "inputs": [],
      "name": "_total_weight",
      "outputs": [
        {
          "internalType": "uint256",
          "name": "",
          "type": "uint256"
        }
      ],
      "stateMutability": "view",
      "type": "function"
    },
    {
      "inputs": [],
      "name": "_value",
      "outputs": [
        {
          "internalType": "uint256",
          "name": "",
          "type": "uint256"
        }
      ],
      "stateMutability": "view",
      "type": "function"
    },
    {
      "inputs": [
        {
          "internalType": "uint256",
          "name": "",
          "type": "uint256"
        }
      ],
      "name": "_weights",
      "outputs": [
        {
          "internalType": "uint256",
          "name": "",
          "type": "uint256"
        }
      ],
      "stateMutability": "view",
      "type": "function"
    },
    {
      "inputs": [
        {
          "internalType": "address",
          "name": "account",
          "type": "address"
        },
        {
          "internalType": "uint256",
          "name": "id",
          "type": "uint256"
        }
      ],
      "name": "balanceOf",
      "outputs": [
        {
          "internalType": "uint256",
          "name": "",
          "type": "uint256"
        }
      ],
      "stateMutability": "view",
      "type": "function"
    },
    {
      "inputs": [
        {
          "internalType": "address[]",
          "name": "accounts",
          "type": "address[]"
        },
        {
          "internalType": "uint256[]",
          "name": "ids",
          "type": "uint256[]"
        }
      ],
      "name": "balanceOfBatch",
      "outputs": [
        {
          "internalType": "uint256[]",
          "name": "",
          "type": "uint256[]"
        }
      ],
      "stateMutability": "view",
      "type": "function"
    },
    {
      "inputs": [
        {
          "internalType": "uint256",
          "name": "bucket",
          "type": "uint256"
        },
        {
          "internalType": "uint256",
          "name": "amount",
          "type": "uint256"
        }
      ],
      "name": "fakePurchase",
      "outputs": [],
      "stateMutability": "nonpayable",
      "type": "function"
    },
    {
      "inputs": [
        {
          "internalType": "uint256",
          "name": "bucket",
          "type": "uint256"
        }
      ],
      "name": "getBucketPrice",
      "outputs": [
        {
          "internalType": "uint256",
          "name": "",
          "type": "uint256"
        }
      ],
      "stateMutability": "view",
      "type": "function"
    },
    {
      "inputs": [
        {
          "internalType": "uint256",
          "name": "bucket",
          "type": "uint256"
        },
        {
          "internalType": "uint256",
          "name": "price",
          "type": "uint256"
        }
      ],
      "name": "getRequiredAmount",
      "outputs": [
        {
          "internalType": "uint256",
          "name": "",
          "type": "uint256"
        }
      ],
      "stateMutability": "view",
      "type": "function"
    },
    {
      "inputs": [
        {
          "internalType": "address",
          "name": "account",
          "type": "address"
        },
        {
          "internalType": "address",
          "name": "operator",
          "type": "address"
        }
      ],
      "name": "isApprovedForAll",
      "outputs": [
        {
          "internalType": "bool",
          "name": "",
          "type": "bool"
        }
      ],
      "stateMutability": "view",
      "type": "function"
    },
    {
      "inputs": [
        {
          "internalType": "uint256",
          "name": "bucket",
          "type": "uint256"
        },
        {
          "internalType": "uint256",
          "name": "amount",
          "type": "uint256"
        }
      ],
      "name": "purchase",
      "outputs": [],
      "stateMutability": "nonpayable",
      "type": "function"
    },
    {
      "inputs": [
        {
          "internalType": "uint256[]",
          "name": "buckets",
          "type": "uint256[]"
        },
        {
          "internalType": "uint256[]",
          "name": "amounts",
          "type": "uint256[]"
        }
      ],
      "name": "purchaseBatch",
      "outputs": [],
      "stateMutability": "nonpayable",
      "type": "function"
    },
    {
      "inputs": [
        {
          "internalType": "uint256",
          "name": "bucket",
          "type": "uint256"
        },
        {
          "internalType": "uint256",
          "name": "amount",
          "type": "uint256"
        }
      ],
      "name": "purchaseLeftSlope",
      "outputs": [],
      "stateMutability": "nonpayable",
      "type": "function"
    },
    {
      "inputs": [
        {
          "internalType": "uint256",
          "name": "start",
          "type": "uint256"
        },
        {
          "internalType": "uint256",
          "name": "end",
          "type": "uint256"
        },
        {
          "internalType": "uint256",
          "name": "amount",
          "type": "uint256"
        }
      ],
      "name": "purchaseRange",
      "outputs": [],
      "stateMutability": "nonpayable",
      "type": "function"
    },
    {
      "inputs": [
        {
          "internalType": "address",
          "name": "from",
          "type": "address"
        },
        {
          "internalType": "address",
          "name": "to",
          "type": "address"
        },
        {
          "internalType": "uint256[]",
          "name": "ids",
          "type": "uint256[]"
        },
        {
          "internalType": "uint256[]",
          "name": "amounts",
          "type": "uint256[]"
        },
        {
          "internalType": "bytes",
          "name": "data",
          "type": "bytes"
        }
      ],
      "name": "safeBatchTransferFrom",
      "outputs": [],
      "stateMutability": "nonpayable",
      "type": "function"
    },
    {
      "inputs": [
        {
          "internalType": "address",
          "name": "from",
          "type": "address"
        },
        {
          "internalType": "address",
          "name": "to",
          "type": "address"
        },
        {
          "internalType": "uint256",
          "name": "id",
          "type": "uint256"
        },
        {
          "internalType": "uint256",
          "name": "amount",
          "type": "uint256"
        },
        {
          "internalType": "bytes",
          "name": "data",
          "type": "bytes"
        }
      ],
      "name": "safeTransferFrom",
      "outputs": [],
      "stateMutability": "nonpayable",
      "type": "function"
    },
    {
      "inputs": [
        {
          "internalType": "address",
          "name": "operator",
          "type": "address"
        },
        {
          "internalType": "bool",
          "name": "approved",
          "type": "bool"
        }
      ],
      "name": "setApprovalForAll",
      "outputs": [],
      "stateMutability": "nonpayable",
      "type": "function"
    },
    {
      "inputs": [
        {
          "internalType": "bytes4",
          "name": "interfaceId",
          "type": "bytes4"
        }
      ],
      "name": "supportsInterface",
      "outputs": [
        {
          "internalType": "bool",
          "name": "",
          "type": "bool"
        }
      ],
      "stateMutability": "view",
      "type": "function"
    },
    {
      "inputs": [
        {
          "internalType": "uint256",
          "name": "",
          "type": "uint256"
        }
      ],
      "name": "uri",
      "outputs": [
        {
          "internalType": "string",
          "name": "",
          "type": "string"
        }
      ],
      "stateMutability": "view",
      "type": "function"
    }
  ],
  "bytecode": "0x60806040523480156200001157600080fd5b50604051620057e7380380620057e7833981810160405281019062000037919062000581565b6040518060400160405280600481526020017f6e6f6e65000000000000000000000000000000000000000000000000000000008152506200007e81620001d960201b60201c565b5060008411620000c5576040517f08c379a0000000000000000000000000000000000000000000000000000000008152600401620000bc9062000743565b60405180910390fd5b836005819055506000831162000112576040517f08c379a00000000000000000000000000000000000000000000000000000000081526004016200010990620006ff565b60405180910390fd5b826008819055506012600a62000129919062000866565b600554620001389190620009a3565b6006819055506012600a6200014e919062000866565b62000166600654620001f560201b6200220a1760201c565b600854620001759190620009a3565b620001819190620007d3565b60098190555081600b8190555080600d60006101000a81548173ffffffffffffffffffffffffffffffffffffffff021916908373ffffffffffffffffffffffffffffffffffffffff1602179055505050505062000b46565b8060029080519060200190620001f1929190620004a3565b5050565b6000806012600a62000208919062000866565b83620002159190620007d3565b9050600081116200025d576040517f08c379a0000000000000000000000000000000000000000000000000000000008152600401620002549062000721565b60405180910390fd5b600070010000000000000000000000000000000082106200029157608082901c91506080816200028e919062000776565b90505b680100000000000000008210620002bb57604082901c9150604081620002b8919062000776565b90505b6401000000008210620002e157602082901c9150602081620002de919062000776565b90505b6201000082106200030557601082901c915060108162000302919062000776565b90505b61010082106200032857600882901c915060088162000325919062000776565b90505b601082106200034a57600482901c915060048162000347919062000776565b90505b600482106200036c57600282901c915060028162000369919062000776565b90505b60028210620003875760018162000384919062000776565b90505b6012600a62000397919062000866565b81620003a49190620009a3565b90506012600a620003b6919062000866565b81620003c39190620007d3565b6002620003d1919062000866565b84620003de9190620007d3565b91506000806012600a620003f3919062000866565b90505b60008111156200048a576012600a62000410919062000866565b60026200041e9190620009a3565b84106200044757808262000433919062000776565b9150600284620004449190620007d3565b93505b6012600a62000457919062000866565b8485620004659190620009a3565b620004719190620007d3565b9350600281620004829190620007d3565b9050620003f6565b50818162000499919062000776565b9350505050919050565b828054620004b19062000a42565b90600052602060002090601f016020900481019282620004d5576000855562000521565b82601f10620004f057805160ff191683800117855562000521565b8280016001018555821562000521579182015b828111156200052057825182559160200191906001019062000503565b5b50905062000530919062000534565b5090565b5b808211156200054f57600081600090555060010162000535565b5090565b600081519050620005648162000b12565b92915050565b6000815190506200057b8162000b2c565b92915050565b600080600080608085870312156200059857600080fd5b6000620005a8878288016200056a565b9450506020620005bb878288016200056a565b9350506040620005ce878288016200056a565b9250506060620005e18782880162000553565b91505092959194509250565b6000620005fc60218362000765565b91507f636f6e7374727563746f723a20622073686f756c6420626520706f736974697660008301527f65000000000000000000000000000000000000000000000000000000000000006020830152604082019050919050565b600062000664601c8362000765565b91507f6c6f6761726974686d3a206f706572616e6420746f6f20736d616c6c000000006000830152602082019050919050565b6000620006a660218362000765565b91507f636f6e7374727563746f723a204e2073686f756c6420626520706f736974697660008301527f65000000000000000000000000000000000000000000000000000000000000006020830152604082019050919050565b600060208201905081810360008301526200071a81620005ed565b9050919050565b600060208201905081810360008301526200073c8162000655565b9050919050565b600060208201905081810360008301526200075e8162000697565b9050919050565b600082825260208201905092915050565b6000620007838262000a38565b9150620007908362000a38565b9250827fffffffffffffffffffffffffffffffffffffffffffffffffffffffffffffffff03821115620007c857620007c762000a78565b5b828201905092915050565b6000620007e08262000a38565b9150620007ed8362000a38565b9250826200080057620007ff62000aa7565b5b828204905092915050565b6000808291508390505b60018511156200085d5780860481111562000835576200083462000a78565b5b6001851615620008455780820291505b8081029050620008558562000b05565b945062000815565b94509492505050565b6000620008738262000a38565b9150620008808362000a38565b9250620008af7fffffffffffffffffffffffffffffffffffffffffffffffffffffffffffffffff8484620008b7565b905092915050565b600082620008c957600190506200099c565b81620008d957600090506200099c565b8160018114620008f25760028114620008fd5762000933565b60019150506200099c565b60ff84111562000912576200091162000a78565b5b8360020a9150848211156200092c576200092b62000a78565b5b506200099c565b5060208310610133831016604e8410600b84101617156200096d5782820a90508381111562000967576200096662000a78565b5b6200099c565b6200097c84848460016200080b565b9250905081840481111562000996576200099562000a78565b5b81810290505b9392505050565b6000620009b08262000a38565b9150620009bd8362000a38565b9250817fffffffffffffffffffffffffffffffffffffffffffffffffffffffffffffffff0483118215151615620009f957620009f862000a78565b5b828202905092915050565b600062000a118262000a18565b9050919050565b600073ffffffffffffffffffffffffffffffffffffffff82169050919050565b6000819050919050565b6000600282049050600182168062000a5b57607f821691505b6020821081141562000a725762000a7162000ad6565b5b50919050565b7f4e487b7100000000000000000000000000000000000000000000000000000000600052601160045260246000fd5b7f4e487b7100000000000000000000000000000000000000000000000000000000600052601260045260246000fd5b7f4e487b7100000000000000000000000000000000000000000000000000000000600052602260045260246000fd5b60008160011c9050919050565b62000b1d8162000a04565b811462000b2957600080fd5b50565b62000b378162000a38565b811462000b4357600080fd5b50565b614c918062000b566000396000f3fe608060405234801561001057600080fd5b50600436106101575760003560e01c80636a6e48a4116100c3578063c901de1a1161007c578063c901de1a146103da578063de6f56c6146103f6578063e985e9c514610426578063f242432a14610456578063f3f03a6114610472578063f49ed061146104a257610157565b80636a6e48a41461031a5780636d88fae81461034a57806370876c9814610366578063a22cb46514610382578063b895c74a1461039e578063c6e3a9b3146103bc57610157565b80632537499611610115578063253749961461024457806325f5eb81146102625780632eb2c2d61461028057806346c82b2c1461029c5780634e1273f4146102cc5780635655bb20146102fc57610157565b8062fdd58e1461015c57806301ffc9a71461018c5780630e89341c146101bc5780631a797d90146101ec5780631ade9391146102085780631ee4cac814610226575b600080fd5b61017660048036038101906101719190613506565b6104be565b6040516101839190614104565b60405180910390f35b6101a660048036038101906101a19190613643565b610587565b6040516101b39190613f07565b60405180910390f35b6101d660048036038101906101d19190613695565b610669565b6040516101e39190613f22565b60405180910390f35b610206600480360381019061020191906136be565b6106fd565b005b610210610b65565b60405161021d9190614104565b60405180910390f35b61022e610b6b565b60405161023b9190614104565b60405180910390f35b61024c610b71565b6040516102599190614104565b60405180910390f35b61026a610b77565b6040516102779190614104565b60405180910390f35b61029a6004803603810190610295919061337c565b610b7d565b005b6102b660048036038101906102b19190613695565b610f73565b6040516102c39190614104565b60405180910390f35b6102e660048036038101906102e19190613542565b610f8b565b6040516102f39190613eae565b60405180910390f35b61030461113c565b6040516103119190614104565b60405180910390f35b610334600480360381019061032f91906136be565b611142565b6040516103419190614104565b60405180910390f35b610364600480360381019061035f91906136fa565b6112af565b005b610380600480360381019061037b91906136be565b611703565b005b61039c600480360381019061039791906134ca565b611956565b005b6103a6611ad7565b6040516103b39190614104565b60405180910390f35b6103c4611add565b6040516103d19190614104565b60405180910390f35b6103f460048036038101906103ef91906135ae565b611ae3565b005b610410600480360381019061040b9190613695565b611dcd565b60405161041d9190614104565b60405180910390f35b610440600480360381019061043b9190613340565b611e27565b60405161044d9190613f07565b60405180910390f35b610470600480360381019061046b919061343b565b611ebb565b005b61048c60048036038101906104879190613695565b6121d3565b6040516104999190614104565b60405180910390f35b6104bc60048036038101906104b791906136be565b6121eb565b005b60008073ffffffffffffffffffffffffffffffffffffffff168373ffffffffffffffffffffffffffffffffffffffff16141561052f576040517f08c379a000000000000000000000000000000000000000000000000000000000815260040161052690613f84565b60405180910390fd5b60008083815260200190815260200160002060008473ffffffffffffffffffffffffffffffffffffffff1673ffffffffffffffffffffffffffffffffffffffff16815260200190815260200160002054905092915050565b60007fd9b67a26000000000000000000000000000000000000000000000000000000007bffffffffffffffffffffffffffffffffffffffffffffffffffffffff1916827bffffffffffffffffffffffffffffffffffffffffffffffffffffffff1916148061065257507f0e89341c000000000000000000000000000000000000000000000000000000007bffffffffffffffffffffffffffffffffffffffffffffffffffffffff1916827bffffffffffffffffffffffffffffffffffffffffffffffffffffffff1916145b80610662575061066182612476565b5b9050919050565b606060028054610678906145ae565b80601f01602080910402602001604051908101604052809291908181526020018280546106a4906145ae565b80156106f15780601f106106c6576101008083540402835291602001916106f1565b820191906000526020600020905b8154815290600101906020018083116106d457829003601f168201915b50505050509050919050565b600061073860085484610710919061446a565b6012600a61071e919061434c565b84610729919061446a565b61073391906142c8565b6124e0565b9050600081905060008467ffffffffffffffff811115610781577f4e487b7100000000000000000000000000000000000000000000000000000000600052604160045260246000fd5b6040519080825280602002602001820160405280156107af5781602001602082028036833780820191505090505b50905060008567ffffffffffffffff8111156107f4577f4e487b7100000000000000000000000000000000000000000000000000000000600052604160045260246000fd5b6040519080825280602002602001820160405280156108225781602001602082028036833780820191505090505b509050600080878761083491906142c8565b90506000819050600089905060005b8a8110156109fa5760018261085891906144c4565b915060006012600a61086a919061434c565b60036000858152602001908152602001600020546108889190614272565b905060006012600a61089a919061434c565b8a836108a6919061446a565b6108b091906142c8565b905081816108be91906144c4565b876108c99190614272565b96506012600a6108d9919061434c565b816108e491906144c4565b60036000868152602001908152602001600020819055508460046000868152602001908152602001600020600082825461091e9190614272565b925050819055508389858151811061095f577f4e487b7100000000000000000000000000000000000000000000000000000000600052603260045260246000fd5b602002602001018181525050848885815181106109a5577f4e487b7100000000000000000000000000000000000000000000000000000000600052603260045260246000fd5b6020026020010181815250506012600a6109bf919061434c565b8b8b6109cb919061446a565b6109d591906142c8565b995085856109e39190614272565b9450505080806109f2906145e0565b915050610843565b508360066000828254610a0d9190614272565b9250508190555060006012600a610a24919061434c565b610a2f60065461220a565b600854610a3c919061446a565b610a4691906142c8565b9050600060095482610a5891906144c4565b90508160098190555080600a6000828254610a739190614272565b92505081905550600d60009054906101000a900473ffffffffffffffffffffffffffffffffffffffff1673ffffffffffffffffffffffffffffffffffffffff166323b872dd333064e8d4a5100085610acb91906142c8565b6040518463ffffffff1660e01b8152600401610ae993929190613e1d565b602060405180830381600087803b158015610b0357600080fd5b505af1158015610b17573d6000803e3d6000fd5b505050506040513d601f19601f82011682018060405250810190610b3b919061361a565b50610b57338989604051806020016040528060008152506125b7565b505050505050505050505050565b600a5481565b600b5481565b60085481565b60065481565b8151835114610bc1576040517f08c379a0000000000000000000000000000000000000000000000000000000008152600401610bb8906140a4565b60405180910390fd5b600073ffffffffffffffffffffffffffffffffffffffff168473ffffffffffffffffffffffffffffffffffffffff161415610c31576040517f08c379a0000000000000000000000000000000000000000000000000000000008152600401610c2890613fc4565b60405180910390fd5b610c39612821565b73ffffffffffffffffffffffffffffffffffffffff168573ffffffffffffffffffffffffffffffffffffffff161480610c7f5750610c7e85610c79612821565b611e27565b5b610cbe576040517f08c379a0000000000000000000000000000000000000000000000000000000008152600401610cb590613fe4565b60405180910390fd5b6000610cc8612821565b9050610cd8818787878787612829565b60005b8451811015610ede576000858281518110610d1f577f4e487b7100000000000000000000000000000000000000000000000000000000600052603260045260246000fd5b602002602001015190506000858381518110610d64577f4e487b7100000000000000000000000000000000000000000000000000000000600052603260045260246000fd5b60200260200101519050600080600084815260200190815260200160002060008b73ffffffffffffffffffffffffffffffffffffffff1673ffffffffffffffffffffffffffffffffffffffff16815260200190815260200160002054905081811015610e05576040517f08c379a0000000000000000000000000000000000000000000000000000000008152600401610dfc90614024565b60405180910390fd5b8181610e1191906144c4565b60008085815260200190815260200160002060008c73ffffffffffffffffffffffffffffffffffffffff1673ffffffffffffffffffffffffffffffffffffffff168152602001908152602001600020819055508160008085815260200190815260200160002060008b73ffffffffffffffffffffffffffffffffffffffff1673ffffffffffffffffffffffffffffffffffffffff1681526020019081526020016000206000828254610ec39190614272565b9250508190555050505080610ed7906145e0565b9050610cdb565b508473ffffffffffffffffffffffffffffffffffffffff168673ffffffffffffffffffffffffffffffffffffffff168273ffffffffffffffffffffffffffffffffffffffff167f4a39dc06d4c0dbc64b70af90fd698a233a518aa5d07e595d983b8c0526c8f7fb8787604051610f55929190613ed0565b60405180910390a4610f6b818787878787612831565b505050505050565b60046020528060005260406000206000915090505481565b60608151835114610fd1576040517f08c379a0000000000000000000000000000000000000000000000000000000008152600401610fc890614084565b60405180910390fd5b6000835167ffffffffffffffff811115611014577f4e487b7100000000000000000000000000000000000000000000000000000000600052604160045260246000fd5b6040519080825280602002602001820160405280156110425781602001602082028036833780820191505090505b50905060005b8451811015611131576110db85828151811061108d577f4e487b7100000000000000000000000000000000000000000000000000000000600052603260045260246000fd5b60200260200101518583815181106110ce577f4e487b7100000000000000000000000000000000000000000000000000000000600052603260045260246000fd5b60200260200101516104be565b828281518110611114577f4e487b7100000000000000000000000000000000000000000000000000000000600052603260045260246000fd5b6020026020010181815250508061112a906145e0565b9050611048565b508091505092915050565b60055481565b60006012600a611152919061434c565b8210611193576040517f08c379a000000000000000000000000000000000000000000000000000000000815260040161118a90614004565b60405180910390fd5b61119c83611dcd565b82116111dd576040517f08c379a00000000000000000000000000000000000000000000000000000000081526004016111d490614044565b60405180910390fd5b61129a826012600a6111ef919061434c565b6111f991906144c4565b6012600a611207919061434c565b60036000878152602001908152602001600020546112259190614272565b61122f919061446a565b6012600a61123d919061434c565b846012600a61124c919061434c565b600360008981526020019081526020016000205460065461126d91906144c4565b61127791906144c4565b611281919061446a565b61128b919061446a565b61129591906142c8565b61220a565b6008546112a7919061446a565b905092915050565b60006112df6008546012600a6112c5919061434c565b846112d0919061446a565b6112da91906142c8565b6124e0565b9050600084846112ef91906144c4565b90508385106112fd57600080fd5b60055484111561130c57600080fd5b60008167ffffffffffffffff81111561134e577f4e487b7100000000000000000000000000000000000000000000000000000000600052604160045260246000fd5b60405190808252806020026020018201604052801561137c5781602001602082028036833780820191505090505b50905060008267ffffffffffffffff8111156113c1577f4e487b7100000000000000000000000000000000000000000000000000000000600052604160045260246000fd5b6040519080825280602002602001820160405280156113ef5781602001602082028036833780820191505090505b509050600080600090505b8481101561159a5760006012600a611412919061434c565b60036000848d6114229190614272565b81526020019081526020016000205461143b9190614272565b905060006012600a61144d919061434c565b8883611459919061446a565b61146391906142c8565b9050818161147191906144c4565b8461147c9190614272565b93506012600a61148c919061434c565b8161149791906144c4565b60036000858e6114a79190614272565b8152602001908152602001600020819055508860046000858e6114ca9190614272565b815260200190815260200160002060008282546114e79190614272565b92505081905550828b6114fa9190614272565b868481518110611533577f4e487b7100000000000000000000000000000000000000000000000000000000600052603260045260246000fd5b60200260200101818152505088858481518110611579577f4e487b7100000000000000000000000000000000000000000000000000000000600052603260045260246000fd5b60200260200101818152505050508080611592906145e0565b9150506113fa565b5080600660008282546115ad9190614272565b9250508190555060006012600a6115c4919061434c565b6115cf60065461220a565b6008546115dc919061446a565b6115e691906142c8565b90506000600954826115f891906144c4565b90508160098190555080600a60008282546116139190614272565b92505081905550600d60009054906101000a900473ffffffffffffffffffffffffffffffffffffffff1673ffffffffffffffffffffffffffffffffffffffff166323b872dd333064e8d4a510008561166b91906142c8565b6040518463ffffffff1660e01b815260040161168993929190613e1d565b602060405180830381600087803b1580156116a357600080fd5b505af11580156116b7573d6000803e3d6000fd5b505050506040513d601f19601f820116820180604052508101906116db919061361a565b506116f7338686604051806020016040528060008152506125b7565b50505050505050505050565b60006117336008546012600a611719919061434c565b84611724919061446a565b61172e91906142c8565b6124e0565b905060006012600a611745919061434c565b60036000868152602001908152602001600020546117639190614272565b905060006012600a611775919061434c565b8383611781919061446a565b61178b91906142c8565b90506000818360065461179e91906144c4565b6117a89190614272565b905060006012600a6117ba919061434c565b6117c38361220a565b6008546117d0919061446a565b6117da91906142c8565b90506000600954826117ec91906144c4565b9050826006819055506012600a611803919061434c565b8461180e91906144c4565b600360008a81526020019081526020016000208190555086600460008a815260200190815260200160002060008282546118489190614272565b9250508190555080600a60008282546118619190614272565b9250508190555081600981905550600d60009054906101000a900473ffffffffffffffffffffffffffffffffffffffff1673ffffffffffffffffffffffffffffffffffffffff166323b872dd333064e8d4a51000856118c091906142c8565b6040518463ffffffff1660e01b81526004016118de93929190613e1d565b602060405180830381600087803b1580156118f857600080fd5b505af115801561190c573d6000803e3d6000fd5b505050506040513d601f19601f82011682018060405250810190611930919061361a565b5061194c33898960405180602001604052806000815250612a01565b5050505050505050565b8173ffffffffffffffffffffffffffffffffffffffff16611975612821565b73ffffffffffffffffffffffffffffffffffffffff1614156119cc576040517f08c379a00000000000000000000000000000000000000000000000000000000081526004016119c390614064565b60405180910390fd5b80600160006119d9612821565b73ffffffffffffffffffffffffffffffffffffffff1673ffffffffffffffffffffffffffffffffffffffff16815260200190815260200160002060008473ffffffffffffffffffffffffffffffffffffffff1673ffffffffffffffffffffffffffffffffffffffff16815260200190815260200160002060006101000a81548160ff0219169083151502179055508173ffffffffffffffffffffffffffffffffffffffff16611a86612821565b73ffffffffffffffffffffffffffffffffffffffff167f17307eab39ab6107e8899845ad3d59bd9653f200f220920489ca2b5937696c3183604051611acb9190613f07565b60405180910390a35050565b60095481565b60075481565b8051825114611af157600080fd5b6000600654905060005b8351811015611d57576000611b746008546012600a611b1a919061434c565b868581518110611b53577f4e487b7100000000000000000000000000000000000000000000000000000000600052603260045260246000fd5b6020026020010151611b65919061446a565b611b6f91906142c8565b612b97565b905060006012600a611b86919061434c565b60036000888681518110611bc3577f4e487b7100000000000000000000000000000000000000000000000000000000600052603260045260246000fd5b6020026020010151815260200190815260200160002054611be49190614272565b905060006012600a611bf6919061434c565b8383611c02919061446a565b611c0c91906142c8565b9050808286611c1b91906144c4565b611c259190614272565b94506012600a611c35919061434c565b81611c4091906144c4565b60036000898781518110611c7d577f4e487b7100000000000000000000000000000000000000000000000000000000600052603260045260246000fd5b6020026020010151815260200190815260200160002081905550858481518110611cd0577f4e487b7100000000000000000000000000000000000000000000000000000000600052603260045260246000fd5b602002602001015160046000898781518110611d15577f4e487b7100000000000000000000000000000000000000000000000000000000600052603260045260246000fd5b602002602001015181526020019081526020016000206000828254611d3a9190614272565b925050819055505050508080611d4f906145e0565b915050611afb565b506000611d638261220a565b600854611d70919061446a565b9050600060095482611d8291906144c4565b90508260068190555080600a6000828254611d9d9190614272565b9250508190555081600981905550611dc6338686604051806020016040528060008152506125b7565b5050505050565b60006006546012600a611de0919061434c565b6012600a611dee919061434c565b6003600086815260200190815260200160002054611e0c9190614272565b611e16919061446a565b611e2091906142c8565b9050919050565b6000600160008473ffffffffffffffffffffffffffffffffffffffff1673ffffffffffffffffffffffffffffffffffffffff16815260200190815260200160002060008373ffffffffffffffffffffffffffffffffffffffff1673ffffffffffffffffffffffffffffffffffffffff16815260200190815260200160002060009054906101000a900460ff16905092915050565b600073ffffffffffffffffffffffffffffffffffffffff168473ffffffffffffffffffffffffffffffffffffffff161415611f2b576040517f08c379a0000000000000000000000000000000000000000000000000000000008152600401611f2290613fc4565b60405180910390fd5b611f33612821565b73ffffffffffffffffffffffffffffffffffffffff168573ffffffffffffffffffffffffffffffffffffffff161480611f795750611f7885611f73612821565b611e27565b5b611fb8576040517f08c379a0000000000000000000000000000000000000000000000000000000008152600401611faf90613fa4565b60405180910390fd5b6000611fc2612821565b9050611fe2818787611fd388612d15565b611fdc88612d15565b87612829565b600080600086815260200190815260200160002060008873ffffffffffffffffffffffffffffffffffffffff1673ffffffffffffffffffffffffffffffffffffffff16815260200190815260200160002054905083811015612079576040517f08c379a000000000000000000000000000000000000000000000000000000000815260040161207090614024565b60405180910390fd5b838161208591906144c4565b60008087815260200190815260200160002060008973ffffffffffffffffffffffffffffffffffffffff1673ffffffffffffffffffffffffffffffffffffffff168152602001908152602001600020819055508360008087815260200190815260200160002060008873ffffffffffffffffffffffffffffffffffffffff1673ffffffffffffffffffffffffffffffffffffffff16815260200190815260200160002060008282546121379190614272565b925050819055508573ffffffffffffffffffffffffffffffffffffffff168773ffffffffffffffffffffffffffffffffffffffff168373ffffffffffffffffffffffffffffffffffffffff167fc3d58168c5ae7397731d063d5bbf3d657854427343f4c083240f7aacaa2d0f6288886040516121b492919061411f565b60405180910390a46121ca828888888888612ddb565b50505050505050565b60036020528060005260406000206000915090505481565b61220633838360405180602001604052806000815250612a01565b5050565b6000806012600a61221b919061434c565b8361222691906142c8565b90506000811161226b576040517f08c379a0000000000000000000000000000000000000000000000000000000008152600401612262906140e4565b60405180910390fd5b6000700100000000000000000000000000000000821061229c57608082901c91506080816122999190614272565b90505b6801000000000000000082106122c357604082901c91506040816122c09190614272565b90505b64010000000082106122e657602082901c91506020816122e39190614272565b90505b62010000821061230757601082901c91506010816123049190614272565b90505b610100821061232757600882901c91506008816123249190614272565b90505b6010821061234657600482901c91506004816123439190614272565b90505b6004821061236557600282901c91506002816123629190614272565b90505b6002821061237d5760018161237a9190614272565b90505b6012600a61238b919061434c565b81612396919061446a565b90506012600a6123a6919061434c565b816123b191906142c8565b60026123bd919061434c565b846123c891906142c8565b91506000806012600a6123db919061434c565b90505b600081111561245f576012600a6123f5919061434c565b6002612401919061446a565b84106124255780826124139190614272565b915060028461242291906142c8565b93505b6012600a612433919061434c565b848561243f919061446a565b61244991906142c8565b935060028161245891906142c8565b90506123de565b50818161246c9190614272565b9350505050919050565b60007f01ffc9a7000000000000000000000000000000000000000000000000000000007bffffffffffffffffffffffffffffffffffffffffffffffffffffffff1916827bffffffffffffffffffffffffffffffffffffffffffffffffffffffff1916149050919050565b6000806012600a6124f1919061434c565b836124fc91906142c8565b905060006012600a61250e919061434c565b846125199190614629565b9050600082600261252a919061434c565b905060006012600a61253c919061434c565b905060005b603e81101561259f5760008461255683612fab565b16111561258c576012600a61256b919061434c565b61257482613006565b8361257f919061446a565b61258991906142c8565b91505b8080612597906145e0565b915050612541565b5080826125ac919061446a565b945050505050919050565b600073ffffffffffffffffffffffffffffffffffffffff168473ffffffffffffffffffffffffffffffffffffffff161415612627576040517f08c379a000000000000000000000000000000000000000000000000000000000815260040161261e906140c4565b60405180910390fd5b815183511461266b576040517f08c379a0000000000000000000000000000000000000000000000000000000008152600401612662906140a4565b60405180910390fd5b6000612675612821565b905061268681600087878787612829565b60005b845181101561278b578381815181106126cb577f4e487b7100000000000000000000000000000000000000000000000000000000600052603260045260246000fd5b602002602001015160008087848151811061270f577f4e487b7100000000000000000000000000000000000000000000000000000000600052603260045260246000fd5b6020026020010151815260200190815260200160002060008873ffffffffffffffffffffffffffffffffffffffff1673ffffffffffffffffffffffffffffffffffffffff16815260200190815260200160002060008282546127719190614272565b925050819055508080612783906145e0565b915050612689565b508473ffffffffffffffffffffffffffffffffffffffff16600073ffffffffffffffffffffffffffffffffffffffff168273ffffffffffffffffffffffffffffffffffffffff167f4a39dc06d4c0dbc64b70af90fd698a233a518aa5d07e595d983b8c0526c8f7fb8787604051612803929190613ed0565b60405180910390a461281a81600087878787612831565b5050505050565b600033905090565b505050505050565b6128508473ffffffffffffffffffffffffffffffffffffffff16613061565b156129f9578373ffffffffffffffffffffffffffffffffffffffff1663bc197c8187878686866040518663ffffffff1660e01b8152600401612896959493929190613db5565b602060405180830381600087803b1580156128b057600080fd5b505af19250505080156128e157506040513d601f19601f820116820180604052508101906128de919061366c565b60015b612970576128ed614741565b806128f85750612935565b806040517f08c379a000000000000000000000000000000000000000000000000000000000815260040161292c9190613f22565b60405180910390fd5b6040517f08c379a000000000000000000000000000000000000000000000000000000000815260040161296790613f44565b60405180910390fd5b63bc197c8160e01b7bffffffffffffffffffffffffffffffffffffffffffffffffffffffff1916817bffffffffffffffffffffffffffffffffffffffffffffffffffffffff1916146129f7576040517f08c379a00000000000000000000000000000000000000000000000000000000081526004016129ee90613f64565b60405180910390fd5b505b505050505050565b600073ffffffffffffffffffffffffffffffffffffffff168473ffffffffffffffffffffffffffffffffffffffff161415612a71576040517f08c379a0000000000000000000000000000000000000000000000000000000008152600401612a68906140c4565b60405180910390fd5b6000612a7b612821565b9050612a9c81600087612a8d88612d15565b612a9688612d15565b87612829565b8260008086815260200190815260200160002060008773ffffffffffffffffffffffffffffffffffffffff1673ffffffffffffffffffffffffffffffffffffffff1681526020019081526020016000206000828254612afb9190614272565b925050819055508473ffffffffffffffffffffffffffffffffffffffff16600073ffffffffffffffffffffffffffffffffffffffff168273ffffffffffffffffffffffffffffffffffffffff167fc3d58168c5ae7397731d063d5bbf3d657854427343f4c083240f7aacaa2d0f628787604051612b7992919061411f565b60405180910390a4612b9081600087878787612ddb565b5050505050565b6000806012600a612ba8919061434c565b905060006012600a612bba919061434c565b9050600080600090505b6005811015612cdb576000612bd882613074565b90506012600a612be8919061434c565b612bfe88600185612bf99190614272565b6130cc565b82612c09919061446a565b612c1391906142c8565b85612c1e9190614272565b94506000600283612c2f9190614629565b1415612c80576012600a612c43919061434c565b612c5988600185612c549190614272565b6130cc565b82612c64919061446a565b612c6e91906142c8565b83612c799190614272565b9250612cc7565b6012600a612c8e919061434c565b612ca488600185612c9f9190614272565b6130cc565b82612caf919061446a565b612cb991906142c8565b84612cc49190614272565b93505b508080612cd3906145e0565b915050612bc4565b508082612ce891906144c4565b6012600a612cf6919061434c565b84612d01919061446a565b612d0b91906142c8565b9350505050919050565b60606000600167ffffffffffffffff811115612d5a577f4e487b7100000000000000000000000000000000000000000000000000000000600052604160045260246000fd5b604051908082528060200260200182016040528015612d885781602001602082028036833780820191505090505b5090508281600081518110612dc6577f4e487b7100000000000000000000000000000000000000000000000000000000600052603260045260246000fd5b60200260200101818152505080915050919050565b612dfa8473ffffffffffffffffffffffffffffffffffffffff16613061565b15612fa3578373ffffffffffffffffffffffffffffffffffffffff1663f23a6e6187878686866040518663ffffffff1660e01b8152600401612e40959493929190613e54565b602060405180830381600087803b158015612e5a57600080fd5b505af1925050508015612e8b57506040513d601f19601f82011682018060405250810190612e88919061366c565b60015b612f1a57612e97614741565b80612ea25750612edf565b806040517f08c379a0000000000000000000000000000000000000000000000000000000008152600401612ed69190613f22565b60405180910390fd5b6040517f08c379a0000000000000000000000000000000000000000000000000000000008152600401612f1190613f44565b60405180910390fd5b63f23a6e6160e01b7bffffffffffffffffffffffffffffffffffffffffffffffffffffffff1916817bffffffffffffffffffffffffffffffffffffffffffffffffffffffff191614612fa1576040517f08c379a0000000000000000000000000000000000000000000000000000000008152600401612f9890613f64565b60405180910390fd5b505b505050505050565b6000806040518061022001604052806101f081526020016148546101f09139905060006008846008612fdd919061446a565b612fe79190614272565b905060008183015190508067ffffffffffffffff169350505050919050565b6000806040518061022001604052806101f08152602001614a6c6101f09139905060006008846008613038919061446a565b6130429190614272565b905060008183015190508067ffffffffffffffff169350505050919050565b600080823b905060008111915050919050565b600080604051806060016040528060288152602001614a44602891399050600060088460086130a3919061446a565b6130ad9190614272565b905060008183015190508067ffffffffffffffff169350505050919050565b6000806012600a6130dd919061434c565b905060005b83811015613123576012600a6130f8919061434c565b8583613104919061446a565b61310e91906142c8565b9150808061311b906145e0565b9150506130e2565b508091505092915050565b600061314161313c84614179565b614148565b9050808382526020820190508285602086028201111561316057600080fd5b60005b8581101561319057816131768882613244565b845260208401935060208301925050600181019050613163565b5050509392505050565b60006131ad6131a8846141a5565b614148565b905080838252602082019050828560208602820111156131cc57600080fd5b60005b858110156131fc57816131e2888261332b565b8452602084019350602083019250506001810190506131cf565b5050509392505050565b6000613219613214846141d1565b614148565b90508281526020810184848401111561323157600080fd5b61323c84828561456c565b509392505050565b600081359050613253816147f7565b92915050565b600082601f83011261326a57600080fd5b813561327a84826020860161312e565b91505092915050565b600082601f83011261329457600080fd5b81356132a484826020860161319a565b91505092915050565b6000813590506132bc8161480e565b92915050565b6000815190506132d18161480e565b92915050565b6000813590506132e681614825565b92915050565b6000815190506132fb81614825565b92915050565b600082601f83011261331257600080fd5b8135613322848260208601613206565b91505092915050565b60008135905061333a8161483c565b92915050565b6000806040838503121561335357600080fd5b600061336185828601613244565b925050602061337285828601613244565b9150509250929050565b600080600080600060a0868803121561339457600080fd5b60006133a288828901613244565b95505060206133b388828901613244565b945050604086013567ffffffffffffffff8111156133d057600080fd5b6133dc88828901613283565b935050606086013567ffffffffffffffff8111156133f957600080fd5b61340588828901613283565b925050608086013567ffffffffffffffff81111561342257600080fd5b61342e88828901613301565b9150509295509295909350565b600080600080600060a0868803121561345357600080fd5b600061346188828901613244565b955050602061347288828901613244565b94505060406134838882890161332b565b93505060606134948882890161332b565b925050608086013567ffffffffffffffff8111156134b157600080fd5b6134bd88828901613301565b9150509295509295909350565b600080604083850312156134dd57600080fd5b60006134eb85828601613244565b92505060206134fc858286016132ad565b9150509250929050565b6000806040838503121561351957600080fd5b600061352785828601613244565b92505060206135388582860161332b565b9150509250929050565b6000806040838503121561355557600080fd5b600083013567ffffffffffffffff81111561356f57600080fd5b61357b85828601613259565b925050602083013567ffffffffffffffff81111561359857600080fd5b6135a485828601613283565b9150509250929050565b600080604083850312156135c157600080fd5b600083013567ffffffffffffffff8111156135db57600080fd5b6135e785828601613283565b925050602083013567ffffffffffffffff81111561360457600080fd5b61361085828601613283565b9150509250929050565b60006020828403121561362c57600080fd5b600061363a848285016132c2565b91505092915050565b60006020828403121561365557600080fd5b6000613663848285016132d7565b91505092915050565b60006020828403121561367e57600080fd5b600061368c848285016132ec565b91505092915050565b6000602082840312156136a757600080fd5b60006136b58482850161332b565b91505092915050565b600080604083850312156136d157600080fd5b60006136df8582860161332b565b92505060206136f08582860161332b565b9150509250929050565b60008060006060848603121561370f57600080fd5b600061371d8682870161332b565b935050602061372e8682870161332b565b925050604061373f8682870161332b565b9150509250925092565b60006137558383613d97565b60208301905092915050565b61376a816144f8565b82525050565b600061377b82614211565b613785818561423f565b935061379083614201565b8060005b838110156137c15781516137a88882613749565b97506137b383614232565b925050600181019050613794565b5085935050505092915050565b6137d78161450a565b82525050565b60006137e88261421c565b6137f28185614250565b935061380281856020860161457b565b61380b81614716565b840191505092915050565b600061382182614227565b61382b8185614261565b935061383b81856020860161457b565b61384481614716565b840191505092915050565b600061385c603483614261565b91507f455243313135353a207472616e7366657220746f206e6f6e204552433131353560008301527f526563656976657220696d706c656d656e7465720000000000000000000000006020830152604082019050919050565b60006138c2602883614261565b91507f455243313135353a204552433131353552656365697665722072656a6563746560008301527f6420746f6b656e730000000000000000000000000000000000000000000000006020830152604082019050919050565b6000613928602b83614261565b91507f455243313135353a2062616c616e636520717565727920666f7220746865207a60008301527f65726f20616464726573730000000000000000000000000000000000000000006020830152604082019050919050565b600061398e602983614261565b91507f455243313135353a2063616c6c6572206973206e6f74206f776e6572206e6f7260008301527f20617070726f76656400000000000000000000000000000000000000000000006020830152604082019050919050565b60006139f4602583614261565b91507f455243313135353a207472616e7366657220746f20746865207a65726f20616460008301527f64726573730000000000000000000000000000000000000000000000000000006020830152604082019050919050565b6000613a5a603283614261565b91507f455243313135353a207472616e736665722063616c6c6572206973206e6f742060008301527f6f776e6572206e6f7220617070726f76656400000000000000000000000000006020830152604082019050919050565b6000613ac0602183614261565b91507f6765745265717569726564416d6f756e743a20707269636520746f6f2068696760008301527f68000000000000000000000000000000000000000000000000000000000000006020830152604082019050919050565b6000613b26602a83614261565b91507f455243313135353a20696e73756666696369656e742062616c616e636520666f60008301527f72207472616e73666572000000000000000000000000000000000000000000006020830152604082019050919050565b6000613b8c602083614261565b91507f6765745265717569726564416d6f756e743a20707269636520746f6f206c6f776000830152602082019050919050565b6000613bcc602983614261565b91507f455243313135353a2073657474696e6720617070726f76616c2073746174757360008301527f20666f722073656c6600000000000000000000000000000000000000000000006020830152604082019050919050565b6000613c32602983614261565b91507f455243313135353a206163636f756e747320616e6420696473206c656e67746860008301527f206d69736d6174636800000000000000000000000000000000000000000000006020830152604082019050919050565b6000613c98602883614261565b91507f455243313135353a2069647320616e6420616d6f756e7473206c656e6774682060008301527f6d69736d617463680000000000000000000000000000000000000000000000006020830152604082019050919050565b6000613cfe602183614261565b91507f455243313135353a206d696e7420746f20746865207a65726f2061646472657360008301527f73000000000000000000000000000000000000000000000000000000000000006020830152604082019050919050565b6000613d64601c83614261565b91507f6c6f6761726974686d3a206f706572616e6420746f6f20736d616c6c000000006000830152602082019050919050565b613da081614562565b82525050565b613daf81614562565b82525050565b600060a082019050613dca6000830188613761565b613dd76020830187613761565b8181036040830152613de98186613770565b90508181036060830152613dfd8185613770565b90508181036080830152613e1181846137dd565b90509695505050505050565b6000606082019050613e326000830186613761565b613e3f6020830185613761565b613e4c6040830184613da6565b949350505050565b600060a082019050613e696000830188613761565b613e766020830187613761565b613e836040830186613da6565b613e906060830185613da6565b8181036080830152613ea281846137dd565b90509695505050505050565b60006020820190508181036000830152613ec88184613770565b905092915050565b60006040820190508181036000830152613eea8185613770565b90508181036020830152613efe8184613770565b90509392505050565b6000602082019050613f1c60008301846137ce565b92915050565b60006020820190508181036000830152613f3c8184613816565b905092915050565b60006020820190508181036000830152613f5d8161384f565b9050919050565b60006020820190508181036000830152613f7d816138b5565b9050919050565b60006020820190508181036000830152613f9d8161391b565b9050919050565b60006020820190508181036000830152613fbd81613981565b9050919050565b60006020820190508181036000830152613fdd816139e7565b9050919050565b60006020820190508181036000830152613ffd81613a4d565b9050919050565b6000602082019050818103600083015261401d81613ab3565b9050919050565b6000602082019050818103600083015261403d81613b19565b9050919050565b6000602082019050818103600083015261405d81613b7f565b9050919050565b6000602082019050818103600083015261407d81613bbf565b9050919050565b6000602082019050818103600083015261409d81613c25565b9050919050565b600060208201905081810360008301526140bd81613c8b565b9050919050565b600060208201905081810360008301526140dd81613cf1565b9050919050565b600060208201905081810360008301526140fd81613d57565b9050919050565b60006020820190506141196000830184613da6565b92915050565b60006040820190506141346000830185613da6565b6141416020830184613da6565b9392505050565b6000604051905081810181811067ffffffffffffffff8211171561416f5761416e6146e7565b5b8060405250919050565b600067ffffffffffffffff821115614194576141936146e7565b5b602082029050602081019050919050565b600067ffffffffffffffff8211156141c0576141bf6146e7565b5b602082029050602081019050919050565b600067ffffffffffffffff8211156141ec576141eb6146e7565b5b601f19601f8301169050602081019050919050565b6000819050602082019050919050565b600081519050919050565b600081519050919050565b600081519050919050565b6000602082019050919050565b600082825260208201905092915050565b600082825260208201905092915050565b600082825260208201905092915050565b600061427d82614562565b915061428883614562565b9250827fffffffffffffffffffffffffffffffffffffffffffffffffffffffffffffffff038211156142bd576142bc61465a565b5b828201905092915050565b60006142d382614562565b91506142de83614562565b9250826142ee576142ed614689565b5b828204905092915050565b6000808291508390505b60018511156143435780860481111561431f5761431e61465a565b5b600185161561432e5780820291505b808102905061433c85614727565b9450614303565b94509492505050565b600061435782614562565b915061436283614562565b925061438f7fffffffffffffffffffffffffffffffffffffffffffffffffffffffffffffffff8484614397565b905092915050565b6000826143a75760019050614463565b816143b55760009050614463565b81600181146143cb57600281146143d557614404565b6001915050614463565b60ff8411156143e7576143e661465a565b5b8360020a9150848211156143fe576143fd61465a565b5b50614463565b5060208310610133831016604e8410600b84101617156144395782820a9050838111156144345761443361465a565b5b614463565b61444684848460016142f9565b9250905081840481111561445d5761445c61465a565b5b81810290505b9392505050565b600061447582614562565b915061448083614562565b9250817fffffffffffffffffffffffffffffffffffffffffffffffffffffffffffffffff04831182151516156144b9576144b861465a565b5b828202905092915050565b60006144cf82614562565b91506144da83614562565b9250828210156144ed576144ec61465a565b5b828203905092915050565b600061450382614542565b9050919050565b60008115159050919050565b60007fffffffff0000000000000000000000000000000000000000000000000000000082169050919050565b600073ffffffffffffffffffffffffffffffffffffffff82169050919050565b6000819050919050565b82818337600083830152505050565b60005b8381101561459957808201518184015260208101905061457e565b838111156145a8576000848401525b50505050565b600060028204905060018216806145c657607f821691505b602082108114156145da576145d96146b8565b5b50919050565b60006145eb82614562565b91507fffffffffffffffffffffffffffffffffffffffffffffffffffffffffffffffff82141561461e5761461d61465a565b5b600182019050919050565b600061463482614562565b915061463f83614562565b92508261464f5761464e614689565b5b828206905092915050565b7f4e487b7100000000000000000000000000000000000000000000000000000000600052601160045260246000fd5b7f4e487b7100000000000000000000000000000000000000000000000000000000600052601260045260246000fd5b7f4e487b7100000000000000000000000000000000000000000000000000000000600052602260045260246000fd5b7f4e487b7100000000000000000000000000000000000000000000000000000000600052604160045260246000fd5b6000601f19601f8301169050919050565b60008160011c9050919050565b60008160e01c9050919050565b600060443d1015614751576147f4565b60046000803e614762600051614734565b6308c379a0811461477357506147f4565b60405160043d036004823e80513d602482011167ffffffffffffffff8211171561479f575050506147f4565b808201805167ffffffffffffffff8111156147be5750505050506147f4565b8060208301013d85018111156147d9575050505050506147f4565b6147e282614716565b60208401016040528296505050505050505b90565b614800816144f8565b811461480b57600080fd5b50565b6148178161450a565b811461482257600080fd5b50565b61482e81614516565b811461483957600080fd5b50565b61484581614562565b811461485057600080fd5b5056fe0000000000000001000000000000000200000000000000040000000000000008000000000000001000000000000000200000000000000040000000000000008000000000000001000000000000000200000000000000040000000000000008000000000000001000000000000000200000000000000040000000000000008000000000000001000000000000000200000000000000040000000000000008000000000000001000000000000000200000000000000040000000000000008000000000000001000000000000000200000000000000040000000000000008000000000000001000000000000000200000000000000040000000000000008000000000000001000000000000000200000000000000040000000000000008000000000000001000000000000000200000000000000040000000000000008000000000000001000000000000000200000000000000040000000000000008000000000000001000000000000000200000000000000040000000000000008000000000000001000000000000000200000000000000040000000000000008000000000000001000000000000000200000000000000040000000000000008000000000000001000000000000000200000000000000040000000000000008000000000000001000000000000000200000000000000006f05b59d3b20000018abef7846071c0003157def08c0e3800038646c80a010400001e136d11666f0de0b6b3a76400000de0b6b3a76400010de0b6b3a76400020de0b6b3a76400050de0b6b3a764000b0de0b6b3a76400160de0b6b3a764002c0de0b6b3a76400580de0b6b3a76400b10de0b6b3a76401620de0b6b3a76402c50de0b6b3a764058b0de0b6b3a7640b170de0b6b3a764162e0de0b6b3a7642c5c0de0b6b3a76458b90de0b6b3a764b1720de0b6b3a76562e40de0b6b3a766c5c80de0b6b3a7698b900de0b6b3a76f17210de0b6b3a77a2e420de0b6b3a7905c850de0b6b3a7bcb90b0de0b6b3a81572170de0b6b3a8c6e42f0de0b6b3aa29c85f0de0b6b3acef90bf0de0b6b3b27b217f0de0b6b3bd9242ff0de0b6b3d3c085fe0de0b6b4001d0bfd0de0b6b458d617fc0de0b6b50a4830010de0b6b66d2c60260de0b6b932f4c0da0de0b6bebe8583eb0de0b6c9d5a710b30de0b6e003ea44db0de0b70c607117840de0b765198066410de0b8168ba5a9640de0b979700ac64c0de0bc3f393f5ab50de0c1cacd51ee520de0cce1fc1cc3c60de0e3107449406e0de10f6dcefe47050de1682a2ddebc000de219a991aadb930de37cc2f2fcb7380de6436028ee3a220debd244c555d3b40df6f6b9dbcc5f410e0d5a6c6ea8a8410e3a8dbbd2b7e9d50e96aa5bb87c13840f55ef96062919dd10f25db82c317ea514b1c2442ffabe3c1edbf25de7a70f72449e9dd02d2817d4a264697066735822122054238587fcf312d8326ec9af3886ce786e7129abd78ec685af4ec0df960aeca764736f6c63430008000033",
  "linkReferences": {},
  "deployedLinkReferences": {}
}