{
  "_format": "hh-sol-artifact-1",
  "contractName": "Blocks",
  "sourceName": "hardhat/contracts/Blocks.sol",
  "abi": [
    {
      "inputs": [
        {
          "internalType": "uint256",
          "name": "N",
          "type": "uint256"
        },
        {
          "internalType": "uint256",
          "name": "b",
          "type": "uint256"
        }
      ],
      "stateMutability": "nonpayable",
      "type": "constructor"
    },
    {
      "anonymous": false,
      "inputs": [
        {
          "indexed": true,
          "internalType": "address",
          "name": "account",
          "type": "address"
        },
        {
          "indexed": true,
          "internalType": "address",
          "name": "operator",
          "type": "address"
        },
        {
          "indexed": false,
          "internalType": "bool",
          "name": "approved",
          "type": "bool"
        }
      ],
      "name": "ApprovalForAll",
      "type": "event"
    },
    {
      "anonymous": false,
      "inputs": [
        {
          "indexed": true,
          "internalType": "address",
          "name": "operator",
          "type": "address"
        },
        {
          "indexed": true,
          "internalType": "address",
          "name": "from",
          "type": "address"
        },
        {
          "indexed": true,
          "internalType": "address",
          "name": "to",
          "type": "address"
        },
        {
          "indexed": false,
          "internalType": "uint256[]",
          "name": "ids",
          "type": "uint256[]"
        },
        {
          "indexed": false,
          "internalType": "uint256[]",
          "name": "values",
          "type": "uint256[]"
        }
      ],
      "name": "TransferBatch",
      "type": "event"
    },
    {
      "anonymous": false,
      "inputs": [
        {
          "indexed": true,
          "internalType": "address",
          "name": "operator",
          "type": "address"
        },
        {
          "indexed": true,
          "internalType": "address",
          "name": "from",
          "type": "address"
        },
        {
          "indexed": true,
          "internalType": "address",
          "name": "to",
          "type": "address"
        },
        {
          "indexed": false,
          "internalType": "uint256",
          "name": "id",
          "type": "uint256"
        },
        {
          "indexed": false,
          "internalType": "uint256",
          "name": "value",
          "type": "uint256"
        }
      ],
      "name": "TransferSingle",
      "type": "event"
    },
    {
      "anonymous": false,
      "inputs": [
        {
          "indexed": false,
          "internalType": "string",
          "name": "value",
          "type": "string"
        },
        {
          "indexed": true,
          "internalType": "uint256",
          "name": "id",
          "type": "uint256"
        }
      ],
      "name": "URI",
      "type": "event"
    },
    {
      "inputs": [],
      "name": "_N",
      "outputs": [
        {
          "internalType": "uint256",
          "name": "",
          "type": "uint256"
        }
      ],
      "stateMutability": "view",
      "type": "function"
    },
    {
      "inputs": [],
      "name": "_b",
      "outputs": [
        {
          "internalType": "uint256",
          "name": "",
          "type": "uint256"
        }
      ],
      "stateMutability": "view",
      "type": "function"
    },
    {
      "inputs": [],
      "name": "_earnings",
      "outputs": [
        {
          "internalType": "uint256",
          "name": "",
          "type": "uint256"
        }
      ],
      "stateMutability": "view",
      "type": "function"
    },
    {
      "inputs": [
        {
          "internalType": "uint256",
          "name": "",
          "type": "uint256"
        }
      ],
      "name": "_quantities",
      "outputs": [
        {
          "internalType": "uint256",
          "name": "",
          "type": "uint256"
        }
      ],
      "stateMutability": "view",
      "type": "function"
    },
    {
      "inputs": [],
      "name": "_total_sold",
      "outputs": [
        {
          "internalType": "uint256",
          "name": "",
          "type": "uint256"
        }
      ],
      "stateMutability": "view",
      "type": "function"
    },
    {
      "inputs": [],
      "name": "_total_weight",
      "outputs": [
        {
          "internalType": "uint256",
          "name": "",
          "type": "uint256"
        }
      ],
      "stateMutability": "view",
      "type": "function"
    },
    {
      "inputs": [],
      "name": "_value",
      "outputs": [
        {
          "internalType": "uint256",
          "name": "",
          "type": "uint256"
        }
      ],
      "stateMutability": "view",
      "type": "function"
    },
    {
      "inputs": [
        {
          "internalType": "uint256",
          "name": "",
          "type": "uint256"
        }
      ],
      "name": "_weights",
      "outputs": [
        {
          "internalType": "uint256",
          "name": "",
          "type": "uint256"
        }
      ],
      "stateMutability": "view",
      "type": "function"
    },
    {
      "inputs": [
        {
          "internalType": "address",
          "name": "account",
          "type": "address"
        },
        {
          "internalType": "uint256",
          "name": "id",
          "type": "uint256"
        }
      ],
      "name": "balanceOf",
      "outputs": [
        {
          "internalType": "uint256",
          "name": "",
          "type": "uint256"
        }
      ],
      "stateMutability": "view",
      "type": "function"
    },
    {
      "inputs": [
        {
          "internalType": "address[]",
          "name": "accounts",
          "type": "address[]"
        },
        {
          "internalType": "uint256[]",
          "name": "ids",
          "type": "uint256[]"
        }
      ],
      "name": "balanceOfBatch",
      "outputs": [
        {
          "internalType": "uint256[]",
          "name": "",
          "type": "uint256[]"
        }
      ],
      "stateMutability": "view",
      "type": "function"
    },
    {
      "inputs": [
        {
          "internalType": "uint256",
          "name": "bucket",
          "type": "uint256"
        },
        {
          "internalType": "uint256",
          "name": "amount",
          "type": "uint256"
        }
      ],
      "name": "fakePurchase",
      "outputs": [],
      "stateMutability": "nonpayable",
      "type": "function"
    },
    {
      "inputs": [
        {
          "internalType": "uint256",
          "name": "bucket",
          "type": "uint256"
        }
      ],
      "name": "getBucketPrice",
      "outputs": [
        {
          "internalType": "uint256",
          "name": "",
          "type": "uint256"
        }
      ],
      "stateMutability": "view",
      "type": "function"
    },
    {
      "inputs": [
        {
          "internalType": "uint256",
          "name": "bucket",
          "type": "uint256"
        },
        {
          "internalType": "uint256",
          "name": "price",
          "type": "uint256"
        }
      ],
      "name": "getRequiredAmount",
      "outputs": [
        {
          "internalType": "uint256",
          "name": "",
          "type": "uint256"
        }
      ],
      "stateMutability": "view",
      "type": "function"
    },
    {
      "inputs": [
        {
          "internalType": "address",
          "name": "account",
          "type": "address"
        },
        {
          "internalType": "address",
          "name": "operator",
          "type": "address"
        }
      ],
      "name": "isApprovedForAll",
      "outputs": [
        {
          "internalType": "bool",
          "name": "",
          "type": "bool"
        }
      ],
      "stateMutability": "view",
      "type": "function"
    },
    {
      "inputs": [
        {
          "internalType": "uint256",
          "name": "bucket",
          "type": "uint256"
        },
        {
          "internalType": "uint256",
          "name": "amount",
          "type": "uint256"
        }
      ],
      "name": "purchase",
      "outputs": [],
      "stateMutability": "nonpayable",
      "type": "function"
    },
    {
      "inputs": [
        {
          "internalType": "address",
          "name": "from",
          "type": "address"
        },
        {
          "internalType": "address",
          "name": "to",
          "type": "address"
        },
        {
          "internalType": "uint256[]",
          "name": "ids",
          "type": "uint256[]"
        },
        {
          "internalType": "uint256[]",
          "name": "amounts",
          "type": "uint256[]"
        },
        {
          "internalType": "bytes",
          "name": "data",
          "type": "bytes"
        }
      ],
      "name": "safeBatchTransferFrom",
      "outputs": [],
      "stateMutability": "nonpayable",
      "type": "function"
    },
    {
      "inputs": [
        {
          "internalType": "address",
          "name": "from",
          "type": "address"
        },
        {
          "internalType": "address",
          "name": "to",
          "type": "address"
        },
        {
          "internalType": "uint256",
          "name": "id",
          "type": "uint256"
        },
        {
          "internalType": "uint256",
          "name": "amount",
          "type": "uint256"
        },
        {
          "internalType": "bytes",
          "name": "data",
          "type": "bytes"
        }
      ],
      "name": "safeTransferFrom",
      "outputs": [],
      "stateMutability": "nonpayable",
      "type": "function"
    },
    {
      "inputs": [
        {
          "internalType": "address",
          "name": "operator",
          "type": "address"
        },
        {
          "internalType": "bool",
          "name": "approved",
          "type": "bool"
        }
      ],
      "name": "setApprovalForAll",
      "outputs": [],
      "stateMutability": "nonpayable",
      "type": "function"
    },
    {
      "inputs": [
        {
          "internalType": "bytes4",
          "name": "interfaceId",
          "type": "bytes4"
        }
      ],
      "name": "supportsInterface",
      "outputs": [
        {
          "internalType": "bool",
          "name": "",
          "type": "bool"
        }
      ],
      "stateMutability": "view",
      "type": "function"
    },
    {
      "inputs": [
        {
          "internalType": "uint256",
          "name": "",
          "type": "uint256"
        }
      ],
      "name": "uri",
      "outputs": [
        {
          "internalType": "string",
          "name": "",
          "type": "string"
        }
      ],
      "stateMutability": "view",
      "type": "function"
    }
  ],
  "bytecode": "0x60806040523480156200001157600080fd5b50604051620043cc380380620043cc833981810160405281019062000037919062000504565b6040518060400160405280600481526020017f6e6f6e65000000000000000000000000000000000000000000000000000000008152506200007e816200017360201b60201c565b5060008211620000c5576040517f08c379a0000000000000000000000000000000000000000000000000000000008152600401620000bc906200069b565b60405180910390fd5b816005819055506000811162000112576040517f08c379a0000000000000000000000000000000000000000000000000000000008152600401620001099062000657565b60405180910390fd5b806008819055506012600a620001299190620007be565b600554620001389190620008fb565b600681905550620001566006546200018f60201b620014df1760201c565b600854620001659190620008fb565b600981905550505062000a50565b80600290805190602001906200018b9291906200043d565b5050565b6000806012600a620001a29190620007be565b83620001af91906200072b565b905060008111620001f7576040517f08c379a0000000000000000000000000000000000000000000000000000000008152600401620001ee9062000679565b60405180910390fd5b600070010000000000000000000000000000000082106200022b57608082901c9150608081620002289190620006ce565b90505b6801000000000000000082106200025557604082901c9150604081620002529190620006ce565b90505b64010000000082106200027b57602082901c9150602081620002789190620006ce565b90505b6201000082106200029f57601082901c91506010816200029c9190620006ce565b90505b6101008210620002c257600882901c9150600881620002bf9190620006ce565b90505b60108210620002e457600482901c9150600481620002e19190620006ce565b90505b600482106200030657600282901c9150600281620003039190620006ce565b90505b6002821062000321576001816200031e9190620006ce565b90505b6012600a620003319190620007be565b816200033e9190620008fb565b90506012600a620003509190620007be565b816200035d91906200072b565b60026200036b9190620007be565b846200037891906200072b565b91506000806012600a6200038d9190620007be565b90505b600081111562000424576012600a620003aa9190620007be565b6002620003b89190620008fb565b8410620003e1578082620003cd9190620006ce565b9150600284620003de91906200072b565b93505b6012600a620003f19190620007be565b8485620003ff9190620008fb565b6200040b91906200072b565b93506002816200041c91906200072b565b905062000390565b508181620004339190620006ce565b9350505050919050565b8280546200044b9062000966565b90600052602060002090601f0160209004810192826200046f5760008555620004bb565b82601f106200048a57805160ff1916838001178555620004bb565b82800160010185558215620004bb579182015b82811115620004ba5782518255916020019190600101906200049d565b5b509050620004ca9190620004ce565b5090565b5b80821115620004e9576000816000905550600101620004cf565b5090565b600081519050620004fe8162000a36565b92915050565b600080604083850312156200051857600080fd5b60006200052885828601620004ed565b92505060206200053b85828601620004ed565b9150509250929050565b600062000554602183620006bd565b91507f636f6e7374727563746f723a20622073686f756c6420626520706f736974697660008301527f65000000000000000000000000000000000000000000000000000000000000006020830152604082019050919050565b6000620005bc601c83620006bd565b91507f6c6f6761726974686d3a206f706572616e6420746f6f20736d616c6c000000006000830152602082019050919050565b6000620005fe602183620006bd565b91507f636f6e7374727563746f723a204e2073686f756c6420626520706f736974697660008301527f65000000000000000000000000000000000000000000000000000000000000006020830152604082019050919050565b60006020820190508181036000830152620006728162000545565b9050919050565b600060208201905081810360008301526200069481620005ad565b9050919050565b60006020820190508181036000830152620006b681620005ef565b9050919050565b600082825260208201905092915050565b6000620006db826200095c565b9150620006e8836200095c565b9250827fffffffffffffffffffffffffffffffffffffffffffffffffffffffffffffffff0382111562000720576200071f6200099c565b5b828201905092915050565b600062000738826200095c565b915062000745836200095c565b925082620007585762000757620009cb565b5b828204905092915050565b6000808291508390505b6001851115620007b5578086048111156200078d576200078c6200099c565b5b60018516156200079d5780820291505b8081029050620007ad8562000a29565b94506200076d565b94509492505050565b6000620007cb826200095c565b9150620007d8836200095c565b9250620008077fffffffffffffffffffffffffffffffffffffffffffffffffffffffffffffffff84846200080f565b905092915050565b600082620008215760019050620008f4565b81620008315760009050620008f4565b81600181146200084a576002811462000855576200088b565b6001915050620008f4565b60ff8411156200086a57620008696200099c565b5b8360020a9150848211156200088457620008836200099c565b5b50620008f4565b5060208310610133831016604e8410600b8410161715620008c55782820a905083811115620008bf57620008be6200099c565b5b620008f4565b620008d4848484600162000763565b92509050818404811115620008ee57620008ed6200099c565b5b81810290505b9392505050565b600062000908826200095c565b915062000915836200095c565b9250817fffffffffffffffffffffffffffffffffffffffffffffffffffffffffffffffff04831182151516156200095157620009506200099c565b5b828202905092915050565b6000819050919050565b600060028204905060018216806200097f57607f821691505b60208210811415620009965762000995620009fa565b5b50919050565b7f4e487b7100000000000000000000000000000000000000000000000000000000600052601160045260246000fd5b7f4e487b7100000000000000000000000000000000000000000000000000000000600052601260045260246000fd5b7f4e487b7100000000000000000000000000000000000000000000000000000000600052602260045260246000fd5b60008160011c9050919050565b62000a41816200095c565b811462000a4d57600080fd5b50565b61396c8062000a606000396000f3fe608060405234801561001057600080fd5b506004361061012b5760003560e01c80636a6e48a4116100ad578063de6f56c611610071578063de6f56c614610358578063e985e9c514610388578063f242432a146103b8578063f3f03a61146103d4578063f49ed061146104045761012b565b80636a6e48a4146102b457806370876c98146102e4578063a22cb46514610300578063b895c74a1461031c578063c6e3a9b31461033a5761012b565b806325f5eb81116100f457806325f5eb81146101fc5780632eb2c2d61461021a57806346c82b2c146102365780634e1273f4146102665780635655bb20146102965761012b565b8062fdd58e1461013057806301ffc9a7146101605780630e89341c146101905780631ade9391146101c057806325374996146101de575b600080fd5b61014a60048036038101906101459190612324565b610420565b6040516101579190612e07565b60405180910390f35b61017a600480360381019061017591906123cc565b6104e9565b6040516101879190612c0a565b60405180910390f35b6101aa60048036038101906101a5919061241e565b6105cb565b6040516101b79190612c25565b60405180910390f35b6101c861065f565b6040516101d59190612e07565b60405180910390f35b6101e6610665565b6040516101f39190612e07565b60405180910390f35b61020461066b565b6040516102119190612e07565b60405180910390f35b610234600480360381019061022f919061219a565b610671565b005b610250600480360381019061024b919061241e565b610a67565b60405161025d9190612e07565b60405180910390f35b610280600480360381019061027b9190612360565b610a7f565b60405161028d9190612bb1565b60405180910390f35b61029e610c30565b6040516102ab9190612e07565b60405180910390f35b6102ce60048036038101906102c99190612447565b610c36565b6040516102db9190612e07565b60405180910390f35b6102fe60048036038101906102f99190612447565b610da3565b005b61031a600480360381019061031591906122e8565b610f15565b005b610324611096565b6040516103319190612e07565b60405180910390f35b61034261109c565b60405161034f9190612e07565b60405180910390f35b610372600480360381019061036d919061241e565b6110a2565b60405161037f9190612e07565b60405180910390f35b6103a2600480360381019061039d919061215e565b6110fc565b6040516103af9190612c0a565b60405180910390f35b6103d260048036038101906103cd9190612259565b611190565b005b6103ee60048036038101906103e9919061241e565b6114a8565b6040516103fb9190612e07565b60405180910390f35b61041e60048036038101906104199190612447565b6114c0565b005b60008073ffffffffffffffffffffffffffffffffffffffff168373ffffffffffffffffffffffffffffffffffffffff161415610491576040517f08c379a000000000000000000000000000000000000000000000000000000000815260040161048890612c87565b60405180910390fd5b60008083815260200190815260200160002060008473ffffffffffffffffffffffffffffffffffffffff1673ffffffffffffffffffffffffffffffffffffffff16815260200190815260200160002054905092915050565b60007fd9b67a26000000000000000000000000000000000000000000000000000000007bffffffffffffffffffffffffffffffffffffffffffffffffffffffff1916827bffffffffffffffffffffffffffffffffffffffffffffffffffffffff191614806105b457507f0e89341c000000000000000000000000000000000000000000000000000000007bffffffffffffffffffffffffffffffffffffffffffffffffffffffff1916827bffffffffffffffffffffffffffffffffffffffffffffffffffffffff1916145b806105c457506105c38261174b565b5b9050919050565b6060600280546105da906132b1565b80601f0160208091040260200160405190810160405280929190818152602001828054610606906132b1565b80156106535780601f1061062857610100808354040283529160200191610653565b820191906000526020600020905b81548152906001019060200180831161063657829003601f168201915b50505050509050919050565b600a5481565b60085481565b60065481565b81518351146106b5576040517f08c379a00000000000000000000000000000000000000000000000000000000081526004016106ac90612da7565b60405180910390fd5b600073ffffffffffffffffffffffffffffffffffffffff168473ffffffffffffffffffffffffffffffffffffffff161415610725576040517f08c379a000000000000000000000000000000000000000000000000000000000815260040161071c90612cc7565b60405180910390fd5b61072d6117b5565b73ffffffffffffffffffffffffffffffffffffffff168573ffffffffffffffffffffffffffffffffffffffff16148061077357506107728561076d6117b5565b6110fc565b5b6107b2576040517f08c379a00000000000000000000000000000000000000000000000000000000081526004016107a990612ce7565b60405180910390fd5b60006107bc6117b5565b90506107cc8187878787876117bd565b60005b84518110156109d2576000858281518110610813577f4e487b7100000000000000000000000000000000000000000000000000000000600052603260045260246000fd5b602002602001015190506000858381518110610858577f4e487b7100000000000000000000000000000000000000000000000000000000600052603260045260246000fd5b60200260200101519050600080600084815260200190815260200160002060008b73ffffffffffffffffffffffffffffffffffffffff1673ffffffffffffffffffffffffffffffffffffffff168152602001908152602001600020549050818110156108f9576040517f08c379a00000000000000000000000000000000000000000000000000000000081526004016108f090612d27565b60405180910390fd5b818161090591906131c7565b60008085815260200190815260200160002060008c73ffffffffffffffffffffffffffffffffffffffff1673ffffffffffffffffffffffffffffffffffffffff168152602001908152602001600020819055508160008085815260200190815260200160002060008b73ffffffffffffffffffffffffffffffffffffffff1673ffffffffffffffffffffffffffffffffffffffff16815260200190815260200160002060008282546109b79190612f75565b92505081905550505050806109cb906132e3565b90506107cf565b508473ffffffffffffffffffffffffffffffffffffffff168673ffffffffffffffffffffffffffffffffffffffff168273ffffffffffffffffffffffffffffffffffffffff167f4a39dc06d4c0dbc64b70af90fd698a233a518aa5d07e595d983b8c0526c8f7fb8787604051610a49929190612bd3565b60405180910390a4610a5f8187878787876117c5565b505050505050565b60046020528060005260406000206000915090505481565b60608151835114610ac5576040517f08c379a0000000000000000000000000000000000000000000000000000000008152600401610abc90612d87565b60405180910390fd5b6000835167ffffffffffffffff811115610b08577f4e487b7100000000000000000000000000000000000000000000000000000000600052604160045260246000fd5b604051908082528060200260200182016040528015610b365781602001602082028036833780820191505090505b50905060005b8451811015610c2557610bcf858281518110610b81577f4e487b7100000000000000000000000000000000000000000000000000000000600052603260045260246000fd5b6020026020010151858381518110610bc2577f4e487b7100000000000000000000000000000000000000000000000000000000600052603260045260246000fd5b6020026020010151610420565b828281518110610c08577f4e487b7100000000000000000000000000000000000000000000000000000000600052603260045260246000fd5b60200260200101818152505080610c1e906132e3565b9050610b3c565b508091505092915050565b60055481565b60006012600a610c46919061304f565b8210610c87576040517f08c379a0000000000000000000000000000000000000000000000000000000008152600401610c7e90612d07565b60405180910390fd5b610c90836110a2565b8211610cd1576040517f08c379a0000000000000000000000000000000000000000000000000000000008152600401610cc890612d47565b60405180910390fd5b610d8e826012600a610ce3919061304f565b610ced91906131c7565b6012600a610cfb919061304f565b6003600087815260200190815260200160002054610d199190612f75565b610d23919061316d565b6012600a610d31919061304f565b846012600a610d40919061304f565b6003600089815260200190815260200160002054600654610d6191906131c7565b610d6b91906131c7565b610d75919061316d565b610d7f919061316d565b610d899190612fcb565b6114df565b600854610d9b919061316d565b905092915050565b6000610dd36008546012600a610db9919061304f565b84610dc4919061316d565b610dce9190612fcb565b611995565b905060006012600a610de5919061304f565b6003600086815260200190815260200160002054610e039190612f75565b905060006012600a610e15919061304f565b8383610e21919061316d565b610e2b9190612fcb565b905060008183600654610e3e91906131c7565b610e489190612f75565b90506000610e55826114df565b600854610e62919061316d565b9050600060095482610e7491906131c7565b9050826006819055506012600a610e8b919061304f565b84610e9691906131c7565b600360008a81526020019081526020016000208190555086600460008a81526020019081526020016000206000828254610ed09190612f75565b9250508190555080600a6000828254610ee99190612f75565b92505081905550610f0b33898960405180602001604052806000815250611a6c565b5050505050505050565b8173ffffffffffffffffffffffffffffffffffffffff16610f346117b5565b73ffffffffffffffffffffffffffffffffffffffff161415610f8b576040517f08c379a0000000000000000000000000000000000000000000000000000000008152600401610f8290612d67565b60405180910390fd5b8060016000610f986117b5565b73ffffffffffffffffffffffffffffffffffffffff1673ffffffffffffffffffffffffffffffffffffffff16815260200190815260200160002060008473ffffffffffffffffffffffffffffffffffffffff1673ffffffffffffffffffffffffffffffffffffffff16815260200190815260200160002060006101000a81548160ff0219169083151502179055508173ffffffffffffffffffffffffffffffffffffffff166110456117b5565b73ffffffffffffffffffffffffffffffffffffffff167f17307eab39ab6107e8899845ad3d59bd9653f200f220920489ca2b5937696c318360405161108a9190612c0a565b60405180910390a35050565b60095481565b60075481565b60006006546012600a6110b5919061304f565b6012600a6110c3919061304f565b60036000868152602001908152602001600020546110e19190612f75565b6110eb919061316d565b6110f59190612fcb565b9050919050565b6000600160008473ffffffffffffffffffffffffffffffffffffffff1673ffffffffffffffffffffffffffffffffffffffff16815260200190815260200160002060008373ffffffffffffffffffffffffffffffffffffffff1673ffffffffffffffffffffffffffffffffffffffff16815260200190815260200160002060009054906101000a900460ff16905092915050565b600073ffffffffffffffffffffffffffffffffffffffff168473ffffffffffffffffffffffffffffffffffffffff161415611200576040517f08c379a00000000000000000000000000000000000000000000000000000000081526004016111f790612cc7565b60405180910390fd5b6112086117b5565b73ffffffffffffffffffffffffffffffffffffffff168573ffffffffffffffffffffffffffffffffffffffff16148061124e575061124d856112486117b5565b6110fc565b5b61128d576040517f08c379a000000000000000000000000000000000000000000000000000000000815260040161128490612ca7565b60405180910390fd5b60006112976117b5565b90506112b78187876112a888611c02565b6112b188611c02565b876117bd565b600080600086815260200190815260200160002060008873ffffffffffffffffffffffffffffffffffffffff1673ffffffffffffffffffffffffffffffffffffffff1681526020019081526020016000205490508381101561134e576040517f08c379a000000000000000000000000000000000000000000000000000000000815260040161134590612d27565b60405180910390fd5b838161135a91906131c7565b60008087815260200190815260200160002060008973ffffffffffffffffffffffffffffffffffffffff1673ffffffffffffffffffffffffffffffffffffffff168152602001908152602001600020819055508360008087815260200190815260200160002060008873ffffffffffffffffffffffffffffffffffffffff1673ffffffffffffffffffffffffffffffffffffffff168152602001908152602001600020600082825461140c9190612f75565b925050819055508573ffffffffffffffffffffffffffffffffffffffff168773ffffffffffffffffffffffffffffffffffffffff168373ffffffffffffffffffffffffffffffffffffffff167fc3d58168c5ae7397731d063d5bbf3d657854427343f4c083240f7aacaa2d0f628888604051611489929190612e22565b60405180910390a461149f828888888888611cc8565b50505050505050565b60036020528060005260406000206000915090505481565b6114db33838360405180602001604052806000815250611a6c565b5050565b6000806012600a6114f0919061304f565b836114fb9190612fcb565b905060008111611540576040517f08c379a000000000000000000000000000000000000000000000000000000000815260040161153790612de7565b60405180910390fd5b6000700100000000000000000000000000000000821061157157608082901c915060808161156e9190612f75565b90505b68010000000000000000821061159857604082901c91506040816115959190612f75565b90505b64010000000082106115bb57602082901c91506020816115b89190612f75565b90505b6201000082106115dc57601082901c91506010816115d99190612f75565b90505b61010082106115fc57600882901c91506008816115f99190612f75565b90505b6010821061161b57600482901c91506004816116189190612f75565b90505b6004821061163a57600282901c91506002816116379190612f75565b90505b600282106116525760018161164f9190612f75565b90505b6012600a611660919061304f565b8161166b919061316d565b90506012600a61167b919061304f565b816116869190612fcb565b6002611692919061304f565b8461169d9190612fcb565b91506000806012600a6116b0919061304f565b90505b6000811115611734576012600a6116ca919061304f565b60026116d6919061316d565b84106116fa5780826116e89190612f75565b91506002846116f79190612fcb565b93505b6012600a611708919061304f565b8485611714919061316d565b61171e9190612fcb565b935060028161172d9190612fcb565b90506116b3565b5081816117419190612f75565b9350505050919050565b60007f01ffc9a7000000000000000000000000000000000000000000000000000000007bffffffffffffffffffffffffffffffffffffffffffffffffffffffff1916827bffffffffffffffffffffffffffffffffffffffffffffffffffffffff1916149050919050565b600033905090565b505050505050565b6117e48473ffffffffffffffffffffffffffffffffffffffff16611e98565b1561198d578373ffffffffffffffffffffffffffffffffffffffff1663bc197c8187878686866040518663ffffffff1660e01b815260040161182a959493929190612aef565b602060405180830381600087803b15801561184457600080fd5b505af192505050801561187557506040513d601f19601f8201168201806040525081019061187291906123f5565b60015b61190457611881613444565b8061188c57506118c9565b806040517f08c379a00000000000000000000000000000000000000000000000000000000081526004016118c09190612c25565b60405180910390fd5b6040517f08c379a00000000000000000000000000000000000000000000000000000000081526004016118fb90612c47565b60405180910390fd5b63bc197c8160e01b7bffffffffffffffffffffffffffffffffffffffffffffffffffffffff1916817bffffffffffffffffffffffffffffffffffffffffffffffffffffffff19161461198b576040517f08c379a000000000000000000000000000000000000000000000000000000000815260040161198290612c67565b60405180910390fd5b505b505050505050565b6000806012600a6119a6919061304f565b836119b19190612fcb565b905060006012600a6119c3919061304f565b846119ce919061332c565b905060008260026119df919061304f565b905060006012600a6119f1919061304f565b905060005b603e811015611a5457600084611a0b83611eab565b161115611a41576012600a611a20919061304f565b611a2982611f06565b83611a34919061316d565b611a3e9190612fcb565b91505b8080611a4c906132e3565b9150506119f6565b508082611a61919061316d565b945050505050919050565b600073ffffffffffffffffffffffffffffffffffffffff168473ffffffffffffffffffffffffffffffffffffffff161415611adc576040517f08c379a0000000000000000000000000000000000000000000000000000000008152600401611ad390612dc7565b60405180910390fd5b6000611ae66117b5565b9050611b0781600087611af888611c02565b611b0188611c02565b876117bd565b8260008086815260200190815260200160002060008773ffffffffffffffffffffffffffffffffffffffff1673ffffffffffffffffffffffffffffffffffffffff1681526020019081526020016000206000828254611b669190612f75565b925050819055508473ffffffffffffffffffffffffffffffffffffffff16600073ffffffffffffffffffffffffffffffffffffffff168273ffffffffffffffffffffffffffffffffffffffff167fc3d58168c5ae7397731d063d5bbf3d657854427343f4c083240f7aacaa2d0f628787604051611be4929190612e22565b60405180910390a4611bfb81600087878787611cc8565b5050505050565b60606000600167ffffffffffffffff811115611c47577f4e487b7100000000000000000000000000000000000000000000000000000000600052604160045260246000fd5b604051908082528060200260200182016040528015611c755781602001602082028036833780820191505090505b5090508281600081518110611cb3577f4e487b7100000000000000000000000000000000000000000000000000000000600052603260045260246000fd5b60200260200101818152505080915050919050565b611ce78473ffffffffffffffffffffffffffffffffffffffff16611e98565b15611e90578373ffffffffffffffffffffffffffffffffffffffff1663f23a6e6187878686866040518663ffffffff1660e01b8152600401611d2d959493929190612b57565b602060405180830381600087803b158015611d4757600080fd5b505af1925050508015611d7857506040513d601f19601f82011682018060405250810190611d7591906123f5565b60015b611e0757611d84613444565b80611d8f5750611dcc565b806040517f08c379a0000000000000000000000000000000000000000000000000000000008152600401611dc39190612c25565b60405180910390fd5b6040517f08c379a0000000000000000000000000000000000000000000000000000000008152600401611dfe90612c47565b60405180910390fd5b63f23a6e6160e01b7bffffffffffffffffffffffffffffffffffffffffffffffffffffffff1916817bffffffffffffffffffffffffffffffffffffffffffffffffffffffff191614611e8e576040517f08c379a0000000000000000000000000000000000000000000000000000000008152600401611e8590612c67565b60405180910390fd5b505b505050505050565b600080823b905060008111915050919050565b6000806040518061022001604052806101f081526020016135576101f09139905060006008846008611edd919061316d565b611ee79190612f75565b905060008183015190508067ffffffffffffffff169350505050919050565b6000806040518061022001604052806101f081526020016137476101f09139905060006008846008611f38919061316d565b611f429190612f75565b905060008183015190508067ffffffffffffffff169350505050919050565b6000611f74611f6f84612e7c565b612e4b565b90508083825260208201905082856020860282011115611f9357600080fd5b60005b85811015611fc35781611fa98882612077565b845260208401935060208301925050600181019050611f96565b5050509392505050565b6000611fe0611fdb84612ea8565b612e4b565b90508083825260208201905082856020860282011115611fff57600080fd5b60005b8581101561202f57816120158882612149565b845260208401935060208301925050600181019050612002565b5050509392505050565b600061204c61204784612ed4565b612e4b565b90508281526020810184848401111561206457600080fd5b61206f84828561326f565b509392505050565b600081359050612086816134fa565b92915050565b600082601f83011261209d57600080fd5b81356120ad848260208601611f61565b91505092915050565b600082601f8301126120c757600080fd5b81356120d7848260208601611fcd565b91505092915050565b6000813590506120ef81613511565b92915050565b60008135905061210481613528565b92915050565b60008151905061211981613528565b92915050565b600082601f83011261213057600080fd5b8135612140848260208601612039565b91505092915050565b6000813590506121588161353f565b92915050565b6000806040838503121561217157600080fd5b600061217f85828601612077565b925050602061219085828601612077565b9150509250929050565b600080600080600060a086880312156121b257600080fd5b60006121c088828901612077565b95505060206121d188828901612077565b945050604086013567ffffffffffffffff8111156121ee57600080fd5b6121fa888289016120b6565b935050606086013567ffffffffffffffff81111561221757600080fd5b612223888289016120b6565b925050608086013567ffffffffffffffff81111561224057600080fd5b61224c8882890161211f565b9150509295509295909350565b600080600080600060a0868803121561227157600080fd5b600061227f88828901612077565b955050602061229088828901612077565b94505060406122a188828901612149565b93505060606122b288828901612149565b925050608086013567ffffffffffffffff8111156122cf57600080fd5b6122db8882890161211f565b9150509295509295909350565b600080604083850312156122fb57600080fd5b600061230985828601612077565b925050602061231a858286016120e0565b9150509250929050565b6000806040838503121561233757600080fd5b600061234585828601612077565b925050602061235685828601612149565b9150509250929050565b6000806040838503121561237357600080fd5b600083013567ffffffffffffffff81111561238d57600080fd5b6123998582860161208c565b925050602083013567ffffffffffffffff8111156123b657600080fd5b6123c2858286016120b6565b9150509250929050565b6000602082840312156123de57600080fd5b60006123ec848285016120f5565b91505092915050565b60006020828403121561240757600080fd5b60006124158482850161210a565b91505092915050565b60006020828403121561243057600080fd5b600061243e84828501612149565b91505092915050565b6000806040838503121561245a57600080fd5b600061246885828601612149565b925050602061247985828601612149565b9150509250929050565b600061248f8383612ad1565b60208301905092915050565b6124a4816131fb565b82525050565b60006124b582612f14565b6124bf8185612f42565b93506124ca83612f04565b8060005b838110156124fb5781516124e28882612483565b97506124ed83612f35565b9250506001810190506124ce565b5085935050505092915050565b6125118161320d565b82525050565b600061252282612f1f565b61252c8185612f53565b935061253c81856020860161327e565b61254581613419565b840191505092915050565b600061255b82612f2a565b6125658185612f64565b935061257581856020860161327e565b61257e81613419565b840191505092915050565b6000612596603483612f64565b91507f455243313135353a207472616e7366657220746f206e6f6e204552433131353560008301527f526563656976657220696d706c656d656e7465720000000000000000000000006020830152604082019050919050565b60006125fc602883612f64565b91507f455243313135353a204552433131353552656365697665722072656a6563746560008301527f6420746f6b656e730000000000000000000000000000000000000000000000006020830152604082019050919050565b6000612662602b83612f64565b91507f455243313135353a2062616c616e636520717565727920666f7220746865207a60008301527f65726f20616464726573730000000000000000000000000000000000000000006020830152604082019050919050565b60006126c8602983612f64565b91507f455243313135353a2063616c6c6572206973206e6f74206f776e6572206e6f7260008301527f20617070726f76656400000000000000000000000000000000000000000000006020830152604082019050919050565b600061272e602583612f64565b91507f455243313135353a207472616e7366657220746f20746865207a65726f20616460008301527f64726573730000000000000000000000000000000000000000000000000000006020830152604082019050919050565b6000612794603283612f64565b91507f455243313135353a207472616e736665722063616c6c6572206973206e6f742060008301527f6f776e6572206e6f7220617070726f76656400000000000000000000000000006020830152604082019050919050565b60006127fa602183612f64565b91507f6765745265717569726564416d6f756e743a20707269636520746f6f2068696760008301527f68000000000000000000000000000000000000000000000000000000000000006020830152604082019050919050565b6000612860602a83612f64565b91507f455243313135353a20696e73756666696369656e742062616c616e636520666f60008301527f72207472616e73666572000000000000000000000000000000000000000000006020830152604082019050919050565b60006128c6602083612f64565b91507f6765745265717569726564416d6f756e743a20707269636520746f6f206c6f776000830152602082019050919050565b6000612906602983612f64565b91507f455243313135353a2073657474696e6720617070726f76616c2073746174757360008301527f20666f722073656c6600000000000000000000000000000000000000000000006020830152604082019050919050565b600061296c602983612f64565b91507f455243313135353a206163636f756e747320616e6420696473206c656e67746860008301527f206d69736d6174636800000000000000000000000000000000000000000000006020830152604082019050919050565b60006129d2602883612f64565b91507f455243313135353a2069647320616e6420616d6f756e7473206c656e6774682060008301527f6d69736d617463680000000000000000000000000000000000000000000000006020830152604082019050919050565b6000612a38602183612f64565b91507f455243313135353a206d696e7420746f20746865207a65726f2061646472657360008301527f73000000000000000000000000000000000000000000000000000000000000006020830152604082019050919050565b6000612a9e601c83612f64565b91507f6c6f6761726974686d3a206f706572616e6420746f6f20736d616c6c000000006000830152602082019050919050565b612ada81613265565b82525050565b612ae981613265565b82525050565b600060a082019050612b04600083018861249b565b612b11602083018761249b565b8181036040830152612b2381866124aa565b90508181036060830152612b3781856124aa565b90508181036080830152612b4b8184612517565b90509695505050505050565b600060a082019050612b6c600083018861249b565b612b79602083018761249b565b612b866040830186612ae0565b612b936060830185612ae0565b8181036080830152612ba58184612517565b90509695505050505050565b60006020820190508181036000830152612bcb81846124aa565b905092915050565b60006040820190508181036000830152612bed81856124aa565b90508181036020830152612c0181846124aa565b90509392505050565b6000602082019050612c1f6000830184612508565b92915050565b60006020820190508181036000830152612c3f8184612550565b905092915050565b60006020820190508181036000830152612c6081612589565b9050919050565b60006020820190508181036000830152612c80816125ef565b9050919050565b60006020820190508181036000830152612ca081612655565b9050919050565b60006020820190508181036000830152612cc0816126bb565b9050919050565b60006020820190508181036000830152612ce081612721565b9050919050565b60006020820190508181036000830152612d0081612787565b9050919050565b60006020820190508181036000830152612d20816127ed565b9050919050565b60006020820190508181036000830152612d4081612853565b9050919050565b60006020820190508181036000830152612d60816128b9565b9050919050565b60006020820190508181036000830152612d80816128f9565b9050919050565b60006020820190508181036000830152612da08161295f565b9050919050565b60006020820190508181036000830152612dc0816129c5565b9050919050565b60006020820190508181036000830152612de081612a2b565b9050919050565b60006020820190508181036000830152612e0081612a91565b9050919050565b6000602082019050612e1c6000830184612ae0565b92915050565b6000604082019050612e376000830185612ae0565b612e446020830184612ae0565b9392505050565b6000604051905081810181811067ffffffffffffffff82111715612e7257612e716133ea565b5b8060405250919050565b600067ffffffffffffffff821115612e9757612e966133ea565b5b602082029050602081019050919050565b600067ffffffffffffffff821115612ec357612ec26133ea565b5b602082029050602081019050919050565b600067ffffffffffffffff821115612eef57612eee6133ea565b5b601f19601f8301169050602081019050919050565b6000819050602082019050919050565b600081519050919050565b600081519050919050565b600081519050919050565b6000602082019050919050565b600082825260208201905092915050565b600082825260208201905092915050565b600082825260208201905092915050565b6000612f8082613265565b9150612f8b83613265565b9250827fffffffffffffffffffffffffffffffffffffffffffffffffffffffffffffffff03821115612fc057612fbf61335d565b5b828201905092915050565b6000612fd682613265565b9150612fe183613265565b925082612ff157612ff061338c565b5b828204905092915050565b6000808291508390505b6001851115613046578086048111156130225761302161335d565b5b60018516156130315780820291505b808102905061303f8561342a565b9450613006565b94509492505050565b600061305a82613265565b915061306583613265565b92506130927fffffffffffffffffffffffffffffffffffffffffffffffffffffffffffffffff848461309a565b905092915050565b6000826130aa5760019050613166565b816130b85760009050613166565b81600181146130ce57600281146130d857613107565b6001915050613166565b60ff8411156130ea576130e961335d565b5b8360020a9150848211156131015761310061335d565b5b50613166565b5060208310610133831016604e8410600b841016171561313c5782820a9050838111156131375761313661335d565b5b613166565b6131498484846001612ffc565b925090508184048111156131605761315f61335d565b5b81810290505b9392505050565b600061317882613265565b915061318383613265565b9250817fffffffffffffffffffffffffffffffffffffffffffffffffffffffffffffffff04831182151516156131bc576131bb61335d565b5b828202905092915050565b60006131d282613265565b91506131dd83613265565b9250828210156131f0576131ef61335d565b5b828203905092915050565b600061320682613245565b9050919050565b60008115159050919050565b60007fffffffff0000000000000000000000000000000000000000000000000000000082169050919050565b600073ffffffffffffffffffffffffffffffffffffffff82169050919050565b6000819050919050565b82818337600083830152505050565b60005b8381101561329c578082015181840152602081019050613281565b838111156132ab576000848401525b50505050565b600060028204905060018216806132c957607f821691505b602082108114156132dd576132dc6133bb565b5b50919050565b60006132ee82613265565b91507fffffffffffffffffffffffffffffffffffffffffffffffffffffffffffffffff8214156133215761332061335d565b5b600182019050919050565b600061333782613265565b915061334283613265565b9250826133525761335161338c565b5b828206905092915050565b7f4e487b7100000000000000000000000000000000000000000000000000000000600052601160045260246000fd5b7f4e487b7100000000000000000000000000000000000000000000000000000000600052601260045260246000fd5b7f4e487b7100000000000000000000000000000000000000000000000000000000600052602260045260246000fd5b7f4e487b7100000000000000000000000000000000000000000000000000000000600052604160045260246000fd5b6000601f19601f8301169050919050565b60008160011c9050919050565b60008160e01c9050919050565b600060443d1015613454576134f7565b60046000803e613465600051613437565b6308c379a0811461347657506134f7565b60405160043d036004823e80513d602482011167ffffffffffffffff821117156134a2575050506134f7565b808201805167ffffffffffffffff8111156134c15750505050506134f7565b8060208301013d85018111156134dc575050505050506134f7565b6134e582613419565b60208401016040528296505050505050505b90565b613503816131fb565b811461350e57600080fd5b50565b61351a8161320d565b811461352557600080fd5b50565b61353181613219565b811461353c57600080fd5b50565b61354881613265565b811461355357600080fd5b5056fe000000000000000100000000000000020000000000000004000000000000000800000000000000100000000000000020000000000000004000000000000000800000000000000100000000000000020000000000000004000000000000000800000000000000100000000000000020000000000000004000000000000000800000000000000100000000000000020000000000000004000000000000000800000000000000100000000000000020000000000000004000000000000000800000000000000100000000000000020000000000000004000000000000000800000000000000100000000000000020000000000000004000000000000000800000000000000100000000000000020000000000000004000000000000000800000000000000100000000000000020000000000000004000000000000000800000000000000100000000000000020000000000000004000000000000000800000000000000100000000000000020000000000000004000000000000000800000000000000100000000000000020000000000000004000000000000000800000000000000100000000000000020000000000000004000000000000000800000000000000100000000000000020000000000000004000000000000000800000000000000100000000000000020000000000000000de0b6b3a76400000de0b6b3a76400010de0b6b3a76400020de0b6b3a76400050de0b6b3a764000b0de0b6b3a76400160de0b6b3a764002c0de0b6b3a76400580de0b6b3a76400b10de0b6b3a76401620de0b6b3a76402c50de0b6b3a764058b0de0b6b3a7640b170de0b6b3a764162e0de0b6b3a7642c5c0de0b6b3a76458b90de0b6b3a764b1720de0b6b3a76562e40de0b6b3a766c5c80de0b6b3a7698b900de0b6b3a76f17210de0b6b3a77a2e420de0b6b3a7905c850de0b6b3a7bcb90b0de0b6b3a81572170de0b6b3a8c6e42f0de0b6b3aa29c85f0de0b6b3acef90bf0de0b6b3b27b217f0de0b6b3bd9242ff0de0b6b3d3c085fe0de0b6b4001d0bfd0de0b6b458d617fc0de0b6b50a4830010de0b6b66d2c60260de0b6b932f4c0da0de0b6bebe8583eb0de0b6c9d5a710b30de0b6e003ea44db0de0b70c607117840de0b765198066410de0b8168ba5a9640de0b979700ac64c0de0bc3f393f5ab50de0c1cacd51ee520de0cce1fc1cc3c60de0e3107449406e0de10f6dcefe47050de1682a2ddebc000de219a991aadb930de37cc2f2fcb7380de6436028ee3a220debd244c555d3b40df6f6b9dbcc5f410e0d5a6c6ea8a8410e3a8dbbd2b7e9d50e96aa5bb87c13840f55ef96062919dd10f25db82c317ea514b1c2442ffabe3c1edbf25de7a70f72449e9dd02d2817d4a264697066735822122039d05206801b5bc12aca4a0b3c3bde1d1184537a15550806906b63f5bf2f940064736f6c63430008000033",
  "linkReferences": {},
  "deployedLinkReferences": {}
}