{
  "hardhat/contracts/Libraries/MathWithPade.sol": {
    "MathWithPade": {
      "abi": [
        {
          "inputs": [
            {
              "internalType": "uint256",
              "name": "exponent",
              "type": "uint256"
            }
          ],
          "name": "exponentiate",
          "outputs": [
            {
              "internalType": "uint256",
              "name": "",
              "type": "uint256"
            }
          ],
          "stateMutability": "pure",
          "type": "function"
        },
        {
          "inputs": [
            {
              "internalType": "uint256",
              "name": "operand",
              "type": "uint256"
            }
          ],
          "name": "logarithm",
          "outputs": [
            {
              "internalType": "uint256",
              "name": "",
              "type": "uint256"
            }
          ],
          "stateMutability": "pure",
          "type": "function"
        },
        {
          "inputs": [
            {
              "internalType": "uint256",
              "name": "exponent",
              "type": "uint256"
            }
          ],
          "name": "padeExponentiate",
          "outputs": [
            {
              "internalType": "uint256",
              "name": "",
              "type": "uint256"
            }
          ],
          "stateMutability": "pure",
          "type": "function"
        }
      ],
      "evm": {
        "bytecode": {
          "linkReferences": {},
          "object": "610fb4610053600b82828239805160001a607314610046577f4e487b7100000000000000000000000000000000000000000000000000000000600052600060045260246000fd5b30600052607381538281f3fe730000000000000000000000000000000000000000301460806040526004361061004b5760003560e01c80630a41b60d146100505780636ca34af7146100805780639fdfe442146100b0575b600080fd5b61006a60048036038101906100659190610726565b6100e0565b60405161007791906107be565b60405180910390f35b61009a60048036038101906100959190610726565b61025e565b6040516100a791906107be565b60405180910390f35b6100ca60048036038101906100c59190610726565b6104ca565b6040516100d791906107be565b60405180910390f35b6000806012600a6100f191906108c4565b905060006012600a61010391906108c4565b9050600080600090505b6005811015610224576000610121826105a1565b90506012600a61013191906108c4565b6101478860018561014291906107ea565b6105f9565b8261015291906109e2565b61015c9190610840565b8561016791906107ea565b945060006002836101789190610ac3565b14156101c9576012600a61018c91906108c4565b6101a28860018561019d91906107ea565b6105f9565b826101ad91906109e2565b6101b79190610840565b836101c291906107ea565b9250610210565b6012600a6101d791906108c4565b6101ed886001856101e891906107ea565b6105f9565b826101f891906109e2565b6102029190610840565b8461020d91906107ea565b93505b50808061021c90610a7a565b91505061010d565b5080826102319190610a3c565b6012600a61023f91906108c4565b8461024a91906109e2565b6102549190610840565b9350505050919050565b6000806012600a61026f91906108c4565b8361027a9190610840565b9050600081116102bf576040517f08c379a00000000000000000000000000000000000000000000000000000000081526004016102b69061079e565b60405180910390fd5b600070010000000000000000000000000000000082106102f057608082901c91506080816102ed91906107ea565b90505b68010000000000000000821061031757604082901c915060408161031491906107ea565b90505b640100000000821061033a57602082901c915060208161033791906107ea565b90505b62010000821061035b57601082901c915060108161035891906107ea565b90505b610100821061037b57600882901c915060088161037891906107ea565b90505b6010821061039a57600482901c915060048161039791906107ea565b90505b600482106103b957600282901c91506002816103b691906107ea565b90505b600282106103d1576001816103ce91906107ea565b90505b6012600a6103df91906108c4565b816103ea91906109e2565b90506012600a6103fa91906108c4565b816104059190610840565b600261041191906108c4565b8461041c9190610840565b91506000806012600a61042f91906108c4565b90505b60008111156104b3576012600a61044991906108c4565b600261045591906109e2565b841061047957808261046791906107ea565b91506002846104769190610840565b93505b6012600a61048791906108c4565b848561049391906109e2565b61049d9190610840565b93506002816104ac9190610840565b9050610432565b5081816104c091906107ea565b9350505050919050565b6000806012600a6104db91906108c4565b836104e69190610840565b905060006012600a6104f891906108c4565b846105039190610ac3565b9050600082600261051491906108c4565b905060006012600a61052691906108c4565b905060005b603e811015610589576000846105408361065b565b161115610576576012600a61055591906108c4565b61055e826106b6565b8361056991906109e2565b6105739190610840565b91505b808061058190610a7a565b91505061052b565b50808261059691906109e2565b945050505050919050565b600080604051806060016040528060288152602001610d67602891399050600060088460086105d091906109e2565b6105da91906107ea565b905060008183015190508067ffffffffffffffff169350505050919050565b6000806012600a61060a91906108c4565b905060005b83811015610650576012600a61062591906108c4565b858361063191906109e2565b61063b9190610840565b9150808061064890610a7a565b91505061060f565b508091505092915050565b6000806040518061022001604052806101f08152602001610b776101f0913990506000600884600861068d91906109e2565b61069791906107ea565b905060008183015190508067ffffffffffffffff169350505050919050565b6000806040518061022001604052806101f08152602001610d8f6101f091399050600060088460086106e891906109e2565b6106f291906107ea565b905060008183015190508067ffffffffffffffff169350505050919050565b60008135905061072081610b5f565b92915050565b60006020828403121561073857600080fd5b600061074684828501610711565b91505092915050565b600061075c601c836107d9565b91507f6c6f6761726974686d3a206f706572616e6420746f6f20736d616c6c000000006000830152602082019050919050565b61079881610a70565b82525050565b600060208201905081810360008301526107b78161074f565b9050919050565b60006020820190506107d3600083018461078f565b92915050565b600082825260208201905092915050565b60006107f582610a70565b915061080083610a70565b9250827fffffffffffffffffffffffffffffffffffffffffffffffffffffffffffffffff0382111561083557610834610af4565b5b828201905092915050565b600061084b82610a70565b915061085683610a70565b92508261086657610865610b23565b5b828204905092915050565b6000808291508390505b60018511156108bb5780860481111561089757610896610af4565b5b60018516156108a65780820291505b80810290506108b485610b52565b945061087b565b94509492505050565b60006108cf82610a70565b91506108da83610a70565b92506109077fffffffffffffffffffffffffffffffffffffffffffffffffffffffffffffffff848461090f565b905092915050565b60008261091f57600190506109db565b8161092d57600090506109db565b8160018114610943576002811461094d5761097c565b60019150506109db565b60ff84111561095f5761095e610af4565b5b8360020a91508482111561097657610975610af4565b5b506109db565b5060208310610133831016604e8410600b84101617156109b15782820a9050838111156109ac576109ab610af4565b5b6109db565b6109be8484846001610871565b925090508184048111156109d5576109d4610af4565b5b81810290505b9392505050565b60006109ed82610a70565b91506109f883610a70565b9250817fffffffffffffffffffffffffffffffffffffffffffffffffffffffffffffffff0483118215151615610a3157610a30610af4565b5b828202905092915050565b6000610a4782610a70565b9150610a5283610a70565b925082821015610a6557610a64610af4565b5b828203905092915050565b6000819050919050565b6000610a8582610a70565b91507fffffffffffffffffffffffffffffffffffffffffffffffffffffffffffffffff821415610ab857610ab7610af4565b5b600182019050919050565b6000610ace82610a70565b9150610ad983610a70565b925082610ae957610ae8610b23565b5b828206905092915050565b7f4e487b7100000000000000000000000000000000000000000000000000000000600052601160045260246000fd5b7f4e487b7100000000000000000000000000000000000000000000000000000000600052601260045260246000fd5b60008160011c9050919050565b610b6881610a70565b8114610b7357600080fd5b5056fe0000000000000001000000000000000200000000000000040000000000000008000000000000001000000000000000200000000000000040000000000000008000000000000001000000000000000200000000000000040000000000000008000000000000001000000000000000200000000000000040000000000000008000000000000001000000000000000200000000000000040000000000000008000000000000001000000000000000200000000000000040000000000000008000000000000001000000000000000200000000000000040000000000000008000000000000001000000000000000200000000000000040000000000000008000000000000001000000000000000200000000000000040000000000000008000000000000001000000000000000200000000000000040000000000000008000000000000001000000000000000200000000000000040000000000000008000000000000001000000000000000200000000000000040000000000000008000000000000001000000000000000200000000000000040000000000000008000000000000001000000000000000200000000000000040000000000000008000000000000001000000000000000200000000000000040000000000000008000000000000001000000000000000200000000000000006f05b59d3b20000018abef7846071c0003157def08c0e3800038646c80a010400001e136d11666f0de0b6b3a76400000de0b6b3a76400010de0b6b3a76400020de0b6b3a76400050de0b6b3a764000b0de0b6b3a76400160de0b6b3a764002c0de0b6b3a76400580de0b6b3a76400b10de0b6b3a76401620de0b6b3a76402c50de0b6b3a764058b0de0b6b3a7640b170de0b6b3a764162e0de0b6b3a7642c5c0de0b6b3a76458b90de0b6b3a764b1720de0b6b3a76562e40de0b6b3a766c5c80de0b6b3a7698b900de0b6b3a76f17210de0b6b3a77a2e420de0b6b3a7905c850de0b6b3a7bcb90b0de0b6b3a81572170de0b6b3a8c6e42f0de0b6b3aa29c85f0de0b6b3acef90bf0de0b6b3b27b217f0de0b6b3bd9242ff0de0b6b3d3c085fe0de0b6b4001d0bfd0de0b6b458d617fc0de0b6b50a4830010de0b6b66d2c60260de0b6b932f4c0da0de0b6bebe8583eb0de0b6c9d5a710b30de0b6e003ea44db0de0b70c607117840de0b765198066410de0b8168ba5a9640de0b979700ac64c0de0bc3f393f5ab50de0c1cacd51ee520de0cce1fc1cc3c60de0e3107449406e0de10f6dcefe47050de1682a2ddebc000de219a991aadb930de37cc2f2fcb7380de6436028ee3a220debd244c555d3b40df6f6b9dbcc5f410e0d5a6c6ea8a8410e3a8dbbd2b7e9d50e96aa5bb87c13840f55ef96062919dd10f25db82c317ea514b1c2442ffabe3c1edbf25de7a70f72449e9dd02d2817d4a264697066735822122020bb638f1311ad63cfa6f7f1d02b1279c98d82c0202d89b21d70ce0f6badf49664736f6c63430008000033",
          "opcodes": "PUSH2 0xFB4 PUSH2 0x53 PUSH1 0xB DUP3 DUP3 DUP3 CODECOPY DUP1 MLOAD PUSH1 0x0 BYTE PUSH1 0x73 EQ PUSH2 0x46 JUMPI PUSH32 0x4E487B7100000000000000000000000000000000000000000000000000000000 PUSH1 0x0 MSTORE PUSH1 0x0 PUSH1 0x4 MSTORE PUSH1 0x24 PUSH1 0x0 REVERT JUMPDEST ADDRESS PUSH1 0x0 MSTORE PUSH1 0x73 DUP2 MSTORE8 DUP3 DUP2 RETURN INVALID PUSH20 0x0 ADDRESS EQ PUSH1 0x80 PUSH1 0x40 MSTORE PUSH1 0x4 CALLDATASIZE LT PUSH2 0x4B JUMPI PUSH1 0x0 CALLDATALOAD PUSH1 0xE0 SHR DUP1 PUSH4 0xA41B60D EQ PUSH2 0x50 JUMPI DUP1 PUSH4 0x6CA34AF7 EQ PUSH2 0x80 JUMPI DUP1 PUSH4 0x9FDFE442 EQ PUSH2 0xB0 JUMPI JUMPDEST PUSH1 0x0 DUP1 REVERT JUMPDEST PUSH2 0x6A PUSH1 0x4 DUP1 CALLDATASIZE SUB DUP2 ADD SWAP1 PUSH2 0x65 SWAP2 SWAP1 PUSH2 0x726 JUMP JUMPDEST PUSH2 0xE0 JUMP JUMPDEST PUSH1 0x40 MLOAD PUSH2 0x77 SWAP2 SWAP1 PUSH2 0x7BE JUMP JUMPDEST PUSH1 0x40 MLOAD DUP1 SWAP2 SUB SWAP1 RETURN JUMPDEST PUSH2 0x9A PUSH1 0x4 DUP1 CALLDATASIZE SUB DUP2 ADD SWAP1 PUSH2 0x95 SWAP2 SWAP1 PUSH2 0x726 JUMP JUMPDEST PUSH2 0x25E JUMP JUMPDEST PUSH1 0x40 MLOAD PUSH2 0xA7 SWAP2 SWAP1 PUSH2 0x7BE JUMP JUMPDEST PUSH1 0x40 MLOAD DUP1 SWAP2 SUB SWAP1 RETURN JUMPDEST PUSH2 0xCA PUSH1 0x4 DUP1 CALLDATASIZE SUB DUP2 ADD SWAP1 PUSH2 0xC5 SWAP2 SWAP1 PUSH2 0x726 JUMP JUMPDEST PUSH2 0x4CA JUMP JUMPDEST PUSH1 0x40 MLOAD PUSH2 0xD7 SWAP2 SWAP1 PUSH2 0x7BE JUMP JUMPDEST PUSH1 0x40 MLOAD DUP1 SWAP2 SUB SWAP1 RETURN JUMPDEST PUSH1 0x0 DUP1 PUSH1 0x12 PUSH1 0xA PUSH2 0xF1 SWAP2 SWAP1 PUSH2 0x8C4 JUMP JUMPDEST SWAP1 POP PUSH1 0x0 PUSH1 0x12 PUSH1 0xA PUSH2 0x103 SWAP2 SWAP1 PUSH2 0x8C4 JUMP JUMPDEST SWAP1 POP PUSH1 0x0 DUP1 PUSH1 0x0 SWAP1 POP JUMPDEST PUSH1 0x5 DUP2 LT ISZERO PUSH2 0x224 JUMPI PUSH1 0x0 PUSH2 0x121 DUP3 PUSH2 0x5A1 JUMP JUMPDEST SWAP1 POP PUSH1 0x12 PUSH1 0xA PUSH2 0x131 SWAP2 SWAP1 PUSH2 0x8C4 JUMP JUMPDEST PUSH2 0x147 DUP9 PUSH1 0x1 DUP6 PUSH2 0x142 SWAP2 SWAP1 PUSH2 0x7EA JUMP JUMPDEST PUSH2 0x5F9 JUMP JUMPDEST DUP3 PUSH2 0x152 SWAP2 SWAP1 PUSH2 0x9E2 JUMP JUMPDEST PUSH2 0x15C SWAP2 SWAP1 PUSH2 0x840 JUMP JUMPDEST DUP6 PUSH2 0x167 SWAP2 SWAP1 PUSH2 0x7EA JUMP JUMPDEST SWAP5 POP PUSH1 0x0 PUSH1 0x2 DUP4 PUSH2 0x178 SWAP2 SWAP1 PUSH2 0xAC3 JUMP JUMPDEST EQ ISZERO PUSH2 0x1C9 JUMPI PUSH1 0x12 PUSH1 0xA PUSH2 0x18C SWAP2 SWAP1 PUSH2 0x8C4 JUMP JUMPDEST PUSH2 0x1A2 DUP9 PUSH1 0x1 DUP6 PUSH2 0x19D SWAP2 SWAP1 PUSH2 0x7EA JUMP JUMPDEST PUSH2 0x5F9 JUMP JUMPDEST DUP3 PUSH2 0x1AD SWAP2 SWAP1 PUSH2 0x9E2 JUMP JUMPDEST PUSH2 0x1B7 SWAP2 SWAP1 PUSH2 0x840 JUMP JUMPDEST DUP4 PUSH2 0x1C2 SWAP2 SWAP1 PUSH2 0x7EA JUMP JUMPDEST SWAP3 POP PUSH2 0x210 JUMP JUMPDEST PUSH1 0x12 PUSH1 0xA PUSH2 0x1D7 SWAP2 SWAP1 PUSH2 0x8C4 JUMP JUMPDEST PUSH2 0x1ED DUP9 PUSH1 0x1 DUP6 PUSH2 0x1E8 SWAP2 SWAP1 PUSH2 0x7EA JUMP JUMPDEST PUSH2 0x5F9 JUMP JUMPDEST DUP3 PUSH2 0x1F8 SWAP2 SWAP1 PUSH2 0x9E2 JUMP JUMPDEST PUSH2 0x202 SWAP2 SWAP1 PUSH2 0x840 JUMP JUMPDEST DUP5 PUSH2 0x20D SWAP2 SWAP1 PUSH2 0x7EA JUMP JUMPDEST SWAP4 POP JUMPDEST POP DUP1 DUP1 PUSH2 0x21C SWAP1 PUSH2 0xA7A JUMP JUMPDEST SWAP2 POP POP PUSH2 0x10D JUMP JUMPDEST POP DUP1 DUP3 PUSH2 0x231 SWAP2 SWAP1 PUSH2 0xA3C JUMP JUMPDEST PUSH1 0x12 PUSH1 0xA PUSH2 0x23F SWAP2 SWAP1 PUSH2 0x8C4 JUMP JUMPDEST DUP5 PUSH2 0x24A SWAP2 SWAP1 PUSH2 0x9E2 JUMP JUMPDEST PUSH2 0x254 SWAP2 SWAP1 PUSH2 0x840 JUMP JUMPDEST SWAP4 POP POP POP POP SWAP2 SWAP1 POP JUMP JUMPDEST PUSH1 0x0 DUP1 PUSH1 0x12 PUSH1 0xA PUSH2 0x26F SWAP2 SWAP1 PUSH2 0x8C4 JUMP JUMPDEST DUP4 PUSH2 0x27A SWAP2 SWAP1 PUSH2 0x840 JUMP JUMPDEST SWAP1 POP PUSH1 0x0 DUP2 GT PUSH2 0x2BF JUMPI PUSH1 0x40 MLOAD PUSH32 0x8C379A000000000000000000000000000000000000000000000000000000000 DUP2 MSTORE PUSH1 0x4 ADD PUSH2 0x2B6 SWAP1 PUSH2 0x79E JUMP JUMPDEST PUSH1 0x40 MLOAD DUP1 SWAP2 SUB SWAP1 REVERT JUMPDEST PUSH1 0x0 PUSH17 0x100000000000000000000000000000000 DUP3 LT PUSH2 0x2F0 JUMPI PUSH1 0x80 DUP3 SWAP1 SHR SWAP2 POP PUSH1 0x80 DUP2 PUSH2 0x2ED SWAP2 SWAP1 PUSH2 0x7EA JUMP JUMPDEST SWAP1 POP JUMPDEST PUSH9 0x10000000000000000 DUP3 LT PUSH2 0x317 JUMPI PUSH1 0x40 DUP3 SWAP1 SHR SWAP2 POP PUSH1 0x40 DUP2 PUSH2 0x314 SWAP2 SWAP1 PUSH2 0x7EA JUMP JUMPDEST SWAP1 POP JUMPDEST PUSH5 0x100000000 DUP3 LT PUSH2 0x33A JUMPI PUSH1 0x20 DUP3 SWAP1 SHR SWAP2 POP PUSH1 0x20 DUP2 PUSH2 0x337 SWAP2 SWAP1 PUSH2 0x7EA JUMP JUMPDEST SWAP1 POP JUMPDEST PUSH3 0x10000 DUP3 LT PUSH2 0x35B JUMPI PUSH1 0x10 DUP3 SWAP1 SHR SWAP2 POP PUSH1 0x10 DUP2 PUSH2 0x358 SWAP2 SWAP1 PUSH2 0x7EA JUMP JUMPDEST SWAP1 POP JUMPDEST PUSH2 0x100 DUP3 LT PUSH2 0x37B JUMPI PUSH1 0x8 DUP3 SWAP1 SHR SWAP2 POP PUSH1 0x8 DUP2 PUSH2 0x378 SWAP2 SWAP1 PUSH2 0x7EA JUMP JUMPDEST SWAP1 POP JUMPDEST PUSH1 0x10 DUP3 LT PUSH2 0x39A JUMPI PUSH1 0x4 DUP3 SWAP1 SHR SWAP2 POP PUSH1 0x4 DUP2 PUSH2 0x397 SWAP2 SWAP1 PUSH2 0x7EA JUMP JUMPDEST SWAP1 POP JUMPDEST PUSH1 0x4 DUP3 LT PUSH2 0x3B9 JUMPI PUSH1 0x2 DUP3 SWAP1 SHR SWAP2 POP PUSH1 0x2 DUP2 PUSH2 0x3B6 SWAP2 SWAP1 PUSH2 0x7EA JUMP JUMPDEST SWAP1 POP JUMPDEST PUSH1 0x2 DUP3 LT PUSH2 0x3D1 JUMPI PUSH1 0x1 DUP2 PUSH2 0x3CE SWAP2 SWAP1 PUSH2 0x7EA JUMP JUMPDEST SWAP1 POP JUMPDEST PUSH1 0x12 PUSH1 0xA PUSH2 0x3DF SWAP2 SWAP1 PUSH2 0x8C4 JUMP JUMPDEST DUP2 PUSH2 0x3EA SWAP2 SWAP1 PUSH2 0x9E2 JUMP JUMPDEST SWAP1 POP PUSH1 0x12 PUSH1 0xA PUSH2 0x3FA SWAP2 SWAP1 PUSH2 0x8C4 JUMP JUMPDEST DUP2 PUSH2 0x405 SWAP2 SWAP1 PUSH2 0x840 JUMP JUMPDEST PUSH1 0x2 PUSH2 0x411 SWAP2 SWAP1 PUSH2 0x8C4 JUMP JUMPDEST DUP5 PUSH2 0x41C SWAP2 SWAP1 PUSH2 0x840 JUMP JUMPDEST SWAP2 POP PUSH1 0x0 DUP1 PUSH1 0x12 PUSH1 0xA PUSH2 0x42F SWAP2 SWAP1 PUSH2 0x8C4 JUMP JUMPDEST SWAP1 POP JUMPDEST PUSH1 0x0 DUP2 GT ISZERO PUSH2 0x4B3 JUMPI PUSH1 0x12 PUSH1 0xA PUSH2 0x449 SWAP2 SWAP1 PUSH2 0x8C4 JUMP JUMPDEST PUSH1 0x2 PUSH2 0x455 SWAP2 SWAP1 PUSH2 0x9E2 JUMP JUMPDEST DUP5 LT PUSH2 0x479 JUMPI DUP1 DUP3 PUSH2 0x467 SWAP2 SWAP1 PUSH2 0x7EA JUMP JUMPDEST SWAP2 POP PUSH1 0x2 DUP5 PUSH2 0x476 SWAP2 SWAP1 PUSH2 0x840 JUMP JUMPDEST SWAP4 POP JUMPDEST PUSH1 0x12 PUSH1 0xA PUSH2 0x487 SWAP2 SWAP1 PUSH2 0x8C4 JUMP JUMPDEST DUP5 DUP6 PUSH2 0x493 SWAP2 SWAP1 PUSH2 0x9E2 JUMP JUMPDEST PUSH2 0x49D SWAP2 SWAP1 PUSH2 0x840 JUMP JUMPDEST SWAP4 POP PUSH1 0x2 DUP2 PUSH2 0x4AC SWAP2 SWAP1 PUSH2 0x840 JUMP JUMPDEST SWAP1 POP PUSH2 0x432 JUMP JUMPDEST POP DUP2 DUP2 PUSH2 0x4C0 SWAP2 SWAP1 PUSH2 0x7EA JUMP JUMPDEST SWAP4 POP POP POP POP SWAP2 SWAP1 POP JUMP JUMPDEST PUSH1 0x0 DUP1 PUSH1 0x12 PUSH1 0xA PUSH2 0x4DB SWAP2 SWAP1 PUSH2 0x8C4 JUMP JUMPDEST DUP4 PUSH2 0x4E6 SWAP2 SWAP1 PUSH2 0x840 JUMP JUMPDEST SWAP1 POP PUSH1 0x0 PUSH1 0x12 PUSH1 0xA PUSH2 0x4F8 SWAP2 SWAP1 PUSH2 0x8C4 JUMP JUMPDEST DUP5 PUSH2 0x503 SWAP2 SWAP1 PUSH2 0xAC3 JUMP JUMPDEST SWAP1 POP PUSH1 0x0 DUP3 PUSH1 0x2 PUSH2 0x514 SWAP2 SWAP1 PUSH2 0x8C4 JUMP JUMPDEST SWAP1 POP PUSH1 0x0 PUSH1 0x12 PUSH1 0xA PUSH2 0x526 SWAP2 SWAP1 PUSH2 0x8C4 JUMP JUMPDEST SWAP1 POP PUSH1 0x0 JUMPDEST PUSH1 0x3E DUP2 LT ISZERO PUSH2 0x589 JUMPI PUSH1 0x0 DUP5 PUSH2 0x540 DUP4 PUSH2 0x65B JUMP JUMPDEST AND GT ISZERO PUSH2 0x576 JUMPI PUSH1 0x12 PUSH1 0xA PUSH2 0x555 SWAP2 SWAP1 PUSH2 0x8C4 JUMP JUMPDEST PUSH2 0x55E DUP3 PUSH2 0x6B6 JUMP JUMPDEST DUP4 PUSH2 0x569 SWAP2 SWAP1 PUSH2 0x9E2 JUMP JUMPDEST PUSH2 0x573 SWAP2 SWAP1 PUSH2 0x840 JUMP JUMPDEST SWAP2 POP JUMPDEST DUP1 DUP1 PUSH2 0x581 SWAP1 PUSH2 0xA7A JUMP JUMPDEST SWAP2 POP POP PUSH2 0x52B JUMP JUMPDEST POP DUP1 DUP3 PUSH2 0x596 SWAP2 SWAP1 PUSH2 0x9E2 JUMP JUMPDEST SWAP5 POP POP POP POP POP SWAP2 SWAP1 POP JUMP JUMPDEST PUSH1 0x0 DUP1 PUSH1 0x40 MLOAD DUP1 PUSH1 0x60 ADD PUSH1 0x40 MSTORE DUP1 PUSH1 0x28 DUP2 MSTORE PUSH1 0x20 ADD PUSH2 0xD67 PUSH1 0x28 SWAP2 CODECOPY SWAP1 POP PUSH1 0x0 PUSH1 0x8 DUP5 PUSH1 0x8 PUSH2 0x5D0 SWAP2 SWAP1 PUSH2 0x9E2 JUMP JUMPDEST PUSH2 0x5DA SWAP2 SWAP1 PUSH2 0x7EA JUMP JUMPDEST SWAP1 POP PUSH1 0x0 DUP2 DUP4 ADD MLOAD SWAP1 POP DUP1 PUSH8 0xFFFFFFFFFFFFFFFF AND SWAP4 POP POP POP POP SWAP2 SWAP1 POP JUMP JUMPDEST PUSH1 0x0 DUP1 PUSH1 0x12 PUSH1 0xA PUSH2 0x60A SWAP2 SWAP1 PUSH2 0x8C4 JUMP JUMPDEST SWAP1 POP PUSH1 0x0 JUMPDEST DUP4 DUP2 LT ISZERO PUSH2 0x650 JUMPI PUSH1 0x12 PUSH1 0xA PUSH2 0x625 SWAP2 SWAP1 PUSH2 0x8C4 JUMP JUMPDEST DUP6 DUP4 PUSH2 0x631 SWAP2 SWAP1 PUSH2 0x9E2 JUMP JUMPDEST PUSH2 0x63B SWAP2 SWAP1 PUSH2 0x840 JUMP JUMPDEST SWAP2 POP DUP1 DUP1 PUSH2 0x648 SWAP1 PUSH2 0xA7A JUMP JUMPDEST SWAP2 POP POP PUSH2 0x60F JUMP JUMPDEST POP DUP1 SWAP2 POP POP SWAP3 SWAP2 POP POP JUMP JUMPDEST PUSH1 0x0 DUP1 PUSH1 0x40 MLOAD DUP1 PUSH2 0x220 ADD PUSH1 0x40 MSTORE DUP1 PUSH2 0x1F0 DUP2 MSTORE PUSH1 0x20 ADD PUSH2 0xB77 PUSH2 0x1F0 SWAP2 CODECOPY SWAP1 POP PUSH1 0x0 PUSH1 0x8 DUP5 PUSH1 0x8 PUSH2 0x68D SWAP2 SWAP1 PUSH2 0x9E2 JUMP JUMPDEST PUSH2 0x697 SWAP2 SWAP1 PUSH2 0x7EA JUMP JUMPDEST SWAP1 POP PUSH1 0x0 DUP2 DUP4 ADD MLOAD SWAP1 POP DUP1 PUSH8 0xFFFFFFFFFFFFFFFF AND SWAP4 POP POP POP POP SWAP2 SWAP1 POP JUMP JUMPDEST PUSH1 0x0 DUP1 PUSH1 0x40 MLOAD DUP1 PUSH2 0x220 ADD PUSH1 0x40 MSTORE DUP1 PUSH2 0x1F0 DUP2 MSTORE PUSH1 0x20 ADD PUSH2 0xD8F PUSH2 0x1F0 SWAP2 CODECOPY SWAP1 POP PUSH1 0x0 PUSH1 0x8 DUP5 PUSH1 0x8 PUSH2 0x6E8 SWAP2 SWAP1 PUSH2 0x9E2 JUMP JUMPDEST PUSH2 0x6F2 SWAP2 SWAP1 PUSH2 0x7EA JUMP JUMPDEST SWAP1 POP PUSH1 0x0 DUP2 DUP4 ADD MLOAD SWAP1 POP DUP1 PUSH8 0xFFFFFFFFFFFFFFFF AND SWAP4 POP POP POP POP SWAP2 SWAP1 POP JUMP JUMPDEST PUSH1 0x0 DUP2 CALLDATALOAD SWAP1 POP PUSH2 0x720 DUP2 PUSH2 0xB5F JUMP JUMPDEST SWAP3 SWAP2 POP POP JUMP JUMPDEST PUSH1 0x0 PUSH1 0x20 DUP3 DUP5 SUB SLT ISZERO PUSH2 0x738 JUMPI PUSH1 0x0 DUP1 REVERT JUMPDEST PUSH1 0x0 PUSH2 0x746 DUP5 DUP3 DUP6 ADD PUSH2 0x711 JUMP JUMPDEST SWAP2 POP POP SWAP3 SWAP2 POP POP JUMP JUMPDEST PUSH1 0x0 PUSH2 0x75C PUSH1 0x1C DUP4 PUSH2 0x7D9 JUMP JUMPDEST SWAP2 POP PUSH32 0x6C6F6761726974686D3A206F706572616E6420746F6F20736D616C6C00000000 PUSH1 0x0 DUP4 ADD MSTORE PUSH1 0x20 DUP3 ADD SWAP1 POP SWAP2 SWAP1 POP JUMP JUMPDEST PUSH2 0x798 DUP2 PUSH2 0xA70 JUMP JUMPDEST DUP3 MSTORE POP POP JUMP JUMPDEST PUSH1 0x0 PUSH1 0x20 DUP3 ADD SWAP1 POP DUP2 DUP2 SUB PUSH1 0x0 DUP4 ADD MSTORE PUSH2 0x7B7 DUP2 PUSH2 0x74F JUMP JUMPDEST SWAP1 POP SWAP2 SWAP1 POP JUMP JUMPDEST PUSH1 0x0 PUSH1 0x20 DUP3 ADD SWAP1 POP PUSH2 0x7D3 PUSH1 0x0 DUP4 ADD DUP5 PUSH2 0x78F JUMP JUMPDEST SWAP3 SWAP2 POP POP JUMP JUMPDEST PUSH1 0x0 DUP3 DUP3 MSTORE PUSH1 0x20 DUP3 ADD SWAP1 POP SWAP3 SWAP2 POP POP JUMP JUMPDEST PUSH1 0x0 PUSH2 0x7F5 DUP3 PUSH2 0xA70 JUMP JUMPDEST SWAP2 POP PUSH2 0x800 DUP4 PUSH2 0xA70 JUMP JUMPDEST SWAP3 POP DUP3 PUSH32 0xFFFFFFFFFFFFFFFFFFFFFFFFFFFFFFFFFFFFFFFFFFFFFFFFFFFFFFFFFFFFFFFF SUB DUP3 GT ISZERO PUSH2 0x835 JUMPI PUSH2 0x834 PUSH2 0xAF4 JUMP JUMPDEST JUMPDEST DUP3 DUP3 ADD SWAP1 POP SWAP3 SWAP2 POP POP JUMP JUMPDEST PUSH1 0x0 PUSH2 0x84B DUP3 PUSH2 0xA70 JUMP JUMPDEST SWAP2 POP PUSH2 0x856 DUP4 PUSH2 0xA70 JUMP JUMPDEST SWAP3 POP DUP3 PUSH2 0x866 JUMPI PUSH2 0x865 PUSH2 0xB23 JUMP JUMPDEST JUMPDEST DUP3 DUP3 DIV SWAP1 POP SWAP3 SWAP2 POP POP JUMP JUMPDEST PUSH1 0x0 DUP1 DUP3 SWAP2 POP DUP4 SWAP1 POP JUMPDEST PUSH1 0x1 DUP6 GT ISZERO PUSH2 0x8BB JUMPI DUP1 DUP7 DIV DUP2 GT ISZERO PUSH2 0x897 JUMPI PUSH2 0x896 PUSH2 0xAF4 JUMP JUMPDEST JUMPDEST PUSH1 0x1 DUP6 AND ISZERO PUSH2 0x8A6 JUMPI DUP1 DUP3 MUL SWAP2 POP JUMPDEST DUP1 DUP2 MUL SWAP1 POP PUSH2 0x8B4 DUP6 PUSH2 0xB52 JUMP JUMPDEST SWAP5 POP PUSH2 0x87B JUMP JUMPDEST SWAP5 POP SWAP5 SWAP3 POP POP POP JUMP JUMPDEST PUSH1 0x0 PUSH2 0x8CF DUP3 PUSH2 0xA70 JUMP JUMPDEST SWAP2 POP PUSH2 0x8DA DUP4 PUSH2 0xA70 JUMP JUMPDEST SWAP3 POP PUSH2 0x907 PUSH32 0xFFFFFFFFFFFFFFFFFFFFFFFFFFFFFFFFFFFFFFFFFFFFFFFFFFFFFFFFFFFFFFFF DUP5 DUP5 PUSH2 0x90F JUMP JUMPDEST SWAP1 POP SWAP3 SWAP2 POP POP JUMP JUMPDEST PUSH1 0x0 DUP3 PUSH2 0x91F JUMPI PUSH1 0x1 SWAP1 POP PUSH2 0x9DB JUMP JUMPDEST DUP2 PUSH2 0x92D JUMPI PUSH1 0x0 SWAP1 POP PUSH2 0x9DB JUMP JUMPDEST DUP2 PUSH1 0x1 DUP2 EQ PUSH2 0x943 JUMPI PUSH1 0x2 DUP2 EQ PUSH2 0x94D JUMPI PUSH2 0x97C JUMP JUMPDEST PUSH1 0x1 SWAP2 POP POP PUSH2 0x9DB JUMP JUMPDEST PUSH1 0xFF DUP5 GT ISZERO PUSH2 0x95F JUMPI PUSH2 0x95E PUSH2 0xAF4 JUMP JUMPDEST JUMPDEST DUP4 PUSH1 0x2 EXP SWAP2 POP DUP5 DUP3 GT ISZERO PUSH2 0x976 JUMPI PUSH2 0x975 PUSH2 0xAF4 JUMP JUMPDEST JUMPDEST POP PUSH2 0x9DB JUMP JUMPDEST POP PUSH1 0x20 DUP4 LT PUSH2 0x133 DUP4 LT AND PUSH1 0x4E DUP5 LT PUSH1 0xB DUP5 LT AND OR ISZERO PUSH2 0x9B1 JUMPI DUP3 DUP3 EXP SWAP1 POP DUP4 DUP2 GT ISZERO PUSH2 0x9AC JUMPI PUSH2 0x9AB PUSH2 0xAF4 JUMP JUMPDEST JUMPDEST PUSH2 0x9DB JUMP JUMPDEST PUSH2 0x9BE DUP5 DUP5 DUP5 PUSH1 0x1 PUSH2 0x871 JUMP JUMPDEST SWAP3 POP SWAP1 POP DUP2 DUP5 DIV DUP2 GT ISZERO PUSH2 0x9D5 JUMPI PUSH2 0x9D4 PUSH2 0xAF4 JUMP JUMPDEST JUMPDEST DUP2 DUP2 MUL SWAP1 POP JUMPDEST SWAP4 SWAP3 POP POP POP JUMP JUMPDEST PUSH1 0x0 PUSH2 0x9ED DUP3 PUSH2 0xA70 JUMP JUMPDEST SWAP2 POP PUSH2 0x9F8 DUP4 PUSH2 0xA70 JUMP JUMPDEST SWAP3 POP DUP2 PUSH32 0xFFFFFFFFFFFFFFFFFFFFFFFFFFFFFFFFFFFFFFFFFFFFFFFFFFFFFFFFFFFFFFFF DIV DUP4 GT DUP3 ISZERO ISZERO AND ISZERO PUSH2 0xA31 JUMPI PUSH2 0xA30 PUSH2 0xAF4 JUMP JUMPDEST JUMPDEST DUP3 DUP3 MUL SWAP1 POP SWAP3 SWAP2 POP POP JUMP JUMPDEST PUSH1 0x0 PUSH2 0xA47 DUP3 PUSH2 0xA70 JUMP JUMPDEST SWAP2 POP PUSH2 0xA52 DUP4 PUSH2 0xA70 JUMP JUMPDEST SWAP3 POP DUP3 DUP3 LT ISZERO PUSH2 0xA65 JUMPI PUSH2 0xA64 PUSH2 0xAF4 JUMP JUMPDEST JUMPDEST DUP3 DUP3 SUB SWAP1 POP SWAP3 SWAP2 POP POP JUMP JUMPDEST PUSH1 0x0 DUP2 SWAP1 POP SWAP2 SWAP1 POP JUMP JUMPDEST PUSH1 0x0 PUSH2 0xA85 DUP3 PUSH2 0xA70 JUMP JUMPDEST SWAP2 POP PUSH32 0xFFFFFFFFFFFFFFFFFFFFFFFFFFFFFFFFFFFFFFFFFFFFFFFFFFFFFFFFFFFFFFFF DUP3 EQ ISZERO PUSH2 0xAB8 JUMPI PUSH2 0xAB7 PUSH2 0xAF4 JUMP JUMPDEST JUMPDEST PUSH1 0x1 DUP3 ADD SWAP1 POP SWAP2 SWAP1 POP JUMP JUMPDEST PUSH1 0x0 PUSH2 0xACE DUP3 PUSH2 0xA70 JUMP JUMPDEST SWAP2 POP PUSH2 0xAD9 DUP4 PUSH2 0xA70 JUMP JUMPDEST SWAP3 POP DUP3 PUSH2 0xAE9 JUMPI PUSH2 0xAE8 PUSH2 0xB23 JUMP JUMPDEST JUMPDEST DUP3 DUP3 MOD SWAP1 POP SWAP3 SWAP2 POP POP JUMP JUMPDEST PUSH32 0x4E487B7100000000000000000000000000000000000000000000000000000000 PUSH1 0x0 MSTORE PUSH1 0x11 PUSH1 0x4 MSTORE PUSH1 0x24 PUSH1 0x0 REVERT JUMPDEST PUSH32 0x4E487B7100000000000000000000000000000000000000000000000000000000 PUSH1 0x0 MSTORE PUSH1 0x12 PUSH1 0x4 MSTORE PUSH1 0x24 PUSH1 0x0 REVERT JUMPDEST PUSH1 0x0 DUP2 PUSH1 0x1 SHR SWAP1 POP SWAP2 SWAP1 POP JUMP JUMPDEST PUSH2 0xB68 DUP2 PUSH2 0xA70 JUMP JUMPDEST DUP2 EQ PUSH2 0xB73 JUMPI PUSH1 0x0 DUP1 REVERT JUMPDEST POP JUMP INVALID STOP STOP STOP STOP STOP STOP STOP ADD STOP STOP STOP STOP STOP STOP STOP MUL STOP STOP STOP STOP STOP STOP STOP DIV STOP STOP STOP STOP STOP STOP STOP ADDMOD STOP STOP STOP STOP STOP STOP STOP LT STOP STOP STOP STOP STOP STOP STOP KECCAK256 STOP STOP STOP STOP STOP STOP STOP BLOCKHASH STOP STOP STOP STOP STOP STOP STOP DUP1 STOP STOP STOP STOP STOP STOP ADD STOP STOP STOP STOP STOP STOP STOP MUL STOP STOP STOP STOP STOP STOP STOP DIV STOP STOP STOP STOP STOP STOP STOP ADDMOD STOP STOP STOP STOP STOP STOP STOP LT STOP STOP STOP STOP STOP STOP STOP KECCAK256 STOP STOP STOP STOP STOP STOP STOP BLOCKHASH STOP STOP STOP STOP STOP STOP STOP DUP1 STOP STOP STOP STOP STOP STOP ADD STOP STOP STOP STOP STOP STOP STOP MUL STOP STOP STOP STOP STOP STOP STOP DIV STOP STOP STOP STOP STOP STOP STOP ADDMOD STOP STOP STOP STOP STOP STOP STOP LT STOP STOP STOP STOP STOP STOP STOP KECCAK256 STOP STOP STOP STOP STOP STOP STOP BLOCKHASH STOP STOP STOP STOP STOP STOP STOP DUP1 STOP STOP STOP STOP STOP STOP ADD STOP STOP STOP STOP STOP STOP STOP MUL STOP STOP STOP STOP STOP STOP STOP DIV STOP STOP STOP STOP STOP STOP STOP ADDMOD STOP STOP STOP STOP STOP STOP STOP LT STOP STOP STOP STOP STOP STOP STOP KECCAK256 STOP STOP STOP STOP STOP STOP STOP BLOCKHASH STOP STOP STOP STOP STOP STOP STOP DUP1 STOP STOP STOP STOP STOP STOP ADD STOP STOP STOP STOP STOP STOP STOP MUL STOP STOP STOP STOP STOP STOP STOP DIV STOP STOP STOP STOP STOP STOP STOP ADDMOD STOP STOP STOP STOP STOP STOP STOP LT STOP STOP STOP STOP STOP STOP STOP KECCAK256 STOP STOP STOP STOP STOP STOP STOP BLOCKHASH STOP STOP STOP STOP STOP STOP STOP DUP1 STOP STOP STOP STOP STOP STOP ADD STOP STOP STOP STOP STOP STOP STOP MUL STOP STOP STOP STOP STOP STOP STOP DIV STOP STOP STOP STOP STOP STOP STOP ADDMOD STOP STOP STOP STOP STOP STOP STOP LT STOP STOP STOP STOP STOP STOP STOP KECCAK256 STOP STOP STOP STOP STOP STOP STOP BLOCKHASH STOP STOP STOP STOP STOP STOP STOP DUP1 STOP STOP STOP STOP STOP STOP ADD STOP STOP STOP STOP STOP STOP STOP MUL STOP STOP STOP STOP STOP STOP STOP DIV STOP STOP STOP STOP STOP STOP STOP ADDMOD STOP STOP STOP STOP STOP STOP STOP LT STOP STOP STOP STOP STOP STOP STOP KECCAK256 STOP STOP STOP STOP STOP STOP STOP BLOCKHASH STOP STOP STOP STOP STOP STOP STOP DUP1 STOP STOP STOP STOP STOP STOP ADD STOP STOP STOP STOP STOP STOP STOP MUL STOP STOP STOP STOP STOP STOP STOP DIV STOP STOP STOP STOP STOP STOP STOP ADDMOD STOP STOP STOP STOP STOP STOP STOP LT STOP STOP STOP STOP STOP STOP STOP KECCAK256 STOP STOP STOP STOP STOP STOP STOP MOD CREATE JUMPDEST MSIZE 0xD3 0xB2 STOP STOP ADD DUP11 0xBE 0xF7 DUP5 PUSH1 0x71 0xC0 STOP BALANCE JUMPI 0xDE CREATE DUP13 0xE CODESIZE STOP SUB DUP7 CHAINID 0xC8 EXP ADD DIV STOP STOP 0x1E SGT PUSH14 0x11666F0DE0B6B3A76400000DE0B6 0xB3 0xA7 PUSH5 0x10DE0B6 0xB3 0xA7 PUSH5 0x20DE0B6 0xB3 0xA7 PUSH5 0x50DE0B6 0xB3 0xA7 PUSH5 0xB0DE0B6 0xB3 0xA7 PUSH5 0x160DE0B6 0xB3 0xA7 PUSH5 0x2C0DE0B6 0xB3 0xA7 PUSH5 0x580DE0B6 0xB3 0xA7 PUSH5 0xB10DE0B6 0xB3 0xA7 PUSH5 0x1620DE0B6 0xB3 0xA7 PUSH5 0x2C50DE0B6 0xB3 0xA7 PUSH5 0x58B0DE0B6 0xB3 0xA7 PUSH5 0xB170DE0B6 0xB3 0xA7 PUSH5 0x162E0DE0B6 0xB3 0xA7 PUSH5 0x2C5C0DE0B6 0xB3 0xA7 PUSH5 0x58B90DE0B6 0xB3 0xA7 PUSH5 0xB1720DE0B6 0xB3 0xA7 PUSH6 0x62E40DE0B6B3 0xA7 PUSH7 0xC5C80DE0B6B3A7 PUSH10 0x8B900DE0B6B3A76F1721 0xD 0xE0 0xB6 0xB3 0xA7 PUSH27 0x2E420DE0B6B3A7905C850DE0B6B3A7BCB90B0DE0B6B3A81572170D 0xE0 0xB6 0xB3 0xA8 0xC6 0xE4 0x2F 0xD 0xE0 0xB6 0xB3 0xAA 0x29 0xC8 0x5F 0xD 0xE0 0xB6 0xB3 0xAC 0xEF SWAP1 0xBF 0xD 0xE0 0xB6 0xB3 0xB2 PUSH28 0x217F0DE0B6B3BD9242FF0DE0B6B3D3C085FE0DE0B6B4001D0BFD0DE0 0xB6 0xB4 PC 0xD6 OR 0xFC 0xD 0xE0 0xB6 0xB5 EXP 0x48 ADDRESS ADD 0xD 0xE0 0xB6 0xB6 PUSH14 0x2C60260DE0B6B932F4C0DA0DE0B6 0xBE 0xBE DUP6 DUP4 0xEB 0xD 0xE0 0xB6 0xC9 0xD5 0xA7 LT 0xB3 0xD 0xE0 0xB6 0xE0 SUB 0xEA DIFFICULTY 0xDB 0xD 0xE0 0xB7 0xC PUSH1 0x71 OR DUP5 0xD 0xE0 0xB7 PUSH6 0x198066410DE0 0xB8 AND DUP12 0xA5 0xA9 PUSH5 0xDE0B97970 EXP 0xC6 0x4C 0xD 0xE0 0xBC EXTCODEHASH CODECOPY EXTCODEHASH GAS 0xB5 0xD 0xE0 0xC1 0xCA 0xCD MLOAD 0xEE MSTORE 0xD 0xE0 0xCC 0xE1 0xFC SHR 0xC3 0xC6 0xD 0xE0 0xE3 LT PUSH21 0x49406E0DE10F6DCEFE47050DE1682A2DDEBC000DE2 NOT 0xA9 SWAP2 0xAA 0xDB SWAP4 0xD 0xE3 PUSH29 0xC2F2FCB7380DE6436028EE3A220DEBD244C555D3B40DF6F6B9DBCC5F41 0xE 0xD GAS PUSH13 0x6EA8A8410E3A8DBBD2B7E9D50E SWAP7 0xAA JUMPDEST 0xB8 PUSH29 0x13840F55EF96062919DD10F25DB82C317EA514B1C2442FFABE3C1EDBF2 0x5D 0xE7 0xA7 0xF PUSH19 0x449E9DD02D2817D4A264697066735822122020 0xBB PUSH4 0x8F1311AD PUSH4 0xCFA6F7F1 0xD0 0x2B SLT PUSH26 0xC98D82C0202D89B21D70CE0F6BADF49664736F6C634300080000 CALLER "
        },
        "methodIdentifiers": {
          "exponentiate(uint256)": "9fdfe442",
          "logarithm(uint256)": "6ca34af7",
          "padeExponentiate(uint256)": "0a41b60d"
        }
      }
    }
  }
}