{
  "hardhat/contracts/MathHarness.sol": {
    "MathHarness": {
      "abi": [
        {
          "inputs": [
            {
              "internalType": "uint256",
              "name": "index",
              "type": "uint256"
            }
          ],
          "name": "exponent_table_lookup",
          "outputs": [
            {
              "internalType": "uint256",
              "name": "",
              "type": "uint256"
            }
          ],
          "stateMutability": "pure",
          "type": "function"
        },
        {
          "inputs": [
            {
              "internalType": "uint256",
              "name": "exponent",
              "type": "uint256"
            }
          ],
          "name": "exponentiate",
          "outputs": [
            {
              "internalType": "uint256",
              "name": "",
              "type": "uint256"
            }
          ],
          "stateMutability": "pure",
          "type": "function"
        },
        {
          "inputs": [
            {
              "internalType": "uint256",
              "name": "operand",
              "type": "uint256"
            }
          ],
          "name": "logarithm",
          "outputs": [
            {
              "internalType": "uint256",
              "name": "",
              "type": "uint256"
            }
          ],
          "stateMutability": "pure",
          "type": "function"
        },
        {
          "inputs": [
            {
              "internalType": "uint256",
              "name": "index",
              "type": "uint256"
            }
          ],
          "name": "power_of_two_lookup",
          "outputs": [
            {
              "internalType": "uint256",
              "name": "",
              "type": "uint256"
            }
          ],
          "stateMutability": "pure",
          "type": "function"
        }
      ],
      "evm": {
        "bytecode": {
          "linkReferences": {},
          "object": "608060405234801561001057600080fd5b50610d99806100206000396000f3fe608060405234801561001057600080fd5b506004361061004c5760003560e01c80631818bb3e1461005157806361c76f89146100815780636ca34af7146100b15780639fdfe442146100e1575b600080fd5b61006b60048036038101906100669190610567565b610111565b60405161007891906105ff565b60405180910390f35b61009b60048036038101906100969190610567565b610123565b6040516100a891906105ff565b60405180910390f35b6100cb60048036038101906100c69190610567565b610135565b6040516100d891906105ff565b60405180910390f35b6100fb60048036038101906100f69190610567565b610147565b60405161010891906105ff565b60405180910390f35b600061011c82610159565b9050919050565b600061012e826101b4565b9050919050565b60006101408261020f565b9050919050565b60006101528261047b565b9050919050565b6000806040518061022001604052806101f081526020016109846101f0913990506000600884600861018b9190610823565b610195919061062b565b905060008183015190508067ffffffffffffffff169350505050919050565b6000806040518061022001604052806101f08152602001610b746101f091399050600060088460086101e69190610823565b6101f0919061062b565b905060008183015190508067ffffffffffffffff169350505050919050565b6000806012600a6102209190610705565b8361022b9190610681565b905060008111610270576040517f08c379a0000000000000000000000000000000000000000000000000000000008152600401610267906105df565b60405180910390fd5b600070010000000000000000000000000000000082106102a157608082901c915060808161029e919061062b565b90505b6801000000000000000082106102c857604082901c91506040816102c5919061062b565b90505b64010000000082106102eb57602082901c91506020816102e8919061062b565b90505b62010000821061030c57601082901c9150601081610309919061062b565b90505b610100821061032c57600882901c9150600881610329919061062b565b90505b6010821061034b57600482901c9150600481610348919061062b565b90505b6004821061036a57600282901c9150600281610367919061062b565b90505b600282106103825760018161037f919061062b565b90505b6012600a6103909190610705565b8161039b9190610823565b90506012600a6103ab9190610705565b816103b69190610681565b60026103c29190610705565b846103cd9190610681565b91506000806012600a6103e09190610705565b90505b6000811115610464576012600a6103fa9190610705565b60026104069190610823565b841061042a578082610418919061062b565b91506002846104279190610681565b93505b6012600a6104389190610705565b84856104449190610823565b61044e9190610681565b935060028161045d9190610681565b90506103e3565b508181610471919061062b565b9350505050919050565b6000806012600a61048c9190610705565b836104979190610681565b905060006012600a6104a99190610705565b846104b491906108d0565b905060008260026104c59190610705565b905060006012600a6104d79190610705565b905060005b603e81101561053a576000846104f183610159565b161115610527576012600a6105069190610705565b61050f826101b4565b8361051a9190610823565b6105249190610681565b91505b808061053290610887565b9150506104dc565b5080826105479190610823565b945050505050919050565b6000813590506105618161096c565b92915050565b60006020828403121561057957600080fd5b600061058784828501610552565b91505092915050565b600061059d601c8361061a565b91507f6c6f6761726974686d3a206f706572616e6420746f6f20736d616c6c000000006000830152602082019050919050565b6105d98161087d565b82525050565b600060208201905081810360008301526105f881610590565b9050919050565b600060208201905061061460008301846105d0565b92915050565b600082825260208201905092915050565b60006106368261087d565b91506106418361087d565b9250827fffffffffffffffffffffffffffffffffffffffffffffffffffffffffffffffff0382111561067657610675610901565b5b828201905092915050565b600061068c8261087d565b91506106978361087d565b9250826106a7576106a6610930565b5b828204905092915050565b6000808291508390505b60018511156106fc578086048111156106d8576106d7610901565b5b60018516156106e75780820291505b80810290506106f58561095f565b94506106bc565b94509492505050565b60006107108261087d565b915061071b8361087d565b92506107487fffffffffffffffffffffffffffffffffffffffffffffffffffffffffffffffff8484610750565b905092915050565b600082610760576001905061081c565b8161076e576000905061081c565b8160018114610784576002811461078e576107bd565b600191505061081c565b60ff8411156107a05761079f610901565b5b8360020a9150848211156107b7576107b6610901565b5b5061081c565b5060208310610133831016604e8410600b84101617156107f25782820a9050838111156107ed576107ec610901565b5b61081c565b6107ff84848460016106b2565b9250905081840481111561081657610815610901565b5b81810290505b9392505050565b600061082e8261087d565b91506108398361087d565b9250817fffffffffffffffffffffffffffffffffffffffffffffffffffffffffffffffff048311821515161561087257610871610901565b5b828202905092915050565b6000819050919050565b60006108928261087d565b91507fffffffffffffffffffffffffffffffffffffffffffffffffffffffffffffffff8214156108c5576108c4610901565b5b600182019050919050565b60006108db8261087d565b91506108e68361087d565b9250826108f6576108f5610930565b5b828206905092915050565b7f4e487b7100000000000000000000000000000000000000000000000000000000600052601160045260246000fd5b7f4e487b7100000000000000000000000000000000000000000000000000000000600052601260045260246000fd5b60008160011c9050919050565b6109758161087d565b811461098057600080fd5b5056fe000000000000000100000000000000020000000000000004000000000000000800000000000000100000000000000020000000000000004000000000000000800000000000000100000000000000020000000000000004000000000000000800000000000000100000000000000020000000000000004000000000000000800000000000000100000000000000020000000000000004000000000000000800000000000000100000000000000020000000000000004000000000000000800000000000000100000000000000020000000000000004000000000000000800000000000000100000000000000020000000000000004000000000000000800000000000000100000000000000020000000000000004000000000000000800000000000000100000000000000020000000000000004000000000000000800000000000000100000000000000020000000000000004000000000000000800000000000000100000000000000020000000000000004000000000000000800000000000000100000000000000020000000000000004000000000000000800000000000000100000000000000020000000000000004000000000000000800000000000000100000000000000020000000000000004000000000000000800000000000000100000000000000020000000000000000de0b6b3a76400000de0b6b3a76400010de0b6b3a76400020de0b6b3a76400050de0b6b3a764000b0de0b6b3a76400160de0b6b3a764002c0de0b6b3a76400580de0b6b3a76400b10de0b6b3a76401620de0b6b3a76402c50de0b6b3a764058b0de0b6b3a7640b170de0b6b3a764162e0de0b6b3a7642c5c0de0b6b3a76458b90de0b6b3a764b1720de0b6b3a76562e40de0b6b3a766c5c80de0b6b3a7698b900de0b6b3a76f17210de0b6b3a77a2e420de0b6b3a7905c850de0b6b3a7bcb90b0de0b6b3a81572170de0b6b3a8c6e42f0de0b6b3aa29c85f0de0b6b3acef90bf0de0b6b3b27b217f0de0b6b3bd9242ff0de0b6b3d3c085fe0de0b6b4001d0bfd0de0b6b458d617fc0de0b6b50a4830010de0b6b66d2c60260de0b6b932f4c0da0de0b6bebe8583eb0de0b6c9d5a710b30de0b6e003ea44db0de0b70c607117840de0b765198066410de0b8168ba5a9640de0b979700ac64c0de0bc3f393f5ab50de0c1cacd51ee520de0cce1fc1cc3c60de0e3107449406e0de10f6dcefe47050de1682a2ddebc000de219a991aadb930de37cc2f2fcb7380de6436028ee3a220debd244c555d3b40df6f6b9dbcc5f410e0d5a6c6ea8a8410e3a8dbbd2b7e9d50e96aa5bb87c13840f55ef96062919dd10f25db82c317ea514b1c2442ffabe3c1edbf25de7a70f72449e9dd02d2817d4a2646970667358221220a776ad886fa8bb4cb9a8391dcaf1d1a2caa995e31ec8b10d76efdf0d771704fa64736f6c63430008000033",
          "opcodes": "PUSH1 0x80 PUSH1 0x40 MSTORE CALLVALUE DUP1 ISZERO PUSH2 0x10 JUMPI PUSH1 0x0 DUP1 REVERT JUMPDEST POP PUSH2 0xD99 DUP1 PUSH2 0x20 PUSH1 0x0 CODECOPY PUSH1 0x0 RETURN INVALID PUSH1 0x80 PUSH1 0x40 MSTORE CALLVALUE DUP1 ISZERO PUSH2 0x10 JUMPI PUSH1 0x0 DUP1 REVERT JUMPDEST POP PUSH1 0x4 CALLDATASIZE LT PUSH2 0x4C JUMPI PUSH1 0x0 CALLDATALOAD PUSH1 0xE0 SHR DUP1 PUSH4 0x1818BB3E EQ PUSH2 0x51 JUMPI DUP1 PUSH4 0x61C76F89 EQ PUSH2 0x81 JUMPI DUP1 PUSH4 0x6CA34AF7 EQ PUSH2 0xB1 JUMPI DUP1 PUSH4 0x9FDFE442 EQ PUSH2 0xE1 JUMPI JUMPDEST PUSH1 0x0 DUP1 REVERT JUMPDEST PUSH2 0x6B PUSH1 0x4 DUP1 CALLDATASIZE SUB DUP2 ADD SWAP1 PUSH2 0x66 SWAP2 SWAP1 PUSH2 0x567 JUMP JUMPDEST PUSH2 0x111 JUMP JUMPDEST PUSH1 0x40 MLOAD PUSH2 0x78 SWAP2 SWAP1 PUSH2 0x5FF JUMP JUMPDEST PUSH1 0x40 MLOAD DUP1 SWAP2 SUB SWAP1 RETURN JUMPDEST PUSH2 0x9B PUSH1 0x4 DUP1 CALLDATASIZE SUB DUP2 ADD SWAP1 PUSH2 0x96 SWAP2 SWAP1 PUSH2 0x567 JUMP JUMPDEST PUSH2 0x123 JUMP JUMPDEST PUSH1 0x40 MLOAD PUSH2 0xA8 SWAP2 SWAP1 PUSH2 0x5FF JUMP JUMPDEST PUSH1 0x40 MLOAD DUP1 SWAP2 SUB SWAP1 RETURN JUMPDEST PUSH2 0xCB PUSH1 0x4 DUP1 CALLDATASIZE SUB DUP2 ADD SWAP1 PUSH2 0xC6 SWAP2 SWAP1 PUSH2 0x567 JUMP JUMPDEST PUSH2 0x135 JUMP JUMPDEST PUSH1 0x40 MLOAD PUSH2 0xD8 SWAP2 SWAP1 PUSH2 0x5FF JUMP JUMPDEST PUSH1 0x40 MLOAD DUP1 SWAP2 SUB SWAP1 RETURN JUMPDEST PUSH2 0xFB PUSH1 0x4 DUP1 CALLDATASIZE SUB DUP2 ADD SWAP1 PUSH2 0xF6 SWAP2 SWAP1 PUSH2 0x567 JUMP JUMPDEST PUSH2 0x147 JUMP JUMPDEST PUSH1 0x40 MLOAD PUSH2 0x108 SWAP2 SWAP1 PUSH2 0x5FF JUMP JUMPDEST PUSH1 0x40 MLOAD DUP1 SWAP2 SUB SWAP1 RETURN JUMPDEST PUSH1 0x0 PUSH2 0x11C DUP3 PUSH2 0x159 JUMP JUMPDEST SWAP1 POP SWAP2 SWAP1 POP JUMP JUMPDEST PUSH1 0x0 PUSH2 0x12E DUP3 PUSH2 0x1B4 JUMP JUMPDEST SWAP1 POP SWAP2 SWAP1 POP JUMP JUMPDEST PUSH1 0x0 PUSH2 0x140 DUP3 PUSH2 0x20F JUMP JUMPDEST SWAP1 POP SWAP2 SWAP1 POP JUMP JUMPDEST PUSH1 0x0 PUSH2 0x152 DUP3 PUSH2 0x47B JUMP JUMPDEST SWAP1 POP SWAP2 SWAP1 POP JUMP JUMPDEST PUSH1 0x0 DUP1 PUSH1 0x40 MLOAD DUP1 PUSH2 0x220 ADD PUSH1 0x40 MSTORE DUP1 PUSH2 0x1F0 DUP2 MSTORE PUSH1 0x20 ADD PUSH2 0x984 PUSH2 0x1F0 SWAP2 CODECOPY SWAP1 POP PUSH1 0x0 PUSH1 0x8 DUP5 PUSH1 0x8 PUSH2 0x18B SWAP2 SWAP1 PUSH2 0x823 JUMP JUMPDEST PUSH2 0x195 SWAP2 SWAP1 PUSH2 0x62B JUMP JUMPDEST SWAP1 POP PUSH1 0x0 DUP2 DUP4 ADD MLOAD SWAP1 POP DUP1 PUSH8 0xFFFFFFFFFFFFFFFF AND SWAP4 POP POP POP POP SWAP2 SWAP1 POP JUMP JUMPDEST PUSH1 0x0 DUP1 PUSH1 0x40 MLOAD DUP1 PUSH2 0x220 ADD PUSH1 0x40 MSTORE DUP1 PUSH2 0x1F0 DUP2 MSTORE PUSH1 0x20 ADD PUSH2 0xB74 PUSH2 0x1F0 SWAP2 CODECOPY SWAP1 POP PUSH1 0x0 PUSH1 0x8 DUP5 PUSH1 0x8 PUSH2 0x1E6 SWAP2 SWAP1 PUSH2 0x823 JUMP JUMPDEST PUSH2 0x1F0 SWAP2 SWAP1 PUSH2 0x62B JUMP JUMPDEST SWAP1 POP PUSH1 0x0 DUP2 DUP4 ADD MLOAD SWAP1 POP DUP1 PUSH8 0xFFFFFFFFFFFFFFFF AND SWAP4 POP POP POP POP SWAP2 SWAP1 POP JUMP JUMPDEST PUSH1 0x0 DUP1 PUSH1 0x12 PUSH1 0xA PUSH2 0x220 SWAP2 SWAP1 PUSH2 0x705 JUMP JUMPDEST DUP4 PUSH2 0x22B SWAP2 SWAP1 PUSH2 0x681 JUMP JUMPDEST SWAP1 POP PUSH1 0x0 DUP2 GT PUSH2 0x270 JUMPI PUSH1 0x40 MLOAD PUSH32 0x8C379A000000000000000000000000000000000000000000000000000000000 DUP2 MSTORE PUSH1 0x4 ADD PUSH2 0x267 SWAP1 PUSH2 0x5DF JUMP JUMPDEST PUSH1 0x40 MLOAD DUP1 SWAP2 SUB SWAP1 REVERT JUMPDEST PUSH1 0x0 PUSH17 0x100000000000000000000000000000000 DUP3 LT PUSH2 0x2A1 JUMPI PUSH1 0x80 DUP3 SWAP1 SHR SWAP2 POP PUSH1 0x80 DUP2 PUSH2 0x29E SWAP2 SWAP1 PUSH2 0x62B JUMP JUMPDEST SWAP1 POP JUMPDEST PUSH9 0x10000000000000000 DUP3 LT PUSH2 0x2C8 JUMPI PUSH1 0x40 DUP3 SWAP1 SHR SWAP2 POP PUSH1 0x40 DUP2 PUSH2 0x2C5 SWAP2 SWAP1 PUSH2 0x62B JUMP JUMPDEST SWAP1 POP JUMPDEST PUSH5 0x100000000 DUP3 LT PUSH2 0x2EB JUMPI PUSH1 0x20 DUP3 SWAP1 SHR SWAP2 POP PUSH1 0x20 DUP2 PUSH2 0x2E8 SWAP2 SWAP1 PUSH2 0x62B JUMP JUMPDEST SWAP1 POP JUMPDEST PUSH3 0x10000 DUP3 LT PUSH2 0x30C JUMPI PUSH1 0x10 DUP3 SWAP1 SHR SWAP2 POP PUSH1 0x10 DUP2 PUSH2 0x309 SWAP2 SWAP1 PUSH2 0x62B JUMP JUMPDEST SWAP1 POP JUMPDEST PUSH2 0x100 DUP3 LT PUSH2 0x32C JUMPI PUSH1 0x8 DUP3 SWAP1 SHR SWAP2 POP PUSH1 0x8 DUP2 PUSH2 0x329 SWAP2 SWAP1 PUSH2 0x62B JUMP JUMPDEST SWAP1 POP JUMPDEST PUSH1 0x10 DUP3 LT PUSH2 0x34B JUMPI PUSH1 0x4 DUP3 SWAP1 SHR SWAP2 POP PUSH1 0x4 DUP2 PUSH2 0x348 SWAP2 SWAP1 PUSH2 0x62B JUMP JUMPDEST SWAP1 POP JUMPDEST PUSH1 0x4 DUP3 LT PUSH2 0x36A JUMPI PUSH1 0x2 DUP3 SWAP1 SHR SWAP2 POP PUSH1 0x2 DUP2 PUSH2 0x367 SWAP2 SWAP1 PUSH2 0x62B JUMP JUMPDEST SWAP1 POP JUMPDEST PUSH1 0x2 DUP3 LT PUSH2 0x382 JUMPI PUSH1 0x1 DUP2 PUSH2 0x37F SWAP2 SWAP1 PUSH2 0x62B JUMP JUMPDEST SWAP1 POP JUMPDEST PUSH1 0x12 PUSH1 0xA PUSH2 0x390 SWAP2 SWAP1 PUSH2 0x705 JUMP JUMPDEST DUP2 PUSH2 0x39B SWAP2 SWAP1 PUSH2 0x823 JUMP JUMPDEST SWAP1 POP PUSH1 0x12 PUSH1 0xA PUSH2 0x3AB SWAP2 SWAP1 PUSH2 0x705 JUMP JUMPDEST DUP2 PUSH2 0x3B6 SWAP2 SWAP1 PUSH2 0x681 JUMP JUMPDEST PUSH1 0x2 PUSH2 0x3C2 SWAP2 SWAP1 PUSH2 0x705 JUMP JUMPDEST DUP5 PUSH2 0x3CD SWAP2 SWAP1 PUSH2 0x681 JUMP JUMPDEST SWAP2 POP PUSH1 0x0 DUP1 PUSH1 0x12 PUSH1 0xA PUSH2 0x3E0 SWAP2 SWAP1 PUSH2 0x705 JUMP JUMPDEST SWAP1 POP JUMPDEST PUSH1 0x0 DUP2 GT ISZERO PUSH2 0x464 JUMPI PUSH1 0x12 PUSH1 0xA PUSH2 0x3FA SWAP2 SWAP1 PUSH2 0x705 JUMP JUMPDEST PUSH1 0x2 PUSH2 0x406 SWAP2 SWAP1 PUSH2 0x823 JUMP JUMPDEST DUP5 LT PUSH2 0x42A JUMPI DUP1 DUP3 PUSH2 0x418 SWAP2 SWAP1 PUSH2 0x62B JUMP JUMPDEST SWAP2 POP PUSH1 0x2 DUP5 PUSH2 0x427 SWAP2 SWAP1 PUSH2 0x681 JUMP JUMPDEST SWAP4 POP JUMPDEST PUSH1 0x12 PUSH1 0xA PUSH2 0x438 SWAP2 SWAP1 PUSH2 0x705 JUMP JUMPDEST DUP5 DUP6 PUSH2 0x444 SWAP2 SWAP1 PUSH2 0x823 JUMP JUMPDEST PUSH2 0x44E SWAP2 SWAP1 PUSH2 0x681 JUMP JUMPDEST SWAP4 POP PUSH1 0x2 DUP2 PUSH2 0x45D SWAP2 SWAP1 PUSH2 0x681 JUMP JUMPDEST SWAP1 POP PUSH2 0x3E3 JUMP JUMPDEST POP DUP2 DUP2 PUSH2 0x471 SWAP2 SWAP1 PUSH2 0x62B JUMP JUMPDEST SWAP4 POP POP POP POP SWAP2 SWAP1 POP JUMP JUMPDEST PUSH1 0x0 DUP1 PUSH1 0x12 PUSH1 0xA PUSH2 0x48C SWAP2 SWAP1 PUSH2 0x705 JUMP JUMPDEST DUP4 PUSH2 0x497 SWAP2 SWAP1 PUSH2 0x681 JUMP JUMPDEST SWAP1 POP PUSH1 0x0 PUSH1 0x12 PUSH1 0xA PUSH2 0x4A9 SWAP2 SWAP1 PUSH2 0x705 JUMP JUMPDEST DUP5 PUSH2 0x4B4 SWAP2 SWAP1 PUSH2 0x8D0 JUMP JUMPDEST SWAP1 POP PUSH1 0x0 DUP3 PUSH1 0x2 PUSH2 0x4C5 SWAP2 SWAP1 PUSH2 0x705 JUMP JUMPDEST SWAP1 POP PUSH1 0x0 PUSH1 0x12 PUSH1 0xA PUSH2 0x4D7 SWAP2 SWAP1 PUSH2 0x705 JUMP JUMPDEST SWAP1 POP PUSH1 0x0 JUMPDEST PUSH1 0x3E DUP2 LT ISZERO PUSH2 0x53A JUMPI PUSH1 0x0 DUP5 PUSH2 0x4F1 DUP4 PUSH2 0x159 JUMP JUMPDEST AND GT ISZERO PUSH2 0x527 JUMPI PUSH1 0x12 PUSH1 0xA PUSH2 0x506 SWAP2 SWAP1 PUSH2 0x705 JUMP JUMPDEST PUSH2 0x50F DUP3 PUSH2 0x1B4 JUMP JUMPDEST DUP4 PUSH2 0x51A SWAP2 SWAP1 PUSH2 0x823 JUMP JUMPDEST PUSH2 0x524 SWAP2 SWAP1 PUSH2 0x681 JUMP JUMPDEST SWAP2 POP JUMPDEST DUP1 DUP1 PUSH2 0x532 SWAP1 PUSH2 0x887 JUMP JUMPDEST SWAP2 POP POP PUSH2 0x4DC JUMP JUMPDEST POP DUP1 DUP3 PUSH2 0x547 SWAP2 SWAP1 PUSH2 0x823 JUMP JUMPDEST SWAP5 POP POP POP POP POP SWAP2 SWAP1 POP JUMP JUMPDEST PUSH1 0x0 DUP2 CALLDATALOAD SWAP1 POP PUSH2 0x561 DUP2 PUSH2 0x96C JUMP JUMPDEST SWAP3 SWAP2 POP POP JUMP JUMPDEST PUSH1 0x0 PUSH1 0x20 DUP3 DUP5 SUB SLT ISZERO PUSH2 0x579 JUMPI PUSH1 0x0 DUP1 REVERT JUMPDEST PUSH1 0x0 PUSH2 0x587 DUP5 DUP3 DUP6 ADD PUSH2 0x552 JUMP JUMPDEST SWAP2 POP POP SWAP3 SWAP2 POP POP JUMP JUMPDEST PUSH1 0x0 PUSH2 0x59D PUSH1 0x1C DUP4 PUSH2 0x61A JUMP JUMPDEST SWAP2 POP PUSH32 0x6C6F6761726974686D3A206F706572616E6420746F6F20736D616C6C00000000 PUSH1 0x0 DUP4 ADD MSTORE PUSH1 0x20 DUP3 ADD SWAP1 POP SWAP2 SWAP1 POP JUMP JUMPDEST PUSH2 0x5D9 DUP2 PUSH2 0x87D JUMP JUMPDEST DUP3 MSTORE POP POP JUMP JUMPDEST PUSH1 0x0 PUSH1 0x20 DUP3 ADD SWAP1 POP DUP2 DUP2 SUB PUSH1 0x0 DUP4 ADD MSTORE PUSH2 0x5F8 DUP2 PUSH2 0x590 JUMP JUMPDEST SWAP1 POP SWAP2 SWAP1 POP JUMP JUMPDEST PUSH1 0x0 PUSH1 0x20 DUP3 ADD SWAP1 POP PUSH2 0x614 PUSH1 0x0 DUP4 ADD DUP5 PUSH2 0x5D0 JUMP JUMPDEST SWAP3 SWAP2 POP POP JUMP JUMPDEST PUSH1 0x0 DUP3 DUP3 MSTORE PUSH1 0x20 DUP3 ADD SWAP1 POP SWAP3 SWAP2 POP POP JUMP JUMPDEST PUSH1 0x0 PUSH2 0x636 DUP3 PUSH2 0x87D JUMP JUMPDEST SWAP2 POP PUSH2 0x641 DUP4 PUSH2 0x87D JUMP JUMPDEST SWAP3 POP DUP3 PUSH32 0xFFFFFFFFFFFFFFFFFFFFFFFFFFFFFFFFFFFFFFFFFFFFFFFFFFFFFFFFFFFFFFFF SUB DUP3 GT ISZERO PUSH2 0x676 JUMPI PUSH2 0x675 PUSH2 0x901 JUMP JUMPDEST JUMPDEST DUP3 DUP3 ADD SWAP1 POP SWAP3 SWAP2 POP POP JUMP JUMPDEST PUSH1 0x0 PUSH2 0x68C DUP3 PUSH2 0x87D JUMP JUMPDEST SWAP2 POP PUSH2 0x697 DUP4 PUSH2 0x87D JUMP JUMPDEST SWAP3 POP DUP3 PUSH2 0x6A7 JUMPI PUSH2 0x6A6 PUSH2 0x930 JUMP JUMPDEST JUMPDEST DUP3 DUP3 DIV SWAP1 POP SWAP3 SWAP2 POP POP JUMP JUMPDEST PUSH1 0x0 DUP1 DUP3 SWAP2 POP DUP4 SWAP1 POP JUMPDEST PUSH1 0x1 DUP6 GT ISZERO PUSH2 0x6FC JUMPI DUP1 DUP7 DIV DUP2 GT ISZERO PUSH2 0x6D8 JUMPI PUSH2 0x6D7 PUSH2 0x901 JUMP JUMPDEST JUMPDEST PUSH1 0x1 DUP6 AND ISZERO PUSH2 0x6E7 JUMPI DUP1 DUP3 MUL SWAP2 POP JUMPDEST DUP1 DUP2 MUL SWAP1 POP PUSH2 0x6F5 DUP6 PUSH2 0x95F JUMP JUMPDEST SWAP5 POP PUSH2 0x6BC JUMP JUMPDEST SWAP5 POP SWAP5 SWAP3 POP POP POP JUMP JUMPDEST PUSH1 0x0 PUSH2 0x710 DUP3 PUSH2 0x87D JUMP JUMPDEST SWAP2 POP PUSH2 0x71B DUP4 PUSH2 0x87D JUMP JUMPDEST SWAP3 POP PUSH2 0x748 PUSH32 0xFFFFFFFFFFFFFFFFFFFFFFFFFFFFFFFFFFFFFFFFFFFFFFFFFFFFFFFFFFFFFFFF DUP5 DUP5 PUSH2 0x750 JUMP JUMPDEST SWAP1 POP SWAP3 SWAP2 POP POP JUMP JUMPDEST PUSH1 0x0 DUP3 PUSH2 0x760 JUMPI PUSH1 0x1 SWAP1 POP PUSH2 0x81C JUMP JUMPDEST DUP2 PUSH2 0x76E JUMPI PUSH1 0x0 SWAP1 POP PUSH2 0x81C JUMP JUMPDEST DUP2 PUSH1 0x1 DUP2 EQ PUSH2 0x784 JUMPI PUSH1 0x2 DUP2 EQ PUSH2 0x78E JUMPI PUSH2 0x7BD JUMP JUMPDEST PUSH1 0x1 SWAP2 POP POP PUSH2 0x81C JUMP JUMPDEST PUSH1 0xFF DUP5 GT ISZERO PUSH2 0x7A0 JUMPI PUSH2 0x79F PUSH2 0x901 JUMP JUMPDEST JUMPDEST DUP4 PUSH1 0x2 EXP SWAP2 POP DUP5 DUP3 GT ISZERO PUSH2 0x7B7 JUMPI PUSH2 0x7B6 PUSH2 0x901 JUMP JUMPDEST JUMPDEST POP PUSH2 0x81C JUMP JUMPDEST POP PUSH1 0x20 DUP4 LT PUSH2 0x133 DUP4 LT AND PUSH1 0x4E DUP5 LT PUSH1 0xB DUP5 LT AND OR ISZERO PUSH2 0x7F2 JUMPI DUP3 DUP3 EXP SWAP1 POP DUP4 DUP2 GT ISZERO PUSH2 0x7ED JUMPI PUSH2 0x7EC PUSH2 0x901 JUMP JUMPDEST JUMPDEST PUSH2 0x81C JUMP JUMPDEST PUSH2 0x7FF DUP5 DUP5 DUP5 PUSH1 0x1 PUSH2 0x6B2 JUMP JUMPDEST SWAP3 POP SWAP1 POP DUP2 DUP5 DIV DUP2 GT ISZERO PUSH2 0x816 JUMPI PUSH2 0x815 PUSH2 0x901 JUMP JUMPDEST JUMPDEST DUP2 DUP2 MUL SWAP1 POP JUMPDEST SWAP4 SWAP3 POP POP POP JUMP JUMPDEST PUSH1 0x0 PUSH2 0x82E DUP3 PUSH2 0x87D JUMP JUMPDEST SWAP2 POP PUSH2 0x839 DUP4 PUSH2 0x87D JUMP JUMPDEST SWAP3 POP DUP2 PUSH32 0xFFFFFFFFFFFFFFFFFFFFFFFFFFFFFFFFFFFFFFFFFFFFFFFFFFFFFFFFFFFFFFFF DIV DUP4 GT DUP3 ISZERO ISZERO AND ISZERO PUSH2 0x872 JUMPI PUSH2 0x871 PUSH2 0x901 JUMP JUMPDEST JUMPDEST DUP3 DUP3 MUL SWAP1 POP SWAP3 SWAP2 POP POP JUMP JUMPDEST PUSH1 0x0 DUP2 SWAP1 POP SWAP2 SWAP1 POP JUMP JUMPDEST PUSH1 0x0 PUSH2 0x892 DUP3 PUSH2 0x87D JUMP JUMPDEST SWAP2 POP PUSH32 0xFFFFFFFFFFFFFFFFFFFFFFFFFFFFFFFFFFFFFFFFFFFFFFFFFFFFFFFFFFFFFFFF DUP3 EQ ISZERO PUSH2 0x8C5 JUMPI PUSH2 0x8C4 PUSH2 0x901 JUMP JUMPDEST JUMPDEST PUSH1 0x1 DUP3 ADD SWAP1 POP SWAP2 SWAP1 POP JUMP JUMPDEST PUSH1 0x0 PUSH2 0x8DB DUP3 PUSH2 0x87D JUMP JUMPDEST SWAP2 POP PUSH2 0x8E6 DUP4 PUSH2 0x87D JUMP JUMPDEST SWAP3 POP DUP3 PUSH2 0x8F6 JUMPI PUSH2 0x8F5 PUSH2 0x930 JUMP JUMPDEST JUMPDEST DUP3 DUP3 MOD SWAP1 POP SWAP3 SWAP2 POP POP JUMP JUMPDEST PUSH32 0x4E487B7100000000000000000000000000000000000000000000000000000000 PUSH1 0x0 MSTORE PUSH1 0x11 PUSH1 0x4 MSTORE PUSH1 0x24 PUSH1 0x0 REVERT JUMPDEST PUSH32 0x4E487B7100000000000000000000000000000000000000000000000000000000 PUSH1 0x0 MSTORE PUSH1 0x12 PUSH1 0x4 MSTORE PUSH1 0x24 PUSH1 0x0 REVERT JUMPDEST PUSH1 0x0 DUP2 PUSH1 0x1 SHR SWAP1 POP SWAP2 SWAP1 POP JUMP JUMPDEST PUSH2 0x975 DUP2 PUSH2 0x87D JUMP JUMPDEST DUP2 EQ PUSH2 0x980 JUMPI PUSH1 0x0 DUP1 REVERT JUMPDEST POP JUMP INVALID STOP STOP STOP STOP STOP STOP STOP ADD STOP STOP STOP STOP STOP STOP STOP MUL STOP STOP STOP STOP STOP STOP STOP DIV STOP STOP STOP STOP STOP STOP STOP ADDMOD STOP STOP STOP STOP STOP STOP STOP LT STOP STOP STOP STOP STOP STOP STOP KECCAK256 STOP STOP STOP STOP STOP STOP STOP BLOCKHASH STOP STOP STOP STOP STOP STOP STOP DUP1 STOP STOP STOP STOP STOP STOP ADD STOP STOP STOP STOP STOP STOP STOP MUL STOP STOP STOP STOP STOP STOP STOP DIV STOP STOP STOP STOP STOP STOP STOP ADDMOD STOP STOP STOP STOP STOP STOP STOP LT STOP STOP STOP STOP STOP STOP STOP KECCAK256 STOP STOP STOP STOP STOP STOP STOP BLOCKHASH STOP STOP STOP STOP STOP STOP STOP DUP1 STOP STOP STOP STOP STOP STOP ADD STOP STOP STOP STOP STOP STOP STOP MUL STOP STOP STOP STOP STOP STOP STOP DIV STOP STOP STOP STOP STOP STOP STOP ADDMOD STOP STOP STOP STOP STOP STOP STOP LT STOP STOP STOP STOP STOP STOP STOP KECCAK256 STOP STOP STOP STOP STOP STOP STOP BLOCKHASH STOP STOP STOP STOP STOP STOP STOP DUP1 STOP STOP STOP STOP STOP STOP ADD STOP STOP STOP STOP STOP STOP STOP MUL STOP STOP STOP STOP STOP STOP STOP DIV STOP STOP STOP STOP STOP STOP STOP ADDMOD STOP STOP STOP STOP STOP STOP STOP LT STOP STOP STOP STOP STOP STOP STOP KECCAK256 STOP STOP STOP STOP STOP STOP STOP BLOCKHASH STOP STOP STOP STOP STOP STOP STOP DUP1 STOP STOP STOP STOP STOP STOP ADD STOP STOP STOP STOP STOP STOP STOP MUL STOP STOP STOP STOP STOP STOP STOP DIV STOP STOP STOP STOP STOP STOP STOP ADDMOD STOP STOP STOP STOP STOP STOP STOP LT STOP STOP STOP STOP STOP STOP STOP KECCAK256 STOP STOP STOP STOP STOP STOP STOP BLOCKHASH STOP STOP STOP STOP STOP STOP STOP DUP1 STOP STOP STOP STOP STOP STOP ADD STOP STOP STOP STOP STOP STOP STOP MUL STOP STOP STOP STOP STOP STOP STOP DIV STOP STOP STOP STOP STOP STOP STOP ADDMOD STOP STOP STOP STOP STOP STOP STOP LT STOP STOP STOP STOP STOP STOP STOP KECCAK256 STOP STOP STOP STOP STOP STOP STOP BLOCKHASH STOP STOP STOP STOP STOP STOP STOP DUP1 STOP STOP STOP STOP STOP STOP ADD STOP STOP STOP STOP STOP STOP STOP MUL STOP STOP STOP STOP STOP STOP STOP DIV STOP STOP STOP STOP STOP STOP STOP ADDMOD STOP STOP STOP STOP STOP STOP STOP LT STOP STOP STOP STOP STOP STOP STOP KECCAK256 STOP STOP STOP STOP STOP STOP STOP BLOCKHASH STOP STOP STOP STOP STOP STOP STOP DUP1 STOP STOP STOP STOP STOP STOP ADD STOP STOP STOP STOP STOP STOP STOP MUL STOP STOP STOP STOP STOP STOP STOP DIV STOP STOP STOP STOP STOP STOP STOP ADDMOD STOP STOP STOP STOP STOP STOP STOP LT STOP STOP STOP STOP STOP STOP STOP KECCAK256 STOP STOP STOP STOP STOP STOP STOP 0xD 0xE0 0xB6 0xB3 0xA7 PUSH5 0xDE0B6 0xB3 0xA7 PUSH5 0x10DE0B6 0xB3 0xA7 PUSH5 0x20DE0B6 0xB3 0xA7 PUSH5 0x50DE0B6 0xB3 0xA7 PUSH5 0xB0DE0B6 0xB3 0xA7 PUSH5 0x160DE0B6 0xB3 0xA7 PUSH5 0x2C0DE0B6 0xB3 0xA7 PUSH5 0x580DE0B6 0xB3 0xA7 PUSH5 0xB10DE0B6 0xB3 0xA7 PUSH5 0x1620DE0B6 0xB3 0xA7 PUSH5 0x2C50DE0B6 0xB3 0xA7 PUSH5 0x58B0DE0B6 0xB3 0xA7 PUSH5 0xB170DE0B6 0xB3 0xA7 PUSH5 0x162E0DE0B6 0xB3 0xA7 PUSH5 0x2C5C0DE0B6 0xB3 0xA7 PUSH5 0x58B90DE0B6 0xB3 0xA7 PUSH5 0xB1720DE0B6 0xB3 0xA7 PUSH6 0x62E40DE0B6B3 0xA7 PUSH7 0xC5C80DE0B6B3A7 PUSH10 0x8B900DE0B6B3A76F1721 0xD 0xE0 0xB6 0xB3 0xA7 PUSH27 0x2E420DE0B6B3A7905C850DE0B6B3A7BCB90B0DE0B6B3A81572170D 0xE0 0xB6 0xB3 0xA8 0xC6 0xE4 0x2F 0xD 0xE0 0xB6 0xB3 0xAA 0x29 0xC8 0x5F 0xD 0xE0 0xB6 0xB3 0xAC 0xEF SWAP1 0xBF 0xD 0xE0 0xB6 0xB3 0xB2 PUSH28 0x217F0DE0B6B3BD9242FF0DE0B6B3D3C085FE0DE0B6B4001D0BFD0DE0 0xB6 0xB4 PC 0xD6 OR 0xFC 0xD 0xE0 0xB6 0xB5 EXP 0x48 ADDRESS ADD 0xD 0xE0 0xB6 0xB6 PUSH14 0x2C60260DE0B6B932F4C0DA0DE0B6 0xBE 0xBE DUP6 DUP4 0xEB 0xD 0xE0 0xB6 0xC9 0xD5 0xA7 LT 0xB3 0xD 0xE0 0xB6 0xE0 SUB 0xEA DIFFICULTY 0xDB 0xD 0xE0 0xB7 0xC PUSH1 0x71 OR DUP5 0xD 0xE0 0xB7 PUSH6 0x198066410DE0 0xB8 AND DUP12 0xA5 0xA9 PUSH5 0xDE0B97970 EXP 0xC6 0x4C 0xD 0xE0 0xBC EXTCODEHASH CODECOPY EXTCODEHASH GAS 0xB5 0xD 0xE0 0xC1 0xCA 0xCD MLOAD 0xEE MSTORE 0xD 0xE0 0xCC 0xE1 0xFC SHR 0xC3 0xC6 0xD 0xE0 0xE3 LT PUSH21 0x49406E0DE10F6DCEFE47050DE1682A2DDEBC000DE2 NOT 0xA9 SWAP2 0xAA 0xDB SWAP4 0xD 0xE3 PUSH29 0xC2F2FCB7380DE6436028EE3A220DEBD244C555D3B40DF6F6B9DBCC5F41 0xE 0xD GAS PUSH13 0x6EA8A8410E3A8DBBD2B7E9D50E SWAP7 0xAA JUMPDEST 0xB8 PUSH29 0x13840F55EF96062919DD10F25DB82C317EA514B1C2442FFABE3C1EDBF2 0x5D 0xE7 0xA7 0xF PUSH19 0x449E9DD02D2817D4A2646970667358221220A7 PUSH23 0xAD886FA8BB4CB9A8391DCAF1D1A2CAA995E31EC8B10D76 0xEF 0xDF 0xD PUSH24 0x1704FA64736F6C6343000800003300000000000000000000 "
        },
        "methodIdentifiers": {
          "exponent_table_lookup(uint256)": "61c76f89",
          "exponentiate(uint256)": "9fdfe442",
          "logarithm(uint256)": "6ca34af7",
          "power_of_two_lookup(uint256)": "1818bb3e"
        }
      }
    }
  }
}