{
  "hardhat/contracts/Blocks.sol": {
    "Blocks": {
      "abi": [
        {
          "inputs": [
            {
              "internalType": "uint256",
              "name": "N",
              "type": "uint256"
            },
            {
              "internalType": "uint256",
              "name": "b",
              "type": "uint256"
            }
          ],
          "stateMutability": "nonpayable",
          "type": "constructor"
        },
        {
          "anonymous": false,
          "inputs": [
            {
              "indexed": true,
              "internalType": "address",
              "name": "account",
              "type": "address"
            },
            {
              "indexed": true,
              "internalType": "address",
              "name": "operator",
              "type": "address"
            },
            {
              "indexed": false,
              "internalType": "bool",
              "name": "approved",
              "type": "bool"
            }
          ],
          "name": "ApprovalForAll",
          "type": "event"
        },
        {
          "anonymous": false,
          "inputs": [
            {
              "indexed": true,
              "internalType": "address",
              "name": "operator",
              "type": "address"
            },
            {
              "indexed": true,
              "internalType": "address",
              "name": "from",
              "type": "address"
            },
            {
              "indexed": true,
              "internalType": "address",
              "name": "to",
              "type": "address"
            },
            {
              "indexed": false,
              "internalType": "uint256[]",
              "name": "ids",
              "type": "uint256[]"
            },
            {
              "indexed": false,
              "internalType": "uint256[]",
              "name": "values",
              "type": "uint256[]"
            }
          ],
          "name": "TransferBatch",
          "type": "event"
        },
        {
          "anonymous": false,
          "inputs": [
            {
              "indexed": true,
              "internalType": "address",
              "name": "operator",
              "type": "address"
            },
            {
              "indexed": true,
              "internalType": "address",
              "name": "from",
              "type": "address"
            },
            {
              "indexed": true,
              "internalType": "address",
              "name": "to",
              "type": "address"
            },
            {
              "indexed": false,
              "internalType": "uint256",
              "name": "id",
              "type": "uint256"
            },
            {
              "indexed": false,
              "internalType": "uint256",
              "name": "value",
              "type": "uint256"
            }
          ],
          "name": "TransferSingle",
          "type": "event"
        },
        {
          "anonymous": false,
          "inputs": [
            {
              "indexed": false,
              "internalType": "string",
              "name": "value",
              "type": "string"
            },
            {
              "indexed": true,
              "internalType": "uint256",
              "name": "id",
              "type": "uint256"
            }
          ],
          "name": "URI",
          "type": "event"
        },
        {
          "inputs": [],
          "name": "_N",
          "outputs": [
            {
              "internalType": "uint256",
              "name": "",
              "type": "uint256"
            }
          ],
          "stateMutability": "view",
          "type": "function"
        },
        {
          "inputs": [],
          "name": "_b",
          "outputs": [
            {
              "internalType": "uint256",
              "name": "",
              "type": "uint256"
            }
          ],
          "stateMutability": "view",
          "type": "function"
        },
        {
          "inputs": [],
          "name": "_earnings",
          "outputs": [
            {
              "internalType": "uint256",
              "name": "",
              "type": "uint256"
            }
          ],
          "stateMutability": "view",
          "type": "function"
        },
        {
          "inputs": [
            {
              "internalType": "uint256",
              "name": "",
              "type": "uint256"
            }
          ],
          "name": "_quantities",
          "outputs": [
            {
              "internalType": "uint256",
              "name": "",
              "type": "uint256"
            }
          ],
          "stateMutability": "view",
          "type": "function"
        },
        {
          "inputs": [],
          "name": "_total_sold",
          "outputs": [
            {
              "internalType": "uint256",
              "name": "",
              "type": "uint256"
            }
          ],
          "stateMutability": "view",
          "type": "function"
        },
        {
          "inputs": [],
          "name": "_total_weight",
          "outputs": [
            {
              "internalType": "uint256",
              "name": "",
              "type": "uint256"
            }
          ],
          "stateMutability": "view",
          "type": "function"
        },
        {
          "inputs": [],
          "name": "_value",
          "outputs": [
            {
              "internalType": "uint256",
              "name": "",
              "type": "uint256"
            }
          ],
          "stateMutability": "view",
          "type": "function"
        },
        {
          "inputs": [
            {
              "internalType": "uint256",
              "name": "",
              "type": "uint256"
            }
          ],
          "name": "_weights",
          "outputs": [
            {
              "internalType": "uint256",
              "name": "",
              "type": "uint256"
            }
          ],
          "stateMutability": "view",
          "type": "function"
        },
        {
          "inputs": [
            {
              "internalType": "address",
              "name": "account",
              "type": "address"
            },
            {
              "internalType": "uint256",
              "name": "id",
              "type": "uint256"
            }
          ],
          "name": "balanceOf",
          "outputs": [
            {
              "internalType": "uint256",
              "name": "",
              "type": "uint256"
            }
          ],
          "stateMutability": "view",
          "type": "function"
        },
        {
          "inputs": [
            {
              "internalType": "address[]",
              "name": "accounts",
              "type": "address[]"
            },
            {
              "internalType": "uint256[]",
              "name": "ids",
              "type": "uint256[]"
            }
          ],
          "name": "balanceOfBatch",
          "outputs": [
            {
              "internalType": "uint256[]",
              "name": "",
              "type": "uint256[]"
            }
          ],
          "stateMutability": "view",
          "type": "function"
        },
        {
          "inputs": [
            {
              "internalType": "uint256",
              "name": "bucket",
              "type": "uint256"
            },
            {
              "internalType": "uint256",
              "name": "amount",
              "type": "uint256"
            }
          ],
          "name": "fake_purchase",
          "outputs": [],
          "stateMutability": "nonpayable",
          "type": "function"
        },
        {
          "inputs": [
            {
              "internalType": "uint256",
              "name": "bucket",
              "type": "uint256"
            },
            {
              "internalType": "uint256",
              "name": "price",
              "type": "uint256"
            }
          ],
          "name": "getRequiredAmount",
          "outputs": [
            {
              "internalType": "uint256",
              "name": "",
              "type": "uint256"
            }
          ],
          "stateMutability": "view",
          "type": "function"
        },
        {
          "inputs": [
            {
              "internalType": "uint256",
              "name": "bucket",
              "type": "uint256"
            }
          ],
          "name": "get_bucket_price",
          "outputs": [
            {
              "internalType": "uint256",
              "name": "",
              "type": "uint256"
            }
          ],
          "stateMutability": "view",
          "type": "function"
        },
        {
          "inputs": [
            {
              "internalType": "address",
              "name": "account",
              "type": "address"
            },
            {
              "internalType": "address",
              "name": "operator",
              "type": "address"
            }
          ],
          "name": "isApprovedForAll",
          "outputs": [
            {
              "internalType": "bool",
              "name": "",
              "type": "bool"
            }
          ],
          "stateMutability": "view",
          "type": "function"
        },
        {
          "inputs": [
            {
              "internalType": "uint256",
              "name": "bucket",
              "type": "uint256"
            },
            {
              "internalType": "uint256",
              "name": "amount",
              "type": "uint256"
            }
          ],
          "name": "purchase",
          "outputs": [],
          "stateMutability": "nonpayable",
          "type": "function"
        },
        {
          "inputs": [
            {
              "internalType": "address",
              "name": "from",
              "type": "address"
            },
            {
              "internalType": "address",
              "name": "to",
              "type": "address"
            },
            {
              "internalType": "uint256[]",
              "name": "ids",
              "type": "uint256[]"
            },
            {
              "internalType": "uint256[]",
              "name": "amounts",
              "type": "uint256[]"
            },
            {
              "internalType": "bytes",
              "name": "data",
              "type": "bytes"
            }
          ],
          "name": "safeBatchTransferFrom",
          "outputs": [],
          "stateMutability": "nonpayable",
          "type": "function"
        },
        {
          "inputs": [
            {
              "internalType": "address",
              "name": "from",
              "type": "address"
            },
            {
              "internalType": "address",
              "name": "to",
              "type": "address"
            },
            {
              "internalType": "uint256",
              "name": "id",
              "type": "uint256"
            },
            {
              "internalType": "uint256",
              "name": "amount",
              "type": "uint256"
            },
            {
              "internalType": "bytes",
              "name": "data",
              "type": "bytes"
            }
          ],
          "name": "safeTransferFrom",
          "outputs": [],
          "stateMutability": "nonpayable",
          "type": "function"
        },
        {
          "inputs": [
            {
              "internalType": "address",
              "name": "operator",
              "type": "address"
            },
            {
              "internalType": "bool",
              "name": "approved",
              "type": "bool"
            }
          ],
          "name": "setApprovalForAll",
          "outputs": [],
          "stateMutability": "nonpayable",
          "type": "function"
        },
        {
          "inputs": [
            {
              "internalType": "bytes4",
              "name": "interfaceId",
              "type": "bytes4"
            }
          ],
          "name": "supportsInterface",
          "outputs": [
            {
              "internalType": "bool",
              "name": "",
              "type": "bool"
            }
          ],
          "stateMutability": "view",
          "type": "function"
        },
        {
          "inputs": [
            {
              "internalType": "uint256",
              "name": "",
              "type": "uint256"
            }
          ],
          "name": "uri",
          "outputs": [
            {
              "internalType": "string",
              "name": "",
              "type": "string"
            }
          ],
          "stateMutability": "view",
          "type": "function"
        }
      ],
      "evm": {
        "bytecode": {
          "linkReferences": {},
          "object": "60806040523480156200001157600080fd5b50604051620043cc380380620043cc833981810160405281019062000037919062000504565b6040518060400160405280600481526020017f6e6f6e65000000000000000000000000000000000000000000000000000000008152506200007e816200017360201b60201c565b5060008211620000c5576040517f08c379a0000000000000000000000000000000000000000000000000000000008152600401620000bc906200069b565b60405180910390fd5b816005819055506000811162000112576040517f08c379a0000000000000000000000000000000000000000000000000000000008152600401620001099062000657565b60405180910390fd5b806008819055506012600a620001299190620007be565b600554620001389190620008fb565b600681905550620001566006546200018f60201b620014df1760201c565b600854620001659190620008fb565b600981905550505062000a50565b80600290805190602001906200018b9291906200043d565b5050565b6000806012600a620001a29190620007be565b83620001af91906200072b565b905060008111620001f7576040517f08c379a0000000000000000000000000000000000000000000000000000000008152600401620001ee9062000679565b60405180910390fd5b600070010000000000000000000000000000000082106200022b57608082901c9150608081620002289190620006ce565b90505b6801000000000000000082106200025557604082901c9150604081620002529190620006ce565b90505b64010000000082106200027b57602082901c9150602081620002789190620006ce565b90505b6201000082106200029f57601082901c91506010816200029c9190620006ce565b90505b6101008210620002c257600882901c9150600881620002bf9190620006ce565b90505b60108210620002e457600482901c9150600481620002e19190620006ce565b90505b600482106200030657600282901c9150600281620003039190620006ce565b90505b6002821062000321576001816200031e9190620006ce565b90505b6012600a620003319190620007be565b816200033e9190620008fb565b90506012600a620003509190620007be565b816200035d91906200072b565b60026200036b9190620007be565b846200037891906200072b565b91506000806012600a6200038d9190620007be565b90505b600081111562000424576012600a620003aa9190620007be565b6002620003b89190620008fb565b8410620003e1578082620003cd9190620006ce565b9150600284620003de91906200072b565b93505b6012600a620003f19190620007be565b8485620003ff9190620008fb565b6200040b91906200072b565b93506002816200041c91906200072b565b905062000390565b508181620004339190620006ce565b9350505050919050565b8280546200044b9062000966565b90600052602060002090601f0160209004810192826200046f5760008555620004bb565b82601f106200048a57805160ff1916838001178555620004bb565b82800160010185558215620004bb579182015b82811115620004ba5782518255916020019190600101906200049d565b5b509050620004ca9190620004ce565b5090565b5b80821115620004e9576000816000905550600101620004cf565b5090565b600081519050620004fe8162000a36565b92915050565b600080604083850312156200051857600080fd5b60006200052885828601620004ed565b92505060206200053b85828601620004ed565b9150509250929050565b600062000554602183620006bd565b91507f636f6e7374727563746f723a20622073686f756c6420626520706f736974697660008301527f65000000000000000000000000000000000000000000000000000000000000006020830152604082019050919050565b6000620005bc601c83620006bd565b91507f6c6f6761726974686d3a206f706572616e6420746f6f20736d616c6c000000006000830152602082019050919050565b6000620005fe602183620006bd565b91507f636f6e7374727563746f723a204e2073686f756c6420626520706f736974697660008301527f65000000000000000000000000000000000000000000000000000000000000006020830152604082019050919050565b60006020820190508181036000830152620006728162000545565b9050919050565b600060208201905081810360008301526200069481620005ad565b9050919050565b60006020820190508181036000830152620006b681620005ef565b9050919050565b600082825260208201905092915050565b6000620006db826200095c565b9150620006e8836200095c565b9250827fffffffffffffffffffffffffffffffffffffffffffffffffffffffffffffffff0382111562000720576200071f6200099c565b5b828201905092915050565b600062000738826200095c565b915062000745836200095c565b925082620007585762000757620009cb565b5b828204905092915050565b6000808291508390505b6001851115620007b5578086048111156200078d576200078c6200099c565b5b60018516156200079d5780820291505b8081029050620007ad8562000a29565b94506200076d565b94509492505050565b6000620007cb826200095c565b9150620007d8836200095c565b9250620008077fffffffffffffffffffffffffffffffffffffffffffffffffffffffffffffffff84846200080f565b905092915050565b600082620008215760019050620008f4565b81620008315760009050620008f4565b81600181146200084a576002811462000855576200088b565b6001915050620008f4565b60ff8411156200086a57620008696200099c565b5b8360020a9150848211156200088457620008836200099c565b5b50620008f4565b5060208310610133831016604e8410600b8410161715620008c55782820a905083811115620008bf57620008be6200099c565b5b620008f4565b620008d4848484600162000763565b92509050818404811115620008ee57620008ed6200099c565b5b81810290505b9392505050565b600062000908826200095c565b915062000915836200095c565b9250817fffffffffffffffffffffffffffffffffffffffffffffffffffffffffffffffff04831182151516156200095157620009506200099c565b5b828202905092915050565b6000819050919050565b600060028204905060018216806200097f57607f821691505b60208210811415620009965762000995620009fa565b5b50919050565b7f4e487b7100000000000000000000000000000000000000000000000000000000600052601160045260246000fd5b7f4e487b7100000000000000000000000000000000000000000000000000000000600052601260045260246000fd5b7f4e487b7100000000000000000000000000000000000000000000000000000000600052602260045260246000fd5b60008160011c9050919050565b62000a41816200095c565b811462000a4d57600080fd5b50565b61396c8062000a606000396000f3fe608060405234801561001057600080fd5b506004361061012b5760003560e01c80635655bb20116100ad578063b895c74a11610071578063b895c74a14610368578063c6e3a9b314610386578063e985e9c5146103a4578063f242432a146103d4578063f3f03a61146103f05761012b565b80635655bb20146102b25780636a6e48a4146102d057806370876c98146103005780638b47bbae1461031c578063a22cb4651461034c5761012b565b806325374996116100f457806325374996146101fa57806325f5eb81146102185780632eb2c2d61461023657806346c82b2c146102525780634e1273f4146102825761012b565b8062fdd58e1461013057806301ffc9a7146101605780630b789a21146101905780630e89341c146101ac5780631ade9391146101dc575b600080fd5b61014a60048036038101906101459190612324565b610420565b6040516101579190612e07565b60405180910390f35b61017a600480360381019061017591906123cc565b6104e9565b6040516101879190612c0a565b60405180910390f35b6101aa60048036038101906101a59190612447565b6105cb565b005b6101c660048036038101906101c1919061241e565b6105ea565b6040516101d39190612c25565b60405180910390f35b6101e461067e565b6040516101f19190612e07565b60405180910390f35b610202610684565b60405161020f9190612e07565b60405180910390f35b61022061068a565b60405161022d9190612e07565b60405180910390f35b610250600480360381019061024b919061219a565b610690565b005b61026c6004803603810190610267919061241e565b610a86565b6040516102799190612e07565b60405180910390f35b61029c60048036038101906102979190612360565b610a9e565b6040516102a99190612bb1565b60405180910390f35b6102ba610c4f565b6040516102c79190612e07565b60405180910390f35b6102ea60048036038101906102e59190612447565b610c55565b6040516102f79190612e07565b60405180910390f35b61031a60048036038101906103159190612447565b610dc2565b005b6103366004803603810190610331919061241e565b610f34565b6040516103439190612e07565b60405180910390f35b610366600480360381019061036191906122e8565b610f8e565b005b61037061110f565b60405161037d9190612e07565b60405180910390f35b61038e611115565b60405161039b9190612e07565b60405180910390f35b6103be60048036038101906103b9919061215e565b61111b565b6040516103cb9190612c0a565b60405180910390f35b6103ee60048036038101906103e99190612259565b6111af565b005b61040a6004803603810190610405919061241e565b6114c7565b6040516104179190612e07565b60405180910390f35b60008073ffffffffffffffffffffffffffffffffffffffff168373ffffffffffffffffffffffffffffffffffffffff161415610491576040517f08c379a000000000000000000000000000000000000000000000000000000000815260040161048890612c87565b60405180910390fd5b60008083815260200190815260200160002060008473ffffffffffffffffffffffffffffffffffffffff1673ffffffffffffffffffffffffffffffffffffffff16815260200190815260200160002054905092915050565b60007fd9b67a26000000000000000000000000000000000000000000000000000000007bffffffffffffffffffffffffffffffffffffffffffffffffffffffff1916827bffffffffffffffffffffffffffffffffffffffffffffffffffffffff191614806105b457507f0e89341c000000000000000000000000000000000000000000000000000000007bffffffffffffffffffffffffffffffffffffffffffffffffffffffff1916827bffffffffffffffffffffffffffffffffffffffffffffffffffffffff1916145b806105c457506105c38261174b565b5b9050919050565b6105e6338383604051806020016040528060008152506117b5565b5050565b6060600280546105f9906132b1565b80601f0160208091040260200160405190810160405280929190818152602001828054610625906132b1565b80156106725780601f1061064757610100808354040283529160200191610672565b820191906000526020600020905b81548152906001019060200180831161065557829003601f168201915b50505050509050919050565b600a5481565b60085481565b60065481565b81518351146106d4576040517f08c379a00000000000000000000000000000000000000000000000000000000081526004016106cb90612da7565b60405180910390fd5b600073ffffffffffffffffffffffffffffffffffffffff168473ffffffffffffffffffffffffffffffffffffffff161415610744576040517f08c379a000000000000000000000000000000000000000000000000000000000815260040161073b90612cc7565b60405180910390fd5b61074c61194b565b73ffffffffffffffffffffffffffffffffffffffff168573ffffffffffffffffffffffffffffffffffffffff16148061079257506107918561078c61194b565b61111b565b5b6107d1576040517f08c379a00000000000000000000000000000000000000000000000000000000081526004016107c890612ce7565b60405180910390fd5b60006107db61194b565b90506107eb818787878787611953565b60005b84518110156109f1576000858281518110610832577f4e487b7100000000000000000000000000000000000000000000000000000000600052603260045260246000fd5b602002602001015190506000858381518110610877577f4e487b7100000000000000000000000000000000000000000000000000000000600052603260045260246000fd5b60200260200101519050600080600084815260200190815260200160002060008b73ffffffffffffffffffffffffffffffffffffffff1673ffffffffffffffffffffffffffffffffffffffff16815260200190815260200160002054905081811015610918576040517f08c379a000000000000000000000000000000000000000000000000000000000815260040161090f90612d27565b60405180910390fd5b818161092491906131c7565b60008085815260200190815260200160002060008c73ffffffffffffffffffffffffffffffffffffffff1673ffffffffffffffffffffffffffffffffffffffff168152602001908152602001600020819055508160008085815260200190815260200160002060008b73ffffffffffffffffffffffffffffffffffffffff1673ffffffffffffffffffffffffffffffffffffffff16815260200190815260200160002060008282546109d69190612f75565b92505081905550505050806109ea906132e3565b90506107ee565b508473ffffffffffffffffffffffffffffffffffffffff168673ffffffffffffffffffffffffffffffffffffffff168273ffffffffffffffffffffffffffffffffffffffff167f4a39dc06d4c0dbc64b70af90fd698a233a518aa5d07e595d983b8c0526c8f7fb8787604051610a68929190612bd3565b60405180910390a4610a7e81878787878761195b565b505050505050565b60046020528060005260406000206000915090505481565b60608151835114610ae4576040517f08c379a0000000000000000000000000000000000000000000000000000000008152600401610adb90612d87565b60405180910390fd5b6000835167ffffffffffffffff811115610b27577f4e487b7100000000000000000000000000000000000000000000000000000000600052604160045260246000fd5b604051908082528060200260200182016040528015610b555781602001602082028036833780820191505090505b50905060005b8451811015610c4457610bee858281518110610ba0577f4e487b7100000000000000000000000000000000000000000000000000000000600052603260045260246000fd5b6020026020010151858381518110610be1577f4e487b7100000000000000000000000000000000000000000000000000000000600052603260045260246000fd5b6020026020010151610420565b828281518110610c27577f4e487b7100000000000000000000000000000000000000000000000000000000600052603260045260246000fd5b60200260200101818152505080610c3d906132e3565b9050610b5b565b508091505092915050565b60055481565b60006012600a610c65919061304f565b8210610ca6576040517f08c379a0000000000000000000000000000000000000000000000000000000008152600401610c9d90612d07565b60405180910390fd5b610caf83610f34565b8211610cf0576040517f08c379a0000000000000000000000000000000000000000000000000000000008152600401610ce790612d47565b60405180910390fd5b610dad826012600a610d02919061304f565b610d0c91906131c7565b6012600a610d1a919061304f565b6003600087815260200190815260200160002054610d389190612f75565b610d42919061316d565b6012600a610d50919061304f565b846012600a610d5f919061304f565b6003600089815260200190815260200160002054600654610d8091906131c7565b610d8a91906131c7565b610d94919061316d565b610d9e919061316d565b610da89190612fcb565b6114df565b600854610dba919061316d565b905092915050565b6000610df26008546012600a610dd8919061304f565b84610de3919061316d565b610ded9190612fcb565b611b2b565b905060006012600a610e04919061304f565b6003600086815260200190815260200160002054610e229190612f75565b905060006012600a610e34919061304f565b8383610e40919061316d565b610e4a9190612fcb565b905060008183600654610e5d91906131c7565b610e679190612f75565b90506000610e74826114df565b600854610e81919061316d565b9050600060095482610e9391906131c7565b9050826006819055506012600a610eaa919061304f565b84610eb591906131c7565b600360008a81526020019081526020016000208190555086600460008a81526020019081526020016000206000828254610eef9190612f75565b9250508190555080600a6000828254610f089190612f75565b92505081905550610f2a338989604051806020016040528060008152506117b5565b5050505050505050565b60006006546012600a610f47919061304f565b6012600a610f55919061304f565b6003600086815260200190815260200160002054610f739190612f75565b610f7d919061316d565b610f879190612fcb565b9050919050565b8173ffffffffffffffffffffffffffffffffffffffff16610fad61194b565b73ffffffffffffffffffffffffffffffffffffffff161415611004576040517f08c379a0000000000000000000000000000000000000000000000000000000008152600401610ffb90612d67565b60405180910390fd5b806001600061101161194b565b73ffffffffffffffffffffffffffffffffffffffff1673ffffffffffffffffffffffffffffffffffffffff16815260200190815260200160002060008473ffffffffffffffffffffffffffffffffffffffff1673ffffffffffffffffffffffffffffffffffffffff16815260200190815260200160002060006101000a81548160ff0219169083151502179055508173ffffffffffffffffffffffffffffffffffffffff166110be61194b565b73ffffffffffffffffffffffffffffffffffffffff167f17307eab39ab6107e8899845ad3d59bd9653f200f220920489ca2b5937696c31836040516111039190612c0a565b60405180910390a35050565b60095481565b60075481565b6000600160008473ffffffffffffffffffffffffffffffffffffffff1673ffffffffffffffffffffffffffffffffffffffff16815260200190815260200160002060008373ffffffffffffffffffffffffffffffffffffffff1673ffffffffffffffffffffffffffffffffffffffff16815260200190815260200160002060009054906101000a900460ff16905092915050565b600073ffffffffffffffffffffffffffffffffffffffff168473ffffffffffffffffffffffffffffffffffffffff16141561121f576040517f08c379a000000000000000000000000000000000000000000000000000000000815260040161121690612cc7565b60405180910390fd5b61122761194b565b73ffffffffffffffffffffffffffffffffffffffff168573ffffffffffffffffffffffffffffffffffffffff16148061126d575061126c8561126761194b565b61111b565b5b6112ac576040517f08c379a00000000000000000000000000000000000000000000000000000000081526004016112a390612ca7565b60405180910390fd5b60006112b661194b565b90506112d68187876112c788611c02565b6112d088611c02565b87611953565b600080600086815260200190815260200160002060008873ffffffffffffffffffffffffffffffffffffffff1673ffffffffffffffffffffffffffffffffffffffff1681526020019081526020016000205490508381101561136d576040517f08c379a000000000000000000000000000000000000000000000000000000000815260040161136490612d27565b60405180910390fd5b838161137991906131c7565b60008087815260200190815260200160002060008973ffffffffffffffffffffffffffffffffffffffff1673ffffffffffffffffffffffffffffffffffffffff168152602001908152602001600020819055508360008087815260200190815260200160002060008873ffffffffffffffffffffffffffffffffffffffff1673ffffffffffffffffffffffffffffffffffffffff168152602001908152602001600020600082825461142b9190612f75565b925050819055508573ffffffffffffffffffffffffffffffffffffffff168773ffffffffffffffffffffffffffffffffffffffff168373ffffffffffffffffffffffffffffffffffffffff167fc3d58168c5ae7397731d063d5bbf3d657854427343f4c083240f7aacaa2d0f6288886040516114a8929190612e22565b60405180910390a46114be828888888888611cc8565b50505050505050565b60036020528060005260406000206000915090505481565b6000806012600a6114f0919061304f565b836114fb9190612fcb565b905060008111611540576040517f08c379a000000000000000000000000000000000000000000000000000000000815260040161153790612de7565b60405180910390fd5b6000700100000000000000000000000000000000821061157157608082901c915060808161156e9190612f75565b90505b68010000000000000000821061159857604082901c91506040816115959190612f75565b90505b64010000000082106115bb57602082901c91506020816115b89190612f75565b90505b6201000082106115dc57601082901c91506010816115d99190612f75565b90505b61010082106115fc57600882901c91506008816115f99190612f75565b90505b6010821061161b57600482901c91506004816116189190612f75565b90505b6004821061163a57600282901c91506002816116379190612f75565b90505b600282106116525760018161164f9190612f75565b90505b6012600a611660919061304f565b8161166b919061316d565b90506012600a61167b919061304f565b816116869190612fcb565b6002611692919061304f565b8461169d9190612fcb565b91506000806012600a6116b0919061304f565b90505b6000811115611734576012600a6116ca919061304f565b60026116d6919061316d565b84106116fa5780826116e89190612f75565b91506002846116f79190612fcb565b93505b6012600a611708919061304f565b8485611714919061316d565b61171e9190612fcb565b935060028161172d9190612fcb565b90506116b3565b5081816117419190612f75565b9350505050919050565b60007f01ffc9a7000000000000000000000000000000000000000000000000000000007bffffffffffffffffffffffffffffffffffffffffffffffffffffffff1916827bffffffffffffffffffffffffffffffffffffffffffffffffffffffff1916149050919050565b600073ffffffffffffffffffffffffffffffffffffffff168473ffffffffffffffffffffffffffffffffffffffff161415611825576040517f08c379a000000000000000000000000000000000000000000000000000000000815260040161181c90612dc7565b60405180910390fd5b600061182f61194b565b90506118508160008761184188611c02565b61184a88611c02565b87611953565b8260008086815260200190815260200160002060008773ffffffffffffffffffffffffffffffffffffffff1673ffffffffffffffffffffffffffffffffffffffff16815260200190815260200160002060008282546118af9190612f75565b925050819055508473ffffffffffffffffffffffffffffffffffffffff16600073ffffffffffffffffffffffffffffffffffffffff168273ffffffffffffffffffffffffffffffffffffffff167fc3d58168c5ae7397731d063d5bbf3d657854427343f4c083240f7aacaa2d0f62878760405161192d929190612e22565b60405180910390a461194481600087878787611cc8565b5050505050565b600033905090565b505050505050565b61197a8473ffffffffffffffffffffffffffffffffffffffff16611e98565b15611b23578373ffffffffffffffffffffffffffffffffffffffff1663bc197c8187878686866040518663ffffffff1660e01b81526004016119c0959493929190612aef565b602060405180830381600087803b1580156119da57600080fd5b505af1925050508015611a0b57506040513d601f19601f82011682018060405250810190611a0891906123f5565b60015b611a9a57611a17613444565b80611a225750611a5f565b806040517f08c379a0000000000000000000000000000000000000000000000000000000008152600401611a569190612c25565b60405180910390fd5b6040517f08c379a0000000000000000000000000000000000000000000000000000000008152600401611a9190612c47565b60405180910390fd5b63bc197c8160e01b7bffffffffffffffffffffffffffffffffffffffffffffffffffffffff1916817bffffffffffffffffffffffffffffffffffffffffffffffffffffffff191614611b21576040517f08c379a0000000000000000000000000000000000000000000000000000000008152600401611b1890612c67565b60405180910390fd5b505b505050505050565b6000806012600a611b3c919061304f565b83611b479190612fcb565b905060006012600a611b59919061304f565b84611b64919061332c565b90506000826002611b75919061304f565b905060006012600a611b87919061304f565b905060005b603e811015611bea57600084611ba183611eab565b161115611bd7576012600a611bb6919061304f565b611bbf82611f06565b83611bca919061316d565b611bd49190612fcb565b91505b8080611be2906132e3565b915050611b8c565b508082611bf7919061316d565b945050505050919050565b60606000600167ffffffffffffffff811115611c47577f4e487b7100000000000000000000000000000000000000000000000000000000600052604160045260246000fd5b604051908082528060200260200182016040528015611c755781602001602082028036833780820191505090505b5090508281600081518110611cb3577f4e487b7100000000000000000000000000000000000000000000000000000000600052603260045260246000fd5b60200260200101818152505080915050919050565b611ce78473ffffffffffffffffffffffffffffffffffffffff16611e98565b15611e90578373ffffffffffffffffffffffffffffffffffffffff1663f23a6e6187878686866040518663ffffffff1660e01b8152600401611d2d959493929190612b57565b602060405180830381600087803b158015611d4757600080fd5b505af1925050508015611d7857506040513d601f19601f82011682018060405250810190611d7591906123f5565b60015b611e0757611d84613444565b80611d8f5750611dcc565b806040517f08c379a0000000000000000000000000000000000000000000000000000000008152600401611dc39190612c25565b60405180910390fd5b6040517f08c379a0000000000000000000000000000000000000000000000000000000008152600401611dfe90612c47565b60405180910390fd5b63f23a6e6160e01b7bffffffffffffffffffffffffffffffffffffffffffffffffffffffff1916817bffffffffffffffffffffffffffffffffffffffffffffffffffffffff191614611e8e576040517f08c379a0000000000000000000000000000000000000000000000000000000008152600401611e8590612c67565b60405180910390fd5b505b505050505050565b600080823b905060008111915050919050565b6000806040518061022001604052806101f081526020016135576101f09139905060006008846008611edd919061316d565b611ee79190612f75565b905060008183015190508067ffffffffffffffff169350505050919050565b6000806040518061022001604052806101f081526020016137476101f09139905060006008846008611f38919061316d565b611f429190612f75565b905060008183015190508067ffffffffffffffff169350505050919050565b6000611f74611f6f84612e7c565b612e4b565b90508083825260208201905082856020860282011115611f9357600080fd5b60005b85811015611fc35781611fa98882612077565b845260208401935060208301925050600181019050611f96565b5050509392505050565b6000611fe0611fdb84612ea8565b612e4b565b90508083825260208201905082856020860282011115611fff57600080fd5b60005b8581101561202f57816120158882612149565b845260208401935060208301925050600181019050612002565b5050509392505050565b600061204c61204784612ed4565b612e4b565b90508281526020810184848401111561206457600080fd5b61206f84828561326f565b509392505050565b600081359050612086816134fa565b92915050565b600082601f83011261209d57600080fd5b81356120ad848260208601611f61565b91505092915050565b600082601f8301126120c757600080fd5b81356120d7848260208601611fcd565b91505092915050565b6000813590506120ef81613511565b92915050565b60008135905061210481613528565b92915050565b60008151905061211981613528565b92915050565b600082601f83011261213057600080fd5b8135612140848260208601612039565b91505092915050565b6000813590506121588161353f565b92915050565b6000806040838503121561217157600080fd5b600061217f85828601612077565b925050602061219085828601612077565b9150509250929050565b600080600080600060a086880312156121b257600080fd5b60006121c088828901612077565b95505060206121d188828901612077565b945050604086013567ffffffffffffffff8111156121ee57600080fd5b6121fa888289016120b6565b935050606086013567ffffffffffffffff81111561221757600080fd5b612223888289016120b6565b925050608086013567ffffffffffffffff81111561224057600080fd5b61224c8882890161211f565b9150509295509295909350565b600080600080600060a0868803121561227157600080fd5b600061227f88828901612077565b955050602061229088828901612077565b94505060406122a188828901612149565b93505060606122b288828901612149565b925050608086013567ffffffffffffffff8111156122cf57600080fd5b6122db8882890161211f565b9150509295509295909350565b600080604083850312156122fb57600080fd5b600061230985828601612077565b925050602061231a858286016120e0565b9150509250929050565b6000806040838503121561233757600080fd5b600061234585828601612077565b925050602061235685828601612149565b9150509250929050565b6000806040838503121561237357600080fd5b600083013567ffffffffffffffff81111561238d57600080fd5b6123998582860161208c565b925050602083013567ffffffffffffffff8111156123b657600080fd5b6123c2858286016120b6565b9150509250929050565b6000602082840312156123de57600080fd5b60006123ec848285016120f5565b91505092915050565b60006020828403121561240757600080fd5b60006124158482850161210a565b91505092915050565b60006020828403121561243057600080fd5b600061243e84828501612149565b91505092915050565b6000806040838503121561245a57600080fd5b600061246885828601612149565b925050602061247985828601612149565b9150509250929050565b600061248f8383612ad1565b60208301905092915050565b6124a4816131fb565b82525050565b60006124b582612f14565b6124bf8185612f42565b93506124ca83612f04565b8060005b838110156124fb5781516124e28882612483565b97506124ed83612f35565b9250506001810190506124ce565b5085935050505092915050565b6125118161320d565b82525050565b600061252282612f1f565b61252c8185612f53565b935061253c81856020860161327e565b61254581613419565b840191505092915050565b600061255b82612f2a565b6125658185612f64565b935061257581856020860161327e565b61257e81613419565b840191505092915050565b6000612596603483612f64565b91507f455243313135353a207472616e7366657220746f206e6f6e204552433131353560008301527f526563656976657220696d706c656d656e7465720000000000000000000000006020830152604082019050919050565b60006125fc602883612f64565b91507f455243313135353a204552433131353552656365697665722072656a6563746560008301527f6420746f6b656e730000000000000000000000000000000000000000000000006020830152604082019050919050565b6000612662602b83612f64565b91507f455243313135353a2062616c616e636520717565727920666f7220746865207a60008301527f65726f20616464726573730000000000000000000000000000000000000000006020830152604082019050919050565b60006126c8602983612f64565b91507f455243313135353a2063616c6c6572206973206e6f74206f776e6572206e6f7260008301527f20617070726f76656400000000000000000000000000000000000000000000006020830152604082019050919050565b600061272e602583612f64565b91507f455243313135353a207472616e7366657220746f20746865207a65726f20616460008301527f64726573730000000000000000000000000000000000000000000000000000006020830152604082019050919050565b6000612794603283612f64565b91507f455243313135353a207472616e736665722063616c6c6572206973206e6f742060008301527f6f776e6572206e6f7220617070726f76656400000000000000000000000000006020830152604082019050919050565b60006127fa602183612f64565b91507f6765745265717569726564416d6f756e743a20707269636520746f6f2068696760008301527f68000000000000000000000000000000000000000000000000000000000000006020830152604082019050919050565b6000612860602a83612f64565b91507f455243313135353a20696e73756666696369656e742062616c616e636520666f60008301527f72207472616e73666572000000000000000000000000000000000000000000006020830152604082019050919050565b60006128c6602083612f64565b91507f6765745265717569726564416d6f756e743a20707269636520746f6f206c6f776000830152602082019050919050565b6000612906602983612f64565b91507f455243313135353a2073657474696e6720617070726f76616c2073746174757360008301527f20666f722073656c6600000000000000000000000000000000000000000000006020830152604082019050919050565b600061296c602983612f64565b91507f455243313135353a206163636f756e747320616e6420696473206c656e67746860008301527f206d69736d6174636800000000000000000000000000000000000000000000006020830152604082019050919050565b60006129d2602883612f64565b91507f455243313135353a2069647320616e6420616d6f756e7473206c656e6774682060008301527f6d69736d617463680000000000000000000000000000000000000000000000006020830152604082019050919050565b6000612a38602183612f64565b91507f455243313135353a206d696e7420746f20746865207a65726f2061646472657360008301527f73000000000000000000000000000000000000000000000000000000000000006020830152604082019050919050565b6000612a9e601c83612f64565b91507f6c6f6761726974686d3a206f706572616e6420746f6f20736d616c6c000000006000830152602082019050919050565b612ada81613265565b82525050565b612ae981613265565b82525050565b600060a082019050612b04600083018861249b565b612b11602083018761249b565b8181036040830152612b2381866124aa565b90508181036060830152612b3781856124aa565b90508181036080830152612b4b8184612517565b90509695505050505050565b600060a082019050612b6c600083018861249b565b612b79602083018761249b565b612b866040830186612ae0565b612b936060830185612ae0565b8181036080830152612ba58184612517565b90509695505050505050565b60006020820190508181036000830152612bcb81846124aa565b905092915050565b60006040820190508181036000830152612bed81856124aa565b90508181036020830152612c0181846124aa565b90509392505050565b6000602082019050612c1f6000830184612508565b92915050565b60006020820190508181036000830152612c3f8184612550565b905092915050565b60006020820190508181036000830152612c6081612589565b9050919050565b60006020820190508181036000830152612c80816125ef565b9050919050565b60006020820190508181036000830152612ca081612655565b9050919050565b60006020820190508181036000830152612cc0816126bb565b9050919050565b60006020820190508181036000830152612ce081612721565b9050919050565b60006020820190508181036000830152612d0081612787565b9050919050565b60006020820190508181036000830152612d20816127ed565b9050919050565b60006020820190508181036000830152612d4081612853565b9050919050565b60006020820190508181036000830152612d60816128b9565b9050919050565b60006020820190508181036000830152612d80816128f9565b9050919050565b60006020820190508181036000830152612da08161295f565b9050919050565b60006020820190508181036000830152612dc0816129c5565b9050919050565b60006020820190508181036000830152612de081612a2b565b9050919050565b60006020820190508181036000830152612e0081612a91565b9050919050565b6000602082019050612e1c6000830184612ae0565b92915050565b6000604082019050612e376000830185612ae0565b612e446020830184612ae0565b9392505050565b6000604051905081810181811067ffffffffffffffff82111715612e7257612e716133ea565b5b8060405250919050565b600067ffffffffffffffff821115612e9757612e966133ea565b5b602082029050602081019050919050565b600067ffffffffffffffff821115612ec357612ec26133ea565b5b602082029050602081019050919050565b600067ffffffffffffffff821115612eef57612eee6133ea565b5b601f19601f8301169050602081019050919050565b6000819050602082019050919050565b600081519050919050565b600081519050919050565b600081519050919050565b6000602082019050919050565b600082825260208201905092915050565b600082825260208201905092915050565b600082825260208201905092915050565b6000612f8082613265565b9150612f8b83613265565b9250827fffffffffffffffffffffffffffffffffffffffffffffffffffffffffffffffff03821115612fc057612fbf61335d565b5b828201905092915050565b6000612fd682613265565b9150612fe183613265565b925082612ff157612ff061338c565b5b828204905092915050565b6000808291508390505b6001851115613046578086048111156130225761302161335d565b5b60018516156130315780820291505b808102905061303f8561342a565b9450613006565b94509492505050565b600061305a82613265565b915061306583613265565b92506130927fffffffffffffffffffffffffffffffffffffffffffffffffffffffffffffffff848461309a565b905092915050565b6000826130aa5760019050613166565b816130b85760009050613166565b81600181146130ce57600281146130d857613107565b6001915050613166565b60ff8411156130ea576130e961335d565b5b8360020a9150848211156131015761310061335d565b5b50613166565b5060208310610133831016604e8410600b841016171561313c5782820a9050838111156131375761313661335d565b5b613166565b6131498484846001612ffc565b925090508184048111156131605761315f61335d565b5b81810290505b9392505050565b600061317882613265565b915061318383613265565b9250817fffffffffffffffffffffffffffffffffffffffffffffffffffffffffffffffff04831182151516156131bc576131bb61335d565b5b828202905092915050565b60006131d282613265565b91506131dd83613265565b9250828210156131f0576131ef61335d565b5b828203905092915050565b600061320682613245565b9050919050565b60008115159050919050565b60007fffffffff0000000000000000000000000000000000000000000000000000000082169050919050565b600073ffffffffffffffffffffffffffffffffffffffff82169050919050565b6000819050919050565b82818337600083830152505050565b60005b8381101561329c578082015181840152602081019050613281565b838111156132ab576000848401525b50505050565b600060028204905060018216806132c957607f821691505b602082108114156132dd576132dc6133bb565b5b50919050565b60006132ee82613265565b91507fffffffffffffffffffffffffffffffffffffffffffffffffffffffffffffffff8214156133215761332061335d565b5b600182019050919050565b600061333782613265565b915061334283613265565b9250826133525761335161338c565b5b828206905092915050565b7f4e487b7100000000000000000000000000000000000000000000000000000000600052601160045260246000fd5b7f4e487b7100000000000000000000000000000000000000000000000000000000600052601260045260246000fd5b7f4e487b7100000000000000000000000000000000000000000000000000000000600052602260045260246000fd5b7f4e487b7100000000000000000000000000000000000000000000000000000000600052604160045260246000fd5b6000601f19601f8301169050919050565b60008160011c9050919050565b60008160e01c9050919050565b600060443d1015613454576134f7565b60046000803e613465600051613437565b6308c379a0811461347657506134f7565b60405160043d036004823e80513d602482011167ffffffffffffffff821117156134a2575050506134f7565b808201805167ffffffffffffffff8111156134c15750505050506134f7565b8060208301013d85018111156134dc575050505050506134f7565b6134e582613419565b60208401016040528296505050505050505b90565b613503816131fb565b811461350e57600080fd5b50565b61351a8161320d565b811461352557600080fd5b50565b61353181613219565b811461353c57600080fd5b50565b61354881613265565b811461355357600080fd5b5056fe000000000000000100000000000000020000000000000004000000000000000800000000000000100000000000000020000000000000004000000000000000800000000000000100000000000000020000000000000004000000000000000800000000000000100000000000000020000000000000004000000000000000800000000000000100000000000000020000000000000004000000000000000800000000000000100000000000000020000000000000004000000000000000800000000000000100000000000000020000000000000004000000000000000800000000000000100000000000000020000000000000004000000000000000800000000000000100000000000000020000000000000004000000000000000800000000000000100000000000000020000000000000004000000000000000800000000000000100000000000000020000000000000004000000000000000800000000000000100000000000000020000000000000004000000000000000800000000000000100000000000000020000000000000004000000000000000800000000000000100000000000000020000000000000004000000000000000800000000000000100000000000000020000000000000004000000000000000800000000000000100000000000000020000000000000000de0b6b3a76400000de0b6b3a76400010de0b6b3a76400020de0b6b3a76400050de0b6b3a764000b0de0b6b3a76400160de0b6b3a764002c0de0b6b3a76400580de0b6b3a76400b10de0b6b3a76401620de0b6b3a76402c50de0b6b3a764058b0de0b6b3a7640b170de0b6b3a764162e0de0b6b3a7642c5c0de0b6b3a76458b90de0b6b3a764b1720de0b6b3a76562e40de0b6b3a766c5c80de0b6b3a7698b900de0b6b3a76f17210de0b6b3a77a2e420de0b6b3a7905c850de0b6b3a7bcb90b0de0b6b3a81572170de0b6b3a8c6e42f0de0b6b3aa29c85f0de0b6b3acef90bf0de0b6b3b27b217f0de0b6b3bd9242ff0de0b6b3d3c085fe0de0b6b4001d0bfd0de0b6b458d617fc0de0b6b50a4830010de0b6b66d2c60260de0b6b932f4c0da0de0b6bebe8583eb0de0b6c9d5a710b30de0b6e003ea44db0de0b70c607117840de0b765198066410de0b8168ba5a9640de0b979700ac64c0de0bc3f393f5ab50de0c1cacd51ee520de0cce1fc1cc3c60de0e3107449406e0de10f6dcefe47050de1682a2ddebc000de219a991aadb930de37cc2f2fcb7380de6436028ee3a220debd244c555d3b40df6f6b9dbcc5f410e0d5a6c6ea8a8410e3a8dbbd2b7e9d50e96aa5bb87c13840f55ef96062919dd10f25db82c317ea514b1c2442ffabe3c1edbf25de7a70f72449e9dd02d2817d4a264697066735822122017eb467147139070faa9787e70f8e6528cec6702ae3cc4b0441dc21373ac281864736f6c63430008000033",
          "opcodes": "PUSH1 0x80 PUSH1 0x40 MSTORE CALLVALUE DUP1 ISZERO PUSH3 0x11 JUMPI PUSH1 0x0 DUP1 REVERT JUMPDEST POP PUSH1 0x40 MLOAD PUSH3 0x43CC CODESIZE SUB DUP1 PUSH3 0x43CC DUP4 CODECOPY DUP2 DUP2 ADD PUSH1 0x40 MSTORE DUP2 ADD SWAP1 PUSH3 0x37 SWAP2 SWAP1 PUSH3 0x504 JUMP JUMPDEST PUSH1 0x40 MLOAD DUP1 PUSH1 0x40 ADD PUSH1 0x40 MSTORE DUP1 PUSH1 0x4 DUP2 MSTORE PUSH1 0x20 ADD PUSH32 0x6E6F6E6500000000000000000000000000000000000000000000000000000000 DUP2 MSTORE POP PUSH3 0x7E DUP2 PUSH3 0x173 PUSH1 0x20 SHL PUSH1 0x20 SHR JUMP JUMPDEST POP PUSH1 0x0 DUP3 GT PUSH3 0xC5 JUMPI PUSH1 0x40 MLOAD PUSH32 0x8C379A000000000000000000000000000000000000000000000000000000000 DUP2 MSTORE PUSH1 0x4 ADD PUSH3 0xBC SWAP1 PUSH3 0x69B JUMP JUMPDEST PUSH1 0x40 MLOAD DUP1 SWAP2 SUB SWAP1 REVERT JUMPDEST DUP2 PUSH1 0x5 DUP2 SWAP1 SSTORE POP PUSH1 0x0 DUP2 GT PUSH3 0x112 JUMPI PUSH1 0x40 MLOAD PUSH32 0x8C379A000000000000000000000000000000000000000000000000000000000 DUP2 MSTORE PUSH1 0x4 ADD PUSH3 0x109 SWAP1 PUSH3 0x657 JUMP JUMPDEST PUSH1 0x40 MLOAD DUP1 SWAP2 SUB SWAP1 REVERT JUMPDEST DUP1 PUSH1 0x8 DUP2 SWAP1 SSTORE POP PUSH1 0x12 PUSH1 0xA PUSH3 0x129 SWAP2 SWAP1 PUSH3 0x7BE JUMP JUMPDEST PUSH1 0x5 SLOAD PUSH3 0x138 SWAP2 SWAP1 PUSH3 0x8FB JUMP JUMPDEST PUSH1 0x6 DUP2 SWAP1 SSTORE POP PUSH3 0x156 PUSH1 0x6 SLOAD PUSH3 0x18F PUSH1 0x20 SHL PUSH3 0x14DF OR PUSH1 0x20 SHR JUMP JUMPDEST PUSH1 0x8 SLOAD PUSH3 0x165 SWAP2 SWAP1 PUSH3 0x8FB JUMP JUMPDEST PUSH1 0x9 DUP2 SWAP1 SSTORE POP POP POP PUSH3 0xA50 JUMP JUMPDEST DUP1 PUSH1 0x2 SWAP1 DUP1 MLOAD SWAP1 PUSH1 0x20 ADD SWAP1 PUSH3 0x18B SWAP3 SWAP2 SWAP1 PUSH3 0x43D JUMP JUMPDEST POP POP JUMP JUMPDEST PUSH1 0x0 DUP1 PUSH1 0x12 PUSH1 0xA PUSH3 0x1A2 SWAP2 SWAP1 PUSH3 0x7BE JUMP JUMPDEST DUP4 PUSH3 0x1AF SWAP2 SWAP1 PUSH3 0x72B JUMP JUMPDEST SWAP1 POP PUSH1 0x0 DUP2 GT PUSH3 0x1F7 JUMPI PUSH1 0x40 MLOAD PUSH32 0x8C379A000000000000000000000000000000000000000000000000000000000 DUP2 MSTORE PUSH1 0x4 ADD PUSH3 0x1EE SWAP1 PUSH3 0x679 JUMP JUMPDEST PUSH1 0x40 MLOAD DUP1 SWAP2 SUB SWAP1 REVERT JUMPDEST PUSH1 0x0 PUSH17 0x100000000000000000000000000000000 DUP3 LT PUSH3 0x22B JUMPI PUSH1 0x80 DUP3 SWAP1 SHR SWAP2 POP PUSH1 0x80 DUP2 PUSH3 0x228 SWAP2 SWAP1 PUSH3 0x6CE JUMP JUMPDEST SWAP1 POP JUMPDEST PUSH9 0x10000000000000000 DUP3 LT PUSH3 0x255 JUMPI PUSH1 0x40 DUP3 SWAP1 SHR SWAP2 POP PUSH1 0x40 DUP2 PUSH3 0x252 SWAP2 SWAP1 PUSH3 0x6CE JUMP JUMPDEST SWAP1 POP JUMPDEST PUSH5 0x100000000 DUP3 LT PUSH3 0x27B JUMPI PUSH1 0x20 DUP3 SWAP1 SHR SWAP2 POP PUSH1 0x20 DUP2 PUSH3 0x278 SWAP2 SWAP1 PUSH3 0x6CE JUMP JUMPDEST SWAP1 POP JUMPDEST PUSH3 0x10000 DUP3 LT PUSH3 0x29F JUMPI PUSH1 0x10 DUP3 SWAP1 SHR SWAP2 POP PUSH1 0x10 DUP2 PUSH3 0x29C SWAP2 SWAP1 PUSH3 0x6CE JUMP JUMPDEST SWAP1 POP JUMPDEST PUSH2 0x100 DUP3 LT PUSH3 0x2C2 JUMPI PUSH1 0x8 DUP3 SWAP1 SHR SWAP2 POP PUSH1 0x8 DUP2 PUSH3 0x2BF SWAP2 SWAP1 PUSH3 0x6CE JUMP JUMPDEST SWAP1 POP JUMPDEST PUSH1 0x10 DUP3 LT PUSH3 0x2E4 JUMPI PUSH1 0x4 DUP3 SWAP1 SHR SWAP2 POP PUSH1 0x4 DUP2 PUSH3 0x2E1 SWAP2 SWAP1 PUSH3 0x6CE JUMP JUMPDEST SWAP1 POP JUMPDEST PUSH1 0x4 DUP3 LT PUSH3 0x306 JUMPI PUSH1 0x2 DUP3 SWAP1 SHR SWAP2 POP PUSH1 0x2 DUP2 PUSH3 0x303 SWAP2 SWAP1 PUSH3 0x6CE JUMP JUMPDEST SWAP1 POP JUMPDEST PUSH1 0x2 DUP3 LT PUSH3 0x321 JUMPI PUSH1 0x1 DUP2 PUSH3 0x31E SWAP2 SWAP1 PUSH3 0x6CE JUMP JUMPDEST SWAP1 POP JUMPDEST PUSH1 0x12 PUSH1 0xA PUSH3 0x331 SWAP2 SWAP1 PUSH3 0x7BE JUMP JUMPDEST DUP2 PUSH3 0x33E SWAP2 SWAP1 PUSH3 0x8FB JUMP JUMPDEST SWAP1 POP PUSH1 0x12 PUSH1 0xA PUSH3 0x350 SWAP2 SWAP1 PUSH3 0x7BE JUMP JUMPDEST DUP2 PUSH3 0x35D SWAP2 SWAP1 PUSH3 0x72B JUMP JUMPDEST PUSH1 0x2 PUSH3 0x36B SWAP2 SWAP1 PUSH3 0x7BE JUMP JUMPDEST DUP5 PUSH3 0x378 SWAP2 SWAP1 PUSH3 0x72B JUMP JUMPDEST SWAP2 POP PUSH1 0x0 DUP1 PUSH1 0x12 PUSH1 0xA PUSH3 0x38D SWAP2 SWAP1 PUSH3 0x7BE JUMP JUMPDEST SWAP1 POP JUMPDEST PUSH1 0x0 DUP2 GT ISZERO PUSH3 0x424 JUMPI PUSH1 0x12 PUSH1 0xA PUSH3 0x3AA SWAP2 SWAP1 PUSH3 0x7BE JUMP JUMPDEST PUSH1 0x2 PUSH3 0x3B8 SWAP2 SWAP1 PUSH3 0x8FB JUMP JUMPDEST DUP5 LT PUSH3 0x3E1 JUMPI DUP1 DUP3 PUSH3 0x3CD SWAP2 SWAP1 PUSH3 0x6CE JUMP JUMPDEST SWAP2 POP PUSH1 0x2 DUP5 PUSH3 0x3DE SWAP2 SWAP1 PUSH3 0x72B JUMP JUMPDEST SWAP4 POP JUMPDEST PUSH1 0x12 PUSH1 0xA PUSH3 0x3F1 SWAP2 SWAP1 PUSH3 0x7BE JUMP JUMPDEST DUP5 DUP6 PUSH3 0x3FF SWAP2 SWAP1 PUSH3 0x8FB JUMP JUMPDEST PUSH3 0x40B SWAP2 SWAP1 PUSH3 0x72B JUMP JUMPDEST SWAP4 POP PUSH1 0x2 DUP2 PUSH3 0x41C SWAP2 SWAP1 PUSH3 0x72B JUMP JUMPDEST SWAP1 POP PUSH3 0x390 JUMP JUMPDEST POP DUP2 DUP2 PUSH3 0x433 SWAP2 SWAP1 PUSH3 0x6CE JUMP JUMPDEST SWAP4 POP POP POP POP SWAP2 SWAP1 POP JUMP JUMPDEST DUP3 DUP1 SLOAD PUSH3 0x44B SWAP1 PUSH3 0x966 JUMP JUMPDEST SWAP1 PUSH1 0x0 MSTORE PUSH1 0x20 PUSH1 0x0 KECCAK256 SWAP1 PUSH1 0x1F ADD PUSH1 0x20 SWAP1 DIV DUP2 ADD SWAP3 DUP3 PUSH3 0x46F JUMPI PUSH1 0x0 DUP6 SSTORE PUSH3 0x4BB JUMP JUMPDEST DUP3 PUSH1 0x1F LT PUSH3 0x48A JUMPI DUP1 MLOAD PUSH1 0xFF NOT AND DUP4 DUP1 ADD OR DUP6 SSTORE PUSH3 0x4BB JUMP JUMPDEST DUP3 DUP1 ADD PUSH1 0x1 ADD DUP6 SSTORE DUP3 ISZERO PUSH3 0x4BB JUMPI SWAP2 DUP3 ADD JUMPDEST DUP3 DUP2 GT ISZERO PUSH3 0x4BA JUMPI DUP3 MLOAD DUP3 SSTORE SWAP2 PUSH1 0x20 ADD SWAP2 SWAP1 PUSH1 0x1 ADD SWAP1 PUSH3 0x49D JUMP JUMPDEST JUMPDEST POP SWAP1 POP PUSH3 0x4CA SWAP2 SWAP1 PUSH3 0x4CE JUMP JUMPDEST POP SWAP1 JUMP JUMPDEST JUMPDEST DUP1 DUP3 GT ISZERO PUSH3 0x4E9 JUMPI PUSH1 0x0 DUP2 PUSH1 0x0 SWAP1 SSTORE POP PUSH1 0x1 ADD PUSH3 0x4CF JUMP JUMPDEST POP SWAP1 JUMP JUMPDEST PUSH1 0x0 DUP2 MLOAD SWAP1 POP PUSH3 0x4FE DUP2 PUSH3 0xA36 JUMP JUMPDEST SWAP3 SWAP2 POP POP JUMP JUMPDEST PUSH1 0x0 DUP1 PUSH1 0x40 DUP4 DUP6 SUB SLT ISZERO PUSH3 0x518 JUMPI PUSH1 0x0 DUP1 REVERT JUMPDEST PUSH1 0x0 PUSH3 0x528 DUP6 DUP3 DUP7 ADD PUSH3 0x4ED JUMP JUMPDEST SWAP3 POP POP PUSH1 0x20 PUSH3 0x53B DUP6 DUP3 DUP7 ADD PUSH3 0x4ED JUMP JUMPDEST SWAP2 POP POP SWAP3 POP SWAP3 SWAP1 POP JUMP JUMPDEST PUSH1 0x0 PUSH3 0x554 PUSH1 0x21 DUP4 PUSH3 0x6BD JUMP JUMPDEST SWAP2 POP PUSH32 0x636F6E7374727563746F723A20622073686F756C6420626520706F7369746976 PUSH1 0x0 DUP4 ADD MSTORE PUSH32 0x6500000000000000000000000000000000000000000000000000000000000000 PUSH1 0x20 DUP4 ADD MSTORE PUSH1 0x40 DUP3 ADD SWAP1 POP SWAP2 SWAP1 POP JUMP JUMPDEST PUSH1 0x0 PUSH3 0x5BC PUSH1 0x1C DUP4 PUSH3 0x6BD JUMP JUMPDEST SWAP2 POP PUSH32 0x6C6F6761726974686D3A206F706572616E6420746F6F20736D616C6C00000000 PUSH1 0x0 DUP4 ADD MSTORE PUSH1 0x20 DUP3 ADD SWAP1 POP SWAP2 SWAP1 POP JUMP JUMPDEST PUSH1 0x0 PUSH3 0x5FE PUSH1 0x21 DUP4 PUSH3 0x6BD JUMP JUMPDEST SWAP2 POP PUSH32 0x636F6E7374727563746F723A204E2073686F756C6420626520706F7369746976 PUSH1 0x0 DUP4 ADD MSTORE PUSH32 0x6500000000000000000000000000000000000000000000000000000000000000 PUSH1 0x20 DUP4 ADD MSTORE PUSH1 0x40 DUP3 ADD SWAP1 POP SWAP2 SWAP1 POP JUMP JUMPDEST PUSH1 0x0 PUSH1 0x20 DUP3 ADD SWAP1 POP DUP2 DUP2 SUB PUSH1 0x0 DUP4 ADD MSTORE PUSH3 0x672 DUP2 PUSH3 0x545 JUMP JUMPDEST SWAP1 POP SWAP2 SWAP1 POP JUMP JUMPDEST PUSH1 0x0 PUSH1 0x20 DUP3 ADD SWAP1 POP DUP2 DUP2 SUB PUSH1 0x0 DUP4 ADD MSTORE PUSH3 0x694 DUP2 PUSH3 0x5AD JUMP JUMPDEST SWAP1 POP SWAP2 SWAP1 POP JUMP JUMPDEST PUSH1 0x0 PUSH1 0x20 DUP3 ADD SWAP1 POP DUP2 DUP2 SUB PUSH1 0x0 DUP4 ADD MSTORE PUSH3 0x6B6 DUP2 PUSH3 0x5EF JUMP JUMPDEST SWAP1 POP SWAP2 SWAP1 POP JUMP JUMPDEST PUSH1 0x0 DUP3 DUP3 MSTORE PUSH1 0x20 DUP3 ADD SWAP1 POP SWAP3 SWAP2 POP POP JUMP JUMPDEST PUSH1 0x0 PUSH3 0x6DB DUP3 PUSH3 0x95C JUMP JUMPDEST SWAP2 POP PUSH3 0x6E8 DUP4 PUSH3 0x95C JUMP JUMPDEST SWAP3 POP DUP3 PUSH32 0xFFFFFFFFFFFFFFFFFFFFFFFFFFFFFFFFFFFFFFFFFFFFFFFFFFFFFFFFFFFFFFFF SUB DUP3 GT ISZERO PUSH3 0x720 JUMPI PUSH3 0x71F PUSH3 0x99C JUMP JUMPDEST JUMPDEST DUP3 DUP3 ADD SWAP1 POP SWAP3 SWAP2 POP POP JUMP JUMPDEST PUSH1 0x0 PUSH3 0x738 DUP3 PUSH3 0x95C JUMP JUMPDEST SWAP2 POP PUSH3 0x745 DUP4 PUSH3 0x95C JUMP JUMPDEST SWAP3 POP DUP3 PUSH3 0x758 JUMPI PUSH3 0x757 PUSH3 0x9CB JUMP JUMPDEST JUMPDEST DUP3 DUP3 DIV SWAP1 POP SWAP3 SWAP2 POP POP JUMP JUMPDEST PUSH1 0x0 DUP1 DUP3 SWAP2 POP DUP4 SWAP1 POP JUMPDEST PUSH1 0x1 DUP6 GT ISZERO PUSH3 0x7B5 JUMPI DUP1 DUP7 DIV DUP2 GT ISZERO PUSH3 0x78D JUMPI PUSH3 0x78C PUSH3 0x99C JUMP JUMPDEST JUMPDEST PUSH1 0x1 DUP6 AND ISZERO PUSH3 0x79D JUMPI DUP1 DUP3 MUL SWAP2 POP JUMPDEST DUP1 DUP2 MUL SWAP1 POP PUSH3 0x7AD DUP6 PUSH3 0xA29 JUMP JUMPDEST SWAP5 POP PUSH3 0x76D JUMP JUMPDEST SWAP5 POP SWAP5 SWAP3 POP POP POP JUMP JUMPDEST PUSH1 0x0 PUSH3 0x7CB DUP3 PUSH3 0x95C JUMP JUMPDEST SWAP2 POP PUSH3 0x7D8 DUP4 PUSH3 0x95C JUMP JUMPDEST SWAP3 POP PUSH3 0x807 PUSH32 0xFFFFFFFFFFFFFFFFFFFFFFFFFFFFFFFFFFFFFFFFFFFFFFFFFFFFFFFFFFFFFFFF DUP5 DUP5 PUSH3 0x80F JUMP JUMPDEST SWAP1 POP SWAP3 SWAP2 POP POP JUMP JUMPDEST PUSH1 0x0 DUP3 PUSH3 0x821 JUMPI PUSH1 0x1 SWAP1 POP PUSH3 0x8F4 JUMP JUMPDEST DUP2 PUSH3 0x831 JUMPI PUSH1 0x0 SWAP1 POP PUSH3 0x8F4 JUMP JUMPDEST DUP2 PUSH1 0x1 DUP2 EQ PUSH3 0x84A JUMPI PUSH1 0x2 DUP2 EQ PUSH3 0x855 JUMPI PUSH3 0x88B JUMP JUMPDEST PUSH1 0x1 SWAP2 POP POP PUSH3 0x8F4 JUMP JUMPDEST PUSH1 0xFF DUP5 GT ISZERO PUSH3 0x86A JUMPI PUSH3 0x869 PUSH3 0x99C JUMP JUMPDEST JUMPDEST DUP4 PUSH1 0x2 EXP SWAP2 POP DUP5 DUP3 GT ISZERO PUSH3 0x884 JUMPI PUSH3 0x883 PUSH3 0x99C JUMP JUMPDEST JUMPDEST POP PUSH3 0x8F4 JUMP JUMPDEST POP PUSH1 0x20 DUP4 LT PUSH2 0x133 DUP4 LT AND PUSH1 0x4E DUP5 LT PUSH1 0xB DUP5 LT AND OR ISZERO PUSH3 0x8C5 JUMPI DUP3 DUP3 EXP SWAP1 POP DUP4 DUP2 GT ISZERO PUSH3 0x8BF JUMPI PUSH3 0x8BE PUSH3 0x99C JUMP JUMPDEST JUMPDEST PUSH3 0x8F4 JUMP JUMPDEST PUSH3 0x8D4 DUP5 DUP5 DUP5 PUSH1 0x1 PUSH3 0x763 JUMP JUMPDEST SWAP3 POP SWAP1 POP DUP2 DUP5 DIV DUP2 GT ISZERO PUSH3 0x8EE JUMPI PUSH3 0x8ED PUSH3 0x99C JUMP JUMPDEST JUMPDEST DUP2 DUP2 MUL SWAP1 POP JUMPDEST SWAP4 SWAP3 POP POP POP JUMP JUMPDEST PUSH1 0x0 PUSH3 0x908 DUP3 PUSH3 0x95C JUMP JUMPDEST SWAP2 POP PUSH3 0x915 DUP4 PUSH3 0x95C JUMP JUMPDEST SWAP3 POP DUP2 PUSH32 0xFFFFFFFFFFFFFFFFFFFFFFFFFFFFFFFFFFFFFFFFFFFFFFFFFFFFFFFFFFFFFFFF DIV DUP4 GT DUP3 ISZERO ISZERO AND ISZERO PUSH3 0x951 JUMPI PUSH3 0x950 PUSH3 0x99C JUMP JUMPDEST JUMPDEST DUP3 DUP3 MUL SWAP1 POP SWAP3 SWAP2 POP POP JUMP JUMPDEST PUSH1 0x0 DUP2 SWAP1 POP SWAP2 SWAP1 POP JUMP JUMPDEST PUSH1 0x0 PUSH1 0x2 DUP3 DIV SWAP1 POP PUSH1 0x1 DUP3 AND DUP1 PUSH3 0x97F JUMPI PUSH1 0x7F DUP3 AND SWAP2 POP JUMPDEST PUSH1 0x20 DUP3 LT DUP2 EQ ISZERO PUSH3 0x996 JUMPI PUSH3 0x995 PUSH3 0x9FA JUMP JUMPDEST JUMPDEST POP SWAP2 SWAP1 POP JUMP JUMPDEST PUSH32 0x4E487B7100000000000000000000000000000000000000000000000000000000 PUSH1 0x0 MSTORE PUSH1 0x11 PUSH1 0x4 MSTORE PUSH1 0x24 PUSH1 0x0 REVERT JUMPDEST PUSH32 0x4E487B7100000000000000000000000000000000000000000000000000000000 PUSH1 0x0 MSTORE PUSH1 0x12 PUSH1 0x4 MSTORE PUSH1 0x24 PUSH1 0x0 REVERT JUMPDEST PUSH32 0x4E487B7100000000000000000000000000000000000000000000000000000000 PUSH1 0x0 MSTORE PUSH1 0x22 PUSH1 0x4 MSTORE PUSH1 0x24 PUSH1 0x0 REVERT JUMPDEST PUSH1 0x0 DUP2 PUSH1 0x1 SHR SWAP1 POP SWAP2 SWAP1 POP JUMP JUMPDEST PUSH3 0xA41 DUP2 PUSH3 0x95C JUMP JUMPDEST DUP2 EQ PUSH3 0xA4D JUMPI PUSH1 0x0 DUP1 REVERT JUMPDEST POP JUMP JUMPDEST PUSH2 0x396C DUP1 PUSH3 0xA60 PUSH1 0x0 CODECOPY PUSH1 0x0 RETURN INVALID PUSH1 0x80 PUSH1 0x40 MSTORE CALLVALUE DUP1 ISZERO PUSH2 0x10 JUMPI PUSH1 0x0 DUP1 REVERT JUMPDEST POP PUSH1 0x4 CALLDATASIZE LT PUSH2 0x12B JUMPI PUSH1 0x0 CALLDATALOAD PUSH1 0xE0 SHR DUP1 PUSH4 0x5655BB20 GT PUSH2 0xAD JUMPI DUP1 PUSH4 0xB895C74A GT PUSH2 0x71 JUMPI DUP1 PUSH4 0xB895C74A EQ PUSH2 0x368 JUMPI DUP1 PUSH4 0xC6E3A9B3 EQ PUSH2 0x386 JUMPI DUP1 PUSH4 0xE985E9C5 EQ PUSH2 0x3A4 JUMPI DUP1 PUSH4 0xF242432A EQ PUSH2 0x3D4 JUMPI DUP1 PUSH4 0xF3F03A61 EQ PUSH2 0x3F0 JUMPI PUSH2 0x12B JUMP JUMPDEST DUP1 PUSH4 0x5655BB20 EQ PUSH2 0x2B2 JUMPI DUP1 PUSH4 0x6A6E48A4 EQ PUSH2 0x2D0 JUMPI DUP1 PUSH4 0x70876C98 EQ PUSH2 0x300 JUMPI DUP1 PUSH4 0x8B47BBAE EQ PUSH2 0x31C JUMPI DUP1 PUSH4 0xA22CB465 EQ PUSH2 0x34C JUMPI PUSH2 0x12B JUMP JUMPDEST DUP1 PUSH4 0x25374996 GT PUSH2 0xF4 JUMPI DUP1 PUSH4 0x25374996 EQ PUSH2 0x1FA JUMPI DUP1 PUSH4 0x25F5EB81 EQ PUSH2 0x218 JUMPI DUP1 PUSH4 0x2EB2C2D6 EQ PUSH2 0x236 JUMPI DUP1 PUSH4 0x46C82B2C EQ PUSH2 0x252 JUMPI DUP1 PUSH4 0x4E1273F4 EQ PUSH2 0x282 JUMPI PUSH2 0x12B JUMP JUMPDEST DUP1 PUSH3 0xFDD58E EQ PUSH2 0x130 JUMPI DUP1 PUSH4 0x1FFC9A7 EQ PUSH2 0x160 JUMPI DUP1 PUSH4 0xB789A21 EQ PUSH2 0x190 JUMPI DUP1 PUSH4 0xE89341C EQ PUSH2 0x1AC JUMPI DUP1 PUSH4 0x1ADE9391 EQ PUSH2 0x1DC JUMPI JUMPDEST PUSH1 0x0 DUP1 REVERT JUMPDEST PUSH2 0x14A PUSH1 0x4 DUP1 CALLDATASIZE SUB DUP2 ADD SWAP1 PUSH2 0x145 SWAP2 SWAP1 PUSH2 0x2324 JUMP JUMPDEST PUSH2 0x420 JUMP JUMPDEST PUSH1 0x40 MLOAD PUSH2 0x157 SWAP2 SWAP1 PUSH2 0x2E07 JUMP JUMPDEST PUSH1 0x40 MLOAD DUP1 SWAP2 SUB SWAP1 RETURN JUMPDEST PUSH2 0x17A PUSH1 0x4 DUP1 CALLDATASIZE SUB DUP2 ADD SWAP1 PUSH2 0x175 SWAP2 SWAP1 PUSH2 0x23CC JUMP JUMPDEST PUSH2 0x4E9 JUMP JUMPDEST PUSH1 0x40 MLOAD PUSH2 0x187 SWAP2 SWAP1 PUSH2 0x2C0A JUMP JUMPDEST PUSH1 0x40 MLOAD DUP1 SWAP2 SUB SWAP1 RETURN JUMPDEST PUSH2 0x1AA PUSH1 0x4 DUP1 CALLDATASIZE SUB DUP2 ADD SWAP1 PUSH2 0x1A5 SWAP2 SWAP1 PUSH2 0x2447 JUMP JUMPDEST PUSH2 0x5CB JUMP JUMPDEST STOP JUMPDEST PUSH2 0x1C6 PUSH1 0x4 DUP1 CALLDATASIZE SUB DUP2 ADD SWAP1 PUSH2 0x1C1 SWAP2 SWAP1 PUSH2 0x241E JUMP JUMPDEST PUSH2 0x5EA JUMP JUMPDEST PUSH1 0x40 MLOAD PUSH2 0x1D3 SWAP2 SWAP1 PUSH2 0x2C25 JUMP JUMPDEST PUSH1 0x40 MLOAD DUP1 SWAP2 SUB SWAP1 RETURN JUMPDEST PUSH2 0x1E4 PUSH2 0x67E JUMP JUMPDEST PUSH1 0x40 MLOAD PUSH2 0x1F1 SWAP2 SWAP1 PUSH2 0x2E07 JUMP JUMPDEST PUSH1 0x40 MLOAD DUP1 SWAP2 SUB SWAP1 RETURN JUMPDEST PUSH2 0x202 PUSH2 0x684 JUMP JUMPDEST PUSH1 0x40 MLOAD PUSH2 0x20F SWAP2 SWAP1 PUSH2 0x2E07 JUMP JUMPDEST PUSH1 0x40 MLOAD DUP1 SWAP2 SUB SWAP1 RETURN JUMPDEST PUSH2 0x220 PUSH2 0x68A JUMP JUMPDEST PUSH1 0x40 MLOAD PUSH2 0x22D SWAP2 SWAP1 PUSH2 0x2E07 JUMP JUMPDEST PUSH1 0x40 MLOAD DUP1 SWAP2 SUB SWAP1 RETURN JUMPDEST PUSH2 0x250 PUSH1 0x4 DUP1 CALLDATASIZE SUB DUP2 ADD SWAP1 PUSH2 0x24B SWAP2 SWAP1 PUSH2 0x219A JUMP JUMPDEST PUSH2 0x690 JUMP JUMPDEST STOP JUMPDEST PUSH2 0x26C PUSH1 0x4 DUP1 CALLDATASIZE SUB DUP2 ADD SWAP1 PUSH2 0x267 SWAP2 SWAP1 PUSH2 0x241E JUMP JUMPDEST PUSH2 0xA86 JUMP JUMPDEST PUSH1 0x40 MLOAD PUSH2 0x279 SWAP2 SWAP1 PUSH2 0x2E07 JUMP JUMPDEST PUSH1 0x40 MLOAD DUP1 SWAP2 SUB SWAP1 RETURN JUMPDEST PUSH2 0x29C PUSH1 0x4 DUP1 CALLDATASIZE SUB DUP2 ADD SWAP1 PUSH2 0x297 SWAP2 SWAP1 PUSH2 0x2360 JUMP JUMPDEST PUSH2 0xA9E JUMP JUMPDEST PUSH1 0x40 MLOAD PUSH2 0x2A9 SWAP2 SWAP1 PUSH2 0x2BB1 JUMP JUMPDEST PUSH1 0x40 MLOAD DUP1 SWAP2 SUB SWAP1 RETURN JUMPDEST PUSH2 0x2BA PUSH2 0xC4F JUMP JUMPDEST PUSH1 0x40 MLOAD PUSH2 0x2C7 SWAP2 SWAP1 PUSH2 0x2E07 JUMP JUMPDEST PUSH1 0x40 MLOAD DUP1 SWAP2 SUB SWAP1 RETURN JUMPDEST PUSH2 0x2EA PUSH1 0x4 DUP1 CALLDATASIZE SUB DUP2 ADD SWAP1 PUSH2 0x2E5 SWAP2 SWAP1 PUSH2 0x2447 JUMP JUMPDEST PUSH2 0xC55 JUMP JUMPDEST PUSH1 0x40 MLOAD PUSH2 0x2F7 SWAP2 SWAP1 PUSH2 0x2E07 JUMP JUMPDEST PUSH1 0x40 MLOAD DUP1 SWAP2 SUB SWAP1 RETURN JUMPDEST PUSH2 0x31A PUSH1 0x4 DUP1 CALLDATASIZE SUB DUP2 ADD SWAP1 PUSH2 0x315 SWAP2 SWAP1 PUSH2 0x2447 JUMP JUMPDEST PUSH2 0xDC2 JUMP JUMPDEST STOP JUMPDEST PUSH2 0x336 PUSH1 0x4 DUP1 CALLDATASIZE SUB DUP2 ADD SWAP1 PUSH2 0x331 SWAP2 SWAP1 PUSH2 0x241E JUMP JUMPDEST PUSH2 0xF34 JUMP JUMPDEST PUSH1 0x40 MLOAD PUSH2 0x343 SWAP2 SWAP1 PUSH2 0x2E07 JUMP JUMPDEST PUSH1 0x40 MLOAD DUP1 SWAP2 SUB SWAP1 RETURN JUMPDEST PUSH2 0x366 PUSH1 0x4 DUP1 CALLDATASIZE SUB DUP2 ADD SWAP1 PUSH2 0x361 SWAP2 SWAP1 PUSH2 0x22E8 JUMP JUMPDEST PUSH2 0xF8E JUMP JUMPDEST STOP JUMPDEST PUSH2 0x370 PUSH2 0x110F JUMP JUMPDEST PUSH1 0x40 MLOAD PUSH2 0x37D SWAP2 SWAP1 PUSH2 0x2E07 JUMP JUMPDEST PUSH1 0x40 MLOAD DUP1 SWAP2 SUB SWAP1 RETURN JUMPDEST PUSH2 0x38E PUSH2 0x1115 JUMP JUMPDEST PUSH1 0x40 MLOAD PUSH2 0x39B SWAP2 SWAP1 PUSH2 0x2E07 JUMP JUMPDEST PUSH1 0x40 MLOAD DUP1 SWAP2 SUB SWAP1 RETURN JUMPDEST PUSH2 0x3BE PUSH1 0x4 DUP1 CALLDATASIZE SUB DUP2 ADD SWAP1 PUSH2 0x3B9 SWAP2 SWAP1 PUSH2 0x215E JUMP JUMPDEST PUSH2 0x111B JUMP JUMPDEST PUSH1 0x40 MLOAD PUSH2 0x3CB SWAP2 SWAP1 PUSH2 0x2C0A JUMP JUMPDEST PUSH1 0x40 MLOAD DUP1 SWAP2 SUB SWAP1 RETURN JUMPDEST PUSH2 0x3EE PUSH1 0x4 DUP1 CALLDATASIZE SUB DUP2 ADD SWAP1 PUSH2 0x3E9 SWAP2 SWAP1 PUSH2 0x2259 JUMP JUMPDEST PUSH2 0x11AF JUMP JUMPDEST STOP JUMPDEST PUSH2 0x40A PUSH1 0x4 DUP1 CALLDATASIZE SUB DUP2 ADD SWAP1 PUSH2 0x405 SWAP2 SWAP1 PUSH2 0x241E JUMP JUMPDEST PUSH2 0x14C7 JUMP JUMPDEST PUSH1 0x40 MLOAD PUSH2 0x417 SWAP2 SWAP1 PUSH2 0x2E07 JUMP JUMPDEST PUSH1 0x40 MLOAD DUP1 SWAP2 SUB SWAP1 RETURN JUMPDEST PUSH1 0x0 DUP1 PUSH20 0xFFFFFFFFFFFFFFFFFFFFFFFFFFFFFFFFFFFFFFFF AND DUP4 PUSH20 0xFFFFFFFFFFFFFFFFFFFFFFFFFFFFFFFFFFFFFFFF AND EQ ISZERO PUSH2 0x491 JUMPI PUSH1 0x40 MLOAD PUSH32 0x8C379A000000000000000000000000000000000000000000000000000000000 DUP2 MSTORE PUSH1 0x4 ADD PUSH2 0x488 SWAP1 PUSH2 0x2C87 JUMP JUMPDEST PUSH1 0x40 MLOAD DUP1 SWAP2 SUB SWAP1 REVERT JUMPDEST PUSH1 0x0 DUP1 DUP4 DUP2 MSTORE PUSH1 0x20 ADD SWAP1 DUP2 MSTORE PUSH1 0x20 ADD PUSH1 0x0 KECCAK256 PUSH1 0x0 DUP5 PUSH20 0xFFFFFFFFFFFFFFFFFFFFFFFFFFFFFFFFFFFFFFFF AND PUSH20 0xFFFFFFFFFFFFFFFFFFFFFFFFFFFFFFFFFFFFFFFF AND DUP2 MSTORE PUSH1 0x20 ADD SWAP1 DUP2 MSTORE PUSH1 0x20 ADD PUSH1 0x0 KECCAK256 SLOAD SWAP1 POP SWAP3 SWAP2 POP POP JUMP JUMPDEST PUSH1 0x0 PUSH32 0xD9B67A2600000000000000000000000000000000000000000000000000000000 PUSH28 0xFFFFFFFFFFFFFFFFFFFFFFFFFFFFFFFFFFFFFFFFFFFFFFFFFFFFFFFF NOT AND DUP3 PUSH28 0xFFFFFFFFFFFFFFFFFFFFFFFFFFFFFFFFFFFFFFFFFFFFFFFFFFFFFFFF NOT AND EQ DUP1 PUSH2 0x5B4 JUMPI POP PUSH32 0xE89341C00000000000000000000000000000000000000000000000000000000 PUSH28 0xFFFFFFFFFFFFFFFFFFFFFFFFFFFFFFFFFFFFFFFFFFFFFFFFFFFFFFFF NOT AND DUP3 PUSH28 0xFFFFFFFFFFFFFFFFFFFFFFFFFFFFFFFFFFFFFFFFFFFFFFFFFFFFFFFF NOT AND EQ JUMPDEST DUP1 PUSH2 0x5C4 JUMPI POP PUSH2 0x5C3 DUP3 PUSH2 0x174B JUMP JUMPDEST JUMPDEST SWAP1 POP SWAP2 SWAP1 POP JUMP JUMPDEST PUSH2 0x5E6 CALLER DUP4 DUP4 PUSH1 0x40 MLOAD DUP1 PUSH1 0x20 ADD PUSH1 0x40 MSTORE DUP1 PUSH1 0x0 DUP2 MSTORE POP PUSH2 0x17B5 JUMP JUMPDEST POP POP JUMP JUMPDEST PUSH1 0x60 PUSH1 0x2 DUP1 SLOAD PUSH2 0x5F9 SWAP1 PUSH2 0x32B1 JUMP JUMPDEST DUP1 PUSH1 0x1F ADD PUSH1 0x20 DUP1 SWAP2 DIV MUL PUSH1 0x20 ADD PUSH1 0x40 MLOAD SWAP1 DUP2 ADD PUSH1 0x40 MSTORE DUP1 SWAP3 SWAP2 SWAP1 DUP2 DUP2 MSTORE PUSH1 0x20 ADD DUP3 DUP1 SLOAD PUSH2 0x625 SWAP1 PUSH2 0x32B1 JUMP JUMPDEST DUP1 ISZERO PUSH2 0x672 JUMPI DUP1 PUSH1 0x1F LT PUSH2 0x647 JUMPI PUSH2 0x100 DUP1 DUP4 SLOAD DIV MUL DUP4 MSTORE SWAP2 PUSH1 0x20 ADD SWAP2 PUSH2 0x672 JUMP JUMPDEST DUP3 ADD SWAP2 SWAP1 PUSH1 0x0 MSTORE PUSH1 0x20 PUSH1 0x0 KECCAK256 SWAP1 JUMPDEST DUP2 SLOAD DUP2 MSTORE SWAP1 PUSH1 0x1 ADD SWAP1 PUSH1 0x20 ADD DUP1 DUP4 GT PUSH2 0x655 JUMPI DUP3 SWAP1 SUB PUSH1 0x1F AND DUP3 ADD SWAP2 JUMPDEST POP POP POP POP POP SWAP1 POP SWAP2 SWAP1 POP JUMP JUMPDEST PUSH1 0xA SLOAD DUP2 JUMP JUMPDEST PUSH1 0x8 SLOAD DUP2 JUMP JUMPDEST PUSH1 0x6 SLOAD DUP2 JUMP JUMPDEST DUP2 MLOAD DUP4 MLOAD EQ PUSH2 0x6D4 JUMPI PUSH1 0x40 MLOAD PUSH32 0x8C379A000000000000000000000000000000000000000000000000000000000 DUP2 MSTORE PUSH1 0x4 ADD PUSH2 0x6CB SWAP1 PUSH2 0x2DA7 JUMP JUMPDEST PUSH1 0x40 MLOAD DUP1 SWAP2 SUB SWAP1 REVERT JUMPDEST PUSH1 0x0 PUSH20 0xFFFFFFFFFFFFFFFFFFFFFFFFFFFFFFFFFFFFFFFF AND DUP5 PUSH20 0xFFFFFFFFFFFFFFFFFFFFFFFFFFFFFFFFFFFFFFFF AND EQ ISZERO PUSH2 0x744 JUMPI PUSH1 0x40 MLOAD PUSH32 0x8C379A000000000000000000000000000000000000000000000000000000000 DUP2 MSTORE PUSH1 0x4 ADD PUSH2 0x73B SWAP1 PUSH2 0x2CC7 JUMP JUMPDEST PUSH1 0x40 MLOAD DUP1 SWAP2 SUB SWAP1 REVERT JUMPDEST PUSH2 0x74C PUSH2 0x194B JUMP JUMPDEST PUSH20 0xFFFFFFFFFFFFFFFFFFFFFFFFFFFFFFFFFFFFFFFF AND DUP6 PUSH20 0xFFFFFFFFFFFFFFFFFFFFFFFFFFFFFFFFFFFFFFFF AND EQ DUP1 PUSH2 0x792 JUMPI POP PUSH2 0x791 DUP6 PUSH2 0x78C PUSH2 0x194B JUMP JUMPDEST PUSH2 0x111B JUMP JUMPDEST JUMPDEST PUSH2 0x7D1 JUMPI PUSH1 0x40 MLOAD PUSH32 0x8C379A000000000000000000000000000000000000000000000000000000000 DUP2 MSTORE PUSH1 0x4 ADD PUSH2 0x7C8 SWAP1 PUSH2 0x2CE7 JUMP JUMPDEST PUSH1 0x40 MLOAD DUP1 SWAP2 SUB SWAP1 REVERT JUMPDEST PUSH1 0x0 PUSH2 0x7DB PUSH2 0x194B JUMP JUMPDEST SWAP1 POP PUSH2 0x7EB DUP2 DUP8 DUP8 DUP8 DUP8 DUP8 PUSH2 0x1953 JUMP JUMPDEST PUSH1 0x0 JUMPDEST DUP5 MLOAD DUP2 LT ISZERO PUSH2 0x9F1 JUMPI PUSH1 0x0 DUP6 DUP3 DUP2 MLOAD DUP2 LT PUSH2 0x832 JUMPI PUSH32 0x4E487B7100000000000000000000000000000000000000000000000000000000 PUSH1 0x0 MSTORE PUSH1 0x32 PUSH1 0x4 MSTORE PUSH1 0x24 PUSH1 0x0 REVERT JUMPDEST PUSH1 0x20 MUL PUSH1 0x20 ADD ADD MLOAD SWAP1 POP PUSH1 0x0 DUP6 DUP4 DUP2 MLOAD DUP2 LT PUSH2 0x877 JUMPI PUSH32 0x4E487B7100000000000000000000000000000000000000000000000000000000 PUSH1 0x0 MSTORE PUSH1 0x32 PUSH1 0x4 MSTORE PUSH1 0x24 PUSH1 0x0 REVERT JUMPDEST PUSH1 0x20 MUL PUSH1 0x20 ADD ADD MLOAD SWAP1 POP PUSH1 0x0 DUP1 PUSH1 0x0 DUP5 DUP2 MSTORE PUSH1 0x20 ADD SWAP1 DUP2 MSTORE PUSH1 0x20 ADD PUSH1 0x0 KECCAK256 PUSH1 0x0 DUP12 PUSH20 0xFFFFFFFFFFFFFFFFFFFFFFFFFFFFFFFFFFFFFFFF AND PUSH20 0xFFFFFFFFFFFFFFFFFFFFFFFFFFFFFFFFFFFFFFFF AND DUP2 MSTORE PUSH1 0x20 ADD SWAP1 DUP2 MSTORE PUSH1 0x20 ADD PUSH1 0x0 KECCAK256 SLOAD SWAP1 POP DUP2 DUP2 LT ISZERO PUSH2 0x918 JUMPI PUSH1 0x40 MLOAD PUSH32 0x8C379A000000000000000000000000000000000000000000000000000000000 DUP2 MSTORE PUSH1 0x4 ADD PUSH2 0x90F SWAP1 PUSH2 0x2D27 JUMP JUMPDEST PUSH1 0x40 MLOAD DUP1 SWAP2 SUB SWAP1 REVERT JUMPDEST DUP2 DUP2 PUSH2 0x924 SWAP2 SWAP1 PUSH2 0x31C7 JUMP JUMPDEST PUSH1 0x0 DUP1 DUP6 DUP2 MSTORE PUSH1 0x20 ADD SWAP1 DUP2 MSTORE PUSH1 0x20 ADD PUSH1 0x0 KECCAK256 PUSH1 0x0 DUP13 PUSH20 0xFFFFFFFFFFFFFFFFFFFFFFFFFFFFFFFFFFFFFFFF AND PUSH20 0xFFFFFFFFFFFFFFFFFFFFFFFFFFFFFFFFFFFFFFFF AND DUP2 MSTORE PUSH1 0x20 ADD SWAP1 DUP2 MSTORE PUSH1 0x20 ADD PUSH1 0x0 KECCAK256 DUP2 SWAP1 SSTORE POP DUP2 PUSH1 0x0 DUP1 DUP6 DUP2 MSTORE PUSH1 0x20 ADD SWAP1 DUP2 MSTORE PUSH1 0x20 ADD PUSH1 0x0 KECCAK256 PUSH1 0x0 DUP12 PUSH20 0xFFFFFFFFFFFFFFFFFFFFFFFFFFFFFFFFFFFFFFFF AND PUSH20 0xFFFFFFFFFFFFFFFFFFFFFFFFFFFFFFFFFFFFFFFF AND DUP2 MSTORE PUSH1 0x20 ADD SWAP1 DUP2 MSTORE PUSH1 0x20 ADD PUSH1 0x0 KECCAK256 PUSH1 0x0 DUP3 DUP3 SLOAD PUSH2 0x9D6 SWAP2 SWAP1 PUSH2 0x2F75 JUMP JUMPDEST SWAP3 POP POP DUP2 SWAP1 SSTORE POP POP POP POP DUP1 PUSH2 0x9EA SWAP1 PUSH2 0x32E3 JUMP JUMPDEST SWAP1 POP PUSH2 0x7EE JUMP JUMPDEST POP DUP5 PUSH20 0xFFFFFFFFFFFFFFFFFFFFFFFFFFFFFFFFFFFFFFFF AND DUP7 PUSH20 0xFFFFFFFFFFFFFFFFFFFFFFFFFFFFFFFFFFFFFFFF AND DUP3 PUSH20 0xFFFFFFFFFFFFFFFFFFFFFFFFFFFFFFFFFFFFFFFF AND PUSH32 0x4A39DC06D4C0DBC64B70AF90FD698A233A518AA5D07E595D983B8C0526C8F7FB DUP8 DUP8 PUSH1 0x40 MLOAD PUSH2 0xA68 SWAP3 SWAP2 SWAP1 PUSH2 0x2BD3 JUMP JUMPDEST PUSH1 0x40 MLOAD DUP1 SWAP2 SUB SWAP1 LOG4 PUSH2 0xA7E DUP2 DUP8 DUP8 DUP8 DUP8 DUP8 PUSH2 0x195B JUMP JUMPDEST POP POP POP POP POP POP JUMP JUMPDEST PUSH1 0x4 PUSH1 0x20 MSTORE DUP1 PUSH1 0x0 MSTORE PUSH1 0x40 PUSH1 0x0 KECCAK256 PUSH1 0x0 SWAP2 POP SWAP1 POP SLOAD DUP2 JUMP JUMPDEST PUSH1 0x60 DUP2 MLOAD DUP4 MLOAD EQ PUSH2 0xAE4 JUMPI PUSH1 0x40 MLOAD PUSH32 0x8C379A000000000000000000000000000000000000000000000000000000000 DUP2 MSTORE PUSH1 0x4 ADD PUSH2 0xADB SWAP1 PUSH2 0x2D87 JUMP JUMPDEST PUSH1 0x40 MLOAD DUP1 SWAP2 SUB SWAP1 REVERT JUMPDEST PUSH1 0x0 DUP4 MLOAD PUSH8 0xFFFFFFFFFFFFFFFF DUP2 GT ISZERO PUSH2 0xB27 JUMPI PUSH32 0x4E487B7100000000000000000000000000000000000000000000000000000000 PUSH1 0x0 MSTORE PUSH1 0x41 PUSH1 0x4 MSTORE PUSH1 0x24 PUSH1 0x0 REVERT JUMPDEST PUSH1 0x40 MLOAD SWAP1 DUP1 DUP3 MSTORE DUP1 PUSH1 0x20 MUL PUSH1 0x20 ADD DUP3 ADD PUSH1 0x40 MSTORE DUP1 ISZERO PUSH2 0xB55 JUMPI DUP2 PUSH1 0x20 ADD PUSH1 0x20 DUP3 MUL DUP1 CALLDATASIZE DUP4 CALLDATACOPY DUP1 DUP3 ADD SWAP2 POP POP SWAP1 POP JUMPDEST POP SWAP1 POP PUSH1 0x0 JUMPDEST DUP5 MLOAD DUP2 LT ISZERO PUSH2 0xC44 JUMPI PUSH2 0xBEE DUP6 DUP3 DUP2 MLOAD DUP2 LT PUSH2 0xBA0 JUMPI PUSH32 0x4E487B7100000000000000000000000000000000000000000000000000000000 PUSH1 0x0 MSTORE PUSH1 0x32 PUSH1 0x4 MSTORE PUSH1 0x24 PUSH1 0x0 REVERT JUMPDEST PUSH1 0x20 MUL PUSH1 0x20 ADD ADD MLOAD DUP6 DUP4 DUP2 MLOAD DUP2 LT PUSH2 0xBE1 JUMPI PUSH32 0x4E487B7100000000000000000000000000000000000000000000000000000000 PUSH1 0x0 MSTORE PUSH1 0x32 PUSH1 0x4 MSTORE PUSH1 0x24 PUSH1 0x0 REVERT JUMPDEST PUSH1 0x20 MUL PUSH1 0x20 ADD ADD MLOAD PUSH2 0x420 JUMP JUMPDEST DUP3 DUP3 DUP2 MLOAD DUP2 LT PUSH2 0xC27 JUMPI PUSH32 0x4E487B7100000000000000000000000000000000000000000000000000000000 PUSH1 0x0 MSTORE PUSH1 0x32 PUSH1 0x4 MSTORE PUSH1 0x24 PUSH1 0x0 REVERT JUMPDEST PUSH1 0x20 MUL PUSH1 0x20 ADD ADD DUP2 DUP2 MSTORE POP POP DUP1 PUSH2 0xC3D SWAP1 PUSH2 0x32E3 JUMP JUMPDEST SWAP1 POP PUSH2 0xB5B JUMP JUMPDEST POP DUP1 SWAP2 POP POP SWAP3 SWAP2 POP POP JUMP JUMPDEST PUSH1 0x5 SLOAD DUP2 JUMP JUMPDEST PUSH1 0x0 PUSH1 0x12 PUSH1 0xA PUSH2 0xC65 SWAP2 SWAP1 PUSH2 0x304F JUMP JUMPDEST DUP3 LT PUSH2 0xCA6 JUMPI PUSH1 0x40 MLOAD PUSH32 0x8C379A000000000000000000000000000000000000000000000000000000000 DUP2 MSTORE PUSH1 0x4 ADD PUSH2 0xC9D SWAP1 PUSH2 0x2D07 JUMP JUMPDEST PUSH1 0x40 MLOAD DUP1 SWAP2 SUB SWAP1 REVERT JUMPDEST PUSH2 0xCAF DUP4 PUSH2 0xF34 JUMP JUMPDEST DUP3 GT PUSH2 0xCF0 JUMPI PUSH1 0x40 MLOAD PUSH32 0x8C379A000000000000000000000000000000000000000000000000000000000 DUP2 MSTORE PUSH1 0x4 ADD PUSH2 0xCE7 SWAP1 PUSH2 0x2D47 JUMP JUMPDEST PUSH1 0x40 MLOAD DUP1 SWAP2 SUB SWAP1 REVERT JUMPDEST PUSH2 0xDAD DUP3 PUSH1 0x12 PUSH1 0xA PUSH2 0xD02 SWAP2 SWAP1 PUSH2 0x304F JUMP JUMPDEST PUSH2 0xD0C SWAP2 SWAP1 PUSH2 0x31C7 JUMP JUMPDEST PUSH1 0x12 PUSH1 0xA PUSH2 0xD1A SWAP2 SWAP1 PUSH2 0x304F JUMP JUMPDEST PUSH1 0x3 PUSH1 0x0 DUP8 DUP2 MSTORE PUSH1 0x20 ADD SWAP1 DUP2 MSTORE PUSH1 0x20 ADD PUSH1 0x0 KECCAK256 SLOAD PUSH2 0xD38 SWAP2 SWAP1 PUSH2 0x2F75 JUMP JUMPDEST PUSH2 0xD42 SWAP2 SWAP1 PUSH2 0x316D JUMP JUMPDEST PUSH1 0x12 PUSH1 0xA PUSH2 0xD50 SWAP2 SWAP1 PUSH2 0x304F JUMP JUMPDEST DUP5 PUSH1 0x12 PUSH1 0xA PUSH2 0xD5F SWAP2 SWAP1 PUSH2 0x304F JUMP JUMPDEST PUSH1 0x3 PUSH1 0x0 DUP10 DUP2 MSTORE PUSH1 0x20 ADD SWAP1 DUP2 MSTORE PUSH1 0x20 ADD PUSH1 0x0 KECCAK256 SLOAD PUSH1 0x6 SLOAD PUSH2 0xD80 SWAP2 SWAP1 PUSH2 0x31C7 JUMP JUMPDEST PUSH2 0xD8A SWAP2 SWAP1 PUSH2 0x31C7 JUMP JUMPDEST PUSH2 0xD94 SWAP2 SWAP1 PUSH2 0x316D JUMP JUMPDEST PUSH2 0xD9E SWAP2 SWAP1 PUSH2 0x316D JUMP JUMPDEST PUSH2 0xDA8 SWAP2 SWAP1 PUSH2 0x2FCB JUMP JUMPDEST PUSH2 0x14DF JUMP JUMPDEST PUSH1 0x8 SLOAD PUSH2 0xDBA SWAP2 SWAP1 PUSH2 0x316D JUMP JUMPDEST SWAP1 POP SWAP3 SWAP2 POP POP JUMP JUMPDEST PUSH1 0x0 PUSH2 0xDF2 PUSH1 0x8 SLOAD PUSH1 0x12 PUSH1 0xA PUSH2 0xDD8 SWAP2 SWAP1 PUSH2 0x304F JUMP JUMPDEST DUP5 PUSH2 0xDE3 SWAP2 SWAP1 PUSH2 0x316D JUMP JUMPDEST PUSH2 0xDED SWAP2 SWAP1 PUSH2 0x2FCB JUMP JUMPDEST PUSH2 0x1B2B JUMP JUMPDEST SWAP1 POP PUSH1 0x0 PUSH1 0x12 PUSH1 0xA PUSH2 0xE04 SWAP2 SWAP1 PUSH2 0x304F JUMP JUMPDEST PUSH1 0x3 PUSH1 0x0 DUP7 DUP2 MSTORE PUSH1 0x20 ADD SWAP1 DUP2 MSTORE PUSH1 0x20 ADD PUSH1 0x0 KECCAK256 SLOAD PUSH2 0xE22 SWAP2 SWAP1 PUSH2 0x2F75 JUMP JUMPDEST SWAP1 POP PUSH1 0x0 PUSH1 0x12 PUSH1 0xA PUSH2 0xE34 SWAP2 SWAP1 PUSH2 0x304F JUMP JUMPDEST DUP4 DUP4 PUSH2 0xE40 SWAP2 SWAP1 PUSH2 0x316D JUMP JUMPDEST PUSH2 0xE4A SWAP2 SWAP1 PUSH2 0x2FCB JUMP JUMPDEST SWAP1 POP PUSH1 0x0 DUP2 DUP4 PUSH1 0x6 SLOAD PUSH2 0xE5D SWAP2 SWAP1 PUSH2 0x31C7 JUMP JUMPDEST PUSH2 0xE67 SWAP2 SWAP1 PUSH2 0x2F75 JUMP JUMPDEST SWAP1 POP PUSH1 0x0 PUSH2 0xE74 DUP3 PUSH2 0x14DF JUMP JUMPDEST PUSH1 0x8 SLOAD PUSH2 0xE81 SWAP2 SWAP1 PUSH2 0x316D JUMP JUMPDEST SWAP1 POP PUSH1 0x0 PUSH1 0x9 SLOAD DUP3 PUSH2 0xE93 SWAP2 SWAP1 PUSH2 0x31C7 JUMP JUMPDEST SWAP1 POP DUP3 PUSH1 0x6 DUP2 SWAP1 SSTORE POP PUSH1 0x12 PUSH1 0xA PUSH2 0xEAA SWAP2 SWAP1 PUSH2 0x304F JUMP JUMPDEST DUP5 PUSH2 0xEB5 SWAP2 SWAP1 PUSH2 0x31C7 JUMP JUMPDEST PUSH1 0x3 PUSH1 0x0 DUP11 DUP2 MSTORE PUSH1 0x20 ADD SWAP1 DUP2 MSTORE PUSH1 0x20 ADD PUSH1 0x0 KECCAK256 DUP2 SWAP1 SSTORE POP DUP7 PUSH1 0x4 PUSH1 0x0 DUP11 DUP2 MSTORE PUSH1 0x20 ADD SWAP1 DUP2 MSTORE PUSH1 0x20 ADD PUSH1 0x0 KECCAK256 PUSH1 0x0 DUP3 DUP3 SLOAD PUSH2 0xEEF SWAP2 SWAP1 PUSH2 0x2F75 JUMP JUMPDEST SWAP3 POP POP DUP2 SWAP1 SSTORE POP DUP1 PUSH1 0xA PUSH1 0x0 DUP3 DUP3 SLOAD PUSH2 0xF08 SWAP2 SWAP1 PUSH2 0x2F75 JUMP JUMPDEST SWAP3 POP POP DUP2 SWAP1 SSTORE POP PUSH2 0xF2A CALLER DUP10 DUP10 PUSH1 0x40 MLOAD DUP1 PUSH1 0x20 ADD PUSH1 0x40 MSTORE DUP1 PUSH1 0x0 DUP2 MSTORE POP PUSH2 0x17B5 JUMP JUMPDEST POP POP POP POP POP POP POP POP JUMP JUMPDEST PUSH1 0x0 PUSH1 0x6 SLOAD PUSH1 0x12 PUSH1 0xA PUSH2 0xF47 SWAP2 SWAP1 PUSH2 0x304F JUMP JUMPDEST PUSH1 0x12 PUSH1 0xA PUSH2 0xF55 SWAP2 SWAP1 PUSH2 0x304F JUMP JUMPDEST PUSH1 0x3 PUSH1 0x0 DUP7 DUP2 MSTORE PUSH1 0x20 ADD SWAP1 DUP2 MSTORE PUSH1 0x20 ADD PUSH1 0x0 KECCAK256 SLOAD PUSH2 0xF73 SWAP2 SWAP1 PUSH2 0x2F75 JUMP JUMPDEST PUSH2 0xF7D SWAP2 SWAP1 PUSH2 0x316D JUMP JUMPDEST PUSH2 0xF87 SWAP2 SWAP1 PUSH2 0x2FCB JUMP JUMPDEST SWAP1 POP SWAP2 SWAP1 POP JUMP JUMPDEST DUP2 PUSH20 0xFFFFFFFFFFFFFFFFFFFFFFFFFFFFFFFFFFFFFFFF AND PUSH2 0xFAD PUSH2 0x194B JUMP JUMPDEST PUSH20 0xFFFFFFFFFFFFFFFFFFFFFFFFFFFFFFFFFFFFFFFF AND EQ ISZERO PUSH2 0x1004 JUMPI PUSH1 0x40 MLOAD PUSH32 0x8C379A000000000000000000000000000000000000000000000000000000000 DUP2 MSTORE PUSH1 0x4 ADD PUSH2 0xFFB SWAP1 PUSH2 0x2D67 JUMP JUMPDEST PUSH1 0x40 MLOAD DUP1 SWAP2 SUB SWAP1 REVERT JUMPDEST DUP1 PUSH1 0x1 PUSH1 0x0 PUSH2 0x1011 PUSH2 0x194B JUMP JUMPDEST PUSH20 0xFFFFFFFFFFFFFFFFFFFFFFFFFFFFFFFFFFFFFFFF AND PUSH20 0xFFFFFFFFFFFFFFFFFFFFFFFFFFFFFFFFFFFFFFFF AND DUP2 MSTORE PUSH1 0x20 ADD SWAP1 DUP2 MSTORE PUSH1 0x20 ADD PUSH1 0x0 KECCAK256 PUSH1 0x0 DUP5 PUSH20 0xFFFFFFFFFFFFFFFFFFFFFFFFFFFFFFFFFFFFFFFF AND PUSH20 0xFFFFFFFFFFFFFFFFFFFFFFFFFFFFFFFFFFFFFFFF AND DUP2 MSTORE PUSH1 0x20 ADD SWAP1 DUP2 MSTORE PUSH1 0x20 ADD PUSH1 0x0 KECCAK256 PUSH1 0x0 PUSH2 0x100 EXP DUP2 SLOAD DUP2 PUSH1 0xFF MUL NOT AND SWAP1 DUP4 ISZERO ISZERO MUL OR SWAP1 SSTORE POP DUP2 PUSH20 0xFFFFFFFFFFFFFFFFFFFFFFFFFFFFFFFFFFFFFFFF AND PUSH2 0x10BE PUSH2 0x194B JUMP JUMPDEST PUSH20 0xFFFFFFFFFFFFFFFFFFFFFFFFFFFFFFFFFFFFFFFF AND PUSH32 0x17307EAB39AB6107E8899845AD3D59BD9653F200F220920489CA2B5937696C31 DUP4 PUSH1 0x40 MLOAD PUSH2 0x1103 SWAP2 SWAP1 PUSH2 0x2C0A JUMP JUMPDEST PUSH1 0x40 MLOAD DUP1 SWAP2 SUB SWAP1 LOG3 POP POP JUMP JUMPDEST PUSH1 0x9 SLOAD DUP2 JUMP JUMPDEST PUSH1 0x7 SLOAD DUP2 JUMP JUMPDEST PUSH1 0x0 PUSH1 0x1 PUSH1 0x0 DUP5 PUSH20 0xFFFFFFFFFFFFFFFFFFFFFFFFFFFFFFFFFFFFFFFF AND PUSH20 0xFFFFFFFFFFFFFFFFFFFFFFFFFFFFFFFFFFFFFFFF AND DUP2 MSTORE PUSH1 0x20 ADD SWAP1 DUP2 MSTORE PUSH1 0x20 ADD PUSH1 0x0 KECCAK256 PUSH1 0x0 DUP4 PUSH20 0xFFFFFFFFFFFFFFFFFFFFFFFFFFFFFFFFFFFFFFFF AND PUSH20 0xFFFFFFFFFFFFFFFFFFFFFFFFFFFFFFFFFFFFFFFF AND DUP2 MSTORE PUSH1 0x20 ADD SWAP1 DUP2 MSTORE PUSH1 0x20 ADD PUSH1 0x0 KECCAK256 PUSH1 0x0 SWAP1 SLOAD SWAP1 PUSH2 0x100 EXP SWAP1 DIV PUSH1 0xFF AND SWAP1 POP SWAP3 SWAP2 POP POP JUMP JUMPDEST PUSH1 0x0 PUSH20 0xFFFFFFFFFFFFFFFFFFFFFFFFFFFFFFFFFFFFFFFF AND DUP5 PUSH20 0xFFFFFFFFFFFFFFFFFFFFFFFFFFFFFFFFFFFFFFFF AND EQ ISZERO PUSH2 0x121F JUMPI PUSH1 0x40 MLOAD PUSH32 0x8C379A000000000000000000000000000000000000000000000000000000000 DUP2 MSTORE PUSH1 0x4 ADD PUSH2 0x1216 SWAP1 PUSH2 0x2CC7 JUMP JUMPDEST PUSH1 0x40 MLOAD DUP1 SWAP2 SUB SWAP1 REVERT JUMPDEST PUSH2 0x1227 PUSH2 0x194B JUMP JUMPDEST PUSH20 0xFFFFFFFFFFFFFFFFFFFFFFFFFFFFFFFFFFFFFFFF AND DUP6 PUSH20 0xFFFFFFFFFFFFFFFFFFFFFFFFFFFFFFFFFFFFFFFF AND EQ DUP1 PUSH2 0x126D JUMPI POP PUSH2 0x126C DUP6 PUSH2 0x1267 PUSH2 0x194B JUMP JUMPDEST PUSH2 0x111B JUMP JUMPDEST JUMPDEST PUSH2 0x12AC JUMPI PUSH1 0x40 MLOAD PUSH32 0x8C379A000000000000000000000000000000000000000000000000000000000 DUP2 MSTORE PUSH1 0x4 ADD PUSH2 0x12A3 SWAP1 PUSH2 0x2CA7 JUMP JUMPDEST PUSH1 0x40 MLOAD DUP1 SWAP2 SUB SWAP1 REVERT JUMPDEST PUSH1 0x0 PUSH2 0x12B6 PUSH2 0x194B JUMP JUMPDEST SWAP1 POP PUSH2 0x12D6 DUP2 DUP8 DUP8 PUSH2 0x12C7 DUP9 PUSH2 0x1C02 JUMP JUMPDEST PUSH2 0x12D0 DUP9 PUSH2 0x1C02 JUMP JUMPDEST DUP8 PUSH2 0x1953 JUMP JUMPDEST PUSH1 0x0 DUP1 PUSH1 0x0 DUP7 DUP2 MSTORE PUSH1 0x20 ADD SWAP1 DUP2 MSTORE PUSH1 0x20 ADD PUSH1 0x0 KECCAK256 PUSH1 0x0 DUP9 PUSH20 0xFFFFFFFFFFFFFFFFFFFFFFFFFFFFFFFFFFFFFFFF AND PUSH20 0xFFFFFFFFFFFFFFFFFFFFFFFFFFFFFFFFFFFFFFFF AND DUP2 MSTORE PUSH1 0x20 ADD SWAP1 DUP2 MSTORE PUSH1 0x20 ADD PUSH1 0x0 KECCAK256 SLOAD SWAP1 POP DUP4 DUP2 LT ISZERO PUSH2 0x136D JUMPI PUSH1 0x40 MLOAD PUSH32 0x8C379A000000000000000000000000000000000000000000000000000000000 DUP2 MSTORE PUSH1 0x4 ADD PUSH2 0x1364 SWAP1 PUSH2 0x2D27 JUMP JUMPDEST PUSH1 0x40 MLOAD DUP1 SWAP2 SUB SWAP1 REVERT JUMPDEST DUP4 DUP2 PUSH2 0x1379 SWAP2 SWAP1 PUSH2 0x31C7 JUMP JUMPDEST PUSH1 0x0 DUP1 DUP8 DUP2 MSTORE PUSH1 0x20 ADD SWAP1 DUP2 MSTORE PUSH1 0x20 ADD PUSH1 0x0 KECCAK256 PUSH1 0x0 DUP10 PUSH20 0xFFFFFFFFFFFFFFFFFFFFFFFFFFFFFFFFFFFFFFFF AND PUSH20 0xFFFFFFFFFFFFFFFFFFFFFFFFFFFFFFFFFFFFFFFF AND DUP2 MSTORE PUSH1 0x20 ADD SWAP1 DUP2 MSTORE PUSH1 0x20 ADD PUSH1 0x0 KECCAK256 DUP2 SWAP1 SSTORE POP DUP4 PUSH1 0x0 DUP1 DUP8 DUP2 MSTORE PUSH1 0x20 ADD SWAP1 DUP2 MSTORE PUSH1 0x20 ADD PUSH1 0x0 KECCAK256 PUSH1 0x0 DUP9 PUSH20 0xFFFFFFFFFFFFFFFFFFFFFFFFFFFFFFFFFFFFFFFF AND PUSH20 0xFFFFFFFFFFFFFFFFFFFFFFFFFFFFFFFFFFFFFFFF AND DUP2 MSTORE PUSH1 0x20 ADD SWAP1 DUP2 MSTORE PUSH1 0x20 ADD PUSH1 0x0 KECCAK256 PUSH1 0x0 DUP3 DUP3 SLOAD PUSH2 0x142B SWAP2 SWAP1 PUSH2 0x2F75 JUMP JUMPDEST SWAP3 POP POP DUP2 SWAP1 SSTORE POP DUP6 PUSH20 0xFFFFFFFFFFFFFFFFFFFFFFFFFFFFFFFFFFFFFFFF AND DUP8 PUSH20 0xFFFFFFFFFFFFFFFFFFFFFFFFFFFFFFFFFFFFFFFF AND DUP4 PUSH20 0xFFFFFFFFFFFFFFFFFFFFFFFFFFFFFFFFFFFFFFFF AND PUSH32 0xC3D58168C5AE7397731D063D5BBF3D657854427343F4C083240F7AACAA2D0F62 DUP9 DUP9 PUSH1 0x40 MLOAD PUSH2 0x14A8 SWAP3 SWAP2 SWAP1 PUSH2 0x2E22 JUMP JUMPDEST PUSH1 0x40 MLOAD DUP1 SWAP2 SUB SWAP1 LOG4 PUSH2 0x14BE DUP3 DUP9 DUP9 DUP9 DUP9 DUP9 PUSH2 0x1CC8 JUMP JUMPDEST POP POP POP POP POP POP POP JUMP JUMPDEST PUSH1 0x3 PUSH1 0x20 MSTORE DUP1 PUSH1 0x0 MSTORE PUSH1 0x40 PUSH1 0x0 KECCAK256 PUSH1 0x0 SWAP2 POP SWAP1 POP SLOAD DUP2 JUMP JUMPDEST PUSH1 0x0 DUP1 PUSH1 0x12 PUSH1 0xA PUSH2 0x14F0 SWAP2 SWAP1 PUSH2 0x304F JUMP JUMPDEST DUP4 PUSH2 0x14FB SWAP2 SWAP1 PUSH2 0x2FCB JUMP JUMPDEST SWAP1 POP PUSH1 0x0 DUP2 GT PUSH2 0x1540 JUMPI PUSH1 0x40 MLOAD PUSH32 0x8C379A000000000000000000000000000000000000000000000000000000000 DUP2 MSTORE PUSH1 0x4 ADD PUSH2 0x1537 SWAP1 PUSH2 0x2DE7 JUMP JUMPDEST PUSH1 0x40 MLOAD DUP1 SWAP2 SUB SWAP1 REVERT JUMPDEST PUSH1 0x0 PUSH17 0x100000000000000000000000000000000 DUP3 LT PUSH2 0x1571 JUMPI PUSH1 0x80 DUP3 SWAP1 SHR SWAP2 POP PUSH1 0x80 DUP2 PUSH2 0x156E SWAP2 SWAP1 PUSH2 0x2F75 JUMP JUMPDEST SWAP1 POP JUMPDEST PUSH9 0x10000000000000000 DUP3 LT PUSH2 0x1598 JUMPI PUSH1 0x40 DUP3 SWAP1 SHR SWAP2 POP PUSH1 0x40 DUP2 PUSH2 0x1595 SWAP2 SWAP1 PUSH2 0x2F75 JUMP JUMPDEST SWAP1 POP JUMPDEST PUSH5 0x100000000 DUP3 LT PUSH2 0x15BB JUMPI PUSH1 0x20 DUP3 SWAP1 SHR SWAP2 POP PUSH1 0x20 DUP2 PUSH2 0x15B8 SWAP2 SWAP1 PUSH2 0x2F75 JUMP JUMPDEST SWAP1 POP JUMPDEST PUSH3 0x10000 DUP3 LT PUSH2 0x15DC JUMPI PUSH1 0x10 DUP3 SWAP1 SHR SWAP2 POP PUSH1 0x10 DUP2 PUSH2 0x15D9 SWAP2 SWAP1 PUSH2 0x2F75 JUMP JUMPDEST SWAP1 POP JUMPDEST PUSH2 0x100 DUP3 LT PUSH2 0x15FC JUMPI PUSH1 0x8 DUP3 SWAP1 SHR SWAP2 POP PUSH1 0x8 DUP2 PUSH2 0x15F9 SWAP2 SWAP1 PUSH2 0x2F75 JUMP JUMPDEST SWAP1 POP JUMPDEST PUSH1 0x10 DUP3 LT PUSH2 0x161B JUMPI PUSH1 0x4 DUP3 SWAP1 SHR SWAP2 POP PUSH1 0x4 DUP2 PUSH2 0x1618 SWAP2 SWAP1 PUSH2 0x2F75 JUMP JUMPDEST SWAP1 POP JUMPDEST PUSH1 0x4 DUP3 LT PUSH2 0x163A JUMPI PUSH1 0x2 DUP3 SWAP1 SHR SWAP2 POP PUSH1 0x2 DUP2 PUSH2 0x1637 SWAP2 SWAP1 PUSH2 0x2F75 JUMP JUMPDEST SWAP1 POP JUMPDEST PUSH1 0x2 DUP3 LT PUSH2 0x1652 JUMPI PUSH1 0x1 DUP2 PUSH2 0x164F SWAP2 SWAP1 PUSH2 0x2F75 JUMP JUMPDEST SWAP1 POP JUMPDEST PUSH1 0x12 PUSH1 0xA PUSH2 0x1660 SWAP2 SWAP1 PUSH2 0x304F JUMP JUMPDEST DUP2 PUSH2 0x166B SWAP2 SWAP1 PUSH2 0x316D JUMP JUMPDEST SWAP1 POP PUSH1 0x12 PUSH1 0xA PUSH2 0x167B SWAP2 SWAP1 PUSH2 0x304F JUMP JUMPDEST DUP2 PUSH2 0x1686 SWAP2 SWAP1 PUSH2 0x2FCB JUMP JUMPDEST PUSH1 0x2 PUSH2 0x1692 SWAP2 SWAP1 PUSH2 0x304F JUMP JUMPDEST DUP5 PUSH2 0x169D SWAP2 SWAP1 PUSH2 0x2FCB JUMP JUMPDEST SWAP2 POP PUSH1 0x0 DUP1 PUSH1 0x12 PUSH1 0xA PUSH2 0x16B0 SWAP2 SWAP1 PUSH2 0x304F JUMP JUMPDEST SWAP1 POP JUMPDEST PUSH1 0x0 DUP2 GT ISZERO PUSH2 0x1734 JUMPI PUSH1 0x12 PUSH1 0xA PUSH2 0x16CA SWAP2 SWAP1 PUSH2 0x304F JUMP JUMPDEST PUSH1 0x2 PUSH2 0x16D6 SWAP2 SWAP1 PUSH2 0x316D JUMP JUMPDEST DUP5 LT PUSH2 0x16FA JUMPI DUP1 DUP3 PUSH2 0x16E8 SWAP2 SWAP1 PUSH2 0x2F75 JUMP JUMPDEST SWAP2 POP PUSH1 0x2 DUP5 PUSH2 0x16F7 SWAP2 SWAP1 PUSH2 0x2FCB JUMP JUMPDEST SWAP4 POP JUMPDEST PUSH1 0x12 PUSH1 0xA PUSH2 0x1708 SWAP2 SWAP1 PUSH2 0x304F JUMP JUMPDEST DUP5 DUP6 PUSH2 0x1714 SWAP2 SWAP1 PUSH2 0x316D JUMP JUMPDEST PUSH2 0x171E SWAP2 SWAP1 PUSH2 0x2FCB JUMP JUMPDEST SWAP4 POP PUSH1 0x2 DUP2 PUSH2 0x172D SWAP2 SWAP1 PUSH2 0x2FCB JUMP JUMPDEST SWAP1 POP PUSH2 0x16B3 JUMP JUMPDEST POP DUP2 DUP2 PUSH2 0x1741 SWAP2 SWAP1 PUSH2 0x2F75 JUMP JUMPDEST SWAP4 POP POP POP POP SWAP2 SWAP1 POP JUMP JUMPDEST PUSH1 0x0 PUSH32 0x1FFC9A700000000000000000000000000000000000000000000000000000000 PUSH28 0xFFFFFFFFFFFFFFFFFFFFFFFFFFFFFFFFFFFFFFFFFFFFFFFFFFFFFFFF NOT AND DUP3 PUSH28 0xFFFFFFFFFFFFFFFFFFFFFFFFFFFFFFFFFFFFFFFFFFFFFFFFFFFFFFFF NOT AND EQ SWAP1 POP SWAP2 SWAP1 POP JUMP JUMPDEST PUSH1 0x0 PUSH20 0xFFFFFFFFFFFFFFFFFFFFFFFFFFFFFFFFFFFFFFFF AND DUP5 PUSH20 0xFFFFFFFFFFFFFFFFFFFFFFFFFFFFFFFFFFFFFFFF AND EQ ISZERO PUSH2 0x1825 JUMPI PUSH1 0x40 MLOAD PUSH32 0x8C379A000000000000000000000000000000000000000000000000000000000 DUP2 MSTORE PUSH1 0x4 ADD PUSH2 0x181C SWAP1 PUSH2 0x2DC7 JUMP JUMPDEST PUSH1 0x40 MLOAD DUP1 SWAP2 SUB SWAP1 REVERT JUMPDEST PUSH1 0x0 PUSH2 0x182F PUSH2 0x194B JUMP JUMPDEST SWAP1 POP PUSH2 0x1850 DUP2 PUSH1 0x0 DUP8 PUSH2 0x1841 DUP9 PUSH2 0x1C02 JUMP JUMPDEST PUSH2 0x184A DUP9 PUSH2 0x1C02 JUMP JUMPDEST DUP8 PUSH2 0x1953 JUMP JUMPDEST DUP3 PUSH1 0x0 DUP1 DUP7 DUP2 MSTORE PUSH1 0x20 ADD SWAP1 DUP2 MSTORE PUSH1 0x20 ADD PUSH1 0x0 KECCAK256 PUSH1 0x0 DUP8 PUSH20 0xFFFFFFFFFFFFFFFFFFFFFFFFFFFFFFFFFFFFFFFF AND PUSH20 0xFFFFFFFFFFFFFFFFFFFFFFFFFFFFFFFFFFFFFFFF AND DUP2 MSTORE PUSH1 0x20 ADD SWAP1 DUP2 MSTORE PUSH1 0x20 ADD PUSH1 0x0 KECCAK256 PUSH1 0x0 DUP3 DUP3 SLOAD PUSH2 0x18AF SWAP2 SWAP1 PUSH2 0x2F75 JUMP JUMPDEST SWAP3 POP POP DUP2 SWAP1 SSTORE POP DUP5 PUSH20 0xFFFFFFFFFFFFFFFFFFFFFFFFFFFFFFFFFFFFFFFF AND PUSH1 0x0 PUSH20 0xFFFFFFFFFFFFFFFFFFFFFFFFFFFFFFFFFFFFFFFF AND DUP3 PUSH20 0xFFFFFFFFFFFFFFFFFFFFFFFFFFFFFFFFFFFFFFFF AND PUSH32 0xC3D58168C5AE7397731D063D5BBF3D657854427343F4C083240F7AACAA2D0F62 DUP8 DUP8 PUSH1 0x40 MLOAD PUSH2 0x192D SWAP3 SWAP2 SWAP1 PUSH2 0x2E22 JUMP JUMPDEST PUSH1 0x40 MLOAD DUP1 SWAP2 SUB SWAP1 LOG4 PUSH2 0x1944 DUP2 PUSH1 0x0 DUP8 DUP8 DUP8 DUP8 PUSH2 0x1CC8 JUMP JUMPDEST POP POP POP POP POP JUMP JUMPDEST PUSH1 0x0 CALLER SWAP1 POP SWAP1 JUMP JUMPDEST POP POP POP POP POP POP JUMP JUMPDEST PUSH2 0x197A DUP5 PUSH20 0xFFFFFFFFFFFFFFFFFFFFFFFFFFFFFFFFFFFFFFFF AND PUSH2 0x1E98 JUMP JUMPDEST ISZERO PUSH2 0x1B23 JUMPI DUP4 PUSH20 0xFFFFFFFFFFFFFFFFFFFFFFFFFFFFFFFFFFFFFFFF AND PUSH4 0xBC197C81 DUP8 DUP8 DUP7 DUP7 DUP7 PUSH1 0x40 MLOAD DUP7 PUSH4 0xFFFFFFFF AND PUSH1 0xE0 SHL DUP2 MSTORE PUSH1 0x4 ADD PUSH2 0x19C0 SWAP6 SWAP5 SWAP4 SWAP3 SWAP2 SWAP1 PUSH2 0x2AEF JUMP JUMPDEST PUSH1 0x20 PUSH1 0x40 MLOAD DUP1 DUP4 SUB DUP2 PUSH1 0x0 DUP8 DUP1 EXTCODESIZE ISZERO DUP1 ISZERO PUSH2 0x19DA JUMPI PUSH1 0x0 DUP1 REVERT JUMPDEST POP GAS CALL SWAP3 POP POP POP DUP1 ISZERO PUSH2 0x1A0B JUMPI POP PUSH1 0x40 MLOAD RETURNDATASIZE PUSH1 0x1F NOT PUSH1 0x1F DUP3 ADD AND DUP3 ADD DUP1 PUSH1 0x40 MSTORE POP DUP2 ADD SWAP1 PUSH2 0x1A08 SWAP2 SWAP1 PUSH2 0x23F5 JUMP JUMPDEST PUSH1 0x1 JUMPDEST PUSH2 0x1A9A JUMPI PUSH2 0x1A17 PUSH2 0x3444 JUMP JUMPDEST DUP1 PUSH2 0x1A22 JUMPI POP PUSH2 0x1A5F JUMP JUMPDEST DUP1 PUSH1 0x40 MLOAD PUSH32 0x8C379A000000000000000000000000000000000000000000000000000000000 DUP2 MSTORE PUSH1 0x4 ADD PUSH2 0x1A56 SWAP2 SWAP1 PUSH2 0x2C25 JUMP JUMPDEST PUSH1 0x40 MLOAD DUP1 SWAP2 SUB SWAP1 REVERT JUMPDEST PUSH1 0x40 MLOAD PUSH32 0x8C379A000000000000000000000000000000000000000000000000000000000 DUP2 MSTORE PUSH1 0x4 ADD PUSH2 0x1A91 SWAP1 PUSH2 0x2C47 JUMP JUMPDEST PUSH1 0x40 MLOAD DUP1 SWAP2 SUB SWAP1 REVERT JUMPDEST PUSH4 0xBC197C81 PUSH1 0xE0 SHL PUSH28 0xFFFFFFFFFFFFFFFFFFFFFFFFFFFFFFFFFFFFFFFFFFFFFFFFFFFFFFFF NOT AND DUP2 PUSH28 0xFFFFFFFFFFFFFFFFFFFFFFFFFFFFFFFFFFFFFFFFFFFFFFFFFFFFFFFF NOT AND EQ PUSH2 0x1B21 JUMPI PUSH1 0x40 MLOAD PUSH32 0x8C379A000000000000000000000000000000000000000000000000000000000 DUP2 MSTORE PUSH1 0x4 ADD PUSH2 0x1B18 SWAP1 PUSH2 0x2C67 JUMP JUMPDEST PUSH1 0x40 MLOAD DUP1 SWAP2 SUB SWAP1 REVERT JUMPDEST POP JUMPDEST POP POP POP POP POP POP JUMP JUMPDEST PUSH1 0x0 DUP1 PUSH1 0x12 PUSH1 0xA PUSH2 0x1B3C SWAP2 SWAP1 PUSH2 0x304F JUMP JUMPDEST DUP4 PUSH2 0x1B47 SWAP2 SWAP1 PUSH2 0x2FCB JUMP JUMPDEST SWAP1 POP PUSH1 0x0 PUSH1 0x12 PUSH1 0xA PUSH2 0x1B59 SWAP2 SWAP1 PUSH2 0x304F JUMP JUMPDEST DUP5 PUSH2 0x1B64 SWAP2 SWAP1 PUSH2 0x332C JUMP JUMPDEST SWAP1 POP PUSH1 0x0 DUP3 PUSH1 0x2 PUSH2 0x1B75 SWAP2 SWAP1 PUSH2 0x304F JUMP JUMPDEST SWAP1 POP PUSH1 0x0 PUSH1 0x12 PUSH1 0xA PUSH2 0x1B87 SWAP2 SWAP1 PUSH2 0x304F JUMP JUMPDEST SWAP1 POP PUSH1 0x0 JUMPDEST PUSH1 0x3E DUP2 LT ISZERO PUSH2 0x1BEA JUMPI PUSH1 0x0 DUP5 PUSH2 0x1BA1 DUP4 PUSH2 0x1EAB JUMP JUMPDEST AND GT ISZERO PUSH2 0x1BD7 JUMPI PUSH1 0x12 PUSH1 0xA PUSH2 0x1BB6 SWAP2 SWAP1 PUSH2 0x304F JUMP JUMPDEST PUSH2 0x1BBF DUP3 PUSH2 0x1F06 JUMP JUMPDEST DUP4 PUSH2 0x1BCA SWAP2 SWAP1 PUSH2 0x316D JUMP JUMPDEST PUSH2 0x1BD4 SWAP2 SWAP1 PUSH2 0x2FCB JUMP JUMPDEST SWAP2 POP JUMPDEST DUP1 DUP1 PUSH2 0x1BE2 SWAP1 PUSH2 0x32E3 JUMP JUMPDEST SWAP2 POP POP PUSH2 0x1B8C JUMP JUMPDEST POP DUP1 DUP3 PUSH2 0x1BF7 SWAP2 SWAP1 PUSH2 0x316D JUMP JUMPDEST SWAP5 POP POP POP POP POP SWAP2 SWAP1 POP JUMP JUMPDEST PUSH1 0x60 PUSH1 0x0 PUSH1 0x1 PUSH8 0xFFFFFFFFFFFFFFFF DUP2 GT ISZERO PUSH2 0x1C47 JUMPI PUSH32 0x4E487B7100000000000000000000000000000000000000000000000000000000 PUSH1 0x0 MSTORE PUSH1 0x41 PUSH1 0x4 MSTORE PUSH1 0x24 PUSH1 0x0 REVERT JUMPDEST PUSH1 0x40 MLOAD SWAP1 DUP1 DUP3 MSTORE DUP1 PUSH1 0x20 MUL PUSH1 0x20 ADD DUP3 ADD PUSH1 0x40 MSTORE DUP1 ISZERO PUSH2 0x1C75 JUMPI DUP2 PUSH1 0x20 ADD PUSH1 0x20 DUP3 MUL DUP1 CALLDATASIZE DUP4 CALLDATACOPY DUP1 DUP3 ADD SWAP2 POP POP SWAP1 POP JUMPDEST POP SWAP1 POP DUP3 DUP2 PUSH1 0x0 DUP2 MLOAD DUP2 LT PUSH2 0x1CB3 JUMPI PUSH32 0x4E487B7100000000000000000000000000000000000000000000000000000000 PUSH1 0x0 MSTORE PUSH1 0x32 PUSH1 0x4 MSTORE PUSH1 0x24 PUSH1 0x0 REVERT JUMPDEST PUSH1 0x20 MUL PUSH1 0x20 ADD ADD DUP2 DUP2 MSTORE POP POP DUP1 SWAP2 POP POP SWAP2 SWAP1 POP JUMP JUMPDEST PUSH2 0x1CE7 DUP5 PUSH20 0xFFFFFFFFFFFFFFFFFFFFFFFFFFFFFFFFFFFFFFFF AND PUSH2 0x1E98 JUMP JUMPDEST ISZERO PUSH2 0x1E90 JUMPI DUP4 PUSH20 0xFFFFFFFFFFFFFFFFFFFFFFFFFFFFFFFFFFFFFFFF AND PUSH4 0xF23A6E61 DUP8 DUP8 DUP7 DUP7 DUP7 PUSH1 0x40 MLOAD DUP7 PUSH4 0xFFFFFFFF AND PUSH1 0xE0 SHL DUP2 MSTORE PUSH1 0x4 ADD PUSH2 0x1D2D SWAP6 SWAP5 SWAP4 SWAP3 SWAP2 SWAP1 PUSH2 0x2B57 JUMP JUMPDEST PUSH1 0x20 PUSH1 0x40 MLOAD DUP1 DUP4 SUB DUP2 PUSH1 0x0 DUP8 DUP1 EXTCODESIZE ISZERO DUP1 ISZERO PUSH2 0x1D47 JUMPI PUSH1 0x0 DUP1 REVERT JUMPDEST POP GAS CALL SWAP3 POP POP POP DUP1 ISZERO PUSH2 0x1D78 JUMPI POP PUSH1 0x40 MLOAD RETURNDATASIZE PUSH1 0x1F NOT PUSH1 0x1F DUP3 ADD AND DUP3 ADD DUP1 PUSH1 0x40 MSTORE POP DUP2 ADD SWAP1 PUSH2 0x1D75 SWAP2 SWAP1 PUSH2 0x23F5 JUMP JUMPDEST PUSH1 0x1 JUMPDEST PUSH2 0x1E07 JUMPI PUSH2 0x1D84 PUSH2 0x3444 JUMP JUMPDEST DUP1 PUSH2 0x1D8F JUMPI POP PUSH2 0x1DCC JUMP JUMPDEST DUP1 PUSH1 0x40 MLOAD PUSH32 0x8C379A000000000000000000000000000000000000000000000000000000000 DUP2 MSTORE PUSH1 0x4 ADD PUSH2 0x1DC3 SWAP2 SWAP1 PUSH2 0x2C25 JUMP JUMPDEST PUSH1 0x40 MLOAD DUP1 SWAP2 SUB SWAP1 REVERT JUMPDEST PUSH1 0x40 MLOAD PUSH32 0x8C379A000000000000000000000000000000000000000000000000000000000 DUP2 MSTORE PUSH1 0x4 ADD PUSH2 0x1DFE SWAP1 PUSH2 0x2C47 JUMP JUMPDEST PUSH1 0x40 MLOAD DUP1 SWAP2 SUB SWAP1 REVERT JUMPDEST PUSH4 0xF23A6E61 PUSH1 0xE0 SHL PUSH28 0xFFFFFFFFFFFFFFFFFFFFFFFFFFFFFFFFFFFFFFFFFFFFFFFFFFFFFFFF NOT AND DUP2 PUSH28 0xFFFFFFFFFFFFFFFFFFFFFFFFFFFFFFFFFFFFFFFFFFFFFFFFFFFFFFFF NOT AND EQ PUSH2 0x1E8E JUMPI PUSH1 0x40 MLOAD PUSH32 0x8C379A000000000000000000000000000000000000000000000000000000000 DUP2 MSTORE PUSH1 0x4 ADD PUSH2 0x1E85 SWAP1 PUSH2 0x2C67 JUMP JUMPDEST PUSH1 0x40 MLOAD DUP1 SWAP2 SUB SWAP1 REVERT JUMPDEST POP JUMPDEST POP POP POP POP POP POP JUMP JUMPDEST PUSH1 0x0 DUP1 DUP3 EXTCODESIZE SWAP1 POP PUSH1 0x0 DUP2 GT SWAP2 POP POP SWAP2 SWAP1 POP JUMP JUMPDEST PUSH1 0x0 DUP1 PUSH1 0x40 MLOAD DUP1 PUSH2 0x220 ADD PUSH1 0x40 MSTORE DUP1 PUSH2 0x1F0 DUP2 MSTORE PUSH1 0x20 ADD PUSH2 0x3557 PUSH2 0x1F0 SWAP2 CODECOPY SWAP1 POP PUSH1 0x0 PUSH1 0x8 DUP5 PUSH1 0x8 PUSH2 0x1EDD SWAP2 SWAP1 PUSH2 0x316D JUMP JUMPDEST PUSH2 0x1EE7 SWAP2 SWAP1 PUSH2 0x2F75 JUMP JUMPDEST SWAP1 POP PUSH1 0x0 DUP2 DUP4 ADD MLOAD SWAP1 POP DUP1 PUSH8 0xFFFFFFFFFFFFFFFF AND SWAP4 POP POP POP POP SWAP2 SWAP1 POP JUMP JUMPDEST PUSH1 0x0 DUP1 PUSH1 0x40 MLOAD DUP1 PUSH2 0x220 ADD PUSH1 0x40 MSTORE DUP1 PUSH2 0x1F0 DUP2 MSTORE PUSH1 0x20 ADD PUSH2 0x3747 PUSH2 0x1F0 SWAP2 CODECOPY SWAP1 POP PUSH1 0x0 PUSH1 0x8 DUP5 PUSH1 0x8 PUSH2 0x1F38 SWAP2 SWAP1 PUSH2 0x316D JUMP JUMPDEST PUSH2 0x1F42 SWAP2 SWAP1 PUSH2 0x2F75 JUMP JUMPDEST SWAP1 POP PUSH1 0x0 DUP2 DUP4 ADD MLOAD SWAP1 POP DUP1 PUSH8 0xFFFFFFFFFFFFFFFF AND SWAP4 POP POP POP POP SWAP2 SWAP1 POP JUMP JUMPDEST PUSH1 0x0 PUSH2 0x1F74 PUSH2 0x1F6F DUP5 PUSH2 0x2E7C JUMP JUMPDEST PUSH2 0x2E4B JUMP JUMPDEST SWAP1 POP DUP1 DUP4 DUP3 MSTORE PUSH1 0x20 DUP3 ADD SWAP1 POP DUP3 DUP6 PUSH1 0x20 DUP7 MUL DUP3 ADD GT ISZERO PUSH2 0x1F93 JUMPI PUSH1 0x0 DUP1 REVERT JUMPDEST PUSH1 0x0 JUMPDEST DUP6 DUP2 LT ISZERO PUSH2 0x1FC3 JUMPI DUP2 PUSH2 0x1FA9 DUP9 DUP3 PUSH2 0x2077 JUMP JUMPDEST DUP5 MSTORE PUSH1 0x20 DUP5 ADD SWAP4 POP PUSH1 0x20 DUP4 ADD SWAP3 POP POP PUSH1 0x1 DUP2 ADD SWAP1 POP PUSH2 0x1F96 JUMP JUMPDEST POP POP POP SWAP4 SWAP3 POP POP POP JUMP JUMPDEST PUSH1 0x0 PUSH2 0x1FE0 PUSH2 0x1FDB DUP5 PUSH2 0x2EA8 JUMP JUMPDEST PUSH2 0x2E4B JUMP JUMPDEST SWAP1 POP DUP1 DUP4 DUP3 MSTORE PUSH1 0x20 DUP3 ADD SWAP1 POP DUP3 DUP6 PUSH1 0x20 DUP7 MUL DUP3 ADD GT ISZERO PUSH2 0x1FFF JUMPI PUSH1 0x0 DUP1 REVERT JUMPDEST PUSH1 0x0 JUMPDEST DUP6 DUP2 LT ISZERO PUSH2 0x202F JUMPI DUP2 PUSH2 0x2015 DUP9 DUP3 PUSH2 0x2149 JUMP JUMPDEST DUP5 MSTORE PUSH1 0x20 DUP5 ADD SWAP4 POP PUSH1 0x20 DUP4 ADD SWAP3 POP POP PUSH1 0x1 DUP2 ADD SWAP1 POP PUSH2 0x2002 JUMP JUMPDEST POP POP POP SWAP4 SWAP3 POP POP POP JUMP JUMPDEST PUSH1 0x0 PUSH2 0x204C PUSH2 0x2047 DUP5 PUSH2 0x2ED4 JUMP JUMPDEST PUSH2 0x2E4B JUMP JUMPDEST SWAP1 POP DUP3 DUP2 MSTORE PUSH1 0x20 DUP2 ADD DUP5 DUP5 DUP5 ADD GT ISZERO PUSH2 0x2064 JUMPI PUSH1 0x0 DUP1 REVERT JUMPDEST PUSH2 0x206F DUP5 DUP3 DUP6 PUSH2 0x326F JUMP JUMPDEST POP SWAP4 SWAP3 POP POP POP JUMP JUMPDEST PUSH1 0x0 DUP2 CALLDATALOAD SWAP1 POP PUSH2 0x2086 DUP2 PUSH2 0x34FA JUMP JUMPDEST SWAP3 SWAP2 POP POP JUMP JUMPDEST PUSH1 0x0 DUP3 PUSH1 0x1F DUP4 ADD SLT PUSH2 0x209D JUMPI PUSH1 0x0 DUP1 REVERT JUMPDEST DUP2 CALLDATALOAD PUSH2 0x20AD DUP5 DUP3 PUSH1 0x20 DUP7 ADD PUSH2 0x1F61 JUMP JUMPDEST SWAP2 POP POP SWAP3 SWAP2 POP POP JUMP JUMPDEST PUSH1 0x0 DUP3 PUSH1 0x1F DUP4 ADD SLT PUSH2 0x20C7 JUMPI PUSH1 0x0 DUP1 REVERT JUMPDEST DUP2 CALLDATALOAD PUSH2 0x20D7 DUP5 DUP3 PUSH1 0x20 DUP7 ADD PUSH2 0x1FCD JUMP JUMPDEST SWAP2 POP POP SWAP3 SWAP2 POP POP JUMP JUMPDEST PUSH1 0x0 DUP2 CALLDATALOAD SWAP1 POP PUSH2 0x20EF DUP2 PUSH2 0x3511 JUMP JUMPDEST SWAP3 SWAP2 POP POP JUMP JUMPDEST PUSH1 0x0 DUP2 CALLDATALOAD SWAP1 POP PUSH2 0x2104 DUP2 PUSH2 0x3528 JUMP JUMPDEST SWAP3 SWAP2 POP POP JUMP JUMPDEST PUSH1 0x0 DUP2 MLOAD SWAP1 POP PUSH2 0x2119 DUP2 PUSH2 0x3528 JUMP JUMPDEST SWAP3 SWAP2 POP POP JUMP JUMPDEST PUSH1 0x0 DUP3 PUSH1 0x1F DUP4 ADD SLT PUSH2 0x2130 JUMPI PUSH1 0x0 DUP1 REVERT JUMPDEST DUP2 CALLDATALOAD PUSH2 0x2140 DUP5 DUP3 PUSH1 0x20 DUP7 ADD PUSH2 0x2039 JUMP JUMPDEST SWAP2 POP POP SWAP3 SWAP2 POP POP JUMP JUMPDEST PUSH1 0x0 DUP2 CALLDATALOAD SWAP1 POP PUSH2 0x2158 DUP2 PUSH2 0x353F JUMP JUMPDEST SWAP3 SWAP2 POP POP JUMP JUMPDEST PUSH1 0x0 DUP1 PUSH1 0x40 DUP4 DUP6 SUB SLT ISZERO PUSH2 0x2171 JUMPI PUSH1 0x0 DUP1 REVERT JUMPDEST PUSH1 0x0 PUSH2 0x217F DUP6 DUP3 DUP7 ADD PUSH2 0x2077 JUMP JUMPDEST SWAP3 POP POP PUSH1 0x20 PUSH2 0x2190 DUP6 DUP3 DUP7 ADD PUSH2 0x2077 JUMP JUMPDEST SWAP2 POP POP SWAP3 POP SWAP3 SWAP1 POP JUMP JUMPDEST PUSH1 0x0 DUP1 PUSH1 0x0 DUP1 PUSH1 0x0 PUSH1 0xA0 DUP7 DUP9 SUB SLT ISZERO PUSH2 0x21B2 JUMPI PUSH1 0x0 DUP1 REVERT JUMPDEST PUSH1 0x0 PUSH2 0x21C0 DUP9 DUP3 DUP10 ADD PUSH2 0x2077 JUMP JUMPDEST SWAP6 POP POP PUSH1 0x20 PUSH2 0x21D1 DUP9 DUP3 DUP10 ADD PUSH2 0x2077 JUMP JUMPDEST SWAP5 POP POP PUSH1 0x40 DUP7 ADD CALLDATALOAD PUSH8 0xFFFFFFFFFFFFFFFF DUP2 GT ISZERO PUSH2 0x21EE JUMPI PUSH1 0x0 DUP1 REVERT JUMPDEST PUSH2 0x21FA DUP9 DUP3 DUP10 ADD PUSH2 0x20B6 JUMP JUMPDEST SWAP4 POP POP PUSH1 0x60 DUP7 ADD CALLDATALOAD PUSH8 0xFFFFFFFFFFFFFFFF DUP2 GT ISZERO PUSH2 0x2217 JUMPI PUSH1 0x0 DUP1 REVERT JUMPDEST PUSH2 0x2223 DUP9 DUP3 DUP10 ADD PUSH2 0x20B6 JUMP JUMPDEST SWAP3 POP POP PUSH1 0x80 DUP7 ADD CALLDATALOAD PUSH8 0xFFFFFFFFFFFFFFFF DUP2 GT ISZERO PUSH2 0x2240 JUMPI PUSH1 0x0 DUP1 REVERT JUMPDEST PUSH2 0x224C DUP9 DUP3 DUP10 ADD PUSH2 0x211F JUMP JUMPDEST SWAP2 POP POP SWAP3 SWAP6 POP SWAP3 SWAP6 SWAP1 SWAP4 POP JUMP JUMPDEST PUSH1 0x0 DUP1 PUSH1 0x0 DUP1 PUSH1 0x0 PUSH1 0xA0 DUP7 DUP9 SUB SLT ISZERO PUSH2 0x2271 JUMPI PUSH1 0x0 DUP1 REVERT JUMPDEST PUSH1 0x0 PUSH2 0x227F DUP9 DUP3 DUP10 ADD PUSH2 0x2077 JUMP JUMPDEST SWAP6 POP POP PUSH1 0x20 PUSH2 0x2290 DUP9 DUP3 DUP10 ADD PUSH2 0x2077 JUMP JUMPDEST SWAP5 POP POP PUSH1 0x40 PUSH2 0x22A1 DUP9 DUP3 DUP10 ADD PUSH2 0x2149 JUMP JUMPDEST SWAP4 POP POP PUSH1 0x60 PUSH2 0x22B2 DUP9 DUP3 DUP10 ADD PUSH2 0x2149 JUMP JUMPDEST SWAP3 POP POP PUSH1 0x80 DUP7 ADD CALLDATALOAD PUSH8 0xFFFFFFFFFFFFFFFF DUP2 GT ISZERO PUSH2 0x22CF JUMPI PUSH1 0x0 DUP1 REVERT JUMPDEST PUSH2 0x22DB DUP9 DUP3 DUP10 ADD PUSH2 0x211F JUMP JUMPDEST SWAP2 POP POP SWAP3 SWAP6 POP SWAP3 SWAP6 SWAP1 SWAP4 POP JUMP JUMPDEST PUSH1 0x0 DUP1 PUSH1 0x40 DUP4 DUP6 SUB SLT ISZERO PUSH2 0x22FB JUMPI PUSH1 0x0 DUP1 REVERT JUMPDEST PUSH1 0x0 PUSH2 0x2309 DUP6 DUP3 DUP7 ADD PUSH2 0x2077 JUMP JUMPDEST SWAP3 POP POP PUSH1 0x20 PUSH2 0x231A DUP6 DUP3 DUP7 ADD PUSH2 0x20E0 JUMP JUMPDEST SWAP2 POP POP SWAP3 POP SWAP3 SWAP1 POP JUMP JUMPDEST PUSH1 0x0 DUP1 PUSH1 0x40 DUP4 DUP6 SUB SLT ISZERO PUSH2 0x2337 JUMPI PUSH1 0x0 DUP1 REVERT JUMPDEST PUSH1 0x0 PUSH2 0x2345 DUP6 DUP3 DUP7 ADD PUSH2 0x2077 JUMP JUMPDEST SWAP3 POP POP PUSH1 0x20 PUSH2 0x2356 DUP6 DUP3 DUP7 ADD PUSH2 0x2149 JUMP JUMPDEST SWAP2 POP POP SWAP3 POP SWAP3 SWAP1 POP JUMP JUMPDEST PUSH1 0x0 DUP1 PUSH1 0x40 DUP4 DUP6 SUB SLT ISZERO PUSH2 0x2373 JUMPI PUSH1 0x0 DUP1 REVERT JUMPDEST PUSH1 0x0 DUP4 ADD CALLDATALOAD PUSH8 0xFFFFFFFFFFFFFFFF DUP2 GT ISZERO PUSH2 0x238D JUMPI PUSH1 0x0 DUP1 REVERT JUMPDEST PUSH2 0x2399 DUP6 DUP3 DUP7 ADD PUSH2 0x208C JUMP JUMPDEST SWAP3 POP POP PUSH1 0x20 DUP4 ADD CALLDATALOAD PUSH8 0xFFFFFFFFFFFFFFFF DUP2 GT ISZERO PUSH2 0x23B6 JUMPI PUSH1 0x0 DUP1 REVERT JUMPDEST PUSH2 0x23C2 DUP6 DUP3 DUP7 ADD PUSH2 0x20B6 JUMP JUMPDEST SWAP2 POP POP SWAP3 POP SWAP3 SWAP1 POP JUMP JUMPDEST PUSH1 0x0 PUSH1 0x20 DUP3 DUP5 SUB SLT ISZERO PUSH2 0x23DE JUMPI PUSH1 0x0 DUP1 REVERT JUMPDEST PUSH1 0x0 PUSH2 0x23EC DUP5 DUP3 DUP6 ADD PUSH2 0x20F5 JUMP JUMPDEST SWAP2 POP POP SWAP3 SWAP2 POP POP JUMP JUMPDEST PUSH1 0x0 PUSH1 0x20 DUP3 DUP5 SUB SLT ISZERO PUSH2 0x2407 JUMPI PUSH1 0x0 DUP1 REVERT JUMPDEST PUSH1 0x0 PUSH2 0x2415 DUP5 DUP3 DUP6 ADD PUSH2 0x210A JUMP JUMPDEST SWAP2 POP POP SWAP3 SWAP2 POP POP JUMP JUMPDEST PUSH1 0x0 PUSH1 0x20 DUP3 DUP5 SUB SLT ISZERO PUSH2 0x2430 JUMPI PUSH1 0x0 DUP1 REVERT JUMPDEST PUSH1 0x0 PUSH2 0x243E DUP5 DUP3 DUP6 ADD PUSH2 0x2149 JUMP JUMPDEST SWAP2 POP POP SWAP3 SWAP2 POP POP JUMP JUMPDEST PUSH1 0x0 DUP1 PUSH1 0x40 DUP4 DUP6 SUB SLT ISZERO PUSH2 0x245A JUMPI PUSH1 0x0 DUP1 REVERT JUMPDEST PUSH1 0x0 PUSH2 0x2468 DUP6 DUP3 DUP7 ADD PUSH2 0x2149 JUMP JUMPDEST SWAP3 POP POP PUSH1 0x20 PUSH2 0x2479 DUP6 DUP3 DUP7 ADD PUSH2 0x2149 JUMP JUMPDEST SWAP2 POP POP SWAP3 POP SWAP3 SWAP1 POP JUMP JUMPDEST PUSH1 0x0 PUSH2 0x248F DUP4 DUP4 PUSH2 0x2AD1 JUMP JUMPDEST PUSH1 0x20 DUP4 ADD SWAP1 POP SWAP3 SWAP2 POP POP JUMP JUMPDEST PUSH2 0x24A4 DUP2 PUSH2 0x31FB JUMP JUMPDEST DUP3 MSTORE POP POP JUMP JUMPDEST PUSH1 0x0 PUSH2 0x24B5 DUP3 PUSH2 0x2F14 JUMP JUMPDEST PUSH2 0x24BF DUP2 DUP6 PUSH2 0x2F42 JUMP JUMPDEST SWAP4 POP PUSH2 0x24CA DUP4 PUSH2 0x2F04 JUMP JUMPDEST DUP1 PUSH1 0x0 JUMPDEST DUP4 DUP2 LT ISZERO PUSH2 0x24FB JUMPI DUP2 MLOAD PUSH2 0x24E2 DUP9 DUP3 PUSH2 0x2483 JUMP JUMPDEST SWAP8 POP PUSH2 0x24ED DUP4 PUSH2 0x2F35 JUMP JUMPDEST SWAP3 POP POP PUSH1 0x1 DUP2 ADD SWAP1 POP PUSH2 0x24CE JUMP JUMPDEST POP DUP6 SWAP4 POP POP POP POP SWAP3 SWAP2 POP POP JUMP JUMPDEST PUSH2 0x2511 DUP2 PUSH2 0x320D JUMP JUMPDEST DUP3 MSTORE POP POP JUMP JUMPDEST PUSH1 0x0 PUSH2 0x2522 DUP3 PUSH2 0x2F1F JUMP JUMPDEST PUSH2 0x252C DUP2 DUP6 PUSH2 0x2F53 JUMP JUMPDEST SWAP4 POP PUSH2 0x253C DUP2 DUP6 PUSH1 0x20 DUP7 ADD PUSH2 0x327E JUMP JUMPDEST PUSH2 0x2545 DUP2 PUSH2 0x3419 JUMP JUMPDEST DUP5 ADD SWAP2 POP POP SWAP3 SWAP2 POP POP JUMP JUMPDEST PUSH1 0x0 PUSH2 0x255B DUP3 PUSH2 0x2F2A JUMP JUMPDEST PUSH2 0x2565 DUP2 DUP6 PUSH2 0x2F64 JUMP JUMPDEST SWAP4 POP PUSH2 0x2575 DUP2 DUP6 PUSH1 0x20 DUP7 ADD PUSH2 0x327E JUMP JUMPDEST PUSH2 0x257E DUP2 PUSH2 0x3419 JUMP JUMPDEST DUP5 ADD SWAP2 POP POP SWAP3 SWAP2 POP POP JUMP JUMPDEST PUSH1 0x0 PUSH2 0x2596 PUSH1 0x34 DUP4 PUSH2 0x2F64 JUMP JUMPDEST SWAP2 POP PUSH32 0x455243313135353A207472616E7366657220746F206E6F6E2045524331313535 PUSH1 0x0 DUP4 ADD MSTORE PUSH32 0x526563656976657220696D706C656D656E746572000000000000000000000000 PUSH1 0x20 DUP4 ADD MSTORE PUSH1 0x40 DUP3 ADD SWAP1 POP SWAP2 SWAP1 POP JUMP JUMPDEST PUSH1 0x0 PUSH2 0x25FC PUSH1 0x28 DUP4 PUSH2 0x2F64 JUMP JUMPDEST SWAP2 POP PUSH32 0x455243313135353A204552433131353552656365697665722072656A65637465 PUSH1 0x0 DUP4 ADD MSTORE PUSH32 0x6420746F6B656E73000000000000000000000000000000000000000000000000 PUSH1 0x20 DUP4 ADD MSTORE PUSH1 0x40 DUP3 ADD SWAP1 POP SWAP2 SWAP1 POP JUMP JUMPDEST PUSH1 0x0 PUSH2 0x2662 PUSH1 0x2B DUP4 PUSH2 0x2F64 JUMP JUMPDEST SWAP2 POP PUSH32 0x455243313135353A2062616C616E636520717565727920666F7220746865207A PUSH1 0x0 DUP4 ADD MSTORE PUSH32 0x65726F2061646472657373000000000000000000000000000000000000000000 PUSH1 0x20 DUP4 ADD MSTORE PUSH1 0x40 DUP3 ADD SWAP1 POP SWAP2 SWAP1 POP JUMP JUMPDEST PUSH1 0x0 PUSH2 0x26C8 PUSH1 0x29 DUP4 PUSH2 0x2F64 JUMP JUMPDEST SWAP2 POP PUSH32 0x455243313135353A2063616C6C6572206973206E6F74206F776E6572206E6F72 PUSH1 0x0 DUP4 ADD MSTORE PUSH32 0x20617070726F7665640000000000000000000000000000000000000000000000 PUSH1 0x20 DUP4 ADD MSTORE PUSH1 0x40 DUP3 ADD SWAP1 POP SWAP2 SWAP1 POP JUMP JUMPDEST PUSH1 0x0 PUSH2 0x272E PUSH1 0x25 DUP4 PUSH2 0x2F64 JUMP JUMPDEST SWAP2 POP PUSH32 0x455243313135353A207472616E7366657220746F20746865207A65726F206164 PUSH1 0x0 DUP4 ADD MSTORE PUSH32 0x6472657373000000000000000000000000000000000000000000000000000000 PUSH1 0x20 DUP4 ADD MSTORE PUSH1 0x40 DUP3 ADD SWAP1 POP SWAP2 SWAP1 POP JUMP JUMPDEST PUSH1 0x0 PUSH2 0x2794 PUSH1 0x32 DUP4 PUSH2 0x2F64 JUMP JUMPDEST SWAP2 POP PUSH32 0x455243313135353A207472616E736665722063616C6C6572206973206E6F7420 PUSH1 0x0 DUP4 ADD MSTORE PUSH32 0x6F776E6572206E6F7220617070726F7665640000000000000000000000000000 PUSH1 0x20 DUP4 ADD MSTORE PUSH1 0x40 DUP3 ADD SWAP1 POP SWAP2 SWAP1 POP JUMP JUMPDEST PUSH1 0x0 PUSH2 0x27FA PUSH1 0x21 DUP4 PUSH2 0x2F64 JUMP JUMPDEST SWAP2 POP PUSH32 0x6765745265717569726564416D6F756E743A20707269636520746F6F20686967 PUSH1 0x0 DUP4 ADD MSTORE PUSH32 0x6800000000000000000000000000000000000000000000000000000000000000 PUSH1 0x20 DUP4 ADD MSTORE PUSH1 0x40 DUP3 ADD SWAP1 POP SWAP2 SWAP1 POP JUMP JUMPDEST PUSH1 0x0 PUSH2 0x2860 PUSH1 0x2A DUP4 PUSH2 0x2F64 JUMP JUMPDEST SWAP2 POP PUSH32 0x455243313135353A20696E73756666696369656E742062616C616E636520666F PUSH1 0x0 DUP4 ADD MSTORE PUSH32 0x72207472616E7366657200000000000000000000000000000000000000000000 PUSH1 0x20 DUP4 ADD MSTORE PUSH1 0x40 DUP3 ADD SWAP1 POP SWAP2 SWAP1 POP JUMP JUMPDEST PUSH1 0x0 PUSH2 0x28C6 PUSH1 0x20 DUP4 PUSH2 0x2F64 JUMP JUMPDEST SWAP2 POP PUSH32 0x6765745265717569726564416D6F756E743A20707269636520746F6F206C6F77 PUSH1 0x0 DUP4 ADD MSTORE PUSH1 0x20 DUP3 ADD SWAP1 POP SWAP2 SWAP1 POP JUMP JUMPDEST PUSH1 0x0 PUSH2 0x2906 PUSH1 0x29 DUP4 PUSH2 0x2F64 JUMP JUMPDEST SWAP2 POP PUSH32 0x455243313135353A2073657474696E6720617070726F76616C20737461747573 PUSH1 0x0 DUP4 ADD MSTORE PUSH32 0x20666F722073656C660000000000000000000000000000000000000000000000 PUSH1 0x20 DUP4 ADD MSTORE PUSH1 0x40 DUP3 ADD SWAP1 POP SWAP2 SWAP1 POP JUMP JUMPDEST PUSH1 0x0 PUSH2 0x296C PUSH1 0x29 DUP4 PUSH2 0x2F64 JUMP JUMPDEST SWAP2 POP PUSH32 0x455243313135353A206163636F756E747320616E6420696473206C656E677468 PUSH1 0x0 DUP4 ADD MSTORE PUSH32 0x206D69736D617463680000000000000000000000000000000000000000000000 PUSH1 0x20 DUP4 ADD MSTORE PUSH1 0x40 DUP3 ADD SWAP1 POP SWAP2 SWAP1 POP JUMP JUMPDEST PUSH1 0x0 PUSH2 0x29D2 PUSH1 0x28 DUP4 PUSH2 0x2F64 JUMP JUMPDEST SWAP2 POP PUSH32 0x455243313135353A2069647320616E6420616D6F756E7473206C656E67746820 PUSH1 0x0 DUP4 ADD MSTORE PUSH32 0x6D69736D61746368000000000000000000000000000000000000000000000000 PUSH1 0x20 DUP4 ADD MSTORE PUSH1 0x40 DUP3 ADD SWAP1 POP SWAP2 SWAP1 POP JUMP JUMPDEST PUSH1 0x0 PUSH2 0x2A38 PUSH1 0x21 DUP4 PUSH2 0x2F64 JUMP JUMPDEST SWAP2 POP PUSH32 0x455243313135353A206D696E7420746F20746865207A65726F20616464726573 PUSH1 0x0 DUP4 ADD MSTORE PUSH32 0x7300000000000000000000000000000000000000000000000000000000000000 PUSH1 0x20 DUP4 ADD MSTORE PUSH1 0x40 DUP3 ADD SWAP1 POP SWAP2 SWAP1 POP JUMP JUMPDEST PUSH1 0x0 PUSH2 0x2A9E PUSH1 0x1C DUP4 PUSH2 0x2F64 JUMP JUMPDEST SWAP2 POP PUSH32 0x6C6F6761726974686D3A206F706572616E6420746F6F20736D616C6C00000000 PUSH1 0x0 DUP4 ADD MSTORE PUSH1 0x20 DUP3 ADD SWAP1 POP SWAP2 SWAP1 POP JUMP JUMPDEST PUSH2 0x2ADA DUP2 PUSH2 0x3265 JUMP JUMPDEST DUP3 MSTORE POP POP JUMP JUMPDEST PUSH2 0x2AE9 DUP2 PUSH2 0x3265 JUMP JUMPDEST DUP3 MSTORE POP POP JUMP JUMPDEST PUSH1 0x0 PUSH1 0xA0 DUP3 ADD SWAP1 POP PUSH2 0x2B04 PUSH1 0x0 DUP4 ADD DUP9 PUSH2 0x249B JUMP JUMPDEST PUSH2 0x2B11 PUSH1 0x20 DUP4 ADD DUP8 PUSH2 0x249B JUMP JUMPDEST DUP2 DUP2 SUB PUSH1 0x40 DUP4 ADD MSTORE PUSH2 0x2B23 DUP2 DUP7 PUSH2 0x24AA JUMP JUMPDEST SWAP1 POP DUP2 DUP2 SUB PUSH1 0x60 DUP4 ADD MSTORE PUSH2 0x2B37 DUP2 DUP6 PUSH2 0x24AA JUMP JUMPDEST SWAP1 POP DUP2 DUP2 SUB PUSH1 0x80 DUP4 ADD MSTORE PUSH2 0x2B4B DUP2 DUP5 PUSH2 0x2517 JUMP JUMPDEST SWAP1 POP SWAP7 SWAP6 POP POP POP POP POP POP JUMP JUMPDEST PUSH1 0x0 PUSH1 0xA0 DUP3 ADD SWAP1 POP PUSH2 0x2B6C PUSH1 0x0 DUP4 ADD DUP9 PUSH2 0x249B JUMP JUMPDEST PUSH2 0x2B79 PUSH1 0x20 DUP4 ADD DUP8 PUSH2 0x249B JUMP JUMPDEST PUSH2 0x2B86 PUSH1 0x40 DUP4 ADD DUP7 PUSH2 0x2AE0 JUMP JUMPDEST PUSH2 0x2B93 PUSH1 0x60 DUP4 ADD DUP6 PUSH2 0x2AE0 JUMP JUMPDEST DUP2 DUP2 SUB PUSH1 0x80 DUP4 ADD MSTORE PUSH2 0x2BA5 DUP2 DUP5 PUSH2 0x2517 JUMP JUMPDEST SWAP1 POP SWAP7 SWAP6 POP POP POP POP POP POP JUMP JUMPDEST PUSH1 0x0 PUSH1 0x20 DUP3 ADD SWAP1 POP DUP2 DUP2 SUB PUSH1 0x0 DUP4 ADD MSTORE PUSH2 0x2BCB DUP2 DUP5 PUSH2 0x24AA JUMP JUMPDEST SWAP1 POP SWAP3 SWAP2 POP POP JUMP JUMPDEST PUSH1 0x0 PUSH1 0x40 DUP3 ADD SWAP1 POP DUP2 DUP2 SUB PUSH1 0x0 DUP4 ADD MSTORE PUSH2 0x2BED DUP2 DUP6 PUSH2 0x24AA JUMP JUMPDEST SWAP1 POP DUP2 DUP2 SUB PUSH1 0x20 DUP4 ADD MSTORE PUSH2 0x2C01 DUP2 DUP5 PUSH2 0x24AA JUMP JUMPDEST SWAP1 POP SWAP4 SWAP3 POP POP POP JUMP JUMPDEST PUSH1 0x0 PUSH1 0x20 DUP3 ADD SWAP1 POP PUSH2 0x2C1F PUSH1 0x0 DUP4 ADD DUP5 PUSH2 0x2508 JUMP JUMPDEST SWAP3 SWAP2 POP POP JUMP JUMPDEST PUSH1 0x0 PUSH1 0x20 DUP3 ADD SWAP1 POP DUP2 DUP2 SUB PUSH1 0x0 DUP4 ADD MSTORE PUSH2 0x2C3F DUP2 DUP5 PUSH2 0x2550 JUMP JUMPDEST SWAP1 POP SWAP3 SWAP2 POP POP JUMP JUMPDEST PUSH1 0x0 PUSH1 0x20 DUP3 ADD SWAP1 POP DUP2 DUP2 SUB PUSH1 0x0 DUP4 ADD MSTORE PUSH2 0x2C60 DUP2 PUSH2 0x2589 JUMP JUMPDEST SWAP1 POP SWAP2 SWAP1 POP JUMP JUMPDEST PUSH1 0x0 PUSH1 0x20 DUP3 ADD SWAP1 POP DUP2 DUP2 SUB PUSH1 0x0 DUP4 ADD MSTORE PUSH2 0x2C80 DUP2 PUSH2 0x25EF JUMP JUMPDEST SWAP1 POP SWAP2 SWAP1 POP JUMP JUMPDEST PUSH1 0x0 PUSH1 0x20 DUP3 ADD SWAP1 POP DUP2 DUP2 SUB PUSH1 0x0 DUP4 ADD MSTORE PUSH2 0x2CA0 DUP2 PUSH2 0x2655 JUMP JUMPDEST SWAP1 POP SWAP2 SWAP1 POP JUMP JUMPDEST PUSH1 0x0 PUSH1 0x20 DUP3 ADD SWAP1 POP DUP2 DUP2 SUB PUSH1 0x0 DUP4 ADD MSTORE PUSH2 0x2CC0 DUP2 PUSH2 0x26BB JUMP JUMPDEST SWAP1 POP SWAP2 SWAP1 POP JUMP JUMPDEST PUSH1 0x0 PUSH1 0x20 DUP3 ADD SWAP1 POP DUP2 DUP2 SUB PUSH1 0x0 DUP4 ADD MSTORE PUSH2 0x2CE0 DUP2 PUSH2 0x2721 JUMP JUMPDEST SWAP1 POP SWAP2 SWAP1 POP JUMP JUMPDEST PUSH1 0x0 PUSH1 0x20 DUP3 ADD SWAP1 POP DUP2 DUP2 SUB PUSH1 0x0 DUP4 ADD MSTORE PUSH2 0x2D00 DUP2 PUSH2 0x2787 JUMP JUMPDEST SWAP1 POP SWAP2 SWAP1 POP JUMP JUMPDEST PUSH1 0x0 PUSH1 0x20 DUP3 ADD SWAP1 POP DUP2 DUP2 SUB PUSH1 0x0 DUP4 ADD MSTORE PUSH2 0x2D20 DUP2 PUSH2 0x27ED JUMP JUMPDEST SWAP1 POP SWAP2 SWAP1 POP JUMP JUMPDEST PUSH1 0x0 PUSH1 0x20 DUP3 ADD SWAP1 POP DUP2 DUP2 SUB PUSH1 0x0 DUP4 ADD MSTORE PUSH2 0x2D40 DUP2 PUSH2 0x2853 JUMP JUMPDEST SWAP1 POP SWAP2 SWAP1 POP JUMP JUMPDEST PUSH1 0x0 PUSH1 0x20 DUP3 ADD SWAP1 POP DUP2 DUP2 SUB PUSH1 0x0 DUP4 ADD MSTORE PUSH2 0x2D60 DUP2 PUSH2 0x28B9 JUMP JUMPDEST SWAP1 POP SWAP2 SWAP1 POP JUMP JUMPDEST PUSH1 0x0 PUSH1 0x20 DUP3 ADD SWAP1 POP DUP2 DUP2 SUB PUSH1 0x0 DUP4 ADD MSTORE PUSH2 0x2D80 DUP2 PUSH2 0x28F9 JUMP JUMPDEST SWAP1 POP SWAP2 SWAP1 POP JUMP JUMPDEST PUSH1 0x0 PUSH1 0x20 DUP3 ADD SWAP1 POP DUP2 DUP2 SUB PUSH1 0x0 DUP4 ADD MSTORE PUSH2 0x2DA0 DUP2 PUSH2 0x295F JUMP JUMPDEST SWAP1 POP SWAP2 SWAP1 POP JUMP JUMPDEST PUSH1 0x0 PUSH1 0x20 DUP3 ADD SWAP1 POP DUP2 DUP2 SUB PUSH1 0x0 DUP4 ADD MSTORE PUSH2 0x2DC0 DUP2 PUSH2 0x29C5 JUMP JUMPDEST SWAP1 POP SWAP2 SWAP1 POP JUMP JUMPDEST PUSH1 0x0 PUSH1 0x20 DUP3 ADD SWAP1 POP DUP2 DUP2 SUB PUSH1 0x0 DUP4 ADD MSTORE PUSH2 0x2DE0 DUP2 PUSH2 0x2A2B JUMP JUMPDEST SWAP1 POP SWAP2 SWAP1 POP JUMP JUMPDEST PUSH1 0x0 PUSH1 0x20 DUP3 ADD SWAP1 POP DUP2 DUP2 SUB PUSH1 0x0 DUP4 ADD MSTORE PUSH2 0x2E00 DUP2 PUSH2 0x2A91 JUMP JUMPDEST SWAP1 POP SWAP2 SWAP1 POP JUMP JUMPDEST PUSH1 0x0 PUSH1 0x20 DUP3 ADD SWAP1 POP PUSH2 0x2E1C PUSH1 0x0 DUP4 ADD DUP5 PUSH2 0x2AE0 JUMP JUMPDEST SWAP3 SWAP2 POP POP JUMP JUMPDEST PUSH1 0x0 PUSH1 0x40 DUP3 ADD SWAP1 POP PUSH2 0x2E37 PUSH1 0x0 DUP4 ADD DUP6 PUSH2 0x2AE0 JUMP JUMPDEST PUSH2 0x2E44 PUSH1 0x20 DUP4 ADD DUP5 PUSH2 0x2AE0 JUMP JUMPDEST SWAP4 SWAP3 POP POP POP JUMP JUMPDEST PUSH1 0x0 PUSH1 0x40 MLOAD SWAP1 POP DUP2 DUP2 ADD DUP2 DUP2 LT PUSH8 0xFFFFFFFFFFFFFFFF DUP3 GT OR ISZERO PUSH2 0x2E72 JUMPI PUSH2 0x2E71 PUSH2 0x33EA JUMP JUMPDEST JUMPDEST DUP1 PUSH1 0x40 MSTORE POP SWAP2 SWAP1 POP JUMP JUMPDEST PUSH1 0x0 PUSH8 0xFFFFFFFFFFFFFFFF DUP3 GT ISZERO PUSH2 0x2E97 JUMPI PUSH2 0x2E96 PUSH2 0x33EA JUMP JUMPDEST JUMPDEST PUSH1 0x20 DUP3 MUL SWAP1 POP PUSH1 0x20 DUP2 ADD SWAP1 POP SWAP2 SWAP1 POP JUMP JUMPDEST PUSH1 0x0 PUSH8 0xFFFFFFFFFFFFFFFF DUP3 GT ISZERO PUSH2 0x2EC3 JUMPI PUSH2 0x2EC2 PUSH2 0x33EA JUMP JUMPDEST JUMPDEST PUSH1 0x20 DUP3 MUL SWAP1 POP PUSH1 0x20 DUP2 ADD SWAP1 POP SWAP2 SWAP1 POP JUMP JUMPDEST PUSH1 0x0 PUSH8 0xFFFFFFFFFFFFFFFF DUP3 GT ISZERO PUSH2 0x2EEF JUMPI PUSH2 0x2EEE PUSH2 0x33EA JUMP JUMPDEST JUMPDEST PUSH1 0x1F NOT PUSH1 0x1F DUP4 ADD AND SWAP1 POP PUSH1 0x20 DUP2 ADD SWAP1 POP SWAP2 SWAP1 POP JUMP JUMPDEST PUSH1 0x0 DUP2 SWAP1 POP PUSH1 0x20 DUP3 ADD SWAP1 POP SWAP2 SWAP1 POP JUMP JUMPDEST PUSH1 0x0 DUP2 MLOAD SWAP1 POP SWAP2 SWAP1 POP JUMP JUMPDEST PUSH1 0x0 DUP2 MLOAD SWAP1 POP SWAP2 SWAP1 POP JUMP JUMPDEST PUSH1 0x0 DUP2 MLOAD SWAP1 POP SWAP2 SWAP1 POP JUMP JUMPDEST PUSH1 0x0 PUSH1 0x20 DUP3 ADD SWAP1 POP SWAP2 SWAP1 POP JUMP JUMPDEST PUSH1 0x0 DUP3 DUP3 MSTORE PUSH1 0x20 DUP3 ADD SWAP1 POP SWAP3 SWAP2 POP POP JUMP JUMPDEST PUSH1 0x0 DUP3 DUP3 MSTORE PUSH1 0x20 DUP3 ADD SWAP1 POP SWAP3 SWAP2 POP POP JUMP JUMPDEST PUSH1 0x0 DUP3 DUP3 MSTORE PUSH1 0x20 DUP3 ADD SWAP1 POP SWAP3 SWAP2 POP POP JUMP JUMPDEST PUSH1 0x0 PUSH2 0x2F80 DUP3 PUSH2 0x3265 JUMP JUMPDEST SWAP2 POP PUSH2 0x2F8B DUP4 PUSH2 0x3265 JUMP JUMPDEST SWAP3 POP DUP3 PUSH32 0xFFFFFFFFFFFFFFFFFFFFFFFFFFFFFFFFFFFFFFFFFFFFFFFFFFFFFFFFFFFFFFFF SUB DUP3 GT ISZERO PUSH2 0x2FC0 JUMPI PUSH2 0x2FBF PUSH2 0x335D JUMP JUMPDEST JUMPDEST DUP3 DUP3 ADD SWAP1 POP SWAP3 SWAP2 POP POP JUMP JUMPDEST PUSH1 0x0 PUSH2 0x2FD6 DUP3 PUSH2 0x3265 JUMP JUMPDEST SWAP2 POP PUSH2 0x2FE1 DUP4 PUSH2 0x3265 JUMP JUMPDEST SWAP3 POP DUP3 PUSH2 0x2FF1 JUMPI PUSH2 0x2FF0 PUSH2 0x338C JUMP JUMPDEST JUMPDEST DUP3 DUP3 DIV SWAP1 POP SWAP3 SWAP2 POP POP JUMP JUMPDEST PUSH1 0x0 DUP1 DUP3 SWAP2 POP DUP4 SWAP1 POP JUMPDEST PUSH1 0x1 DUP6 GT ISZERO PUSH2 0x3046 JUMPI DUP1 DUP7 DIV DUP2 GT ISZERO PUSH2 0x3022 JUMPI PUSH2 0x3021 PUSH2 0x335D JUMP JUMPDEST JUMPDEST PUSH1 0x1 DUP6 AND ISZERO PUSH2 0x3031 JUMPI DUP1 DUP3 MUL SWAP2 POP JUMPDEST DUP1 DUP2 MUL SWAP1 POP PUSH2 0x303F DUP6 PUSH2 0x342A JUMP JUMPDEST SWAP5 POP PUSH2 0x3006 JUMP JUMPDEST SWAP5 POP SWAP5 SWAP3 POP POP POP JUMP JUMPDEST PUSH1 0x0 PUSH2 0x305A DUP3 PUSH2 0x3265 JUMP JUMPDEST SWAP2 POP PUSH2 0x3065 DUP4 PUSH2 0x3265 JUMP JUMPDEST SWAP3 POP PUSH2 0x3092 PUSH32 0xFFFFFFFFFFFFFFFFFFFFFFFFFFFFFFFFFFFFFFFFFFFFFFFFFFFFFFFFFFFFFFFF DUP5 DUP5 PUSH2 0x309A JUMP JUMPDEST SWAP1 POP SWAP3 SWAP2 POP POP JUMP JUMPDEST PUSH1 0x0 DUP3 PUSH2 0x30AA JUMPI PUSH1 0x1 SWAP1 POP PUSH2 0x3166 JUMP JUMPDEST DUP2 PUSH2 0x30B8 JUMPI PUSH1 0x0 SWAP1 POP PUSH2 0x3166 JUMP JUMPDEST DUP2 PUSH1 0x1 DUP2 EQ PUSH2 0x30CE JUMPI PUSH1 0x2 DUP2 EQ PUSH2 0x30D8 JUMPI PUSH2 0x3107 JUMP JUMPDEST PUSH1 0x1 SWAP2 POP POP PUSH2 0x3166 JUMP JUMPDEST PUSH1 0xFF DUP5 GT ISZERO PUSH2 0x30EA JUMPI PUSH2 0x30E9 PUSH2 0x335D JUMP JUMPDEST JUMPDEST DUP4 PUSH1 0x2 EXP SWAP2 POP DUP5 DUP3 GT ISZERO PUSH2 0x3101 JUMPI PUSH2 0x3100 PUSH2 0x335D JUMP JUMPDEST JUMPDEST POP PUSH2 0x3166 JUMP JUMPDEST POP PUSH1 0x20 DUP4 LT PUSH2 0x133 DUP4 LT AND PUSH1 0x4E DUP5 LT PUSH1 0xB DUP5 LT AND OR ISZERO PUSH2 0x313C JUMPI DUP3 DUP3 EXP SWAP1 POP DUP4 DUP2 GT ISZERO PUSH2 0x3137 JUMPI PUSH2 0x3136 PUSH2 0x335D JUMP JUMPDEST JUMPDEST PUSH2 0x3166 JUMP JUMPDEST PUSH2 0x3149 DUP5 DUP5 DUP5 PUSH1 0x1 PUSH2 0x2FFC JUMP JUMPDEST SWAP3 POP SWAP1 POP DUP2 DUP5 DIV DUP2 GT ISZERO PUSH2 0x3160 JUMPI PUSH2 0x315F PUSH2 0x335D JUMP JUMPDEST JUMPDEST DUP2 DUP2 MUL SWAP1 POP JUMPDEST SWAP4 SWAP3 POP POP POP JUMP JUMPDEST PUSH1 0x0 PUSH2 0x3178 DUP3 PUSH2 0x3265 JUMP JUMPDEST SWAP2 POP PUSH2 0x3183 DUP4 PUSH2 0x3265 JUMP JUMPDEST SWAP3 POP DUP2 PUSH32 0xFFFFFFFFFFFFFFFFFFFFFFFFFFFFFFFFFFFFFFFFFFFFFFFFFFFFFFFFFFFFFFFF DIV DUP4 GT DUP3 ISZERO ISZERO AND ISZERO PUSH2 0x31BC JUMPI PUSH2 0x31BB PUSH2 0x335D JUMP JUMPDEST JUMPDEST DUP3 DUP3 MUL SWAP1 POP SWAP3 SWAP2 POP POP JUMP JUMPDEST PUSH1 0x0 PUSH2 0x31D2 DUP3 PUSH2 0x3265 JUMP JUMPDEST SWAP2 POP PUSH2 0x31DD DUP4 PUSH2 0x3265 JUMP JUMPDEST SWAP3 POP DUP3 DUP3 LT ISZERO PUSH2 0x31F0 JUMPI PUSH2 0x31EF PUSH2 0x335D JUMP JUMPDEST JUMPDEST DUP3 DUP3 SUB SWAP1 POP SWAP3 SWAP2 POP POP JUMP JUMPDEST PUSH1 0x0 PUSH2 0x3206 DUP3 PUSH2 0x3245 JUMP JUMPDEST SWAP1 POP SWAP2 SWAP1 POP JUMP JUMPDEST PUSH1 0x0 DUP2 ISZERO ISZERO SWAP1 POP SWAP2 SWAP1 POP JUMP JUMPDEST PUSH1 0x0 PUSH32 0xFFFFFFFF00000000000000000000000000000000000000000000000000000000 DUP3 AND SWAP1 POP SWAP2 SWAP1 POP JUMP JUMPDEST PUSH1 0x0 PUSH20 0xFFFFFFFFFFFFFFFFFFFFFFFFFFFFFFFFFFFFFFFF DUP3 AND SWAP1 POP SWAP2 SWAP1 POP JUMP JUMPDEST PUSH1 0x0 DUP2 SWAP1 POP SWAP2 SWAP1 POP JUMP JUMPDEST DUP3 DUP2 DUP4 CALLDATACOPY PUSH1 0x0 DUP4 DUP4 ADD MSTORE POP POP POP JUMP JUMPDEST PUSH1 0x0 JUMPDEST DUP4 DUP2 LT ISZERO PUSH2 0x329C JUMPI DUP1 DUP3 ADD MLOAD DUP2 DUP5 ADD MSTORE PUSH1 0x20 DUP2 ADD SWAP1 POP PUSH2 0x3281 JUMP JUMPDEST DUP4 DUP2 GT ISZERO PUSH2 0x32AB JUMPI PUSH1 0x0 DUP5 DUP5 ADD MSTORE JUMPDEST POP POP POP POP JUMP JUMPDEST PUSH1 0x0 PUSH1 0x2 DUP3 DIV SWAP1 POP PUSH1 0x1 DUP3 AND DUP1 PUSH2 0x32C9 JUMPI PUSH1 0x7F DUP3 AND SWAP2 POP JUMPDEST PUSH1 0x20 DUP3 LT DUP2 EQ ISZERO PUSH2 0x32DD JUMPI PUSH2 0x32DC PUSH2 0x33BB JUMP JUMPDEST JUMPDEST POP SWAP2 SWAP1 POP JUMP JUMPDEST PUSH1 0x0 PUSH2 0x32EE DUP3 PUSH2 0x3265 JUMP JUMPDEST SWAP2 POP PUSH32 0xFFFFFFFFFFFFFFFFFFFFFFFFFFFFFFFFFFFFFFFFFFFFFFFFFFFFFFFFFFFFFFFF DUP3 EQ ISZERO PUSH2 0x3321 JUMPI PUSH2 0x3320 PUSH2 0x335D JUMP JUMPDEST JUMPDEST PUSH1 0x1 DUP3 ADD SWAP1 POP SWAP2 SWAP1 POP JUMP JUMPDEST PUSH1 0x0 PUSH2 0x3337 DUP3 PUSH2 0x3265 JUMP JUMPDEST SWAP2 POP PUSH2 0x3342 DUP4 PUSH2 0x3265 JUMP JUMPDEST SWAP3 POP DUP3 PUSH2 0x3352 JUMPI PUSH2 0x3351 PUSH2 0x338C JUMP JUMPDEST JUMPDEST DUP3 DUP3 MOD SWAP1 POP SWAP3 SWAP2 POP POP JUMP JUMPDEST PUSH32 0x4E487B7100000000000000000000000000000000000000000000000000000000 PUSH1 0x0 MSTORE PUSH1 0x11 PUSH1 0x4 MSTORE PUSH1 0x24 PUSH1 0x0 REVERT JUMPDEST PUSH32 0x4E487B7100000000000000000000000000000000000000000000000000000000 PUSH1 0x0 MSTORE PUSH1 0x12 PUSH1 0x4 MSTORE PUSH1 0x24 PUSH1 0x0 REVERT JUMPDEST PUSH32 0x4E487B7100000000000000000000000000000000000000000000000000000000 PUSH1 0x0 MSTORE PUSH1 0x22 PUSH1 0x4 MSTORE PUSH1 0x24 PUSH1 0x0 REVERT JUMPDEST PUSH32 0x4E487B7100000000000000000000000000000000000000000000000000000000 PUSH1 0x0 MSTORE PUSH1 0x41 PUSH1 0x4 MSTORE PUSH1 0x24 PUSH1 0x0 REVERT JUMPDEST PUSH1 0x0 PUSH1 0x1F NOT PUSH1 0x1F DUP4 ADD AND SWAP1 POP SWAP2 SWAP1 POP JUMP JUMPDEST PUSH1 0x0 DUP2 PUSH1 0x1 SHR SWAP1 POP SWAP2 SWAP1 POP JUMP JUMPDEST PUSH1 0x0 DUP2 PUSH1 0xE0 SHR SWAP1 POP SWAP2 SWAP1 POP JUMP JUMPDEST PUSH1 0x0 PUSH1 0x44 RETURNDATASIZE LT ISZERO PUSH2 0x3454 JUMPI PUSH2 0x34F7 JUMP JUMPDEST PUSH1 0x4 PUSH1 0x0 DUP1 RETURNDATACOPY PUSH2 0x3465 PUSH1 0x0 MLOAD PUSH2 0x3437 JUMP JUMPDEST PUSH4 0x8C379A0 DUP2 EQ PUSH2 0x3476 JUMPI POP PUSH2 0x34F7 JUMP JUMPDEST PUSH1 0x40 MLOAD PUSH1 0x4 RETURNDATASIZE SUB PUSH1 0x4 DUP3 RETURNDATACOPY DUP1 MLOAD RETURNDATASIZE PUSH1 0x24 DUP3 ADD GT PUSH8 0xFFFFFFFFFFFFFFFF DUP3 GT OR ISZERO PUSH2 0x34A2 JUMPI POP POP POP PUSH2 0x34F7 JUMP JUMPDEST DUP1 DUP3 ADD DUP1 MLOAD PUSH8 0xFFFFFFFFFFFFFFFF DUP2 GT ISZERO PUSH2 0x34C1 JUMPI POP POP POP POP POP PUSH2 0x34F7 JUMP JUMPDEST DUP1 PUSH1 0x20 DUP4 ADD ADD RETURNDATASIZE DUP6 ADD DUP2 GT ISZERO PUSH2 0x34DC JUMPI POP POP POP POP POP POP PUSH2 0x34F7 JUMP JUMPDEST PUSH2 0x34E5 DUP3 PUSH2 0x3419 JUMP JUMPDEST PUSH1 0x20 DUP5 ADD ADD PUSH1 0x40 MSTORE DUP3 SWAP7 POP POP POP POP POP POP POP JUMPDEST SWAP1 JUMP JUMPDEST PUSH2 0x3503 DUP2 PUSH2 0x31FB JUMP JUMPDEST DUP2 EQ PUSH2 0x350E JUMPI PUSH1 0x0 DUP1 REVERT JUMPDEST POP JUMP JUMPDEST PUSH2 0x351A DUP2 PUSH2 0x320D JUMP JUMPDEST DUP2 EQ PUSH2 0x3525 JUMPI PUSH1 0x0 DUP1 REVERT JUMPDEST POP JUMP JUMPDEST PUSH2 0x3531 DUP2 PUSH2 0x3219 JUMP JUMPDEST DUP2 EQ PUSH2 0x353C JUMPI PUSH1 0x0 DUP1 REVERT JUMPDEST POP JUMP JUMPDEST PUSH2 0x3548 DUP2 PUSH2 0x3265 JUMP JUMPDEST DUP2 EQ PUSH2 0x3553 JUMPI PUSH1 0x0 DUP1 REVERT JUMPDEST POP JUMP INVALID STOP STOP STOP STOP STOP STOP STOP ADD STOP STOP STOP STOP STOP STOP STOP MUL STOP STOP STOP STOP STOP STOP STOP DIV STOP STOP STOP STOP STOP STOP STOP ADDMOD STOP STOP STOP STOP STOP STOP STOP LT STOP STOP STOP STOP STOP STOP STOP KECCAK256 STOP STOP STOP STOP STOP STOP STOP BLOCKHASH STOP STOP STOP STOP STOP STOP STOP DUP1 STOP STOP STOP STOP STOP STOP ADD STOP STOP STOP STOP STOP STOP STOP MUL STOP STOP STOP STOP STOP STOP STOP DIV STOP STOP STOP STOP STOP STOP STOP ADDMOD STOP STOP STOP STOP STOP STOP STOP LT STOP STOP STOP STOP STOP STOP STOP KECCAK256 STOP STOP STOP STOP STOP STOP STOP BLOCKHASH STOP STOP STOP STOP STOP STOP STOP DUP1 STOP STOP STOP STOP STOP STOP ADD STOP STOP STOP STOP STOP STOP STOP MUL STOP STOP STOP STOP STOP STOP STOP DIV STOP STOP STOP STOP STOP STOP STOP ADDMOD STOP STOP STOP STOP STOP STOP STOP LT STOP STOP STOP STOP STOP STOP STOP KECCAK256 STOP STOP STOP STOP STOP STOP STOP BLOCKHASH STOP STOP STOP STOP STOP STOP STOP DUP1 STOP STOP STOP STOP STOP STOP ADD STOP STOP STOP STOP STOP STOP STOP MUL STOP STOP STOP STOP STOP STOP STOP DIV STOP STOP STOP STOP STOP STOP STOP ADDMOD STOP STOP STOP STOP STOP STOP STOP LT STOP STOP STOP STOP STOP STOP STOP KECCAK256 STOP STOP STOP STOP STOP STOP STOP BLOCKHASH STOP STOP STOP STOP STOP STOP STOP DUP1 STOP STOP STOP STOP STOP STOP ADD STOP STOP STOP STOP STOP STOP STOP MUL STOP STOP STOP STOP STOP STOP STOP DIV STOP STOP STOP STOP STOP STOP STOP ADDMOD STOP STOP STOP STOP STOP STOP STOP LT STOP STOP STOP STOP STOP STOP STOP KECCAK256 STOP STOP STOP STOP STOP STOP STOP BLOCKHASH STOP STOP STOP STOP STOP STOP STOP DUP1 STOP STOP STOP STOP STOP STOP ADD STOP STOP STOP STOP STOP STOP STOP MUL STOP STOP STOP STOP STOP STOP STOP DIV STOP STOP STOP STOP STOP STOP STOP ADDMOD STOP STOP STOP STOP STOP STOP STOP LT STOP STOP STOP STOP STOP STOP STOP KECCAK256 STOP STOP STOP STOP STOP STOP STOP BLOCKHASH STOP STOP STOP STOP STOP STOP STOP DUP1 STOP STOP STOP STOP STOP STOP ADD STOP STOP STOP STOP STOP STOP STOP MUL STOP STOP STOP STOP STOP STOP STOP DIV STOP STOP STOP STOP STOP STOP STOP ADDMOD STOP STOP STOP STOP STOP STOP STOP LT STOP STOP STOP STOP STOP STOP STOP KECCAK256 STOP STOP STOP STOP STOP STOP STOP BLOCKHASH STOP STOP STOP STOP STOP STOP STOP DUP1 STOP STOP STOP STOP STOP STOP ADD STOP STOP STOP STOP STOP STOP STOP MUL STOP STOP STOP STOP STOP STOP STOP DIV STOP STOP STOP STOP STOP STOP STOP ADDMOD STOP STOP STOP STOP STOP STOP STOP LT STOP STOP STOP STOP STOP STOP STOP KECCAK256 STOP STOP STOP STOP STOP STOP STOP 0xD 0xE0 0xB6 0xB3 0xA7 PUSH5 0xDE0B6 0xB3 0xA7 PUSH5 0x10DE0B6 0xB3 0xA7 PUSH5 0x20DE0B6 0xB3 0xA7 PUSH5 0x50DE0B6 0xB3 0xA7 PUSH5 0xB0DE0B6 0xB3 0xA7 PUSH5 0x160DE0B6 0xB3 0xA7 PUSH5 0x2C0DE0B6 0xB3 0xA7 PUSH5 0x580DE0B6 0xB3 0xA7 PUSH5 0xB10DE0B6 0xB3 0xA7 PUSH5 0x1620DE0B6 0xB3 0xA7 PUSH5 0x2C50DE0B6 0xB3 0xA7 PUSH5 0x58B0DE0B6 0xB3 0xA7 PUSH5 0xB170DE0B6 0xB3 0xA7 PUSH5 0x162E0DE0B6 0xB3 0xA7 PUSH5 0x2C5C0DE0B6 0xB3 0xA7 PUSH5 0x58B90DE0B6 0xB3 0xA7 PUSH5 0xB1720DE0B6 0xB3 0xA7 PUSH6 0x62E40DE0B6B3 0xA7 PUSH7 0xC5C80DE0B6B3A7 PUSH10 0x8B900DE0B6B3A76F1721 0xD 0xE0 0xB6 0xB3 0xA7 PUSH27 0x2E420DE0B6B3A7905C850DE0B6B3A7BCB90B0DE0B6B3A81572170D 0xE0 0xB6 0xB3 0xA8 0xC6 0xE4 0x2F 0xD 0xE0 0xB6 0xB3 0xAA 0x29 0xC8 0x5F 0xD 0xE0 0xB6 0xB3 0xAC 0xEF SWAP1 0xBF 0xD 0xE0 0xB6 0xB3 0xB2 PUSH28 0x217F0DE0B6B3BD9242FF0DE0B6B3D3C085FE0DE0B6B4001D0BFD0DE0 0xB6 0xB4 PC 0xD6 OR 0xFC 0xD 0xE0 0xB6 0xB5 EXP 0x48 ADDRESS ADD 0xD 0xE0 0xB6 0xB6 PUSH14 0x2C60260DE0B6B932F4C0DA0DE0B6 0xBE 0xBE DUP6 DUP4 0xEB 0xD 0xE0 0xB6 0xC9 0xD5 0xA7 LT 0xB3 0xD 0xE0 0xB6 0xE0 SUB 0xEA DIFFICULTY 0xDB 0xD 0xE0 0xB7 0xC PUSH1 0x71 OR DUP5 0xD 0xE0 0xB7 PUSH6 0x198066410DE0 0xB8 AND DUP12 0xA5 0xA9 PUSH5 0xDE0B97970 EXP 0xC6 0x4C 0xD 0xE0 0xBC EXTCODEHASH CODECOPY EXTCODEHASH GAS 0xB5 0xD 0xE0 0xC1 0xCA 0xCD MLOAD 0xEE MSTORE 0xD 0xE0 0xCC 0xE1 0xFC SHR 0xC3 0xC6 0xD 0xE0 0xE3 LT PUSH21 0x49406E0DE10F6DCEFE47050DE1682A2DDEBC000DE2 NOT 0xA9 SWAP2 0xAA 0xDB SWAP4 0xD 0xE3 PUSH29 0xC2F2FCB7380DE6436028EE3A220DEBD244C555D3B40DF6F6B9DBCC5F41 0xE 0xD GAS PUSH13 0x6EA8A8410E3A8DBBD2B7E9D50E SWAP7 0xAA JUMPDEST 0xB8 PUSH29 0x13840F55EF96062919DD10F25DB82C317EA514B1C2442FFABE3C1EDBF2 0x5D 0xE7 0xA7 0xF PUSH19 0x449E9DD02D2817D4A264697066735822122017 0xEB CHAINID PUSH18 0x47139070FAA9787E70F8E6528CEC6702AE3C 0xC4 0xB0 DIFFICULTY SAR 0xC2 SGT PUSH20 0xAC281864736F6C63430008000033000000000000 "
        },
        "methodIdentifiers": {
          "_N()": "5655bb20",
          "_b()": "25374996",
          "_earnings()": "1ade9391",
          "_quantities(uint256)": "46c82b2c",
          "_total_sold()": "c6e3a9b3",
          "_total_weight()": "25f5eb81",
          "_value()": "b895c74a",
          "_weights(uint256)": "f3f03a61",
          "balanceOf(address,uint256)": "00fdd58e",
          "balanceOfBatch(address[],uint256[])": "4e1273f4",
          "fake_purchase(uint256,uint256)": "0b789a21",
          "getRequiredAmount(uint256,uint256)": "6a6e48a4",
          "get_bucket_price(uint256)": "8b47bbae",
          "isApprovedForAll(address,address)": "e985e9c5",
          "purchase(uint256,uint256)": "70876c98",
          "safeBatchTransferFrom(address,address,uint256[],uint256[],bytes)": "2eb2c2d6",
          "safeTransferFrom(address,address,uint256,uint256,bytes)": "f242432a",
          "setApprovalForAll(address,bool)": "a22cb465",
          "supportsInterface(bytes4)": "01ffc9a7",
          "uri(uint256)": "0e89341c"
        }
      }
    }
  }
}